:020000040000fa
:10000000f0ff02207d5700002b5900006b620000ba
:10001000276d0000a76e00009f7100000000000027
:10002000000000000000000000000000eb5600008f
:100030008b66000000000000eb560000eb5600004d
:10004000eb560000eb560000eb560000eb560000ac
:10005000eb560000eb560000eb560000eb5600009c
:10006000eb560000eb560000eb560000eb5600008c
:10007000e171000001720000eb560000eb56000039
:10008000eb560000eb560000eb560000217200001a
:10009000eb560000eb560000eb560000eb5600005c
:1000a000eb560000eb560000eb560000eb5600004c
:1000b000eb560000eb560000eb560000eb5600003c
:1000c000eb560000eb560000eb560000eb5600002c
:1000d000eb560000eb560000eb560000eb5600001c
:1000e000eb560000eb56000000000000000000008e
:1000f00000000000eb560000eb560000eb5600003d
:10010000eb560000eb560000eb560000eb560000eb
:10011000eb560000eb560000eb560000eb560000db
:10012000eb560000eb560000eb560000eb560000cb
:10013000eb560000eb560000eb560000eb560000bb
:10014000eb560000eb560000eb560000eb560000ab
:10015000eb560000eb56000000000000000000001d
:10016000000000000000000000000000000000008f
:10017000000000000000000000000000000000007f
:10018000eb560000eb560000eb560000eb5600006b
:1001900000000000eb560000eb560000eb5600009c
:1001a000eb560000eb560000eb560000eb5600004b
:1001b000eb560000eb560000eb560000eb5600003b
:1001c000eb560000eb560000eb560000eb5600002b
:1001d000eb560000eb560000eb560000eb5600001b
:1001e000eb560000eb560000eb560000016f0000dc
:1001f000eb560000eb560000eb560000eb560000fb
:10020000eb5600000000000000000000eb5600006c
:10021000eb560000eb560000eb560000eb560000da
:10022000eb560000eb560000eb560000eb560000ca
:10023000eb560000eb560000eb560000eb560000ba
:10024000eb560000eb560000eb560000eb560000aa
:10025000eb560000eb560000eb560000eb5600009a
:020000040000fa
:10026000f8b500bff8bc08bc9e4670477d6700002b
:10027000f8b500bff8bc08bc9e467047596700003f
:020000040000fa
:100280002de9f04f89b0b0f80890944b1e78002efd
:1002900040f0ae835ffa89f808f0e0040546202cb0
:1002a00019d009d9402c16d0602c00f0b38100275a
:1002b000bb464ff0030a06e0002c00f0ab8100279c
:1002c000bb464ff0030abaf1ff0f40f0ab81304656
:1002d00009b0bde8f08fb5f800a06f893b0203ebd1
:1002e00019239bb20393184606f0faff04900028e6
:1002f00000f086833a0a0592037b9a4204d90027cc
:10030000bb464ff0110a8de108f010030693024638
:100310000599039805f09ff98346402c48d0202c7e
:1003200000f09d80074600230793069b002b40f0ba
:10033000c380bbf1000f08d1694b039a1a80694b47
:10034000059a1a70684b049a1a60402c00f03181ab
:10035000069b0193079b0093049b3a4605990398db
:1003600001f0f0fc8246ff2840f05c8101235f4ae7
:1003700013705f4a069911705e4a059911705e4ac2
:10038000039911805d4a17605d4a07991160049acc
:10039000116a5c4a1160514a13705b4b1d602b89d6
:1003a00023f0ff0309f0f00943ea09032b818ee7ec
:1003b000baf10a0f40f01e83431e032b44d805f107
:1003c0000c0307930023ab81eb8133460746069a63
:1003d000002a72d1002bacd001234c4a13704c4a36
:1003e00013704c4b069a1a703d4b039a1a803d4b82
:1003f000059a1a703c4b049a1a60402c0cbf5a465e
:100400003a46454b1a60454b186808b103f0b4fff3
:10041000414b1868013020f0010002f047ff3f4bcc
:100420001860002852d0402c00f08280aaf10a0700
:100430003a4605f1100107f014f8394b00221a7002
:10044000b246384b1f603ee7374b1f88103fb8421b
:1004500000f2e38205f1100307933346b7e718f083
:10046000020f0bd0baf10a0f40f0c682c8f3810721
:10047000c7f1040705f10c03079356e7eb89af8931
:1004800007eb0347294b1b8807f110029a420dd94d
:10049000063b9a4540f0b28205f110030793aaf19a
:1004a0000a03bb422cbf0023012390e707f10a0394
:1004b0009a45f1d008260ae73346059a012a02d95f
:1004c0004ff0050aaee00122069283e7069b002b5f
:1004d00014bf4ff0050a4ff0040aa3e0c52a00201c
:1004e000f8220020102300200c230020e02200200e
:1004f000e12200201423002012230020f0220020fb
:10050000cc220020dc220020ec220020d52200207a
:10051000e2220020d4220020d8220020f422002051
:10052000e3220020d0220020fc0100200e02002047
:10053000069b01930090049b5a460599039801f08d
:1005400095fe824650b3ff287ff47bafa44b042274
:100550001a70a44b069a1a70a34b059a1a70a34bf3
:10056000039a1a80a24bc3f800b0a24b1a68a24ba0
:100570001a60049bda69a14b1a60a14b01221a7020
:10058000a04b1d602b8923f0ff0309f0f00943ea1b
:1005900009032b819c4b60221a7098e63a46954bd2
:1005a000196805f1100006f05cff974b60221a7085
:1005b00047e7069b0193079b0093049b5a460599c6
:1005c000039801f053fe8246ff282bd1844b03226f
:1005d0001a70844b069a1a70834b059a1a70834bd3
:1005e000039a1a80824bc3f800b0834b079a1a60b3
:1005f000049bda69814b1a60814b01221a70814b8e
:100600001d602b8923f0ff0309f0f00943ea090379
:100610002b815ce67c4b1b78a3420ed00027bb46a7
:100620004ff0030a0195cdf800b0bbb208f01002fc
:100630002146504603f01cff49e6002c40f0428161
:10064000724b1a7809f010039a4200f02381704b24
:100650001b8808f010026d490a70664a116800296b
:1006600000f02d81093b9bb26a4a10686a4a126801
:10067000121a19f0010f18d09a4200f2cb812b8880
:10068000033b9a4200f2c6816fea690707f0070749
:10069000ba4205d0072a40f2bd819a4240f0ba81a1
:1006a0005e4b00271f70174608e05c4f4ff0010caf
:1006b00087f800c01f469a4240f2ac8110f0010f4b
:1006c0006ed1430868894fea192242ea002221f8d4
:1006d000132007f1010c4fea5c0cbcf1010f1bd990
:1006e00001200346dff82c91dff808e105eb430b0e
:1006f000d9f8002000eb5201def80000bbf808a09a
:10070000bbf80a20120242ea1a2220f81120013313
:100710009bb218466345e9d3404b93f80090b9f17a
:10072000000f1fd13e4b1b780193324b1b68009387
:100730003c4b1b68384a12683b4909783b480088a3
:1007400001f000fb8246ff2872d0dff8a890d9f8ac
:10075000000003f011fe0023c9f80030baf1000fc9
:1007600040f09a800a232b7000236b70eb88c3f350
:100770000b0343f44053eb80244b1b78002b14bf36
:10078000302320232b81254b1b78012b7ad000238b
:10079000204a13601c4a1370a2461f469b4641e73d
:1007a000430811f8132021f8132012491948026850
:1007b0005208d1f800c02b8923f0ff033cf812e067
:1007c00043ea0e032cf81230036823f001030233ce
:1007d00008687a1e05f10a01184406f042fe9be7fc
:1007e000e0220020e1220020142300201223002018
:1007f000f0220020f4220020cc220020dc22002065
:10080000c52a0020ec220020e3220020e222002062
:100810000e020020d0220020d8220020d522002065
:10082000d42200200c23002010230020f8220020d6
:100830007c4b02221a707c4b1a787c4b1a707c4bd2
:100840001a787c4b1a707c4b1a887c4b1a807c4b34
:100850001a687c4b1a607c4b1a687c4b1a607c4b84
:100860001b681a6a7b4b1a607b4b01221a707b4b08
:100870001d6000237a4a13707a4a13707a4a136013
:100880004e4624e5784a13683b441360a24600278d
:10089000bb46c7e64ff0010a0023714a1370714a44
:1008a0001370694b186820b103f066fd664b002297
:1008b0001a6000236c4a13601f469b4603e54ff005
:1008c000030ae9e72f7a07f01007684b1b78bb4251
:1008d00000f09b80664b1b88093b9bb2634a1770f4
:1008e0009a46614a1168564a12680b44934286bf81
:1008f000a2eb010ab3464ff0010b594b83f800b04d
:100900005ffa89f9a5f8089011f0010245d149086c
:100910004d4b186830f8113049ea0329a5f80890c2
:100920005fea5a0e13d000230a4400eb420cbcf8d5
:10093000029030f81220120a05eb430c42ea092219
:10094000acf80a2001339bb21a469e45ecd8eb88de
:10095000c3f30b0343f44053eb802b8903f47f4331
:10096000bbf1000f2ed01f432f81baf1060f2dd8f7
:100970000a232b7000236b70caf1070347ea430771
:100980002f81374b1b78012b24d1374a13685344ee
:100990001360b2460027bb4644e62b4b1a68490851
:1009a00032f8113023f0ff0343ea0909a5f8089053
:1009b00002eb41010af1ff32023105f10a0006f0b3
:1009c00050fdc4e747f001071f43cde70af10303d9
:1009d0002b80d6e71c4f386803f0cefc00233b6029
:1009e000214a13601f4a1370b2461f469b4619e600
:1009f00009266ce408266ae4082668e4082666e40a
:100a00000027bb464ff0080a0ce60027bb464ff014
:100a1000010a07e64ff00e0a3ee701230022079283
:100a2000d5e400bfe0220020d4220020e1220020f3
:100a30001023002014230020f8220020122300207d
:100a4000d8220020f0220020f4220020cc22002016
:100a50000c230020dc220020c52a0020ec220020ec
:100a6000d5220020e3220020d0220020e222002014
:040a7000fc01002065
:020000040000fa
:100a7400dc2900201c00000000000000db2900200d
:100a8400010000000000000000000020020000003f
:100a940000000000342a00200c00000000000000c8
:100aa400e42800208000000000000000b429002099
:100ab4002700000001000000000000010000010008
:100ac400000200000100000400000000000000001b
:100ad400000000000000000000030000010000000e
:100ae40024280020c0000000000000000e2a00207e
:100af40002000000000000004c2a00200800000052
:100b0400000000001c23002004000000000000007e
:100b1400862a00200200000000000000582a00205d
:100b240008000000000000000c270020180100004d
:100b34000100000000000000000000000116210078
:100b440001090000b0760000586f0000782a0020e8
:100b54000000000000000000000000000000000091
:100b640000000000001a210001090000bc7600000a
:100b7400846f0000682a00200000000000000000cc
:100b8400000000000000000000000000121c06002d
:100b940001080000d47600005c730000ac2a002039
:100ba4000000000000000000000000000000000041
:100bb40000000000131c060001080000e07600009d
:100bc40078730000b02a002000000000000000003c
:100bd40000000000000000000000000000602a0087
:100be40001090000ec76000068750000602a00200e
:100bf40000000000000000000000000000000000f1
:100c04000000000010702a0001090000f8760000be
:100c14007c750000702a0020000000000000000025
:100c2400000000000000000000000000ffff0000c2
:100c340000000000000000000000000000000000b0
:100c44000000000000000000000000002c2500202f
:100c5400e0010000010000000000000000000000ae
:100c64000010070000070000747700009876000069
:100c74008c2a00200000000000000000000000009a
:100c84000000000000000000011005000007000043
:100c94007c77000024760000862a002000000000f3
:100ca4000000000000000000000000000000000040
:100cb400081009000007000084770000a4760000f3
:100cc400f8290020000000000000000000000000df
:100cd40000000000000000000910090000070000e7
:100ce4008c77000018750000542a002000000000d2
:100cf40000000000000000000000000000000000f0
:100d04000a10090000070000947700002c75000009
:100d1400882a0020000000000000000000000000fd
:100d24000000000000000000181023000409000067
:100d340060720000506a0000102a002000000000c9
:100d4400000000000000000000000000000000009f
:100d5400f1102a000209000090750000d868000014
:100d6400402a0020000000000000000000000000f5
:100d74000000000000000000f8101b000007000045
:100d84009c77000040750000582a00208d66000002
:100d9400000000000000000000000000000000004f
:100da400001c050004080000c8760000547500000b
:100db400802a002000000000000000000000000065
:100dc4000000000000000000321c2900200900007f
:100dd400804f0000803e00005c0200200000000004
:100de40000000000000000000000000000000000ff
:100df400331c290020090000804f0000803f0000c0
:100e040018020020000000000000000000000000a4
:100e14000000000000000000ffff000000000000d0
:100e240000000000000000000000000000000000be
:100e34000000000000000000f82900201600000057
:100e44000100000053414d453533204574686572f7
:100e540043415420536c617665000000542a0020fd
:100e64000400000001000000312e3000882a002018
:100e74000400000001000000322e3000102a00207f
:100e8400140000000100000004000000d80400e089
:100e9400559200000100000001000000802a00209b
:100ea4000600000001000000040002010403000029
:100eb4008c2a0020040000000100000089130000b7
:100ec400040000200800000000000000312a002077
:100ed40001000000000000000c000020e000000001
:100ee40000000000ec0000200400000000000000ee
:100ef400f00000201600000000000000322a00204c
:100f04000100000000000000902a002004000000fe
:100f14000000000008010020520000000000000052
:100f24005c01002028000000000000008401002073
:100f34009400000000000000242a00200d0000009e
:100f440001000000537562496e64657820303030ca
:100f540000000000402a00200c00000001000000f6
:100f6400020000000100000004000000180200203c
:100f74008e00000000000000332a00200100000061
:100f840000000000c42a002001000000000000004e
:100f9400942a00200400000000000000982a002089
:100fa40004000000000000009c2a0020040000004f
:100fb40000000000a02a002004000000000000003f
:100fc400a42a00200400000000000000602a002081
:100fd4000800000001000000010000000000000003
:100fe400682a002008000000010000000100000041
:100ff40020010060702a00200800000001000000a9
:101004000100000000000000782a00200800000011
:10101400010000000100000020011070a82a002037
:10102400040000000100000001000000ac2a0020c0
:10103400040000000100000001000116b02a002095
:1010440004000000010000000100001aa8020020b2
:101054002020000000000000c52a0020010000003c
:1010640000000000c82200204d0000000000000025
:10107400182300200100000000000000b42a002012
:10108400040000000000000064290020500000005b
:1010940000000000202300200c02000000000000db
:1010a400b82a00200400000000000000bc2a002030
:1010b4000400000000000000c02a0020040000001a
:1010c4000000000000000000000000002222222294
:020000040000fa
:1010d400f0b585b00023029301938c4a94898c4a1d
:1010e40095898c4a13808c4a1370022006f06cf99f
:1010f40002688a4b1a80436803f00203002b0cbf7a
:1011040003260126032006f05ff90368844a13804e
:10111400426802f00202002a0cbf032201229bb2a1
:101124008049b1f800c00cfb02327f4909888a4229
:1011340004dd7e4800880844834277db7c480088cd
:10114400824204dd7b4a1288024493426edb734a76
:101154001788794a128806fb0272914204da734ea8
:10116400368831448f4267db904204da714909883a
:101174000844874260db934202da63449f425bdbac
:1011840004224ff4186103a803f024fcbdf80c30ca
:10119400039304224ff41a6102a803f01bfc0422f7
:1011a40040f6a4110deb020003f014fc019e574b12
:1011b4005b88574a5188039a12f4106f00f0f68145
:1011c40012f4007f00f09d812c400ad014f0040f2b
:1011d40000f0998114f0080f03d112f4806f40f0ed
:1011e4009481029840b1494d2d69a842c0f08f8185
:1011f400524da84200f28d8102f4c065b5f5c06f6e
:1012040021d000204e4c2478002c40f031824a4bef
:101214001b88002b00f06b82002840f0b781414b03
:101224001988002900f03382022363e2022103209b
:1012340003f024f81e2004e00221084603f01ef8ff
:101244001d2005b0f0bd002e00f0ac818642c0f038
:10125400ab8114f0100f00f05e810120d2e7022b65
:1012640000f06381022900f06281032b40f0ac811d
:1012740034e2314b1b8833b12a4b1988002940f0e2
:1012840082810123a0e1274a1188003118bf01217e
:101294009ae1032122e241ea030292b2002a40f0d9
:1012a4000482284b1b78002b40f0dc811346911eee
:1012b40089b2012950d915494b80154b5a80002316
:1012c400214a1380214a1380214a138001285fd1c7
:1012d400029bf1189e42c0f0c080b1fbf3f082b2d1
:1012e40003fb1013002b40f04181511c174b198054
:1012f400184b1a804fe0074a4ff4806414809a1efa
:1013040092b2012a40f23a810a46d0e75c020020f8
:101314001802002026010020440100201c010020a6
:10132400580100203e01002006020020fc0100209c
:10133400f40100200e02002010010020000050c320
:10134400a0020020510100201801002040010020cb
:10135400540100203a010020a04901240c70a04946
:10136400098811b99f4900240c809f494b809f49eb
:101374004a8000219e4c21809e4c21809e4c2180dd
:101384009e4c21800128a3d0022b76d0032a02d0c0
:10139400974b01221a800023994a13800093042258
:1013a4004ff48461684603f015fb009c8c4b1b884a
:1013b40013b1a3b2002b64d1924b00221a80924b3a
:1013c4001b78002b40f0b780904b1b783bb1844bcb
:1013d4001b8823b1834a138843f48063138000235a
:1013e4008b4a13808b4a13808b4a13808b4a138059
:1013f4008b4a13708b4a13708b4a13807b4a138574
:10140400538582f84030784a1385538582f84030fa
:10141400039b13f4007f14d00299002900f08d80ff
:10142400824a914255d87a4a0120108013f4806f81
:1014340007d0019b994240f28480754b1a88774b00
:101444001a80674b1b88002b53d1794b1b88002bc8
:1014540053d104f029fd0020f3e6674a01201080ef
:10146400b1fbf3f082b2624c228003fb1013002b19
:1014740091d001325e4b1a808de75f4b01211980b8
:1014840084e70023009304224ff48061684603f04c
:10149400a1fa009b9ab2002a00f0d8800232a3b2cb
:1014a40046f2a71402fb0343db08624aa2fb0323b0
:1014b400c3f30f23534a13805f4a00211180002b8a
:1014c4003ff47daf504b1b78002b7ff47daf1f2082
:1014d400b7e64a095948a0fb0202d209520092b267
:1014e4005748a0fb0202d208494802809ee7012324
:1014f40035e0022005f0fcfba7e7032005f0f8fb2c
:10150400a7e730209de630209be6302099e6362080
:1015140097e6362095e6302093e6302091e6302099
:101524008fe630208de630208be6302089e63020af
:1015340087e6292085e61f2083e613f4806f80d098
:10154400019b0b44394a9342d1d95b093b4aa2fb24
:101554000323db095b003a4aa2fb0323db082c4a82
:10156400128803eb52032d4a13806ae7224b1a8038
:101574007fe71a4a012414700a46f3e6174a012445
:1015840014700a46f1e6222101231de0284b198834
:10159400002900f0a38012f4806f7ff47aae022158
:1015a400032399e000202de600202be6254a10783d
:1015b40000283ff45eae9a1e92b2012aadd98a1e6b
:1015c40092b2012aabd900201f4a1278002a7ff474
:1015d40062ae002b66d1292033e600bf490100200a
:1015e40010010020260100205c02002018020020c7
:1015f4003a0100201801002040010020540100207d
:10160400a40200204e0100205201002051010020bc
:101614001e010020140100204c01002024010020a0
:101624002801002045010020220100201fa10700fd
:101634003e01002089b5f8140c010020c55a7c0a2b
:10164400cdcccccca00200200801002000232d4ae0
:1016540013802d4a1380b2e62c4b4ff4806119801d
:10166400134624e62a4b19880029f5d10b4624e0b9
:1016740012f4806f30d1032b3ff453af03293ff4ae
:1016840052af12f4007f3ff4eaad022b9cd1029bcf
:10169400204a53625360204a5362536002231f4a14
:1016a400127812b900293ff444af1d4a0124147082
:1016b400174a1288002a7ff41eae1a4a12881ab1f9
:1016c400124a4ff4006414809a1e92b2012a7ff6e3
:1016d40050af0a46ebe50221032bd6d1029b0d4afb
:1016e400536253600c4a536253600323d7e70d4996
:1016f400098821b112f4806fedd00321c5e70b46b0
:1017040062e700bf4e0100200c01002026010020ea
:10171400100100205c0200201802002008010020b3
:08172400510100203e010020ec
:020000040000fa
:10172c002de9f0419b4b4ff6ff721a809a4b012228
:10173c001a7010f0100723d0984a137823f0100376
:10174c00137001270e4600f00f05944b1c7805eb27
:10175c00041404f0ff04442c00f0ba8000f2ad80b5
:10176c00222c00f0a4801ad9242c40f09d808c49a6
:10177c008c4802f073fa8046002840f0b380a7e052
:10178c00864b1b7813f0100f04d000f00f02012ac7
:10179c0040f0ad8203f00f03804a1370d2e7122c95
:1017ac0000f08580804b00221a80a4f11103772b66
:1017bc0000f25e82dfe813f0c5011601b7002802c3
:1017cc005c025c025c0228025c025c025c025c0251
:1017dc005c025c025c025c02af01c80128023a01a7
:1017ec005c025c025c0228025c025c025c025c0231
:1017fc005c025c025c025c02000128025c022802b2
:10180c005c025c025c0228025c025c025c025c0210
:10181c005c025c025c025c02a3018e012802c8011e
:10182c005c025c025c025c015c025c025c025c02bd
:10183c005c025c025c025c025c025c025c025c02ac
:10184c005c025c025c025c025c025c025c025c029c
:10185c005c025c025c025c025c025c025c025c028c
:10186c005c025c025c025c025c025c025c025c027c
:10187c005c025c025c025c025c025c025c025c026c
:10188c005c025c025c025c025c025c025c025c025c
:10189c005c025c025c025c02980183012802790103
:1018ac005c025c025c02c801422c7ff47baf02201c
:1018bc0001f000fc1ffa80f810e0822cf7d004d95c
:1018cc00842c05d0882c03d06ce7482c7ff46aafad
:1018dc00364b187801f0eefb1ffa80f8b8f1000fc8
:1018ec003ff460af2d4b1b78042b00f05181082b7b
:1018fc0000f04a81022b00f04f81b8f1ff0f00f08d
:10190c006081264b187800f00f039d4200f09e81f9
:10191c00b8f1000f40f0d681002e40f09d811f4b96
:10192c001d70b046dbe1224b01221a70022001f03f
:10193c00c1fb28b11e4b00221a704ff01508bbe1f9
:10194c00002005f015f903f035fc804678b1b8f1ac
:10195c00ff0f00f0db81104b1b78bbb101f0e0fff7
:10196c00032005f080fe124b00221a70c9e70a4bc7
:10197c0000221a7005f01cff80460028e7d10d4ba1
:10198c0001221a70032005f06efebae705f0d2feb4
:10199c00e4e700bf460100200e0100200f010020eb
:1019ac00100100203e0100200a01002056010020f9
:1019bc0048010020f2010020af4b1b783bb94ff0df
:1019cc00000805f0ccfead4b00221a70ace00020f4
:1019dc00a94b187005f0ccf801f0a2ff05f0aafe97
:1019ec008046eee705f0e2f9a54b1b78002b00f0e2
:1019fc003a8103f0dffb804648b1b8f1ff0f00f0ed
:101a0c007881a04b1b7873b101f08aff79e79d4b6d
:101a1c0000221a7005f0ccfe80460028edd19a4bbe
:101a2c0001221a706de705f085feede7fff74cfb20
:101a3c00804648b1b8f1ff0f00f06281914b1b78e2
:101a4c009bb102f055ff5ce78e4b00221a708f4859
:101a5c0005f0b0fe80460028ecd18c4b188805f0c0
:101a6c00a3f88b4b01221a704be705f0a5fee8e7b3
:101a7c0004f094fd804648b1b8f1ff0f00f04081ae
:101a8c00804b1b7873b105f091fd3ae77d4b00223a
:101a9c001a7005f093fe80460028edd17d4b012293
:101aac001a702ee705f08cfeede705f089fe05f0c7
:101abc007dfd4ff00008734b83f8008021e705f0a3
:101acc007ffe804605f072fd6e4b00221a70b8f155
:101adc00000f29d105f070fe02f00aff4ff000084c
:101aec00684b83f800800ce705f06afe804605f031
:101afc005dfd644b00221a70b8f1000f14d105f093
:101b0c005bfe804602f0f4fe5e4b00221a70b8f1c8
:101b1c00000f40f0ab8001f003ff05f00bfe804698
:101b2c00564b00221a702124b8f1ff0f7ff4e9ae56
:101b3c00594b01221a70594b1c80594bc8221a80e0
:101b4c004fe04e4b00221a7077b9564b1b7813f0ae
:101b5c000c0f00f0af80544b1b884bb9534b1b88b8
:101b6c0063b94ff0fe08a7e0204605f02bfeece72a
:101b7c00022005f0b9f84ff0fe089de0032005f0b7
:101b8c00b3f84ff0fe0897e005f01afe05f00efdd5
:101b9c0005f012fe02f0acfeb8f1160f03d0414b6b
:101bac0002221a70a9e601f0bbfe05f0c3fd00206d
:101bbc0005f04cf8012005f049f83a4b01221a7057
:101bcc009fe6354b01221a70344b1c80242c16d006
:101bdc0013d8123ce4b29442afd8314b4ff4fa62b2
:101bec001a802f48b0f90030314981fb0321da17f4
:101bfc00c2eba1029b1a038079e0482c9dd1284ba3
:101c0c0042f228321a80ece74ff0110879e6214baa
:101c1c001b7853b9244b1b8863b9244b1b886bb9b5
:101c2c00b8f1000f52d1deb979e605f0c9fd05f027
:101c3c00bdfcefe7022005f009f8f1e7032005f001
:101c4c0005f8ede7174b04221a7043e00021124b04
:101c5c00197001f0f1fe4ae0284310f0080fd6d1bc
:101c6c0045f010055be64ff051084ae641245be76e
:101c7c004ff0120820e000bf48010020a002002015
:101c8c00322a00200e010020f20100202601002043
:101c9c00500100204a0100203c0100200a010020d4
:101cac00460100200f010020100100203e01002001
:101cbc00676666664ff0fe081b4b187800f00f0342
:101ccc00ab42c3d0284310f0080fa0d1164b1b78a1
:101cdc00082bb7d0144a137843f010031370134b2e
:101cec0000221a704146104b187801f0a5febde891
:101cfc00f0810e4b01221a700d4b12221a806ce7e8
:101d0c000a4b01221a700a4b1c8078e7032005f05d
:101d1c00aafc084b00221a70044b01221a70044bc7
:101d2c0013221a8059e700bf0f0100203c0100204c
:081d3c000a010020480100200b
:020000040000fa
:101d44002de9f04f8bb004900c4616461d46ddf885
:101d540050809df854b01ffa81fa9b89c3f3032283
:101d64000692d9b20591072a00f04182ab6993f833
:101d74000090b9f1000f40f05982a0f5e053103bf8
:101d84009bb21f2b40f25082a0f5b0539bb2b3f527
:101d9400007fc0f05682a0f5d0539bb2b3f5007f0c
:101da400c0f052824ff23003984208bf89463de2a8
:101db40074b3d146049aa2f5e053103b9bb21f2b97
:101dc40012d9a2f5b0539bb2b3f5007f0cd3a2f5a0
:101dd400d0539bb2b3f5007f06d34ff230039a423f
:101de40002d00023089305e0ab691b78003318bfc9
:101df400012308932f6a77b1cdf800b043463246e9
:101e040021460498b847039003980bb0bde8f08fbf
:101e1400d1460894eee7002e00f0aa81ca4500f2ec
:101e2400aa8154460723039300230793049ba3f535
:101e3400e053103b9bb2099337e1102a44d0202a87
:101e440040f060811ee0022b18d81bb2002b40f03a
:101e5400b280bbf1000f00f097817b8813f00f0f65
:101e640005d0184410f00f0f08bf08f10208c3f39f
:101e7400031308eb43080123079311e1032b23d039
:101e8400042b1cd110f00f0f40f08a81089b5bb12a
:101e94003288b8f800309a4240f085817288b8f8e8
:101ea40002309a4240f08281b8f800303380b8f8aa
:101eb4000230738008f1040801230793f0e018232b
:101ec4000393a1e7072bddd210f00f0f40f06281de
:101ed400b8f80070089b1bb13388bb4240f05d81a9
:101ee400099b1f2b00f29380a7f5b0539bb2b3f567
:101ef400007fc0f09780a7f5d0539bb2b3f5007f65
:101f0400c0f09080002f00f08d80122303937be7b4
:101f14000b2b00f2368110f00f0f40f050817a88bd
:101f24000732d2104146304605f099fa7b881b09e6
:101f340008eb430801230793b2e02d2b3bd026d8ae
:101f44001e2b38d01bd8152b01d01b2b14d110f00d
:101f54000f0f40f02e81b8f800303380b8f802300b
:101f64007380b8f80430b380b8f80630f38008f111
:101f740008080123079393e01823039344e71f2bd6
:101f8400a2d0202b3ff47eaf182303933ce7372bda
:101f940009d8302b0fd22e2b96d02f2b3ff472afb3
:101fa4001823039330e7a3f518739bb2032bb2d91c
:101fb4001823039328e77a88a54b33f8122000f0fe
:101fc4000f0c02fa0cf1338823ea01031bb2bbf1b4
:101fd400000f10d09bb2b8f8002011400b4333809f
:101fe4007b88184410f00f0f40f0b28008f102080b
:101ff4000123079354e0b8f8001031ea020e40f0d0
:10200400c6800a4002fa0cf213439bb2e7e7049b32
:10201400a3f5e153123b9bb2012b03d8012c07d04b
:10202400082c14d0378008f102080123079337e005
:102034003388bb4207d03946049801f0b7fa0390bd
:1020440000287ff4e1ae834b01221a70eae7824a4a
:1020540000235361814911615360814a53611161c5
:10206400536017f0020fddd07b4a5385138582f845
:1020740040307b4a5385138582f84030d2e7002ce8
:1020840061d07b8813f00f0f05d0184410f00f0fa8
:1020940008bf08f102081b0908eb4308182303933f
:1020a400631c9bb24c4556d01c46e6b231462846ca
:1020b40005f062f807462946304602f095feba88d4
:1020c400684b1b7803ea920313f00e0fd7d0ae6966
:1020d400002c7ad0c0f30f1306eb4306a24506d0ba
:1020e400bbf1000fdcd0a245dad8002c70d03b88bd
:1020f400b3f5e06f06d37a88082a3ff69eae02f164
:102104002f039bb2112b3ff422af3ff616af052be2
:102114003ff451af7ff697ae082b7ff6d3ae092b71
:102124007ff4f6ae10f00f0f46d17a880732d21042
:102134004146304605f093f97b881b0908eb4308b8
:1021440001230793ace708f1020818230393a7e7d8
:1021540001230793a4e7079b002b039b18bf0023cd
:10216400039351e6112303934ee61a2303934be69c
:102174000023039348e60723039345e613230393bd
:1021840042e6182303933fe6182303933ce6122305
:10219400039339e60523039336e61c23039333e6be
:1021a4000523039330e61c2303932de61c2303939a
:1021b4002ae60523039327e60523039324e6052350
:1021c400039321e6052303931ee6baf1000f87d19a
:1021d400069b072b8bd0b8f80030dab205999142f0
:1021e400ccd3338008f102080123079358e7bbf1ed
:1021f400000fe7d14ff00009ca45b3d8214628465d
:1022040004f0baff8288174b1b7803ea920313f099
:102214000e0f7ff4cdad12f0380fa6d1002a0cbffb
:10222400052307230393efe5ddf81490bbf1000fba
:10223400e2d0002c7ff4bead0eb198f80090089463
:10224400d8e5ddf81490f1e7ddf81490eee700bf6f
:1022540000730000a00200205c020020a0860100a0
:08226400180200200f01002008
:020000040000fa
:10226c002de9f04f89b08046049114460293129ddb
:10227c009df84ca01ffa81f919469b89c3f30322e0
:10228c000792dbb20693072a00f06d81b0f5805ff0
:10229c00c0f063818b6993f800b0baf1000f10d0d5
:1022ac00cdf818b0029bde6986b1cdf800a02b46a4
:1022bc00224604994046b0470390039809b0bde804
:1022cc00f08fcdf818b051e1cb46ebe7b8f5805f55
:1022dc0004d2049b83b903934c4605e0cb4508d349
:1022ec004c460023039304930027cdf814a0c24658
:1022fc00cee100230393e0e7049e3146029c204686
:10230c0004f036ff42880732d21006f180410139c1
:10231c00a36953f8211011f0010f22d094b221f0cf
:10232c0001026608012c0dd9002113881b0a2b8091
:10233c0032f8020f43ea002325f8023b01318bb23d
:10234c00b342f2d314f0010f00f0ec802b8803f4ad
:10235c007f432b80128843ea12232b8000230393a4
:10236c00abe70b882b804b886b80043a0431281d1b
:10237c0005f071f8002303939fe7079b072b00f0f0
:10238c002781069b25f8023b7de1bcf1100f34d070
:10239c00bcf1200f40f02f811de0022b17d81bb28f
:1023ac00002b40f08580059b002b00f0c1807388ca
:1023bc0013f00f0f04d0984418f00f0f08bf02351c
:1023cc00c3f3031305eb4305012304935be1032bd8
:1023dc0013d0042b0cd118f00f0f40f0af8032f853
:1023ec0010302b804b886b800435012304934ae119
:1023fc001823039361e7072bedd218f00f0f40f071
:10240c009a8032f8103025f8023b012304933ae10c
:10241c000b2b00f28a8018f00f0f40f09580728819
:10242c000732d210284605f016f873881a0905eb06
:10243c00420513f00f0f62d02b782b8001230493ed
:10244c0021e12d2b34d020d81e2b31d016d8152bb2
:10245c0001d01b2b0fd118f00f0f72d132f81030a6
:10246c002b804b886b808b88ab80cb88eb800835be
:10247c000123049307e1182303931ee71f2bbcd001
:10248c00202ba8d01823039317e7372b08d8302b11
:10249c000ed22e2bb1d02f2b9dd0182303930ce7eb
:1024ac00a3f518739bb2032bb5d91823039304e738
:1024bc0008f00f0c7388854931f8133003fa0cf3cc
:1024cc009bb232f81000bcf1000f00d12f802a888b
:1024dc00059959b1034013432b807388984418f025
:1024ec000f0f09d1023501230493cce0034043faca
:1024fc000cf313439bb2efe701230493c3e00123d6
:10250c000493c0e001230493bde0049b002b039bc8
:10251c0018bf00230393d0e611230393cde60523c4
:10252c000393cae600230393c7e618230393c4e678
:10253c0018230393c1e605230393bee605230393f7
:10254c00bbe605230393b8e605230393b5e6052301
:10255c000393b2e605230393afe6baf1000f05d05f
:10256c0005230393a9e6baf1000ff3d1069b4b4563
:10257c00d2d30499029804f0fbfd8388002bced0b3
:10258c00534a127802ea430212f00e0f7ff49cae0b
:10259c0003f00703002b0cbf06231a2303938ce6ce
:1025ac00e1b2029804f0e4fd06468288484b1b78a1
:1025bc0003ea420313f00e0f43d0b846a14504d0f2
:1025cc00059b002b5fd0a1455dd8002c3ff4d5ae08
:1025dc00029b9a69c8f30f1002eb40013388b3f5e4
:1025ec00e06f08d3b6f802c0bcf1080f3ff6cdaed1
:1025fc000cf12f039bb2112b3ff42daf3ff621af03
:10260c00052b3ff455af7ff6c8ae082b7ff6f3ae23
:10261c00092b7ff4fdae18f00f0f98d1728807329a
:10262c00d210284604f017ff73881a0905eb4205ef
:10263c0013f00f0f3ff466af2b782b80012304931c
:10264c0021e0b8462f80738813f00f0f05d0984403
:10265c0018f00f0f04bf6f800235738813f0f00f62
:10266c0009d03b4625f8027f0133dbb27288c2f3f6
:10267c0003129342f6dbb38803f00703002b0cbf65
:10268c0006231a2303930134a4b2a345fff43daff0
:10269c00002c85d0baf5805f82d3e6b20299304621
:1026ac0002f09efb80463146029804f061fd06461e
:1026bc008288074b1b7803ea420313f00e0f7ff45a
:1026cc007daf18f00f0fbed1bce700bf0073000048
:0426dc000f010020ca
:020000040000fa
:1026e00038b50388052b40f25b81991f89b20446f7
:1026f000c388013b052b00f2e880dfe803f0032ddf
:102700004662acbba94b1b8813b148f2040363e0db
:102710000c306289238943ea0243024604f006fd35
:102720000346a34a0021116047f69572904205d8ee
:10273000a04a01211160a04a1060b0e047f6fa7289
:10274000904200f2f18000229a490a609a490a6098
:10275000964a01211180bee0944b1b8813b148f2c8
:10276000040339e04289038943ea02420c3004f051
:1027700061fe034628b98f4b00221a6047f6fd73ad
:10278000d9e08c4a0021116085e0884b1b8823f03a
:1027900004039bb2022b02d048f204031ce04289de
:1027a000038943ea0243834a12689a4202d048f2fc
:1027b000050311e00c3004f087f903460028ddd052
:1027c00069e07a4b1a88012a30d047f6fe7148f248
:1027d0000403042a08bf0b4613f4004f00f0c38023
:1027e00000220521a171e2712381a272e272062307
:1027f0002370627004f10c01a38913f0ff0f00f045
:10280000d18013f47f4f00f0cf8002235a0831f8b3
:10281000122012f0ff0f00f0b28012f47f4f00f090
:10282000aa800233dbb2202bf0d1aae0624d00f186
:102830000c01286804f044fd03462a685c490a60dc
:1028400047f69571884242d802442a6059490a687d
:1028500001320a6023e0554b1b8813b948f2040388
:10286000bae74089238943ea004004f0e3fe47f6d3
:10287000ff73b1e74d4b1b88012b04d0042b02d012
:1028800048f20403a8e704f10c02494b19682089b7
:1028900004f038ff034647f69572934217d8454a2d
:1028a00012680321a1710021e1712281c2f30f425c
:1028b00062819a1d2280414a12880c3a93423b4b16
:1028c0000cbf012204221a8011e048f2040347f6eb
:1028d000fa72934228d800220621a171e271a3f571
:1028e000ff43163b2381a272e27221706270344b67
:1028f0001d78002d49d0a388c3f30b03a380314a70
:10290000127812f0070f02d12e4a012111702d49c1
:102910000a7843ea0233a38001320a70204602f0ab
:1029200097f90023184638bda3f5ff427c3a92b2ce
:10293000012a3ff651af1f490a68501c0860002168
:102940000420a071e1712281c2f30f42628106224c
:102950002270617047f6fd729342144b0cbf022245
:1029600000221a80c3e70025104b1d80204601f08d
:1029700003fd2b46d6e70133dbb21f2b01d807330b
:1029800023800a4b00221a80b1e74021204602f042
:102990003dff03460028c5d00b4b1c602b46c1e70a
:1029a0000623bfe70023eae70123e8e7f40000205d
:1029b00000010020f8000020f0000020fc010020b1
:0c29c0004801002084010020fc000020e1
:020000040000fa
:1029cc00f0b585b0044600238df80f30058905f06d
:1029dc007f05052d0fd00388072b40f23c81032d7a
:1029ec000dd0052d0bd0012d40f010818389052bc6
:1029fc0010d9022122e10388092b40f22a81a389f4
:102a0c0098b2adf80c30b0f5805f77d205238df815
:102a1c000f30fee0924d00686168a26807c5a2897c
:102a2c002a8013f0ff030ed100258e4b1d8004f17c
:102a3c000c06e8b203f0e8fb26f8020f0135052d71
:102a4c00f7d1122022e0013bddb2864b1988002918
:102a5c0035d0854b1a880c3a92b204f10c0383489a
:102a6c000088adf80c0001397e4801800df10f0192
:102a7c00009103a9284602f09ffc7c4bbdf80c206a
:102a8c001a80794b1b88063b181a80b220809df85f
:102a9c000f30002b40f0bd80238923f07f0242f0e1
:102aac00020222816f4a12886281002a00f0d580ce
:102abc0023f0ff0343f0820323818221bee02846ea
:102acc0003f0a2fb4ff48053adf80c30664b198821
:102adc00a1f10e0292b204f10e034000904209dd06
:102aec000c398eb2811a701e014491fbf6f15d48cf
:102afc000180bbe75b4900200880b7e704f0eafbe4
:102b0c00064600287ed0032d0bd0e789ffb204f0d7
:102b1c004bfe4388dbb29f4232d911238df80f3024
:102b2c0077e004f041fe0368c4f80e30002332460f
:102b3c001946bdf80c0001f085fd4b4b1b88053b7d
:102b4c000c3080b283420fdc0c229df80f30002b2e
:102b5c005fd1a372e3722280238923f07f030135b6
:102b6c001d432581022169e004f112033246002144
:102b7c00bdf80c0001f066fd00f10c0292b2e4e726
:102b8c003946304604f0f4fa036823618388a38243
:102b9c00e389dbb2e381304604f006fe4388c3f3dd
:102bac000323083b9bb2012b0fd877b9304a166828
:102bbc0050689168c4f81660c4f81a00c4f81e1066
:102bcc00127b84f822201c22bfe7002332463946b0
:102bdc00bdf80c0001f036fd234b1a88053a00f1c4
:102bec0010039bb29a4201dc1022aee704f11603eb
:102bfc0032463946bdf80c0001f024fd00f11002fc
:102c0c0092b2a2e708238df80f3002e003238df86f
:102c1c000f309df80f1000220a2323706270238955
:102c2c0023f07f0343f007032381a272e272114b5e
:102c3c0053f82130e3600b4b1a800221204602f03e
:102c4c00dffd034610b10c4b1c600023184605b089
:102c5c00f0bd0623fae70623f8e70221eee700bff2
:102c6c00fc220020e8220020fc010020c8220020c9
:0c2c7c00242a0020345e0000ec00002040
:020000040000fa
:102c880038b5804b1b78002b68d07f4bb3f90030e8
:102c9800002b6bd17d4b1b88c3f30714242b32d038
:102ca80011d8123b9bb2012b00f2e680784b1b78bf
:102cb80033b300f037fe774b1b78002b00f0de8033
:102cc800754b1d8815e0482b12d1744b1b78002bcf
:102cd80029d0734b1b78002b30d0724b1b78002bfc
:102ce8003dd1714b1b88002b0cbf1a251b2526e0f4
:102cf8000025002c32d0634b00221a7055b327e010
:102d080004f01afdd5e7624b1b784bb101f0f2fdd8
:102d1800604b1b78002b00f0b3805f4b1d88e8e701
:102d280004f04cfdf2e7604b1d88d5b95f4b0122da
:102d38001a70544b00221a7008240be02d25544bae
:102d48001b7883b104f034fc44b14e4b00221a7056
:102d580044f010042946204600f070fe38bd1a25bc
:102d6800ede71b25ebe704f02dfdebe7474b1b8850
:102d7800242b46d01bd8123b9bb2012beed8444bd8
:102d88001b78002bead0424b00221a7004f012fd87
:102d9800054600282ed1464b01221a703b4b1c7861
:102da80014f00f04dad0374b00221a70d2e7482b00
:102db800d4d1374b1b78002bd0d0384b1b78002b45
:102dc80040d03c4bb3f90030002bc7dd3a4ab2f98a
:102dd80000209a42c2db0023364a1380364a138009
:102de8002b4a137004f0ecfc28bb304b01221a70fc
:102df800082415e0ff28b1d004f09efc00f092fdf5
:102e0800ace7234b1b78002ba8d0214b00221a706b
:102e18002a4804f0d1fc38b9294b01221a7004243d
:102e28000025184b1d7095e7ff2897d004f0c6fcc5
:102e380001f060fd92e7ff2890d004f0c3fc04f095
:102e4800b7fb8be7184b1b881bb1164b1b78002b65
:102e580084d00f4b00221a7004f0b2fc20b9134b37
:102e680001221a700824dbe7ff283ff477af04f04b
:102e7800a9fc04f09dfb71e700253ae7012563e70b
:102e8800012561e73c010020460100200a010020dd
:102e98000e01002016010020120100204901002027
:102ea8002801002044010020100100204a010020d0
:102eb800f2010020220100201a0100202601002032
:042ec8005001002095
:020000040000fa
:102ecc00f0b585b00023039304224ff4a06103a84e
:102edc0001f07cfd039c002c01db05b0f0bd04f07f
:102eec00e064042240f204510deb020001f06efd8f
:102efc000198039b23f0e0430393b4f1807f28d027
:102f0c0018d9b4f1007f42d0b4f1806f40f0bf808b
:102f1c00614b1b88082b5ad0604b1b68002b00f0b0
:102f2c00a0809847002800f09780039b43f0005343
:102f3c00039302e0002c40f0aa80594b00221a8027
:102f4c00039b029304224ff4a06102a802f08af9b9
:102f5c00c3e7544a12683ab190470028edd0039b5e
:102f6c0043f000530393e8e7b0f5006f0bd84e4adb
:102f7c00146844b1484b1a884ff4a16104eb40002b
:102f8c0002f070f9d9e743f000530393d5e7474ab1
:102f9c00126852b1904718b1039b43f0005303934e
:102fac00434b4ff47a721a80c7e7b0f5006f0ad81a
:102fbc003d4a14683cb102224ff4a16104eb40007d
:102fcc0001f004fdece743f000530393e8e7354dc3
:102fdc00354e314f2ce0039b43f000530393ace789
:102fec003368002b33d03a884ff4a16103eb4000d7
:102ffc0002f038f9039b23f0f0430393029304226d
:10300c004ff4a06102a802f02df904224ff4a06144
:10301c0003a801f0dbfc039c04f0e064042240f202
:10302c0004510deb020001f0d1fcb4f1806f84d19e
:10303c000198b0f5006fced82b68002bd0d09847f4
:10304c000028d7d0039b43f00053039375e7039bf1
:10305c0043f00053039370e7039b23f00063039347
:10306c006be704f0a3fb68b90f4b186850b104224e
:10307c004ff4a161103002f0f5f8039b23f00063cc
:10308c0003935ae7039b43f00063039355e743f024
:10309c000053039351e700bf7a000020dc000020ae
:1030ac007800002018000020d00000201c00002018
:0430bc00e40000200c
:020000040000fa
:1030c000704b1a8841f6fe739a4240f2d78070b571
:1030d0000446002004f07af9436813f4803f03d0db
:1030e00003f00c02042a01d0162070bd13f0020f69
:1030f000fad00268130c223b9bb2de2bf4d8a2f567
:1031000080539bb2b3f5805feed2012004f05ef9ec
:10311000436813f4803fe7d013f00c0fe4d113f0b1
:10312000020fe1d003681a0c223a92b2de2adbd8f1
:10313000a3f580539bb2b3f5805fd5d2032c14d88e
:10314000032c44d0504b1b78a34240f299804f4e41
:103150004d4d204604f03af9436833600134e4b23f
:103160002b78a342f5d80020bfe7494b01221a7003
:10317000032004f02bf90268130c406810f4803f20
:103180003ad0002b3ed043490988994201d003210f
:1031900039e0013b9bb2432b3ad810f00c0f39d1e8
:1031a00092b23d4b1978022905d03c4b1b889342c3
:1031b00007d0022127e0a2f5805293b2b3f5805fd9
:1031c00021d210f0020f02d0314b00221a700220df
:1031d00004f0fcf80268130c406810f4803f42d001
:1031e000002b47d02e490988994215d0032102208f
:1031f00001f046f81d2078e7264a12881343e6d0ee
:10320000032100e00421032001f03af81e206ce7be
:103210000321f8e70421f6e7013b9bb2432b2bd8af
:1032200000f00c03042b01d00421e0e792b21a4b0a
:103230001978022905d01b4b1b88934207d0022125
:10324000d5e7a2f5805293b2b3f5805fcfd2c0f339
:103250008012154b1a7010f0020f3ff473af0c4b35
:1032600000221a706ee70e4a128813433ff46aafc9
:103270000321bce70421bae70321b8e71420704713
:10328000002032e74201002056010020902a002051
:10329000080100203e0100200f01002058010020fd
:0c32a000100100201c0100205201002041
:020000040000fa
:1032ac002de9f04f87b0039003a803f06ffb0028c3
:1032bc0003da002007b0bde8f08f039b1b095d1eed
:1032cc00202d0fd9023b5e4ab3f5007f35bf02ebd0
:1032dc00d30302ebd31313f8045c13f8045c34bf70
:1032ec00013511350123a5f12001c5f1200203faa6
:1032fc0001f923fa02f203fa05f8d8f1000849eab9
:10330c00020969eb4909cde90089dff84081dff852
:10331c0030914746d8e90023009902ea010a019945
:10332c0003ea010b5aea0b0342d1039b05a81033a5
:10333c00059304f085f818b9424b0c221a60b9e7d2
:10334c00d8f80852a84206d0059b103b05930123e0
:10335c0000f110058360059bea18012143f001037d
:10336c00b5f1080442f8083c42f8041cc7f80822de
:10337c0045f8043c9dd0204603f060fd88b155f81b
:10338c00083c55f8041c23f00103e31a5a6822f098
:10339c0001020a445a6055f8041c21f001016250e4
:1033ac001c462046039903f061fd04f1080081e7f7
:1033bc005446254bbaf1000f34d1cbf1000000ea92
:1033cc000b00434309ebd36393f83c602036304643
:1033dc0003f0a0ff731c57f8334007ebc303083b03
:1033ec009c4297d0272e26dd0235ae4201dc3f2ec3
:1033fc0021d16268039922f00102551a284603f084
:10340c00effb864217d1e068a6686318d8609e600f
:10341c0083609868c36041f0010060505d60a55006
:10342c006060bee7caf100002040434309ebd36360
:10343c0093f83c60cbe73146204602f0b9feb0e78a
:10344c0008610000bc2a002029e66b07202300201d
:020000040000fa
:10345c0030b583b04ff48033019302f0a9fc4b4b91
:10346c001b78002b3cd102f0edfd044610f0200f30
:10347c003ed114f0010f4ed0454b1b78002b3ad0a7
:10348c0014f0100f5fd1424b1b78002b5bd13f4bdc
:10349c001b781bb3019b13f4803f57d014f4007faf
:1034ac005cd1019b13f4003f63d03a4b1b7883b97a
:1034bc0002f098fd374b1b78002b5fd0019b43f03b
:1034cc0000730193042240f60c010deb020001f095
:1034dc00c9fe02f0b7fd10f4807f53d103b030bdac
:1034ec00042240f60c010deb020001f06ffabae772
:1034fc00fff7e6fcbde70025009504224ff4907120
:10350c00684601f063fa24f01104a4b229469df830
:10351c000000fef705f914f0100fb4d01c4b1b780b
:10352c008bb91d4b187810f0100fb0d120f0100390
:10353c00012bacd024f01004a4b2002100f00f0039
:10354c00fef7eef89fe7fff799fba0e7124b187810
:10355c00002100f00f00fef7e3f89fe70f4800236f
:10356c00036004220e4b198801f07cfe01f066fd0d
:10357c0097e7084b1b78002babd099e7019b23f006
:10358c0000739ee700f0f6fda8e700bff2010020f3
:10359c003c010020100200200f0100202c01002013
:0435ac0006020020f3
:020000040000fa
:1035b000222913d8dfe801f07f144b651212121292
:1035c00012121212121212121212121212121212db
:1035d0001212121212121212121239001220704715
:1035e00041f63243984213d041f63343984266d1b4
:1035f000394b9b8913f0020f63d0384b1b88002b8b
:1036000061d1374b1b88002b0cbf12200020704764
:10361000324b1b88002b50d0324b9b8903f00203a6
:10362000002b0cbf12200020704741f63343984214
:1036300001d012207047284b9b8913f0020f44d011
:10364000264b1b88002b0cbf12200020704741f630
:10365000324398420cd041f63343984237d11e4b47
:103660009b8903f00403002b0cbf1220002070473d
:103670001c4b9b8903f00403002b0cbf122000207d
:10368000704741f6324398420cd041f6334398429a
:103690001fd1114b9b8903f00803002b0cbf122094
:1036a000002070470f4b9b8903f00803002b0cbfd1
:1036b000122000207047002070471220704712200f
:1036c0007047122070471220704712207047122056
:1036d00070471220704700bf180200201001002020
:0836e0003e0100205c02002005
:020000040000fa
:1036e80030b583b000230193042211460deb02008c
:1036f80001f06ef9019b2a4c1a0a22701b0c9b02de
:1037080003f6ff73274a138003f052fb23784bb16b
:103718000024234de0b203f09bfa01342a78e3b287
:103728009a42f7d801f0f8fa00241f4b1c701f4b7f
:103738001c701f4b1c701f4b1c701f4b1c701f4ba9
:103748001c701f4b1c701f4b1c801f4b1c801f4b79
:103758001c801f4b1c801f4b1c801f4b1c801f4b49
:103768001c701f4b1c701f4b1c801f4b1c801f4b59
:103778001c801f4b1c8001201e4b1870214600f036
:103788005df91d4b1c801d4b1c701d4b1c7003f0fc
:1037980079fa03f003ff204603f0ecf903b030bddb
:1037a8005601002042010020480100200e0100209f
:1037b8003c010020440100204a0100205001002063
:1037c800520100204e0100200c01002014010020ad
:1037d8001e0100204c010020240100204901002086
:1037e80016010020120100202601002010010020ef
:1037f8003e0100200f0100200a010020570100208f
:04380800510100204a
:020000040000fa
:10380c0000297ad02de9f0470c46404b1e68b6f5de
:10381c00802f75d23e4b1b680b44b3f5802f5cd8c0
:10382c00174605463b4b1b6801eb0308b8f5005fd8
:10383c0059d9c3f50052dff8e0a0caf80020dff830
:10384c00dc90014609eb030003f005fedff8c480b1
:10385c004ff40053c8f800304946304602f0ecfef5
:10386c00d8f80010294b1a680a441a60284a1368c1
:10387c000b441360daf800100023c8f80030641a07
:10388c00a4b222462944484603f0e5fdc8f800409e
:10389c00204b1b68b3f5005f0dd0002f33d1b3f56f
:1038ac00005f08d2c3f500521b490a60ff211b4878
:1038bc00184403f0c1fe154c1849206802f0bcfef8
:1038cc0014490868226802442260114a13680344b0
:1038dc00136000200860bde8f0870d4b00221a60d1
:1038ec0048f20300f7e70a4601460c48184403f077
:1038fc00b2fd084bc3f80080cae748f20d007047d0
:10390c0048f20d00e7e70020e5e700bf982a002009
:10391c009c2a0020a02a0020a42a0020a802002013
:020000040000fa
:10392c0010b582b00020374b187003f08ff90120ce
:10393c0003f08cf9344b1868e8b100f017fd334be9
:10394c001868f0b1304b1b6898421ad017e000f0a1
:10395c000dfd204603f0f8fb0028f8d12c4c01e0bb
:10396c0000f004fd204603f0effb0028f8d103f033
:10397c0087f902b010bd254b186800283cd000f028
:10398c00f5fc244b186848b11f4b1b68984205d0b6
:10399c001e4b1b68834201d000f0e8fc01f0b2fd25
:1039ac0003f0f2fc00241c4b1c60174b1c60194be1
:1039bc001c60164b1c60194b1c700194042240f6c1
:1039cc000c010deb020001f001f8019b23f00073d8
:1039dc000193042240f60c010deb020001f042fcb5
:1039ec000f4b1c700f4b1c700f4b1c700f4b1c7033
:1039fc000f4b1c700f4cace7064b18680028c7d156
:103a0c00cce700bff201002014020020f8010020d6
:103a1c008801002000020020080200201002002073
:103a2c00f1010020040200200d0200200c020020f5
:083a3c0084010020bc01002000
:020000040000fa
:103a440030b583b004460d463d4b1b7883421cbf02
:103a54003b4b18704ff6ff7399421bd1384b1b78c0
:103a6400019304224ff498710deb020001f0fefb68
:103a740014f0100f22d0a5f11a039bb2182b30d8e2
:103a8400304a22fa03f313f0010f2ad02e4b0122fd
:103a94001a7016e0019104224ff49a710deb0200a2
:103aa40001f0e4fb264b1b78019304224ff4987138
:103ab4000deb020001f0dafb002dd9d1224b0022dc
:103ac4001a7021490b7843f010020a7004f00f04b5
:103ad400013c072c13d8dfe804f00f222e26121223
:103ae400122a1a4b1b78012bd0d01b2d164b0cbf5e
:103af40002220d221a70e4e7154b002119701449b3
:103b04000b7843f010030b7043ea02230093042262
:103b14004ff49c71684601f0a9fb03b030bd0c4b17
:103b24000d211970ebe70a4b01211970e7e7084be7
:103b34000f211970e3e7064b0e211970dfe700bf70
:103b44000f01002001000801570100201601002088
:043b5400200100202c
:020000040000fa
:103b580038b5364b1b7813b902f0d2fc38bd02f0e9
:103b680081fb10f4806f1dd0314b1b782bb1314b8a
:103b78001b7813b1304b00221a80304b1b8d13b1c8
:103b8800013b2e4a13852d4b1a8d2d4b1a852d4b33
:103b980001221a702c4b00221a802c4b1b7863b31d
:103ba80001f0c0fe254b5b88012b38d0284b1b78d1
:103bb8002bb1234b5b88012b34d0222b32d002f05f
:103bc80051fb10f4806fc7d01c4a538d01339bb250
:103bd80053851b4a53851f4d1f4c042229882046b4
:103be80003f046fc29881d4b1b881944043904221c
:103bf80089b2204603f03cfcaee7164d164c042271
:103c08002988204603f034fc2988144b1b88194462
:103c18000439042289b2204603f02afcc2e703f0e3
:103c2800aff8c3e702f03ef9c9e700bf5101002031
:103c38002801002049010020540100205c020020d6
:103c480018020020440100200c0100204a01002035
:103c5800500100201c0100202c0100201001002030
:020000040000fa
:103c68002de9f04f83b0009001913f4b1c8884b33d
:103c78004ff000099a464ff0010bc84618e01d4660
:103c8800b4693146e8b201f0adf8c0f30f1014f88a
:103c9800104044441ffa84f86b1c9bb2bd42eed11d
:103ca80009f10109baf800201ffa89f39a420fd9dd
:103cb8001ffa89f30aeb4303588803f00dfb064605
:103cc80000283dd083691f88002fe9d05d46d7e7db
:103cd80044460734c4f3cf08244b1888002840d042
:103ce8004ff0000a5546dff884b018e01c46d6f8b5
:103cf80018903146e0b201f075f8c0f30f1019f8ca
:103d080010301d44adb2631c9bb2bc42eed10af127
:103d1800010abbf800201ffa8af39a420ed91ffa4b
:103d28008af30beb4303588803f0d6fa0646a8b18a
:103d380083691f88002fead00124d8e7002003e018
:103d48004ff0000845462520eb1ddb10009a138034
:103d5800019ba3f8008003b0bde8f08f0025242064
:103d6800f2e70546f0e700bfac2a0020b02a0020a1
:020000040000fa
:103d780008b5354b00221a80344b1b78002b3dd0f8
:103d8800334b1b781bb1334a138801331380324bf2
:103d98001b883bb3314a128893421dd2304b1b8893
:103da800002b41d02f4b1b8d2f4a12899a4219d3d1
:103db80003332c4a138515e00023284a13802b4a25
:103dc80013850fe002f06ef8294b1b88012b15d1e3
:103dd800204b00221a8011e0214b1b888bb1013245
:103de8001e4b1a8002f0ccff194b1b7833b1204bc5
:103df8001b881bb1174a12889a42e3d002f080fb55
:103e080008bd1c4b1b88002be9d002f02bfa10f4dc
:103e1800006fd1d1114b1b880f4a12889a42e1d307
:103e280001330e4a1380dde7124a1288002ad9d0de
:103e3800002bd7d10d4b1b8d0b4a12899a42e4d324
:103e480003330a4a1385e0e71401002049010020e2
:103e580050010020180100204001002054010020da
:103e6800100100205c020020402a002018020020d7
:083e78003a0100203e01002088
:020000040000fa
:103e8000534d206f757470757420706172616d652b
:103e90007465720053796e6368726f6e697a6174cb
:103ea000696f6e2054797065004379636c652054a6
:103eb000696d65000053796e6368726f6e697a612f
:103ec00074696f6e20547970657320737570706fac
:103ed00072746564004d696e696d756d2043796318
:103ee0006c652054696d650043616c6320616e648c
:103ef00020436f70792054696d6500004765742018
:103f00004379636c652054696d650044656c617923
:103f10002054696d650053796e6330204379636c7a
:103f2000652054696d6500534d2d4576656e74208e
:103f30004d6973736564004379636c652054696de2
:103f40006520546f6f20536d616c6c005368696617
:103f5000742054696d6520546f6f2053686f7274bc
:103f60000000000000000000000000000000000051
:103f700000000053796e63204572726f7200ff007b
:020000040000fa
:103f8000534d20696e70757420706172616d657437
:103f900065720053796e6368726f6e697a617469d5
:103fa0006f6e2054797065004379636c65205469a5
:103fb0006d65000053796e6368726f6e697a617423
:103fc000696f6e20547970657320737570706f72ad
:103fd000746564004d696e696d756d204379636c1d
:103fe000652054696d650043616c6320616e6420d7
:103ff000436f70792054696d6500004765742043f4
:1040000079636c652054696d650044656c61792045
:1040100054696d650053796e6330204379636c6534
:104020002054696d6500534d2d4576656e74204da5
:104030006973736564004379636c652054696d65c9
:1040400020546f6f20536d616c6c00536869667407
:104050002054696d6520546f6f2053686f7274002f
:104060000000000000000000000000000000000050
:10407000000053796e63204572726f7200ff00007a
:020000040000fa
:10408000f0b583b000242e4b1c602e4b1c602e4bd1
:104090001c602e4b1c602e4b1c602e4b1c602e4b4c
:1040a0001c602e4b1c602e4b1c602e4b1c60fff7bf
:1040b0001bfb00f057fa2c4b01221a702b4b1c7083
:1040c0002b4b1c602b4b1c602b4b1c6000940194f1
:1040d0004ff47a7404264ff411651f4604e09a42a7
:1040e00088bf3b60013c16d032462946684603f043
:1040f000c3f93246294601a803f0bef9009b019a94
:10410000934288bf02f1ff32d31a01933a68002a22
:10411000e5d13b60e6e70023019304224ff4a06160
:104120000deb020000f058fc019b03f48003002b10
:1041300014bf08220422114b1a80002003b0f0bde6
:10414000180000201c000020dc0000200c000020d3
:10415000e00000207c00002074000020e800002027
:10416000d800002080000020312a0020100000200c
:104170001400002088000020240000207a00002085
:020000040000fa
:1041800030b583b0002301930422354b19880deb21
:10419000020000f021fc019ca3b20193314b1b787b
:1041a000012b0ad0304b1a78304b1b7813431dd0ab
:1041b0002f4b01221a7003b030bd0a20fff776f8aa
:1041c00005460028eed00021c0f802100423038029
:1041d000838823f4706383800123c38007230381d2
:1041e00001f014fb284600f0c7f8dbe7204b002263
:1041f0001a70204b1d882846fff758f81e4b186090
:10420000d8b1a21d92b2aa4228bf2a46144b1988df
:1042100000f0e2fb00230093042240f6040168460c
:1042200000f0dafb009b0093009b13f4006f08d1b1
:10423000114b186801f086fdbde70d4b01221a7085
:10424000b9e70e4800230360054b1988094b1b880a
:1042500019440439042289b200f0befbe8e700bf2c
:10426000f4010020f0010020f10100200d020020e7
:10427000040200200e020020080200202c01002071
:020000040000fa
:1042800038b505460c4603f08dfa08b30246611ea8
:10429000c9b201eb85005388dbb243ea00239bb22d
:1042a0005380022d15d0032d39d000211171517189
:1042b0009171d171002111706ff05f01517023f085
:1042c000ff032a4909780b435380104601f0fcfc98
:1042d00038bd0329eed8dfe801f002020c110021fd
:1042e0001171102151714ff0ff3191711f21d17166
:1042f000e0e71f4909889180d180dbe71c490988e4
:1043000039b100210a201071517101209071d171d1
:10431000d0e70021117151719171d171cae7032960
:10432000c8d8dfe801f002020c1100211171102140
:1043300051714ff0ff3191711f21d171bae70d49d1
:1043400009889180d180b5e70a49098839b10021ef
:104350000e201071517101209071d171aae70021d6
:10436000117151719171d171a4e700bf0f0100204b
:08437000100100203e010020b5
:020000040000fa
:104378002de9f84300286ad050f8043ca0f108045d
:1043880023f00106a719a259934200d0ffde7a68ec
:1043980023681340da070fd4204602f051fd0028a5
:1043a80057d1384602f02cfe0028f0d07b6823f065
:1043b80001031e441f44eae746f0010363603046e8
:1043c8003b6002f00ffc054602f0a6ff23687a68fe
:1043d8001340db07e0d5dff88ce0dee90089c5f1a2
:1043e800200ca5f1200228fa05f009fa0cfc29fa9c
:1043f80002f240ea0c001043012100ea0102002306
:104408001343c5f120007346a5f1200212d121fa09
:1044180000f001fa02f2a94042ea00021ebfdef8eb
:1044280000000143cef8001022b1def804100a4360
:10443800cef80420681c03ebc003a3f108026660f1
:104448003e60a2605a68e2605c60e3689c60bde818
:10445800f883236823f00103e41a636823f0010357
:084468001e449ee72023002002
:020000040000fa
:1044700038b5059c602955d000293cd0258905f424
:104480007f45258100284fd1e088c0f30b0040f420
:104490004050e080402926d104990139032910d8e1
:1044a0000a23237000236370049bdbb2c3f104036f
:1044b00042f0030242ea83022a4342f04002228190
:1044c00044e004998b4228bf049b0a339bb22380ab
:1044d000049ba381049bc3f30f43e38142f0410299
:1044e0002a43228132e00a2323700023637045f0bf
:1044f000600222812ae0b8b9e388c3f30b0343f4d6
:104500004053e3800a23237000236370238943f020
:10451000200323811ae0e388c3f30b0343f44053e1
:10452000e38013e00028f6d00a2323700023637091
:10453000e388c3f30b0343f40053e380238943f080
:1045400080032381054b53f82030e360022120468d
:1045500001f05cf908b1024b1c6038bd345e00000c
:04456000ec0000204b
:020000040000fa
:1045640010b582b02a4a202414800023538053605b
:1045740044f21f00908127491161536193831362b0
:104584001385538582f84030234a14805380536046
:10459400908111615361938313621385538582f86b
:1045a40040301e4a137002f0bffc20bb00231c4a9b
:1045b40013701c4a13701c4a13801c4a13701c4a43
:1045c40013601c4a13601c4a13601c4a1360019355
:1045d400042208210deb020000f0fcf9019b13f00a
:1045e400080f0bd0164b00221a70164b4ff47a6248
:1045f4001a6002b010bd02f021fed7e7104b012271
:104604001a7004224ff411610f4800f0e3f9ece74b
:104614005c020020a086010018020020a0020020f5
:10462400e0220020e1220020122300201423002095
:10463400f0220020cc220020dc220020f4220020e2
:0c464400380100200800002004000020c5
:020000040000fa
:104650002de9f04184b01e465469e9b10f469389b3
:10466000c3f30323072b17d0092b24d0002e5dd0d2
:10467000304b6c460fcb07c4237039460df109004f
:1046800002f05efa6b4607cb30607160b2601b7857
:1046900033734ff00c080ae0204602f0dbff1ffaec
:1046a00080f826b142462146304602f0dafe404606
:1046b00004b0bde8f0811ffa81f8204602f0caff7d
:1046c00001302518235c0233dbb2012bced9b8f1bf
:1046d000010f16d0284602f0bdff01300544022428
:1046e0002b780233dbb2012bc0d9a04509d00134ad
:1046f000a4b2284602f0aeff01300544a045efd237
:10470000b4e7284602f0a6ff1ffa80f846b1b8f1d8
:10471000000fadd042462946304602f0a2fec6e761
:10472000b8f1000f08bf4ff00c08c0e74ff00c08bd
:08473000bde700bf242a0020b0
:020000040000fa
:10473800314b00221a7403f50063304a9a621a4614
:10474800536813f0100ffbd12d4b4222c3f884207d
:104758001a46d2f8843013f0400ffad0294b0022c1
:104768009a6377225a631a46d36b13f0040ffbd16e
:10477800244b022283f830201a46d36b13f0020f21
:10478800fbd1204a136c03f00303032bfad11e4b11
:1047980001225a711a46d37813f0010ffbd0184b37
:1047a8001a4a1a621a46536813f0040ffbd1144bc5
:1047b800174a5a621a46536813f0080ffbd1104b78
:1047c8004122c3f890201a46d2f8903013f0400fd7
:1047d800fad00b4b4122c3f8a4201a46d2f8a430d1
:1047e80013f0400ffad0084b6ff07f421a614cf279
:1047f800ff725a61704700bf001400400601300084
:10480800001c0040001000400008004007010100a3
:044818000701020092
:020000040000fa
:10481c002d4b1b78002b56d02de9f04782b0174654
:10482c000e468146294b1d682b89dbb203f0e00a4a
:10483c0003f01004baf1400f0fd04ff00008224bd8
:10484c0000221a700195009643462246514648466e
:10485c00fff708fe02b0bde8f0871d4bb3f80080ef
:10486c00a8f110081ffa88f888450bd34b1e032bb0
:10487c0020d805f10c009042e1d00a46394602f0ee
:10488c00eafddce70123134a1370134a1370134b30
:10489c001c70134b1960134b60221a70124b1f6063
:1048ac004246394605f1100002f0d5fd0f4bc3f816
:1048bc000080c4e705f110009042c0d00a4639468a
:1048cc0002f0c9fdbbe77047c52a0020ec2200208e
:1048dc00fc010020d5220020e2220020d42200205e
:1048ec00d8220020e3220020f4220020d022002035
:020000040000fa
:1048fc0008b5214b1b88002b35d1204b1b88002b76
:10490c0035d14ff2f33002f033f900231c4a137007
:10491c001c4a13701c4a13701c4a13701c4a1370e7
:10492c001c4a13801c4a13801c4a13801c4a138097
:10493c001c4a13801c4a13801c4a13801c4a138087
:10494c001c4a1385538582f840301b4a13855385c6
:10495c0082f84030194a1380194a1370194a13709f
:10496c00194a137008bd022002f070f9c5e7032044
:10497c0002f06cf9c5e700bf100100203e010020d9
:10498c004401002051010020490100202801002091
:10499c004501002040010020540100201e01002090
:1049ac00140100204c010020240100203a010020b9
:1049bc00180100205c0200201802002022010020b7
:0c49cc005201002050010020a002002039
:020000040000fa
:1049d800002a68d02de9f04383b005460e461746f5
:1049e8004ff0c0094ff004084ae0032c04d8012c0a
:1049f8008cbf022401241ae08df80460330a8df874
:104a080005308df806408df8079002f0a2fe424668
:104a180001a94ff4417001f0dbff424601a94ff4b0
:104a2800407000f05ffe02f098fe19e001248df856
:104a38000460330a8df805308df806408df807902c
:104a480002f087fe424601a94ff4417001f0c0ff11
:104a5800424601a94ff4407000f044fe02f07dfe8a
:104a680001aa002312f8011b05f8011b0133dbb270
:104a7800a342f7d3a4b22644b6b23c1ba7b27fb177
:104a880016f0010fd2d13c46042f28bf0424e4b20b
:104a980016f0020fa9d0012c8cbf02240124c6e70e
:084aa80003b0bde8f083704784
:020000040000fa
:104ab00008b5294b1b78002b4cd0284b1b78002bba
:104ac00035d0274b1a78274b1b78134333d102f08c
:104ad00044fe02f059f9244b1b7813bb02f041fe4f
:104ae00029e001f0b5fa10f4806f0cd01c4b0122c4
:104af0001a701e4b00221a801d4b1b78002be6d02b
:104b000000f014ffe3e71b4b1b88002bdfd110f4f0
:104b1000006fdcd0124b01221a70144b00221a8055
:104b2000d5e701f0c3f9d9e701f030fa08e00d4b01
:104b30001b78002bd5d0104b1b68b3f57a6ff3d2de
:104b4000fef78cfc00f0eafb01f006ff0b4b1b6844
:104b500003b1984708bd00bf312a00205101002051
:104b60004401002049010020500100200c010020d8
:104b70004a010020100100200800002080000020d1
:020000040000fa
:104b8000274b1b78002b4ad0264b1b78002b46d096
:104b9000254b1b8813b3254a128893421bd8244bfc
:104ba00000221a70234b1b788bb97047204b0022d0
:104bb0001a70f7e71f4b01221a701f4bb3f9003030
:104bc000002b2cdd1d4a1388013313807047194bcd
:104bd00000221a7070470132144b1a80144b0122c4
:104be0001a70174b1b8833b1164a12889342ddd9cd
:104bf0000132144b1a80144b1a8d144b1b899a42a4
:104c0000d8d30c4b1b7853b10a4b00221a700a4bb5
:104c1000b3f90030934202dd084b1a8070477047a9
:104c200049010020500100201e0100201401002035
:104c30002801002045010020220100201a01002047
:104c4000240100204c0100205c020020402a0020aa
:020000040000fa
:104c5000f0b583b02a4b1b7803f00f03012b4ad029
:104c6000284b1b78002b48d0274b1c781cb10724fd
:104c7000204603b0f0bd05460788ba1d92b2234b0b
:104c8000198800f0f5fa00230193042240f60c0184
:104c90000deb0200fff7a0fe019b0193019b13f4b3
:104ca000006f12d11a4b1e88b21fd21b92b2194b41
:104cb00000211960032a14d9144b1988314404398e
:104cc000042289b2134800f0d3fa134b1b6813b1c6
:104cd000124b00221a60104b1d600b4b01221a7000
:104ce000c6e7c2f10402b91d891005eb810118461f
:104cf00002f0b7fbe0e7f024bae7f024b8e700bf22
:104d00000f010020f2010020f10100200602002026
:104d1000fc0100202c0100200002002008020020dd
:020000040000fa
:104d200010b582b0204b22221a80204b4ff48072a3
:104d30001a804ff480531e4a13801e4a13801e4b64
:104d400000241c805c800a229a801c4b1c805c80a2
:104d50009a801b4b1c601b4b1c601b4b1c601b4b2d
:104d60001c601b4b1c700194042240f60c010debdf
:104d70000200fff731fe019b23f000730193042230
:104d800040f60c010deb020000f072fa114b1c70a2
:104d9000114b1c70114b1c70114b1c70114b1c7073
:104da000114b1c7002b010bd0e020020fc0100204f
:104db000f401002006020020bc0100208801002030
:104dc000080200201402002000020020f801002048
:104dd00010020020f2010020f10100200402002056
:0c4de0000d0200200c02002084010020c5
:020000040000fa
:104dec00f0b48f89c7f30327002856d1f0bc704765
:104dfc00062b43d004d8032b40d0042b04d112e053
:104e0c00082b10d90b2b39d0624522d26388184459
:104e1c0080b21ee0b3f5187f30d0f5d3a3f2622533
:104e2c00adb2012df0d800f11f054ff6e07028400f
:104e3c0062450ed2a3f262239bb2012b9abf638808
:104e4c00c018203080b204e06388184480b210305f
:104e5c0080b2013292b206366245c7d8082f0c696f
:104e6c000cbf0634a41923881f2b07d0c0d92f2bb5
:104e7c00d9d0cfd8202bd6d02e2bc5d100f10f05f1
:104e8c004ff6f07028406245e3d20b2bdcd0b3f523
:104e9c00187fdcd1d8e70020a8e78446072ffad08a
:0c4eac001ffa8cfc062610200122d7e71c
:020000040000fa
:104eb800002a60d02de9f04383b005460e46174618
:104ec8004ff0c0094ff0040842e0032c04d8012c2d
:104ed8008cbf0224012416e08df80460330a8df893
:104ee80005308df806408df80790424601a94ff429
:104ef800417001f06dfd424601a94ff4407000f089
:104f0800f1fb15e001248df80460330a8df80530b3
:104f18008df806408df80790424601a94ff441707c
:104f280001f056fd424601a94ff4407000f0dafb4b
:104f380001aa002312f8011b05f8011b0133dbb29b
:104f4800a342f7d3a4b22644b6b23c1ba7b27fb1a2
:104f580016f0010fd6d13c46042f28bf0424e4b232
:104f680016f0020fb1d0012c8cbf02240124cae72d
:084f780003b0bde8f0837047af
:020000040000fa
:104f8000050008000700060010000f0007002000c1
:104f900007000000200000000600100007000700c6
:104fa000200007000700200007000000200000008c
:104fb000060010003f000700200007000700200047
:104fc0003f00060010000700060010000700000068
:104fd0001000000000001000000000002000000091
:104fe0000000200000000000200000000000200061
:104ff00000000000000000000000000000000000b1
:1050000000000000000000000000000000000000a0
:105010000000000000000000000000000000000090
:105020000000000000000000000000000000000080
:105030000000000000000000000000000000000070
:0850400001000100070000bfa0
:020000040000fa
:1050480008b52a4b00221a70294b186810b1294b51
:105058001b68c3b1284b1a68254b1a60254b186882
:10506800a0b1fff7f1fd234b00221a60234b1b78f8
:1050780043b113f0010f11d113f0020f1cd113f03b
:10508800400f29d108bdfff773f9e3e71c4802f088
:105098005df80028ead0fff7d7fde7e7194b186855
:1050a80002f0dcfa02f08efa0028ebd0134a1378eb
:1050b80023f001031370e5e723f002030f4a13708e
:1050c800104b186801f000fb0028dbd00b4a13785e
:1050d80043f002031370d5e723f04003074a137027
:1050e800084b186802f060f9cce700bff101002016
:1050f80014020020f8010020000200200d02002008
:085108008801002008020020cc
:020000040000fa
:1051100008b5214b1b783bb1204bb3f90030002b75
:1051200002dd013b1d4a138001f048f9fff728fd1d
:105130001b4b1a8872b11b490b8801339bb20b8041
:105140009a4207d80023164a13800b80164b1b681f
:1051500003b19847154b1b7843b1002314490a68e3
:1051600014480021994208bf90420fd3104a136897
:10517000516811481b184ff0000040eb010113600b
:1051800051600e4a13680133136008bd0b4b4ff496
:105190007a621a60f5e700bf3c010020460100205a
:1051a000e4000020780000200c00002038010020de
:1051b000582a002040fbe1ff40420f000800002079
:020000040000fa
:1051c00038b5002002f002f9224c03681b0c238042
:1051d000214d03682b80012002f0f8f803681b0cb6
:1051e00099b21e4a118002681d4802802d8892b231
:1051f00020882844904202dd13449d4228db0c396c
:10520000184b1980002001f075fd012001f072fd9e
:10521000104b1888fef74af8134b186040b1002471
:10522000124b1c70fff7a8f80f4b1c60204638bdce
:105230000e4b01221a700a20fef738f8002814bf1e
:1052400000240224fff798f8074b00221a60ede7cc
:105250001624ebe70e020020f4010020fc010020e0
:10526000060200200401002008020020f0010020b6
:020000040000fa
:10527000002a51d02de9f04782b005460e46174668
:105280004ff0010a4ff000094ff0040831e0032c01
:1052900005d8012c8cbf0224012400e0544601aa49
:1052a0004b4615f8011b02f8011b0133dbb29c428f
:1052b000f7d802f052fa424601a94ff4407001f0cb
:1052c0008bfb8df80460330a8df805308df80640ad
:1052d00080238df80730424601a94ff4417001f058
:1052e0007bfb02f03efaa4b22644b6b23c1ba7b246
:1052f0007fb116f0010fd1d13c46042f28bf042402
:10530000e4b216f0020fc2d0012c8cbf022401249b
:0a531000c5e702b0bde8f087704762
:020000040000fa
:02531a007047da
:020000040000fa
:10531c0010b582b0204b1c68002c33d01f4b1b786f
:10532c0000931f4b1b681f4a12681f4909781f48be
:10533c000088a0470446ff2824d01d4b1b78013b56
:10534c00032b10d8dfe803f00a022020194b186851
:10535c0020b1fff70bf8174b00221a600022114600
:10536c002046fff755fa0023114a13700f4a138099
:10537c000d4a13700b4a1360094a1360074a1370e5
:10538c00054a136002b010bd054b1a68054b19682d
:10539c00fff73efae7e700bfdc220020e122002005
:1053ac00cc220020f0220020142300201223002005
:0853bc00e0220020f422002091
:020000040000fa
:1053c4002de9f04f83b08246019116469b460b8827
:1053d400b3f5805f0bd0234b1c6894b1012e3ed9ea
:1053e4004ff0200808fa0af81ffa88f823e002f0c0
:1053f4004bf904460028f1d10c9b13b11b230c9ae2
:105404001370304600244ff6ff7321e00135ebb2f0
:1054140099450bd3e9b2204601f0aefe838818ea21
:10542400030ff3d02bf8027b023eb6b26468002c63
:10543400e7d0012e0ad92789b7f5805ff6d3baf1f0
:10544400000fefd094f80c900025e3e73046238951
:10545400019a1380034b1c6003b0bde8f08f304603
:08546400f5e700bfe42200207f
:020000040000fa
:10546c0070b582b0002300930425254c2a4669466a
:10547c00642000f035f9009ba342f7d10023009380
:10548c00042269465c2001f0a1fa932604254ff40e
:10549c00017401962a46214601a8fff7e3fe00237a
:1054ac0001932a46214601a8fff790fa019b932b02
:1054bc00efd10024019404224ff401710deb020092
:1054cc00fff7d0fe40f201130093042269465420ea
:1054dc0001f07cfa01230093042269465c2001f060
:1054ec0075fa04226946582000f0faf801f052fed1
:1054fc0001f060fe01f0e2ff204602b070bd00bf7b
:04550c00214365874b
:020000040000fa
:1055100008b51a4b1b78012b1ed00023184a1370b4
:10552000184a1370184a1380184a1370184a1360e7
:10553000184a1360184a1360104a1370174b186802
:1055400020b1fef719ff154b00221a600023144a00
:105550001360144a137008bd134b18680028dcd080
:10556000124b1b689842d8d0114b1b689842d4d07c
:10557000fef702ff0c4b00221a60cee7c52a00207e
:10558000e0220020e122002012230020142300202a
:10559000f0220020cc220020dc220020f422002077
:1055a000d0220020e3220020ec2200201402002060
:0455b000f8010020de
:020000040000fa
:1055b400002a4dd02de9f04782b005460e46174625
:1055c4004ff0010a4ff000094ff004082de0032cbe
:1055d40005d8012c8cbf0224012400e0544601aa02
:1055e4004b4615f8011b02f8011b0133dbb29c4248
:1055f400f7d8424601a94ff4407001f0ebf98df859
:105604000460330a8df805308df8064080238df848
:105614000730424601a94ff4417001f0dbf9a4b20e
:105624002644b6b23c1ba7b27fb116f0010fd5d108
:105634003c46042f28bf0424e4b216f0020fc6d05f
:10564400012c8cbf02240124c9e702b0bde8f08715
:0256540070479d
:020000040000fa
:1056560030b49489c4f30320e4b213b307283ad0d4
:10566600082813d0002064b115690123002003eb3c
:10567600430205eb4202528810440133dbb29c42de
:10568600f5d20730c00849bb023027e013691b89f1
:105696009269107800fb03f00730c008f1b90230b8
:1056a6001ce007280dd0c1b108280fd08c4217d3b3
:1056b600136901eb410103eb410148880730c01033
:1056c6000ce0136958880730c01007e01369188981
:1056d6000730c01002e0002000e0012030bc704717
:0456e6000020fbe7be
:020000040000fa
:0256ea00fee7d9
:020000040000fa
:1056ec002de9f04184b0044688461546b0f5405f7c
:1056fc0029d2012a01d940f480441b4f8022002179
:10570c00384601f099ff00230193029303930b2376
:10571c008df8043006238df80630144b93f8216075
:10572c0045ea0423aa19394601a800f04bfa04f003
:10573c00030434442a4657fa84f1404601f08bfea8
:10574c0004b0bde8f08102f00303012b06d0022b5c
:10575c0007d0032b04bf0135edb2cee70335edb214
:10576c00cbe70235edb2c8e7e4280020b4290020cd
:020000040000fa
:10577c0008b51b4b98471b4b9847eff3108172b63b
:10578c00194ad2f8883043f47003c2f88830bff35a
:10579c004f8fbff36f8f01b962b6144c2023636037
:1057ac0000f048f9124b23f07f030f4a9360114b22
:1057bc009847a36823f00103a3602346da6812f02c
:1057cc00010ffbd1094b5a6842f004025a600122c6
:1057dc009a60094b9847094b984701f0fbfefee78e
:1057ec00f3750000f375000000ed00e0006000416f
:1057fc0000000000ad600000f3750000f3750000c0
:020000040000fa
:10580c0038b51f4b1b7803f00f03012b36d0838860
:10581c00c3f30b0383801b4a127812f0070f02d1db
:10582c00184a012414700d460446164a127843eaad
:10583c0002338380fff706fa48b9124a1378013312
:10584c00137069b2002911db0023184638bd0e49cc
:10585c00204601f014fc034618b165f07f0149b2f3
:10586c0005e0084a137801331370eae70023074a6e
:10587c0001f07f01107801431170e6e7f023e4e7b3
:10588c000f01002084010020880100200d0200205f
:020000040000fa
:10589c002de9f04383b004460e461546adf80410ce
:1058ac00adf8062004220deb02014ff4427001f01a
:1058bc008df84ff00043019304220deb02014ff4dd
:1058cc00437001f083f806f0030000eb05085ffa63
:1058dc0088f818f003091cbfc9f104025ffa82f9b9
:1058ec00074628444844fdf7dbfc0646a0b108eb0c
:1058fc000902d2b201460420fff7f2fe4db100239b
:10590c00f119ca5c04f8012b0133dbb29ab2aa423a
:0e591c00f7d33046fef72afd03b0bde8f08356
:020000040000fa
:02592a00fee796
:020000040000fa
:10592c0038b51a4b9b8b1a4a928b134313f0010f09
:10593c002ad0002001f0a4f80546164b1860164b2f
:10594c0001221a70154b00221a6000f0fffd144c56
:10595c00144b1a88144b1988204601f087fd2046f9
:10596c0001f0dcfe094b9b8b094a928b134313f01d
:10597c00010f08d0284601f083f8044b5b69834281
:10598c003cbf024b586138bd0025e0e75c020020ab
:10599c001802002088000020100000202c0000209d
:0c59ac0030000020100100201c01002031
:020000040000fa
:1059b8001f2932d870b588b00c461e460a460146e3
:1059c800684601f04afd002208ab234403f8202c66
:1059d800164b186820b3acb19df80020144b1b7807
:1059e8009a4220d16b461249621e13fa82f2934200
:1059f80008d013f8015f11f8014fa542f7d048f21b
:105a0800010008e0b04238bf86b2324609490c9816
:105a180001f023fd304608b070bd48f2030070471e
:105a280048f20100f7e748f20100f4e7a42a002051
:085a3800a8220020a8020020b2
:020000040000fa
:105a40001e4b1f4a9342f0b438bf002103d203f823
:105a5000011b9342fbd11b4ad2e9000150ea01032a
:105a60004ff0000610d09468034602f10c076cb9a1
:105a700021b1014403f8016b9942fbd13a46d2e9c6
:105a8000000150ea0103eed1f0bc704759b101f1b9
:105a90000c030c38801a1a443b461c1813f8015b9f
:105aa00025709342f9d111f0030318bf012303ebd2
:105ab000910107eb81073a46e1e700bf00000020b3
:085ac0001c230020740a000001
:020000040000fa
:105ac8001d4a137843f001031370536813f0010f54
:105ad800fbd11949194bcb6100220a6283230b6160
:105ae800174b1a7201221a75102283f8202083f8a6
:105af8002c2083f8382083f8442083f8502007208e
:105b080083f85c0083f8682083f8742083f8802089
:105b180083f88c2083f8982083f8a42083f8b02099
:105b280083f8bc200b7843f002030b700a465368d5
:105b380013f0020ffbd1704700280040220000201c
:045b480024280020ed
:020000040000fa
:105b4c00f8b50f4616461c461a46032100f0dcfb3e
:105b5c000546c8b144f0806006f0030e032e15d83c
:105b6c00bef1000f21d1bff34f8fbff36f8f134bdb
:105b7c00134a1a601a46d36913f4806ffbd00f4a8c
:105b8c00d36943f48063d3612846f8bdb108013969
:105b9c003c46a0eb070c04eb0c0354f8042b1a60e6
:105bac000139b1f1ff3ff6d1dae726f00306724670
:105bbc00b919304401f096fcd5e700bf003400421f
:045bcc0002000001d2
:020000040000fa
:105bd000f8b50f4616461c461a46012100f09afbfe
:105be0000546c0b144f0806106f00302032e14d8cc
:105bf0000abb144bda69bff34f8fbff36f8f124aa2
:105c00001a601a46d36913f4806ffbd00d4ad3692a
:105c100043f48063d3612846f8bdb00801383c46a0
:105c2000a1eb070c54f80c3044f8043b0138b0f1f8
:105c3000ff3ff7d1dce726f003000144384401f0d0
:0c5c400057fcd6e70034004202000001cf
:020000040000fa
:105c4c00002833d010b404461b4b1a684ab1138990
:105c5c0001898b420ad88b422cd053688bb91346de
:105c6c0016e0186000206060206006e000202060d4
:105c7c00114b1a68626014601c605df8044b70472d
:105c8c0013461a89914213d007d35a68002af7d1c8
:105c9c005c60236000206060efe71a68226063603c
:105cac001a6802b154601c600020e6e701207047be
:0c5cbc000120e2e70120e0e71c230020ab
:020000040000fa
:105cc80070b50546184b1c780cbb184b1b7803f0b5
:105cd8000f03012b1bd01020fdf7e4fa0346144aea
:105ce8001060f8b1134a92e8030083e8030003f157
:105cf80008022868696803c201211846fff782fd77
:105d0800064668b9284601f0b7fa344608e028463e
:105d180001f0c2fa084a137843f001031370002413
:105d2800204670bd0224fbe7f10100200f0100208e
:0c5d380008020020ac7700000d020020e3
:020000040000fa
:105d440010b583880288b2f5807f0ed804461b0bf9
:105d540003d0174a12789a4227d0154a137015496e
:105d6400204601f090f980b910bd00210422027090
:105d7400417023f47063838001238371c17108230c
:105d840003724172fff740fdeee700210422227006
:105d94006170a28822f47062a2800122a271e17172
:105da40020812046fff730fddee7fef7e3fadbe76c
:085db4000c020020bc010020dc
:020000040000fa
:105dbc00f8b5194d002604270de027706670a288ef
:105dcc0022f47062a2800122a271e6712081314618
:105ddc002046fff715fd284601f0b6f9044690b1b0
:105dec0000f08afe0028f6d0e7e70c4b1b7873b95d
:105dfc0001f0e6fb58b901f009f8fff75fff06e088
:105e0c00fef7b8f907e0064b1b78002bedd1054bdc
:105e1c001b78002bf4d1f8bdbc010020f10100204f
:085e2c00f20100200402002035
:020000040000fa
:105e34000000000000000305000004050100040543
:105e44000500040500000106010001060200010628
:105e54000000020641000406420004064300040652
:105e64004700040600000606100007061200070695
:105e7400130007061100090630000906310009065f
:105e8400320009063300090636000906000000083e
:105e94002000000821000008220000082300000858
:085ea4000300010604000106e1
:020000040000fa
:105eac0038b500f0ddf9154b9b8b154a928b1343db
:105ebc0013f0010f20d0002000f0e2fd0546114c3c
:105ecc00204601f025fc104b1a88104b19882046ef
:105edc0001f0d6fa094b9b8b094a928b134313f0b2
:105eec00010f08d0284600f0cbfd054b5b698342bf
:105efc003cbf034b586138bd0025e0e75c02002035
:105f0c00180200208c0000203e01002058010020c7
:020000040000fa
:105f1c0070b5194b1b783bb1012b10d14ff4802578
:105f2c004ff00416154c14e000f050fcfef7a2f8ec
:105f3c0000f092fa0123114a13700f4a137070bdce
:105f4c0083f3088833681847fef7acfd2378012be0
:105f5c00f5d101f0d7fb0128f6d101f0b9fa0028f0
:105f6c00fbd101f051fb01f0b3fa0028fbd12b68f7
:105f7c00b3f1ff3fe4d1e7e7182300202000002015
:020000040000fa
:105f8c0010b582b0134b1b78e3b1134c236801930b
:105f9c0004224ff411610deb0200fef717fd01997d
:105fac00626821600d480068814204d20b1c42f1ea
:105fbc00010223606260094b1960094b00221a60d0
:105fcc0002b010bd08224ff411610348fef7fefc2d
:105fdc00f3e700bf38010020582a002004000020fd
:045fec000800002089
:020000040000fa
:105ff00010b5124b1c685cb1114b1b7813b1114bdf
:106000001b6863b12046fef723fe0c4b00221a608a
:106010000d4a1378b3fa83f35b09137010bd0120a6
:1060200000f01afe094b1a68064b1a60012000f0b6
:1060300061fe034b00221a70e4e700bf1402002047
:10604000f1010020f80100201002002000020020d1
:020000040000fa
:1060500010b582b020238df8043002238df805306e
:1060600004248df80640c0238df8073001f075fb3d
:1060700022460deb04014ff4417000f0adfc2246c6
:106080000deb04014ff44070fff730fb01f069fbaa
:10609000044b1b781bb1044b188802b010bdbdf82f
:0c60a0000400fae7db29002000000020cb
:020000040000fa
:1060ac000e4a38b5002313600d4a0e4c13600e4a8d
:1060bc000e4d13600e4a13600e4a13600e4a536263
:1060cc0013610123936001f07efb01f07cfbac4279
:1060dc0000d338bd54f8043b9847f8e7b82a0020a1
:1060ec00702900206c0200006c2900207002000056
:0c60fc006429002068290020742900207d
:020000040000fa
:106108002021222324242525262627272828282835
:10611800292929292a2a2a2a2b2b2b2b2c2c2c2ccf
:106128002c2c2c2c2d2d2d2d2d2d2d2d2e2e2e2e97
:106138002e2e2e2e2f2f2f2f2f2f2f2f000117020d
:106148001d1813031e1b190b1408040d1f161c120f
:0c6158001a0a070c1511090610050f0e9d
:020000040000fa
:1061640070b582b006460d461446adf80410adf87d
:10617400062004220deb02014ff4447000f02afcc7
:106184004ff00043019304220deb02014ff44570dc
:1061940000f020fc05f003010a19d2b212f0030347
:1061a4001cbfc3f10403dbb21a44d2b2711a20201b
:0861b40000f010fc02b070bd08
:020000040000fa
:1061bc0070b5d0e90245a54217d10122a1f1200307
:1061cc00c1f1200622fa06f602fa03f333438a40a1
:1061dc00db43d6431ab10b490a6832400a605a1c99
:1061ec001fbf084a51680b4053604368ac6043f0d2
:1061fc00010223f00103e5604260c25842f0010243
:08620c00c25070bd20230020e8
:020000040000fa
:106214002de9f04781462026864001f035faf0b199
:10622400b6b204460027ba460ee06b1ca84509d056
:106234001d46e9b2204600f09fff83881e42f4d039
:106244000137bfb264685cb12389b3f5805ff9d3c9
:10625400b9f1000ff4d094f80c805546e9e7002713
:066264003846bde8f0879a
:020000040000fa
:02626a00fee74d
:020000040000fa
:10626c0000b583b020238df8043002238df805305f
:10627c008df80630c0238df8073004220deb020197
:10628c004ff4417000f0a2fb04220deb02014ff41d
:10629c004070fff725fa054b1b7823b1044b188887
:1062ac0003b05df804fbbdf80400f9e7db2900201e
:0462bc0000000020be
:020000040000fa
:1062c000124ad36823f4e0631b041b0c43f0bf6342
:1062d00043f40033d360bff35f8f62b60c4be02210
:1062e00083f80c234ff48051196083f80d234ff489
:1062f0000051196083f813234ff40021196083f8cb
:106300006b234ff40062da60704700bf00ed00e0dd
:0463100000e100e0c8
:020000040000fa
:1063140010b4134c22634278037843ea0243636364
:1063240083788288134382791ab10289134343f034
:106334004003827a0ab143f48043090301f44051d3
:106344001943c37a1b0403f4f813194341f0b00151
:10635400034b99639b6b01205df8044b704700bfae
:0463640000340042bf
:020000040000fa
:1063680038b50d460378114c636383781b0403f436
:10637800f81341780b4343f09003a363a36b4ff0ea
:106388008061284601f0b0f8bff34f8fbff36f8fdd
:10639800074b23602246d36913f4806ffbd0034a6e
:1063a800d36943f48063d361012038bd00340042cf
:0463b80002000001de
:020000040000fa
:1063bc0008b50f4b1a883ab10e4b1b8801339bb2b0
:1063cc009a4202d90b4a138008bd0a4b00221a804c
:1063dc00094b1b88002bf7d0084b1b781bb9084bbb
:1063ec0000221a70f0e71b210420fbf799f9ebe768
:1063fc004e0100200c010020100100204a01002059
:04640c004401002027
:020000040000fa
:106410001f291ad870b516460c4601460c4d224667
:10642000284601f01ef8002363550a4a13600a4a01
:1064300013600a4a13600a4b9e4202d048f20300de
:1064400070bd00f0cbfd0020fae748f20300704772
:10645000a8220020a02a00209c2a0020a42a002094
:04646000443322118e
:020000040000fa
:106464000023094a1370094a1370094a0949116043
:10647400094a0a4911600a4a0a4911600a4a0b4941
:1064840011600b4a13607047c42a0020332a00208d
:10649400e0000020b9590000d80000200d380000a9
:1064a4007c000020c16c0000e800002011640000a2
:0464b400a42a0020f6
:020000040000fa
:1064b800124b012283f8482083f8492083f84a20a8
:1064c80083f84b20772183f8341083f835104ff088
:1064d8000040c3f88000c3f8900083f8ca2083f80e
:1064e800cb2083f8d02083f8d12083f8d72002224c
:1064f80083f8df2083f8b510704700bf00800041a3
:020000040000fa
:10650800104b5b8d43b90f4b1b8d0f4a1289934279
:1065180094bf0023012300e001230a4a82f8403097
:106528000a4b5b8d43b9094b1b8d074a128993426d
:1065380094bf0023012300e00123044a82f840307d
:10654800704700bf5c020020402a0020180200208b
:020000040000fa
:1065580008b50f4b1b783bb90e4b186828b90020bb
:1065680000f090fa0b4b186008bd00f08bfa094b4d
:106578001860094b5b680bb1984201d2064b586012
:10658800064b5b680bb19842e9d2044b5860e6e7ca
:1065980049010020140000205c020020180200209d
:020000040000fa
:1065a8000c4b1b789bb90c4b1b782bb10b4bc8229f
:1065b8001a800b4b00221a800a4a0023138582f89e
:1065c8004030094a138582f84030ff207047074b56
:1065d8001888704716010020490100202201002078
:1065e8001a0100205c02002018020020120100207d
:020000040000fa
:1065f80010b503780f4c6363437843f4025343f0b8
:106608001003a363a36b4ff0806000f06dffbff32e
:106618004f8fbff36f8f084b23602246d36913f463
:10662800806ffbd0034ad36943f48063d3610120b0
:0c66380010bd00bf003400420200000151
:020000040000fa
:10664400f8b505460f4600f5802400f045ff002804
:10665400fbd1204600f072fe00f03eff0028fbd183
:1066640007f500563c46ed1b05f5802561192046cb
:1066740000f0d0f800f030ff0028fbd104f50074de
:06668400a642f3d1f8bdaf
:020000040000fa
:02668a00fee729
:020000040000fa
:10668c0070b59df8105041f2f804a0420fd185b9b5
:10669c0089b9082a11d81e4615460c46fff770fc1e
:1066ac002a460749304600f0d6fe204600e00b2073
:1066bc0070bd0520fce71120fae70f20f8e700bfba
:0466cc00582a002028
:020000040000fa
:1066d00038b50e4b186830b10021fff797f800204d
:1066e0000a4b186038bd4ff48070fcf7dffd05469b
:1066f00048b1074b04460fcb07c423802846fcf75c
:1067000065f90020eee70720ece700bfec00002071
:04671000fc22002047
:020000040000fa
:106714000c4b5b687bb10c490a681a440a600b494c
:1067240009688a420cd10a494a6813444b60064bf3
:1067340000221a6070470023054a5360024a13601e
:10674400704700bf702a0020942a0020a82a002045
:04675400602a002097
:020000040000fa
:1067580010b5054c237833b9044b13b10448aff393
:1067680000800123237010bddc29002000000000f8
:106778000000000008b5034b1bb103490348aff301
:10678800008008bd00000000e02900200000000093
:020000040000fa
:1067980002290dd0042913d0012901d00120704706
:1067a80010f0070ffbd020f00700083080b27047c8
:1067b80010f0030ff3d020f00300043080b27047cc
:1067c80010f0010febd020f00100023080b27047ca
:020000040000fa
:1067d80010b582b00c4c04e000f07cfc019ba34295
:1067e80007d001a800f01afa019bb3f1ff3ff5d1d9
:1067f800f2e700f095fa054800f052fb00f056fc6d
:10680800fef730fe02b010bd21436587b429002091
:020000040000fa
:1068180010b40d4b00221a80031f00f5fe74081aed
:106828000430c21853f8041f1160a342f9d1074b72
:106838001b8803f030031bb9044b4af203529a80b9
:1068480001205df8044b70470e2a002000400041eb
:020000040000fa
:106858000d4b01221a601a46136913f0010ffbd180
:10686800094b18221a6003221a734ef66022da6165
:1068780033229a72054a0021116001225a721a467f
:106888001369002bfcd17047003800404c2a0020c7
:020000040000fa
:106898000e4b1b68b3b11a89824204d05b688bb176
:1068a8001a898242fad119685a6801b14a6002b15c
:1068b8001160002119605960044908681989038921
:1068c800994200d07047014b1a6070471c23002082
:020000040000fa
:1068d8004572726f722053657474696e6773004ce9
:1068e8006f63616c204572726f72205265616374c8
:1068f800696f6e0053796e63204572726f72204320
:106908006f756e746572204c696d697400ff0000c4
:020000040000fa
:1069180008b50a4b00221a80094b1b781bb1094b9a
:106928005b88032b03d0084b00221a8008bd074b55
:106938001b88002bf7d1fff7b5faf4e74c010020cc
:106948005001002018020020180100203a01002000
:020000040000fa
:1069580008b50b4b1b7843b10a4b1b782bb10a4b7c
:106968001b781bb1094b1b782bb108bd2c210420c7
:10697800faf7d8fef9e71a210420faf7d3fef4e76c
:10698800490100204a01002028010020450100207b
:020000040000fa
:106998000c4a036810b5546a0b4a591e121b8a42e6
:1069a8000ad22bb1094b0c221a604ff0ff3010bdf0
:1069b800102202600020fae7173323f00f03036068
:1069c800f8e700bf74290020efffff7fbc2a0020f2
:020000040000fa
:1069d80010b584b0002301930293039302238df82a
:1069e800043006238df80630064b93f82430013b1b
:1069f8008df80f30044b5b681c69030201a8a0479f
:0c6a080004b010bdb4290020342a002086
:020000040000fa
:106a140083782bb10c4b1963838843f0200100e089
:106a240000210378084a536343780b4343f010036f
:106a34009363d36913f4806ffbd0034ad36943f49f
:0c6a44008063d3610120704700340042e1
:020000040000fa
:106a50004964656e746974790056656e646f72205e
:106a600049440050726f6475637420636f646500fd
:106a70005265766973696f6e0053657269616c2047
:0c6a80006e756d62657200ff000000bfc3
:020000040000fa
:106a8c0010b582b004460023019304224ff4116127
:106a9c000deb020000f0eafc019820b1a04238bfd7
:106aac0000f1ff30001b2cb1034b1b68834234bf39
:0c6abc00c01a002002b010bd2400002011
:020000040000fa
:106ac80038b50c4b1d880c3da94214bf0022012289
:106ad800094b1b6853b10c469847034620b947f643
:106ae800fc72ac4218bf1346184638bd4ff4004339
:0c6af800fae700bf0e020020d8000020ca
:020000040000fa
:106b040008b50d4b1b78012b08d08388c3f30323ee
:106b1400032b0bd0042b06d0022008bd8388c3f3bb
:106b24000323042b05d1fbf7d9fdf6e700f03efa69
:0c6b3400f3e70220f1e700bf4801002059
:020000040000fa
:106b40000c4ba3fb01235b0902781a4402706422f8
:106b500002fb1313dbb2084aa2fb0312d2084178ee
:106b60001144417002eb8202a3eb42033033837085
:0c6b7000704700bf1f85eb51cdcccccc92
:020000040000fa
:106b7c0010b582b004460023019304224ff4017136
:106b8c000deb0200fdf722ff01982040019000f070
:106b9c00defd04224ff401710deb0200fef762fbe7
:086bac0000f0d9fd02b010bd9c
:020000040000fa
:106bb40010b582b004460023019304224ff40171fe
:106bc4000deb0200fdf706ff01982043019000f051
:106bd400c2fd04224ff401710deb0200fef746fbe7
:086be40000f0bdfd02b010bd80
:020000040000fa
:106bec0000090138202813d9b0f5007f05d2094bd4
:106bfc0003ebd00010f8040c7047b0f5e05f06d83a
:106c0c00044b03ebd01010f8040c103070473f20ed
:086c1c00704700bf0861000091
:020000040000fa
:106c240010b584b000230193029303930b238df8d2
:106c3400043008238df80f30054b5b68dc6846f29e
:106c44000443042201460deb0200a04704b010bd2a
:046c5400342a0020be
:020000040000fa
:106c580030b583b04ff080730193c00000f6040490
:106c6800042221460deb0200fef7fefa04252a460f
:106c7800214601a8fdf7acfe019b13f0807ff6d0fa
:046c880003b030bd68
:020000040000fa
:106c8c0008b5094a00231380538093800221d180d8
:106c9c009360064a138053809380d180936004489c
:106cac0000f0e8fa08bd00bf5c0100207401002070
:046cbc006c01002047
:020000040000fa
:106cc00058b50a4b1b6883420dd316461b1a9cb25b
:106cd0008c4228bf0c46224605490144304600f04c
:106ce000c0fb204658bd0024fbe700bfa42a0020bb
:046cf000a8020020d6
:020000040000fa
:106cf40030b583b000230193c00000f604040422dd
:106d040021460deb0200fef7b1fa04252a4621467e
:106d140001a8fdf75ffe019b13f0807ff6d103b05d
:026d240030bd80
:020000040000fa
:026d2600fee786
:020000040000fa
:106d280008b504212620fff733fdc0f3470010f013
:106d3800030f05d020f003000430044b83f8210032
:106d4800024b012283f8242008bd00bfb42900208b
:020000040000fa
:106d580008b500f053fcfff7abfbfdf7e9fc00f0ca
:106d6800cdf9fef7d6fafef7abfefff771fd034942
:106d7800002000f03bfcfff79ffa08bd6c7700008d
:020000040000fa
:106d880008b5084b9b8b084a928b134313f0010fed
:106d980002d0064b1b8813b1fff7b8fc08bdfff7fc
:106da800d7fbf9e75c020020180200201001002040
:020000040000fa
:106db80000b583b00023019304224ff4a0610debca
:106dc8000200fdf705fe019b13f0c05f0cbf012216
:106dd8000022024b1a7003b05df804fb322a00202f
:020000040000fa
:106de8000a4a138852889a420ed0084a991c52f8c7
:106df800210001339bb21380d2889a4200d0704799
:106e0800024b00221a8070470020f8e77401002026
:020000040000fa
:106e18000a4a138852889a420ed0084a991c52f896
:106e2800210001339bb21380d2889a4200d0704768
:106e3800024b00221a8070470020f8e75c0100200e
:020000040000fa
:106e480070b505462c68e30701d500200fe0204601
:106e5800fff7c8fe064600f05ffa2868a042f1d1a5
:106e680020f00100281a3146fff7a4f9012070bd6f
:020000040000fa
:106e7800426822f00102531a102b30b40dd944187d
:106e880041f0010543f001034550636083504560bc
:0e6e980004f1080030bcfdf76bba30bc704747
:020000040000fa
:026ea600fee705
:020000040000fa
:106ea80000b583b00023adf804308df80630012317
:106eb8008df80430044b5b689b682722014601a8c3
:0c6ec800984703b05df804fb342a00205a
:020000040000fa
:106ed40030b400eb4004084b03eb84031b7a834279
:106ee40001d030bc7047044b4400251843f82510ea
:0c6ef40003eb85035a60f4e7242800201b
:020000040000fa
:106f000008b5084b5b7a63b1064a937a33219172d4
:106f100003f0ff002bb1044b1b6813b1024a516808
:0c6f2000984708bd003800404c2a0020b3
:020000040000fa
:106f2c0008b5074b00221a60064800f093f8034698
:106f3c0008b1184608bd044800f08cf80346f8e781
:0c6f4c001c2300202c2500200c27002016
:020000040000fa
:106f58004f7574707574732070726f6365737320e6
:106f680064617461206d617070696e670053756249
:0c6f7800496e6465782030303100ff0065
:020000040000fa
:106f8400496e707574732070726f636573732064d7
:106f9400617461206d617070696e67005375624938
:0c6fa4006e6465782030303100ff000082
:020000040000fa
:106fb00008b5c3881b0b013b072b05d8dfe803f09e
:106fc0000c060c0c0c0c0c09052006e0f9f758f91e
:0c6fd00003e0fbf7fbfc00e0042008bd20
:020000040000fa
:106fdc00064b1b784bb9054b01221a700023044a4f
:106fec001360044a1360044a13607047c42a0020db
:0c6ffc00a02a0020982a00209c2a0020d7
:020000040000fa
:1070080070b505466c68e30701d500200de0204601
:10701800fff7e8fd064600f07ff96b68a342f1d15f
:0c70280028463146fff7c6f8012070bd75
:020000040000fa
:10703400074a136843b10749184488428cbf4ff08c
:10704400ff33106018467047034b1360f3e700bf2b
:0c705400c02a0020c82c0020c82a002000
:020000040000fa
:1070600038b502894ff6ff739a420cd004461d468c
:107070002046fef7ebfd024618b928342389ab42bf
:0a708000f6d1104638bd0022fbe7f0
:020000040000fa
:10708a0010b44a88531c9bb28c889c4208bf0023c8
:10709a000c889c4207d0023241f822004b80002023
:0a70aa005df8044b70470720fae779
:020000040000fa
:1070b40000b583b000210091adf8041038238df899
:1070c4000030044b5b681b686846984703b05df862
:0870d40004fb00bf342a002078
:020000040000fa
:1070dc0000b583b000210091adf80410ff238df8aa
:1070ec000030044b5b681b686846984703b05df83a
:0870fc0004fb00bf342a002050
:020000040000fa
:10710400084b01221a6040f201625a604ff4807207
:107114009a6002221a601a46136a13f0020ffbd017
:08712400704700bf0034004277
:020000040000fa
:10712c0030b583b0064c25683db11c460092054b2a
:10713c001b882246a84703b030bd4ff40040fae745
:08714c00e00000200401002016
:020000040000fa
:1071540002460388418899420cd0991c50f82100ba
:1071640001339bb213809188994200d07047002369
:08717400138070470020f9e7c9
:020000040000fa
:10717c008389c3f30323082b05d001eb410100697c
:10718c0000eb4100704709b900697047006906308f
:02719c0070473a
:020000040000fa
:02719e00fee70a
:020000040000fa
:1071a00008b5002204491046fff794fe0022034967
:1071b0000120fff78ffe08bd4b77000053770000da
:020000040000fa
:1071c00010b5054ca3681b68002104489847a368c4
:1071d0005b68984710bd00bf342a0020a1740000ee
:020000040000fa
:1071e00008b5054b01225a61044b1b6813b1034ad1
:1071f0005068984708bd00bf0028004024280020a0
:020000040000fa
:1072000008b5054b02225a61044bdb6813b1034aef
:107210001069984708bd00bf0028004024280020be
:020000040000fa
:1072200008b5054b80225a61044b5b6d13b1034acc
:10723000906d984708bd00bf00280040242800201a
:020000040000fa
:1072400010b5064b1c682cb120896468fff724fb3d
:10725000002cf9d1014b00221a6010bd1c23002024
:020000040000fa
:1072600005000800070007002000070007002000b5
:10727000070007002000070007002000070000bfec
:020000040000fa
:1072800006494a88531c9bb2c988994208bf00230b
:107290000249023241f822004b80704774010020fd
:020000040000fa
:1072a00006494a88531c9bb2c988994208bf0023eb
:1072b0000249023241f822004b8070475c010020f5
:020000040000fa
:1072c00008b5054b1b6823b10a460449098898474d
:1072d00008bd4ff40040fbe77c00002004010020c3
:020000040000fa
:1072e00010b5044600f0d2f9034638b10289a24233
:1072f00004d05b6813b11a89a242fad1184610bdb6
:020000040000fa
:1073000000000100030007000f001f003f007f0086
:10731000ff00ff01ff03ff07ff0fff1fff3fff7f7e
:020000040000fa
:10732000064b013053f830203ab9c100a1f10802f0
:107330001a44194443f830204a6070472023002043
:020000040000fa
:10734000044b00221a80044b58614af201529a8081
:0c735000012070470e2a00200040004180
:020000040000fa
:10735c0053796e634d616e61676572203220617383
:0c736c007369676e6d656e7400ff0000b1
:020000040000fa
:1073780053796e634d616e61676572203320617366
:0c7388007369676e6d656e7400ff000095
:020000040000fa
:107394000023034a1380034a1360034a13607047af
:0c73a400f4000020f8000020fc00002095
:020000040000fa
:1073b00008b5054b186828b10021fef727fa024be3
:0c73c00000221a6008bd00bffc00002085
:020000040000fa
:1073cc0010b500f58071044c0822c9002046fdf769
:0c73dc00fdfa204610bd00bf300100206b
:020000040000fa
:1073e800044b1b78dbb2012b00d07047024b012203
:0c73f8001a70fae7c42a0020332a002093
:020000040000fa
:10740400044a136843f002031360136913f0020f74
:08741400fbd170470038004075
:020000040000fa
:10741c00044a136823f002031360136913f0020f7c
:08742c00fbd17047003800405d
:020000040000fa
:1074340008b5044b1b680bb1984708bd4ff40040d6
:08744400fbe700bfe800002097
:020000040000fa
:10744c000068002808b501da002008bdfff7ecfd44
:06745c00431cfad1f8e721
:020000040000fa
:1074620010b5431e0a44914200d110bd11f8014be0
:0674720003f8014ff7e7eb
:020000040000fa
:1074780008b5b1f5805f02d3fef70cfa08bdfdf739
:0474880017fdfbe70a
:020000040000fa
:10748c0008b5b1f5805f02d3fef766fe08bdfef7c6
:04749c008bf8fbe787
:020000040000fa
:1074a00008b5802383f31188fdf732fe002383f3b0
:0474b000118808bd7a
:020000040000fa
:1074b40008b5802383f31188fcf74cfb002383f386
:0474c400118808bd66
:020000040000fa
:1074c80008b5002202490720fff700fd08bd00bfec
:0474d800b574000087
:020000040000fa
:1074dc00034b588a80f0010000f00100704700bf98
:0474ec00004000411b
:020000040000fa
:1074f0003ab101388a1811f8013b00f8013f914276
:04750000f9d1704706
:020000040000fa
:10750400156a000069630000f9650000d15b0000a2
:047514004d5b0000cb
:020000040000fa
:1075180048617264776172652076657273696f6e0f
:04752800000000bfa0
:020000040000fa
:10752c00536f6674776172652076657273696f6ede
:04753c00000000bf8c
:020000040000fa
:1075400054696d657374616d70204f626a65637410
:0475500000ff000038
:020000040000fa
:1075540053796e63206d616e616765722074797012
:04756400650000bfff
:020000040000fa
:10756800496e7075747300436f756e74657200ffb1
:04757800000000bf50
:020000040000fa
:10757c004f75747075747300547269676765720027
:04758c00ff0000bf3d
:020000040000fa
:10759000050008000700070020003f00060010005b
:0475a0003f0000bfe9
:020000040000fa
:1075a4000023024a1360024a13807047ec00002053
:0475b400e8220020a9
:020000040000fa
:1075b8000023024a1370024a1370704744010020e6
:0475c8004a01002054
:020000040000fa
:1075cc00034b18885b88984214bf00200120704739
:0475dc005c0100202e
:020000040000fa
:1075e00008b50020fff7b8fb00f0a4f8fef796fc02
:0275f000fce7b6
:020000040000fa
:0275f2007047e0
:020000040000fa
:1075f400024b0a685a604a689a607047342a00202d
:020000040000fa
:10760400024b40f204521a80704700bf0040004110
:020000040000fa
:10761400024b4af217529a80704700bf0040004163
:020000040000fa
:107624004572726f722072656769737465720000c7
:020000040000fa
:1076340008b5024b1b6803b1984708bd74000020cd
:020000040000fa
:1076440002440346934200d1704703f8011bf9e753
:020000040000fa
:1076540003461a46013311780029fad1101a7047eb
:020000040000fa
:0e76640008b5fff7d7fb08b1fef72cfb08bdf9
:020000040000fa
:0276720070475f
:020000040000fa
:0c767400014b1860596070474c2a002040
:020000040000fa
:0c76800075760000057400001d74000009
:020000040000fa
:0c768c00014b1868704700bf1c23002051
:020000040000fa
:0c769800446576696365207479706500b4
:020000040000fa
:0c76a400446576696365206e616d6500c9
:020000040000fa
:0c76b0000500080007000700200007008c
:020000040000fa
:0c76bc0005000800070007002000070080
:020000040000fa
:0c76c8000500080007000500080007008e
:020000040000fa
:0c76d40005000800070006001000070079
:020000040000fa
:0c76e0000500080007000600100007006d
:020000040000fa
:0c76ec00050008000700070020008700d0
:020000040000fa
:0c76f800050008000700070020007f00cc
:020000040000fa
:0c77040008b508461146fff7d9fd08bd86
:020000040000fa
:0c771000014b1878704700bf332a00209e
:020000040000fa
:0c771c00014b5b6803607047602a00208e
:020000040000fa
:0c7728000268014b5a607047702a002074
:020000040000fa
:0c773400014b00221a707047182300203f
:020000040000fa
:0a77400008b5fff751fe002008bd58
:020000040000fa
:08774a0008b5fcf714fb08bdb3
:020000040000fa
:0877520008b5fff7e0f808bddf
:020000040000fa
:08775a00802383f311887047be
:020000040000fa
:08776200002383f31188704736
:020000040000fa
:02776a00704766
:020000040000fa
:08776c000475000080760000a6
:020000040000fa
:0877740007002000070000bf20
:020000040000fa
:08777c0005000800070000bf32
:020000040000fa
:087784000900a800070000bf86
:020000040000fa
:08778c0009001800070000bf0e
:020000040000fa
:0877940009001800070000bf06
:020000040000fa
:08779c001b004000bf0000bf0c
:020000040000fa
:0877a40008b5fff71ffb08bd4b
:020000040000fa
:0877ac000a00000000030010b8
:020000040000fa
:0477b4000a307047e0
:020000040000fa
:0477b80000207047f6
:020000040000fa
:0477bc0000207047f2
:020000040000fa
:0477c00000207047ee
:020000040000fa
:0477c40000207047ea
:020000040000fa
:0477c80000207047e6
:020000040000fa
:0477cc0000207047e2
:020000040000fa
:0277d000704700
:020000040000fa
:0277d2007047fe
:00000001FF
