:020000040000fa
:10000000f0ff0220d1580000676300009b650000ec
:100010000b6d0000836f00005b74000000000000a7
:100020000000000000000000000000009f5d0000d4
:100030008b6b0000000000009f5d00009f5d0000d2
:100040009f5d00009f5d00009f5d00009f5d0000c0
:100050009f5d00009f5d00009f5d00009f5d0000b0
:100060009f5d00009f5d00009f5d00009f5d0000a0
:10007000c56f0000e56f00009f5d00009f5d000000
:100080009f5d00009f5d00009f5d00000570000007
:100090009f5d00009f5d00009f5d00009f5d000070
:1000a0009f5d00009f5d00009f5d00009f5d000060
:1000b0009f5d00009f5d00009f5d00009f5d000050
:1000c0009f5d00009f5d00009f5d00009f5d000040
:1000d0009f5d00009f5d00009f5d00009f5d000030
:1000e0009f5d00009f5d0000000000000000000018
:1000f000000000009f5d00009f5d00009f5d00000c
:100100009f5d00009f5d00009f5d00009f5d0000ff
:100110009f5d00009f5d00009f5d00009f5d0000ef
:100120009f5d00009f5d00009f5d00009f5d0000df
:100130009f5d00009f5d00009f5d00009f5d0000cf
:100140009f5d00009f5d00009f5d00009f5d0000bf
:100150009f5d00009f5d00000000000000000000a7
:10016000000000000000000000000000000000008f
:10017000000000000000000000000000000000007f
:100180009f5d00009f5d00009f5d00009f5d00007f
:10019000000000009f5d00009f5d00009f5d00006b
:1001a0009f5d00009f5d00009f5d00009f5d00005f
:1001b0009f5d00009f5d00009f5d00009f5d00004f
:1001c0009f5d00009f5d00009f5d00009f5d00003f
:1001d0009f5d00009f5d00009f5d00009f5d00002f
:1001e0009f5d00009f5d00009f5d0000396d000075
:1001f0009f5d00009f5d00009f5d00009f5d00000f
:100200009f5d000000000000000000009f5d0000f6
:100210009f5d00009f5d00009f5d00009f5d0000ee
:100220009f5d00009f5d00009f5d00009f5d0000de
:100230009f5d00009f5d00009f5d00009f5d0000ce
:100240009f5d00009f5d00009f5d00009f5d0000be
:100250009f5d00009f5d00003d3400009f5d000039
:020000040000fa
:10026000f8b500bff8bc08bc9e4670471567000093
:10027000f8b500bff8bc08bc9e467047f1660000a8
:020000040000fa
:100280002de9f04f89b0b0f80890944b1e78002efd
:1002900040f0ae835ffa89f808f0e0040546202cb0
:1002a00019d009d9402c16d0602c00f0b38100275a
:1002b000bb464ff0030a06e0002c00f0ab8100279c
:1002c000bb464ff0030abaf1ff0f40f0ab81304656
:1002d00009b0bde8f08fb5f800a06f893b0203ebd1
:1002e00019239bb20393184606f0fcfe04900028e5
:1002f00000f086833a0a0592037b9a4204d90027cc
:10030000bb464ff0110a8de108f010030693024638
:100310000599039805f092fa8346402c48d0202c8a
:1003200000f09d80074600230793069b002b40f0ba
:10033000c380bbf1000f08d1694b039a1a80694b47
:10034000059a1a70684b049a1a60402c00f03181ab
:10035000069b0193079b0093049b3a4605990398db
:1003600001f0e0fc8246ff2840f05c8101235f4af7
:1003700013705f4a069911705e4a059911705e4ac2
:10038000039911805d4a17605d4a07991160049acc
:10039000116a5c4a1160514a13705b4b1d602b89d6
:1003a00023f0ff0309f0f00943ea09032b818ee7ec
:1003b000baf10a0f40f01e83431e032b44d805f107
:1003c0000c0307930023ab81eb8133460746069a63
:1003d000002a72d1002bacd001234c4a13704c4a36
:1003e00013704c4b069a1a703d4b039a1a803d4b82
:1003f000059a1a703c4b049a1a60402c0cbf5a465e
:100400003a46454b1a60454b186808b104f0eef8bf
:10041000414b1868013020f0010002f037ff3f4bdc
:100420001860002852d0402c00f08280aaf10a0700
:100430003a4605f1100106f03eff394b00221a70d2
:10044000b246384b1f603ee7374b1f88103fb8421b
:1004500000f2e38205f1100307933346b7e718f083
:10046000020f0bd0baf10a0f40f0c682c8f3810721
:10047000c7f1040705f10c03079356e7eb89af8931
:1004800007eb0347294b1b8807f110029a420dd94d
:10049000063b9a4540f0b28205f110030793aaf19a
:1004a0000a03bb422cbf0023012390e707f10a0394
:1004b0009a45f1d008260ae73346059a012a02d95f
:1004c0004ff0050aaee00122069283e7069b002b5f
:1004d00014bf4ff0050a4ff0040aa3e04b2a002096
:1004e000202300203823002034230020082300206c
:1004f000092300203c2300203a2300201823002059
:10050000f42200200423002014230020fd220020d8
:100510000a230020fc220020002300201c230020ae
:100520000b230020f82200202402002036020020a5
:10053000069b01930090049b5a460599039801f08d
:1005400085fe824650b3ff287ff47bafa44b042284
:100550001a70a44b069a1a70a34b059a1a70a34bf3
:10056000039a1a80a24bc3f800b0a24b1a68a24ba0
:100570001a60049bda69a14b1a60a14b01221a7020
:10058000a04b1d602b8923f0ff0309f0f00943ea1b
:1005900009032b819c4b60221a7098e63a46954bd2
:1005a000196805f1100006f086fe974b60221a705c
:1005b00047e7069b0193079b0093049b5a460599c6
:1005c000039801f043fe8246ff282bd1844b03227f
:1005d0001a70844b069a1a70834b059a1a70834bd3
:1005e000039a1a80824bc3f800b0834b079a1a60b3
:1005f000049bda69814b1a60814b01221a70814b8e
:100600001d602b8923f0ff0309f0f00943ea090379
:100610002b815ce67c4b1b78a3420ed00027bb46a7
:100620004ff0030a0195cdf800b0bbb208f01002fc
:100630002146504604f056f849e6002c40f042812d
:10064000724b1a7809f010039a4200f02381704b24
:100650001b8808f010026d490a70664a116800296b
:1006600000f02d81093b9bb26a4a10686a4a126801
:10067000121a19f0010f18d09a4200f2cb812b8880
:10068000033b9a4200f2c6816fea690707f0070749
:10069000ba4205d0072a40f2bd819a4240f0ba81a1
:1006a0005e4b00271f70174608e05c4f4ff0010caf
:1006b00087f800c01f469a4240f2ac8110f0010f4b
:1006c0006ed1430868894fea192242ea002221f8d4
:1006d000132007f1010c4fea5c0cbcf1010f1bd990
:1006e00001200346dff82c91dff808e105eb430b0e
:1006f000d9f8002000eb5201def80000bbf808a09a
:10070000bbf80a20120242ea1a2220f81120013313
:100710009bb218466345e9d3404b93f80090b9f17a
:10072000000f1fd13e4b1b780193324b1b68009387
:100730003c4b1b68384a12683b4909783b480088a3
:1007400001f0f0fa8246ff2872d0dff8a890d9f8bd
:10075000000003f04bff0023c9f80030baf1000f8e
:1007600040f09a800a232b7000236b70eb88c3f350
:100770000b0343f44053eb80244b1b78002b14bf36
:10078000302320232b81254b1b78012b7ad000238b
:10079000204a13601c4a1370a2461f469b4641e73d
:1007a000430811f8132021f8132012491948026850
:1007b0005208d1f800c02b8923f0ff033cf812e067
:1007c00043ea0e032cf81230036823f001030233ce
:1007d00008687a1e05f10a01184406f06cfd9be7d3
:1007e00008230020092300203c2300203a23002076
:1007f000182300201c230020f422002004230020c2
:100800004b2a0020142300200b2300200a23002061
:1008100036020020f822002000230020fd220020c4
:10082000fc22002034230020382300202023002035
:100830007c4b02221a707c4b1a787c4b1a707c4bd2
:100840001a787c4b1a707c4b1a887c4b1a807c4b34
:100850001a687c4b1a607c4b1a687c4b1a607c4b84
:100860001b681a6a7b4b1a607b4b01221a707b4b08
:100870001d6000237a4a13707a4a13707a4a136013
:100880004e4624e5784a13683b441360a24600278d
:10089000bb46c7e64ff0010a0023714a1370714a44
:1008a0001370694b186820b103f0a0fe664b00225c
:1008b0001a6000236c4a13601f469b4603e54ff005
:1008c000030ae9e72f7a07f01007684b1b78bb4251
:1008d00000f09b80664b1b88093b9bb2634a1770f4
:1008e0009a46614a1168564a12680b44934286bf81
:1008f000a2eb010ab3464ff0010b594b83f800b04d
:100900005ffa89f9a5f8089011f0010245d149086c
:100910004d4b186830f8113049ea0329a5f80890c2
:100920005fea5a0e13d000230a4400eb420cbcf8d5
:10093000029030f81220120a05eb430c42ea092219
:10094000acf80a2001339bb21a469e45ecd8eb88de
:10095000c3f30b0343f44053eb802b8903f47f4331
:10096000bbf1000f2ed01f432f81baf1060f2dd8f7
:100970000a232b7000236b70caf1070347ea430771
:100980002f81374b1b78012b24d1374a13685344ee
:100990001360b2460027bb4644e62b4b1a68490851
:1009a00032f8113023f0ff0343ea0909a5f8089053
:1009b00002eb41010af1ff32023105f10a0006f0b3
:1009c0007afcc4e747f001071f43cde70af10303b0
:1009d0002b80d6e71c4f386803f008fe00233b60ed
:1009e000214a13601f4a1370b2461f469b4619e600
:1009f00009266ce408266ae4082668e4082666e40a
:100a00000027bb464ff0080a0ce60027bb464ff014
:100a1000010a07e64ff00e0a3ee701230022079283
:100a2000d5e400bf08230020fc2200200923002079
:100a3000382300203c230020202300203a230020dc
:100a400000230020182300201c230020f422002073
:100a500034230020042300204b2a002014230020ec
:100a6000fd2200200b230020f82200200a23002072
:040a7000240200203c
:020000040000fa
:100a7400f0b585b00023029301938c4a94898c4a83
:100a840095898c4a13808c4a1370022006f0acfbc3
:100a940002688a4b1a80436803f00203002b0cbfe0
:100aa40003260126032006f09ffb0368844a138073
:100ab400426802f00202002a0cbf032201229bb208
:100ac4008049b1f800c00cfb02327f4909888a4290
:100ad40004dd7e4800880844834277db7c48008834
:100ae400824204dd7b4a1288024493426edb734add
:100af4001788794a128806fb0272914204da734e0f
:100b0400368831448f4267db904204da71490988a0
:100b14000844874260db934202da63449f425bdb12
:100b240004224ff4186103a804f03afebdf80c3017
:100b3400039304224ff41a6102a804f031fe042244
:100b440040f6a4110deb020004f02afe019e574b5f
:100b54005b88574a5188039a12f4106f00f0f681ab
:100b640012f4007f00f09d812c400ad014f0040f91
:100b740000f0998114f0080f03d112f4806f40f053
:100b84009481029840b1494d2d69a842c0f08f81eb
:100b9400524da84200f28d8102f4c065b5f5c06fd4
:100ba40021d000204e4c2478002c40f031824a4b56
:100bb4001b88002b00f06b82002840f0b781414b6a
:100bc4001988002900f03382022363e20221032002
:100bd40003f08efc1e2004e00221084603f088fc8a
:100be4001d2005b0f0bd002e00f0ac818642c0f09f
:100bf400ab8114f0100f00f05e810120d2e7022bcc
:100c040000f06381022900f06281032b40f0ac8183
:100c140034e2314b1b8833b12a4b1988002940f048
:100c240082810123a0e1274a1188003118bf0121e4
:100c34009ae1032122e241ea030292b2002a40f03f
:100c44000482284b1b78002b40f0dc811346911e54
:100c540089b2012950d915494b80154b5a8000237c
:100c6400214a1380214a1380214a138001285fd12d
:100c7400029bf1189e42c0f0c080b1fbf3f082b237
:100c840003fb1013002b40f04181511c174b1980ba
:100c9400184b1a804fe0074a4ff4806414809a1e60
:100ca40092b2012a40f23a810a46d0e78402002037
:100cb400400200204e0100206c010020440100206d
:100cc40080010020660100202e0200202402002062
:100cd4001c0200203602002038010020000050c30e
:100ce400c802002079010020400100206801002092
:100cf4007c01002062010020a04901240c70a0495d
:100d0400098811b99f4900240c809f494b809f4951
:100d14004a8000219e4c21809e4c21809e4c218043
:100d24009e4c21800128a3d0022b76d0032a02d026
:100d3400974b01221a800023994a138000930422be
:100d44004ff48461684604f02bfd009c8c4b1b8897
:100d540013b1a3b2002b64d1924b00221a80924ba0
:100d64001b78002b40f0b780904b1b783bb1844b31
:100d74001b8823b1834a138843f4806313800023c0
:100d84008b4a13808b4a13808b4a13808b4a1380bf
:100d94008b4a13708b4a13708b4a13807b4a1385da
:100da400538582f84030784a1385538582f8403061
:100db400039b13f4007f14d00299002900f08d8066
:100dc400824a914255d87a4a0120108013f4806fe8
:100dd40007d0019b994240f28480754b1a88774b67
:100de4001a80674b1b88002b53d1794b1b88002b2f
:100df40053d105f003f90020f3e6674a012010807f
:100e0400b1fbf3f082b2624c228003fb1013002b7f
:100e140091d001325e4b1a808de75f4b012119801e
:100e240084e70023009304224ff48061684604f0b1
:100e3400b7fc009b9ab2002a00f0d8800232a3b219
:100e440046f2a71402fb0343db08624aa2fb032316
:100e5400c3f30f23534a13805f4a00211180002bf0
:100e64003ff47daf504b1b78002b7ff47daf1f20e8
:100e7400b7e64a095948a0fb0202d209520092b2cd
:100e84005748a0fb0202d208494802809ee701238a
:100e940035e0022005f05efea7e7032005f05afec8
:100ea400a7e730209de630209be6302099e63620e7
:100eb40097e6362095e6302093e6302091e6302000
:100ec4008fe630208de630208be6302089e6302016
:100ed40087e6292085e61f2083e613f4806f80d0ff
:100ee400019b0b44394a9342d1d95b093b4aa2fb8b
:100ef4000323db095b003a4aa2fb0323db082c4ae9
:100f0400128803eb52032d4a13806ae7224b1a809e
:100f14007fe71a4a012414700a46f3e6174a0124ab
:100f240014700a46f1e6222101231de0284b19889a
:100f3400002900f0a38012f4806f7ff47aae0221be
:100f4400032399e000202de600202be6254a1078a3
:100f540000283ff45eae9a1e92b2012aadd98a1ed1
:100f640092b2012aabd900201f4a1278002a7ff4da
:100f740062ae002b66d1292033e600bf7101002048
:100f8400380100204e01002084020020400200208d
:100f94006201002040010020680100207c01002043
:100fa400cc020020760100207a0100207901002083
:100fb400460100203c010020740100204c01002067
:100fc400500100206d0100204a0100201fa10700ec
:100fd4006601002089b5f81434010020c55a7c0a42
:100fe400cdccccccc80200203001002000232d4af7
:100ff40013802d4a1380b2e62c4b4ff48061198084
:10100400134624e62a4b19880029f5d10b4624e01f
:1010140012f4806f30d1032b3ff453af03293ff414
:1010240052af12f4007f3ff4eaad022b9cd1029b35
:10103400204a53625360204a5362536002231f4a7a
:10104400127812b900293ff444af1d4a01241470e8
:10105400174a1288002a7ff41eae1a4a12881ab15f
:10106400124a4ff4006414809a1e92b2012a7ff649
:1010740050af0a46ebe50221032bd6d1029b0d4a61
:10108400536253600c4a536253600323d7e70d49fc
:10109400098821b112f4806fedd00321c5e70b4616
:1010a40062e700bf76010020340100204e010020d9
:1010b400380100208402002040020020300100207a
:0810c400790100206601002003
:020000040000fa
:1010cc005c2900201c00000000000000c129002049
:1010dc0001000000000000000000002002000000e1
:1010ec0000000000a42900201000000000000000f7
:1010fc004c280020c0000000000000008e290020b9
:10110c000200000000000000c229002001000000c5
:10111c000000000004000020280000000000000077
:10112c00d02900200800000000000000442300200b
:10113c000400000000000000062a0020020000004d
:10114c0000000000d829002008000000000000006a
:10115c0034270020180100000100000000000000ee
:10116c000000000001162100010900003c75000080
:10117c00906d0000f8290020000000000000000025
:10118c00000000000000000000000000001a210018
:10119c000109000048750000bc6d0000e829002022
:1011ac000000000000000000000000000000000033
:1011bc0000000000121c0600010800006075000011
:1011cc007c710000302a00200000000000000000ac
:1011dc00000000000000000000000000131c0600ce
:1011ec00010800006c75000098710000342a002082
:1011fc0000000000000000000000000000000000e3
:10120c000000000000602a00010900007875000051
:10121c00d0730000e0290020000000000000000056
:10122c0000000000000000000000000010702a0008
:10123c000109000084750000e4730000f02900200f
:10124c000000000000000000000000000000000092
:10125c0000000000ffff0000000000000000000084
:10126c000000000000000000000000000000000072
:10127c000000000054250020e001000001000000e7
:10128c000000000000000000001007000007000034
:10129c000076000024750000102a002000000000d9
:1012ac000000000000000000000000000000000032
:1012bc000110050000070000087600008c74000087
:1012cc00062a0020000000000000000000000000c2
:1012dc0000000000000000000810090000070000da
:1012ec001076000030750000782900200000000006
:1012fc0000000000000000000000000000000000e2
:10130c000910090000070000187600008073000027
:10131c00082a00200000000000000000000000006f
:10132c0000000000000000000a1009000007000087
:10133c0020760000947300000c2a002000000000ae
:10134c000000000000000000000000000000000091
:10135c00181023000409000064700000b06800003d
:10136c009029002000000000000000000000000098
:10137c000000000000000000f1102a00020900002b
:10138c00f8730000b0670000c429002000000000c2
:10139c000000000000000000000000000000000041
:1013ac00f8101b000007000028760000a87300004e
:1013bc00d829002025660000000000000000000075
:1013cc000000000000000000001c050004080000e4
:1013dc0054750000bc730000002a002000000000bf
:1013ec0000000000000000000000000000000000f1
:1013fc00321c2900200900000c520000f4400000af
:10140c00840200200000000000000000000000002a
:10141c000000000000000000331c2900200900001f
:10142c000c520000f44100004002002000000000bb
:10143c0000000000000000000000000000000000a0
:10144c00ffff000000000000000000000000000092
:10145c000000000000000000000000000000000080
:10146c0078290020160000000100000053414d4572
:10147c00353320457468657243415420536c617652
:10148c0065000000082a0020040000000100000094
:10149c00312e30000c2a0020040000000100000056
:1014ac00322e3000902900201400000001000000b2
:1014bc0004000000d80400e0559200000100000078
:1014cc0001000000002a00200600000001000000be
:1014dc000400020104030000102a00200400000094
:1014ec0001000000891300002c00002008000000ff
:1014fc0000000000c32900200100000000000000d3
:10150c0034000020e0000000000000001401002066
:10151c00040000000000000018010020160000006c
:10152c0000000000482a002001000000000000001c
:10153c00142a0020040000000000000030010020ec
:10154c005200000000000000840100202800000070
:10155c0000000000ac01002094000000000000001e
:10156c00b42900200d0000000100000053756249f1
:10157c006e6465782030303000000000c4290020f3
:10158c000c0000000100000002000000010000003f
:10159c0004000000400200208e000000000000004b
:1015ac00492a002001000000000000004a2a002007
:1015bc000100000000000000182a002004000000b8
:1015cc00000000001c2a00200400000000000000a5
:1015dc00202a00200400000000000000242a002023
:1015ec000400000000000000282a00200400000075
:1015fc0000000000e02900200800000001000000ad
:10160c000100000000000000e82900200800000094
:10161c00010000000100000020010060f029002002
:10162c0008000000010000000100000000000000a4
:10163c00f829002008000000010000000100000053
:10164c00200110702c2a0020040000000100000072
:10165c0001000000302a00200400000001000000fe
:10166c0001000116342a00200400000001000000d3
:10167c000100001ad0020020202000000000000011
:10168c004b2a00200100000000000000f022002086
:10169c004d0000000000000040230020010000006d
:1016ac0000000000382a00200400000000000000a8
:1016bc000c290020500000000000000048230020ee
:1016cc000c020000000000003c2a00200400000076
:1016dc0000000000402a0020040000000000000070
:1016ec00442a00200400000000000000000000005c
:1016fc000000000022222222222222222222222246
:020000040000fa
:10170c002de9f0419b4b4ff6ff721a809a4b012248
:10171c001a7010f0100723d0984a137823f0100396
:10172c00137001270e4600f00f05944b1c7805eb47
:10173c00041404f0ff04442c00f0ba8000f2ad80d5
:10174c00222c00f0a4801ad9242c40f09d808c49c6
:10175c008c4802f0bdfb8046002840f0b380a7e027
:10176c00864b1b7813f0100f04d000f00f02012ae7
:10177c0040f0ad8203f00f03804a1370d2e7122cb5
:10178c0000f08580804b00221a80a4f11103772b86
:10179c0000f25e82dfe813f0c5011601b7002802e3
:1017ac005c025c025c0228025c025c025c025c0271
:1017bc005c025c025c025c02af01c80128023a01c7
:1017cc005c025c025c0228025c025c025c025c0251
:1017dc005c025c025c025c02000128025c022802d2
:1017ec005c025c025c0228025c025c025c025c0231
:1017fc005c025c025c025c02a3018e012802c8013f
:10180c005c025c025c025c015c025c025c025c02dd
:10181c005c025c025c025c025c025c025c025c02cc
:10182c005c025c025c025c025c025c025c025c02bc
:10183c005c025c025c025c025c025c025c025c02ac
:10184c005c025c025c025c025c025c025c025c029c
:10185c005c025c025c025c025c025c025c025c028c
:10186c005c025c025c025c025c025c025c025c027c
:10187c005c025c025c025c02980183012802790123
:10188c005c025c025c02c801422c7ff47baf02203c
:10189c0001f000fc1ffa80f810e0822cf7d004d97c
:1018ac00842c05d0882c03d06ce7482c7ff46aafcd
:1018bc00364b187801f0eefb1ffa80f8b8f1000fe8
:1018cc003ff460af2d4b1b78042b00f05181082b9b
:1018dc0000f04a81022b00f04f81b8f1ff0f00f0ad
:1018ec006081264b187800f00f039d4200f09e811a
:1018fc00b8f1000f40f0d681002e40f09d811f4bb7
:10190c001d70b046dbe1224b01221a70022001f05f
:10191c00c1fb28b11e4b00221a704ff01508bbe119
:10192c00002005f071f803f0e5fd804678b1b8f1c0
:10193c00ff0f00f0db81104b1b78bbb102f02af9d2
:10194c00032005f052fe124b00221a70c9e70a4b15
:10195c0000221a7005f076fe80460028e7d10d4b68
:10196c0001221a70032005f040febae705f028feac
:10197c00e4e700bf6e010020360100203701002093
:10198c003801002066010020320100207e01002079
:10199c00700100201a020020af4b1b783bb94ff0ae
:1019ac00000805f059fead4b00221a70ace0002087
:1019bc00a94b187005f028f802f0ecf805f000fec1
:1019cc008046eee705f024f9a54b1b78002b00f0c0
:1019dc003a8103f08ffd804648b1b8f1ff0f00f05b
:1019ec007881a04b1b7873b102f0d4f879e79d4b4a
:1019fc0000221a7005f026fe80460028edd19a4b85
:101a0c0001221a706de705f0dbfdede7fff72cf80e
:101a1c00804648b1b8f1ff0f00f06281914b1b7802
:101a2c009bb103f013f95ce78e4b00221a708f48c0
:101a3c0005f00afe80460028ecd18c4b188804f087
:101a4c00ffff8b4b01221a704be705f0fffde8e717
:101a5c0004f052fd804648b1b8f1ff0f00f0408110
:101a6c00804b1b7873b105f0d5fc3ae77d4b002217
:101a7c001a7005f0edfd80460028edd17d4b01225a
:101a8c001a702ee705f0e6fdede705f0e3fd05f035
:101a9c00c1fc4ff00008734b83f8008021e705f080
:101aac00d9fd804605f0b6fc6e4b00221a70b8f1d9
:101abc00000f29d105f0cafd03f0c8f84ff000085b
:101acc00684b83f800800ce705f0c4fd804605f0f8
:101adc00a1fc644b00221a70b8f1000f14d105f070
:101aec00b5fd804603f0b2f85e4b00221a70b8f1d7
:101afc00000f40f0ab8002f04df805f061fd804620
:101b0c00564b00221a702124b8f1ff0f7ff4e9ae76
:101b1c00594b01221a70594b1c80594bc8221a8000
:101b2c004fe04e4b00221a7077b9564b1b7813f0ce
:101b3c000c0f00f0af80544b1b884bb9534b1b88d8
:101b4c0063b94ff0fe08a7e0204605f086fdece7f0
:101b5c00022004f0fbff4ff0fe089de0032004f090
:101b6c00f5ff4ff0fe0897e005f074fd05f052fc10
:101b7c0005f06cfd03f06af8b8f1160f03d0414b79
:101b8c0002221a70a9e602f005f805f019fd0020f2
:101b9c0004f08eff012004f08bff3a4b01221a70e7
:101bac009fe6354b01221a70344b1c80242c16d026
:101bbc0013d8123ce4b29442afd8314b4ff4fa62d2
:101bcc001a802f48b0f90030314981fb0321da1714
:101bdc00c2eba1029b1a038079e0482c9dd1284bc3
:101bec0042f228321a80ece74ff0110879e6214bcb
:101bfc001b7853b9244b1b8863b9244b1b886bb9d6
:101c0c00b8f1000f52d1deb979e605f023fd05f0ed
:101c1c0001fcefe7022004f04bfff1e7032004f096
:101c2c0047ffede7174b04221a7043e00021124bdb
:101c3c00197002f03bf84ae0284310f0080fd6d197
:101c4c0045f010055be64ff051084ae641245be78e
:101c5c004ff0120820e000bf70010020c8020020e5
:101c6c00482a0020360100201a0200204e010020d4
:101c7c007801002072010020640100203201002054
:101c8c006e01002037010020380100206601002081
:101c9c00676666664ff0fe081b4b187800f00f0362
:101cac00ab42c3d0284310f0080fa0d1164b1b78c1
:101cbc00082bb7d0144a137843f010031370134b4e
:101ccc0000221a704146104b187801f0efffbde866
:101cdc00f0810e4b01221a700d4b12221a806ce708
:101cec000a4b01221a700a4b1c8078e7032005f07e
:101cfc007cfc084b00221a70044b01221a70044b16
:101d0c0013221a8059e700bf37010020640100201c
:081d1c003201002070010020db
:020000040000fa
:101d24002de9f04f8bb004900c4616461d46ddf8a5
:101d340050809df854b01ffa81fa9b89c3f30322a3
:101d44000692d9b20591072a00f04182ab6993f853
:101d54000090b9f1000f40f05982a0f5e053103b18
:101d64009bb21f2b40f25082a0f5b0539bb2b3f547
:101d7400007fc0f05682a0f5d0539bb2b3f5007f2c
:101d8400c0f052824ff23003984208bf89463de2c8
:101d940074b3d146049aa2f5e053103b9bb21f2bb7
:101da40012d9a2f5b0539bb2b3f5007f0cd3a2f5c0
:101db400d0539bb2b3f5007f06d34ff230039a425f
:101dc40002d00023089305e0ab691b78003318bfe9
:101dd400012308932f6a77b1cdf800b04346324609
:101de40021460498b847039003980bb0bde8f08fe0
:101df400d1460894eee7002e00f0aa81ca4500f20d
:101e0400aa8154460723039300230793049ba3f555
:101e1400e053103b9bb2099337e1102a44d0202aa7
:101e240040f060811ee0022b18d81bb2002b40f05a
:101e3400b280bbf1000f00f097817b8813f00f0f85
:101e440005d0184410f00f0f08bf08f10208c3f3bf
:101e5400031308eb43080123079311e1032b23d059
:101e6400042b1cd110f00f0f40f08a81089b5bb14a
:101e74003288b8f800309a4240f085817288b8f808
:101e840002309a4240f08281b8f800303380b8f8ca
:101e94000230738008f1040801230793f0e018234b
:101ea4000393a1e7072bddd210f00f0f40f06281fe
:101eb400b8f80070089b1bb13388bb4240f05d81c9
:101ec400099b1f2b00f29380a7f5b0539bb2b3f587
:101ed400007fc0f09780a7f5d0539bb2b3f5007f85
:101ee400c0f09080002f00f08d80122303937be7d5
:101ef4000b2b00f2368110f00f0f40f050817a88de
:101f04000732d2104146304605f0d3f97b881b09cd
:101f140008eb430801230793b2e02d2b3bd026d8ce
:101f24001e2b38d01bd8152b01d01b2b14d110f02d
:101f34000f0f40f02e81b8f800303380b8f802302b
:101f44007380b8f80430b380b8f80630f38008f131
:101f540008080123079393e01823039344e71f2bf6
:101f6400a2d0202b3ff47eaf182303933ce7372bfa
:101f740009d8302b0fd22e2b96d02f2b3ff472afd3
:101f84001823039330e7a3f518739bb2032bb2d93c
:101f94001823039328e77a88a54b33f8122000f01e
:101fa4000f0c02fa0cf1338823ea01031bb2bbf1d4
:101fb400000f10d09bb2b8f8002011400b433380bf
:101fc4007b88184410f00f0f40f0b28008f102082b
:101fd4000123079354e0b8f8001031ea020e40f0f0
:101fe400c6800a4002fa0cf213439bb2e7e7049b53
:101ff400a3f5e153123b9bb2012b03d8012c07d06c
:10200400082c14d0378008f102080123079337e025
:102014003388bb4207d03946049801f06dfb039026
:1020240000287ff4e1ae834b01221a70eae7824a6a
:1020340000235361814911615360814a53611161e5
:10204400536017f0020fddd07b4a5385138582f865
:1020540040307b4a5385138582f84030d2e7002c08
:1020640061d07b8813f00f0f05d0184410f00f0fc8
:1020740008bf08f102081b0908eb4308182303935f
:10208400631c9bb24c4556d01c46e6b231462846ea
:1020940004f064ff07462946304603f04ff8ba8837
:1020a400684b1b7803ea920313f00e0fd7d0ae6986
:1020b400002c7ad0c0f30f1306eb4306a24506d0da
:1020c400bbf1000fdcd0a245dad8002c70d03b88dd
:1020d400b3f5e06f06d37a88082a3ff69eae02f184
:1020e4002f039bb2112b3ff422af3ff616af052b03
:1020f4003ff451af7ff697ae082b7ff6d3ae092b92
:102104007ff4f6ae10f00f0f46d17a880732d21062
:102114004146304605f0cdf87b881b0908eb43089f
:1021240001230793ace708f1020818230393a7e7f8
:1021340001230793a4e7079b002b039b18bf0023ed
:10214400039351e6112303934ee61a2303934be6bc
:102154000023039348e60723039345e613230393dd
:1021640042e6182303933fe6182303933ce6122325
:10217400039339e60523039336e61c23039333e6de
:102184000523039330e61c2303932de61c230393ba
:102194002ae60523039327e60523039324e6052370
:1021a400039321e6052303931ee6baf1000f87d1ba
:1021b400069b072b8bd0b8f80030dab20599914210
:1021c400ccd3338008f102080123079358e7bbf10d
:1021d400000fe7d14ff00009ca45b3d8214628467d
:1021e40004f0bcfe8288174b1b7803ea920313f0b9
:1021f4000e0f7ff4cdad12f0380fa6d1002a0cbf1c
:10220400052307230393efe5ddf81490bbf1000fda
:10221400e2d0002c7ff4bead0eb198f80090089483
:10222400d8e5ddf81490f1e7ddf81490eee700bf8f
:1022340004710000c802002084020020a08601006e
:082244004002002037010020d8
:020000040000fa
:10224c002de9f04f89b08046049114460293129dfb
:10225c009df84ca01ffa81f919469b89c3f3032200
:10226c000792dbb20693072a00f06d81b0f5805f10
:10227c00c0f063818b6993f800b0baf1000f10d0f5
:10228c00cdf818b0029bde6986b1cdf800a02b46c4
:10229c00224604994046b0470390039809b0bde824
:1022ac00f08fcdf818b051e1cb46ebe7b8f5805f75
:1022bc0004d2049b83b903934c4605e0cb4508d369
:1022cc004c460023039304930027cdf814a0c24678
:1022dc00cee100230393e0e7049e3146029c2046a6
:1022ec0004f038fe42880732d21006f180410139e1
:1022fc00a36953f8211011f0010f22d094b221f0f0
:10230c0001026608012c0dd9002113881b0a2b80b1
:10231c0032f8020f43ea002325f8023b01318bb25d
:10232c00b342f2d314f0010f00f0ec802b8803f4cd
:10233c007f432b80128843ea12232b8000230393c4
:10234c00abe70b882b804b886b80043a0431281d3b
:10235c0004f0abff002303939fe7079b072b00f0d0
:10236c002781069b25f8023b7de1bcf1100f34d090
:10237c00bcf1200f40f02f811de0022b17d81bb2af
:10238c00002b40f08580059b002b00f0c1807388ea
:10239c0013f00f0f04d0984418f00f0f08bf02353c
:1023ac00c3f3031305eb4305012304935be1032bf8
:1023bc0013d0042b0cd118f00f0f40f0af8032f873
:1023cc0010302b804b886b800435012304934ae139
:1023dc001823039361e7072bedd218f00f0f40f091
:1023ec009a8032f8103025f8023b012304933ae12d
:1023fc000b2b00f28a8018f00f0f40f0958072883a
:10240c000732d210284604f050ff73881a0905ebe6
:10241c00420513f00f0f62d02b782b80012304930d
:10242c0021e12d2b34d020d81e2b31d016d8152bd2
:10243c0001d01b2b0fd118f00f0f72d132f81030c6
:10244c002b804b886b808b88ab80cb88eb800835de
:10245c000123049307e1182303931ee71f2bbcd021
:10246c00202ba8d01823039317e7372b08d8302b31
:10247c000ed22e2bb1d02f2b9dd0182303930ce70b
:10248c00a3f518739bb2032bb5d91823039304e758
:10249c0008f00f0c7388854931f8133003fa0cf3ec
:1024ac009bb232f81000bcf1000f00d12f802a88ab
:1024bc00059959b1034013432b807388984418f045
:1024cc000f0f09d1023501230493cce0034043faea
:1024dc000cf313439bb2efe701230493c3e00123f6
:1024ec000493c0e001230493bde0049b002b039be9
:1024fc0018bf00230393d0e611230393cde60523e5
:10250c000393cae600230393c7e618230393c4e698
:10251c0018230393c1e605230393bee60523039317
:10252c00bbe605230393b8e605230393b5e6052321
:10253c000393b2e605230393afe6baf1000f05d07f
:10254c0005230393a9e6baf1000ff3d1069b4b4583
:10255c00d2d30499029804f0fdfc8388002bced0d2
:10256c00534a127802ea430212f00e0f7ff49cae2b
:10257c0003f00703002b0cbf06231a2303938ce6ee
:10258c00e1b2029804f0e6fc06468288484b1b78c0
:10259c0003ea420313f00e0f43d0b846a14504d012
:1025ac00059b002b5fd0a1455dd8002c3ff4d5ae28
:1025bc00029b9a69c8f30f1002eb40013388b3f504
:1025cc00e06f08d3b6f802c0bcf1080f3ff6cdaef1
:1025dc000cf12f039bb2112b3ff42daf3ff621af23
:1025ec00052b3ff455af7ff6c8ae082b7ff6f3ae44
:1025fc00092b7ff4fdae18f00f0f98d172880732bb
:10260c00d210284604f051fe73881a0905eb4205d6
:10261c0013f00f0f3ff466af2b782b80012304933c
:10262c0021e0b8462f80738813f00f0f05d0984423
:10263c0018f00f0f04bf6f800235738813f0f00f82
:10264c0009d03b4625f8027f0133dbb27288c2f316
:10265c0003129342f6dbb38803f00703002b0cbf85
:10266c0006231a2303930134a4b2a345fff43daf10
:10267c00002c85d0baf5805f82d3e6b20299304641
:10268c0002f058fd80463146029804f063fc064681
:10269c008288074b1b7803ea420313f00e0f7ff47a
:1026ac007daf18f00f0fbed1bce700bf0471000066
:0426bc0037010020c2
:020000040000fa
:1026c00038b50388052b40f25b81991f89b2044617
:1026d000c388013b052b00f2e880dfe803f0032dff
:1026e0004662acbba94b1b8813b148f2040363e0fc
:1026f0000c306289238943ea0243024604f0f6fb68
:102700000346a34a0021116047f69572904205d80e
:10271000a04a01211160a04a1060b0e047f6fa72a9
:10272000904200f2f18000229a490a609a490a60b8
:10273000964a01211180bee0944b1b8813b148f2e8
:10274000040339e04289038943ea02420c3004f071
:102750009bfd034628b98f4b00221a6047f6fd7394
:10276000d9e08c4a0021116085e0884b1b8823f05a
:1027700004039bb2022b02d048f204031ce04289fe
:10278000038943ea0243834a12689a4202d048f21c
:10279000050311e00c3004f0c7f803460028ddd033
:1027a00069e07a4b1a88012a30d047f6fe7148f268
:1027b0000403042a08bf0b4613f4004f00f0c38043
:1027c00000220521a171e2712381a272e272062327
:1027d0002370627004f10c01a38913f0ff0f00f065
:1027e000d18013f47f4f00f0cf8002235a0831f8d4
:1027f000122012f0ff0f00f0b28012f47f4f00f0b1
:10280000aa800233dbb2202bf0d1aae0624d00f1a6
:102810000c01286804f056fc03462a685c490a60eb
:1028200047f69571884242d802442a6059490a689d
:1028300001320a6023e0554b1b8813b948f20403a8
:10284000bae74089238943ea004004f027fe47f6af
:10285000ff73b1e74d4b1b88012b04d0042b02d032
:1028600048f20403a8e704f10c02494b19682089d7
:1028700004f08efe034647f69572934217d8454af8
:1028800012680321a1710021e1712281c2f30f427c
:1028900062819a1d2280414a12880c3a93423b4b36
:1028a0000cbf012204221a8011e048f2040347f60b
:1028b000fa72934228d800220621a171e271a3f591
:1028c000ff43163b2381a272e27221706270344b87
:1028d0001d78002d49d0a388c3f30b03a380314a90
:1028e000127812f0070f02d12e4a012111702d49e2
:1028f0000a7843ea0233a38001320a70204602f0cc
:1029000051fb0023184638bda3f5ff427c3a92b232
:10291000012a3ff651af1f490a68501c0860002188
:102920000420a071e1712281c2f30f42628106226c
:102930002270617047f6fd729342144b0cbf022265
:1029400000221a80c3e70025104b1d80204601f0ad
:102950004dfe2b46d6e70133dbb21f2b01d80733e0
:1029600023800a4b00221a80b1e74021204602f062
:10297000f7ff03460028c5d00b4b1c602b46c1e770
:102980000623bfe70023eae70123e8e71c01002054
:10299000280100202001002018010020240200202e
:0c29a00070010020ac0100202401002088
:020000040000fa
:1029ac00f0b585b0044600238df80f30058905f08d
:1029bc007f05052d0fd00388072b40f23c81032d9a
:1029cc000dd0052d0bd0012d40f010818389052be6
:1029dc0010d9022122e10388092b40f22a81a38914
:1029ec0098b2adf80c30b0f5805f77d205238df836
:1029fc000f30fee0924d00686168a26807c5a2899d
:102a0c002a8013f0ff030ed100258e4b1d8004f19c
:102a1c000c06e8b203f076fc26f8020f0135052d02
:102a2c00f7d1122022e0013bddb2864b1988002938
:102a3c0035d0854b1a880c3a92b204f10c038348ba
:102a4c000088adf80c0001397e4801800df10f01b2
:102a5c00009103a9284602f0f9fd7c4bbdf80c202f
:102a6c001a80794b1b88063b181a80b220809df87f
:102a7c000f30002b40f0bd80238923f07f0242f001
:102a8c00020222816f4a12886281002a00f0d580ee
:102a9c0023f0ff0343f0820323818221bee028460a
:102aac0003f030fc4ff48053adf80c30664b1988b2
:102abc00a1f10e0292b204f10e034000904209dd26
:102acc000c398eb2811a701e014491fbf6f15d48ef
:102adc000180bbe75b4900200880b7e704f0fcfaf3
:102aec00064600287ed0032d0bd0e789ffb204f0f8
:102afc00a5fd4388dbb29f4232d911238df80f30ec
:102b0c0077e004f09bfd0368c4f80e3000233246d6
:102b1c001946bdf80c0001f045ff4b4b1b88053bdb
:102b2c000c3080b283420fdc0c229df80f30002b4e
:102b3c005fd1a372e3722280238923f07f030135d6
:102b4c001d432581022169e004f112033246002164
:102b5c00bdf80c0001f026ff00f10c0292b2e4e784
:102b6c003946304604f0f6f9036823618388a38262
:102b7c00e389dbb2e381304604f060fd4388c3f3a4
:102b8c000323083b9bb2012b0fd877b9304a166848
:102b9c0050689168c4f81660c4f81a00c4f81e1086
:102bac00127b84f822201c22bfe7002332463946d0
:102bbc00bdf80c0001f0f6fe234b1a88053a00f123
:102bcc0010039bb29a4201dc1022aee704f116030b
:102bdc0032463946bdf80c0001f0e4fe00f110025b
:102bec0092b2a2e708238df80f3002e003238df890
:102bfc000f309df80f1000220a2323706270238976
:102c0c0023f07f0343f007032381a272e272114b7e
:102c1c0053f82130e3600b4b1a800221204602f05e
:102c2c0099fe034610b10c4b1c600023184605b0ee
:102c3c00f0bd0623fae70623f8e70221eee700bf12
:102c4c00242300201023002024020020f022002046
:0c2c5c00b4290020885f00001401002053
:020000040000fa
:102c680038b5804b1b78002b68d07f4bb3f9003008
:102c7800002b6bd17d4b1b88c3f30714242b32d058
:102c880011d8123b9bb2012b00f2e680784b1b78df
:102c980033b300f081ff774b1b78002b00f0de8008
:102ca800754b1d8815e0482b12d1744b1b78002bef
:102cb80029d0734b1b78002b30d0724b1b78002b1c
:102cc8003dd1714b1b88002b0cbf1a251b2526e014
:102cd8000025002c32d0634b00221a7055b327e030
:102ce80004f070fcd5e7624b1b784bb101f0b0ffe4
:102cf800604b1b78002b00f0b3805f4b1d88e8e722
:102d080004f0a6fcf2e7604b1d88d5b95f4b0122a1
:102d18001a70544b00221a7008240be02d25544bce
:102d28001b7883b104f078fb44b14e4b00221a7033
:102d380044f010042946204600f0baff38bd1a2591
:102d4800ede71b25ebe704f087fcebe7474b1b8817
:102d5800242b46d01bd8123b9bb2012beed8444bf8
:102d68001b78002bead0424b00221a7004f06cfc4e
:102d7800054600282ed1464b01221a703b4b1c7881
:102d880014f00f04dad0374b00221a70d2e7482b20
:102d9800d4d1374b1b78002bd0d0384b1b78002b65
:102da80040d03c4bb3f90030002bc7dd3a4ab2f9aa
:102db80000209a42c2db0023364a1380364a138029
:102dc8002b4a137004f046fc28bb304b01221a70c2
:102dd800082415e0ff28b1d004f0f4fb00f0dcfe75
:102de800ace7234b1b78002ba8d0214b00221a708c
:102df8002a4804f02bfc38b9294b01221a70042404
:102e08000025184b1d7095e7ff2897d004f020fc8b
:102e180001f01eff92e7ff2890d004f01dfc04f09b
:102e2800fbfa8be7184b1b881bb1164b1b78002b42
:102e380084d00f4b00221a7004f00cfc20b9134bfd
:102e480001221a700824dbe7ff283ff477af04f06b
:102e580003fc04f0e1fa71e700253ae7012563e78e
:102e6800012561e7640100206e0100203201002085
:102e7800360100203e0100203a01002071010020a7
:102e8800500100206c010020380100207201002050
:102e98001a0200204a010020420100204e010020b1
:042ea800780100208d
:020000040000fa
:102eac00f0b585b00023039304224ff4a06103a86e
:102ebc0002f072fc039c002c01db05b0f0bd04f0a9
:102ecc00e064042240f204510deb020002f064fcb9
:102edc000198039b23f0e0430393b4f1807f28d047
:102eec0018d9b4f1007f42d0b4f1806f40f0bf80ac
:102efc00614b1b88082b5ad0604b1b68002b00f0d1
:102f0c00a0809847002800f09780039b43f0005363
:102f1c00039302e0002c40f0aa80594b00221a8047
:102f2c00039b029304224ff4a06102a802f06cfef2
:102f3c00c3e7544a12683ab190470028edd0039b7e
:102f4c0043f000530393e8e7b0f5006f0bd84e4afb
:102f5c00146844b1484b1a884ff4a16104eb40004b
:102f6c0002f052fed9e743f000530393d5e7474aea
:102f7c00126852b1904718b1039b43f0005303936e
:102f8c00434b4ff47a721a80c7e7b0f5006f0ad83a
:102f9c003d4a14683cb102224ff4a16104eb40009d
:102fac0002f0fafbece743f000530393e8e7354dee
:102fbc00354e314f2ce0039b43f000530393ace7a9
:102fcc003368002b33d03a884ff4a16103eb4000f7
:102fdc0002f01afe039b23f0f043039302930422a6
:102fec004ff4a06102a802f00ffe04224ff4a0617e
:102ffc0003a802f0d1fb039c04f0e064042240f22d
:10300c0004510deb020002f0c7fbb4f1806f84d1c8
:10301c000198b0f5006fced82b68002bd0d0984714
:10302c000028d7d0039b43f00053039375e7039b11
:10303c0043f00053039370e7039b23f00063039367
:10304c006be704f0fdfa68b90f4b186850b1042215
:10305c004ff4a161103002f0d7fd039b23f0006305
:10306c0003935ae7039b43f00063039355e743f044
:10307c000053039351e700bfa2000020040100207d
:10308c00a000002040000020f80000204400002098
:04309c000c01002003
:020000040000fa
:1030a000704b1a8841f6fe739a4240f2d78070b591
:1030b0000446002004f09af8436813f4803f03d0dc
:1030c00003f00c02042a01d0162070bd13f0020f89
:1030d000fad00268130c223b9bb2de2bf4d8a2f587
:1030e00080539bb2b3f5805feed2012004f07ef8ee
:1030f000436813f4803fe7d013f00c0fe4d113f0d2
:10310000020fe1d003681a0c223a92b2de2adbd811
:10311000a3f580539bb2b3f5805fd5d2032c14d8ae
:10312000032c44d0504b1b78a34240f299804f4e61
:103130004d4d204604f05af8436833600134e4b240
:103140002b78a342f5d80020bfe7494b01221a7023
:10315000032004f04bf80268130c406810f4803f21
:103160003ad0002b3ed043490988994201d003212f
:1031700039e0013b9bb2432b3ad810f00c0f39d108
:1031800092b23d4b1978022905d03c4b1b889342e3
:1031900007d0022127e0a2f5805293b2b3f5805ff9
:1031a00021d210f0020f02d0314b00221a700220ff
:1031b00004f01cf80268130c406810f4803f42d001
:1031c000002b47d02e490988994215d003210220af
:1031d00001f090f91d2078e7264a12881343e6d0c3
:1031e000032100e00421032001f084f91e206ce794
:1031f0000321f8e70421f6e7013b9bb2432b2bd8d0
:1032000000f00c03042b01d00421e0e792b21a4b2a
:103210001978022905d01b4b1b88934207d0022145
:10322000d5e7a2f5805293b2b3f5805fcfd2c0f359
:103230008012154b1a7010f0020f3ff473af0c4b55
:1032400000221a706ee70e4a128813433ff46aafe9
:103250000321bce70421bae70321b8e71420704733
:10326000002032e76a0100207e010020142a00209d
:10327000300100206601002037010020800100207d
:0c32800038010020440100207a010020e9
:020000040000fa
:10328c002de9f04f87b0039003a803f0ebfa002868
:10329c0003da002007b0bde8f08f039b1b095d1e0d
:1032ac00202d0fd9023b5e4ab3f5007f35bf02ebf0
:1032bc00d30302ebd31313f8045c13f8045c34bf90
:1032cc00013511350123a5f12001c5f1200203fac6
:1032dc0001f923fa02f203fa05f8d8f1000849ead9
:1032ec00020969eb4909cde90089dff84081dff873
:1032fc0030914746d8e90023009902ea010a019966
:10330c0003ea010b5aea0b0342d1039b05a81033c5
:10331c00059303f0bfff18b9424b0c221a60b9e7b2
:10332c00d8f80852a84206d0059b103b0593012300
:10333c0000f110058360059bea18012143f001039d
:10334c00b5f1080442f8083c42f8041cc7f80822fe
:10335c0045f8043c9dd0204603f0a2fc88b155f8fa
:10336c00083c55f8041c23f00103e31a5a6822f0b8
:10337c0001020a445a6055f8041c21f00101625004
:10338c001c462046039903f0a3fc04f1080081e7d6
:10339c005446254bbaf1000f34d1cbf1000000eab2
:1033ac000b00434309ebd36393f83c602036304663
:1033bc0003f0b2fe731c57f8334007ebc303083b12
:1033cc009c4297d0272e26dd0235ae4201dc3f2ee3
:1033dc0021d16268039922f00102551a284603f0a4
:1033ec004bfb864217d1e068a6686318d8609e60d4
:1033fc0083609868c36041f0010060505d60a55027
:10340c006060bee7caf100002040434309ebd36380
:10341c0093f83c60cbe73146204602f047ffb0e71b
:10342c005c620000402a002029e66b07482300203c
:020000040000fa
:10343c0010b5564a536803f47063d26912f0010f49
:10344c0031d0524ad06852494a69c9688a422ad254
:10345c006bb94f4b5968541c5c6188544b4bdb69fe
:10346c0013f0020f3fd0494b02225a6125e0484b22
:10347c005968541c5c6121f81200444bdb6913f051
:10348c00020f30d0414b02225a61414a9369926833
:10349c00934245d23e4a1168581c906131f8132072
:1034ac003a4b1a6115e0394ad26912f0020f1ad060
:1034bc00364a02215161002be7d1354a9369926853
:1034cc00934221d2324a1168581c9061ca5c2f4b2e
:1034dc001a612f4b9a699b689a422cd02c4b5a69d3
:1034ec00db689a422cd02b4b1b7863b1274bdb69e2
:1034fc0013f0040f04d0264b5a69db689a4225d08e
:10350c00224b04229a6110bd214b1b69002b30d039
:10351c001e4bff221a611e4a1369013b1361d8e747
:10352c001b4b1b692bb3194bff221a61184a1369e9
:10353c00013b1361cde7164b1b69002bced11de06f
:10354c00124b01225a6102229a61cce7104b0022e5
:10355c001a770e49072048610e490a701b6a002b26
:10356c00d1d00b4a506a98470a4b1b78002bc7d115
:10357c00c9e7074b9a699b689a42afd1054b012268
:10358c001a70024b044a1a60ade700bf00340042c7
:0c359c0004000020c229002002000001f1
:020000040000fa
:1035a80030b583b04ff48033019302f0adfc4b4b40
:1035b8001b78002b3cd103f00dfa044610f0200fc5
:1035c8003ed114f0010f4ed0454b1b78002b3ad05a
:1035d80014f0100f5fd1424b1b78002b5bd13f4b8f
:1035e8001b781bb3019b13f4803f57d014f4007f62
:1035f8005cd1019b13f4003f63d03a4b1b7883b92d
:1036080002f09cfd374b1b78002b5fd0019b43f0e9
:1036180000730193042240f60c010deb020002f046
:10362800f5fa03f0d7f910f4807f53d103b030bd19
:10363800042240f60c010deb020002f0aff8bae7e5
:10364800fff730fcbde70025009504224ff4907188
:10365800684602f0a3f824f01104a4b229469df8a4
:103668000000fef74ff814f0100fb4d01c4b1b7875
:103678008bb91d4b187810f0100fb0d120f0100343
:10368800012bacd024f01004a4b2002100f00f00ec
:10369800fef738f89fe7fff7e3faa0e7124b187830
:1036a800002100f00f00fef72df89fe70f480023d8
:1036b800036004220e4b198802f0a8fa01f006fef6
:1036c80097e7084b1b78002babd099e7019b23f0b9
:1036d80000739ee700f08afea8e700bf1a020020e8
:1036e8006401002038020020370100205401002026
:0436f8002e0200207e
:020000040000fa
:1036fc00222913d8dfe801f07f144b651212121245
:10370c00121212121212121212121212121212128d
:10371c0012121212121212121212390012207047c7
:10372c0041f63243984213d041f63343984266d166
:10373c00394b9b8913f0020f63d0384b1b88002b3d
:10374c0061d1374b1b88002b0cbf12200020704717
:10375c00324b1b88002b50d0324b9b8903f0020359
:10376c00002b0cbf12200020704741f633439842c7
:10377c0001d012207047284b9b8913f0020f44d0c4
:10378c00264b1b88002b0cbf12200020704741f6e3
:10379c00324398420cd041f63343984237d11e4bfa
:1037ac009b8903f00403002b0cbf122000207047f0
:1037bc001c4b9b8903f00403002b0cbf1220002030
:1037cc00704741f6324398420cd041f6334398424d
:1037dc001fd1114b9b8903f00803002b0cbf122047
:1037ec00002070470f4b9b8903f00803002b0cbf84
:1037fc0012200020704700207047122070471220c2
:10380c007047122070471220704712207047122008
:10381c0070471220704700bf400200203801002082
:08382c00660100208402002067
:020000040000fa
:1038340030b40c46002930d000282ed04449097fea
:1038440000297bd1424908604a6000254d618d61a1
:103854000d613f498c60002a72d03d4ad36001213a
:1038640011773c4ad268a34282bf1a1b38490a61c5
:103874001a463849496811f4706f38d1002c2ad09f
:103884000178344a116132498a6901328a61002b14
:1038940048dd01202f4b98614ae0002b47d0002ad5
:1038a40048d02b49097f002946d1294908604a603c
:1038b40000254d618d610d610028cad12c468d60b3
:1038c400002acad122490022ca6001240c77214966
:1038d400c9681446cde71e4a1269002ad7d01d4a8a
:1038e400ff2111611a490a69013a0a61cfe76408a4
:1038f40017498c600d696d080d615208ca603cb1ae
:103904000188144a116112498a6901328a61bee749
:10391400002dbcd00f4aff2111610d490a69013afb
:103924000a61b4e70b4b02229a61012000e00020f7
:1039340030bc70470020fbe70020f9e70020f7e7e0
:1039440003490022ca6001250d770249c96890e73e
:083954000400002000340042d1
:020000040000fa
:10395c0030b583b000230193042211460deb020015
:10396c0001f01aff019b2a4c1a0a22701b0c9b02b5
:10397c0003f6ff73274a138003f04af923784bb1ff
:10398c000024234de0b203f093f801342a78e3b21b
:10399c009a42f7d801f068fb00241f4b1c701f4b98
:1039ac001c701f4b1c701f4b1c701f4b1c701f4b33
:1039bc001c701f4b1c701f4b1c801f4b1c801f4b03
:1039cc001c801f4b1c801f4b1c801f4b1c801f4bd3
:1039dc001c701f4b1c701f4b1c801f4b1c801f4be3
:1039ec001c801f4b1c8001201e4b1870214600f0c0
:1039fc005df91d4b1c801d4b1c701d4b1c7003f086
:103a0c0071f803f0fdfc204602f0feff03b030bd60
:103a1c007e0100206a010020700100203601002088
:103a2c00640100206c01002072010020780100204c
:103a3c007a01002076010020340100203c01002096
:103a4c0046010020740100204c010020710100206f
:103a5c003e0100203a0100204e01002038010020d8
:103a6c006601002037010020320100207f01002078
:043a7c0079010020ac
:020000040000fa
:103a800000297ad02de9f0470c46404b1e68b6f568
:103a9000802f75d23e4b1b680b44b3f5802f5cd84a
:103aa000174605463b4b1b6801eb0308b8f5005f62
:103ab00059d9c3f50052dff8e0a0caf80020dff8ba
:103ac000dc90014609eb030003f0f5fbdff8c4804e
:103ad0004ff40053c8f800304946304602f03afd32
:103ae000d8f80010294b1a680a441a60284a13684b
:103af0000b441360daf800100023c8f80030641a91
:103b0000a4b222462944484603f0d5fbc8f8004039
:103b1000204b1b68b3f5005f0dd0002f33d1b3f5f8
:103b2000005f08d2c3f500521b490a60ff211b4801
:103b3000184403f0bbfc154c1849206802f00afd3c
:103b400014490868226802442260114a1368034439
:103b5000136000200860bde8f0870d4b00221a605a
:103b600048f20300f7e70a4601460c48184403f000
:103b7000a2fb084bc3f80080cae748f20d0070476b
:103b800048f20d00e7e70020e5e700bf1c2a00200f
:103b9000202a0020242a0020282a0020d0020020e9
:020000040000fa
:103ba00010b582b00020374b187002f087ff01205b
:103bb00002f084ff344b1868e8b100f017fd334b76
:103bc0001868f0b1304b1b6898421ad017e000f02b
:103bd0000dfd204603f09ef90028f8d12c4c01e0a1
:103be00000f004fd204603f095f90028f8d102f01a
:103bf0007fff02b010bd254b186800283cd000f0b4
:103c0000f5fc244b186848b11f4b1b68984205d03f
:103c10001e4b1b68834201d000f0e8fc01f070fdf0
:103c200003f0c8fa00241c4b1c60174b1c60194b96
:103c30001c60164b1c60194b1c700194042240f64a
:103c40000c010deb020001f0adfd019b23f00073b0
:103c50000193042240f60c010deb020001f0daffa3
:103c60000f4b1c700f4b1c700f4b1c700f4b1c70bc
:103c70000f4b1c700f4cace7064b18680028c7d1df
:103c8000cce700bf1a0200203c02002020020020e6
:103c9000b00100202802002030020020380200205d
:103ca000190200202c0200203502002034020020de
:083cb000ac010020e40100203a
:020000040000fa
:103cb80030b583b004460d463d4b1b7883421cbf8c
:103cc8003b4b18704ff6ff7399421bd1384b1b784a
:103cd800019304224ff498710deb020001f096ff56
:103ce80014f0100f22d0a5f11a039bb2182b30d86c
:103cf800304a22fa03f313f0010f2ad02e4b012287
:103d08001a7016e0019104224ff49a710deb02002b
:103d180001f07cff264b1b78019304224ff4987125
:103d28000deb020001f072ff002dd9d1224b0022c9
:103d38001a7021490b7843f010020a7004f00f043e
:103d4800013c072c13d8dfe804f00f222e261212ac
:103d5800122a1a4b1b78012bd0d01b2d164b0cbfe7
:103d680002220d221a70e4e7154b0021197014493c
:103d78000b7843f010030b7043ea022300930422ec
:103d88004ff49c71684601f041ff03b030bd0c4b05
:103d98000d211970ebe70a4b01211970e7e7084b71
:103da8000f211970e3e7064b0e211970dfe700bffa
:103db80037010020010008017f0100203e0100209a
:043dc800480100208e
:020000040000fa
:103dcc0038b5364b1b7813b902f046fb38bd02f000
:103ddc00d7fe10f4806f1dd0314b1b782bb1314bbb
:103dec001b7813b1304b00221a80304b1b8d13b152
:103dfc00013b2e4a13852d4b1a8d2d4b1a852d4bbd
:103e0c0001221a702c4b00221a802c4b1b7863b3a6
:103e1c0001f0e8fd254b5b88012b38d0284b1b7833
:103e2c002bb1234b5b88012b34d0222b32d002f0e8
:103e3c00a7fe10f4806fc7d01c4a538d01339bb280
:103e4c0053851b4a53851f4d1f4c0422298820463d
:103e5c0003f0e2f929881d4b1b881944043904220c
:103e6c0089b2204603f0d8f9aee7164d164c042261
:103e7c002988204603f0d0f92988144b1b88194453
:103e8c000439042289b2204603f0c6f9c2e702f0d5
:103e9c00a7fec3e702f0aef8c9e700bf7901002026
:103eac0050010020710100207c01002084020020c0
:103ebc00400200206c01002034010020720100201f
:103ecc00780100204401002054010020380100201a
:020000040000fa
:103edc002de9f04f83b0009001913f4b1c8884b3c7
:103eec004ff000099a464ff0010bc84618e01d46ea
:103efc00b4693146e8b201f01df9c0f30f1014f8a3
:103f0c00104044441ffa84f86b1c9bb2bd42eed1a6
:103f1c0009f10109baf800201ffa89f39a420fd966
:103f2c001ffa89f30aeb4303588803f0d5f80646c9
:103f3c0000283dd083691f88002fe9d05d46d7e764
:103f4c0044460734c4f3cf08244b1888002840d0cb
:103f5c004ff0000a5546dff884b018e01c46d6f83e
:103f6c0018903146e0b201f0e5f8c0f30f1019f8e3
:103f7c0010301d44adb2631c9bb2bc42eed10af1b1
:103f8c00010abbf800201ffa8af39a420ed91ffad5
:103f9c008af30beb4303588803f09ef80646a8b14e
:103fac0083691f88002fead00124d8e7002003e0a2
:103fbc004ff0000845462520eb1ddb10009a1380be
:103fcc00019ba3f8008003b0bde8f08f00252420ee
:103fdc00f2e70546f0e700bf302a0020342a002023
:020000040000fa
:103fec0008b5354b00221a80344b1b78002b3dd082
:103ffc00334b1b781bb1334a138801331380324b7c
:10400c001b883bb3314a128893421dd2304b1b881c
:10401c00002b41d02f4b1b8d2f4a12899a4219d35a
:10402c0003332c4a138515e00023284a13802b4aae
:10403c0013850fe001f0deff294b1b88012b15d1f6
:10404c00204b00221a8011e0214b1b888bb10132ce
:10405c001e4b1a8002f0c4fd194b1b7833b1204b58
:10406c001b881bb1174a12889a42e3d002f0f4f96c
:10407c0008bd1c4b1b88002be9d002f081fd10f40d
:10408c00006fd1d1114b1b880f4a12889a42e1d391
:10409c0001330e4a1380dde7124a1288002ad9d068
:1040ac00002bd7d10d4b1b8d0b4a12899a42e4d3ae
:1040bc0003330a4a1385e0e73c010020710100201c
:1040cc007801002040010020680100207c010020c4
:1040dc003801002084020020c42900204002002066
:0840ec006201002066010020c2
:020000040000fa
:1040f400534d206f757470757420706172616d65b5
:104104007465720053796e6368726f6e697a617454
:10411400696f6e2054797065004379636c6520542f
:10412400696d65000053796e6368726f6e697a61b8
:1041340074696f6e20547970657320737570706f35
:1041440072746564004d696e696d756d20437963a1
:104154006c652054696d650043616c6320616e6415
:1041640020436f70792054696d65000047657420a1
:104174004379636c652054696d650044656c6179ad
:104184002054696d650053796e6330204379636c04
:10419400652054696d6500534d2d4576656e742018
:1041a4004d6973736564004379636c652054696d6c
:1041b4006520546f6f20536d616c6c0053686966a1
:1041c400742054696d6520546f6f2053686f727446
:1041d40000000000000000000000000000000000db
:1041e40000000053796e63204572726f7200ff0005
:020000040000fa
:1041f400534d20696e70757420706172616d6574c1
:1042040065720053796e6368726f6e697a6174695e
:104214006f6e2054797065004379636c652054692e
:104224006d65000053796e6368726f6e697a6174ac
:10423400696f6e20547970657320737570706f7236
:10424400746564004d696e696d756d204379636ca6
:10425400652054696d650043616c6320616e642060
:10426400436f70792054696d65000047657420437d
:1042740079636c652054696d650044656c617920cf
:1042840054696d650053796e6330204379636c65be
:104294002054696d6500534d2d4576656e74204d2f
:1042a4006973736564004379636c652054696d6553
:1042b40020546f6f20536d616c6c00536869667491
:1042c4002054696d6520546f6f2053686f727400b9
:1042d40000000000000000000000000000000000da
:1042e400000053796e63204572726f7200ff000004
:020000040000fa
:1042f400f0b583b000242e4b1c602e4b1c602e4b5b
:104304001c602e4b1c602e4b1c602e4b1c602e4bd5
:104314001c602e4b1c602e4b1c602e4b1c60fff748
:104324001bfb00f0cdfa2c4b01221a702b4b1c7096
:104334002b4b1c602b4b1c602b4b1c60009401947a
:104344004ff47a7404264ff411651f4604e09a4230
:1043540088bf3b60013c16d032462946684602f0cd
:104364005fff3246294601a802f05aff009b019ada
:10437400934288bf02f1ff32d31a01933a68002aac
:10438400e5d13b60e6e70023019304224ff4a061ea
:104394000deb020001f004fa019b03f48003002bef
:1043a40014bf08220422114b1a80002003b0f0bd70
:1043b40040000020440000200401002034000020bc
:1043c40008010020a40000209c000020100100200f
:1043d40000010020a8000020c3290020380000208c
:1043e4003c000020b00000204c000020a20000206f
:020000040000fa
:1043f40030b583b0002301930422354b19880debab
:10440400020001f0cdf9019ca3b20193314b1b785a
:10441400012b0ad0304b1a78304b1b7813431dd034
:104424002f4b01221a7003b030bd0a20fef72cff77
:1044340005460028eed00021c0f8021004230380b2
:10444400838823f4706383800123c380072303815b
:1044540001f084fa284600f0c7f8dbe7204b00227d
:104464001a70204b1d882846fef70eff1e4b18605d
:10447400d8b1a21d92b2aa4228bf2a46144b198869
:1044840001f08ef900230093042240f604016846eb
:1044940001f086f9009b0093009b13f4006f08d190
:1044a400114b186801f0f6fcbde70d4b01221a70a0
:1044b400b9e70e4800230360054b1988094b1b8894
:1044c40019440439042289b201f06af9e8e700bf0b
:1044d4001c020020180200201902002035020020ce
:1044e4002c0200203602002030020020540100205b
:020000040000fa
:1044f40038b505460c4603f099f808b30246611e28
:10450400c9b201eb85005388dbb243ea00239bb2b6
:104514005380022d15d0032d39d000211171517112
:104524009171d171002111706ff05f01517023f00e
:10453400ff032a4909780b435380104601f06cfcb1
:1045440038bd0329eed8dfe801f002020c11002186
:104554001171102151714ff0ff3191711f21d171ef
:10456400e0e71f4909889180d180dbe71c4909886d
:1045740039b100210a201071517101209071d1715b
:10458400d0e70021117151719171d171cae70329ea
:10459400c8d8dfe801f002020c11002111711021ca
:1045a40051714ff0ff3191711f21d171bae70d495b
:1045b40009889180d180b5e70a49098839b1002179
:1045c4000e201071517101209071d171aae7002160
:1045d400117151719171d171a4e700bf37010020ad
:0845e4003801002066010020ef
:020000040000fa
:1045ec002de9f84300286ad050f8043ca0f10804e7
:1045fc0023f00106a719a259934200d0ffde7a6876
:10460c0023681340da070fd4204602f049fb002838
:10461c0057d1384602f00efc0028f0d07b6823f00e
:10462c0001031e441f44eae746f001036360304671
:10463c003b6002f021fa054602f06efd23687a68b1
:10464c001340db07e0d5dff88ce0dee90089c5f12b
:10465c00200ca5f1200228fa05f009fa0cfc29fa25
:10466c0002f240ea0c001043012100ea010200238f
:10467c001343c5f120007346a5f1200212d121fa93
:10468c0000f001fa02f2a94042ea00021ebfdef875
:10469c0000000143cef8001022b1def804100a43ea
:1046ac00cef80420681c03ebc003a3f1080266607b
:1046bc003e60a2605a68e2605c60e3689c60bde8a2
:1046cc00f883236823f00103e41a636823f00103e1
:0846dc001e449ee74823002064
:020000040000fa
:1046e40038b5059c602955d000293cd0258905f4ae
:1046f4007f45258100284fd1e088c0f30b0040f4aa
:104704004050e080402926d104990139032910d86a
:104714000a23237000236370049bdbb2c3f10403f8
:1047240042f0030242ea83022a4342f04002228119
:1047340044e004998b4228bf049b0a339bb2238034
:10474400049ba381049bc3f30f43e38142f0410222
:104754002a43228132e00a2323700023637045f048
:10476400600222812ae0b8b9e388c3f30b0343f45f
:104774004053e3800a23237000236370238943f0aa
:10478400200323811ae0e388c3f30b0343f440536b
:10479400e38013e00028f6d00a232370002363701b
:1047a400e388c3f30b0343f40053e380238943f00a
:1047b40080032381054b53f82030e3600221204617
:1047c40001f0ccf808b1024b1c6038bd885f0000d2
:0447d40014010020ac
:020000040000fa
:1047d800f0b585b004460e460023039302938df886
:1047e80007308df80630b0f5405f34bf1546042514
:1047f80002f09afd2f4f7b68db6898470028fad1b2
:1048080063118df80c30e30043f006038df80d308a
:10481800230a23f01f0343f00c038df80e30254bb9
:104828005b681c68032302aa194603a8a04702f084
:1048380049fd204c6368db6898470028fad11e4b75
:104848009df808201a709df809205a70ff238df8ea
:104858000630184b5b685b6801210df1060098472c
:1048680002f030fd134c6368db6898470028fad1e2
:10487800104c012d4ff0ff3318bf00238df807307f
:1048880063681f6801230df1060219460df1070040
:10489800b84702f017fd6368db6898470028fad12b
:1048a8009df8063006f8013b013de2d102f032fde9
:0c48b80005b0f0bda42900200000002085
:020000040000fa
:1048c40010b582b02a4a20241480002353805360f8
:1048d40044f21f009081274911615361938313624d
:1048e4001385538582f84030234a148053805360e3
:1048f400908111615361938313621385538582f808
:1049040040301e4a137002f02bfa20bb00231c4acd
:1049140013701c4a13701c4a13801c4a13701c4adf
:1049240013601c4a13601c4a13601c4a13600193f1
:10493400042208210deb020000f032ff019b13f06a
:10494400080f0bd0164b00221a70164b4ff47a62e4
:104954001a6002b010bd02f073fbd7e7104b0122be
:104964001a7004224ff411610f4800f019ffece7ac
:1049740084020020a086010040020020c80200201a
:1049840008230020092300203a2300203c23002090
:1049940018230020f4220020042300201c230020dc
:0c49a40060010020300000202c000020ea
:020000040000fa
:1049b0002de9f04184b01e465469e9b10f46938950
:1049c000c3f30323072b17d0092b24d0002e5dd06f
:1049d000304b6c460fcb07c4237039460df10900ec
:1049e00001f0deff6b4607cb30607160b2601b7870
:1049f00033734ff00c080ae0204602f05ffd1ffa07
:104a000080f826b142462146304602f054fc40462a
:104a100004b0bde8f0811ffa81f8204602f04efd97
:104a200001302518235c0233dbb2012bced9b8f15b
:104a3000010f16d0284602f041fd01300544022442
:104a40002b780233dbb2012bc0d9a04509d0013449
:104a5000a4b2284602f032fd01300544a045efd251
:104a6000b4e7284602f02afd1ffa80f846b1b8f1f3
:104a7000000fadd042462946304602f01cfcc6e786
:104a8000b8f1000f08bf4ff00c08c0e74ff00c085a
:084a9000bde700bfb4290020be
:020000040000fa
:104a9800314b00221a7403f50063304a9a621a46b1
:104aa800536813f0100ffbd12d4b4222c3f884201a
:104ab8001a46d2f8843013f0400ffad0294b00225e
:104ac8009a6377225a631a46d36b13f0040ffbd10b
:104ad800244b022283f830201a46d36b13f0020fbe
:104ae800fbd1204a136c03f00303032bfad11e4bae
:104af80001225a711a46d37813f0010ffbd0184bd4
:104b08001a4a1a621a46536813f0040ffbd1144b61
:104b1800164a5a621a46536813f0080ffbd1104b15
:104b28004122c3f890201a46d2f8903013f0400f73
:104b3800fad00b4b4122c3f8a4201a46d2f8a4306d
:104b480013f0400ffad0084b6ff07f421a614cf215
:104b5800ff725a61704700bf001400400601300020
:104b6800001c004000100040000800400701010040
:020000040000fa
:104b78002d4b1b78002b56d02de9f04782b01746f5
:104b88000e468146294b1d682b89dbb203f0e00aeb
:104b980003f01004baf1400f0fd04ff00008224b79
:104ba80000221a700195009643462246514648460f
:104bb800fff794fd02b0bde8f0871d4bb3f8008005
:104bc800a8f110081ffa88f888450bd34b1e032b51
:104bd80020d805f10c009042e1d00a46394602f08f
:104be80066fbdce70123134a1370134a1370134b57
:104bf8001c70134b1960134b60221a70124b1f6004
:104c08004246394605f1100002f051fb0f4bc3f83c
:104c18000080c4e705f110009042c0d00a4639462a
:104c280002f045fbbbe770474b2a00201423002005
:104c380024020020fd2200200a230020fc2200205c
:104c4800002300200b2300201c230020f822002032
:020000040000fa
:104c580008b5214b1b88002b35d1204b1b88002b16
:104c680035d14ff2f33001f0d1fe00231c4a137006
:104c78001c4a13701c4a13701c4a13701c4a137088
:104c88001c4a13801c4a13801c4a13801c4a138038
:104c98001c4a13801c4a13801c4a13801c4a138028
:104ca8001c4a1385538582f840301b4a1385538567
:104cb80082f84030194a1380194a1370194a137040
:104cc800194a137008bd022001f0f4fec5e703205d
:104cd80001f0f0fec5e700bf3801002066010020a2
:104ce8006c01002079010020710100205001002092
:104cf8006d010020680100207c0100204601002091
:104d08003c010020740100204c01002062010020b9
:104d18004001002084020020400200204a010020b7
:0c4d28007a01002078010020c802002061
:020000040000fa
:104d340070b582b00023009304252f4c2a4669469f
:104d440043f26400fff746fd009ba342f6d1002323
:104d540000930422694643f25c0000f01dfb932695
:104d640004254ff4017401962a46214601a800f057
:104d74004fff002301932a46214601a800f010fdad
:104d8400019b932befd10023019304224ff4a871cc
:104d94000deb020000f004fd019b13f0040f02d0a0
:104da400164b01221a700024019404224ff401715d
:104db4000deb020000f02cff40f2011300930422db
:104dc400694643f2540000f0e7fa012300930422f9
:104dd400694643f25c0000f0dffa0422694643f2bc
:104de4005800fff7f7fc02f0cbf802f0d9f802f014
:104df40089fa204602b070bd21436587c12900208d
:020000040000fa
:104e040008b5294b1b78002b4cd0284b1b78002b62
:104e140035d0274b1a78274b1b78134333d102f034
:104e2400e0fb01f0e1fe244b1b7813bb02f0ddfb39
:104e340029e001f0d1fd10f4806f0cd01c4b01224d
:104e44001a701e4b00221a801d4b1b78002be6d0d3
:104e540000f0ccfde3e71b4b1b88002bdfd110f4e3
:104e6400006fdcd0124b01221a70144b00221a80fe
:104e7400d5e701f0c3f8d9e701f030f908e00d4bac
:104e84001b78002bd5d0104b1b68b3f57a6ff3d287
:104e9400fef788fb00f08afb01f0c8fc0b4b1b6893
:104ea40003b1984708bd00bfc32900207901002041
:104eb4006c010020710100207801002034010020e1
:104ec400720100203801002030000020a8000020da
:020000040000fa
:104ed400274b1b78002b4ad0264b1b78002b46d03f
:104ee400254b1b8813b3254a128893421bd8244ba5
:104ef40000221a70234b1b788bb97047204b002279
:104f04001a70f7e71f4b01221a701f4bb3f90030d8
:104f1400002b2cdd1d4a1388013313807047194b75
:104f240000221a7070470132144b1a80144b01226c
:104f34001a70174b1b8833b1164a12889342ddd975
:104f44000132144b1a80144b1a8d144b1b899a424c
:104f5400d8d30c4b1b7853b10a4b00221a700a4b5e
:104f6400b3f90030934202dd084b1a807047704752
:104f74007101002078010020460100203c0100203e
:104f8400500100206d0100204a0100204201002050
:104f94004c0100207401002084020020c429002058
:020000040000fa
:104fa400f0b583b02a4b1b7803f00f03012b4ad0d2
:104fb400284b1b78002b48d0274b1c781cb10724a6
:104fc400204603b0f0bd05460788ba1d92b2234bb4
:104fd400198800f01dfe00230193042240f60c0101
:104fe4000deb020000f0dcfb019b0193019b13f429
:104ff400006f12d11a4b1e88b21fd21b92b2194bea
:1050040000211960032a14d9144b19883144043936
:10501400042289b2134800f0fbfd134b1b6813b143
:10502400124b00221a60104b1d600b4b01221a70a8
:10503400c6e7c2f10402b91d891005eb81011846c7
:1050440002f037f9e0e7f024bae7f024b8e700bf4c
:10505400370100201a020020190200202e0200202d
:1050640024020020540100202802002030020020e5
:020000040000fa
:1050740010b582b0204b22221a80204b4ff480724c
:105084001a804ff480531e4a13801e4a13801e4b0d
:1050940000241c805c800a229a801c4b1c805c804b
:1050a4009a801b4b1c601b4b1c601b4b1c601b4bd6
:1050b4001c601b4b1c700194042240f60c010deb88
:1050c400020000f06dfb019b23f0007301930422a6
:1050d40040f60c010deb020000f09afd114b1c7020
:1050e400114b1c70114b1c70114b1c70114b1c701c
:1050f400114b1c7002b010bd3602002024020020a7
:105104001c0200202e020020e4010020b001002037
:10511400300200203c02002028020020200200204f
:10512400380200201a020020190200202c0200205c
:0c5134003502002034020020ac010020f5
:020000040000fa
:10514000f0b48f89c7f30327002856d1f0bc70470d
:10515000062b43d004d8032b40d0042b04d112e0fb
:10516000082b10d90b2b39d0624522d26388184402
:1051700080b21ee0b3f5187f30d0f5d3a3f26225dc
:10518000adb2012df0d800f11f054ff6e0702840b8
:1051900062450ed2a3f262239bb2012b9abf6388b1
:1051a000c018203080b204e06388184480b2103008
:1051b00080b2013292b206366245c7d8082f0c6918
:1051c0000cbf0634a41923881f2b07d0c0d92f2b5e
:1051d000d9d0cfd8202bd6d02e2bc5d100f10f059a
:1051e0004ff6f07028406245e3d20b2bdcd0b3f5cc
:1051f000187fdcd1d8e70020a8e78446072ffad033
:0c5200001ffa8cfc062610200122d7e7c4
:020000040000fa
:10520c00050008000700060010000f000700200032
:10521c000700000020000000060010000700070037
:10522c0020000700070020000700000020000000fd
:10523c00060010003f0007002000070007002000b8
:10524c003f000600100007000600100007000000d9
:10525c001000000000001000000000002000000002
:10526c0000002000000000002000000000002000d2
:10527c000000000000000000000000000000000022
:10528c000000000000000000000000000000000012
:10529c000000000000000000000000000000000002
:1052ac0000000000000000000000000000000000f2
:1052bc0000000000000000000000000000000000e2
:0852cc0001000100070000bf12
:020000040000fa
:1052d40008b52a4b00221a70294b186810b1294bc3
:1052e4001b68c3b1284b1a68254b1a60254b1868f4
:1052f400a0b1fff755fe234b00221a60234b1b7805
:1053040043b113f0010f11d113f0020f1cd113f0ac
:10531400400f29d108bdfff767f9e3e71c4801f006
:10532400f7fd0028ead0fff73bfee7e7194b1868c2
:1053340002f0caf802f07cf80028ebd0134a137884
:1053440023f001031370e5e723f002030f4a1370ff
:10535400104b186801f086f90028dbd00b4a13784b
:1053640043f002031370d5e723f04003074a137098
:10537400084b186801f02affcce700bf190200208f
:105384003c020020200200202802002035020020d8
:08539400b001002030020020ee
:020000040000fa
:10539c00f0b585b004460d460023039302938df8b7
:1053ac000730b0f5405f34bf1646042601f0baff53
:1053bc00224f7b68db6898470028fad163118df87f
:1053cc000c30e30043f006038df80d30230a23f074
:1053dc001f0343f010038df80e30184b5b681c68ec
:1053ec00032302aa194603a8a04701f069ff134c36
:1053fc006368db6898470028fad1114b9df80820a8
:10540c001a709df809205a702e440c4c012715f87f
:10541c00013b8df8073063685b6839460df1070076
:10542c00984701f04dff6368db6898470028fad174
:10543c00b542ecd101f06cff05b0f0bda429002001
:04544c00000000203c
:020000040000fa
:1054500008b5214b1b783bb1204bb3f90030002b32
:1054600002dd013b1d4a138000f07efffff732fd95
:105470001b4b1a8872b11b490b8801339bb20b80fe
:105480009a4207d80023164a13800b80164b1b68dc
:1054900003b19847154b1b7843b1002314490a68a0
:1054a00014480021994208bf90420fd3104a136854
:1054b000516811481b184ff0000040eb01011360c8
:1054c00051600e4a13680133136008bd0b4b4ff453
:1054d0007a621a60f5e700bf640100206e010020c7
:1054e0000c010020a00000203400002060010020fa
:1054f000d829002040fbe1ff40420f00300000208f
:020000040000fa
:1055000038b5002001f072fe224c03681b0c23808a
:10551000214d03682b80012001f068fe03681b0cfd
:1055200099b21e4a118002681d4802802d8892b2ed
:1055300020882844904202dd13449d4228db0c3928
:10554000184b1980002001f007fb012001f004fb3b
:10555000104b1888fdf79afe134b186040b10024d9
:10556000124b1c70fff742f80f4b1c60204638bdf1
:105570000e4b01221a700a20fdf788fe002814bf86
:1055800000240224fff732f8074b00221a60ede7ef
:105590001624ebe7360200201c0200202402002023
:1055a0002e0200202c0100203002002018020020d2
:020000040000fa
:1055b00010b582b0204b1c68002c33d01f4b1b78d9
:1055c00000931f4b1b681f4a12681f4909781f4828
:1055d0000088a0470446ff2824d01d4b1b78013bc0
:1055e000032b10d8dfe803f00a022020194b1868bb
:1055f00020b1fef7fbff174b00221a600022114674
:105600002046fff7b9fa0023114a13700f4a13809e
:105610000d4a13700b4a1360094a1360074a13704e
:10562000054a136002b010bd054b1a68054b196896
:10563000fff7a2fae7e700bf0423002009230020b8
:10564000f4220020182300203c2300203a230020cd
:08565000082300201c230020a8
:020000040000fa
:105658002de9f04f83b08246019116469b460b8890
:10566800b3f5805f0bd0234b1c6894b1012e3ed953
:105678004ff0200808fa0af81ffa88f823e001f02a
:1056880047ff04460028f1d10c9b13b11b230c9a49
:105698001370304600244ff6ff7321e00135ebb25a
:1056a80099450bd3e9b2204601f056fc838818eae5
:1056b800030ff3d02bf8027b023eb6b26468002ccd
:1056c800e7d0012e0ad92789b7f5805ff6d3baf15a
:1056d800000fefd094f80c900025e3e730462389bb
:1056e800019a1380034b1c6003b0bde8f08f30466d
:0856f800f5e700bf0c230020c0
:020000040000fa
:1057000008b51a4b1b78012b1ed00023184a1370c2
:10571000184a1370184a1380184a1370184a1360f5
:10572000184a1360184a1360104a1370174b186810
:1057300020b1fef75bff154b00221a600023144acc
:105740001360144a137008bd134b18680028dcd08e
:10575000124b1b689842d8d0114b1b689842d4d08a
:10576000fef744ff0c4b00221a60cee74b2a0020c4
:1057700008230020092300203a2300203c23002096
:1057800018230020f4220020042300201c230020e2
:10579000f82200200b230020142300203c020020cc
:0457a00020020020c3
:020000040000fa
:1057a400002a48d02de9f04383b005460e4617463b
:1057b4004ff004084ff001092ae0032c04d8012c0f
:1057c4008cbf022401240ae001f00bff424601a928
:1057d4003046fef7ffff01f008ff09e04c4601f0f8
:1057e40000ff424601a93046fef7f4ff01f0fdfe3a
:1057f40001aa002312f8011b05f8011b0133dbb2d7
:10580400a342f7d3a4b22644b6b23c1ba7b27fb1dd
:1058140016f0010fe2d13c46042f28bf0424e4b261
:1058240016f0020fc9d0012c8cbf02240124d6e744
:0858340003b0bde8f0837047ea
:020000040000fa
:10583c0030b49489c4f30320e4b213b307283ad0ec
:10584c00082813d0002064b115690123002003eb54
:10585c00430205eb4202528810440133dbb29c42f6
:10586c00f5d20730c00849bb023027e013691b8909
:10587c009269107800fb03f00730c008f1b90230d0
:10588c001ce007280dd0c1b108280fd08c4217d3cb
:10589c00136901eb410103eb410148880730c0104b
:1058ac000ce0136958880730c01007e01369188999
:1058bc000730c01002e0002000e0012030bc70472f
:0458cc000020fbe7d6
:020000040000fa
:1058d00008b51b4b98471b4b9847eff3108172b6e6
:1058e000194ad2f8883043f47003c2f88830bff305
:1058f0004f8fbff36f8f01b962b6144c20236360e2
:1059000000f044f9124b23f07f030f4a9360114bd0
:105910009847a36823f00103a3602346da6812f0d6
:10592000010ffbd1094b5a6842f004025a60012270
:105930009a60094b9847094b984701f085fdfee7af
:10594000db740000db74000000ed00e0006000414b
