:020000040000fa
:10000000f0ff02209d610000f76b0000cf6e000042
:100010009b76000013790000c37d00000000000003
:100020000000000000000000000000009b610000d4
:100030004b750000000000009b6100009b61000008
:100040009b6100009b6100009b6100009b610000c0
:100050009b6100009b6100009b6100009b610000b0
:100060009b6100009b6100009b6100009b610000a0
:1000700055790000757900009b6100009b610000cc
:100080009b6100009b6100009b610000957900006e
:100090009b6100009b6100009b6100009b61000070
:1000a0009b6100009b6100009b6100009b61000060
:1000b0009b6100009b6100009b6100009b61000050
:1000c0009b6100009b6100009b6100009b61000040
:1000d0009b6100009b6100009b6100009b61000030
:1000e0009b6100009b610000000000000000000018
:1000f000000000009b6100009b6100009b6100000c
:100100009b6100009b6100009b6100009b610000ff
:100110009b6100009b6100009b6100009b610000ef
:100120009b6100009b6100009b6100009b610000df
:100130009b6100009b6100009b6100009b610000cf
:100140009b6100009b6100009b6100009b610000bf
:100150009b6100009b6100000000000000000000a7
:10016000000000000000000000000000000000008f
:10017000000000000000000000000000000000007f
:100180009b6100009b6100009b6100009b6100007f
:10019000000000009b6100009b6100009b6100006b
:1001a0009b6100009b6100009b6100009b6100005f
:1001b0009b6100009b6100009b6100009b6100004f
:1001c0009b6100009b6100009b6100009b6100003f
:1001d0009b6100009b6100009b6100009b6100002f
:1001e0009b6100009b6100009b610000c9760000dc
:1001f0009b6100009b6100009b6100009b6100000f
:100200009b61000000000000000000009b610000f6
:100210009b6100009b6100009b6100009b610000ee
:100220009b6100009b6100009b6100009b610000de
:100230009b6100009b6100009b6100009b610000ce
:100240009b6100009b6100009b6100009b610000be
:100250009b6100009b610000f53800009b6100007d
:020000040000fa
:10026000f8b500bff8bc08bc9e4670478d70000012
:10027000f8b500bff8bc08bc9e4670476970000026
:020000040000fa
:100280002de9f04f89b0b0f80890944b1e78002efd
:1002900040f0ae835ffa89f808f0e0040546202cb0
:1002a00019d009d9402c16d0602c00f0b38100275a
:1002b000bb464ff0030a06e0002c00f0ab8100279c
:1002c000bb464ff0030abaf1ff0f40f0ab81304656
:1002d00009b0bde8f08fb5f800a06f893b0203ebd1
:1002e00019239bb20393184607f0c4fb049000281f
:1002f00000f086833a0a0592037b9a4204d90027cc
:10030000bb464ff0110a8de108f010030693024638
:100310000599039805f0f7fe8346402c48d0202c21
:1003200000f09d80074600230793069b002b40f0ba
:10033000c380bbf1000f08d1694b039a1a80694b47
:10034000059a1a70684b049a1a60402c00f03181ab
:10035000069b0193079b0093049b3a4605990398db
:1003600001f0f8fc8246ff2840f05c8101235f4adf
:1003700013705f4a069911705e4a059911705e4ac2
:10038000039911805d4a17605d4a07991160049acc
:10039000116a5c4a1160514a13705b4b1d602b89d6
:1003a00023f0ff0309f0f00943ea09032b818ee7ec
:1003b000baf10a0f40f01e83431e032b44d805f107
:1003c0000c0307930023ab81eb8133460746069a63
:1003d000002a72d1002bacd001234c4a13704c4a36
:1003e00013704c4b069a1a703d4b039a1a803d4b82
:1003f000059a1a703c4b049a1a60402c0cbf5a465e
:100400003a46454b1a60454b186808b104f082fc27
:10041000414b1868013020f0010003f093f93f4b85
:100420001860002852d0402c00f08280aaf10a0700
:100430003a4605f1100107f0defb394b00221a7035
:10044000b246384b1f603ee7374b1f88103fb8421b
:1004500000f2e38205f1100307933346b7e718f083
:10046000020f0bd0baf10a0f40f0c682c8f3810721
:10047000c7f1040705f10c03079356e7eb89af8931
:1004800007eb0347294b1b8807f110029a420dd94d
:10049000063b9a4540f0b28205f110030793aaf19a
:1004a0000a03bb422cbf0023012390e707f10a0394
:1004b0009a45f1d008260ae73346059a012a02d95f
:1004c0004ff0050aaee00122069283e7069b002b5f
:1004d00014bf4ff0050a4ff0040aa3e0722a00206f
:1004e000202300203823002034230020082300206c
:1004f000092300203c2300203a2300201823002059
:10050000f42200200423002014230020fd220020d8
:100510000a230020fc220020002300201c230020ae
:100520000b230020f82200202402002036020020a5
:10053000069b01930090049b5a460599039801f08d
:100540009dfe824650b3ff287ff47bafa44b04226c
:100550001a70a44b069a1a70a34b059a1a70a34bf3
:10056000039a1a80a24bc3f800b0a24b1a68a24ba0
:100570001a60049bda69a14b1a60a14b01221a7020
:10058000a04b1d602b8923f0ff0309f0f00943ea1b
:1005900009032b819c4b60221a7098e63a46954bd2
:1005a000196805f1100007f026fb974b60221a70be
:1005b00047e7069b0193079b0093049b5a460599c6
:1005c000039801f05bfe8246ff282bd1844b032267
:1005d0001a70844b069a1a70834b059a1a70834bd3
:1005e000039a1a80824bc3f800b0834b079a1a60b3
:1005f000049bda69814b1a60814b01221a70814b8e
:100600001d602b8923f0ff0309f0f00943ea090379
:100610002b815ce67c4b1b78a3420ed00027bb46a7
:100620004ff0030a0195cdf800b0bbb208f01002fc
:100630002146504604f064fc49e6002c40f042811b
:10064000724b1a7809f010039a4200f02381704b24
:100650001b8808f010026d490a70664a116800296b
:1006600000f02d81093b9bb26a4a10686a4a126801
:10067000121a19f0010f18d09a4200f2cb812b8880
:10068000033b9a4200f2c6816fea690707f0070749
:10069000ba4205d0072a40f2bd819a4240f0ba81a1
:1006a0005e4b00271f70174608e05c4f4ff0010caf
:1006b00087f800c01f469a4240f2ac8110f0010f4b
:1006c0006ed1430868894fea192242ea002221f8d4
:1006d000132007f1010c4fea5c0cbcf1010f1bd990
:1006e00001200346dff82c91dff808e105eb430b0e
:1006f000d9f8002000eb5201def80000bbf808a09a
:10070000bbf80a20120242ea1a2220f81120013313
:100710009bb218466345e9d3404b93f80090b9f17a
:10072000000f1fd13e4b1b780193324b1b68009387
:100730003c4b1b68384a12683b4909783b480088a3
:1007400001f008fb8246ff2872d0dff8a890d9f8a4
:10075000000004f0dffa0023c9f80030baf1000ffe
:1007600040f09a800a232b7000236b70eb88c3f350
:100770000b0343f44053eb80244b1b78002b14bf36
:10078000302320232b81254b1b78012b7ad000238b
:10079000204a13601c4a1370a2461f469b4641e73d
:1007a000430811f8132021f8132012491948026850
:1007b0005208d1f800c02b8923f0ff033cf812e067
:1007c00043ea0e032cf81230036823f001030233ce
:1007d00008687a1e05f10a01184407f00cfa9be735
:1007e00008230020092300203c2300203a23002076
:1007f000182300201c230020f422002004230020c2
:10080000722a0020142300200b2300200a2300203a
:1008100036020020f822002000230020fd220020c4
:10082000fc22002034230020382300202023002035
:100830007c4b02221a707c4b1a787c4b1a707c4bd2
:100840001a787c4b1a707c4b1a887c4b1a807c4b34
:100850001a687c4b1a607c4b1a687c4b1a607c4b84
:100860001b681a6a7b4b1a607b4b01221a707b4b08
:100870001d6000237a4a13707a4a13707a4a136013
:100880004e4624e5784a13683b441360a24600278d
:10089000bb46c7e64ff0010a0023714a1370714a44
:1008a0001370694b186820b104f034fa664b0022cb
:1008b0001a6000236c4a13601f469b4603e54ff005
:1008c000030ae9e72f7a07f01007684b1b78bb4251
:1008d00000f09b80664b1b88093b9bb2634a1770f4
:1008e0009a46614a1168564a12680b44934286bf81
:1008f000a2eb010ab3464ff0010b594b83f800b04d
:100900005ffa89f9a5f8089011f0010245d149086c
:100910004d4b186830f8113049ea0329a5f80890c2
:100920005fea5a0e13d000230a4400eb420cbcf8d5
:10093000029030f81220120a05eb430c42ea092219
:10094000acf80a2001339bb21a469e45ecd8eb88de
:10095000c3f30b0343f44053eb802b8903f47f4331
:10096000bbf1000f2ed01f432f81baf1060f2dd8f7
:100970000a232b7000236b70caf1070347ea430771
:100980002f81374b1b78012b24d1374a13685344ee
:100990001360b2460027bb4644e62b4b1a68490851
:1009a00032f8113023f0ff0343ea0909a5f8089053
:1009b00002eb41010af1ff32023105f10a0007f0b2
:1009c0001af9c4e747f001071f43cde70af1030313
:1009d0002b80d6e71c4f386804f09cf900233b605d
:1009e000214a13601f4a1370b2461f469b4619e600
:1009f00009266ce408266ae4082668e4082666e40a
:100a00000027bb464ff0080a0ce60027bb464ff014
:100a1000010a07e64ff00e0a3ee701230022079283
:100a2000d5e400bf08230020fc2200200923002079
:100a3000382300203c230020202300203a230020dc
:100a400000230020182300201c230020f422002073
:100a50003423002004230020722a002014230020c5
:100a6000fd2200200b230020f82200200a23002072
:040a7000240200203c
:020000040000fa
:100a7400842900201c0000000000000083290020bd
:100a8400010000000000000000000020020000003f
:100a940000000000cc29002010000000000000002d
:100aa4005c29002027000000010000000000000174
:100ab400000001000002000001000004000000002a
:100ac400000000000000000000000000000300001f
:100ad400010000004c280020c000000000000000bd
:100ae400b62900200200000000000000e9290020cf
:100af40001000000000000000400002028000000a5
:100b040000000000f8290020080000000000000098
:100b14004423002004000000000000002e2a0020ce
:100b24000200000000000000002a0020080000006d
:100b3400000000003427002018010000010000001c
:100b4400000000000000000001162100010900005f
:100b5400a47e000020770000202a0020000000006e
:100b64000000000000000000000000000000000081
:100b7400001a210001090000b07e00004c7700003b
:100b8400102a002000000000000000000000000007
:100b94000000000000000000121c06000108000014
:100ba400c87e0000f07a0000582a002000000000ef
:100bb4000000000000000000000000000000000031
:100bc400131c060001080000d47e00000c7b00000a
:100bd4005c2a00200000000000000000000000006b
:100be400000000000000000000602a00010900006d
:100bf400e07e0000387d0000082a0020000000008c
:100c040000000000000000000000000000000000e0
:100c140010702a0001090000ec7e00004c7d0000e9
:100c2400182a00200000000000000000000000005e
:100c34000000000000000000ffff000000000000b2
:100c440000000000000000000000000000000000a0
:100c5400000000000000000054250020e001000016
:100c64000100000000000000000000000010070068
:100c740000070000687f00008c7e0000382a0020f6
:100c84000000000000000000000000000000000060
:100c9400000000000110050000070000707f000044
:100ca400f47d00002e2a0020000000000000000057
:100cb400000000000000000000000000081009000f
:100cc40000070000787f0000987e0000a029002023
:100cd4000000000000000000000000000000000010
:100ce400000000000910090000070000807f0000d8
:100cf400e87c0000302a0020000000000000000012
:100d04000000000000000000000000000a100900bc
:100d140000070000887f0000fc7c0000342a0020cb
:100d240000000000000000000000000000000000bf
:100d3400000000001810230004090000f4790000ea
:100d4400a8720000b8290020000000000000000084
:100d5400000000000000000000000000f1102a0064
:100d640002090000607d0000a8710000ec29002049
:100d7400000000000000000000000000000000006f
:100d840000000000f8101b0000070000907f000026
:100d9400107d0000002a00209d6f0000000000006c
:100da400000000000000000000000000001c05001e
:100db40004080000bc7e0000247d0000282a0020d6
:100dc400000000000000000000000000000000001f
:100dd40000000000321c290020090000d45a000041
:100de4001c480000840200200000000000000000f5
:100df400000000000000000000000000331c290077
:100e040020090000d45a00001c49000040020020c0
:100e140000000000000000000000000000000000ce
:100e240000000000ffff00000000000000000000c0
:100e340000000000000000000000000000000000ae
:100e440000000000a029002016000000010000009e
:100e540053414d45353320457468657243415420f0
:100e6400536c617665000000302a00200400000005
:100e740001000000312e3000342a0020040000005c
:100e840001000000322e3000b829002014000000b8
:100e94000100000004000000d80400e055920000a6
:100ea4000100000001000000282a002006000000c4
:100eb400010000000400020104030000382a00209d
:100ec4000400000001000000891300002c00002031
:100ed4000800000000000000ea29002001000000d2
:100ee4000000000034000020e000000000000000ca
:100ef400140100200400000000000000180100207c
:100f04001600000000000000eb2900200100000092
:100f1400000000003c2a0020040000000000000043
:100f24003001002052000000000000008401002075
:100f34002800000000000000ac0100209400000024
:100f440000000000dc2900200d000000010000006a
:100f5400537562496e6465782030303000000000bb
:100f6400ec2900200c000000010000000200000039
:100f74000100000004000000400200208e00000078
:100f840000000000702a00200100000000000000a2
:100f9400712a00200100000000000000402a002007
:100fa4000400000000000000442a002004000000a7
:100fb40000000000482a0020040000000000000097
:100fc4004c2a00200400000000000000502a0020e9
:100fd4000400000000000000082a002008000000af
:100fe400010000000100000000000000102a0020a1
:100ff4000800000001000000010000002001006062
:10100400182a002008000000010000000100000070
:1010140000000000202a0020080000000100000059
:101024000100000020011070542a00200400000078
:101034000100000001000000582a00200400000004
:1010440001000000010001165c2a002004000000d9
:10105400010000000100001ad0020020202000003e
:1010640000000000722a00200100000000000000bf
:10107400f02200204d00000000000000402300206a
:101084000100000000000000602a002004000000ad
:10109400000000000c2900205000000000000000a7
:1010a400482300200c02000000000000642a0020f5
:1010b4000400000000000000682a00200400000072
:1010c400000000006c2a0020040000000000000062
:1010d40000000000000000002222222222222222fc
:020000040000fa
:1010e400f0b585b00023029301938c4a94898c4a0d
:1010f40095898c4a13808c4a1370022006f02efdc9
:1011040002688a4b1a80436803f00203002b0cbf69
:1011140003260126032006f021fd0368844a138078
:10112400426802f00202002a0cbf032201229bb291
:101134008049b1f800c00cfb02327f4909888a4219
:1011440004dd7e4800880844834277db7c480088bd
:10115400824204dd7b4a1288024493426edb734a66
:101164001788794a128806fb0272914204da734e98
:10117400368831448f4267db904204da714909882a
:101184000844874260db934202da63449f425bdb9c
:1011940004224ff4186103a804f062f9bdf80c307e
:1011a400039304224ff41a6102a804f059f90422ab
:1011b40040f6a4110deb020004f052f9019e574bc6
:1011c4005b88574a5188039a12f4106f00f0f68135
:1011d40012f4007f00f09d812c400ad014f0040f1b
:1011e40000f0998114f0080f03d112f4806f40f0dd
:1011f4009481029840b1494d2d69a842c0f08f8175
:10120400524da84200f28d8102f4c065b5f5c06f5d
:1012140021d000204e4c2478002c40f031824a4bdf
:101224001b88002b00f06b82002840f0b781414bf3
:101234001988002900f03382022363e2022103208b
:1012440003f0eafc1e2004e00221084603f0e4fc5b
:101254001d2005b0f0bd002e00f0ac818642c0f028
:10126400ab8114f0100f00f05e810120d2e7022b55
:1012740000f06381022900f06281032b40f0ac810d
:1012840034e2314b1b8833b12a4b1988002940f0d2
:1012940082810123a0e1274a1188003118bf01216e
:1012a4009ae1032122e241ea030292b2002a40f0c9
:1012b4000482284b1b78002b40f0dc811346911ede
:1012c40089b2012950d915494b80154b5a80002306
:1012d400214a1380214a1380214a138001285fd1b7
:1012e400029bf1189e42c0f0c080b1fbf3f082b2c1
:1012f40003fb1013002b40f04181511c174b198044
:10130400184b1a804fe0074a4ff4806414809a1ee9
:1013140092b2012a40f23a810a46d0e784020020c0
:10132400400200204e0100206c01002044010020f6
:1013340080010020660100202e02002024020020eb
:101344001c0200203602002038010020000050c397
:10135400c80200207901002040010020680100201b
:101364007c01002062010020a04901240c70a049e6
:10137400098811b99f4900240c809f494b809f49db
:101384004a8000219e4c21809e4c21809e4c2180cd
:101394009e4c21800128a3d0022b76d0032a02d0b0
:1013a400974b01221a800023994a13800093042248
:1013b4004ff48461684604f053f8009c8c4b1b88fe
:1013c40013b1a3b2002b64d1924b00221a80924b2a
:1013d4001b78002b40f0b780904b1b783bb1844bbb
:1013e4001b8823b1834a138843f48063138000234a
:1013f4008b4a13808b4a13808b4a13808b4a138049
:101404008b4a13708b4a13708b4a13807b4a138563
:10141400538582f84030784a1385538582f84030ea
:10142400039b13f4007f14d00299002900f08d80ef
:10143400824a914255d87a4a0120108013f4806f71
:1014440007d0019b994240f28480754b1a88774bf0
:101454001a80674b1b88002b53d1794b1b88002bb8
:1014640053d105f0aff90020f3e6674a012010805c
:10147400b1fbf3f082b2624c228003fb1013002b09
:1014840091d001325e4b1a808de75f4b01211980a8
:1014940084e70023009304224ff48061684603f03c
:1014a400dfff009b9ab2002a00f0d8800232a3b278
:1014b40046f2a71402fb0343db08624aa2fb0323a0
:1014c400c3f30f23534a13805f4a00211180002b7a
:1014d4003ff47daf504b1b78002b7ff47daf1f2072
:1014e400b7e64a095948a0fb0202d209520092b257
:1014f4005748a0fb0202d208494802809ee7012314
:1015040035e0022006f006f8a7e7032006f002f80b
:10151400a7e730209de630209be6302099e6362070
:1015240097e6362095e6302093e6302091e6302089
:101534008fe630208de630208be6302089e630209f
:1015440087e6292085e61f2083e613f4806f80d088
:10155400019b0b44394a9342d1d95b093b4aa2fb14
:101564000323db095b003a4aa2fb0323db082c4a72
:10157400128803eb52032d4a13806ae7224b1a8028
:101584007fe71a4a012414700a46f3e6174a012435
:1015940014700a46f1e6222101231de0284b198824
:1015a400002900f0a38012f4806f7ff47aae022148
:1015b400032399e000202de600202be6254a10782d
:1015c40000283ff45eae9a1e92b2012aadd98a1e5b
:1015d40092b2012aabd900201f4a1278002a7ff464
:1015e40062ae002b66d1292033e600bf71010020d2
:1015f400380100204e010020840200204002002017
:101604006201002040010020680100207c010020cc
:10161400cc020020760100207a010020790100200c
:10162400460100203c010020740100204c010020f0
:10163400500100206d0100204a0100201fa1070075
:101644006601002089b5f81434010020c55a7c0acb
:10165400cdccccccc80200203001002000232d4a80
:1016640013802d4a1380b2e62c4b4ff4806119800d
:10167400134624e62a4b19880029f5d10b4624e0a9
:1016840012f4806f30d1032b3ff453af03293ff49e
:1016940052af12f4007f3ff4eaad022b9cd1029bbf
:1016a400204a53625360204a5362536002231f4a04
:1016b400127812b900293ff444af1d4a0124147072
:1016c400174a1288002a7ff41eae1a4a12881ab1e9
:1016d400124a4ff4006414809a1e92b2012a7ff6d3
:1016e40050af0a46ebe50221032bd6d1029b0d4aeb
:1016f400536253600c4a536253600323d7e70d4986
:10170400098821b112f4806fedd00321c5e70b469f
:1017140062e700bf76010020340100204e01002062
:101724003801002084020020400200203001002003
:0817340079010020660100208c
:020000040000fa
:10173c002de9f0419b4b4ff6ff721a809a4b012218
:10174c001a7010f0100723d0984a137823f0100366
:10175c00137001270e4600f00f05944b1c7805eb17
:10176c00041404f0ff04442c00f0ba8000f2ad80a5
:10177c00222c00f0a4801ad9242c40f09d808c4996
:10178c008c4802f039ff8046002840f0b380a7e077
:10179c00864b1b7813f0100f04d000f00f02012ab7
:1017ac0040f0ad8203f00f03804a1370d2e7122c85
:1017bc0000f08580804b00221a80a4f11103772b56
:1017cc0000f25e82dfe813f0c5011601b7002802b3
:1017dc005c025c025c0228025c025c025c025c0241
:1017ec005c025c025c025c02af01c80128023a0197
:1017fc005c025c025c0228025c025c025c025c0221
:10180c005c025c025c025c02000128025c022802a1
:10181c005c025c025c0228025c025c025c025c0200
:10182c005c025c025c025c02a3018e012802c8010e
:10183c005c025c025c025c015c025c025c025c02ad
:10184c005c025c025c025c025c025c025c025c029c
:10185c005c025c025c025c025c025c025c025c028c
:10186c005c025c025c025c025c025c025c025c027c
:10187c005c025c025c025c025c025c025c025c026c
:10188c005c025c025c025c025c025c025c025c025c
:10189c005c025c025c025c025c025c025c025c024c
:1018ac005c025c025c025c029801830128027901f3
:1018bc005c025c025c02c801422c7ff47baf02200c
:1018cc0001f044fe1ffa80f810e0822cf7d004d906
:1018dc00842c05d0882c03d06ce7482c7ff46aaf9d
:1018ec00364b187801f032fe1ffa80f8b8f1000f71
:1018fc003ff460af2d4b1b78042b00f05181082b6b
:10190c0000f04a81022b00f04f81b8f1ff0f00f07c
:10191c006081264b187800f00f039d4200f09e81e9
:10192c00b8f1000f40f0d681002e40f09d811f4b86
:10193c001d70b046dbe1224b01221a70022001f02f
:10194c0005fe28b11e4b00221a704ff01508bbe1a2
:10195c00002005f039fd04f0d7f9804678b1b8f1d4
:10196c00ff0f00f0db81104b1b78bbb102f0a6fc23
:10197c00032006f0eefa124b00221a70c9e70a4b4c
:10198c0000221a7006f012fb80460028e7d10d4b9e
:10199c0001221a70032006f0dcfabae706f0c4fa4a
:1019ac00e4e700bf6e010020360100203701002063
:1019bc003801002066010020320100207e01002049
:1019cc00700100201a020020af4b1b783bb94ff07e
:1019dc00000806f0f5faad4b00221a70ace00020be
:1019ec00a94b187005f0f0fc02f068fc06f09cfaac
:1019fc008046eee705f0d4fda54b1b78002b00f0dc
:101a0c003a8104f081f9804648b1b8f1ff0f00f03b
:101a1c007881a04b1b7873b102f050fc79e79d4b99
:101a2c0000221a7006f0c2fa80460028edd19a4bbb
:101a3c0001221a706de706f077faede7fff74cfb21
:101a4c00804648b1b8f1ff0f00f06281914b1b78d2
:101a5c009bb103f093fc5ce78e4b00221a708f480d
:101a6c0006f0a6fa80460028ecd18c4b188805f0bd
:101a7c00c7fc8b4b01221a704be706f09bfae8e788
:101a8c0005f0d4f9804648b1b8f1ff0f00f0408161
:101a9c00804b1b7873b106f071f93ae77d4b00224d
:101aac001a7006f089fa80460028edd17d4b012290
:101abc001a702ee706f082faede706f07ffa06f0d0
:101acc005df94ff00008734b83f8008021e706f0b6
:101adc0075fa804606f052f96e4b00221a70b8f176
:101aec00000f29d106f066fa03f048fc4ff000080d
:101afc00684b83f800800ce706f060fa804606f02d
:101b0c003df9644b00221a70b8f1000f14d106f0a5
:101b1c0051fa804603f032fc5e4b00221a70b8f189
:101b2c00000f40f0ab8002f0c9fb06f0fdf98046d7
:101b3c00564b00221a702124b8f1ff0f7ff4e9ae46
:101b4c00594b01221a70594b1c80594bc8221a80d0
:101b5c004fe04e4b00221a7077b9564b1b7813f09e
:101b6c000c0f00f0af80544b1b884bb9534b1b88a8
:101b7c0063b94ff0fe08a7e0204606f022faece726
:101b8c00022005f0c3fc4ff0fe089de0032005f099
:101b9c00bdfc4ff0fe0897e006f010fa06f0eef8e8
:101bac0006f008fa03f0eafbb8f1160f03d0414b2c
:101bbc0002221a70a9e602f081fb06f0b5f90020aa
:101bcc0005f056fc012005f053fc3a4b01221a702b
:101bdc009fe6354b01221a70344b1c80242c16d0f6
:101bec0013d8123ce4b29442afd8314b4ff4fa62a2
:101bfc001a802f48b0f90030314981fb0321da17e4
:101c0c00c2eba1029b1a038079e0482c9dd1284b92
:101c1c0042f228321a80ece74ff0110879e6214b9a
:101c2c001b7853b9244b1b8863b9244b1b886bb9a5
:101c3c00b8f1000f52d1deb979e606f0bff906f023
:101c4c009df8efe7022005f013fcf1e7032005f007
:101c5c000ffcede7174b04221a7043e00021124be6
:101c6c00197002f0b7fb4ae0284310f0080fd6d1e8
:101c7c0045f010055be64ff051084ae641245be75e
:101c8c004ff0120820e000bf70010020c8020020b5
:101c9c00eb290020360100201a0200204e01002002
:101cac007801002072010020640100203201002024
:101cbc006e01002037010020380100206601002051
:101ccc00676666664ff0fe081b4b187800f00f0332
:101cdc00ab42c3d0284310f0080fa0d1164b1b7891
:101cec00082bb7d0144a137843f010031370134b1e
:101cfc0000221a704146104b187802f06bfbbde8bd
:101d0c00f0810e4b01221a700d4b12221a806ce7d7
:101d1c000a4b01221a700a4b1c8078e7032006f04c
:101d2c0018f9084b00221a70044b01221a70044b4c
:101d3c0013221a8059e700bf3701002064010020ec
:081d4c003201002070010020ab
:020000040000fa
:101d54002de9f04f8bb004900c4616461d46ddf875
:101d640050809df854b01ffa81fa9b89c3f3032273
:101d74000692d9b20591072a00f04182ab6993f823
:101d84000090b9f1000f40f05982a0f5e053103be8
:101d94009bb21f2b40f25082a0f5b0539bb2b3f517
:101da400007fc0f05682a0f5d0539bb2b3f5007ffc
:101db400c0f052824ff23003984208bf89463de298
:101dc40074b3d146049aa2f5e053103b9bb21f2b87
:101dd40012d9a2f5b0539bb2b3f5007f0cd3a2f590
:101de400d0539bb2b3f5007f06d34ff230039a422f
:101df40002d00023089305e0ab691b78003318bfb9
:101e0400012308932f6a77b1cdf800b043463246d8
:101e140021460498b847039003980bb0bde8f08faf
:101e2400d1460894eee7002e00f0aa81ca4500f2dc
:101e3400aa8154460723039300230793049ba3f525
:101e4400e053103b9bb2099337e1102a44d0202a77
:101e540040f060811ee0022b18d81bb2002b40f02a
:101e6400b280bbf1000f00f097817b8813f00f0f55
:101e740005d0184410f00f0f08bf08f10208c3f38f
:101e8400031308eb43080123079311e1032b23d029
:101e9400042b1cd110f00f0f40f08a81089b5bb11a
:101ea4003288b8f800309a4240f085817288b8f8d8
:101eb40002309a4240f08281b8f800303380b8f89a
:101ec4000230738008f1040801230793f0e018231b
:101ed4000393a1e7072bddd210f00f0f40f06281ce
:101ee400b8f80070089b1bb13388bb4240f05d8199
:101ef400099b1f2b00f29380a7f5b0539bb2b3f557
:101f0400007fc0f09780a7f5d0539bb2b3f5007f54
:101f1400c0f09080002f00f08d80122303937be7a4
:101f24000b2b00f2368110f00f0f40f050817a88ad
:101f34000732d2104146304605f05bfe7b881b0910
:101f440008eb430801230793b2e02d2b3bd026d89e
:101f54001e2b38d01bd8152b01d01b2b14d110f0fd
:101f64000f0f40f02e81b8f800303380b8f80230fb
:101f74007380b8f80430b380b8f80630f38008f101
:101f840008080123079393e01823039344e71f2bc6
:101f9400a2d0202b3ff47eaf182303933ce7372bca
:101fa40009d8302b0fd22e2b96d02f2b3ff472afa3
:101fb4001823039330e7a3f518739bb2032bb2d90c
:101fc4001823039328e77a88a54b33f8122000f0ee
:101fd4000f0c02fa0cf1338823ea01031bb2bbf1a4
:101fe400000f10d09bb2b8f8002011400b4333808f
:101ff4007b88184410f00f0f40f0b28008f10208fb
:102004000123079354e0b8f8001031ea020e40f0bf
:10201400c6800a4002fa0cf213439bb2e7e7049b22
:10202400a3f5e153123b9bb2012b03d8012c07d03b
:10203400082c14d0378008f102080123079337e0f5
:102044003388bb4207d03946049801f059fe039007
:1020540000287ff4e1ae834b01221a70eae7824a3a
:1020640000235361814911615360814a53611161b5
:10207400536017f0020fddd07b4a5385138582f835
:1020840040307b4a5385138582f84030d2e7002cd8
:1020940061d07b8813f00f0f05d0184410f00f0f98
:1020a40008bf08f102081b0908eb4308182303932f
:1020b400631c9bb24c4556d01c46e6b231462846ba
:1020c40005f014fc07462946304603f0d3fbba88d2
:1020d400684b1b7803ea920313f00e0fd7d0ae6956
:1020e400002c7ad0c0f30f1306eb4306a24506d0aa
:1020f400bbf1000fdcd0a245dad8002c70d03b88ad
:10210400b3f5e06f06d37a88082a3ff69eae02f153
:102114002f039bb2112b3ff422af3ff616af052bd2
:102124003ff451af7ff697ae082b7ff6d3ae092b61
:102134007ff4f6ae10f00f0f46d17a880732d21032
:102144004146304605f055fd7b881b0908eb4308e2
:1021540001230793ace708f1020818230393a7e7c8
:1021640001230793a4e7079b002b039b18bf0023bd
:10217400039351e6112303934ee61a2303934be68c
:102184000023039348e60723039345e613230393ad
:1021940042e6182303933fe6182303933ce61223f5
:1021a400039339e60523039336e61c23039333e6ae
:1021b4000523039330e61c2303932de61c2303938a
:1021c4002ae60523039327e60523039324e6052340
:1021d400039321e6052303931ee6baf1000f87d18a
:1021e400069b072b8bd0b8f80030dab205999142e0
:1021f400ccd3338008f102080123079358e7bbf1dd
:10220400000fe7d14ff00009ca45b3d8214628464c
:1022140005f06cfb8288174b1b7803ea920313f0da
:102224000e0f7ff4cdad12f0380fa6d1002a0cbfeb
:10223400052307230393efe5ddf81490bbf1000faa
:10224400e2d0002c7ff4bead0eb198f80090089453
:10225400d8e5ddf81490f1e7ddf81490eee700bf5f
:10226400947a0000c802002084020020a0860100a5
:082274004002002037010020a8
:020000040000fa
:10227c002de9f04f89b08046049114460293129dcb
:10228c009df84ca01ffa81f919469b89c3f30322d0
:10229c000792dbb20693072a00f06d81b0f5805fe0
:1022ac00c0f063818b6993f800b0baf1000f10d0c5
:1022bc00cdf818b0029bde6986b1cdf800a02b4694
:1022cc00224604994046b0470390039809b0bde8f4
:1022dc00f08fcdf818b051e1cb46ebe7b8f5805f45
:1022ec0004d2049b83b903934c4605e0cb4508d339
:1022fc004c460023039304930027cdf814a0c24648
:10230c00cee100230393e0e7049e3146029c204675
:10231c0005f0e8fa42880732d21006f18041013903
:10232c00a36953f8211011f0010f22d094b221f0bf
:10233c0001026608012c0dd9002113881b0a2b8081
:10234c0032f8020f43ea002325f8023b01318bb22d
:10235c00b342f2d314f0010f00f0ec802b8803f49d
:10236c007f432b80128843ea12232b800023039394
:10237c00abe70b882b804b886b80043a0431281d0b
:10238c0005f033fc002303939fe7079b072b00f01a
:10239c002781069b25f8023b7de1bcf1100f34d060
:1023ac00bcf1200f40f02f811de0022b17d81bb27f
:1023bc00002b40f08580059b002b00f0c1807388ba
:1023cc0013f00f0f04d0984418f00f0f08bf02350c
:1023dc00c3f3031305eb4305012304935be1032bc8
:1023ec0013d0042b0cd118f00f0f40f0af8032f843
:1023fc0010302b804b886b800435012304934ae109
:10240c001823039361e7072bedd218f00f0f40f060
:10241c009a8032f8103025f8023b012304933ae1fc
:10242c000b2b00f28a8018f00f0f40f09580728809
:10243c000732d210284605f0d8fb73881a0905eb31
:10244c00420513f00f0f62d02b782b8001230493dd
:10245c0021e12d2b34d020d81e2b31d016d8152ba2
:10246c0001d01b2b0fd118f00f0f72d132f8103096
:10247c002b804b886b808b88ab80cb88eb800835ae
:10248c000123049307e1182303931ee71f2bbcd0f1
:10249c00202ba8d01823039317e7372b08d8302b01
:1024ac000ed22e2bb1d02f2b9dd0182303930ce7db
:1024bc00a3f518739bb2032bb5d91823039304e728
:1024cc0008f00f0c7388854931f8133003fa0cf3bc
:1024dc009bb232f81000bcf1000f00d12f802a887b
:1024ec00059959b1034013432b807388984418f015
:1024fc000f0f09d1023501230493cce0034043faba
:10250c000cf313439bb2efe701230493c3e00123c5
:10251c000493c0e001230493bde0049b002b039bb8
:10252c0018bf00230393d0e611230393cde60523b4
:10253c000393cae600230393c7e618230393c4e668
:10254c0018230393c1e605230393bee605230393e7
:10255c00bbe605230393b8e605230393b5e60523f1
:10256c000393b2e605230393afe6baf1000f05d04f
:10257c0005230393a9e6baf1000ff3d1069b4b4553
:10258c00d2d30499029805f0adf98388002bced0f4
:10259c00534a127802ea430212f00e0f7ff49caefb
:1025ac0003f00703002b0cbf06231a2303938ce6be
:1025bc00e1b2029805f096f906468288484b1b78e2
:1025cc0003ea420313f00e0f43d0b846a14504d0e2
:1025dc00059b002b5fd0a1455dd8002c3ff4d5aef8
:1025ec00029b9a69c8f30f1002eb40013388b3f5d4
:1025fc00e06f08d3b6f802c0bcf1080f3ff6cdaec1
:10260c000cf12f039bb2112b3ff42daf3ff621aff2
:10261c00052b3ff455af7ff6c8ae082b7ff6f3ae13
:10262c00092b7ff4fdae18f00f0f98d1728807328a
:10263c00d210284605f0d9fa73881a0905eb420521
:10264c0013f00f0f3ff466af2b782b80012304930c
:10265c0021e0b8462f80738813f00f0f05d09844f3
:10266c0018f00f0f04bf6f800235738813f0f00f52
:10267c0009d03b4625f8027f0133dbb27288c2f3e6
:10268c0003129342f6dbb38803f00703002b0cbf55
:10269c0006231a2303930134a4b2a345fff43dafe0
:1026ac00002c85d0baf5805f82d3e6b20299304611
:1026bc0003f0dcf880463146029805f013f9064623
:1026cc008288074b1b7803ea420313f00e0f7ff44a
:1026dc007daf18f00f0fbed1bce700bf947a00009d
:0426ec003701002092
:020000040000fa
:1026f00038b50388052b40f25b81991f89b20446e7
:10270000c388013b052b00f2e880dfe803f0032dce
:102710004662acbba94b1b8813b148f2040363e0cb
:102720000c306289238943ea0243024605f0a6f889
:102730000346a34a0021116047f69572904205d8de
:10274000a04a01211160a04a1060b0e047f6fa7279
:10275000904200f2f18000229a490a609a490a6088
:10276000964a01211180bee0944b1b8813b148f2b8
:10277000040339e04289038943ea02420c3005f040
:1027800023fa034628b98f4b00221a6047f6fd73df
:10279000d9e08c4a0021116085e0884b1b8823f02a
:1027a00004039bb2022b02d048f204031ce04289ce
:1027b000038943ea0243834a12689a4202d048f2ec
:1027c000050311e00c3004f0abfd03460028ddd01a
:1027d00069e07a4b1a88012a30d047f6fe7148f238
:1027e0000403042a08bf0b4613f4004f00f0c38013
:1027f00000220521a171e2712381a272e2720623f7
:102800002370627004f10c01a38913f0ff0f00f034
:10281000d18013f47f4f00f0cf8002235a0831f8a3
:10282000122012f0ff0f00f0b28012f47f4f00f080
:10283000aa800233dbb2202bf0d1aae0624d00f176
:102840000c01286805f006f903462a685c490a600d
:1028500047f69571884242d802442a6059490a686d
:1028600001320a6023e0554b1b8813b948f2040378
:10287000bae74089238943ea004005f0c3fa47f6e6
:10288000ff73b1e74d4b1b88012b04d0042b02d002
:1028900048f20403a8e704f10c02494b19682089a7
:1028a00005f02afb034647f69572934217d8454a2e
:1028b00012680321a1710021e1712281c2f30f424c
:1028c00062819a1d2280414a12880c3a93423b4b06
:1028d0000cbf012204221a8011e048f2040347f6db
:1028e000fa72934228d800220621a171e271a3f561
:1028f000ff43163b2381a272e27221706270344b57
:102900001d78002d49d0a388c3f30b03a380314a5f
:10291000127812f0070f02d12e4a012111702d49b1
:102920000a7843ea0233a38001320a70204602f09b
:10293000d5fe0023184638bda3f5ff427c3a92b27b
:10294000012a3ff651af1f490a68501c0860002158
:102950000420a071e1712281c2f30f42628106223c
:102960002270617047f6fd729342144b0cbf022235
:1029700000221a80c3e70025104b1d80204602f07c
:10298000c9f92b46d6e70133dbb21f2b01d8073339
:1029900023800a4b00221a80b1e74021204603f031
:1029a00045fc03460028c5d00b4b1c602b46c1e7f5
:1029b0000623bfe70023eae70123e8e71c01002024
:1029c00028010020200100201801002024020020fe
:0c29d00070010020ac0100202401002058
:020000040000fa
:1029dc00f0b585b0044600238df80f30058905f05d
:1029ec007f05052d0fd00388072b40f23c81032d6a
:1029fc000dd0052d0bd0012d40f010818389052bb6
:102a0c0010d9022122e10388092b40f22a81a389e3
:102a1c0098b2adf80c30b0f5805f77d205238df805
:102a2c000f30fee0924d00686168a26807c5a2896c
:102a3c002a8013f0ff030ed100258e4b1d8004f16c
:102a4c000c06e8b204f0a6f826f8020f0135052da5
:102a5c00f7d1122022e0013bddb2864b1988002908
:102a6c0035d0854b1a880c3a92b204f10c0383488a
:102a7c000088adf80c0001397e4801800df10f0182
:102a8c00009103a9284603f041fa7c4bbdf80c20b9
:102a9c001a80794b1b88063b181a80b220809df84f
:102aac000f30002b40f0bd80238923f07f0242f0d1
:102abc00020222816f4a12886281002a00f0d580be
:102acc0023f0ff0343f0820323818221bee02846da
:102adc0004f060f84ff48053adf80c30664b198855
:102aec00a1f10e0292b204f10e034000904209ddf6
:102afc000c398eb2811a701e014491fbf6f15d48bf
:102b0c000180bbe75b4900200880b7e704f0acff0d
:102b1c00064600287ed0032d0bd0e789ffb205f0c6
:102b2c0041fa4388dbb29f4232d911238df80f3022
:102b3c0077e005f037fa0368c4f80e30002332460c
:102b4c001946bdf80c0002f0c5fa4b4b1b88053b2f
:102b5c000c3080b283420fdc0c229df80f30002b1e
:102b6c005fd1a372e3722280238923f07f030135a6
:102b7c001d432581022169e004f112033246002134
:102b8c00bdf80c0002f0a6fa00f10c0292b2e4e7d8
:102b9c003946304604f0a6fe036823618388a3827d
:102bac00e389dbb2e381304605f0fcf94388c3f3db
:102bbc000323083b9bb2012b0fd877b9304a166818
:102bcc0050689168c4f81660c4f81a00c4f81e1056
:102bdc00127b84f822201c22bfe7002332463946a0
:102bec00bdf80c0002f076fa234b1a88053a00f176
:102bfc0010039bb29a4201dc1022aee704f11603db
:102c0c0032463946bdf80c0002f064fa00f11002ad
:102c1c0092b2a2e708238df80f3002e003238df85f
:102c2c000f309df80f1000220a2323706270238945
:102c3c0023f07f0343f007032381a272e272114b4e
:102c4c0053f82130e3600b4b1a800221204603f02d
:102c5c00e7fa034610b10c4b1c600023184605b074
:102c6c00f0bd0623fae70623f8e70221eee700bfe2
:102c7c00242300201023002024020020f022002016
:0c2c8c00dc29002050670000140100202b
:020000040000fa
:102c98002de9f04f85b081469046002302930193b9
:102ca8008df803308df8023001f0030502f00307b8
:102cb8002f4417f0030f04d03b1d03f00c03df1b58
:102cc800ffb208eb05043c44a4b27f2c06d963008c
:102cd80003f4fe43e4b21c4344f08004adf80c1046
:102ce800adf80e80042203a94ff4427002f08af86e
:102cf8004ff000430393042203a94ff4437002f0fa
:102d080081f804f0c5ff0b238df8083000238df8f7
:102d1800093004238df80a30794e7368db689847c8
:102d28000028fad1764b5b681e68032301aa19466e
:102d380002a8b04704f07aff714e7368db689847c1
:102d48000028fad16f4b9df805201a709df80620cf
:102d58005a708df803406a4b5b685b6801210df17e
:102d68000300984704f062ff654e7368db68984774
:102d78000028fad1b8f17f0f11d9240a8df8034041
:102d88005f4b5b685b6801210df10300984704f015
:102d98004dff5b4c6368db6898470028fad15a4bb3
:102da800de78574c4ff0010a0ce063689b68514687
:102db8000df10200984704f039ff6368db68984713
:102dc8000028fad1013ef6b2ff2eeed14c4cdff8c6
:102dd80038b100e035466e1ef6b225b363689b68cd
:102de80001210df10200984704f020ff6368db68b9
:102df80098470028fad1002eecd09bf804504ff0e9
:102e0800010a013dedb2ff2de4d063689b6851468d
:102e18000df10200984704f009ff6368db689847e2
:102e28000028fad1ede7364cdff8dca000e0b04628
:102e380008f1ff36b6b2b8f1000f31d0b6fa86f312
:102e48005b095b428df8033063681d6801230df14f
:102e5800020219460df10300a84704f0e7fe636873
:102e6800db6898470028fad19df8023009f8013b41
:102e7800002edcd09af804504ff00108013dedb265
:102e8800ff2dd4d063689b6841460df10200984736
:102e980004f0ccfe6368db6898470028fad1ede7b8
:102ea800174c194e00e02f467d1eedb21fb3636824
:102eb8009b6801210df10200984704f0b7fe636892
:102ec800db6898470028fad1002decd037794ff00d
:102ed8000108013fffb2ff2fe5d063689b684146b8
:102ee8000df10200984704f0a1fe6368db6898477b
:102ef8000028fad1ede704f0c1fe05b0bde8f08f77
:0c2f0800cc290020000000205c290020e3
:020000040000fa
:102f140038b5804b1b78002b68d07f4bb3f9003059
:102f2400002b6bd17d4b1b88c3f30714242b32d0a9
:102f340011d8123b9bb2012b00f2e680784b1b7830
:102f440033b301f0bff9774b1b78002b00f0de8020
:102f5400754b1d8815e0482b12d1744b1b78002b40
:102f640029d0734b1b78002b30d0724b1b78002b6d
:102f74003dd1714b1b88002b0cbf1a251b2526e065
:102f84000025002c32d0634b00221a7055b327e081
:102f940004f0ceffd5e7624b1b784bb102f0f2f997
:102fa400604b1b78002b00f0b3805f4b1d88e8e773
:102fb40005f004f8f2e7604b1d88d5b95f4b012298
:102fc4001a70544b00221a7008240be02d25544b20
:102fd4001b7883b104f0d6fe44b14e4b00221a7024
:102fe40044f010042946204601f0f8f938bd1a25aa
:102ff400ede71b25ebe704f0e5ffebe7474b1b8808
:10300400242b46d01bd8123b9bb2012beed8444b49
:103014001b78002bead0424b00221a7004f0caff3e
:10302400054600282ed1464b01221a703b4b1c78d2
:1030340014f00f04dad0374b00221a70d2e7482b71
:10304400d4d1374b1b78002bd0d0384b1b78002bb6
:1030540040d03c4bb3f90030002bc7dd3a4ab2f9fb
:1030640000209a42c2db0023364a1380364a13807a
:103074002b4a137004f0a4ff28bb304b01221a70b2
:10308400082415e0ff28b1d004f052ff01f01af92a
:10309400ace7234b1b78002ba8d0214b00221a70dd
:1030a4002a4804f089ff38b9294b01221a700424f4
:1030b4000025184b1d7095e7ff2897d004f07eff7c
:1030c40002f060f992e7ff2890d004f07bff04f04f
:1030d40059fe8be7184b1b881bb1164b1b78002b32
:1030e40084d00f4b00221a7004f06aff20b9134bee
:1030f40001221a700824dbe7ff283ff477af04f0bd
:1031040061ff04f03ffe71e700253ae7012563e71c
:10311400012561e7640100206e01002032010020d6
:10312400360100203e0100203a01002071010020f8
:10313400500100206c0100203801002072010020a1
:103144001a0200204a010020420100204e01002002
:0431540078010020de
:020000040000fa
:103158002de9f04f85b081460d4690460023029335
:1031680001938df803308df80230adf80c10adf8ee
:103178000e20042203a94ff4447001f043fe4ff0df
:1031880000430393042203a94ff4457001f03afe6b
:1031980005f0030505eb080717f003071cbfc7f187
:1031a8000407ffb204f074fd02238df808300023f1
:1031b8008df8093020238df80a30654c6368db6888
:1031c80098470028fad1624b5b681c68032301aa60
:1031d800194602a8a04704f029fd5d4c6368db6826
:1031e80098470028fad15b4b9df805201a709df886
:1031f80006205a70584b9e7c554c4ff0010a013ef0
:10320800f6b2ff2e0dd063689b6851460df102009f
:10321800984704f00bfd6368db6898470028fad1eb
:10322800ede74b4cdff830b100e035466e1ef6b2e4
:1032380025b363685b6801210df10300984704f02a
:10324800f5fc6368db6898470028fad1002eecd0bb
:103258009bf813504ff0010a013dedb2ff2de4d069
:1032680063689b6851460df10200984704f0defc44
:103278006368db6898470028fad1ede709f1ff3960
:10328800334cdff8d4a000e0b04608f1ff36b6b200
:10329800b8f1000f28d019f8013f8df803306368a2
:1032a8005b6801210df10300984704f0bffc6368d7
:1032b800db6898470028fad1002ee5d09af8135019
:1032c8004ff00108013dedb2ff2dddd063689b682a
:1032d80041460df10200984704f0a8fc6368db68da
:1032e80098470028fad1ede7194c1b4e00e02f460d
:1032f8007d1eedb237b300238df8033063685b6839
:1033080001210df10300984704f090fc6368db6825
:1033180098470028fad1002de9d0f77c4ff0010832
:10332800013fffb2ff2fe2d063689b6841460df171
:103338000200984704f07afc6368db689847002825
:10334800fad1ede704f09afc05b0bde8f08f00bfb4
:0c335800cc290020000000205c2900208f
:020000040000fa
:10336400f0b585b00023039304224ff4a06103a8b1
:1033740002f076f8039c002c01db05b0f0bd04f0ec
:10338400e064042240f204510deb020002f068f8fc
:103394000198039b23f0e0430393b4f1807f28d08a
:1033a40018d9b4f1007f42d0b4f1806f40f0bf80ef
:1033b400614b1b88082b5ad0604b1b68002b00f014
:1033c400a0809847002800f09780039b43f00053a7
:1033d400039302e0002c40f0aa80594b00221a808b
:1033e400039b029304224ff4a06102a802f0e8fcbc
:1033f400c3e7544a12683ab190470028edd0039bc2
:1034040043f000530393e8e7b0f5006f0bd84e4a3e
:10341400146844b1484b1a884ff4a16104eb40008e
:1034240002f0cefcd9e743f000530393d5e7474ab3
:10343400126852b1904718b1039b43f000530393b1
:10344400434b4ff47a721a80c7e7b0f5006f0ad87d
:103454003d4a14683cb102224ff4a16104eb4000e0
:1034640001f0feffece743f000530393e8e7354d2a
:10347400354e314f2ce0039b43f000530393ace7ec
:103484003368002b33d03a884ff4a16103eb40003a
:1034940002f096fc039b23f0f0430393029304226f
:1034a4004ff4a06102a802f08bfc04224ff4a06147
:1034b40003a801f0d5ff039c04f0e064042240f269
:1034c40004510deb020001f0cbffb4f1806f84d105
:1034d4000198b0f5006fced82b68002bd0d0984758
:1034e4000028d7d0039b43f00053039375e7039b55
:1034f40043f00053039370e7039b23f000630393ab
:103504006be704f055fd68b90f4b186850b10422fd
:103514004ff4a161103002f053fc039b23f00063cd
:1035240003935ae7039b43f00063039355e743f087
:103534000053039351e700bfa200002004010020c0
:10354400a000002040000020f800002044000020db
:043554000c01002046
:020000040000fa
:10355800704b1a8841f6fe739a4240f2d78070b5d4
:103568000446002004f0f8fa436813f4803f03d0bf
:1035780003f00c02042a01d0162070bd13f0020fcc
:10358800fad00268130c223b9bb2de2bf4d8a2f5ca
:1035980080539bb2b3f5805feed2012004f0dcfad1
:1035a800436813f4803fe7d013f00c0fe4d113f015
:1035b800020fe1d003681a0c223a92b2de2adbd855
:1035c800a3f580539bb2b3f5805fd5d2032c14d8f2
:1035d800032c44d0504b1b78a34240f299804f4ea5
:1035e8004d4d204604f0b8fa436833600134e4b224
:1035f8002b78a342f5d80020bfe7494b01221a7067
:10360800032004f0a9fa0268130c406810f4803f04
:103618003ad0002b3ed043490988994201d0032172
:1036280039e0013b9bb2432b3ad810f00c0f39d14b
:1036380092b23d4b1978022905d03c4b1b88934226
:1036480007d0022127e0a2f5805293b2b3f5805f3c
:1036580021d210f0020f02d0314b00221a70022042
:1036680004f07afa0268130c406810f4803f42d0e4
:10367800002b47d02e490988994215d003210220f2
:1036880001f0c8fa1d2078e7264a12881343e6d0cd
:10369800032100e00421032001f0bcfa1e206ce79e
:1036a8000321f8e70421f6e7013b9bb2432b2bd813
:1036b80000f00c03042b01d00421e0e792b21a4b6e
:1036c8001978022905d01b4b1b88934207d0022189
:1036d800d5e7a2f5805293b2b3f5805fcfd2c0f39d
:1036e8008012154b1a7010f0020f3ff473af0c4b99
:1036f80000221a706ee70e4a128813433ff46aaf2d
:103708000321bce70421bae70321b8e71420704776
:10371800002032e76a0100207e0100203c2a0020b8
:1037280030010020660100203701002080010020c0
:0c37380038010020440100207a0100202c
:020000040000fa
:103744002de9f04f87b0039003a803f08bfd002808
:1037540003da002007b0bde8f08f039b1b095d1e50
:10376400202d0fd9023b5e4ab3f5007f35bf02eb33
:10377400d30302ebd31313f8045c13f8045c34bfd3
:10378400013511350123a5f12001c5f1200203fa09
:1037940001f923fa02f203fa05f8d8f1000849ea1c
:1037a400020969eb4909cde90089dff84081dff8b6
:1037b40030914746d8e90023009902ea010a0199a9
:1037c40003ea010b5aea0b0342d1039b05a8103309
:1037d400059304f003fa18b9424b0c221a60b9e7b6
:1037e400d8f80852a84206d0059b103b0593012344
:1037f40000f110058360059bea18012143f00103e1
:10380400b5f1080442f8083c42f8041cc7f8082241
:1038140045f8043c9dd0204603f00eff88b155f8ce
:10382400083c55f8041c23f00103e31a5a6822f0fb
:1038340001020a445a6055f8041c21f00101625047
:103844001c462046039903f00fff04f1080081e7aa
:103854005446254bbaf1000f34d1cbf1000000eaf5
:103864000b00434309ebd36393f83c6020363046a6
:1038740004f01ef9731c57f8334007ebc303083bed
:103884009c4297d0272e26dd0235ae4201dc3f2e26
:1038940021d16268039922f00102551a284603f0e7
:1038a400cffd864217d1e068a6686318d8609e6091
:1038b40083609868c36041f0010060505d60a5506a
:1038c4006060bee7caf100002040434309ebd363c4
:1038d40093f83c60cbe73146204603f033f9b0e778
:1038e400ec6a0000682a002029e66b0748230020c0
:020000040000fa
:1038f40010b5564a536803f47063d26912f0010f8d
:1039040031d0524ad06852494a69c9688a422ad297
:103914006bb94f4b5968541c5c6188544b4bdb6941
:1039240013f0020f3fd0494b02225a6125e0484b65
:103934005968541c5c6121f81200444bdb6913f094
:10394400020f30d0414b02225a61414a9369926876
:10395400934245d23e4a1168581c906131f81320b5
:103964003a4b1a6115e0394ad26912f0020f1ad0a3
:10397400364a02215161002be7d1354a9369926896
:10398400934221d2324a1168581c9061ca5c2f4b71
:103994001a612f4b9a699b689a422cd02c4b5a6916
:1039a400db689a422cd02b4b1b7863b1274bdb6925
:1039b40013f0040f04d0264b5a69db689a4225d0d1
:1039c400224b04229a6110bd214b1b69002b30d07d
:1039d4001e4bff221a611e4a1369013b1361d8e78b
:1039e4001b4b1b692bb3194bff221a61184a13692d
:1039f400013b1361cde7164b1b69002bced11de0b3
:103a0400124b01225a6102229a61cce7104b002228
:103a14001a770e49072048610e490a701b6a002b69
:103a2400d1d00b4a506a98470a4b1b78002bc7d158
:103a3400c9e7074b9a699b689a42afd1054b0122ab
:103a44001a70024b044a1a60ade700bf003400420a
:0c3a540004000020e9290020020000010d
:020000040000fa
:103a600030b583b04ff48033019302f035fe4b4bf9
:103a70001b78002b3cd102f0afff044610f0200f62
:103a80003ed114f0010f4ed0454b1b78002b3ad09d
:103a900014f0100f5fd1424b1b78002b5bd13f4bd2
:103aa0001b781bb3019b13f4803f57d014f4007fa5
:103ab0005cd1019b13f4003f63d03a4b1b7883b970
:103ac00002f05aff374b1b78002b5fd0019b43f06d
:103ad00000730193042240f60c010deb020002f08a
:103ae00071f902f079ff10f4807f53d103b030bd3b
:103af000042240f60c010deb020001f0b3fcbae722
:103b0000fff730fcbde70025009504224ff49071cb
:103b1000684601f0a7fc24f01104a4b229469df8e0
:103b20000000fdf70bfe14f0100fb4d01c4b1b78f7
:103b30008bb91d4b187810f0100fb0d120f0100386
:103b4000012bacd024f01004a4b2002100f00f002f
:103b5000fdf7f4fd9fe7fff7ddf9a0e7124b1878ba
:103b6000002100f00f00fdf7e9fd9fe70f4800235b
:103b7000036004220e4b198802f024f902f00ef8bb
:103b800097e7084b1b78002babd099e7019b23f0fc
:103b900000739ee700f0c2ffa8e700bf1a020020f2
:103ba0006401002038020020370100205401002069
:043bb0002e020020c1
:020000040000fa
:103bb4002de9f04186b00e468df807200023adf8bc
:103bc400163004938df80f308df80e300b238df8da
:103bd4001430030a8df815308df8160004f05af8e5
:103be400444c6368db6898470028fad1414b5b6812
:103bf4001c68032304aa194605a8a04704f018f872
:103c04003c4c6368db6898470028fad13a4b9df82e
:103c140011201a709df812205a70364b5b685b684d
:103c240001210df10700984704f002f8314c636854
:103c3400db6898470028fad1304bdd782d4c0127fa
:103c4400013dedb2ff2d0dd063689b6839460df13f
:103c54000e00984703f0ecff6368db689847002880
:103c6400fad1ede7234c254f1be03d794ff00108d5
:103c7400013dedb2ff2d0dd063689b6841460df107
:103c84000e00984703f0d4ff6368db689847002868
:103c9400fad1ede79df80730013bdbb28df8073030
:103ca4001bb39df80730012b4ff0ff3318bf0023df
:103cb4008df80f3063681d6801230df10e0219465b
:103cc4000df10f00a84703f0b3ff6368db68984762
:103cd4000028fad19df80e3006f8013b9df8073014
:103ce400012bc2d100238df8073003f0c9ff06b0c1
:103cf400bde8f081cc290020000000205c290020d0
:020000040000fa
:103d0400222913d8dfe801f07f144b651212121236
:103d1400121212121212121212121212121212127f
:103d240012121212121212121212390012207047b9
:103d340041f63243984213d041f63343984266d158
:103d4400394b9b8913f0020f63d0384b1b88002b2f
:103d540061d1374b1b88002b0cbf12200020704709
:103d6400324b1b88002b50d0324b9b8903f002034b
:103d7400002b0cbf12200020704741f633439842b9
:103d840001d012207047284b9b8913f0020f44d0b6
:103d9400264b1b88002b0cbf12200020704741f6d5
:103da400324398420cd041f63343984237d11e4bec
:103db4009b8903f00403002b0cbf122000207047e2
:103dc4001c4b9b8903f00403002b0cbf1220002022
:103dd400704741f6324398420cd041f6334398423f
:103de4001fd1114b9b8903f00803002b0cbf122039
:103df400002070470f4b9b8903f00803002b0cbf76
:103e040012200020704700207047122070471220b3
:103e140070471220704712207047122070471220fa
:103e240070471220704700bf400200203801002074
:083e3400660100208402002059
:020000040000fa
:103e3c0030b40c46002930d000282ed04449097fdc
:103e4c0000297bd1424908604a6000254d618d6193
:103e5c000d613f498c60002a72d03d4ad36001212c
:103e6c0011773c4ad268a34282bf1a1b38490a61b7
:103e7c001a463849496811f4706f38d1002c2ad091
:103e8c000178344a116132498a6901328a61002b06
:103e9c0048dd01202f4b98614ae0002b47d0002ac7
:103eac0048d02b49097f002946d1294908604a602e
:103ebc0000254d618d610d610028cad12c468d60a5
:103ecc00002acad122490022ca6001240c77214958
:103edc00c9681446cde71e4a1269002ad7d01d4a7c
:103eec00ff2111611a490a69013a0a61cfe7640896
:103efc0017498c600d696d080d615208ca603cb1a0
:103f0c000188144a116112498a6901328a61bee73b
:103f1c00002dbcd00f4aff2111610d490a69013aed
:103f2c000a61b4e70b4b02229a61012000e00020e9
:103f3c0030bc70470020fbe70020f9e70020f7e7d2
:103f4c0003490022ca6001250d770249c96890e730
:083f5c000400002000340042c3
:020000040000fa
:103f640030b583b000230193042211460deb020007
:103f740001f076fa019b2a4c1a0a22701b0c9b0250
:103f840003f6ff73274a138003f00efb23784bb12b
:103f94000024234de0b203f06ffa01342a78e3b22f
:103fa4009a42f7d801f000fc00241f4b1c701f4bf1
:103fb4001c701f4b1c701f4b1c701f4b1c701f4b25
:103fc4001c701f4b1c701f4b1c801f4b1c801f4bf5
:103fd4001c801f4b1c801f4b1c801f4b1c801f4bc5
:103fe4001c701f4b1c701f4b1c801f4b1c801f4bd5
:103ff4001c801f4b1c8001201e4b1870214600f0b2
:10400400edf91d4b1c801d4b1c701d4b1c7003f0e7
:104014004dfa03f0adfe204603f0daf903b030bdeb
:104024007e0100206a01002070010020360100207a
:10403400640100206c01002072010020780100203e
:104044007a01002076010020340100203c01002088
:1040540046010020740100204c0100207101002061
:104064003e0100203a0100204e01002038010020ca
:104074006601002037010020320100207f0100206a
:04408400790100209e
:020000040000fa
:104088002de9f04385b00f4616460023adf80e30f3
:1040980002938df807308df8063003238df80c3025
:1040a800030a8df80d308df80e0003f0f1fd394c40
:1040b8006368db6898470028fad1364b5b681c6850
:1040c800032302aa194603a8a04703f0affd314c09
:1040d8006368db6898470028fad12f4b9df80920c0
:1040e8001a709df80a205a702c4b1d78294c4ff0f5
:1040f8000108013dedb2ff2d0dd063689b68414674
:104108000df10600984703f091fd6368db68984756
:104118000028fad1ede7013f1e4cdff8808017e058
:1041280098f801504ff00109013dedb2ff2d0dd077
:1041380063689b6849460df10600984703f076fdd1
:104148006368db6898470028fad1ede7013ef6b2cc
:10415800012e4ff0ff3318bf00238df80730636836
:104168001d6801230df1060219460df10700a84745
:1041780003f05cfd6368db6898470028fad19df876
:10418800063007f8013f012ecad103f077fd05b0cc
:10419800bde8f083cc290020000000205c29002025
:020000040000fa
:1041a80000297ad02de9f0470c46404b1e68b6f539
:1041b800802f75d23e4b1b680b44b3f5802f5cd81b
:1041c800174605463b4b1b6801eb0308b8f5005f33
:1041d80059d9c3f50052dff8e0a0caf80020dff88b
:1041e800dc90014609eb030003f001fddff8c48011
:1041f8004ff40053c8f800304946304602f040fefc
:10420800d8f80010294b1a680a441a60284a13681b
:104218000b441360daf800100023c8f80030641a61
:10422800a4b222462944484603f0e1fcc8f80040fd
:10423800204b1b68b3f5005f0dd0002f33d1b3f5c9
:10424800005f08d2c3f500521b490a60ff211b48d2
:10425800184403f0dbfd154c1849206802f010fee5
:1042680014490868226802442260114a136803440a
:10427800136000200860bde8f0870d4b00221a602b
:1042880048f20300f7e70a4601460c48184403f0d1
:10429800aefc084bc3f80080cae748f20d0070472f
:1042a80048f20d00e7e70020e5e700bf442a0020b8
:1042b800482a00204c2a0020502a0020d002002042
:020000040000fa
:1042c80010b582b00020374b187003f0d3f80120e6
:1042d80003f0d0f8344b1868e8b100f017fd334b01
:1042e8001868f0b1304b1b6898421ad017e000f0fc
:1042f8000dfd204603f0d2fa0028f8d12c4c01e03d
:1043080000f004fd204603f0c9fa0028f8d103f0b4
:10431800cbf802b010bd254b186800283cd000f03f
:10432800f5fc244b186848b11f4b1b68984205d010
:104338001e4b1b68834201d000f0e8fc01f03cfef4
:1043480003f0eefb00241c4b1c60174b1c60194b40
:104358001c60164b1c60194b1c700194042240f61b
:104368000c010deb020001f079f8019b23f00073ba
:104378000193042240f60c010deb020001f01efd32
:104388000f4b1c700f4b1c700f4b1c700f4b1c708d
:104398000f4b1c700f4cace7064b18680028c7d1b0
:1043a800cce700bf1a0200203c02002020020020b7
:1043b800b00100202802002030020020380200202e
:1043c800190200202c0200203502002034020020af
:0843d800ac010020e40100200b
:020000040000fa
:1043e00030b583b004460d463d4b1b7883421cbf5d
:1043f0003b4b18704ff6ff7399421bd1384b1b781b
:10440000019304224ff498710deb020001f0dafce5
:1044100014f0100f22d0a5f11a039bb2182b30d83c
:10442000304a22fa03f313f0010f2ad02e4b012257
:104430001a7016e0019104224ff49a710deb0200fc
:1044400001f0c0fc264b1b78019304224ff49871b5
:104450000deb020001f0b6fc002dd9d1224b002259
:104460001a7021490b7843f010020a7004f00f040f
:10447000013c072c13d8dfe804f00f222e2612127d
:10448000122a1a4b1b78012bd0d01b2d164b0cbfb8
:1044900002220d221a70e4e7154b0021197014490d
:1044a0000b7843f010030b7043ea022300930422bd
:1044b0004ff49c71684601f085fc03b030bd0c4b95
:1044c0000d211970ebe70a4b01211970e7e7084b42
:1044d0000f211970e3e7064b0e211970dfe700bfcb
:1044e00037010020010008017f0100203e0100206b
:0444f000480100205f
:020000040000fa
:1044f40038b5364b1b7813b902f04cfc38bd02f0ca
:1045040079fb10f4806f1dd0314b1b782bb1314bec
:104514001b7813b1304b00221a80304b1b8d13b122
:10452400013b2e4a13852d4b1a8d2d4b1a852d4b8d
:1045340001221a702c4b00221a802c4b1b7863b377
:1045440001f000ff254b5b88012b38d0284b1b78ea
:104554002bb1234b5b88012b34d0222b32d002f0b9
:1045640049fb10f4806fc7d01c4a538d01339bb2b2
:1045740053851b4a53851f4d1f4c0422298820460e
:1045840003f042fb29881d4b1b881944043904227b
:1045940089b2204603f038fbaee7164d164c0422d0
:1045a4002988204603f030fb2988144b1b881944c2
:1045b4000439042289b2204603f026fbc2e702f044
:1045c400dbffc3e702f0fef8c9e700bf7901002072
:1045d40050010020710100207c0100208402002091
:1045e400400200206c0100203401002072010020f0
:1045f40078010020440100205401002038010020eb
:020000040000fa
:104604002de9f04f83b0009001913f4b1c8884b397
:104614004ff000099a464ff0010bc84618e01d46ba
:10462400b4693146e8b201f025f9c0f30f1014f86b
:10463400104044441ffa84f86b1c9bb2bd42eed177
:1046440009f10109baf800201ffa89f39a420fd937
:104654001ffa89f30aeb4303588803f009fa064664
:1046640000283dd083691f88002fe9d05d46d7e735
:1046740044460734c4f3cf08244b1888002840d09c
:104684004ff0000a5546dff884b018e01c46d6f80f
:1046940018903146e0b201f0edf8c0f30f1019f8ac
:1046a40010301d44adb2631c9bb2bc42eed10af182
:1046b400010abbf800201ffa8af39a420ed91ffaa6
:1046c4008af30beb4303588803f0d2f90646a8b1ea
:1046d40083691f88002fead00124d8e7002003e073
:1046e4004ff0000845462520eb1ddb10009a13808f
:1046f400019ba3f8008003b0bde8f08f00252420bf
:10470400f2e70546f0e700bf582a00205c2a0020a3
:020000040000fa
:1047140008b5354b00221a80344b1b78002b3dd052
:10472400334b1b781bb1334a138801331380324b4c
:104734001b883bb3314a128893421dd2304b1b88ed
:10474400002b41d02f4b1b8d2f4a12899a4219d32b
:1047540003332c4a138515e00023284a13802b4a7f
:1047640013850fe002f02ef8294b1b88012b15d17d
:10477400204b00221a8011e0214b1b888bb101329f
:104784001e4b1a8002f0f8fe194b1b7833b1204bf4
:104794001b881bb1174a12889a42e3d002f0fafa36
:1047a40008bd1c4b1b88002be9d002f023fa10f43f
:1047b400006fd1d1114b1b880f4a12889a42e1d362
:1047c40001330e4a1380dde7124a1288002ad9d039
:1047d400002bd7d10d4b1b8d0b4a12899a42e4d37f
:1047e40003330a4a1385e0e73c01002071010020ed
:1047f4007801002040010020680100207c01002095
:104804003801002084020020ec290020400200200e
:08481400620100206601002092
:020000040000fa
:10481c00534d206f757470757420706172616d6585
:10482c007465720053796e6368726f6e697a617425
:10483c00696f6e2054797065004379636c65205400
:10484c00696d65000053796e6368726f6e697a6189
:10485c0074696f6e20547970657320737570706f06
:10486c0072746564004d696e696d756d2043796372
:10487c006c652054696d650043616c6320616e64e6
:10488c0020436f70792054696d6500004765742072
:10489c004379636c652054696d650044656c61797e
:1048ac002054696d650053796e6330204379636cd5
:1048bc00652054696d6500534d2d4576656e7420e9
:1048cc004d6973736564004379636c652054696d3d
:1048dc006520546f6f20536d616c6c005368696672
:1048ec00742054696d6520546f6f2053686f727417
:1048fc0000000000000000000000000000000000ac
:10490c0000000053796e63204572726f7200ff00d5
:020000040000fa
:10491c00534d20696e70757420706172616d657491
:10492c0065720053796e6368726f6e697a6174692f
:10493c006f6e2054797065004379636c65205469ff
:10494c006d65000053796e6368726f6e697a61747d
:10495c00696f6e20547970657320737570706f7207
:10496c00746564004d696e696d756d204379636c77
:10497c00652054696d650043616c6320616e642031
:10498c00436f70792054696d65000047657420434e
:10499c0079636c652054696d650044656c617920a0
:1049ac0054696d650053796e6330204379636c658f
:1049bc002054696d6500534d2d4576656e74204d00
:1049cc006973736564004379636c652054696d6524
:1049dc0020546f6f20536d616c6c00536869667462
:1049ec002054696d6520546f6f2053686f7274008a
:1049fc0000000000000000000000000000000000ab
:104a0c00000053796e63204572726f7200ff0000d4
:020000040000fa
:104a1c00f0b583b000242e4b1c602e4b1c602e4b2b
:104a2c001c602e4b1c602e4b1c602e4b1c602e4ba6
:104a3c001c602e4b1c602e4b1c602e4b1c60fff719
:104a4c008bfa00f0d1fa2c4b01221a702b4b1c70f4
:104a5c002b4b1c602b4b1c602b4b1c60009401944b
:104a6c004ff47a7404264ff411651f4604e09a4201
:104a7c0088bf3b60013c16d032462946684603f09d
:104a8c00bff83246294601a803f0baf8009b019af8
:104a9c00934288bf02f1ff32d31a01933a68002a7d
:104aac00e5d13b60e6e70023019304224ff4a061bb
:104abc000deb020000f0d0fc019b03f48003002bf3
:104acc0014bf08220422114b1a80002003b0f0bd41
:104adc00400000204400002004010020340000208d
:104aec0008010020a40000209c00002010010020e0
:104afc0000010020a8000020ea2900203800002036
:104b0c003c000020b00000204c000020a20000203f
:020000040000fa
:104b1c0030b583b0002301930422354b19880deb7b
:104b2c00020000f099fc019ca3b20193314b1b785d
:104b3c00012b0ad0304b1a78304b1b7813431dd005
:104b4c002f4b01221a7003b030bd0a20fef7f4fd82
:104b5c0005460028eed00021c0f802100423038083
:104b6c00838823f4706383800123c380072303812c
:104b7c0001f056fb284600f0c7f8dbe7204b00227b
:104b8c001a70204b1d882846fef7d6fd1e4b186068
:104b9c00d8b1a21d92b2aa4228bf2a46144b19883a
:104bac0000f05afc00230093042240f604016846ee
:104bbc0000f052fc009b0093009b13f4006f08d193
:104bcc00114b186801f046fdbde70d4b01221a7020
:104bdc00b9e70e4800230360054b1988094b1b8865
:104bec0019440439042289b200f036fce8e700bf0e
:104bfc001c0200201802002019020020350200209f
:104c0c002c0200203602002030020020540100202b
:020000040000fa
:104c1c0038b505460c4603f0b9f908b30246611ed7
:104c2c00c9b201eb85005388dbb243ea00239bb287
:104c3c005380022d15d0032d39d0002111715171e3
:104c4c009171d171002111706ff05f01517023f0df
:104c5c00ff032a4909780b435380104601f0bcfc32
:104c6c0038bd0329eed8dfe801f002020c11002157
:104c7c001171102151714ff0ff3191711f21d171c0
:104c8c00e0e71f4909889180d180dbe71c4909883e
:104c9c0039b100210a201071517101209071d1712c
:104cac00d0e70021117151719171d171cae70329bb
:104cbc00c8d8dfe801f002020c110021117110219b
:104ccc0051714ff0ff3191711f21d171bae70d492c
:104cdc0009889180d180b5e70a49098839b100214a
:104cec000e201071517101209071d171aae7002131
:104cfc00117151719171d171a4e700bf370100207e
:084d0c003801002066010020bf
:020000040000fa
:104d14002de9f84300286ad050f8043ca0f10804b7
:104d240023f00106a719a259934200d0ffde7a6846
:104d340023681340da070fd4204602f07dfc0028d4
:104d440057d1384602f042fd0028f0d07b6823f0aa
:104d540001031e441f44eae746f001036360304642
:104d64003b6002f06dfb054602f0a2fe23687a6800
:104d74001340db07e0d5dff88ce0dee90089c5f1fc
:104d8400200ca5f1200228fa05f009fa0cfc29faf6
:104d940002f240ea0c001043012100ea0102002360
:104da4001343c5f120007346a5f1200212d121fa64
:104db40000f001fa02f2a94042ea00021ebfdef846
:104dc40000000143cef8001022b1def804100a43bb
:104dd400cef80420681c03ebc003a3f1080266604c
:104de4003e60a2605a68e2605c60e3689c60bde873
:104df400f883236823f00103e41a636823f00103b2
:084e04001e449ee74823002034
:020000040000fa
:104e0c002de9f04184b00f4616460023adf80e3064
:104e1c0002938df8073002238df80c30030a8df8bd
:104e2c000d308df80e0002f031ff2f4c6368db68fb
:104e3c0098470028fad12c4b5b681c68032302aa04
:104e4c00194603a8a04702f0effe274c6368db6805
:104e5c0098470028fad1254b9df809201a709df827
:104e6c000a205a70224b9d7c1f4c4ff00108013dcb
:104e7c00edb2ff2d0dd063689b6841460df1070024
:104e8c00984702f0d1fe6368db6898470028fad196
:104e9c00ede7154b5b685b6831463846984702f086
:104eac00c3fe114c6368db6898470028fad1012ec9
:104ebc0015d00f4bdd7c0c4c0126013dedb2ff2dc6
:104ecc000dd063689b6831460df10700984702f0de
:104edc00abfe6368db6898470028fad1ede702f077
:104eec00cbfe04b0bde8f081cc29002000000020ee
:044efc005c2900200d
:020000040000fa
:104f000038b5059c602955d000293cd0258905f489
:104f10007f45258100284fd1e088c0f30b0040f485
:104f20004050e080402926d104990139032910d846
:104f30000a23237000236370049bdbb2c3f10403d4
:104f400042f0030242ea83022a4342f040022281f5
:104f500044e004998b4228bf049b0a339bb2238010
:104f6000049ba381049bc3f30f43e38142f04102fe
:104f70002a43228132e00a2323700023637045f024
:104f8000600222812ae0b8b9e388c3f30b0343f43b
:104f90004053e3800a23237000236370238943f086
:104fa000200323811ae0e388c3f30b0343f4405347
:104fb000e38013e00028f6d00a23237000236370f7
:104fc000e388c3f30b0343f40053e380238943f0e6
:104fd00080032381054b53f82030e36002212046f3
:104fe00001f024f908b1024b1c6038bd5067000085
:044ff0001401002088
:020000040000fa
:104ff40010b582b02a4a20241480002353805360c1
:1050040044f21f0090812749116153619383136215
:105014001385538582f84030234a148053805360ab
:10502400908111615361938313621385538582f8d0
:1050340040301e4a137002f05bfb20bb00231c4a65
:1050440013701c4a13701c4a13801c4a13701c4aa8
:1050540013601c4a13601c4a13601c4a13600193ba
:10506400042208210deb020000f0faf9019b13f071
:10507400080f0bd0164b00221a70164b4ff47a62ad
:105084001a6002b010bd02f0a3fcd7e7104b012256
:105094001a7004224ff411610f4800f0e1f9ece7b3
:1050a40084020020a086010040020020c8020020e3
:1050b40008230020092300203a2300203c23002059
:1050c40018230020f4220020042300201c230020a5
:0c50d40060010020300000202c000020b3
:020000040000fa
:1050e0002de9f04184b01e465469e9b10f46938919
:1050f000c3f30323072b17d0092b24d0002e5dd038
:10510000304b6c460fcb07c4237039460df10900b4
:1051100002f042f96b4607cb30607160b2601b78d9
:1051200033734ff00c080ae0204602f07bfe1ffab2
:1051300080f826b142462146304602f05cfd4046ea
:1051400004b0bde8f0811ffa81f8204602f06afe43
:1051500001302518235c0233dbb2012bced9b8f124
:10516000010f16d0284602f05dfe013005440224ee
:105170002b780233dbb2012bc0d9a04509d0013412
:10518000a4b2284602f04efe01300544a045efd2fd
:10519000b4e7284602f046fe1ffa80f846b1b8f19f
:1051a000000fadd042462946304602f024fdc6e746
:1051b000b8f1000f08bf4ff00c08c0e74ff00c0823
:0851c000bde700bfdc2900205f
:020000040000fa
:1051c800314b00221a7403f50063304a9a621a467a
:1051d800536813f0100ffbd12d4b4222c3f88420e3
:1051e8001a46d2f8843013f0400ffad0294b002227
:1051f8009a6377225a631a46d36b13f0040ffbd1d4
:10520800244b022283f830201a46d36b13f0020f86
:10521800fbd1204a136c03f00303032bfad11e4b76
:1052280001225a711a46d37813f0010ffbd0184b9c
:105238001a4a1a621a46536813f0040ffbd1144b2a
:10524800164a5a621a46536813f0080ffbd1104bde
:105258004122c3f890201a46d2f8903013f0400f3c
:10526800fad00b4b4122c3f8a4201a46d2f8a43036
:1052780013f0400ffad0084b6ff07f421a614cf2de
:10528800ff725a61704700bf0014004006013000e9
:10529800001c004000100040000800400701010009
:020000040000fa
:1052a8002d4b1b78002b56d02de9f04782b01746be
:1052b8000e468146294b1d682b89dbb203f0e00ab4
:1052c80003f01004baf1400f0fd04ff00008224b42
:1052d80000221a70019500964346224651464846d8
:1052e800fff70afe02b0bde8f0871d4bb3f8008057
:1052f800a8f110081ffa88f888450bd34b1e032b1a
:1053080020d805f10c009042e1d00a46394602f057
:105318006efcdce70123134a1370134a1370134b16
:105328001c70134b1960134b60221a70124b1f60cc
:105338004246394605f1100002f059fc0f4bc3f8fc
:105348000080c4e705f110009042c0d00a463946f3
:1053580002f04dfcbbe77047722a0020142300209e
:1053680024020020fd2200200a230020fc22002025
:10537800002300200b2300201c230020f8220020fb
:020000040000fa
:1053880008b5214b1b88002b35d1204b1b88002bdf
:1053980035d14ff2f33002f019f800231c4a13708c
:1053a8001c4a13701c4a13701c4a13701c4a137051
:1053b8001c4a13801c4a13801c4a13801c4a138001
:1053c8001c4a13801c4a13801c4a13801c4a1380f1
:1053d8001c4a1385538582f840301b4a1385538530
:1053e80082f84030194a1380194a1370194a137009
:1053f800194a137008bd022002f03cf8c5e70320e3
:1054080002f038f8c5e700bf380100206601002027
:105418006c0100207901002071010020500100205a
:105428006d010020680100207c0100204601002059
:105438003c010020740100204c0100206201002082
:105448004001002084020020400200204a01002080
:0c5458007a01002078010020c80200202a
:020000040000fa
:10546400002a68d02de9f04383b005460e4617465e
:105474004ff0c0094ff004084ae0032c04d8012c73
:105484008cbf022401241ae08df80460330a8df8dd
:1054940005308df806408df8079002f056fd42461f
:1054a40001a94ff44170fff7affc424601a94ff444
:1054b4004070fef77dfb02f04cfd19e001248df8ed
:1054c4000460330a8df805308df806408df8079096
:1054d40002f03bfd424601a94ff44170fff794fcf2
:1054e400424601a94ff44070fef762fb02f031fd21
:1054f40001aa002312f8011b05f8011b0133dbb2da
:10550400a342f7d3a4b22644b6b23c1ba7b27fb1e0
:1055140016f0010fd2d13c46042f28bf0424e4b274
:1055240016f0020fa9d0012c8cbf02240124c6e777
:0855340003b0bde8f0837047ed
:020000040000fa
:10553c0008b5294b1b78002b4cd0284b1b78002b23
:10554c0035d0274b1a78274b1b78134333d102f0f5
:10555c00f8fc02f00df8244b1b7813bb02f0f5fca1
:10556c0029e001f033fa10f4806f0cd01c4b0122af
:10557c001a701e4b00221a801d4b1b78002be6d094
:10558c0000f0dcfee3e71b4b1b88002bdfd110f493
:10559c00006fdcd0124b01221a70144b00221a80bf
:1055ac00d5e701f00bf9d9e701f0aef908e00d4ba6
:1055bc001b78002bd5d0104b1b68b3f57a6ff3d248
:1055cc00fef748fa00f04efc01f028fe0b4b1b686e
:1055dc0003b1984708bd00bfea29002079010020db
:1055ec006c010020710100207801002034010020a2
:1055fc00720100203801002030000020a80000209b
:020000040000fa
:10560c00274b1b78002b4ad0264b1b78002b46d0ff
:10561c00254b1b8813b3254a128893421bd8244b65
:10562c0000221a70234b1b788bb97047204b002239
:10563c001a70f7e71f4b01221a701f4bb3f9003099
:10564c00002b2cdd1d4a1388013313807047194b36
:10565c0000221a7070470132144b1a80144b01222d
:10566c001a70174b1b8833b1164a12889342ddd936
:10567c000132144b1a80144b1a8d144b1b899a420d
:10568c00d8d30c4b1b7853b10a4b00221a700a4b1f
:10569c00b3f90030934202dd084b1a807047704713
:1056ac007101002078010020460100203c010020ff
:1056bc00500100206d0100204a0100204201002011
:1056cc004c0100207401002084020020ec290020f1
:020000040000fa
:1056dc00f0b583b02a4b1b7803f00f03012b4ad093
:1056ec00284b1b78002b48d0274b1c781cb1072467
:1056fc00204603b0f0bd05460788ba1d92b2234b75
:10570c00198800f059fb00230193042240f60c0188
:10571c000deb0200fff7a0fe019b0193019b13f41c
:10572c00006f12d11a4b1e88b21fd21b92b2194baa
:10573c0000211960032a14d9144b198831440439f7
:10574c00042289b2134800f037fb134b1b6813b1ca
:10575c00124b00221a60104b1d600b4b01221a7069
:10576c00c6e7c2f10402b91d891005eb8101184688
:10577c0002f03bfae0e7f024bae7f024b8e700bf08
:10578c00370100201a020020190200202e020020ee
:10579c0024020020540100202802002030020020a6
:020000040000fa
:1057ac0010b582b0204b22221a80204b4ff480720d
:1057bc001a804ff480531e4a13801e4a13801e4bce
:1057cc0000241c805c800a229a801c4b1c805c800c
:1057dc009a801b4b1c601b4b1c601b4b1c601b4b97
:1057ec001c601b4b1c700194042240f60c010deb49
:1057fc000200fff731fe019b23f00073019304229a
:10580c0040f60c010deb020000f0d6fa114b1c70a7
:10581c00114b1c70114b1c70114b1c70114b1c70dc
:10582c00114b1c7002b010bd360200202402002067
:10583c001c0200202e020020e4010020b0010020f8
:10584c00300200203c020020280200202002002010
:10585c00380200201a020020190200202c0200201d
:0c586c003502002034020020ac010020b6
:020000040000fa
:10587800f0b48f89c7f30327002856d1f0bc7047ce
:10588800062b43d004d8032b40d0042b04d112e0bc
:10589800082b10d90b2b39d0624522d263881844c3
:1058a80080b21ee0b3f5187f30d0f5d3a3f262259d
:1058b800adb2012df0d800f11f054ff6e070284079
:1058c80062450ed2a3f262239bb2012b9abf638872
:1058d800c018203080b204e06388184480b21030c9
:1058e80080b2013292b206366245c7d8082f0c69d9
:1058f8000cbf0634a41923881f2b07d0c0d92f2b1f
:10590800d9d0cfd8202bd6d02e2bc5d100f10f055a
:105918004ff6f07028406245e3d20b2bdcd0b3f58c
:10592800187fdcd1d8e70020a8e78446072ffad0f3
:0c5938001ffa8cfc062610200122d7e785
:020000040000fa
:10594400002a60d02de9f04383b005460e46174681
:105954004ff0c0094ff0040842e0032c04d8012c96
:105964008cbf0224012416e08df80460330a8df8fc
:1059740005308df806408df80790424601a94ff492
:105984004170fff741fa424601a94ff44070fef717
:105994000ff915e001248df80460330a8df8053001
:1059a4008df806408df80790424601a94ff44170e6
:1059b400fff72afa424601a94ff44070fef7f8f8bf
:1059c40001aa002312f8011b05f8011b0133dbb205
:1059d400a342f7d3a4b22644b6b23c1ba7b27fb10c
:1059e40016f0010fd6d13c46042f28bf0424e4b29c
:1059f40016f0020fb1d0012c8cbf02240124cae797
:085a040003b0bde8f083704718
:020000040000fa
:105a0c0070b582b00023009304252d4c2a466946bc
:105a1c006420fef733fb009ba342f7d100230093d5
:105a2c00042269465c20fff7ebf9932604254ff41a
:105a3c00017401962a46214601a800f0bdf9002305
:105a4c0001932a46214601a8fff706fd019b932be3
:105a5c00efd10023019304224ff4a8710deb020047
:105a6c00fff7fafc019b13f0040f02d0154b012237
:105a7c001a700024019404224ff401710deb020002
:105a8c0000f09af940f20113009304226946542065
:105a9c00fff7b6f901230093042269465c20fff757
:105aac00aff9042269465820fef7e8fa01f02cff02
:105abc0001f03aff02f0d6f8204602b070bd00bfec
:085acc002143658783290020b6
:020000040000fa
:105ad400050008000700060010000f000700200062
:105ae4000700000020000000060010000700070067
:105af400200007000700200007000000200000002d
:105b0400060010003f0007002000070007002000e7
:105b14003f00060010000700060010000700000008
:105b24001000000000001000000000002000000031
:105b34000000200000000000200000000000200001
:105b44000000000000000000000000000000000051
:105b54000000000000000000000000000000000041
:105b64000000000000000000000000000000000031
:105b74000000000000000000000000000000000021
:105b84000000000000000000000000000000000011
:085b940001000100070000bf41
:020000040000fa
:105b9c0008b52a4b00221a70294b186810b1294bf2
:105bac001b68c3b1284b1a68254b1a60254b186823
:105bbc00a0b1fff78dfd234b00221a60234b1b78fd
:105bcc0043b113f0010f11d113f0020f1cd113f0dc
:105bdc00400f29d108bdfff797f8e3e71c4801f007
:105bec005bfe0028ead0fff773fde7e7194b186856
:105bfc0002f01af902f0ccf80028ebd0134a137813
:105c0c0023f001031370e5e723f002030f4a13702e
:105c1c00104b186801f0def90028dbd00b4a137822
:105c2c0043f002031370d5e723f04003074a1370c7
:105c3c00084b186801f080ffcce700bf1902002068
:105c4c003c02002020020020280200203502002007
:085c5c00b0010020300200201d
:020000040000fa
:105c640008b5214b1b783bb1204bb3f90030002b16
:105c740002dd013b1d4a138000f0e6fffff7c4fc80
:105c84001b4b1a8872b11b490b8801339bb20b80e2
:105c94009a4207d80023164a13800b80164b1b68c0
:105ca40003b19847154b1b7843b1002314490a6884
:105cb40014480021994208bf90420fd3104a136838
:105cc400516811481b184ff0000040eb01011360ac
:105cd40051600e4a13680133136008bd0b4b4ff437
:105ce4007a621a60f5e700bf640100206e010020ab
:105cf4000c010020a00000203400002060010020de
:105d0400002a002040fbe1ff40420f003000002049
:020000040000fa
:105d140038b5002001f022ff224c03681b0c2380bd
:105d2400214d03682b80012001f018ff03681b0c30
:105d340099b21e4a118002681d4802802d8892b2d1
:105d440020882844904202dd13449d4228db0c390c
:105d5400184b1980002001f0ddfb012001f0dafb73
:105d6400104b1888fdf7ecfc134b186040b100246d
:105d7400124b1c70fef7ccff0f4b1c60204638bd45
:105d84000e4b01221a700a20fdf7dafc002814bf1a
:105d940000240224fef7bcff074b00221a60ede743
:105da4001624ebe7360200201c0200202402002007
:105db4002e0200202c0100203002002018020020b6
:020000040000fa
:105dc400002a51d02de9f04782b005460e46174609
:105dd4004ff0010a4ff000094ff0040831e0032ca2
:105de40005d8012c8cbf0224012400e0544601aaea
:105df4004b4615f8011b02f8011b0133dbb29c4230
:105e0400f7d802f0a2f8424601a94ff44070fef719
:105e1400fbff8df80460330a8df805308df80640d9
:105e240080238df80730424601a94ff44170fef7f4
:105e3400ebff02f08ef8a4b22644b6b23c1ba7b224
:105e44007fb116f0010fd1d13c46042f28bf0424a2
:105e5400e4b216f0020fc2d0012c8cbf022401243c
:0a5e6400c5e702b0bde8f087704703
:020000040000fa
:025e6e0070477b
:020000040000fa
:105e700010b582b0204b1c68002c33d01f4b1b7810
:105e800000931f4b1b681f4a12681f4909781f485f
:105e90000088a0470446ff2824d01d4b1b78013bf7
:105ea000032b10d8dfe803f00a022020194b1868f2
:105eb00020b1fef72fff174b00221a600022114677
:105ec0002046fff7f1f90023114a13700f4a13809f
:105ed0000d4a13700b4a1360094a1360074a137086
:105ee000054a136002b010bd054b1a68054b1968ce
:105ef000fff7daf9e7e700bf0423002009230020b9
:105f0000f4220020182300203c2300203a23002004
:085f1000082300201c230020df
:020000040000fa
:105f18002de9f04f83b08246019116469b460b88c7
:105f2800b3f5805f0bd0234b1c6894b1012e3ed98a
:105f38004ff0200808fa0af81ffa88f823e001f061
:105f48009bff04460028f1d10c9b13b11b230c9a2c
:105f58001370304600244ff6ff7321e00135ebb291
:105f680099450bd3e9b2204601f0befc838818eab4
:105f7800030ff3d02bf8027b023eb6b26468002c04
:105f8800e7d0012e0ad92789b7f5805ff6d3baf191
:105f9800000fefd094f80c900025e3e730462389f2
:105fa800019a1380034b1c6003b0bde8f08f3046a4
:085fb800f5e700bf0c230020f7
:020000040000fa
:105fc00008b51a4b1b78012b1ed00023184a1370fa
:105fd000184a1370184a1380184a1370184a13602d
:105fe000184a1360184a1360104a1370174b186848
:105ff00020b1fef78ffe154b00221a600023144ad1
:106000001360144a137008bd134b18680028dcd0c5
:10601000124b1b689842d8d0114b1b689842d4d0c1
:10602000fef778fe0c4b00221a60cee7722a0020a1
:1060300008230020092300203a2300203c230020cd
:1060400018230020f4220020042300201c23002019
:10605000f82200200b230020142300203c02002003
:0460600020020020fa
:020000040000fa
:10606400002a4dd02de9f04782b005460e4617466a
:106074004ff0010a4ff000094ff004082de0032c03
:1060840005d8012c8cbf0224012400e0544601aa47
:106094004b4615f8011b02f8011b0133dbb29c428d
:1060a400f7d8424601a94ff44070fef7adfe8df8d3
:1060b4000460330a8df805308df8064080238df88e
:1060c4000730424601a94ff44170fef79dfea4b289
:1060d4002644b6b23c1ba7b27fb116f0010fd5d14e
:1060e4003c46042f28bf0424e4b216f0020fc6d0a5
:1060f400012c8cbf02240124c9e702b0bde8f0875b
:026104007047e2
:020000040000fa
:1061060030b49489c4f30320e4b213b307283ad019
:10611600082813d0002064b115690123002003eb81
:10612600430205eb4202528810440133dbb29c4223
:10613600f5d20730c00849bb023027e013691b8936
:106146009269107800fb03f00730c008f1b90230fd
:106156001ce007280dd0c1b108280fd08c4217d3f8
:10616600136901eb410103eb410148880730c01078
:106176000ce0136958880730c01007e013691889c6
:106186000730c01002e0002000e0012030bc70475c
:046196000020fbe703
:020000040000fa
:02619a00fee71e
:020000040000fa
:10619c0008b51b4b98471b4b9847eff3108172b611
:1061ac00194ad2f8883043f47003c2f88830bff330
:1061bc004f8fbff36f8f01b962b6144c202363600d
:1061cc0000f046f9124b23f07f030f4a9360114bfa
:1061dc009847a36823f00103a3602346da6812f002
:1061ec00010ffbd1094b5a6842f004025a6001229c
:1061fc009a60094b9847094b984701f0d3fdfee78d
:10620c00437e0000437e000000ed00e00060004192
:10621c0000000000916a0000437e0000437e0000f5
:020000040000fa
:10622c0038b51f4b1b7803f00f03012b36d0838836
:10623c00c3f30b0383801b4a127812f0070f02d1b1
:10624c00184a012414700d460446164a127843ea83
:10625c0002338380fff73cfa48b9124a13780133b2
:10626c00137069b2002911db0023184638bd0e49a2
:10627c00204601f0e8fa034618b165f07f0149b2f7
:10628c0005e0084a137801331370eae70023074a44
:10629c0001f07f01107801431170e6e7f023e4e789
:1062ac0037010020ac010020b00100203502002095
:020000040000fa
:1062bc0030b583b0054600240194009401f0e6fc4f
:1062cc0003238df804308df8054064238df80630d7
:1062dc00184c6368db6898470028fad1154b5b684b
:1062ec001c6803236a46194601a8a04701f09cfcd0
:1062fc00104c6368db6898470028fad10e4b9df868
:10630c0001201a709df802205a700a4b5b689b683a
:10631c0004216846984701f087fc064c6368db68eb
:10632c0098470028fad1009b2b6001f0a5fc03b024
:0c633c0030bd00bfcc2900200000002074
:020000040000fa
:1063480038b51a4b9b8b1a4a928b134313f0010fe3
:106358002ad0002000f0c2ff0546164b1860164be5
:1063680001221a70154b00221a6000f039fd144cf6
:10637800144b1a88144b1988204601f043fc204618
:1063880001f0c8fd094b9b8b094a928b134313f00c
:10639800010f08d0284600f0a1ff044b5b69834237
:1063a8003cbf024b586138bd0025e0e7840200205d
:1063b80040020020b00000203800002054000020d7
:0c63c80058000020380100204401002093
:020000040000fa
:1063d4001f2932d870b588b00c461e460a460146bd
:1063e400684601f006fc002208ab234403f8202c85
:1063f400164b186820b3acb19df80020144b1b78e1
:106404009a4220d16b461249621e13fa82f29342d9
:1064140008d013f8015f11f8014fa542f7d048f2f4
:10642400010008e0b04238bf86b2324609490c98f0
:1064340001f0dffb304608b070bd48f2030070473e
:1064440048f20100f7e748f20100f4e7502a00207f
:08645400d0220020d00200203c
:020000040000fa
:10645c001e4b1f4a9342f0b438bf002103d203f8fd
:10646c00011b9342fbd11b4ad2e9000150ea010304
:10647c004ff0000610d09468034602f10c076cb97b
:10648c0021b1014403f8016b9942fbd13a46d2e9a0
:10649c00000150ea0103eed1f0bc704759b101f193
:1064ac000c030c38801a1a443b461c1813f8015b79
:1064bc0025709342f9d111f0030318bf012303ebac
:1064cc00910107eb81073a46e1e700bf000000208d
:0864dc0044230020740a0000b3
:020000040000fa
:1064e4001d4a137843f001031370536813f0010f2e
:1064f400fbd11949194bcb6100220a6283230b613a
:10650400174b1a7201221a75102283f8202083f87f
:106514002c2083f8382083f8442083f85020072067
:1065240083f85c0083f8682083f8742083f8802063
:1065340083f88c2083f8982083f8a42083f8b02073
:1065440083f8bc200b7843f002030b700a465368af
:1065540013f0020ffbd170470028004022000020f6
:046564004c2800209f
:020000040000fa
:10656800002833d010b404461b4b1a684ab113896b
:1065780001898b420ad88b422cd053688bb91346b9
:1065880016e0186000206060206006e000202060af
:10659800114b1a68626014601c605df8044b704708
:1065a80013461a89914213d007d35a68002af7d1a3
:1065b8005c60236000206060efe71a682260636017
:1065c8001a6802b154601c600020e6e70120704799
:0c65d8000120e2e70120e0e7442300205e
:020000040000fa
:1065e40070b50546184b1c780cbb184b1b7803f090
:1065f4000f03012b1bd01020fdf7a2f80346144a09
:106604001060f8b1134a92e8030083e8030003f131
:1066140008022868696803c201211846fff704fece
:10662400064668b9284601f0f3f9344608e02846de
:1066340001f0fef9084a137843f0010313700024b3
:10664400204670bd0224fbe7190200203701002018
:0c66540030020020a07f00003502002072
:020000040000fa
:1066600010b583880288b2f5807f0ed804461b0bd4
:1066700003d0174a12789a4227d0154a1370154949
:10668000204601f0e6f880b910bd00210422027016
:10669000417023f47063838001238371c1710823e7
:1066a00003724172fff7c2fdeee70021042222705f
:1066b0006170a28822f47062a2800122a271e1714d
:1066c00020812046fff7b2fddee7fef723fbdbe784
:0866d00034020020e401002067
:020000040000fa
:1066d800f8b5194d002604270de027706670a288ca
:1066e80022f47062a2800122a271e67120813146f3
:1066f8002046fff797fd284601f0d0f8044690b1f0
:1067080000f028fe0028f6d0e7e70c4b1b7873b999
:1067180001f040fb58b900f075fffff75fff06e096
:10672800fef7f8f907e0064b1b78002bedd1054b77
:106738001b78002bf4d1f8bde401002019020020d9
:086748001a0200202c020020bf
:020000040000fa
:10675000000000000000030500000405010004051e
:106760000500040500000106010001060200010603
:10677000000002064100040642000406430004062d
:106780004700040600000606100007061200070670
:10679000130007061100090630000906310009063a
:1067a0003200090633000906360009060000000819
:1067b0002000000821000008220000082300000833
:0867c0000300010604000106bc
:020000040000fa
:1067c80038b500f015fa154b9b8b154a928b13437d
:1067d80013f0010f20d0002000f080fd0546114c79
:1067e800204601f091fb104b1a88104b198820465f
:1067f80001f012fa094b9b8b094a928b134313f051
:10680800010f08d0284600f069fd054b5b698342fb
:106818003cbf034b586138bd0025e0e784020020e7
:1068280040020020b4000020660100208001002002
:020000040000fa
:1068380070b5194b1b783bb1012b10d14ff4802553
:106848004ff00416154c14e000f07afafef7e2f85f
:1068580000f04cfa0123114a13700f4a137070bdef
:1068680083f3088833681847fef764fe2378012b02
:10687800f5d101f043fb0128f6d101f01dfa0028fb
:10688800fbd101f0a3fa01f017fa0028fbd12b681d
:10689800b3f1ff3fe4d1e7e74023002048000020a0
:020000040000fa
:1068a800f0b583b0054601238df8073001f0f0f903
:1068b800154c6368db6898470028fad1124b5b686f
:1068c8005b6801210df10700984701f0aff90e4c04
:1068d8006368db6898470028fad105f127070a4c56
:1068e800012663685b6831462846984701f09ef99f
:1068f8006368db6898470028fad10135bd42f0d1ba
:0c69080001f0bcf903b0f0bdcc29002068
:020000040000fa
:1069140010b582b0134b1b78e3b1134c2368019379
:1069240004224ff411610deb0200fef799fd019969
:10693400626821600d480068814204d20b1c42f158
:10694400010223606260094b1960094b00221a603e
:1069540002b010bd08224ff411610348fef780fd18
:10696400f3e700bf60010020002a00202c00002073
:0469740030000020cf
:020000040000fa
:1069780010b5124b1c685cb1114b1b7813b1114b4d
:106988001b6863b12046fef7a5fe0c4b00221a6077
:106998000d4a1378b3fa83f35b09137010bd012015
:1069a80000f068fd094b1a68064b1a60012000f0d8
:1069b800affd034b00221a70e4e700bf3c02002041
:1069c800190200202002002038020020280200209e
:020000040000fa
:1069d80010b582b020238df8043002238df80530dd
:1069e80004248df80640c0238df8073001f0abfa77
:1069f80022460deb04014ff44170fef703fa2246dc
:106a08000deb04014ff44070fdf7d0f801f09ffa48
:106a1800044b1b781bb1044b188802b010bdbdf89d
:0c6a28000400fae7832900200000002091
:020000040000fa
:106a3400144ad36823f4e0631b041b0c43f0bf63c4
:106a440043f40033d360bff35f8f62b60e4be02292
:106a540083f80c234ff48051196083f80d234ff40d
:106a64000051196083f813234ff40021196083f84f
:106a74006b234ff40062da60402283f886231a61a4
:0c6a8400704700bf00ed00e000e100e002
:020000040000fa
:106a90000e4a38b5002313600d4a0e4c13600e4a9f
:106aa0000e4d13600e4a13600e4a13600e4a536275
:106ab00013610123936001f08bfa01f089faac4273
:106ac00000d338bd54f8043b9847f8e7642a002007
:106ad000182900206c020000142900207002000018
:0c6ae0000c290020102900201c29002097
:020000040000fa
:106aec002021222324242525262627272828282848
:106afc00292929292a2a2a2a2b2b2b2b2c2c2c2ce2
:106b0c002c2c2c2c2d2d2d2d2d2d2d2d2e2e2e2ea9
:106b1c002e2e2e2e2f2f2f2f2f2f2f2f000117021f
:106b2c001d1813031e1b190b1408040d1f161c1221
:0c6b3c001a0a070c1511090610050f0eaf
:020000040000fa
:106b480070b5d0e90245a54217d10122a1f1200371
:106b5800c1f1200622fa06f602fa03f333438a400b
:106b6800db43d6431ab10b490a6832400a605a1c03
:106b78001fbf084a51680b4053604368ac6043f03c
:106b8800010223f00103e5604260c25842f00102ad
:086b9800c25070bd482300202b
:020000040000fa
:106ba0002de9f04781462026864001f069f9f0b1d1
:106bb000b6b204460027ba460ee06b1ca84509d0c1
:106bc0001d46e9b2204600f093fe83881e42f4d0b1
:106bd0000137bfb264685cb12389b3f5805ff9d334
:106be000b9f1000ff4d094f80c805546e9e700277e
:066bf0003846bde8f08705
:020000040000fa
:026bf600fee7b8
:020000040000fa
:106bf80000b583b020238df8043002238df80530ca
:106c08008df80630c0238df8073004220deb020101
:106c18004ff44170fef7f6f804220deb02014ff431
:106c28004070fcf7c3ff054b1b7823b1044b188851
:106c380003b05df804fbbdf80400f9e783290020e0
:046c48000000002028
:020000040000fa
:106c4c0008b50f4b1a883ab10e4b1b8801339bb217
:106c5c009a4202d90b4a138008bd0a4b00221a80b3
:106c6c00094b1b88002bf7d0084b1b781bb9084b22
:106c7c0000221a70f0e71b210420faf759fdebe70c
:106c8c007601002034010020380100207201002020
:046c9c006c01002067
:020000040000fa
:106ca0001f291ad870b516460c4601460c4d2246cf
:106cb000284600f0a0ff002363550a4a13600a4ae1
:106cc00013600a4a13600a4b9e4202d048f2030046
:106cd00070bd00f067fd0020fae748f2030070473e
:106ce000d02200204c2a0020482a0020502a0020d0
:046cf00044332211f6
:020000040000fa
:106cf4000023094a1370094a1370094a09491160ab
:106d0400094a0a4911600a4a0a4911600a4a0b49a8
:106d140011600b4a13607047712a0020702a00200a
:106d240008010020d563000000010020a9410000f3
:106d3400a4000020e574000010010020a16c0000f4
:046d4400502a0020b1
:020000040000fa
:106d480010b582b00e4b5b681b6900210d4898474f
:106d58000d4c04e000f0b8f8019ba34207d001a84d
:106d6800fff7a8fa019bb3f1ff3ff5d1f2e700f076
:106d7800b7f90648fff794fdfef744fe02b010bdd0
:106d8800cc290020457e0000214365875c2900202e
:020000040000fa
:106d9800104b5b8d43b90f4b1b8d0f4a12899342e1
:106da80094bf0023012300e001230a4a82f84030ff
:106db8000a4b5b8d43b9094b1b8d074a12899342d5
:106dc80094bf0023012300e00123044a82f84030e5
:106dd800704700bf84020020ec29002040020020f8
:020000040000fa
:106de80008b50f4b1b783bb90e4b186828b9002023
:106df80000f074fa0b4b186008bd00f06ffa094bed
:106e08001860094b5b680bb1984201d2064b586079
:106e1800064b5b680bb19842e9d2044b5860e6e731
:106e2800710100203c000020840200204002002064
:020000040000fa
:106e38000c4b1b789bb90c4b1b782bb10b4bc82206
:106e48001a800b4b00221a800a4a0023138582f805
:106e58004030094a138582f84030ff207047074bbd
:106e6800188870473e010020710100204a01002067
:106e78004201002084020020400200203a01002044
:020000040000fa
:106e8800f8b505460f4600f5802400f015ff0028e8
:106e9800fbd1204600f01afe00f00eff0028fbd1bf
:106ea80007f500563c46ed1b05f58025611920467f
:106eb80000f036f900f000ff0028fbd104f500745b
:066ec800a642f3d1f8bd63
:020000040000fa
:026ece00fee7dd
:020000040000fa
:106ed00010b582b0ff238df8073000f0ddfe0c4cba
:106ee0006368db6898470028fad1094b5b685b68e8
:106ef00001210df10700984700f09cfe044c6368e7
:106f0000db6898470028fad100f0bcfe02b010bd43
:046f1000cc29002068
:020000040000fa
:106f14000e4b012283f8482083f84920772183f817
:106f240034100b49c3f8801083f8ca20022183f877
:106f3400cb1083f8d02083f8d12083f8d72083f8ae
:106f4400df10072283f8b520704700bf008000419e
:046f540000080080b1
:020000040000fa
:106f58000d4b01221a601a46136913f0010ffbd179
:106f6800094b18221a6003221a73084ada6133227d
:106f78009a72074a0021116001225a721a4613694f
:106f8800002bfcd1704700bf00380040c0d401007e
:046f9800f8290020b4
:020000040000fa
:106f9c0070b59df8105041f2f804a0420fd185b99c
:106fac0089b9082a11d81e4615460c46fff7acfcc9
:106fbc002a460749304600f018fe204600e00b2018
:106fcc0070bd0520fce71120fae70f20f8e700bfa1
:046fdc00002a002067
:020000040000fa
:106fe00038b50e4b186830b10021fff71ff90020ab
:106ff0000a4b186038bd4ff48070fcf7a3fb0546c0
:1070000048b1074b04460fcb07c423802846fbf743
:10701000e5fc0020eee70720ece700bf14010020ac
:047020002423002005
:020000040000fa
:107024000c4b5b687bb10c490a681a440a600b4933
:1070340009688a420cd10a494a6813444b60064bda
:1070440000221a6070470023054a5360024a136005
:10705400704700bf182a0020402a0020542a00202c
:04706400082a0020d6
:020000040000fa
:1070680010b5054c237833b9044b13b10448aff37a
:1070780000800123237010bd842900200000000037
:107088000000000008b5034b1bb103490348aff3e8
:10709800008008bd000000008829002000000000d2
:020000040000fa
:1070a80002290dd0042913d0012901d001207047ed
:1070b80010f0070ffbd020f00700083080b27047af
:1070c80010f0030ff3d020f00300043080b27047b3
:1070d80010f0010febd020f00100023080b27047b1
:020000040000fa
:1070e80010b501210820fff7dbff0c4cc008207009
:1070f80001210220fff7d4ffc0f3c7006070a07021
:1071080001210c20fff7ccffc008e0700023237199
:107118006371a374e374237510bd00bf5c2900205c
:020000040000fa
:1071280010b40d4b00221a80031f00f5fe74081ad4
:107138000430c21853f8041f1160a342f9d1074b59
:107148001b8803f030031bb9044b4af203529a80a0
:1071580001205df8044b7047b6290020004000412b
:020000040000fa
:107168000e4b1b68b3b11a89824204d05b688bb19d
:107178001a898242fad119685a6801b14a6002b183
:107188001160002119605960044908681989038948
:10719800994200d07047014b1a6070474423002081
:020000040000fa
:1071a8004572726f722053657474696e6773004c10
:1071b8006f63616c204572726f72205265616374ef
:1071c800696f6e0053796e63204572726f72204347
:1071d8006f756e746572204c696d697400ff0000ec
:020000040000fa
:1071e80008b50a4b00221a80094b1b781bb1094bc2
:1071f8005b88032b03d0084b00221a8008bd074b7d
:107208001b88002bf7d1fff7dbfaf4e774010020a5
:107218007801002040020020400100206201002087
:020000040000fa
:1072280008b50b4b1b7843b10a4b1b782bb10a4ba3
:107238001b781bb1094b1b782bb108bd2c210420ee
:10724800faf778faf9e71a210420faf773faf4e75b
:107258007101002072010020500100206d01002002
:020000040000fa
:107268000c4a036810b5546a0b4a591e121b8a420d
:107278000ad22bb1094b0c221a604ff0ff3010bd17
:10728800102202600020fae7173323f00f0303608f
:10729800f8e700bf1c290020efffff7f682a0020c5
:020000040000fa
:1072a8004964656e746974790056656e646f7220fe
:1072b80049440050726f6475637420636f6465009d
:1072c8005265766973696f6e0053657269616c20e7
:0c72d8006e756d62657200ff000000bf63
:020000040000fa
:1072e40010b582b004460023019304224ff41161c7
:1072f4000deb020000f088fc019820b1a04238bfd9
:1073040000f1ff30001b2cb1034b1b68834234bfd8
:0c731400c01a002002b010bd4c00002088
:020000040000fa
:1073200038b50c4b1d880c3da94214bf0022012228
:10733000094b1b6853b10c469847034620b947f6e2
:10734000fc72ac4218bf1346184638bd4ff40043d8
:0c735000fae700bf360200200001002018
:020000040000fa
:10735c0008b50d4b1b78012b08d08388c3f303238e
:10736c00032b0bd0042b06d0022008bd8388c3f35b
:10737c000323042b05d1fbf7b5f9f6e700f0f6f97a
:0c738c00f3e70220f1e700bf70010020d1
:020000040000fa
:107398000c4ba3fb01235b0902781a440270642298
:1073a80002fb1313dbb2084aa2fb0312d20841788e
:1073b8001144417002eb8202a3eb42033033837025
:0c73c800704700bf1f85eb51cdcccccc32
:020000040000fa
:1073d40010b582b004460023019304224ff40171d6
:1073e4000deb0200fef73cf801982040019000f0fc
:1073f400acfd04224ff401710deb0200fef7e0fc3a
:0874040000f0a7fd02b010bd6d
:020000040000fa
:10740c0010b582b004460023019304224ff401719d
:10741c000deb0200fef720f801982043019000f0dc
:10742c0090fd04224ff401710deb0200fef7c4fc39
:08743c0000f08bfd02b010bd51
:020000040000fa
:1074440000090138202813d9b0f5007f05d2094b73
:1074540003ebd00010f8040c7047b0f5e05f06d8d9
:10746400044b03ebd01010f8040c103070473f208d
:08747400704700bfec6a000044
:020000040000fa
:10747c0030b583b04ff080730193c00000f6040464
:10748c00042221460deb0200fef796fc04252a4649
:10749c00214601a8fdf7e0ff019b13f0807ff6d099
:0474ac0003b030bd3c
:020000040000fa
:1074b00008b5094a00231380538093800221d180ac
:1074c0009360064a138053809380d1809360044870
:1074d00000f0a0fa08bd00bf840100209c0100203c
:0474e00094010020f3
:020000040000fa
:1074e40058b50a4b1b6883420dd316461b1a9cb22f
:1074f4008c4228bf0c46224605490144304600f020
:1075040078fb204658bd0024fbe700bf502a00202a
:04751400d002002081
:020000040000fa
:1075180030b583b000230193c00000f604040422b0
:1075280021460deb0200fef749fc04252a462146b8
:1075380001a8fdf793ff019b13f0807ff6d103b0fc
:0275480030bd54
:020000040000fa
:02754a00fee75a
:020000040000fa
:10754c0008b500f039fcfff7dffcfdf737fe00f063
:10755c00b7f9fef786fcfef7bffffff7f7fc034910
:10756c00002000f09dfbfff75ffa08bd607f000074
:020000040000fa
:10757c0008b5084b9b8b084a928b134313f0010ff1
:10758c0002d0064b1b8813b1fff746fd08bdfff771
:10759c0025fcf9e78402002040020020380100207d
:020000040000fa
:1075ac0000b583b00023019304224ff4a0610debce
:1075bc000200fdf751ff019b13f0c05f0cbf0122cd
:1075cc000022024b1a7003b05df804fbeb2900207b
:020000040000fa
:1075dc000a4a138852889a420ed0084a991c52f8cb
:1075ec00210001339bb21380d2889a4200d070479d
:1075fc00024b00221a8070470020f8e79c01002003
:020000040000fa
:10760c000a4a138852889a420ed0084a991c52f89a
:10761c00210001339bb21380d2889a4200d070476c
:10762c00024b00221a8070470020f8e784010020ea
:020000040000fa
:10763c0070b505462c68e30701d500200fe0204605
:10764c00fff7fafe064600f02ffa2868a042f1d1a7
:10765c0020f00100281a3146fff770fa012070bda6
:020000040000fa
:10766c00426822f00102531a102b30b40dd9441881
:10767c0041f0010543f001034550636083504560c0
:0e768c0004f1080030bcfdf73fbb30bc704776
:020000040000fa
:02769a00fee709
:020000040000fa
:10769c0030b400eb4004084b03eb84031b7a8342a9
:1076ac0001d030bc7047044b4400251843f825101a
:0c76bc0003eb85035a60f4e74c28002023
:020000040000fa
:1076c80008b5084b5b7a63b1064a937a3321917205
:1076d80003f0ff002bb1044b1b6813b1024a516839
:0c76e800984708bd00380040f829002039
:020000040000fa
:1076f40008b5074b00221a60064800f093f80346c9
:1077040008b1184608bd044800f08cf80346f8e7b1
:0c771400442300205425002034270020ce
:020000040000fa
:107720004f7574707574732070726f636573732016
:1077300064617461206d617070696e670053756279
:0c774000496e6465782030303100ff0095
:020000040000fa
:10774c00496e707574732070726f63657373206407
:10775c00617461206d617070696e67005375624968
:0c776c006e6465782030303100ff0000b2
:020000040000fa
:1077780008b5c3881b0b013b072b05d8dfe803f0ce
:107788000c060c0c0c0c0c09052006e0f8f774fd2f
:0c77980003e0fbf71ff900e0042008bd2f
:020000040000fa
:1077a400064b1b784bb9054b01221a700023044a7f
:1077b4001360044a1360044a13607047712a00205e
:0c77c4004c2a0020442a0020482a002003
:020000040000fa
:1077d00070b505466c68e30701d500200de0204632
:1077e000fff730fe064600f065f96b68a342f1d161
:0c77f00028463146fff7a8f9012070bdc3
:020000040000fa
:1077fc00074a136843b10749184488428cbf4ff0bd
:10780c00ff33106018467047034b1360f3e700bf5b
:0c781c006c2a0020782c0020782a002024
:020000040000fa
:1078280038b502894ff6ff739a420cd004461d46bc
:107838002046fef795fe024618b928342389ab4244
:0a784800f6d1104638bd0022fbe720
:020000040000fa
:1078520010b44a88531c9bb28c889c4208bf0023f8
:107862000c889c4207d0023241f822004b80002053
:0a7872005df8044b70470720fae7a9
:020000040000fa
:10787c0030b583b0064c25683db11c460092054bd3
:10788c001b882246a84703b030bd4ff40040fae7ee
:08789c00080100202c0100206e
:020000040000fa
:1078a40002460388418899420cd0991c50f8210063
:1078b40001339bb213809188994200d07047002312
:0878c400138070470020f9e772
:020000040000fa
:1078cc00074b01221a6000225a604ff4a0629a60a2
:1078dc0002221a601a46136a13f0020ffbd070478b
:0478ec000034004222
:020000040000fa
:1078f0008389c3f30323082b05d001eb4101006901
:1079000000eb4100704709b9006970470069063013
:027910007047be
:020000040000fa
:02791200fee78e
:020000040000fa
:1079140008b5002204491046fff7befe00220349c1
:107924000120fff7b9fe08bd3f7f0000477f00003c
:020000040000fa
:1079340010b5054ce3681b68002104489847e368c8
:107944005b68984710bd00bfcc290020497c00002b
:020000040000fa
:1079540008b5054b01225a61044b1b6813b1034a55
:107964005068984708bd00bf002800404c280020fc
:020000040000fa
:1079740008b5054b02225a61044bdb6813b1034a74
:107984001069984708bd00bf002800404c2800201b
:020000040000fa
:1079940008b5054b80225a61044b5b6d13b1034a51
:1079a400906d984708bd00bf002800404c28002077
:020000040000fa
:1079b400054b1b7f33b9054bd86980f00200c0f337
:1079c400400070470120704704000020003400424a
:020000040000fa
:1079d40010b5064b1c682cb120896468fff7c2fb04
:1079e400002cf9d1014b00221a6010bd4423002061
:020000040000fa
:1079f400050008000700070020000700070020001a
:107a0400070007002000070007002000070000bf50
:020000040000fa
:107a140006494a88531c9bb2c988994208bf00236f
:107a24000249023241f822004b8070479c01002039
:020000040000fa
:107a340006494a88531c9bb2c988994208bf00234f
:107a44000249023241f822004b8070478401002031
:020000040000fa
:107a540008b5054b1b6823b10a46044909889847b1
:107a640008bd4ff40040fbe7a40000202c010020d7
:020000040000fa
:107a740010b5044600f002fa034638b10289a24266
:107a840004d05b6813b11a89a242fad1184610bd1a
:020000040000fa
:107a940000000100030007000f001f003f007f00eb
:107aa400ff00ff01ff03ff07ff0fff1fff3fff7fe3
:020000040000fa
:107ab400064b013053f830203ab9c100a1f1080255
:107ac4001a44194443f830204a6070474823002080
:020000040000fa
:107ad400044b00221a80044b58614af201529a80e6
:0c7ae40001207047b6290020004000413e
:020000040000fa
:107af00053796e634d616e616765722032206173e8
:0c7b00007369676e6d656e7400ff000015
:020000040000fa
:107b0c0053796e634d616e616765722033206173ca
:0c7b1c007369676e6d656e7400ff0000f9
:020000040000fa
:107b28000023034a1380034a1360034a1360704713
:0c7b38001c01002020010020240100207e
:020000040000fa
:107b440008b5054b186828b10021fef76dfb024b00
:0c7b540000221a6008bd00bf24010020c0
:020000040000fa
:107b600010b500f58071044c0822c9002046fdf7cd
:0c7b700079fc204610bd00bf5801002029
:020000040000fa
:107b7c00044b1b78dbb2012b00d07047024b012267
:0c7b8c001a70fae7712a0020702a00200d
:020000040000fa
:107b9800044a136843f002031360136913f0020fd9
:087ba800fbd1704700380040da
:020000040000fa
:107bb000044a136823f002031360136913f0020fe1
:087bc000fbd1704700380040c2
:020000040000fa
:107bc80008b5044b1b680bb1984708bd4ff400403b
:087bd800fbe700bf10010020d3
:020000040000fa
:107be0000068002808b501da002008bdfff706fe8e
:067bf000431cfad1f8e786
:020000040000fa
:107bf60010b5431e0a44914200d110bd11f8014b45
:067c060003f8014ff7e74f
:020000040000fa
:107c0c0008b5b1f5805f02d3fbf740f808bdfdf76e
:047c1c0093fefbe7f1
:020000040000fa
:107c200008b5b1f5805f02d3fbf796fa08bdfef701
:047c300019fafbe75b
:020000040000fa
:107c3400034a137a002bfcd0014b00221a727047be
:047c4400cc29002027
:020000040000fa
:107c480008b5802383f31188fef708f8002383f32f
:047c5800118808bdca
:020000040000fa
:107c5c0008b5802383f31188fcf746fc002383f3db
:047c6c00118808bdb6
:020000040000fa
:107c700008b5002202490720fff710fd08bd00bf2c
:047c80005d7c000027
:020000040000fa
:107c840008b54ff40061024800f08cf908bd00bf4c
:047c940080800041ab
:020000040000fa
:107c980008b54ff40061024800f084f908bd00bf40
:047ca8008080004197
:020000040000fa
:107cac00034b01221a720a685a604a68da607047fc
:047cbc00cc290020af
:020000040000fa
:107cc000034b588a80f0010000f00100704700bfac
:047cd000004000412f
:020000040000fa
:107cd4003d3e0000517e0000e57d0000b5790000c6
:047ce4005d7e0000c1
:020000040000fa
:107ce80048617264776172652076657273696f6e38
:047cf800000000bfc9
:020000040000fa
:107cfc00536f6674776172652076657273696f6e07
:047d0c00000000bfb4
:020000040000fa
:107d100054696d657374616d70204f626a65637438
:047d200000ff000060
:020000040000fa
:107d240053796e63206d616e61676572207479703a
:047d3400650000bf27
:020000040000fa
:107d3800496e7075747300436f756e74657200ffd9
:047d4800000000bf78
:020000040000fa
:107d4c004f7574707574730054726967676572004f
:047d5c00ff0000bf65
:020000040000fa
:107d6000050008000700070020003f000600100083
:047d70003f0000bf11
:020000040000fa
:107d74000023024a1360024a138070471401002052
:047d840010230020a8
:020000040000fa
:107d88000023024a1370024a137070476c010020e6
:047d98007201002054
:020000040000fa
:107d9c00034b18885b88984214bf00200120704761
:047dac00840100202e
:020000040000fa
:107db00008b50020fff7cafb00f0b6f8fef73cfd5f
:027dc000fce7de
:020000040000fa
:027dc200fee7da
:020000040000fa
:107dc400024b40f204521a80704700bf0040004149
:020000040000fa
:107dd400024b4af217529a80704700bf004000419c
:020000040000fa
:107de40008b50b46024600210846fcf725f808bdf5
:020000040000fa
:107df4004572726f722072656769737465720000f0
:020000040000fa
:107e040008b5024b1b6803b1984708bd9c000020cd
:020000040000fa
:107e140002440346934200d1704703f8011bf9e77b
:020000040000fa
:107e240003461a46013311780029fad1101a704713
:020000040000fa
:0e7e340008b5fff7e9fb08b1fef7d2fb08bd69
:020000040000fa
:027e4200704787
:020000040000fa
:0c7e4400014b01221a727047cc2900206b
:020000040000fa
:0c7e500008b500231a46fbf7f1ff08bd3f
:020000040000fa
:0c7e5c00014b18625962704704000020be
:020000040000fa
:0c7e6800014b186059607047f829002099
:020000040000fa
:0c7e7400697e0000997b0000b17b0000db
:020000040000fa
:0c7e8000014b1868704700bf442300202d
:020000040000fa
:0c7e8c00446576696365207479706500b8
:020000040000fa
:0c7e9800446576696365206e616d6500cd
:020000040000fa
:0c7ea40005000800070007002000070090
:020000040000fa
:0c7eb00005000800070007002000070084
:020000040000fa
:0c7ebc0005000800070005000800070092
:020000040000fa
:0c7ec8000500080007000600100007007d
:020000040000fa
:0c7ed40005000800070006001000070071
:020000040000fa
:0c7ee000050008000700070020008700d4
:020000040000fa
:0c7eec00050008000700070020007f00d0
:020000040000fa
:0c7ef80008b508461146fff7a9fd08bdbb
:020000040000fa
:0c7f0400014b1878704700bf702a002065
:020000040000fa
:0c7f1000014b5b6803607047082a0020ea
:020000040000fa
:0c7f1c000268014b5a607047182a0020d0
:020000040000fa
:0c7f2800014b00221a707047402300201b
:020000040000fa
:0a7f340008b5fff721fe002008bd8c
:020000040000fa
:087f3e0008b5fcf7e8fb08bde3
:020000040000fa
:087f460008b5fff74ef908bd74
:020000040000fa
:087f4e00802383f311887047c2
:020000040000fa
:087f5600002383f3118870473a
:020000040000fa
:027f5e0070476a
:020000040000fa
:087f6000d47c0000747e0000d7
:020000040000fa
:087f680007002000070000bf24
:020000040000fa
:087f700005000800070000bf36
:020000040000fa
:087f78000900a800070000bf8a
:020000040000fa
:087f800009001800070000bf12
:020000040000fa
:087f880009001800070000bf0a
:020000040000fa
:087f90001b004000bf0000bf10
:020000040000fa
:087f980008b5fff71ffb08bd4f
:020000040000fa
:087fa0000a00000000030010bc
:020000040000fa
:047fa800816170473c
:020000040000fa
:047fac004161704778
:020000040000fa
:047fb0000a307047dc
:020000040000fa
:047fb40000207047f2
:020000040000fa
:047fb80000207047ee
:020000040000fa
:047fbc0000207047ea
:020000040000fa
:047fc00000207047e6
:020000040000fa
:047fc40000207047e2
:020000040000fa
:047fc80000207047de
:020000040000fa
:027fcc007047fc
:020000040000fa
:027fce007047fa
:020000040000fa
:027fd0007047f8
:00000001FF
