:020000040000fa
:10000000f0ff032029670000fb7200002f7500003d
:10001000cb7b0000eb7c0000637f00000000000051
:10002000000000000000000000000000f76b00006e
:100030007f78000000000000f76b0000f76b000005
:10004000f76b0000f76b0000f76b0000f76b000028
:10005000f76b0000f76b0000f76b0000f76b000018
:10006000f76b0000f76b0000f76b0000f76b000008
:10007000c57f0000e57f0000f76b0000f76b000014
:10008000f76b0000f76b0000f76b000005800000c5
:10009000f76b0000f76b0000f76b0000f76b0000d8
:1000a000f76b0000f76b0000f76b0000f76b0000c8
:1000b000f76b0000f76b0000f76b0000f76b0000b8
:1000c000f76b0000f76b0000f76b0000f76b0000a8
:1000d000f76b0000f76b0000f76b0000f76b000098
:1000e000f76b0000f76b000000000000000000004c
:1000f00000000000f76b0000f76b0000f76b0000da
:10010000f76b0000f76b0000f76b0000f76b000067
:10011000f76b0000f76b0000f76b0000f76b000057
:10012000f76b0000f76b0000f76b0000f76b000047
:10013000f76b0000f76b0000f76b0000f76b000037
:10014000f76b0000f76b0000f76b0000f76b000027
:10015000f76b0000f76b00000000000000000000db
:10016000000000000000000000000000000000008f
:10017000000000000000000000000000000000007f
:10018000f76b0000f76b0000f76b0000f76b0000e7
:10019000f76b0000f76b0000f76b0000f76b0000d7
:1001a000f76b0000f76b0000f76b0000f76b0000c7
:1001b000f76b0000f76b0000f76b0000f76b0000b7
:1001c000f76b0000f76b0000f76b0000f76b0000a7
:1001d000f76b0000f76b0000f76b0000f76b000097
:1001e000f76b0000f76b0000f76b0000197d000053
:1001f000f76b0000f76b0000f76b0000f76b000077
:10020000f76b00000000000000000000f76b00002a
:10021000f76b0000f76b0000f76b0000f76b000056
:10022000f76b0000f76b0000f76b0000f76b000046
:10023000f76b0000f76b0000f76b0000f76b000036
:10024000f76b0000f76b0000f76b0000f76b000026
:10025000f76b0000f76b00007d410000f76b0000ba
:020000040000fa
:10026000f8b500bff8bc08bc9e4670476576000034
:10027000f8b500bff8bc08bc9e4670474176000048
:020000040000fa
:10028000b42700201c000000000000008c29002082
:1002900002000000000000005928002001000000ba
:1002a00000000000fc2700201000000000000000fb
:1002b00004250020c000000000000000e627002008
:1002c000020000000000000085290020010000005d
:1002d000000000008c270020280000000000000023
:1002e000682800200800000000000000b02800205e
:1002f0000400000000000000ae2800200200000002
:1003000000000000b42800200400000000000000ed
:10031000b828002004000000000000007028002021
:100320000800000000000000ec230020180100007d
:100330000100000000000000000000000116210084
:100340000109000084850000707d0000a0280020c5
:10035000000000000000000000000000000000009d
:1003600000000000001a2100010900009085000033
:100370009c7d00009028002000000000000000008c
:10038000000000000000000000000000121c060039
:1003900001080000a88500009c8100004829002079
:1003a000000000000000000000000000000000004d
:1003b00000000000131c060001080000b4850000c6
:1003c000b88100004c29002000000000000000005f
:1003d00000000000000000000000000000602a0093
:1003e00001090000c0850000f0830000882800207b
:1003f00000000000000000000000000000000000fd
:100400000000000010702a0001090000cc850000e7
:100410000484000098280020000000000000000074
:10042000000000000000000000000000ffff0000ce
:1004300000000000000000000000000000000000bc
:100440000000000000000000000000000c2200205e
:10045000e0010000010000000000000000000000ba
:100460000010070000070000488600006c850000af
:10047000c428002000000000000000000000000070
:10048000000000000000000001100500000700004f
:1004900050860000bc840000ae2800200000000050
:1004a000000000000000000000000000000000004c
:1004b0000810090000070000588600007885000039
:1004c000d027002000000000000000000000000015
:1004d00000000000000000000910090000070000f3
:1004e00060860000a0830000bc28002000000000ff
:1004f00000000000000000000000000000000000fc
:100500000a1009000007000068860000b48300009c
:10051000c0280020000000000000000000000000d3
:100520000000000000000000181023000409000073
:1005300064800000bc780000e82700200000000074
:1005400000000000000000000000000000000000ab
:10055000f1102a0002090000188400004077000012
:100560005c280020000000000000000000000000e7
:100570000000000000000000f8101b000007000051
:1005800070860000c8830000702800207575000088
:10059000000000000000000000000000000000005b
:1005a000001c0500040800009c850000dc8300009e
:1005b000a82800200000000000000000000000004b
:1005c0000000000000000000321c2900200900008b
:1005d00064600000504f0000e02600200000000092
:1005e000000000000000000000000000000000000b
:1005f000331c2900200900006460000050500000f6
:100600009c26002000000000000000000000000008
:100610000000000000000000ffff000000000000dc
:1006200000000000000000000000000000000000ca
:100630000000000000000000d0270020160000008d
:100640000100000053414d45353320457468657203
:1006500043415420536c617665000000bc280020a3
:100660000400000001000000312e3000c0280020ee
:100670000400000001000000322e3000e8270020b6
:10068000140000000100000004000000d80400e095
:10069000559200000100000001000000a828002081
:1006a0000600000001000000040002010403000035
:1006b000c42800200400000001000000891300008d
:1006c0008a290020020000000000000014260020fb
:1006d00044000000000000005826002044000000f4
:1006e00000000000cc2900200100000000000000f4
:1006f000cd2900200100000000000000ce290020cc
:100700000100000000000000c828002004000000d4
:1007100000000000cc2800200400000000000000c1
:10072000d02800200400000000000000d428002091
:100730000400000000000000d82800200400000091
:1007400000000000dc280020040000000000000081
:10075000e02800200400000000000000e428002041
:100760000400000000000000e82800200400000051
:1007700000000000ec280020040000000000000041
:10078000f028002004000000000000005a2800208b
:100790000200000000000000862900200200000086
:1007a00000000000f4280020040000000000000009
:1007b000f82800200400000000000000fc280020b1
:1007c00004000000000000000029002004000000d8
:1007d00000000000042900200400000000000000c8
:1007e0000829002004000000000000008e290020dd
:1007f000020000000000000090290020020000001c
:10080000000000000c29002004000000000000008f
:10081000102900200400000000000000142900201e
:1008200004000000000000009229002002000000e7
:1008300000000000942900200200000000000000d9
:10084000cf290020010000000000000096290020b0
:1008500002000000000000009829002002000000b3
:10086000000000009a2900200200000000000000a3
:100870001829002004000000000000009c2900202e
:1008800002000000000000009e290020020000007d
:1008900000000000a029002002000000000000006d
:1008a000a22900200200000000000000782800209b
:1008b0000800000000000000d02900200100000016
:1008c00000000000d129002001000000000000000d
:1008d000d22900200100000000000000d3290020e0
:1008e0000100000000000000d429002001000000e9
:1008f00000000000d52900200100000000000000d9
:10090000d62900200100000000000000d7290020a7
:100910000100000000000000d829002001000000b4
:1009200000000000d92900200100000000000000a4
:10093000da2900200100000000000000db2900206f
:100940000100000000000000dc2900200100000080
:1009500000000000dd290020010000000000000070
:10096000a42900200200000000000000a6290020a9
:100970000200000000000000de290020010000004d
:1009800000000000a8290020020000000000000074
:10099000aa2900200200000000000000ac2900206d
:1009a0000200000000000000ae290020020000004c
:1009b00000000000df29002001000000000000000e
:1009c000b02900200200000000000000b229002031
:1009d0000200000000000000b42900200200000016
:1009e00000000000b6290020020000000000000006
:1009f000b82900200200000000000000ba290020f1
:100a000002000000000000001c290020040000007b
:100a100000000000e02900200100000000000000ac
:100a2000e1290020010000000000000080280020d3
:100a300008000000000000000c280020100000004a
:100a4000000000001c280020100000000000000032
:100a5000e22900200100000000000000e32900203e
:100a60000100000000000000e42900200100000057
:100a700000000000e5290020010000000000000047
:100a8000e6290020010000000000000020290020cd
:100a900004000000000000002429002004000000e1
:100aa00000000000282900200400000000000000d1
:100ab0002c29002004000000000000002427002052
:100ac000340000000000000058270020340000001f
:100ad00000000000bc29002002000000000000000f
:100ae000be2900200200000000000000c0290020f4
:100af0000200000000000000c229002002000000e7
:100b000000000000e72900200100000000000000b4
:100b1000e82900200100000000000000e929002071
:100b20000100000000000000ea2900200100000090
:100b300000000000882900200200000000000000e2
:100b40009c2600204400000000000000e026002059
:100b500044000000000000004c2800200d000000b0
:100b600001000000537562496e64657820303030b2
:100b7000000000005c2800200c00000001000000c4
:100b8000020000000100000004000000000000203e
:100b900000200000000000002c28002010000000b1
:100ba00000000000eb290020010000000000000010
:100bb000ec29002001000000000000003029002086
:100bc00004000000000000003429002004000000a0
:100bd0000000000038290020040000000000000090
:100be0003c290020040000000000000040290020f3
:100bf0000400000000000000882800200800000019
:100c0000010000000100000000000000902800200a
:100c10000800000001000000010000002001006049
:100c200098280020080000000100000001000000da
:100c300000000000a02800200800000001000000c3
:100c40000100000020011070442900200400000071
:100c500001000000010000004829002004000000fd
:100c600001000000010001164c29002004000000d2
:100c7000010000000100001a3c28002010000000c4
:100c800000000000ed29002001000000000000002d
:100c9000ee2900200100000000000000ef290020e4
:100ca0000100000000000000f02900200100000009
:100cb00000000000f12900200100000000000000f9
:100cc000c42900200200000000000000c629002006
:100cd0000200000000000000502900200400000075
:100ce0000000000054290020040000000000000063
:100cf000c82900200200000000000000f2290020a6
:100d00000100000000000000f329002001000000a5
:100d1000000000005829002004000000000000002e
:100d20005c29002004000000000000006029002071
:100d300004000000000000006429002004000000fe
:100d400000000000682900200400000000000000ee
:100d50006c2900200400000000000000ca290020c7
:100d600002000000000000007029002004000000c4
:100d700000000000f4290020010000000000000035
:100d8000f529002001000000000000008429002057
:100d90000100000000000000f62900200100000012
:100da0000000000074290020040000000000000082
:100db000c42500205000000000000000002000209a
:100dc0000c02000000000000782900200400000050
:100dd000000000007c29002004000000000000004a
:100de0008029002004000000000000000000000036
:100df000000000002222222222222222222222225b
:020000040000fa
:100e0000050e00cc8813ff00000040c000007f00ea
:100e1000d80400e05592000001000000000000002e
:100e20000000000000000000001080008010800022
:100e300000108000801080000c0000000000000006
:100e400000000000000000000000000000000000a2
:100e50000000000000000000000000000000000092
:100e60000000000000000000000000000000000082
:100e70000000000000000000000000000f00010062
:100e80000a004000080a5353435f4465766963656e
:100e90001553414d453533204574686572434154bf
:100ea00020536c6176650853796e6368726f6e0bc0
:100eb000534d2d53796e6368726f6e1b496e70755a
:100ec00074732070726f6365737320646174612042
:100ed0006d617070696e6707436f756e7465721c23
:100ee0004f7574707574732070726f6365737320bf
:100ef00064617461206d617070696e670754726916
:100f0000676765721e0010000100020200230100e5
:100f100000000004000001001100000000000000bb
:100f2000000000000000000028000200010203ff92
:100f300029001000001080002600010180108000b0
:100f400022000102001104006400010300140400e7
:100f50002000010432000800001a0103000500000f
:100f6000006001060720000033000800011601029e
:100f70000007000010700108072000003c000c0072
:100f80000000000000000000000000000000000061
:100f90000000030400000000ffffffffffffffff52
:100fa000ffffffffffffffffffffffffffffffff51
:100fb000ffffffffffffffffffffffffffffffff41
:100fc000ffffffffffffffffffffffffffffffff31
:100fd000ffffffffffffffffffffffffffffffff21
:020000040000fa
:101600002de9f04f89b0b0f80890944b1e78002e69
:1016100040f0ae835ffa89f808f0e0040546202c1c
:1016200019d009d9402c16d0602c00f0b3810027c6
:10163000bb464ff0030a06e0002c00f0ab81002708
:10164000bb464ff0030abaf1ff0f40f0ab813046c2
:1016500009b0bde8f08fb5f800a06f893b0203eb3d
:1016600019239bb20393184606f03cfd0490002812
:1016700000f086833a0a0592037b9a4204d9002738
:10168000bb464ff0110a8de108f0100306930246a5
:101690000599039804f0feff8346402c48d0202c87
:1016a00000f09d80074600230793069b002b40f027
:1016b000c380bbf1000f08d1694b039a1a80694bb4
:1016c000059a1a70684b049a1a60402c00f0318118
:1016d000069b0193079b0093049b3a460599039848
:1016e00001f0c0f98246ff2840f05c8101235f4a87
:1016f00013705f4a069911705e4a059911705e4a2f
:10170000039911805d4a17605d4a07991160049a38
:10171000116a5c4a1160514a13705b4b1d602b8942
:1017200023f0ff0309f0f00943ea09032b818ee758
:10173000baf10a0f40f01e83431e032b44d805f173
:101740000c0307930023ab81eb8133460746069acf
:10175000002a72d1002bacd001234c4a13704c4aa2
:1017600013704c4b069a1a703d4b039a1a803d4bee
:10177000059a1a703c4b049a1a60402c0cbf5a46ca
:101780003a46454b1a60454b186808b103f05cfeb9
:10179000414b1868013020f0010002f017fc3f4b6c
:1017a0001860002852d0402c00f08280aaf10a076d
:1017b0003a4605f1100106f08efd394b00221a70f1
:1017c000b246384b1f603ee7374b1f88103fb84288
:1017d00000f2e38205f1100307933346b7e718f0f0
:1017e000020f0bd0baf10a0f40f0c682c8f381078e
:1017f000c7f1040705f10c03079356e7eb89af899e
:1018000007eb0347294b1b8807f110029a420dd9b9
:10181000063b9a4540f0b28205f110030793aaf106
:101820000a03bb422cbf0023012390e707f10a0300
:101830009a45f1d008260ae73346059a012a02d9cb
:101840004ff0050aaee00122069283e7069b002bcb
:1018500014bf4ff0050a4ff0040aa3e0ed29002061
:10186000c8290020f329002068290020f42900203d
:10187000f1290020f5290020ca2900207029002024
:101880006c2900205c29002060290020ef2900201d
:10189000f0290020ee29002054290020642900208e
:1018a000f229002050290020c2290020c029002050
:1018b000069b01930090049b5a460599039801f0fa
:1018c00065fb824650b3ff287ff47bafa44b042214
:1018d0001a70a44b069a1a70a34b059a1a70a34b60
:1018e000039a1a80a24bc3f800b0a24b1a68a24b0d
:1018f0001a60049bda69a14b1a60a14b01221a708d
:10190000a04b1d602b8923f0ff0309f0f00943ea87
:1019100009032b819c4b60221a7098e63a46954b3e
:10192000196805f1100006f0d6fc974b60221a707a
:1019300047e7069b0193079b0093049b5a46059932
:10194000039801f023fb8246ff282bd1844b03220e
:101950001a70844b069a1a70834b059a1a70834b3f
:10196000039a1a80824bc3f800b0834b079a1a601f
:10197000049bda69814b1a60814b01221a70814bfa
:101980001d602b8923f0ff0309f0f00943ea0903e6
:101990002b815ce67c4b1b78a3420ed00027bb4614
:1019a0004ff0030a0195cdf800b0bbb208f0100269
:1019b0002146504603f0c4fd49e6002c40f0428128
:1019c000724b1a7809f010039a4200f02381704b91
:1019d0001b8808f010026d490a70664a11680029d8
:1019e00000f02d81093b9bb26a4a10686a4a12686e
:1019f000121a19f0010f18d09a4200f2cb812b88ed
:101a0000033b9a4200f2c6816fea690707f00707b5
:101a1000ba4205d0072a40f2bd819a4240f0ba810d
:101a20005e4b00271f70174608e05c4f4ff0010c1b
:101a300087f800c01f469a4240f2ac8110f0010fb7
:101a40006ed1430868894fea192242ea002221f840
:101a5000132007f1010c4fea5c0cbcf1010f1bd9fc
:101a600001200346dff80c91dff828e105eb430b7a
:101a7000def8002000eb5201d9f80000bbf808a006
:101a8000bbf80a20120242ea1a2220f81120013380
:101a90009bb218466345e9d3404b93f80090b9f1e7
:101aa000000f1fd13e4b1b780193324b1b680093f4
:101ab0003c4b1b68384a12683b4909783b48008810
:101ac00000f0d0ff8246ff2872d0dff8a890d9f846
:101ad000000003f0b9fc0023c9f80030baf1000f90
:101ae00040f09a800a232b7000236b70eb88c3f3bd
:101af0000b0343f44053eb80244b1b78002b14bfa3
:101b0000302320232b81254b1b78012b7ad00023f7
:101b1000204a13601c4a1370a2461f469b4641e7a9
:101b2000430811f8132021f81320124919480268bc
:101b30005208d1f800c02b8923f0ff033cf812e0d3
:101b400043ea0e032cf81230036823f0010302333a
:101b500008687a1e05f10a01184406f0bcfb9be7f1
:101b6000f4290020f1290020f5290020ca290020ad
:101b700070290020642900206c2900205c290020a5
:101b8000ed29002060290020f2290020f029002002
:101b9000c02900205029002054290020ef290020ce
:101ba000ee29002068290020f3290020c829002000
:101bb0007c4b02221a707c4b1a787c4b1a707c4b3f
:101bc0001a787c4b1a707c4b1a887c4b1a807c4ba1
:101bd0001a687c4b1a607c4b1a687c4b1a607c4bf1
:101be0001b681a6a7b4b1a607b4b01221a707b4b75
:101bf0001d6000237a4a13707a4a13707a4a136080
:101c00004e4624e5784a13683b441360a2460027f9
:101c1000bb46c7e64ff0010a0023714a1370714ab0
:101c20001370694b186820b103f00efc664b00225c
:101c30001a6000236c4a13601f469b4603e54ff071
:101c4000030ae9e72f7a07f01007684b1b78bb42bd
:101c500000f09b80664b1b88093b9bb2634a177060
:101c60009a46614a1168564a12680b44934286bfed
:101c7000a2eb010ab3464ff0010b594b83f800b0b9
:101c80005ffa89f9a5f8089011f0010245d14908d9
:101c90004d4b186830f8113049ea0329a5f808902f
:101ca0005fea5a0e13d000230a4400eb420cbcf842
:101cb000029030f81220120a05eb430c42ea092286
:101cc000acf80a2001339bb21a469e45ecd8eb884b
:101cd000c3f30b0343f44053eb802b8903f47f439e
:101ce000bbf1000f2ed01f432f81baf1060f2dd864
:101cf0000a232b7000236b70caf1070347ea4307de
:101d00002f81374b1b78012b24d1374a136853445a
:101d10001360b2460027bb4644e62b4b1a684908bd
:101d200032f8113023f0ff0343ea0909a5f80890bf
:101d300002eb41010af1ff32023105f10a0006f01f
:101d4000cafac4e747f001071f43cde70af10303ce
:101d50002b80d6e71c4f386803f076fb00233b60ee
:101d6000214a13601f4a1370b2461f469b4619e66c
:101d700009266ce408266ae4082668e4082666e476
:101d80000027bb464ff0080a0ce60027bb464ff081
:101d9000010a07e64ff00e0a3ee7012300220792f0
:101da000d5e400bff4290020ee290020f12900200d
:101db000f3290020f5290020c8290020ca29002085
:101dc0005429002070290020642900206c2900205b
:101dd000682900205c290020ed29002060290020ce
:101de000ef290020f229002050290020f0290020ae
:041df000c2290020e4
:020000040000fa
:101df400f0b585b00023029301938c4a94898c4af0
:101e040095898c4a13808c4a1370022006f0fcf9e1
:101e140002688a4b1a80436803f00203002b0cbf4c
:101e240003260126032006f0eff90368844a138091
:101e3400426802f00202002a0cbf032201229bb274
:101e44008049b1f800c00cfb02327f4909888a42fc
:101e540004dd7e4800880844834277db7c480088a0
:101e6400824204dd7b4a1288024493426edb734a49
:101e74001788794a128806fb0272914204da734e7b
:101e8400368831448f4267db904204da714909880d
:101e94000844874260db934202da63449f425bdb7f
:101ea40004224ff4186103a804f0a6fbbdf80c301b
:101eb400039304224ff41a6102a804f09dfb042248
:101ec40040f6a4110deb020004f096fb019e574b63
:101ed4005b88574a5188039a12f4106f00f0f68118
:101ee40012f4007f00f09d812c400ad014f0040ffe
:101ef40000f0998114f0080f03d112f4806f40f0c0
:101f04009481029840b1494d2d69a842c0f08f8157
:101f1400524da84200f28d8102f4c065b5f5c06f40
:101f240021d000204e4c2478002c40f031824a4bc2
:101f34001b88002b00f06b82002840f0b781414bd6
:101f44001988002900f03382022363e2022103206e
:101f540003f0fcf91e2004e00221084603f0f6f920
:101f64001d2005b0f0bd002e00f0ac818642c0f00b
:101f7400ab8114f0100f00f05e810120d2e7022b38
:101f840000f06381022900f06281032b40f0ac81f0
:101f940034e2314b1b8833b12a4b1988002940f0b5
:101fa40082810123a0e1274a1188003118bf012151
:101fb4009ae1032122e241ea030292b2002a40f0ac
:101fc4000482284b1b78002b40f0dc811346911ec1
:101fd40089b2012950d915494b80154b5a800023e9
:101fe400214a1380214a1380214a138001285fd19a
:101ff400029bf1189e42c0f0c080b1fbf3f082b2a4
:1020040003fb1013002b40f04181511c174b198026
:10201400184b1a804fe0074a4ff4806414809a1ecc
:1020240092b2012a40f23a810a46d0e7e026002023
:102034009c260020b4290020d6290020ac290020a9
:10204400aa290020b0290020be290020c22900208e
:10205400bc290020c0290020b2290020000050c360
:10206400ea290020da29002098290020ba29002032
:10207400b82900209a290020a04901240c70a04905
:10208400098811b99f4900240c809f494b809f49be
:102094004a8000219e4c21809e4c21809e4c2180b0
:1020a4009e4c21800128a3d0022b76d0032a02d093
:1020b400974b01221a800023994a1380009304222b
:1020c4004ff48461684604f097fa009c8c4b1b889b
:1020d40013b1a3b2002b64d1924b00221a80924b0d
:1020e4001b78002b40f0b780904b1b783bb1844b9e
:1020f4001b8823b1834a138843f48063138000232d
:102104008b4a13808b4a13808b4a13808b4a13802b
:102114008b4a13708b4a13708b4a13807b4a138546
:10212400538582f84030784a1385538582f84030cd
:10213400039b13f4007f14d00299002900f08d80d2
:10214400824a914255d87a4a0120108013f4806f54
:1021540007d0019b994240f28480754b1a88774bd3
:102164001a80674b1b88002b53d1794b1b88002b9b
:1021740053d104f0e5fe0020f3e6674a0120108005
:10218400b1fbf3f082b2624c228003fb1013002bec
:1021940091d001325e4b1a808de75f4b012119808b
:1021a40084e70023009304224ff48061684604f01e
:1021b40023fa009b9ab2002a00f0d8800232a3b21c
:1021c40046f2a71402fb0343db08624aa2fb032383
:1021d400c3f30f23534a13805f4a00211180002b5d
:1021e4003ff47daf504b1b78002b7ff47daf1f2055
:1021f400b7e64a095948a0fb0202d209520092b23a
:102204005748a0fb0202d208494802809ee70123f6
:1022140035e0022005f0befca7e7032005f0bafc78
:10222400a7e730209de630209be6302099e6362053
:1022340097e6362095e6302093e6302091e630206c
:102244008fe630208de630208be6302089e6302082
:1022540087e6292085e61f2083e613f4806f80d06b
:10226400019b0b44394a9342d1d95b093b4aa2fbf7
:102274000323db095b003a4aa2fb0323db082c4a55
:10228400128803eb52032d4a13806ae7224b1a800b
:102294007fe71a4a012414700a46f3e6174a012418
:1022a40014700a46f1e6222101231de0284b198807
:1022b400002900f0a38012f4806f7ff47aae02212b
:1022c400032399e000202de600202be6254a107810
:1022d40000283ff45eae9a1e92b2012aadd98a1e3e
:1022e40092b2012aabd900201f4a1278002a7ff447
:1022f40062ae002b66d1292033e600bfd529002029
:10230400b2290020b4290020e02600209c260020c9
:102314009a29002098290020ba290020b8290020f1
:102324008829002094290020dd290020da290020b2
:102334009e2900209c290020a0290020a2290020f9
:10234400d4290020dc290020a62900201fa1070091
:10235400b029002089b5f81492290020c55a7c0ab6
:10236400cdccccccea290020d129002000232d4a51
:1023740013802d4a1380b2e62c4b4ff480611980f0
:10238400134624e62a4b19880029f5d10b4624e08c
:1023940012f4806f30d1032b3ff453af03293ff481
:1023a40052af12f4007f3ff4eaad022b9cd1029ba2
:1023b400204a53625360204a5362536002231f4ae7
:1023c400127812b900293ff444af1d4a0124147055
:1023d400174a1288002a7ff41eae1a4a12881ab1cc
:1023e400124a4ff4006414809a1e92b2012a7ff6b6
:1023f40050af0a46ebe50221032bd6d1029b0d4ace
:10240400536253600c4a536253600323d7e70d4968
:10241400098821b112f4806fedd00321c5e70b4682
:1024240062e700bf9429002092290020b4290020eb
:10243400b2290020e02600209c260020d12900207b
:08244400da290020b029002074
:020000040000fa
:10244c002de9f0419b4b4ff6ff721a809a4b0122fb
:10245c001a7010f0100723d0984a137823f0100349
:10246c00137001270e4600f00f05944b1c7805ebfa
:10247c00041404f0ff04442c00f0ba8000f2ad8088
:10248c00222c00f0a4801ad9242c40f09d808c4979
:10249c008c4802f04bfc8046002840f0b380a7e04b
:1024ac00864b1b7813f0100f04d000f00f02012a9a
:1024bc0040f0ad8203f00f03804a1370d2e7122c68
:1024cc0000f08580804b00221a80a4f11103772b39
:1024dc0000f25e82dfe813f0c5011601b700280296
:1024ec005c025c025c0228025c025c025c025c0224
:1024fc005c025c025c025c02af01c80128023a017a
:10250c005c025c025c0228025c025c025c025c0203
:10251c005c025c025c025c02000128025c02280284
:10252c005c025c025c0228025c025c025c025c02e3
:10253c005c025c025c025c02a3018e012802c801f1
:10254c005c025c025c025c015c025c025c025c0290
:10255c005c025c025c025c025c025c025c025c027f
:10256c005c025c025c025c025c025c025c025c026f
:10257c005c025c025c025c025c025c025c025c025f
:10258c005c025c025c025c025c025c025c025c024f
:10259c005c025c025c025c025c025c025c025c023f
:1025ac005c025c025c025c025c025c025c025c022f
:1025bc005c025c025c025c029801830128027901d6
:1025cc005c025c025c02c801422c7ff47baf0220ef
:1025dc0001f000fc1ffa80f810e0822cf7d004d92f
:1025ec00842c05d0882c03d06ce7482c7ff46aaf80
:1025fc00364b187801f0eefb1ffa80f8b8f1000f9b
:10260c003ff460af2d4b1b78042b00f05181082b4d
:10261c0000f04a81022b00f04f81b8f1ff0f00f05f
:10262c006081264b187800f00f039d4200f09e81cc
:10263c00b8f1000f40f0d681002e40f09d811f4b69
:10264c001d70b046dbe1224b01221a70022001f012
:10265c00c1fb28b11e4b00221a704ff01508bbe1cc
:10266c00002005f0bbf903f071fe804678b1b8f19b
:10267c00ff0f00f0db81104b1b78bbb102f0b8f9f7
:10268c00032005f042ff124b00221a70c9e70a4bd7
:10269c0000221a7005f0f8ff80460028e7d10d4b98
:1026ac0001221a70032005f030ffbae705f0acffe9
:1026bc00e4e700bf96290020d2290020de29002063
:1026cc00b2290020b0290020a8290020df290020f1
:1026dc00d3290020e3290020af4b1b783bb94ff0e6
:1026ec00000805f0a6ffad4b00221a70ace00020ec
:1026fc00a94b187005f072f902f07af905f084ff15
:10270c008046eee705f074faa54b1b78002b00f021
:10271c003a8103f01bfe804648b1b8f1ff0f00f080
:10272c007881a04b1b7873b102f062f979e79d4b6d
:10273c0000221a7005f0a8ff80460028edd19a4bb4
:10274c0001221a706de705f05fffede7fff74cfb18
:10275c00804648b1b8f1ff0f00f06281914b1b78b5
:10276c009bb103f0a3f95ce78e4b00221a708f48e3
:10277c0005f08cff80460028ecd18c4b188805f0b6
:10278c0049f98b4b01221a704be705f081ffe8e702
:10279c0004f07cfe804648b1b8f1ff0f00f0408198
:1027ac00804b1b7873b105f045fe3ae77d4b002258
:1027bc001a7005f06fff80460028edd17d4b012289
:1027cc001a702ee705f068ffede705f065ff05f0e0
:1027dc0031fe4ff00008734b83f8008021e705f0c1
:1027ec005bff804605f026fe6e4b00221a70b8f196
:1027fc00000f29d105f04cff03f058f94ff00008f9
:10280c00684b83f800800ce705f046ff804605f026
:10281c0011fe644b00221a70b8f1000f14d105f0b0
:10282c0037ff804603f042f95e4b00221a70b8f174
:10283c00000f40f0ab8002f0dbf805f0e5fe8046bf
:10284c00564b00221a702124b8f1ff0f7ff4e9ae29
:10285c00594b01221a70594b1c80594bc8221a80b3
:10286c004fe04e4b00221a7077b9564b1b7813f081
:10287c000c0f00f0af80544b1b884bb9534b1b888b
:10288c0063b94ff0fe08a7e0204605f007ffece720
:10289c00022005f07bf94ff0fe089de0032005f0c7
:1028ac0075f94ff0fe0897e005f0f6fe05f0c2fd55
:1028bc0005f0eefe03f0faf8b8f1160f03d0414b19
:1028cc0002221a70a9e602f093f805f09dfe002092
:1028dc0005f00ef9012005f00bf93a4b01221a70a4
:1028ec009fe6354b01221a70344b1c80242c16d0d9
:1028fc0013d8123ce4b29442afd8314b4ff4fa6285
:10290c001a802f48b0f90030314981fb0321da17c6
:10291c00c2eba1029b1a038079e0482c9dd1284b75
:10292c0042f228321a80ece74ff0110879e6214b7d
:10293c001b7853b9244b1b8863b9244b1b886bb988
:10294c00b8f1000f52d1deb979e605f0a5fe05f01d
:10295c0071fdefe7022005f0cbf8f1e7032005f05d
:10296c00c7f8ede7174b04221a7043e00021124b15
:10297c00197002f0c9f84ae0284310f0080fd6d1bc
:10298c0045f010055be64ff051084ae641245be741
:10299c004ff0120820e000bfd3290020ea290020c4
:1029ac00cf290020d2290020e3290020b4290020bf
:1029bc00d7290020d8290020d9290020a8290020b7
:1029cc0096290020de290020b2290020b029002001
:1029dc00676666664ff0fe081b4b187800f00f0315
:1029ec00ab42c3d0284310f0080fa0d1164b1b7874
:1029fc00082bb7d0144a137843f010031370134b01
:102a0c0000221a704146104b187802f07df8bde890
:102a1c00f0810e4b01221a700d4b12221a806ce7ba
:102a2c000a4b01221a700a4b1c8078e7032005f030
:102a3c006cfd084b00221a70044b01221a70044bd7
:102a4c0013221a8059e700bfde290020d929002063
:082a5c00a8290020d329002065
:020000040000fa
:102a64002de9f04f8bb004900c4616461d46ddf858
:102a740050809df854b01ffa81fa9b89c3f3032256
:102a84000692d9b20591072a00f04182ab6993f806
:102a94000090b9f1000f40f05982a0f5e053103bcb
:102aa4009bb21f2b40f25082a0f5b0539bb2b3f5fa
:102ab400007fc0f05682a0f5d0539bb2b3f5007fdf
:102ac400c0f052824ff23003984208bf89463de27b
:102ad40074b3d146049aa2f5e053103b9bb21f2b6a
:102ae40012d9a2f5b0539bb2b3f5007f0cd3a2f573
:102af400d0539bb2b3f5007f06d34ff230039a4212
:102b040002d00023089305e0ab691b78003318bf9b
:102b1400012308932f6a77b1cdf800b043463246bb
:102b240021460498b847039003980bb0bde8f08f92
:102b3400d1460894eee7002e00f0aa81ca4500f2bf
:102b4400aa8154460723039300230793049ba3f508
:102b5400e053103b9bb2099337e1102a44d0202a5a
:102b640040f060811ee0022b18d81bb2002b40f00d
:102b7400b280bbf1000f00f097817b8813f00f0f38
:102b840005d0184410f00f0f08bf08f10208c3f372
:102b9400031308eb43080123079311e1032b23d00c
:102ba400042b1cd110f00f0f40f08a81089b5bb1fd
:102bb4003288b8f800309a4240f085817288b8f8bb
:102bc40002309a4240f08281b8f800303380b8f87d
:102bd4000230738008f1040801230793f0e01823fe
:102be4000393a1e7072bddd210f00f0f40f06281b1
:102bf400b8f80070089b1bb13388bb4240f05d817c
:102c0400099b1f2b00f29380a7f5b0539bb2b3f539
:102c1400007fc0f09780a7f5d0539bb2b3f5007f37
:102c2400c0f09080002f00f08d80122303937be787
:102c34000b2b00f2368110f00f0f40f050817a8890
:102c44000732d2104146304605f043fb7b881b090e
:102c540008eb430801230793b2e02d2b3bd026d881
:102c64001e2b38d01bd8152b01d01b2b14d110f0e0
:102c74000f0f40f02e81b8f800303380b8f80230de
:102c84007380b8f80430b380b8f80630f38008f1e4
:102c940008080123079393e01823039344e71f2ba9
:102ca400a2d0202b3ff47eaf182303933ce7372bad
:102cb40009d8302b0fd22e2b96d02f2b3ff472af86
:102cc4001823039330e7a3f518739bb2032bb2d9ef
:102cd4001823039328e77a88a54b33f8122000f0d1
:102ce4000f0c02fa0cf1338823ea01031bb2bbf187
:102cf400000f10d09bb2b8f8002011400b43338072
:102d04007b88184410f00f0f40f0b28008f10208dd
:102d14000123079354e0b8f8001031ea020e40f0a2
:102d2400c6800a4002fa0cf213439bb2e7e7049b05
:102d3400a3f5e153123b9bb2012b03d8012c07d01e
:102d4400082c14d0378008f102080123079337e0d8
:102d54003388bb4207d03946049801f06dfb0390d9
:102d640000287ff4e1ae834b01221a70eae7824a1d
:102d740000235361814911615360814a5361116198
:102d8400536017f0020fddd07b4a5385138582f818
:102d940040307b4a5385138582f84030d2e7002cbb
:102da40061d07b8813f00f0f05d0184410f00f0f7b
:102db40008bf08f102081b0908eb43081823039312
:102dc400631c9bb24c4556d01c46e6b2314628469d
:102dd40005f0b4f807462946304603f077f8ba8878
:102de400684b1b7803ea920313f00e0fd7d0ae6939
:102df400002c7ad0c0f30f1306eb4306a24506d08d
:102e0400bbf1000fdcd0a245dad8002c70d03b888f
:102e1400b3f5e06f06d37a88082a3ff69eae02f136
:102e24002f039bb2112b3ff422af3ff616af052bb5
:102e34003ff451af7ff697ae082b7ff6d3ae092b44
:102e44007ff4f6ae10f00f0f46d17a880732d21015
:102e54004146304605f03dfa7b881b0908eb4308e0
:102e640001230793ace708f1020818230393a7e7ab
:102e740001230793a4e7079b002b039b18bf0023a0
:102e8400039351e6112303934ee61a2303934be66f
:102e94000023039348e60723039345e61323039390
:102ea40042e6182303933fe6182303933ce61223d8
:102eb400039339e60523039336e61c23039333e691
:102ec4000523039330e61c2303932de61c2303936d
:102ed4002ae60523039327e60523039324e6052323
:102ee400039321e6052303931ee6baf1000f87d16d
:102ef400069b072b8bd0b8f80030dab205999142c3
:102f0400ccd3338008f102080123079358e7bbf1bf
:102f1400000fe7d14ff00009ca45b3d8214628462f
:102f240005f00cf88288174b1b7803ea920313f020
:102f34000e0f7ff4cdad12f0380fa6d1002a0cbfce
:102f4400052307230393efe5ddf81490bbf1000f8d
:102f5400e2d0002c7ff4bead0eb198f80090089436
:102f6400d8e5ddf81490f1e7ddf81490eee700bf42
:102f740004810000ea290020e0260020a086010048
:082f84009c260020de2900203c
:020000040000fa
:102f8c002de9f04f89b08046049114460293129dae
:102f9c009df84ca01ffa81f919469b89c3f30322b3
:102fac000792dbb20693072a00f06d81b0f5805fc3
:102fbc00c0f063818b6993f800b0baf1000f10d0a8
:102fcc00cdf818b0029bde6986b1cdf800a02b4677
:102fdc00224604994046b0470390039809b0bde8d7
:102fec00f08fcdf818b051e1cb46ebe7b8f5805f28
:102ffc0004d2049b83b903934c4605e0cb4508d31c
:10300c004c460023039304930027cdf814a0c2462a
:10301c00cee100230393e0e7049e3146029c204658
:10302c0004f088ff42880732d21006f18041013942
:10303c00a36953f8211011f0010f22d094b221f0a2
:10304c0001026608012c0dd9002113881b0a2b8064
:10305c0032f8020f43ea002325f8023b01318bb210
:10306c00b342f2d314f0010f00f0ec802b8803f480
:10307c007f432b80128843ea12232b800023039377
:10308c00abe70b882b804b886b80043a0431281dee
:10309c0005f01bf9002303939fe7079b072b00f018
:1030ac002781069b25f8023b7de1bcf1100f34d043
:1030bc00bcf1200f40f02f811de0022b17d81bb262
:1030cc00002b40f08580059b002b00f0c18073889d
:1030dc0013f00f0f04d0984418f00f0f08bf0235ef
:1030ec00c3f3031305eb4305012304935be1032bab
:1030fc0013d0042b0cd118f00f0f40f0af8032f826
:10310c0010302b804b886b800435012304934ae1eb
:10311c001823039361e7072bedd218f00f0f40f043
:10312c009a8032f8103025f8023b012304933ae1df
:10313c000b2b00f28a8018f00f0f40f095807288ec
:10314c000732d210284605f0c0f873881a0905eb2f
:10315c00420513f00f0f62d02b782b8001230493c0
:10316c0021e12d2b34d020d81e2b31d016d8152b85
:10317c0001d01b2b0fd118f00f0f72d132f8103079
:10318c002b804b886b808b88ab80cb88eb80083591
:10319c000123049307e1182303931ee71f2bbcd0d4
:1031ac00202ba8d01823039317e7372b08d8302be4
:1031bc000ed22e2bb1d02f2b9dd0182303930ce7be
:1031cc00a3f518739bb2032bb5d91823039304e70b
:1031dc0008f00f0c7388854931f8133003fa0cf39f
:1031ec009bb232f81000bcf1000f00d12f802a885e
:1031fc00059959b1034013432b807388984418f0f8
:10320c000f0f09d1023501230493cce0034043fa9c
:10321c000cf313439bb2efe701230493c3e00123a8
:10322c000493c0e001230493bde0049b002b039b9b
:10323c0018bf00230393d0e611230393cde6052397
:10324c000393cae600230393c7e618230393c4e64b
:10325c0018230393c1e605230393bee605230393ca
:10326c00bbe605230393b8e605230393b5e60523d4
:10327c000393b2e605230393afe6baf1000f05d032
:10328c0005230393a9e6baf1000ff3d1069b4b4536
:10329c00d2d30499029804f04dfe8388002bced033
:1032ac00534a127802ea430212f00e0f7ff49caede
:1032bc0003f00703002b0cbf06231a2303938ce6a1
:1032cc00e1b2029804f036fe06468288484b1b7821
:1032dc0003ea420313f00e0f43d0b846a14504d0c5
:1032ec00059b002b5fd0a1455dd8002c3ff4d5aedb
:1032fc00029b9a69c8f30f1002eb40013388b3f5b7
:10330c00e06f08d3b6f802c0bcf1080f3ff6cdaea3
:10331c000cf12f039bb2112b3ff42daf3ff621afd5
:10332c00052b3ff455af7ff6c8ae082b7ff6f3aef6
:10333c00092b7ff4fdae18f00f0f98d1728807326d
:10334c00d210284604f0c1ff73881a0905eb420518
:10335c0013f00f0f3ff466af2b782b8001230493ef
:10336c0021e0b8462f80738813f00f0f05d09844d6
:10337c0018f00f0f04bf6f800235738813f0f00f35
:10338c0009d03b4625f8027f0133dbb27288c2f3c9
:10339c0003129342f6dbb38803f00703002b0cbf38
:1033ac0006231a2303930134a4b2a345fff43dafc3
:1033bc00002c85d0baf5805f82d3e6b202993046f4
:1033cc0002f080fd80463146029804f0b3fd0646bb
:1033dc008288074b1b7803ea420313f00e0f7ff42d
:1033ec007daf18f00f0fbed1bce700bf0481000009
:0433fc00de290020a6
:020000040000fa
:1034000038b50388052b40f25b81991f89b20446c9
:10341000c388013b052b00f2e880dfe803f0032db1
:103420004662acbba94b1b8813b148f2040363e0ae
:103430000c306289238943ea0243024604f046fdc8
:103440000346a34a0021116047f69572904205d8c1
:10345000a04a01211160a04a1060b0e047f6fa725c
:10346000904200f2f18000229a490a609a490a606b
:10347000964a01211180bee0944b1b8813b148f29b
:10348000040339e04289038943ea02420c3004f024
:103490000bff034628b98f4b00221a6047f6fd73d5
:1034a000d9e08c4a0021116085e0884b1b8823f00d
:1034b00004039bb2022b02d048f204031ce04289b1
:1034c000038943ea0243834a12689a4202d048f2cf
:1034d000050311e00c3004f02dfa03460028ddd07e
:1034e00069e07a4b1a88012a30d047f6fe7148f21b
:1034f0000403042a08bf0b4613f4004f00f0c380f6
:1035000000220521a171e2712381a272e2720623d9
:103510002370627004f10c01a38913f0ff0f00f017
:10352000d18013f47f4f00f0cf8002235a0831f886
:10353000122012f0ff0f00f0b28012f47f4f00f063
:10354000aa800233dbb2202bf0d1aae0624d00f159
:103550000c01286804f0b6fd03462a685c490a603d
:1035600047f69571884242d802442a6059490a6850
:1035700001320a6023e0554b1b8813b948f204035b
:10358000bae74089238943ea004004f09fff47f6e9
:10359000ff73b1e74d4b1b88012b04d0042b02d0e5
:1035a00048f20403a8e704f10c02494b196820898a
:1035b00005f012f8034647f69572934217d8454a2c
:1035c00012680321a1710021e1712281c2f30f422f
:1035d00062819a1d2280414a12880c3a93423b4be9
:1035e0000cbf012204221a8011e048f2040347f6be
:1035f000fa72934228d800220621a171e271a3f544
:10360000ff43163b2381a272e27221706270344b39
:103610001d78002d49d0a388c3f30b03a380314a42
:10362000127812f0070f02d12e4a012111702d4994
:103630000a7843ea0233a38001320a70204602f07e
:1036400079fb0023184638bda3f5ff427c3a92b2bd
:10365000012a3ff651af1f490a68501c086000213b
:103660000420a071e1712281c2f30f42628106221f
:103670002270617047f6fd729342144b0cbf022218
:1036800000221a80c3e70025104b1d80204601f060
:10369000dbfe2b46d6e70133dbb21f2b01d8073305
:1036a00023800a4b00221a80b1e74021204603f014
:1036b00083f803460028c5d00b4b1c602b46c1e79e
:1036c0000623bfe70023eae70123e8e78e2900206d
:1036d00010290020142900200c290020c2290020d4
:0c36e000d3290020e82900200829002040
:020000040000fa
:1036ec00f0b585b0044600238df80f30058905f040
:1036fc007f05052d0fd00388072b40f23c81032d4d
:10370c000dd0052d0bd0012d40f010818389052b98
:10371c0010d9022122e10388092b40f22a81a389c6
:10372c0098b2adf80c30b0f5805f77d205238df8e8
:10373c000f30fee0924d00686168a26807c5a2894f
:10374c002a8013f0ff030ed100258e4b1d8004f14f
:10375c000c06e8b203f0a0fd26f8020f0135052d8a
:10376c00f7d1122022e0013bddb2864b19880029eb
:10377c0035d0854b1a880c3a92b204f10c0383486d
:10378c000088adf80c0001397e4801800df10f0165
:10379c00009103a9284602f085fe7c4bbdf80c2055
:1037ac001a80794b1b88063b181a80b220809df832
:1037bc000f30002b40f0bd80238923f07f0242f0b4
:1037cc00020222816f4a12886281002a00f0d580a1
:1037dc0023f0ff0343f0820323818221bee02846bd
:1037ec0003f05afd4ff48053adf80c30664b19883a
:1037fc00a1f10e0292b204f10e034000904209ddd9
:10380c000c398eb2811a701e014491fbf6f15d48a1
:10381c000180bbe75b4900200880b7e704f05cfc43
:10382c00064600287ed0032d0bd0e789ffb204f0aa
:10383c0029ff4388dbb29f4232d911238df80f3018
:10384c0077e004f01fff0368c4f80e300023324603
:10385c001946bdf80c0001f0d3ff4b4b1b88053b00
:10386c000c3080b283420fdc0c229df80f30002b01
:10387c005fd1a372e3722280238923f07f03013589
:10388c001d432581022169e004f112033246002117
:10389c00bdf80c0001f0b4ff00f10c0292b2e4e7a9
:1038ac003946304604f046fb036823618388a382c3
:1038bc00e389dbb2e381304604f0e4fe4388c3f3d2
:1038cc000323083b9bb2012b0fd877b9304a1668fb
:1038dc0050689168c4f81660c4f81a00c4f81e1039
:1038ec00127b84f822201c22bfe700233246394683
:1038fc00bdf80c0001f084ff234b1a88053a00f147
:10390c0010039bb29a4201dc1022aee704f11603bd
:10391c0032463946bdf80c0001f072ff00f110027e
:10392c0092b2a2e708238df80f3002e003238df842
:10393c000f309df80f1000220a2323706270238928
:10394c0023f07f0343f007032381a272e272114b31
:10395c0053f82130e3600b4b1a800221204602f011
:10396c0025ff034610b10c4b1c600023184605b014
:10397c00f0bd0623fae70623f8e70221eee700bfc5
:10398c003c280020c4290020c2290020c629002080
:0c399c004c280020586e00000429002078
:020000040000fa
:1039a80038b5804b1b78002b68d07f4bb3f90030bb
:1039b800002b6bd17d4b1b88c3f30714242b32d00b
:1039c80011d8123b9bb2012b00f2e680784b1b7892
:1039d80033b301f00ff8774b1b78002b00f0de8033
:1039e800754b1d8815e0482b12d1744b1b78002ba2
:1039f80029d0734b1b78002b30d0724b1b78002bcf
:103a08003dd1714b1b88002b0cbf1a251b2526e0c6
:103a18000025002c32d0634b00221a7055b327e0e2
:103a280004f0f4fdd5e7624b1b784bb102f040f887
:103a3800604b1b78002b00f0b3805f4b1d88e8e7d4
:103a480004f028fef2e7604b1d88d5b95f4b0122d0
:103a58001a70544b00221a7008240be02d25544b81
:103a68001b7883b104f0e8fc44b14e4b00221a7075
:103a780044f010042946204601f048f838bd1a25bc
:103a8800ede71b25ebe704f009feebe7474b1b8846
:103a9800242b46d01bd8123b9bb2012beed8444bab
:103aa8001b78002bead0424b00221a7004f0eefd7e
:103ab800054600282ed1464b01221a703b4b1c7834
:103ac80014f00f04dad0374b00221a70d2e7482bd3
:103ad800d4d1374b1b78002bd0d0384b1b78002b18
:103ae80040d03c4bb3f90030002bc7dd3a4ab2f95d
:103af80000209a42c2db0023364a1380364a1380dc
:103b08002b4a137004f0c8fd28bb304b01221a70f1
:103b1800082415e0ff28b1d004f078fd00f06aff12
:103b2800ace7234b1b78002ba8d0214b00221a703e
:103b38002a4804f0adfd38b9294b01221a70042433
:103b48000025184b1d7095e7ff2897d004f0a2fdbb
:103b580001f0aeff92e7ff2890d004f09ffd04f03b
:103b68006bfc8be7184b1b881bb1164b1b78002b83
:103b780084d00f4b00221a7004f08efd20b9134b2d
:103b880001221a700824dbe7ff283ff477af04f01e
:103b980085fd04f051fc71e700253ae7012563e74c
:103ba800012561e7d929002096290020a8290020ad
:103bb800d2290020db290020b6290020d5290020a1
:103bc800d4290020d6290020b2290020d829002095
:103bd800e3290020a6290020a4290020b4290020d8
:043be800d7290020b9
:020000040000fa
:103bec00f0b585b00023039304224ff4a06103a821
:103bfc0002f0fefc039c002c01db05b0f0bd04f0d0
:103c0c00e064042240f204510deb020002f0f0fcdf
:103c1c000198039b23f0e0430393b4f1807f28d0f9
:103c2c0018d9b4f1007f42d0b4f1806f40f0bf805e
:103c3c00614b1b88082b5ad0604b1b68002b00f083
:103c4c00a0809847002800f09780039b43f0005316
:103c5c00039302e0002c40f0aa80594b00221a80fa
:103c6c00039b029304224ff4a06102a802f0f8fe19
:103c7c00c3e7544a12683ab190470028edd0039b31
:103c8c0043f000530393e8e7b0f5006f0bd84e4aae
:103c9c00146844b1484b1a884ff4a16104eb4000fe
:103cac0002f0defed9e743f000530393d5e7474a11
:103cbc00126852b1904718b1039b43f00053039321
:103ccc00434b4ff47a721a80c7e7b0f5006f0ad8ed
:103cdc003d4a14683cb102224ff4a16104eb400050
:103cec0002f086fcece743f000530393e8e7354d14
:103cfc00354e314f2ce0039b43f000530393ace75c
:103d0c003368002b33d03a884ff4a16103eb4000a9
:103d1c0002f0a6fe039b23f0f043039302930422cc
:103d2c004ff4a06102a802f09bfe04224ff4a061a4
:103d3c0003a802f05dfc039c04f0e064042240f252
:103d4c0004510deb020002f053fcb4f1806f84d1ee
:103d5c000198b0f5006fced82b68002bd0d09847c7
:103d6c000028d7d0039b43f00053039375e7039bc4
:103d7c0043f00053039370e7039b23f0006303931a
:103d8c006be703f011f968b90f4b186850b10422b6
:103d9c004ff4a161103002f063fe039b23f000632b
:103dac0003935ae7039b43f00063039355e743f0f7
:103dbc000053039351e700bf8a290020cc28002030
:103dcc005a280020c8280020f0280020d4280020e1
:043ddc008629002014
:020000040000fa
:103de000704b1a8841f6fe739a4240f2d78070b544
:103df0000446002004f00afa436813f4803f03d01d
:103e000003f00c02042a01d0162070bd13f0020f3b
:103e1000fad00268130c223b9bb2de2bf4d8a2f539
:103e200080539bb2b3f5805feed2012004f0eef92f
:103e3000436813f4803fe7d013f00c0fe4d113f084
:103e4000020fe1d003681a0c223a92b2de2adbd8c4
:103e5000a3f580539bb2b3f5805fd5d2032c14d861
:103e6000032c44d0504b1b78a34240f299804f4e14
:103e70004d4d204604f0caf9436833600134e4b282
:103e80002b78a342f5d80020bfe7494b01221a70d6
:103e9000032004f0bbf90268130c406810f4803f63
:103ea0003ad0002b3ed043490988994201d00321e2
:103eb00039e0013b9bb2432b3ad810f00c0f39d1bb
:103ec00092b23d4b1978022905d03c4b1b88934296
:103ed00007d0022127e0a2f5805293b2b3f5805fac
:103ee00021d210f0020f02d0314b00221a700220b2
:103ef00004f08cf90268130c406810f4803f42d043
:103f0000002b47d02e490988994215d00321022061
:103f100001f01efa1d2078e7264a12881343e6d0e6
:103f2000032100e00421032001f012fa1e206ce7b7
:103f30000321f8e70421f6e7013b9bb2432b2bd882
:103f400000f00c03042b01d00421e0e792b21a4bdd
:103f50001978022905d01b4b1b88934207d00221f8
:103f6000d5e7a2f5805293b2b3f5805fcfd2c0f30c
:103f70008012154b1a7010f0020f3ff473af0c4b08
:103f800000221a706ee70e4a128813433ff46aaf9c
:103f90000321bce70421bae70321b8e714207047e6
:103fa000002032e7ae290020df2900201829002058
:103fb000d1290020b0290020de290020aa290020d4
:0c3fc000b2290020ac290020dd290020df
:020000040000fa
:103fcc002de9f04f87b0039003a803f013fc0028f1
:103fdc0003da002007b0bde8f08f039b1b095d1ec0
:103fec00202d0fd9023b5e4ab3f5007f35bf02eba3
:103ffc00d30302ebd31313f8045c13f8045c34bf43
:10400c00013511350123a5f12001c5f1200203fa78
:10401c0001f923fa02f203fa05f8d8f1000849ea8b
:10402c00020969eb4909cde90089dff84081dff825
:10403c0030914746d8e90023009902ea010a019918
:10404c0003ea010b5aea0b0342d1039b05a8103378
:10405c00059304f02ff918b9424b0c221a60b9e7fa
:10406c00d8f80852a84206d0059b103b05930123b3
:10407c0000f110058360059bea18012143f0010350
:10408c00b5f1080442f8083c42f8041cc7f80822b1
:10409c0045f8043c9dd0204603f0f2fd88b155f85c
:1040ac00083c55f8041c23f00103e31a5a6822f06b
:1040bc0001020a445a6055f8041c21f001016250b7
:1040cc001c462046039903f0f3fd04f1080081e738
:1040dc005446254bbaf1000f34d1cbf1000000ea65
:1040ec000b00434309ebd36393f83c602036304616
:1040fc0004f022f8731c57f8334007ebc303083b5a
:10410c009c4297d0272e26dd0235ae4201dc3f2e95
:10411c0021d16268039922f00102551a284603f056
:10412c00b1fc864217d1e068a6686318d8609e601f
:10413c0083609868c36041f0010060505d60a550d9
:10414c006060bee7caf100002040434309ebd36333
:10415c0093f83c60cbe73146204603f071f8b0e7aa
:10416c00987100007c29002029e66b0700200020b4
:020000040000fa
:10417c0010b5564a536803f47063d26912f0010ffc
:10418c0031d0524ad06852494a69c9688a422ad207
:10419c006bb94f4b5968541c5c6188544b4bdb69b1
:1041ac0013f0020f3fd0494b02225a6125e0484bd5
:1041bc005968541c5c6121f81200444bdb6913f004
:1041cc00020f30d0414b02225a61414a93699268e6
:1041dc00934245d23e4a1168581c906131f8132025
:1041ec003a4b1a6115e0394ad26912f0020f1ad013
:1041fc00364a02215161002be7d1354a9369926806
:10420c00934221d2324a1168581c9061ca5c2f4be0
:10421c001a612f4b9a699b689a422cd02c4b5a6985
:10422c00db689a422cd02b4b1b7863b1274bdb6994
:10423c0013f0040f04d0264b5a69db689a4225d040
:10424c00224b04229a6110bd214b1b69002b30d0ec
:10425c001e4bff221a611e4a1369013b1361d8e7fa
:10426c001b4b1b692bb3194bff221a61184a13699c
:10427c00013b1361cde7164b1b69002bced11de022
:10428c00124b01225a6102229a61cce7104b002298
:10429c001a770e49072048610e490a701b6a002bd9
:1042ac00d1d00b4a506a98470a4b1b78002bc7d1c8
:1042bc00c9e7074b9a699b689a42afd1054b01221b
:1042cc001a70024b044a1a60ade700bf003400427a
:0c42dc008c270020852900200200000132
:020000040000fa
:1042e80030b583b04ff48033019302f039fd4b4b66
:1042f8001b78002b3cd103f017f9044610f0200f6f
:104308003ed114f0010f4ed0454b1b78002b3ad00c
:1043180014f0100f5fd1424b1b78002b5bd13f4b41
:104328001b781bb3019b13f4803f57d014f4007f14
:104338005cd1019b13f4003f63d03a4b1b7883b9df
:1043480002f09afe374b1b78002b5fd0019b43f09d
:1043580000730193042240f60c010deb020002f0f9
:1043680081fb03f0e1f810f4807f53d103b030bd36
:10437800042240f60c010deb020002f03bf9bae70b
:10438800fff730fcbde70025009504224ff490713b
:10439800684602f02ff924f01104a4b229469df8ca
:1043a8000000fef74ff814f0100fb4d01c4b1b7828
:1043b8008bb91d4b187810f0100fb0d120f01003f6
:1043c800012bacd024f01004a4b2002100f00f009f
:1043d800fef738f89fe7fff7e3faa0e7124b1878e3
:1043e800002100f00f00fef72df89fe70f4800238b
:1043f800036004220e4b198802f034fb01f092fe90
:1044080097e7084b1b78002babd099e7019b23f06b
:1044180000739ee700f018ffa8e700bfe32900201b
:10442800d9290020e2290020de2900201c290020ab
:04443800be29002079
:020000040000fa
:10443c00222913d8dfe801f07f144b6512121212f7
:10444c001212121212121212121212121212121240
:10445c00121212121212121212123900122070477a
:10446c0041f63243984213d041f63343984266d119
:10447c00394b9b8913f0020f63d0384b1b88002bf0
:10448c0061d1374b1b88002b0cbf122000207047ca
:10449c00324b1b88002b50d0324b9b8903f002030c
:1044ac00002b0cbf12200020704741f6334398427a
:1044bc0001d012207047284b9b8913f0020f44d077
:1044cc00264b1b88002b0cbf12200020704741f696
:1044dc00324398420cd041f63343984237d11e4bad
:1044ec009b8903f00403002b0cbf122000207047a3
:1044fc001c4b9b8903f00403002b0cbf12200020e3
:10450c00704741f6324398420cd041f633439842ff
:10451c001fd1114b9b8903f00803002b0cbf1220f9
:10452c00002070470f4b9b8903f00803002b0cbf36
:10453c001220002070470020704712207047122074
:10454c0070471220704712207047122070471220bb
:10455c0070471220704700bf9c260020b229002013
:08456c00b0290020e026002028
:020000040000fa
:1045740030b40c46002930d000282ed04449097f9d
:1045840000297bd1424908604a6000254d618d6154
:104594000d613f498c60002a72d03d4ad3600121ed
:1045a40011773c4ad268a34282bf1a1b38490a6178
:1045b4001a463849496811f4706f38d1002c2ad052
:1045c4000178344a116132498a6901328a61002bc7
:1045d40048dd01202f4b98614ae0002b47d0002a88
:1045e40048d02b49097f002946d1294908604a60ef
:1045f40000254d618d610d610028cad12c468d6066
:10460400002acad122490022ca6001240c77214918
:10461400c9681446cde71e4a1269002ad7d01d4a3c
:10462400ff2111611a490a69013a0a61cfe7640856
:1046340017498c600d696d080d615208ca603cb160
:104644000188144a116112498a6901328a61bee7fc
:10465400002dbcd00f4aff2111610d490a69013aae
:104664000a61b4e70b4b02229a61012000e00020aa
:1046740030bc70470020fbe70020f9e70020f7e793
:1046840003490022ca6001250d770249c96890e7f1
:084694008c27002000340042d5
:020000040000fa
:10469c0030b583b000230193042211460deb0200c8
:1046ac0001f0a6ff019b2a4c1a0a22701b0c9b02dc
:1046bc0003f6ff73274a138003f09afa23784bb161
:1046cc000024234de0b203f013fa01342a78e3b24c
:1046dc009a42f7d801f090fb00241f4b1c701f4b23
:1046ec001c701f4b1c701f4b1c701f4b1c701f4be6
:1046fc001c701f4b1c701f4b1c801f4b1c801f4bb6
:10470c001c801f4b1c801f4b1c801f4b1c801f4b85
:10471c001c701f4b1c701f4b1c801f4b1c801f4b95
:10472c001c801f4b1c8001201e4b1870214600f072
:10473c00ebf91d4b1c801d4b1c701d4b1c7003f0aa
:10474c00f1f903f06dfe204603f048f903b030bddb
:10475c00df290020ae290020d3290020d2290020f7
:10476c00d9290020d6290020d8290020d7290020bb
:10477c00dd29002094290020922900209c2900206a
:10478c009e290020a0290020a2290020d529002044
:10479c00db290020b6290020b4290020b2290020f2
:1047ac00b0290020de290020a8290020e0290020c3
:0447bc00da290020d6
:020000040000fa
:1047c00000297ad02de9f0470c46404b1e68b6f51b
:1047d000002f75d23e4b1b680b44b3f5002f5cd8fd
:1047e000174605463b4b1b6801eb0308b8f5005f15
:1047f00059d9c3f50052dff8e0a0caf80020dff86d
:10480000dc90014609eb030003f065fddff8c4808e
:104810004ff40053c8f800304946304602f064feb9
:10482000d8f80010294b1a680a441a60284a1368fd
:104830000b441360daf800100023c8f80030641a43
:10484000a4b222462944484603f045fdc8f800407a
:10485000204b1b68b3f5005f0dd0002f33d1b3f5ab
:10486000005f08d2c3f500521b490a60ff211b48b4
:10487000184403f033fe154c1849206802f034fe4a
:1048800014490868226802442260114a13680344ec
:10489000136000200860bde8f0870d4b00221a600d
:1048a00048f20300f7e70a4601460c48184403f0b3
:1048b00012fd084bc3f80080cae748f20d007047ac
:1048c00048f20d00e7e70020e5e700bf34290020ab
:1048d000382900203c290020402900200000002029
:020000040000fa
:1048e00070b5adf5804d3e4b1b7823b1012b24d123
:1048f0003c4e3d4c3ce003f03ffd0028fbd13b4cdf
:104900003b4a0121204603f0c1fd2378002b394b9f
:10491000a3f5002218bf1346374a136003f022fca8
:1049200000f016fc03f0f1fd02f03cfd01242e4bdb
:104930001c7003f0f7fb2a4b1c700df5804d70bd09
:104940004ff43c224ff400510deb010003f09efdab
:1049500003f0e8fd80f01000c0f300100df57f5368
:104960003833187021e001f015f92378012be4d1d8
:1049700003f038fe0128f6d103f0fefc0028fbd13d
:104980004ff478324ff40061684603f07ffd0df577
:1049900000554ff43e224ff40061284603f076fda7
:1049a0009df800202b789a42cad00df500514ff4a3
:1049b0003c2002f045ff03f0dffc0028fbd103f0b0
:1049c0006dfd03f0d9fc0028fbd14ff400231b68d8
:1049d0003268b3f1ff3fc6d083f308881047c2e7bf
:1049e0008429002004000800ce290020f629002098
:0c49f000fcdf0300000e0800f02800208f
:020000040000fa
:1049fc0010b582b00020374b187003f079f8012005
:104a0c0003f076f8344b1868e8b100f017fd334b1f
:104a1c001868f0b1304b1b6898421ad017e000f0c0
:104a2c000dfd204603f060fa0028f8d12c4c01e073
:104a3c0000f004fd204603f057fa0028f8d103f0eb
:104a4c0071f802b010bd254b186800283cd000f05e
:104a5c00f5fc244b186848b11f4b1b68984205d0d5
:104a6c001e4b1b68834201d000f0e8fc01f06efd88
:104a7c0003f0aafb00241c4b1c60174b1c60194b49
:104a8c001c60164b1c60194b1c700194042240f6e0
:104a9c000c010deb020001f0abfd019b23f0007348
:104aac000193042240f60c010deb020001f0d8ff3b
:104abc000f4b1c700f4b1c700f4b1c700f4b1c7052
:104acc000f4b1c700f4cace7064b18680028c7d175
:104adc00cce700bfe329002024290020282900204e
:104aec0058270020202900202c290020e229002012
:104afc00e6290020e5290020e7290020e9290020eb
:084b0c00e82900202427002005
:020000040000fa
:104b140030b583b004460d463d4b1b7883421cbf21
:104b24003b4b18704ff6ff7399421bd1384b1b78df
:104b3400019304224ff498710deb020001f094ffed
:104b440014f0100f22d0a5f11a039bb2182b30d801
:104b5400304a22fa03f313f0010f2ad02e4b01221c
:104b64001a7016e0019104224ff49a710deb0200c1
:104b740001f07aff264b1b78019304224ff49871bd
:104b84000deb020001f070ff002dd9d1224b002261
:104b94001a7021490b7843f010020a7004f00f04d4
:104ba400013c072c13d8dfe804f00f222e26121242
:104bb400122a1a4b1b78012bd0d01b2d164b0cbf7d
:104bc40002220d221a70e4e7154b002119701449d2
:104bd4000b7843f010030b7043ea02230093042282
:104be4004ff49c71684601f03fff03b030bd0c4b9d
:104bf4000d211970ebe70a4b01211970e7e7084b07
:104c04000f211970e3e7064b0e211970dfe700bf8f
:104c1400de29002001000801e0290020db29002012
:044c2400e129002062
:020000040000fa
:104c280038b5364b1b7813b902f0e2fb38bd02f0f9
:104c380023fe10f4806f1dd0314b1b782bb1314b04
:104c48001b7813b1304b00221a80304b1b8d13b1e7
:104c5800013b2e4a13852d4b1a8d2d4b1a852d4b52
:104c680001221a702c4b00221a802c4b1b7863b33c
:104c780001f0e6fd254b5b88012b38d0284b1b78cb
:104c88002bb1234b5b88012b34d0222b32d002f07e
:104c9800f3fd10f4806fc7d01c4a538d01339bb2cb
:104ca80053851b4a53851f4d1f4c042229882046d3
:104cb80003f0c4fa29881d4b1b88194404390422bf
:104cc80089b2204603f0bafaaee7164d164c042214
:104cd8002988204603f0b2fa2988144b1b88194406
:104ce8000439042289b2204603f0a8fac2e702f088
:104cf80069ffc3e702f022f9c9e700bfda290020fb
:104d0800d4290020d5290020b8290020e026002039
:104d18009c260020d629002092290020d82900208e
:104d2800d7290020ac2900201c290020b229002006
:020000040000fa
:104d38002de9f04f83b0009001913f4b1c8884b35c
:104d48004ff000099a464ff0010bc84618e01d467f
:104d5800b4693146e8b201f0b7f8c0f30f1014f89f
:104d6800104044441ffa84f86b1c9bb2bd42eed13c
:104d780009f10109baf800201ffa89f39a420fd9fc
:104d88001ffa89f30aeb4303588803f0a7f906468c
:104d980000283dd083691f88002fe9d05d46d7e7fa
:104da80044460734c4f3cf08244b1888002840d061
:104db8004ff0000a5546dff884b018e01c46d6f8d4
:104dc80018903146e0b201f07ff8c0f30f1019f8df
:104dd80010301d44adb2631c9bb2bc42eed10af147
:104de800010abbf800201ffa8af39a420ed91ffa6b
:104df8008af30beb4303588803f070f90646a8b111
:104e080083691f88002fead00124d8e7002003e037
:104e18004ff0000845462520eb1ddb10009a138053
:104e2800019ba3f8008003b0bde8f08f0025242083
:104e3800f2e70546f0e700bf482900204c2900208a
:020000040000fa
:104e480008b5354b00221a80344b1b78002b3dd017
:104e5800334b1b781bb1334a138801331380324b11
:104e68001b883bb3314a128893421dd2304b1b88b2
:104e7800002b41d02f4b1b8d2f4a12899a4219d3f0
:104e880003332c4a138515e00023284a13802b4a44
:104e980013850fe002f052f8294b1b88012b15d11e
:104ea800204b00221a8011e0214b1b888bb1013264
:104eb8001e4b1a8002f086fe194b1b7833b1204b2b
:104ec8001b881bb1174a12889a42e3d002f090fa65
:104ed80008bd1c4b1b88002be9d002f0cdfc10f458
:104ee800006fd1d1114b1b880f4a12889a42e1d327
:104ef80001330e4a1380dde7124a1288002ad9d0fe
:104f0800002bd7d10d4b1b8d0b4a12899a42e4d343
:104f180003330a4a1385e0e79c290020d52900209d
:104f2800d729002098290020ba290020b829002074
:104f3800b2290020e02600205c2800209c260020c2
:084f48009a290020b029002085
:020000040000fa
:104f5000534d206f757470757420706172616d654a
:104f60007465720053796e6368726f6e697a6174ea
:104f7000696f6e2054797065004379636c652054c5
:104f8000696d65000053796e6368726f6e697a614e
:104f900074696f6e20547970657320737570706fcb
:104fa00072746564004d696e696d756d2043796337
:104fb0006c652054696d650043616c6320616e64ab
:104fc00020436f70792054696d6500004765742037
:104fd0004379636c652054696d650044656c617943
:104fe0002054696d650053796e6330204379636c9a
:104ff000652054696d6500534d2d4576656e7420ae
:105000004d6973736564004379636c652054696d01
:105010006520546f6f20536d616c6c005368696636
:10502000742054696d6520546f6f2053686f7274db
:105030000000000000000000000000000000000070
:1050400000000053796e63204572726f7200ff009a
:020000040000fa
:10505000534d20696e70757420706172616d657456
:1050600065720053796e6368726f6e697a617469f4
:105070006f6e2054797065004379636c65205469c4
:105080006d65000053796e6368726f6e697a617442
:10509000696f6e20547970657320737570706f72cc
:1050a000746564004d696e696d756d204379636c3c
:1050b000652054696d650043616c6320616e6420f6
:1050c000436f70792054696d650000476574204313
:1050d00079636c652054696d650044656c61792065
:1050e00054696d650053796e6330204379636c6554
:1050f0002054696d6500534d2d4576656e74204dc5
:105100006973736564004379636c652054696d65e8
:1051100020546f6f20536d616c6c00536869667426
:105120002054696d6520546f6f2053686f7274004e
:10513000000000000000000000000000000000006f
:10514000000053796e63204572726f7200ff000099
:020000040000fa
:10515000f0b583b000242e4b1c602e4b1c602e4bf0
:105160001c602e4b1c602e4b1c602e4b1c602e4b6b
:105170001c602e4b1c602e4b1c602e4b1c60fff7de
:105180008dfa00f0cdfa2c4b01221a702b4b1c70bb
:105190002b4b1c602b4b1c602b4b1c600094019410
:1051a0004ff47a7404264ff411651f4604e09a42c6
:1051b00088bf3b60013c16d032462946684603f062
:1051c00041f83246294601a803f03cf8009b019ab9
:1051d000934288bf02f1ff32d31a01933a68002a42
:1051e000e5d13b60e6e70023019304224ff4a06180
:1051f0000deb020001f002fa019b03f48003002b87
:1052000014bf08220422114b1a80002003b0f0bd05
:10521000c8280020d4280020cc280020d028002036
:10522000dc280020e0280020d8280020e4280020e6
:10523000e8280020ec280020cc290020cd290020df
:10524000f4280020f8280020002900208a290020c6
:020000040000fa
:1052500030b583b0002301930422354b19880deb40
:10526000020001f0cbf9019ca3b20193314b1b78f2
:10527000012b0ad0304b1a78304b1b7813431dd0ca
:105280002f4b01221a7003b030bd0a20fef79efe9c
:1052900005460028eed00021c0f802100423038048
:1052a000838823f4706383800123c38007230381f1
:1052b00001f082fa284600f0c7f8dbe7204b002215
:1052c0001a70204b1d882846fef780fe1e4b186082
:1052d000d8b1a21d92b2aa4228bf2a46144b1988ff
:1052e00001f08cf900230093042240f60401684683
:1052f00001f084f9009b0093009b13f4006f08d128
:10530000114b186801f0f4fcbde70d4b01221a7037
:10531000b9e70e4800230360054b1988094b1b8829
:1053200019440439042289b201f068f9e8e700bfa2
:10533000bc290020e4290020e6290020e7290020dc
:10534000e5290020c02900202c2900201c2900204c
:020000040000fa
:1053500038b505460c4603f08ff908b30246611ec6
:10536000c9b201eb85005388dbb243ea00239bb24c
:105370005380022d15d0032d39d0002111715171a8
:105380009171d171002111706ff05f01517023f0a4
:10539000ff032a4909780b435380104601f06afc49
:1053a00038bd0329eed8dfe801f002020c1100211c
:1053b0001171102151714ff0ff3191711f21d17185
:1053c000e0e71f4909889180d180dbe71c49098803
:1053d00039b100210a201071517101209071d171f1
:1053e000d0e70021117151719171d171cae7032980
:1053f000c8d8dfe801f002020c1100211171102160
:1054000051714ff0ff3191711f21d171bae70d49f0
:1054100009889180d180b5e70a49098839b100210e
:105420000e201071517101209071d171aae70021f5
:10543000117151719171d171a4e700bfde29002073
:08544000b2290020b029002070
:020000040000fa
:105448002de9f84300286ad050f8043ca0f108047c
:1054580023f00106a719a259934200d0ffde7a680b
:1054680023681340da070fd4204602f00bfc00280b
:1054780057d1384602f0d0fc0028f0d07b6823f0e2
:1054880001031e441f44eae746f001036360304607
:105498003b6002f0f9fa054602f050fe23687a688c
:1054a8001340db07e0d5dff88ce0dee90089c5f1c1
:1054b800200ca5f1200228fa05f009fa0cfc29fabb
:1054c80002f240ea0c001043012100ea0102002325
:1054d8001343c5f120007346a5f1200212d121fa29
:1054e80000f001fa02f2a94042ea00021ebfdef80b
:1054f80000000143cef8001022b1def804100a4380
:10550800cef80420681c03ebc003a3f10802666010
:105518003e60a2605a68e2605c60e3689c60bde837
:10552800f883236823f00103e41a636823f0010376
:085538001e449ee70020002044
:020000040000fa
:1055400038b5059c602955d000293cd0258905f443
:105550007f45258100284fd1e088c0f30b0040f43f
:105560004050e080402926d104990139032910d800
:105570000a23237000236370049bdbb2c3f104038e
:1055800042f0030242ea83022a4342f040022281af
:1055900044e004998b4228bf049b0a339bb22380ca
:1055a000049ba381049bc3f30f43e38142f04102b8
:1055b0002a43228132e00a2323700023637045f0de
:1055c000600222812ae0b8b9e388c3f30b0343f4f5
:1055d0004053e3800a23237000236370238943f040
:1055e000200323811ae0e388c3f30b0343f4405301
:1055f000e38013e00028f6d00a23237000236370b1
:10560000e388c3f30b0343f40053e380238943f09f
:1056100080032381054b53f82030e36002212046ac
:1056200001f0caf808b1024b1c6038bd586e00008a
:045630000429002029
:020000040000fa
:10563400f0b585b004460e460023039302938df81b
:1056440007308df80630b0f5405f34bf15460425a9
:1056540002f07cfe2f4f7b68db6898470028fad164
:1056640063118df80c30e30043f006038df80d3020
:10567400230a23f01f0343f00c038df80e30254b4f
:105684005b681c68032302aa194603a8a04702f01a
:105694002bfe204c6368db6898470028fad11e4b28
:1056a4009df808201a709df809205a70ff238df880
:1056b4000630184b5b685b6801210df106009847c2
:1056c40002f012fe134c6368db6898470028fad195
:1056d400104c012d4ff0ff3318bf00238df8073015
:1056e40063681f6801230df1060219460df10700d6
:1056f400b84702f0f9fd6368db6898470028fad1df
:105704009df8063006f8013b013de2d102f014fe9b
:0c57140005b0f0bdfc2700208c2900200f
:020000040000fa
:1057200010b582b02a4a202414800023538053608d
:1057300044f21f00908127491161536193831362e2
:105740001385538582f84030234a14805380536078
:10575000908111615361938313621385538582f89d
:1057600040301e4a137002f0edfa20bb00231c4aa1
:1057700013701c4a13701c4a13801c4a13701c4a75
:1057800013601c4a13601c4a13601c4a1360019387
:10579000042208210deb020000f030ff019b13f002
:1057a000080f0bd0164b00221a70164b4ff47a627a
:1057b0001a6002b010bd02f045fcd7e7104b012281
:1057c0001a7004224ff411610f4800f017ffece744
:1057d000e0260020a08601009c260020ea29002067
:1057e000f4290020f1290020ca290020f5290020f1
:1057f000702900206c2900205c29002064290020e9
:0c580000d0290020b4280020b828002087
:020000040000fa
:10580c002de9f04184b01e465469e9b10f469389e5
:10581c00c3f30323072b17d0092b24d0002e5dd004
:10582c00304b6c460fcb07c4237039460df1090081
:10583c0002f0b6f86b4607cb30607160b2601b7833
:10584c0033734ff00c080ae0204602f049fe1ffab1
:10585c0080f826b142462146304602f036fd4046dd
:10586c0004b0bde8f0811ffa81f8204602f038fe42
:10587c0001302518235c0233dbb2012bced9b8f1f1
:10588c00010f16d0284602f02bfe013005440224ed
:10589c002b780233dbb2012bc0d9a04509d00134df
:1058ac00a4b2284602f01cfe01300544a045efd2fc
:1058bc00b4e7284602f014fe1ffa80f846b1b8f19e
:1058cc00000fadd042462946304602f0fefcc6e73a
:1058dc00b8f1000f08bf4ff00c08c0e74ff00c08f0
:0858ec00bde700bf4c280020bd
:020000040000fa
:1058f400314b00221a7403f50063304a9a621a4647
:10590400536813f0100ffbd12d4b4222c3f88420af
:105914001a46d2f8843013f0400ffad0294b0022f3
:105924009a6377225a631a46d36b13f0040ffbd1a0
:10593400244b022283f830201a46d36b13f0020f53
:10594400fbd1204a136c03f00303032bfad11e4b43
:1059540001225a711a46d37813f0010ffbd0184b69
:105964001a4a1a621a46536813f0040ffbd1144bf7
:10597400174a5a621a46536813f0080ffbd1104baa
:105984004122c3f890201a46d2f8903013f0400f09
:10599400fad00b4b4122c3f8a4201a46d2f8a43003
:1059a40013f0400ffad0084b6ff07f421a614cf2ab
:1059b400ff725a61704700bf0014004006013000b6
:1059c400001c0040001000400008004007010100d6
:0459d40007010200c5
:020000040000fa
:1059d8002d4b1b78002b56d02de9f04782b0174687
:1059e8000e468146294b1d682b89dbb203f0e00a7d
:1059f80003f01004baf1400f0fd04ff00008224b0b
:105a080000221a70019500964346224651464846a0
:105a1800fff792fd02b0bde8f0871d4bb3f8008098
:105a2800a8f110081ffa88f888450bd34b1e032be2
:105a380020d805f10c009042e1d00a46394602f020
:105a480046fcdce70123134a1370134a1370134b07
:105a58001c70134b1960134b60221a70124b1f6095
:105a68004246394605f1100002f031fc0f4bc3f8ed
:105a78000080c4e705f110009042c0d00a463946bc
:105a880002f025fcbbe77047ed29002060290020c3
:105a9800c2290020ef290020f0290020ee2900204b
:105aa80054290020f22900206429002050290020d0
:020000040000fa
:105ab80008b5214b1b88002b35d1204b1b88002ba8
:105ac80035d14ff2f33001f08bff00231c4a1370dd
:105ad8001c4a13701c4a13701c4a13701c4a13701a
:105ae8001c4a13801c4a13801c4a13801c4a1380ca
:105af8001c4a13801c4a13801c4a13801c4a1380ba
:105b08001c4a1385538582f840301b4a13855385f8
:105b180082f84030194a1380194a1370194a1370d1
:105b2800194a137008bd022001f0e4ffc5e70320fd
:105b380001f0e0ffc5e700bfb2290020b02900202e
:105b4800d6290020da290020d5290020d4290020d0
:105b5800dc290020ba290020b82900209e2900202d
:105b68009c290020a0290020a22900209a29002091
:105b780098290020e02600209c260020a629002045
:0c5b8800dd290020d7290020ea29002098
:020000040000fa
:105b940008b5294b1b78002b4cd0284b1b78002bc5
:105ba40035d0274b1a78274b1b78134333d102f097
:105bb4003cfd02f009f8244b1b7813bb02f039fdbd
:105bc40029e001f0b3fc10f4806f0cd01c4b0122cf
:105bd4001a701e4b00221a801d4b1b78002be6d036
:105be40000f030fee3e71b4b1b88002bdfd110f4e1
:105bf400006fdcd0124b01221a70144b00221a8061
:105c0400d5e701f09df9d9e701f006fa08e00d4b5c
:105c14001b78002bd5d0104b1b68b3f57a6ff3d2e9
:105c2400fef760fb00f0eefb01f0c8fd0b4b1b68b8
:105c340003b1984708bd00bfcc290020da29002011
:105c4400d6290020d5290020d72900209229002018
:105c5400d8290020b2290020b4280020ec280020f4
:020000040000fa
:105c6400274b1b78002b4ad0264b1b78002b46d0a1
:105c7400254b1b8813b3254a128893421bd8244b07
:105c840000221a70234b1b788bb97047204b0022db
:105c94001a70f7e71f4b01221a701f4bb3f900303b
:105ca400002b2cdd1d4a1388013313807047194bd8
:105cb40000221a7070470132144b1a80144b0122cf
:105cc4001a70174b1b8833b1164a12889342ddd9d8
:105cd4000132144b1a80144b1a8d144b1b899a42af
:105ce400d8d30c4b1b7853b10a4b00221a700a4bc1
:105cf400b3f90030934202dd084b1a8070477047b5
:105d0400d5290020d72900209e2900209c29002085
:105d1400d4290020dc290020a6290020a429002061
:105d2400a2290020a0290020e02600205c280020d1
:020000040000fa
:105d3400f0b583b02a4b1b7803f00f03012b4ad034
:105d4400284b1b78002b48d0274b1c781cb1072408
:105d5400204603b0f0bd05460788ba1d92b2234b16
:105d6400198800f081fe00230193042240f60c01ff
:105d74000deb020000f040fc019b0193019b13f426
:105d8400006f12d11a4b1e88b21fd21b92b2194b4c
:105d940000211960032a14d9144b19883144043999
:105da400042289b2134800f05ffe134b1b6813b141
:105db400124b00221a60104b1d600b4b01221a700b
:105dc400c6e7c2f10402b91d891005eb810118462a
:105dd40002f07ffae0e7f024bae7f024b8e700bf66
:105de400de290020e3290020e6290020be29002026
:105df400c22900201c290020202900202c29002051
:020000040000fa
:105e040010b582b0204b22221a80204b4ff48072ae
:105e14001a804ff480531e4a13801e4a13801e4b6f
:105e240000241c805c800a229a801c4b1c805c80ad
:105e34009a801b4b1c601b4b1c601b4b1c601b4b38
:105e44001c601b4b1c700194042240f60c010debea
:105e5400020000f0d1fb019b23f0007301930422a4
:105e640040f60c010deb020000f0fefd114b1c701e
:105e7400114b1c70114b1c70114b1c70114b1c707e
:105e8400114b1c7002b010bdc0290020c229002093
:105e9400bc290020be2900202427002058270020e8
:105ea4002c29002024290020202900202829002032
:105eb400e2290020e3290020e6290020e52900202a
:0c5ec400e7290020e9290020e82900203f
:020000040000fa
:105ed000f0b48f89c7f30327002856d1f0bc704770
:105ee000062b43d004d8032b40d0042b04d112e05e
:105ef000082b10d90b2b39d0624522d26388184465
:105f000080b21ee0b3f5187f30d0f5d3a3f262253e
:105f1000adb2012df0d800f11f054ff6e07028401a
:105f200062450ed2a3f262239bb2012b9abf638813
:105f3000c018203080b204e06388184480b210306a
:105f400080b2013292b206366245c7d8082f0c697a
:105f50000cbf0634a41923881f2b07d0c0d92f2bc0
:105f6000d9d0cfd8202bd6d02e2bc5d100f10f05fc
:105f70004ff6f07028406245e3d20b2bdcd0b3f52e
:105f8000187fdcd1d8e70020a8e78446072ffad095
:0c5f90001ffa8cfc062610200122d7e727
:020000040000fa
:105f9c0070b582b00023009304252d4c2a46694627
:105fac0043f26400fff740fb009ba342f6d10023b1
