:020000040000fa
:10000000f0ff0320f56f00008b7b0000637e000093
:100010004385000063860000db88000000000000cc
:10002000000000000000000000000000f36f00006e
:100030003382000000000000f36f0000f36f000047
:10004000f36f0000f36f0000f36f0000f36f000028
:10005000f36f0000f36f0000f36f0000f36f000018
:10006000f36f0000f36f0000f36f0000f36f000008
:100070003d8900005d890000f36f0000f36f000010
:10008000f36f0000f36f0000f36f00007d89000044
:10009000f36f0000f36f0000f36f0000f36f0000d8
:1000a000f36f0000f36f0000f36f0000f36f0000c8
:1000b000f36f0000f36f0000f36f0000f36f0000b8
:1000c000f36f0000f36f0000f36f0000f36f0000a8
:1000d000f36f0000f36f0000f36f0000f36f000098
:1000e000f36f0000f36f000000000000000000004c
:1000f00000000000f36f0000f36f0000f36f0000da
:10010000f36f0000f36f0000f36f0000f36f000067
:10011000f36f0000f36f0000f36f0000f36f000057
:10012000f36f0000f36f0000f36f0000f36f000047
:10013000f36f0000f36f0000f36f0000f36f000037
:10014000f36f0000f36f0000f36f0000f36f000027
:10015000f36f0000f36f00000000000000000000db
:10016000000000000000000000000000000000008f
:10017000000000000000000000000000000000007f
:10018000f36f0000f36f0000f36f0000f36f0000e7
:10019000f36f0000f36f0000f36f0000f36f0000d7
:1001a000f36f0000f36f0000f36f0000f36f0000c7
:1001b000f36f0000f36f0000f36f0000f36f0000b7
:1001c000f36f0000f36f0000f36f0000f36f0000a7
:1001d000f36f0000f36f0000f36f0000f36f000097
:1001e000f36f0000f36f0000f36f000091860000d2
:1001f000f36f0000f36f0000f36f0000f36f000077
:10020000f36f00000000000000000000f36f00002a
:10021000f36f0000f36f0000f36f0000f36f000056
:10022000f36f0000f36f0000f36f0000f36f000046
:10023000f36f0000f36f0000f36f0000f36f000036
:10024000f36f0000f36f0000f36f0000f36f000026
:10025000f36f0000f36f000035460000f36f0000fd
:020000040000fa
:10026000f8b500bff8bc08bc9e467047997f0000f7
:10027000f8b500bff8bc08bc9e467047757f00000b
:020000040000fa
:10028000dc2700201c00000000000000b429002032
:100290000200000000000000db2700200100000039
:1002a00000000000242800201000000000000000d2
:1002b000b42700202700000001000000000000011a
:1002c0000000010000020000010000040000000026
:1002d000000000000000000000000000000300001b
:1002e0000100000004250020c00000000000000004
:1002f0000e280020020000000000000081280020dd
:1003000001000000000000008c27002028000000f1
:1003100000000000902800200800000000000000fd
:10032000d82800200400000000000000d62800208b
:100330000200000000000000dc2800200400000093
:1003400000000000e0280020040000000000000081
:10035000982800200800000000000000ec23002086
:100360001801000001000000000000000000000073
:100370000116210001090000d48e0000e88600006b
:10038000c82800200000000000000000000000005d
:100390000000000000000000001a21000109000018
:1003a000e08e000014870000b82800200000000044
:1003b000000000000000000000000000000000003d
:1003c000121c060001080000f88e0000f88a0000e8
:1003d0007029002000000000000000000000000064
:1003e0000000000000000000131c060001080000cf
:1003f000048f0000148b000074290020000000000e
:1004000000000000000000000000000000000000ec
:1004100000602a0001090000108f0000408d0000dc
:10042000b0280020000000000000000000000000d4
:10043000000000000000000010702a000109000008
:100440001c8f0000548d0000c02800200000000018
:10045000000000000000000000000000000000009c
:10046000ffff00000000000000000000000000008e
:10047000000000000000000000000000000000007c
:100480000c220020e001000001000000000000003c
:10049000000000000010070000070000988f000017
:1004a000bc8e0000ec2800200000000000000000ce
:1004b0000000000000000000000000000110050026
:1004c00000070000a08f00000c8e0000d62800203e
:1004d000000000000000000000000000000000001c
:1004e000000000000810090000070000a88f0000ad
:1004f000c88e0000f8270020000000000000000067
:1005000000000000000000000000000009100900c9
:1005100000070000b08f0000f08c0000e4280020ed
:1005200000000000000000000000000000000000cb
:10053000000000000a10090000070000b88f00004a
:10054000048d0000e82800200000000000000000ea
:100550000000000000000000000000001810230050
:1005600004090000dc89000034820000102800200b
:10057000000000000000000000000000000000007b
:1005800000000000f1102a0002090000688d000040
:10059000f48000008428002000000000000000001b
:1005a000000000000000000000000000f8101b0028
:1005b00000070000c08f0000188d00009828002060
:1005c000a97e000000000000000000000000000004
:1005d00000000000001c050004080000ec8e000074
:1005e0002c8d0000d028002000000000000000003a
:1005f000000000000000000000000000321c290084
:10060000200900006c68000078560000e0260020f9
:1006100000000000000000000000000000000000da
:1006200000000000331c2900200900006c68000055
:10063000785700009c260020000000000000000009
:10064000000000000000000000000000ffff0000ac
:10065000000000000000000000000000000000009a
:10066000000000000000000000000000f82700204b
:10067000160000000100000053414d453533204570
:100680007468657243415420536c617665000000c4
:10069000e42800200400000001000000312e30009a
:1006a000e82800200400000001000000322e300085
:1006b00010280020140000000100000004000000c9
:1006c000d80400e055920000010000000100000085
:1006d000d0280020060000000100000004000201f4
:1006e00004030000ec2800200400000001000000ca
:1006f00089130000b2290020020000000000000061
:1007000014260020440000000000000058260020ad
:100710004400000000000000ad290020010000009e
:1007200000000000f429002001000000000000008b
:10073000f52900200100000000000000f028002042
:100740000400000000000000f42800200400000065
:1007500000000000f8280020040000000000000055
:10076000fc280020040000000000000000290020f8
:100770000400000000000000042900200400000024
:100780000000000008290020040000000000000014
:100790000c290020040000000000000010290020a7
:1007a00004000000000000001429002004000000e4
:1007b00000000000182900200400000000000000d4
:1007c000822800200200000000000000ae29002066
:1007d00002000000000000001c29002004000000ae
:1007e000000000002029002004000000000000009c
:1007f0002429002004000000000000002829002017
:1008000004000000000000002c290020040000006b
:10081000000000003029002004000000000000005b
:10082000b62900200200000000000000b8290020c6
:100830000200000000000000342900200400000035
:100840000000000038290020040000000000000023
:100850003c2900200400000000000000ba2900200c
:100860000200000000000000bc290020020000007f
:1008700000000000f6290020010000000000000038
:10088000be2900200200000000000000c029002056
:100890000200000000000000c22900200200000049
:1008a00000000000402900200400000000000000bb
:1008b000c42900200200000000000000c62900201a
:1008c0000200000000000000c82900200200000013
:1008d00000000000ca290020020000000000000003
:1008e000a02800200800000000000000f7290020d8
:1008f0000100000000000000f829002001000000b5
:1009000000000000f92900200100000000000000a4
:10091000fa2900200100000000000000fb2900204f
:100920000100000000000000fc2900200100000080
:1009300000000000fd290020010000000000000070
:10094000fe2900200100000000000000ff29002017
:100950000100000000000000002a0020010000004b
:1009600000000000012a002001000000000000003b
:10097000022a00200100000000000000032a0020dd
:100980000100000000000000042a00200100000017
:1009900000000000cc290020020000000000000040
:1009a000ce2900200200000000000000052a0020df
:1009b0000100000000000000d0290020020000001b
:1009c00000000000d229002002000000000000000a
:1009d000d42900200200000000000000d6290020d9
:1009e0000200000000000000062a002001000000b4
:1009f00000000000d82900200200000000000000d4
:100a0000da2900200200000000000000dc2900209c
:100a10000200000000000000de29002002000000ab
:100a200000000000e029002002000000000000009b
:100a3000e2290020020000000000000044290020fc
:100a40000400000000000000072a00200100000050
:100a500000000000082a0020010000000000000043
:100a6000a828002008000000000000003428002012
:100a700010000000000000004428002010000000ca
:100a800000000000092a0020010000000000000012
:100a90000a2a002001000000000000000b2a0020ac
:100aa00001000000000000000c2a002001000000ee
:100ab000000000000d2a00200100000000000000de
:100ac0004829002004000000000000004c290020fc
:100ad0000400000000000000502900200400000075
:100ae0000000000054290020040000000000000065
:100af00024270020340000000000000058270020b8
:100b00003400000000000000e42900200200000082
:100b100000000000e62900200200000000000000a4
:100b2000e82900200200000000000000ea2900205f
:100b300002000000000000000e2a0020010000005a
:100b4000000000000f2a002001000000000000004b
:100b5000102a00200100000000000000112a0020df
:100b60000100000000000000b02900200200000089
:100b7000000000009c26002044000000000000004f
:100b8000e02600204400000000000000742800203f
:100b90000d00000001000000537562496e64657825
:100ba0002030303000000000842800200c000000bd
:100bb000010000000200000001000000040000002d
:100bc0000000002000200000000000005428002049
:100bd0001000000000000000122a002001000000a8
:100be00000000000132a00200100000000000000a7
:100bf0005829002004000000000000005c290020ab
:100c00000400000000000000602900200400000033
:100c10000000000064290020040000000000000023
:100c2000682900200400000000000000b028002017
:100c300008000000010000000100000000000000aa
:100c4000b82800200800000001000000010000009a
:100c500020010060c0280020080000000100000002
:100c60000100000000000000c8280020080000006b
:100c70000100000001000000200110706c2900201c
:100c800004000000010000000100000070290020a5
:100c9000040000000100000001000116742900207a
:100ca00004000000010000000100001a6428002078
:100cb0001000000000000000142a002001000000c5
:100cc00000000000152a00200100000000000000c4
:100cd000162a00200100000000000000172a002052
:100ce0000100000000000000182a002001000000a0
:100cf00000000000ec2900200200000000000000bd
:100d0000ee290020020000000000000078290020e9
:100d100004000000000000007c2900200400000006
:100d200000000000f0290020020000000000000088
:100d3000192a002001000000000000001a2a0020eb
:100d400001000000000000008029002004000000d5
:100d500000000000842900200400000000000000c2
:100d60008829002004000000000000008c290020d9
:100d70000400000000000000902900200400000092
:100d80000000000094290020040000000000000082
:100d9000f229002002000000000000009829002035
:100da00004000000000000001b2a002001000000d9
:100db000000000001c2a00200100000000000000cc
:100dc000ac29002001000000000000001d2a0020c6
:100dd00001000000000000009c2900200400000029
:100de00000000000c42500205000000000000000aa
:100df000002000200c02000000000000a0290020bc
:100e00000400000000000000a429002004000000ed
:100e100000000000a82900200400000000000000dd
:100e200000000000000000002222222222222222b2
:020000040000fa
:100e3000800e00cc8813ff00000040c00000de00e0
:100e4000d80400e0559200000100000000000000fe
:100e500000000000000000000010800080108000f2
:100e600000108000801080000c00000000000000d6
:100e70000000000000000000000000000000000072
:100e80000000000000000000000000000000000062
:100e90000000000000000000000000000000000052
:100ea0000000000000000000000000000f00010032
:100eb0000a004000080a5353435f4465766963653e
:100ec0001553414d4535332045746865724341548f
:100ed00020536c6176650853796e6368726f6e0b90
:100ee000534d2d53796e6368726f6e1b496e70752a
:100ef00074732070726f6365737320646174612012
:100f00006d617070696e6707436f756e7465721cf2
:100f10004f7574707574732070726f63657373208e
:100f200064617461206d617070696e6707547269e5
:100f3000676765721e0010000100020200230100b5
:100f4000000000040000010011000000000000008b
:100f5000000000000000000028000200010203ff62
:100f60002900100000108000260001018010800080
:100f700022000102001104006400010300140400b7
:100f80002000010432000800001a010300050000df
:100f9000006001060720000033000800011601026e
:100fa0000007000010700108072000003c000c0042
:100fb0000000000000000000000000000000000031
:100fc0000000030400000000ffffffffffffffff22
:100fd000ffffffffffffffffffffffffffffffff21
:100fe000ffffffffffffffffffffffffffffffff11
:100ff000ffffffffffffffffffffffffffffffff01
:10100000fffffffffffffffffffffffffffffffff0
:020000040000fa
:101630002de9f04f89b0b0f80890944b1e78002e39
:1016400040f0ae835ffa89f808f0e0040546202cec
:1016500019d009d9402c16d0602c00f0b381002796
:10166000bb464ff0030a06e0002c00f0ab810027d8
:10167000bb464ff0030abaf1ff0f40f0ab81304692
:1016800009b0bde8f08fb5f800a06f893b0203eb0d
:1016900019239bb20393184607f0e0f90490002841
:1016a00000f086833a0a0592037b9a4204d9002708
:1016b000bb464ff0110a8de108f010030693024675
:1016c0000599039805f04bfc8346402c48d0202c0c
:1016d00000f09d80074600230793069b002b40f0f7
:1016e000c380bbf1000f08d1694b039a1a80694b84
:1016f000059a1a70684b049a1a60402c00f03181e8
:10170000069b0193079b0093049b3a460599039817
:1017100001f0c0f98246ff2840f05c8101235f4a56
:1017200013705f4a069911705e4a059911705e4afe
:10173000039911805d4a17605d4a07991160049a08
:10174000116a5c4a1160514a13705b4b1d602b8912
:1017500023f0ff0309f0f00943ea09032b818ee728
:10176000baf10a0f40f01e83431e032b44d805f143
:101770000c0307930023ab81eb8133460746069a9f
:10178000002a72d1002bacd001234c4a13704c4a72
:1017900013704c4b069a1a703d4b039a1a803d4bbe
:1017a000059a1a703c4b049a1a60402c0cbf5a469a
:1017b0003a46454b1a60454b186808b104f0d8f911
:1017c000414b1868013020f0010002f05bfe3f4bf6
:1017d0001860002852d0402c00f08280aaf10a073d
:1017e0003a4605f1100107f00afa394b00221a7047
:1017f000b246384b1f603ee7374b1f88103fb84258
:1018000000f2e38205f1100307933346b7e718f0bf
:10181000020f0bd0baf10a0f40f0c682c8f381075d
:10182000c7f1040705f10c03079356e7eb89af896d
:1018300007eb0347294b1b8807f110029a420dd989
:10184000063b9a4540f0b28205f110030793aaf1d6
:101850000a03bb422cbf0023012390e707f10a03d0
:101860009a45f1d008260ae73346059a012a02d99b
:101870004ff0050aaee00122069283e7069b002b9b
:1018800014bf4ff0050a4ff0040aa3e0142a002009
:10189000f02900201a2a0020902900201b2a00206d
:1018a000182a00201c2a0020f22900209829002054
:1018b000942900208429002088290020162a00204d
:1018c000172a0020152a00207c2900208c290020be
:1018d000192a002078290020ea290020e829002080
:1018e000069b01930090049b5a460599039801f0ca
:1018f00065fb824650b3ff287ff47bafa44b0422e4
:101900001a70a44b069a1a70a34b059a1a70a34b2f
:10191000039a1a80a24bc3f800b0a24b1a68a24bdc
:101920001a60049bda69a14b1a60a14b01221a705c
:10193000a04b1d602b8923f0ff0309f0f00943ea57
:1019400009032b819c4b60221a7098e63a46954b0e
:10195000196805f1100007f052f9974b60221a70d0
:1019600047e7069b0193079b0093049b5a46059902
:10197000039801f023fb8246ff282bd1844b0322de
:101980001a70844b069a1a70834b059a1a70834b0f
:10199000039a1a80824bc3f800b0834b079a1a60ef
:1019a000049bda69814b1a60814b01221a70814bca
:1019b0001d602b8923f0ff0309f0f00943ea0903b6
:1019c0002b815ce67c4b1b78a3420ed00027bb46e4
:1019d0004ff0030a0195cdf800b0bbb208f0100239
:1019e0002146504604f0baf949e6002c40f0428105
:1019f000724b1a7809f010039a4200f02381704b61
:101a00001b8808f010026d490a70664a11680029a7
:101a100000f02d81093b9bb26a4a10686a4a12683d
:101a2000121a19f0010f18d09a4200f2cb812b88bc
:101a3000033b9a4200f2c6816fea690707f0070785
:101a4000ba4205d0072a40f2bd819a4240f0ba81dd
:101a50005e4b00271f70174608e05c4f4ff0010ceb
:101a600087f800c01f469a4240f2ac8110f0010f87
:101a70006ed1430868894fea192242ea002221f810
:101a8000132007f1010c4fea5c0cbcf1010f1bd9cc
:101a900001200346dff80c91dff828e105eb430b4a
:101aa000def8002000eb5201d9f80000bbf808a0d6
:101ab000bbf80a20120242ea1a2220f81120013350
:101ac0009bb218466345e9d3404b93f80090b9f1b7
:101ad000000f1fd13e4b1b780193324b1b680093c4
:101ae0003c4b1b68384a12683b4909783b480088e0
:101af00000f0d0ff8246ff2872d0dff8a890d9f816
:101b0000000004f035f80023c9f80030baf1000fe6
:101b100040f09a800a232b7000236b70eb88c3f38c
:101b20000b0343f44053eb80244b1b78002b14bf72
:101b3000302320232b81254b1b78012b7ad00023c7
:101b4000204a13601c4a1370a2461f469b4641e779
:101b5000430811f8132021f813201249194802688c
:101b60005208d1f800c02b8923f0ff033cf812e0a3
:101b700043ea0e032cf81230036823f0010302330a
:101b800008687a1e05f10a01184407f038f89be747
:101b90001b2a0020182a00201c2a0020f2290020dd
:101ba000982900208c2900209429002084290020d5
:101bb000142a002088290020192a0020172a002032
:101bc000e8290020782900207c290020162a0020fe
:101bd000152a0020902900201a2a0020f029002030
:101be0007c4b02221a707c4b1a787c4b1a707c4b0f
:101bf0001a787c4b1a707c4b1a887c4b1a807c4b71
:101c00001a687c4b1a607c4b1a687c4b1a607c4bc0
:101c10001b681a6a7b4b1a607b4b01221a707b4b44
:101c20001d6000237a4a13707a4a13707a4a13604f
:101c30004e4624e5784a13683b441360a2460027c9
:101c4000bb46c7e64ff0010a0023714a1370714a80
:101c50001370694b186820b103f08aff664b0022ad
:101c60001a6000236c4a13601f469b4603e54ff041
:101c7000030ae9e72f7a07f01007684b1b78bb428d
:101c800000f09b80664b1b88093b9bb2634a177030
:101c90009a46614a1168564a12680b44934286bfbd
:101ca000a2eb010ab3464ff0010b594b83f800b089
:101cb0005ffa89f9a5f8089011f0010245d14908a9
:101cc0004d4b186830f8113049ea0329a5f80890ff
:101cd0005fea5a0e13d000230a4400eb420cbcf812
:101ce000029030f81220120a05eb430c42ea092256
:101cf000acf80a2001339bb21a469e45ecd8eb881b
:101d0000c3f30b0343f44053eb802b8903f47f436d
:101d1000bbf1000f2ed01f432f81baf1060f2dd833
:101d20000a232b7000236b70caf1070347ea4307ad
:101d30002f81374b1b78012b24d1374a136853442a
:101d40001360b2460027bb4644e62b4b1a6849088d
:101d500032f8113023f0ff0343ea0909a5f808908f
:101d600002eb41010af1ff32023105f10a0006f0ef
:101d700046ffc4e747f001071f43cde70af103031d
:101d80002b80d6e71c4f386803f0f2fe00233b603f
:101d9000214a13601f4a1370b2461f469b4619e63c
:101da00009266ce408266ae4082668e4082666e446
:101db0000027bb464ff0080a0ce60027bb464ff051
:101dc000010a07e64ff00e0a3ee7012300220792c0
:101dd000d5e400bf1b2a0020152a0020182a002065
:101de0001a2a00201c2a0020f0290020f2290020b5
:101df0007c290020982900208c290020942900208b
:101e00009029002084290020142a002088290020fd
:101e1000162a0020192a002078290020172a0020dd
:041e2000ea2900208b
:020000040000fa
:101e2400f0b585b00023029301938c4a94898c4abf
:101e340095898c4a13808c4a1370022006f092fe16
:101e440002688a4b1a80436803f00203002b0cbf1c
:101e540003260126032006f085fe0368844a1380c6
:101e6400426802f00202002a0cbf032201229bb244
:101e74008049b1f800c00cfb02327f4909888a42cc
:101e840004dd7e4800880844834277db7c48008870
:101e9400824204dd7b4a1288024493426edb734a19
:101ea4001788794a128806fb0272914204da734e4b
:101eb400368831448f4267db904204da71490988dd
:101ec4000844874260db934202da63449f425bdb4f
:101ed40004224ff4186103a804f0f2f9bdf80c30a1
:101ee400039304224ff41a6102a804f0e9f90422ce
:101ef40040f6a4110deb020004f0e2f9019e574be9
:101f04005b88574a5188039a12f4106f00f0f681e7
:101f140012f4007f00f09d812c400ad014f0040fcd
:101f240000f0998114f0080f03d112f4806f40f08f
:101f34009481029840b1494d2d69a842c0f08f8127
:101f4400524da84200f28d8102f4c065b5f5c06f10
:101f540021d000204e4c2478002c40f031824a4b92
:101f64001b88002b00f06b82002840f0b781414ba6
:101f74001988002900f03382022363e2022103203e
:101f840003f078fd1e2004e00221084603f072fdf0
:101f94001d2005b0f0bd002e00f0ac818642c0f0db
:101fa400ab8114f0100f00f05e810120d2e7022b08
:101fb40000f06381022900f06281032b40f0ac81c0
:101fc40034e2314b1b8833b12a4b1988002940f085
:101fd40082810123a0e1274a1188003118bf012121
:101fe4009ae1032122e241ea030292b2002a40f07c
:101ff4000482284b1b78002b40f0dc811346911e91
:1020040089b2012950d915494b80154b5a800023b8
:10201400214a1380214a1380214a138001285fd169
:10202400029bf1189e42c0f0c080b1fbf3f082b273
:1020340003fb1013002b40f04181511c174b1980f6
:10204400184b1a804fe0074a4ff4806414809a1e9c
:1020540092b2012a40f23a810a46d0e7e0260020f3
:102064009c260020dc290020fd290020d429002002
:10207400d2290020d8290020e6290020ea290020be
:10208400e4290020e8290020da290020000050c3b8
:10209400112a0020012a0020c0290020e229002062
:1020a400e0290020c2290020a04901240c70a04985
:1020b400098811b99f4900240c809f494b809f498e
:1020c4004a8000219e4c21809e4c21809e4c218080
:1020d4009e4c21800128a3d0022b76d0032a02d063
:1020e400974b01221a800023994a138000930422fb
:1020f4004ff48461684604f0e3f8009c8c4b1b8821
:1021040013b1a3b2002b64d1924b00221a80924bdc
:102114001b78002b40f0b780904b1b783bb1844b6d
:102124001b8823b1834a138843f4806313800023fc
:102134008b4a13808b4a13808b4a13808b4a1380fb
:102144008b4a13708b4a13708b4a13807b4a138516
:10215400538582f84030784a1385538582f840309d
:10216400039b13f4007f14d00299002900f08d80a2
:10217400824a914255d87a4a0120108013f4806f24
:1021840007d0019b994240f28480754b1a88774ba3
:102194001a80674b1b88002b53d1794b1b88002b6b
:1021a40053d105f0b1fa0020f3e6674a012010800c
:1021b400b1fbf3f082b2624c228003fb1013002bbc
:1021c40091d001325e4b1a808de75f4b012119805b
:1021d40084e70023009304224ff48061684604f0ee
:1021e4006ff8009b9ab2002a00f0d8800232a3b2a2
:1021f40046f2a71402fb0343db08624aa2fb032353
:10220400c3f30f23534a13805f4a00211180002b2c
:102214003ff47daf504b1b78002b7ff47daf1f2024
:10222400b7e64a095948a0fb0202d209520092b209
:102234005748a0fb0202d208494802809ee70123c6
:1022440035e0022006f062f9a7e7032006f05ef904
:10225400a7e730209de630209be6302099e6362023
:1022640097e6362095e6302093e6302091e630203c
:102274008fe630208de630208be6302089e6302052
:1022840087e6292085e61f2083e613f4806f80d03b
:10229400019b0b44394a9342d1d95b093b4aa2fbc7
:1022a4000323db095b003a4aa2fb0323db082c4a25
:1022b400128803eb52032d4a13806ae7224b1a80db
:1022c4007fe71a4a012414700a46f3e6174a0124e8
:1022d40014700a46f1e6222101231de0284b1988d7
:1022e400002900f0a38012f4806f7ff47aae0221fb
:1022f400032399e000202de600202be6254a1078e0
:1023040000283ff45eae9a1e92b2012aadd98a1e0d
:1023140092b2012aabd900201f4a1278002a7ff416
:1023240062ae002b66d1292033e600bffc290020d1
:10233400da290020dc290020e02600209c26002049
:10234400c2290020c0290020e2290020e029002021
:10235400b0290020bc290020042a0020012a0020e2
:10236400c6290020c4290020c8290020ca29002029
:10237400fb290020032a0020ce2900201fa10700ea
:10238400d829002089b5f814ba290020c55a7c0a36
:10239400cdcccccc112a0020f829002000232d4ad2
:1023a40013802d4a1380b2e62c4b4ff480611980c0
:1023b400134624e62a4b19880029f5d10b4624e05c
:1023c40012f4806f30d1032b3ff453af03293ff451
:1023d40052af12f4007f3ff4eaad022b9cd1029b72
:1023e400204a53625360204a5362536002231f4ab7
:1023f400127812b900293ff444af1d4a0124147025
:10240400174a1288002a7ff41eae1a4a12881ab19b
:10241400124a4ff4006414809a1e92b2012a7ff685
:1024240050af0a46ebe50221032bd6d1029b0d4a9d
:10243400536253600c4a536253600323d7e70d4938
:10244400098821b112f4806fedd00321c5e70b4652
:1024540062e700bfbc290020ba290020dc29002043
:10246400da290020e02600209c260020f8290020fc
:08247400012a0020d8290020f4
:020000040000fa
:10247c002de9f0419b4b4ff6ff721a809a4b0122cb
:10248c001a7010f0100723d0984a137823f0100319
:10249c00137001270e4600f00f05944b1c7805ebca
:1024ac00041404f0ff04442c00f0ba8000f2ad8058
:1024bc00222c00f0a4801ad9242c40f09d808c4949
:1024cc008c4802f0c7ff8046002840f0b380a7e09c
:1024dc00864b1b7813f0100f04d000f00f02012a6a
:1024ec0040f0ad8203f00f03804a1370d2e7122c38
:1024fc0000f08580804b00221a80a4f11103772b09
:10250c0000f25e82dfe813f0c5011601b700280265
:10251c005c025c025c0228025c025c025c025c02f3
:10252c005c025c025c025c02af01c80128023a0149
:10253c005c025c025c0228025c025c025c025c02d3
:10254c005c025c025c025c02000128025c02280254
:10255c005c025c025c0228025c025c025c025c02b3
:10256c005c025c025c025c02a3018e012802c801c1
:10257c005c025c025c025c015c025c025c025c0260
:10258c005c025c025c025c025c025c025c025c024f
:10259c005c025c025c025c025c025c025c025c023f
:1025ac005c025c025c025c025c025c025c025c022f
:1025bc005c025c025c025c025c025c025c025c021f
:1025cc005c025c025c025c025c025c025c025c020f
:1025dc005c025c025c025c025c025c025c025c02ff
:1025ec005c025c025c025c029801830128027901a6
:1025fc005c025c025c02c801422c7ff47baf0220bf
:10260c0001f044fe1ffa80f810e0822cf7d004d9b8
:10261c00842c05d0882c03d06ce7482c7ff46aaf4f
:10262c00364b187801f032fe1ffa80f8b8f1000f23
:10263c003ff460af2d4b1b78042b00f05181082b1d
:10264c0000f04a81022b00f04f81b8f1ff0f00f02f
:10265c006081264b187800f00f039d4200f09e819c
:10266c00b8f1000f40f0d681002e40f09d811f4b39
:10267c001d70b046dbe1224b01221a70022001f0e2
:10268c0005fe28b11e4b00221a704ff01508bbe155
:10269c00002005f05ffe04f063fa804678b1b8f1d3
:1026ac00ff0f00f0db81104b1b78bbb102f034fd47
:1026bc00032006f0d2fb124b00221a70c9e70a4b1a
:1026cc0000221a7006f088fc80460028e7d10d4bda
:1026dc0001221a70032006f0c0fbbae706f03cfc9e
:1026ec00e4e700bfbe290020f9290020052a0020bc
:1026fc00da290020d8290020d0290020062a002021
:10270c00fa2900200a2a0020af4b1b783bb94ff066
:10271c00000806f036fcad4b00221a70ace000202d
:10272c00a94b187005f016fe02f0f6fc06f014fc2e
:10273c008046eee705f018ffa54b1b78002b00f048
:10274c003a8104f00dfa804648b1b8f1ff0f00f061
:10275c007881a04b1b7873b102f0defc79e79d4bbe
:10276c0000221a7006f038fc80460028edd19a4bf6
:10277c0001221a706de706f0effbede7fff74cfb5b
:10278c00804648b1b8f1ff0f00f06281914b1b7885
:10279c009bb103f023fd5ce78e4b00221a708f482f
:1027ac0006f01cfc80460028ecd18c4b188805f0f8
:1027bc00edfd8b4b01221a704be706f011fce8e79c
:1027cc0005f0fefa804648b1b8f1ff0f00f04081e9
:1027dc00804b1b7873b106f0d5fa3ae77d4b00229b
:1027ec001a7006f0fffb80460028edd17d4b0122cc
:1027fc001a702ee706f0f8fbede706f0f5fb06f095
:10280c00c1fa4ff00008734b83f8008021e706f003
:10281c00ebfb804606f0b6fa6e4b00221a70b8f14c
:10282c00000f29d106f0dcfb03f0d8fc4ff00008b8
:10283c00684b83f800800ce706f0d6fb804606f068
:10284c00a1fa644b00221a70b8f1000f14d106f0f3
:10285c00c7fb804603f0c2fc5e4b00221a70b8f135
:10286c00000f40f0ab8002f057fc06f075fb804681
:10287c00564b00221a702124b8f1ff0f7ff4e9aef9
:10288c00594b01221a70594b1c80594bc8221a8083
:10289c004fe04e4b00221a7077b9564b1b7813f051
:1028ac000c0f00f0af80544b1b884bb9534b1b885b
:1028bc0063b94ff0fe08a7e0204606f097fbece763
:1028cc00022005f01ffe4ff0fe089de0032005f0ee
:1028dc0019fe4ff0fe0897e006f086fb06f052fa60
:1028ec0006f07efb03f07afcb8f1160f03d0414bd7
:1028fc0002221a70a9e602f00ffc06f02dfb002054
:10290c0005f0b2fd012005f0affd3a4b01221a7023
:10291c009fe6354b01221a70344b1c80242c16d0a8
:10292c0013d8123ce4b29442afd8314b4ff4fa6254
:10293c001a802f48b0f90030314981fb0321da1796
:10294c00c2eba1029b1a038079e0482c9dd1284b45
:10295c0042f228321a80ece74ff0110879e6214b4d
:10296c001b7853b9244b1b8863b9244b1b886bb958
:10297c00b8f1000f52d1deb979e606f035fb06f05e
:10298c0001faefe7022005f06ffdf1e7032005f0f7
:10299c006bfdede7174b04221a7043e00021124b3c
:1029ac00197002f045fc4ae0284310f0080fd6d10c
:1029bc0045f010055be64ff051084ae641245be711
:1029cc004ff0120820e000bffa290020112a002045
:1029dc00f6290020f92900200a2a0020dc290020f1
:1029ec00fe290020ff290020002a0020d0290020e9
:1029fc00be290020052a0020da290020d829002031
:102a0c00676666664ff0fe081b4b187800f00f03e4
:102a1c00ab42c3d0284310f0080fa0d1164b1b7843
:102a2c00082bb7d0144a137843f010031370134bd0
:102a3c0000221a704146104b187802f0f9fbbde8e1
:102a4c00f0810e4b01221a700d4b12221a806ce78a
:102a5c000a4b01221a700a4b1c8078e7032006f0ff
:102a6c00fcf9084b00221a70044b01221a70044b1b
:102a7c0013221a8059e700bf052a0020002a0020e3
:082a8c00d0290020fa290020e6
:020000040000fa
:102a94002de9f04f8bb004900c4616461d46ddf828
:102aa40050809df854b01ffa81fa9b89c3f3032226
:102ab4000692d9b20591072a00f04182ab6993f8d6
:102ac4000090b9f1000f40f05982a0f5e053103b9b
:102ad4009bb21f2b40f25082a0f5b0539bb2b3f5ca
:102ae400007fc0f05682a0f5d0539bb2b3f5007faf
:102af400c0f052824ff23003984208bf89463de24b
:102b040074b3d146049aa2f5e053103b9bb21f2b39
:102b140012d9a2f5b0539bb2b3f5007f0cd3a2f542
:102b2400d0539bb2b3f5007f06d34ff230039a42e1
:102b340002d00023089305e0ab691b78003318bf6b
:102b4400012308932f6a77b1cdf800b0434632468b
:102b540021460498b847039003980bb0bde8f08f62
:102b6400d1460894eee7002e00f0aa81ca4500f28f
:102b7400aa8154460723039300230793049ba3f5d8
:102b8400e053103b9bb2099337e1102a44d0202a2a
:102b940040f060811ee0022b18d81bb2002b40f0dd
:102ba400b280bbf1000f00f097817b8813f00f0f08
:102bb40005d0184410f00f0f08bf08f10208c3f342
:102bc400031308eb43080123079311e1032b23d0dc
:102bd400042b1cd110f00f0f40f08a81089b5bb1cd
:102be4003288b8f800309a4240f085817288b8f88b
:102bf40002309a4240f08281b8f800303380b8f84d
:102c04000230738008f1040801230793f0e01823cd
:102c14000393a1e7072bddd210f00f0f40f0628180
:102c2400b8f80070089b1bb13388bb4240f05d814b
:102c3400099b1f2b00f29380a7f5b0539bb2b3f509
:102c4400007fc0f09780a7f5d0539bb2b3f5007f07
:102c5400c0f09080002f00f08d80122303937be757
:102c64000b2b00f2368110f00f0f40f050817a8860
:102c74000732d2104146304605f0bfff7b881b095e
:102c840008eb430801230793b2e02d2b3bd026d851
:102c94001e2b38d01bd8152b01d01b2b14d110f0b0
:102ca4000f0f40f02e81b8f800303380b8f80230ae
:102cb4007380b8f80430b380b8f80630f38008f1b4
:102cc40008080123079393e01823039344e71f2b79
:102cd400a2d0202b3ff47eaf182303933ce7372b7d
:102ce40009d8302b0fd22e2b96d02f2b3ff472af56
:102cf4001823039330e7a3f518739bb2032bb2d9bf
:102d04001823039328e77a88a54b33f8122000f0a0
:102d14000f0c02fa0cf1338823ea01031bb2bbf156
:102d2400000f10d09bb2b8f8002011400b43338041
:102d34007b88184410f00f0f40f0b28008f10208ad
:102d44000123079354e0b8f8001031ea020e40f072
:102d5400c6800a4002fa0cf213439bb2e7e7049bd5
:102d6400a3f5e153123b9bb2012b03d8012c07d0ee
:102d7400082c14d0378008f102080123079337e0a8
:102d84003388bb4207d03946049801f059fe0390ba
:102d940000287ff4e1ae834b01221a70eae7824aed
:102da40000235361814911615360814a5361116168
:102db400536017f0020fddd07b4a5385138582f8e8
:102dc40040307b4a5385138582f84030d2e7002c8b
:102dd40061d07b8813f00f0f05d0184410f00f0f4b
:102de40008bf08f102081b0908eb430818230393e2
:102df400631c9bb24c4556d01c46e6b2314628466d
:102e040005f058fd07462946304603f063fcba88ae
:102e1400684b1b7803ea920313f00e0fd7d0ae6908
:102e2400002c7ad0c0f30f1306eb4306a24506d05c
:102e3400bbf1000fdcd0a245dad8002c70d03b885f
:102e4400b3f5e06f06d37a88082a3ff69eae02f106
:102e54002f039bb2112b3ff422af3ff616af052b85
:102e64003ff451af7ff697ae082b7ff6d3ae092b14
:102e74007ff4f6ae10f00f0f46d17a880732d210e5
:102e84004146304605f0b9fe7b881b0908eb430830
:102e940001230793ace708f1020818230393a7e77b
:102ea40001230793a4e7079b002b039b18bf002370
:102eb400039351e6112303934ee61a2303934be63f
:102ec4000023039348e60723039345e61323039360
:102ed40042e6182303933fe6182303933ce61223a8
:102ee400039339e60523039336e61c23039333e661
:102ef4000523039330e61c2303932de61c2303933d
:102f04002ae60523039327e60523039324e60523f2
:102f1400039321e6052303931ee6baf1000f87d13c
:102f2400069b072b8bd0b8f80030dab20599914292
:102f3400ccd3338008f102080123079358e7bbf18f
:102f4400000fe7d14ff00009ca45b3d821462846ff
:102f540005f0b0fc8288174b1b7803ea920313f048
:102f64000e0f7ff4cdad12f0380fa6d1002a0cbf9e
:102f7400052307230393efe5ddf81490bbf1000f5d
:102f8400e2d0002c7ff4bead0eb198f80090089406
:102f9400d8e5ddf81490f1e7ddf81490eee700bf12
:102fa4007c8a0000112a0020e0260020a08601006f
:082fb4009c260020052a0020e4
:020000040000fa
:102fbc002de9f04f89b08046049114460293129d7e
:102fcc009df84ca01ffa81f919469b89c3f3032283
:102fdc000792dbb20693072a00f06d81b0f5805f93
:102fec00c0f063818b6993f800b0baf1000f10d078
:102ffc00cdf818b0029bde6986b1cdf800a02b4647
:10300c00224604994046b0470390039809b0bde8a6
:10301c00f08fcdf818b051e1cb46ebe7b8f5805ff7
:10302c0004d2049b83b903934c4605e0cb4508d3eb
:10303c004c460023039304930027cdf814a0c246fa
:10304c00cee100230393e0e7049e3146029c204628
:10305c0005f02cfc42880732d21006f18041013970
:10306c00a36953f8211011f0010f22d094b221f072
:10307c0001026608012c0dd9002113881b0a2b8034
:10308c0032f8020f43ea002325f8023b01318bb2e0
:10309c00b342f2d314f0010f00f0ec802b8803f450
:1030ac007f432b80128843ea12232b800023039347
:1030bc00abe70b882b804b886b80043a0431281dbe
:1030cc0005f097fd002303939fe7079b072b00f068
:1030dc002781069b25f8023b7de1bcf1100f34d013
:1030ec00bcf1200f40f02f811de0022b17d81bb232
:1030fc00002b40f08580059b002b00f0c18073886d
:10310c0013f00f0f04d0984418f00f0f08bf0235be
:10311c00c3f3031305eb4305012304935be1032b7a
:10312c0013d0042b0cd118f00f0f40f0af8032f8f5
:10313c0010302b804b886b800435012304934ae1bb
:10314c001823039361e7072bedd218f00f0f40f013
:10315c009a8032f8103025f8023b012304933ae1af
:10316c000b2b00f28a8018f00f0f40f095807288bc
:10317c000732d210284605f03cfd73881a0905eb7e
:10318c00420513f00f0f62d02b782b800123049390
:10319c0021e12d2b34d020d81e2b31d016d8152b55
:1031ac0001d01b2b0fd118f00f0f72d132f8103049
:1031bc002b804b886b808b88ab80cb88eb80083561
:1031cc000123049307e1182303931ee71f2bbcd0a4
:1031dc00202ba8d01823039317e7372b08d8302bb4
:1031ec000ed22e2bb1d02f2b9dd0182303930ce78e
:1031fc00a3f518739bb2032bb5d91823039304e7db
:10320c0008f00f0c7388854931f8133003fa0cf36e
:10321c009bb232f81000bcf1000f00d12f802a882d
:10322c00059959b1034013432b807388984418f0c7
:10323c000f0f09d1023501230493cce0034043fa6c
:10324c000cf313439bb2efe701230493c3e0012378
:10325c000493c0e001230493bde0049b002b039b6b
:10326c0018bf00230393d0e611230393cde6052367
:10327c000393cae600230393c7e618230393c4e61b
:10328c0018230393c1e605230393bee6052303939a
:10329c00bbe605230393b8e605230393b5e60523a4
:1032ac000393b2e605230393afe6baf1000f05d002
:1032bc0005230393a9e6baf1000ff3d1069b4b4506
:1032cc00d2d30499029805f0f1fa8388002bced062
:1032dc00534a127802ea430212f00e0f7ff49caeae
:1032ec0003f00703002b0cbf06231a2303938ce671
:1032fc00e1b2029805f0dafa06468288484b1b7850
:10330c0003ea420313f00e0f43d0b846a14504d094
:10331c00059b002b5fd0a1455dd8002c3ff4d5aeaa
:10332c00029b9a69c8f30f1002eb40013388b3f586
:10333c00e06f08d3b6f802c0bcf1080f3ff6cdae73
:10334c000cf12f039bb2112b3ff42daf3ff621afa5
:10335c00052b3ff455af7ff6c8ae082b7ff6f3aec6
:10336c00092b7ff4fdae18f00f0f98d1728807323d
:10337c00d210284605f03dfc73881a0905eb42056e
:10338c0013f00f0f3ff466af2b782b8001230493bf
:10339c0021e0b8462f80738813f00f0f05d09844a6
:1033ac0018f00f0f04bf6f800235738813f0f00f05
:1033bc0009d03b4625f8027f0133dbb27288c2f399
:1033cc0003129342f6dbb38803f00703002b0cbf08
:1033dc0006231a2303930134a4b2a345fff43daf93
:1033ec00002c85d0baf5805f82d3e6b202993046c4
:1033fc0003f06cf980463146029805f057fa064600
:10340c008288074b1b7803ea420313f00e0f7ff4fc
:10341c007daf18f00f0fbed1bce700bf7c8a000057
:04342c00052a00204d
:020000040000fa
:1034300038b50388052b40f25b81991f89b2044699
:10344000c388013b052b00f2e880dfe803f0032d81
:103450004662acbba94b1b8813b148f2040363e07e
:103460000c306289238943ea0243024605f0eaf9f7
:103470000346a34a0021116047f69572904205d891
:10348000a04a01211160a04a1060b0e047f6fa722c
:10349000904200f2f18000229a490a609a490a603b
:1034a000964a01211180bee0944b1b8813b148f26b
:1034b000040339e04289038943ea02420c3005f0f3
:1034c00087fb034628b98f4b00221a6047f6fd732d
:1034d000d9e08c4a0021116085e0884b1b8823f0dd
:1034e00004039bb2022b02d048f204031ce0428981
:1034f000038943ea0243834a12689a4202d048f29f
:10350000050311e00c3004f0d1fe03460028ddd0a5
:1035100069e07a4b1a88012a30d047f6fe7148f2ea
:103520000403042a08bf0b4613f4004f00f0c380c5
:1035300000220521a171e2712381a272e2720623a9
:103540002370627004f10c01a38913f0ff0f00f0e7
:10355000d18013f47f4f00f0cf8002235a0831f856
:10356000122012f0ff0f00f0b28012f47f4f00f033
:10357000aa800233dbb2202bf0d1aae0624d00f129
:103580000c01286805f05afa03462a685c490a606b
:1035900047f69571884242d802442a6059490a6820
:1035a00001320a6023e0554b1b8813b948f204032b
:1035b000bae74089238943ea004005f02ffc47f62b
:1035c000ff73b1e74d4b1b88012b04d0042b02d0b5
:1035d00048f20403a8e704f10c02494b196820895a
:1035e00005f0a2fc034647f69572934217d8454a68
:1035f00012680321a1710021e1712281c2f30f42ff
:1036000062819a1d2280414a12880c3a93423b4bb8
:103610000cbf012204221a8011e048f2040347f68d
:10362000fa72934228d800220621a171e271a3f513
:10363000ff43163b2381a272e27221706270344b09
:103640001d78002d49d0a388c3f30b03a380314a12
:10365000127812f0070f02d12e4a012111702d4964
:103660000a7843ea0233a38001320a70204602f04e
:1036700065ff0023184638bda3f5ff427c3a92b29d
:10368000012a3ff651af1f490a68501c086000210b
:103690000420a071e1712281c2f30f4262810622ef
:1036a0002270617047f6fd729342144b0cbf0222e8
:1036b00000221a80c3e70025104b1d80204602f02f
:1036c00057fa2b46d6e70133dbb21f2b01d807335d
:1036d00023800a4b00221a80b1e74021204603f0e4
:1036e000d1fc03460028c5d00b4b1c602b46c1e71c
:1036f0000623bfe70023eae70123e8e7b629002015
:10370000382900203c29002034290020ea29002003
:0c371000fa2900200f2a00203029002098
:020000040000fa
:10371c00f0b585b0044600238df80f30058905f00f
:10372c007f05052d0fd00388072b40f23c81032d1c
:10373c000dd0052d0bd0012d40f010818389052b68
:10374c0010d9022122e10388092b40f22a81a38996
:10375c0098b2adf80c30b0f5805f77d205238df8b8
:10376c000f30fee0924d00686168a26807c5a2891f
:10377c002a8013f0ff030ed100258e4b1d8004f11f
:10378c000c06e8b204f0d0f926f8020f0135052d2d
:10379c00f7d1122022e0013bddb2864b19880029bb
:1037ac0035d0854b1a880c3a92b204f10c0383483d
:1037bc000088adf80c0001397e4801800df10f0135
:1037cc00009103a9284603f0cdfa7c4bbdf80c20e0
:1037dc001a80794b1b88063b181a80b220809df802
:1037ec000f30002b40f0bd80238923f07f0242f084
:1037fc00020222816f4a12886281002a00f0d58071
:10380c0023f0ff0343f0820323818221bee028468c
:10381c0004f08af94ff48053adf80c30664b1988dc
:10382c00a1f10e0292b204f10e034000904209dda8
:10383c000c398eb2811a701e014491fbf6f15d4871
:10384c000180bbe75b4900200880b7e705f000f971
:10385c00064600287ed0032d0bd0e789ffb205f079
:10386c00b9fb4388dbb29f4232d911238df80f305c
:10387c0077e005f0affb0368c4f80e300023324646
:10388c001946bdf80c0002f053fb4b4b1b88053b53
:10389c000c3080b283420fdc0c229df80f30002bd1
:1038ac005fd1a372e3722280238923f07f03013559
:1038bc001d432581022169e004f1120332460021e7
:1038cc00bdf80c0002f034fb00f10c0292b2e4e7fc
:1038dc003946304604f0eaff036823618388a382eb
:1038ec00e389dbb2e381304605f074fb4388c3f314
:1038fc000323083b9bb2012b0fd877b9304a1668cb
:10390c0050689168c4f81660c4f81a00c4f81e1008
:10391c00127b84f822201c22bfe700233246394652
:10392c00bdf80c0002f004fb234b1a88053a00f199
:10393c0010039bb29a4201dc1022aee704f116038d
:10394c0032463946bdf80c0002f0f2fa00f11002d2
:10395c0092b2a2e708238df80f3002e003238df812
:10396c000f309df80f1000220a23237062702389f8
:10397c0023f07f0343f007032381a272e272114b01
:10398c0053f82130e3600b4b1a800221204603f0e0
:10399c0073fb034610b10c4b1c600023184605b09a
:1039ac00f0bd0623fae70623f8e70221eee700bf95
:1039bc0064280020ec290020ea290020ee290020b0
:0c39cc0074280020207600002c29002028
:020000040000fa
:1039d8002de9f04f85b0814690460023029301936c
:1039e8008df803308df8023001f0030502f003076b
:1039f8002f4417f0030f04d03b1d03f00c03df1b0b
:103a0800ffb208eb05043c44a4b27f2c06d963003e
:103a180003f4fe43e4b21c4344f08004adf80c10f8
:103a2800adf80e80042203a94ff4427002f018f991
:103a38004ff000430393042203a94ff4437002f0ac
:103a48000ff905f029f90b238df8083000238df8bc
:103a5800093004238df80a30794e7368db6898477b
:103a68000028fad1764b5b681e68032301aa194621
:103a780002a8b04705f0def8714e7368db68984716
:103a88000028fad16f4b9df805201a709df8062082
:103a98005a708df803406a4b5b685b6801210df131
:103aa8000300984705f0c6f8654e7368db689847c9
:103ab8000028fad1b8f17f0f11d9240a8df80340f4
:103ac8005f4b5b685b6801210df10300984705f0c7
:103ad800b1f85b4c6368db6898470028fad15a4b09
:103ae800de78574c4ff0010a0ce063689b6851463a
:103af8000df10200984705f09df86368db68984768
:103b08000028fad1013ef6b2ff2eeed14c4cdff878
:103b180038b100e035466e1ef6b225b363689b687f
:103b280001210df10200984705f084f86368db680d
:103b380098470028fad1002eecd09bf804504ff09b
:103b4800010a013dedb2ff2de4d063689b68514640
:103b58000df10200984705f06df86368db68984737
:103b68000028fad1ede7364cdff8dca000e0b046db
:103b780008f1ff36b6b2b8f1000f31d0b6fa86f3c5
:103b88005b095b428df8033063681d6801230df102
:103b9800020219460df10300a84705f04bf86368c7
:103ba800db6898470028fad19df8023009f8013bf4
:103bb800002edcd09af804504ff00108013dedb218
:103bc800ff2dd4d063689b6841460df102009847e9
:103bd80005f030f86368db6898470028fad1ede70c
:103be800174c194e00e02f467d1eedb21fb36368d7
:103bf8009b6801210df10200984705f01bf86368e6
:103c0800db6898470028fad1002decd037794ff0bf
:103c18000108013fffb2ff2fe5d063689b6841466a
:103c28000df10200984705f005f86368db689847ce
:103c38000028fad1ede705f025f805b0bde8f08fca
:0c3c480024280020b4290020b42700200c
:020000040000fa
:103c540038b5804b1b78002b68d07f4bb3f900300c
:103c6400002b6bd17d4b1b88c3f30714242b32d05c
:103c740011d8123b9bb2012b00f2e680784b1b78e3
:103c840033b301f04dfa774b1b78002b00f0de8044
:103c9400754b1d8815e0482b12d1744b1b78002bf3
:103ca40029d0734b1b78002b30d0724b1b78002b20
:103cb4003dd1714b1b88002b0cbf1a251b2526e018
:103cc4000025002c32d0634b00221a7055b327e034
:103cd40005f046f9d5e7624b1b784bb102f082fa46
:103ce400604b1b78002b00f0b3805f4b1d88e8e726
:103cf40005f07af9f2e7604b1d88d5b95f4b0122d4
:103d04001a70544b00221a7008240be02d25544bd2
:103d14001b7883b105f03af844b14e4b00221a7077
:103d240044f010042946204601f086fa38bd1a25cd
:103d3400ede71b25ebe705f05bf9ebe7474b1b8849
:103d4400242b46d01bd8123b9bb2012beed8444bfc
:103d54001b78002bead0424b00221a7005f040f980
:103d6400054600282ed1464b01221a703b4b1c7885
:103d740014f00f04dad0374b00221a70d2e7482b24
:103d8400d4d1374b1b78002bd0d0384b1b78002b69
:103d940040d03c4bb3f90030002bc7dd3a4ab2f9ae
:103da40000209a42c2db0023364a1380364a13802d
:103db4002b4a137005f01af928bb304b01221a70f4
:103dc400082415e0ff28b1d005f0caf801f0a8f9dd
:103dd400ace7234b1b78002ba8d0214b00221a7090
:103de4002a4805f0fff838b9294b01221a70042437
:103df4000025184b1d7095e7ff2897d005f0f4f8bf
:103e040002f0f0f992e7ff2890d005f0f1f804f001
:103e1400bdff8be7184b1b881bb1164b1b78002b7f
:103e240084d00f4b00221a7005f0e0f820b9134b30
:103e340001221a700824dbe7ff283ff477af05f06e
:103e4400d7f804f0a3ff71e700253ae7012563e7fb
:103e5400012561e7002a0020be290020d029002086
:103e6400f9290020022a0020de290020fc29002054
:103e7400fb290020fd290020da290020ff29002049
:103e84000a2a0020ce290020cc290020dc29002089
:043e9400fe290020e3
:020000040000fa
:103e98002de9f04f85b081460d46904600230293e8
:103ea80001938df803308df80230adf80c10adf8a1
:103eb8000e20042203a94ff4447001f0d1fe4ff004
:103ec80000430393042203a94ff4457001f0c8fe90
:103ed80005f0030505eb080717f003071cbfc7f13a
:103ee8000407ffb204f0d8fe02238df8083000233f
:103ef8008df8093020238df80a30654c6368db683b
:103f080098470028fad1624b5b681c68032301aa12
:103f1800194602a8a04704f08dfe5d4c6368db6873
:103f280098470028fad15b4b9df805201a709df838
:103f380006205a70584b9e7c554c4ff0010a013ea2
:103f4800f6b2ff2e0dd063689b6851460df1020052
:103f5800984704f06ffe6368db6898470028fad139
:103f6800ede74b4cdff830b100e035466e1ef6b297
:103f780025b363685b6801210df10300984704f0dd
:103f880059fe6368db6898470028fad1002eecd008
:103f98009bf813504ff0010a013dedb2ff2de4d01c
:103fa80063689b6851460df10200984704f042fe91
:103fb8006368db6898470028fad1ede709f1ff3913
:103fc800334cdff8d4a000e0b04608f1ff36b6b2b3
:103fd800b8f1000f28d019f8013f8df80330636855
:103fe8005b6801210df10300984704f023fe636824
:103ff800db6898470028fad1002ee5d09af81350cc
:104008004ff00108013dedb2ff2dddd063689b68dc
:1040180041460df10200984704f00cfe6368db6826
:1040280098470028fad1ede7194c1b4e00e02f46bf
:104038007d1eedb237b300238df8033063685b68eb
:1040480001210df10300984704f0f4fd6368db6873
:1040580098470028fad1002de9d0f77c4ff00108e5
:10406800013fffb2ff2fe2d063689b6841460df124
:104078000200984704f0defd6368db689847002873
:10408800fad1ede704f0fefd05b0bde8f08f00bf02
:0c40980024280020b4290020b4270020b8
:020000040000fa
:1040a400f0b585b00023039304224ff4a06103a864
:1040b40002f006f9039c002c01db05b0f0bd04f00e
:1040c400e064042240f204510deb020002f0f8f81f
:1040d4000198039b23f0e0430393b4f1807f28d03d
:1040e40018d9b4f1007f42d0b4f1806f40f0bf80a2
:1040f400614b1b88082b5ad0604b1b68002b00f0c7
:10410400a0809847002800f09780039b43f0005359
:10411400039302e0002c40f0aa80594b00221a803d
:10412400039b029304224ff4a06102a802f074fde1
:10413400c3e7544a12683ab190470028edd0039b74
:1041440043f000530393e8e7b0f5006f0bd84e4af1
:10415400146844b1484b1a884ff4a16104eb400041
:1041640002f05afdd9e743f000530393d5e7474ad9
:10417400126852b1904718b1039b43f00053039364
:10418400434b4ff47a721a80c7e7b0f5006f0ad830
:104194003d4a14683cb102224ff4a16104eb400093
:1041a40002f08ef8ece743f000530393e8e7354d53
:1041b400354e314f2ce0039b43f000530393ace79f
:1041c4003368002b33d03a884ff4a16103eb4000ed
:1041d40002f022fd039b23f0f04303930293042295
:1041e4004ff4a06102a802f017fd04224ff4a0616d
:1041f40003a802f065f8039c04f0e064042240f292
:1042040004510deb020002f05bf8b4f1806f84d12d
:104214000198b0f5006fced82b68002bd0d098470a
:104224000028d7d0039b43f00053039375e7039b07
:1042340043f00053039370e7039b23f0006303935d
:104244006be703f0cffa68b90f4b186850b104223a
:104254004ff4a161103002f0dffc039b23f00063f4
:1042640003935ae7039b43f00063039355e743f03a
:104274000053039351e700bfb2290020f428002023
:1042840082280020f028002018290020fc28002083
:04429400ae2900202f
:020000040000fa
:10429800704b1a8841f6fe739a4240f2d78070b587
:1042a8000446002004f05cfc436813f4803f03d00c
:1042b80003f00c02042a01d0162070bd13f0020f7f
:1042c800fad00268130c223b9bb2de2bf4d8a2f57d
:1042d80080539bb2b3f5805feed2012004f040fc1e
:1042e800436813f4803fe7d013f00c0fe4d113f0c8
:1042f800020fe1d003681a0c223a92b2de2adbd808
:10430800a3f580539bb2b3f5805fd5d2032c14d8a4
:10431800032c44d0504b1b78a34240f299804f4e57
:104328004d4d204604f01cfc436833600134e4b270
:104338002b78a342f5d80020bfe7494b01221a7019
:10434800032004f00dfc0268130c406810f4803f51
:104358003ad0002b3ed043490988994201d0032125
:1043680039e0013b9bb2432b3ad810f00c0f39d1fe
:1043780092b23d4b1978022905d03c4b1b889342d9
:1043880007d0022127e0a2f5805293b2b3f5805fef
:1043980021d210f0020f02d0314b00221a700220f5
:1043a80004f0defb0268130c406810f4803f42d032
:1043b800002b47d02e490988994215d003210220a5
:1043c80001f056fb1d2078e7264a12881343e6d0f1
:1043d800032100e00421032001f04afb1e206ce7c2
:1043e8000321f8e70421f6e7013b9bb2432b2bd8c6
:1043f80000f00c03042b01d00421e0e792b21a4b21
:104408001978022905d01b4b1b88934207d002213b
:10441800d5e7a2f5805293b2b3f5805fcfd2c0f34f
:104428008012154b1a7010f0020f3ff473af0c4b4b
:1044380000221a706ee70e4a128813433ff46aafdf
:104448000321bce70421bae70321b8e71420704729
:10445800002032e7d6290020062a00204029002023
:10446800f8290020d8290020052a0020d229002078
:0c447800da290020d4290020042a0020aa
:020000040000fa
:104484002de9f04f87b0039003a803f091fe0028b4
:1044940003da002007b0bde8f08f039b1b095d1e03
:1044a400202d0fd9023b5e4ab3f5007f35bf02ebe6
:1044b400d30302ebd31313f8045c13f8045c34bf86
:1044c400013511350123a5f12001c5f1200203fabc
:1044d40001f923fa02f203fa05f8d8f1000849eacf
:1044e400020969eb4909cde90089dff84081dff869
:1044f40030914746d8e90023009902ea010a01995c
:1045040003ea010b5aea0b0342d1039b05a81033bb
:10451400059304f067fb18b9424b0c221a60b9e703
:10452400d8f80852a84206d0059b103b05930123f6
:1045340000f110058360059bea18012143f0010393
:10454400b5f1080442f8083c42f8041cc7f80822f4
:1045540045f8043c9dd0204604f052f888b155f843
:10456400083c55f8041c23f00103e31a5a6822f0ae
:1045740001020a445a6055f8041c21f001016250fa
:104584001c462046039904f053f804f1080081e71f
:104594005446254bbaf1000f34d1cbf1000000eaa8
:1045a4000b00434309ebd36393f83c602036304659
:1045b40004f082fa731c57f8334007ebc303083b3b
:1045c4009c4297d0272e26dd0235ae4201dc3f2ed9
:1045d40021d16268039922f00102551a284603f09a
:1045e40011ff864217d1e068a6686318d8609e6000
:1045f40083609868c36041f0010060505d60a5501d
:104604006060bee7caf100002040434309ebd36376
:1046140093f83c60cbe73146204603f05dfab0e7ff
:10462400287a0000a429002029e66b070020002036
:020000040000fa
:1046340010b5564a536803f47063d26912f0010f3f
:1046440031d0524ad06852494a69c9688a422ad24a
:104654006bb94f4b5968541c5c6188544b4bdb69f4
:1046640013f0020f3fd0494b02225a6125e0484b18
:104674005968541c5c6121f81200444bdb6913f047
:10468400020f30d0414b02225a61414a9369926829
:10469400934245d23e4a1168581c906131f8132068
:1046a4003a4b1a6115e0394ad26912f0020f1ad056
:1046b400364a02215161002be7d1354a9369926849
:1046c400934221d2324a1168581c9061ca5c2f4b24
:1046d4001a612f4b9a699b689a422cd02c4b5a69c9
:1046e400db689a422cd02b4b1b7863b1274bdb69d8
:1046f40013f0040f04d0264b5a69db689a4225d084
:10470400224b04229a6110bd214b1b69002b30d02f
:104714001e4bff221a611e4a1369013b1361d8e73d
:104724001b4b1b692bb3194bff221a61184a1369df
:10473400013b1361cde7164b1b69002bced11de065
:10474400124b01225a6102229a61cce7104b0022db
:104754001a770e49072048610e490a701b6a002b1c
:10476400d1d00b4a506a98470a4b1b78002bc7d10b
:10477400c9e7074b9a699b689a42afd1054b01225e
:104784001a70024b044a1a60ade700bf00340042bd
:0c4794008c27002081280020020000017a
:020000040000fa
:1047a00030b583b04ff48033019302f0c1fe4b4b20
:1047b0001b78002b3cd103f0adf8044610f0200f1d
:1047c0003ed114f0010f4ed0454b1b78002b3ad050
:1047d00014f0100f5fd1424b1b78002b5bd13f4b85
:1047e0001b781bb3019b13f4803f57d014f4007f58
:1047f0005cd1019b13f4003f63d03a4b1b7883b923
:1048000003f058f8374b1b78002b5fd0019b43f027
:1048100000730193042240f60c010deb020002f03c
:10482000fdf903f077f810f4807f53d103b030bd69
:10483000042240f60c010deb020001f043fdbae743
:10484000fff730fcbde70025009504224ff490717e
:10485000684601f037fd24f01104a4b229469df802
:104860000000fdf70bfe14f0100fb4d01c4b1b78aa
:104870008bb91d4b187810f0100fb0d120f0100339
:10488000012bacd024f01004a4b2002100f00f00e2
:10489000fdf7f4fd9fe7fff7ddf9a0e7124b18786d
:1048a000002100f00f00fdf7e9fd9fe70f4800230e
:1048b000036004220e4b198802f0b0f902f03af8b6
:1048c00097e7084b1b78002babd099e7019b23f0af
:1048d00000739ee701f050f8a8e700bf0a2a002005
:1048e000002a0020092a0020052a0020442900204f
:0448f000e629002095
:020000040000fa
:1048f4002de9f04186b00e468df807200023adf86f
:10490400163004938df80f308df80e300b238df88c
:104914001430030a8df815308df8160004f0bef932
:10492400444c6368db6898470028fad1414b5b68c4
:104934001c68032304aa194605a8a04704f07cf9bf
:104944003c4c6368db6898470028fad13a4b9df8e1
:1049540011201a709df812205a70364b5b685b6800
:1049640001210df10700984704f066f9314c6368a2
:10497400db6898470028fad1304bdd782d4c0127ad
:10498400013dedb2ff2d0dd063689b6839460df1f2
:104994000e00984704f050f96368db6898470028d4
:1049a400fad1ede7234c254f1be03d794ff0010888
:1049b400013dedb2ff2d0dd063689b6841460df1ba
:1049c4000e00984704f038f96368db6898470028bc
:1049d400fad1ede79df80730013bdbb28df80730e3
:1049e4001bb39df80730012b4ff0ff3318bf002392
:1049f4008df80f3063681d6801230df10e0219460e
:104a04000df10f00a84704f017f96368db689847b5
:104a14000028fad19df80e3006f8013b9df80730c6
:104a2400012bc2d100238df8073004f02df906b014
:104a3400bde8f08124280020b4290020b4270020f8
:020000040000fa
:104a4400222913d8dfe801f07f144b6512121212e9
:104a54001212121212121212121212121212121232
:104a6400121212121212121212123900122070476c
:104a740041f63243984213d041f63343984266d10b
:104a8400394b9b8913f0020f63d0384b1b88002be2
:104a940061d1374b1b88002b0cbf122000207047bc
:104aa400324b1b88002b50d0324b9b8903f00203fe
:104ab400002b0cbf12200020704741f6334398426c
:104ac40001d012207047284b9b8913f0020f44d069
:104ad400264b1b88002b0cbf12200020704741f688
:104ae400324398420cd041f63343984237d11e4b9f
:104af4009b8903f00403002b0cbf12200020704795
:104b04001c4b9b8903f00403002b0cbf12200020d4
:104b1400704741f6324398420cd041f633439842f1
:104b24001fd1114b9b8903f00803002b0cbf1220eb
:104b3400002070470f4b9b8903f00803002b0cbf28
:104b44001220002070470020704712207047122066
:104b540070471220704712207047122070471220ad
:104b640070471220704700bf9c260020da290020dd
:084b7400d8290020e0260020f2
:020000040000fa
:104b7c0030b40c46002930d000282ed04449097f8f
:104b8c0000297bd1424908604a6000254d618d6146
:104b9c000d613f498c60002a72d03d4ad3600121df
:104bac0011773c4ad268a34282bf1a1b38490a616a
:104bbc001a463849496811f4706f38d1002c2ad044
:104bcc000178344a116132498a6901328a61002bb9
:104bdc0048dd01202f4b98614ae0002b47d0002a7a
:104bec0048d02b49097f002946d1294908604a60e1
:104bfc0000254d618d610d610028cad12c468d6058
:104c0c00002acad122490022ca6001240c7721490a
:104c1c00c9681446cde71e4a1269002ad7d01d4a2e
:104c2c00ff2111611a490a69013a0a61cfe7640848
:104c3c0017498c600d696d080d615208ca603cb152
:104c4c000188144a116112498a6901328a61bee7ee
:104c5c00002dbcd00f4aff2111610d490a69013aa0
:104c6c000a61b4e70b4b02229a61012000e000209c
:104c7c0030bc70470020fbe70020f9e70020f7e785
:104c8c0003490022ca6001250d770249c96890e7e3
:084c9c008c27002000340042c7
:020000040000fa
:104ca40030b583b000230193042211460deb0200ba
:104cb40001f006fb019b2a4c1a0a22701b0c9b0272
:104cc40003f6ff73274a138003f052fc23784bb199
:104cd4000024234de0b203f0cbfb01342a78e3b285
:104ce4009a42f7d801f090fc00241f4b1c701f4b14
:104cf4001c701f4b1c701f4b1c701f4b1c701f4bd8
:104d04001c701f4b1c701f4b1c801f4b1c801f4ba7
:104d14001c801f4b1c801f4b1c801f4b1c801f4b77
:104d24001c701f4b1c701f4b1c801f4b1c801f4b87
:104d34001c801f4b1c8001201e4b1870214600f064
:104d44007bfa1d4b1c801d4b1c701d4b1c7003f00b
:104d5400a9fb04f011f8204603f000fb03b030bdba
:104d6400062a0020d6290020fa290020f92900204b
:104d7400002a0020fd290020ff290020fe29002010
:104d8400042a0020bc290020ba290020c4290020bc
:104d9400c6290020c8290020ca290020fc29002097
:104da400022a0020de290020dc290020da29002044
:104db400d8290020052a0020d0290020072a002015
:044dc400012a0020a0
:020000040000fa
:104dc8002de9f04385b00f4616460023adf80e30a6
:104dd80002938df807308df8063003238df80c30d8
:104de800030a8df80d308df80e0003f055ff394c8d
:104df8006368db6898470028fad1364b5b681c6803
:104e0800032302aa194603a8a04703f013ff314c55
:104e18006368db6898470028fad12f4b9df8092072
:104e28001a709df80a205a702c4b1d78294c4ff0a7
:104e38000108013dedb2ff2d0dd063689b68414626
:104e48000df10600984703f0f5fe6368db689847a4
:104e58000028fad1ede7013f1e4cdff8808017e00b
:104e680098f801504ff00109013dedb2ff2d0dd02a
:104e780063689b6849460df10600984703f0dafe1f
:104e88006368db6898470028fad1ede7013ef6b27f
:104e9800012e4ff0ff3318bf00238df807306368e9
:104ea8001d6801230df1060219460df10700a847f8
:104eb80003f0c0fe6368db6898470028fad19df8c4
:104ec800063007f8013f012ecad103f0dbfe05b01a
:104ed800bde8f08324280020b4290020b42700204e
:020000040000fa
:104ee80000297ad02de9f0470c46404b1e68b6f5ec
:104ef800002f75d23e4b1b680b44b3f5002f5cd8ce
:104f0800174605463b4b1b6801eb0308b8f5005fe5
:104f180059d9c3f50052dff8e0a0caf80020dff83d
:104f2800dc90014609eb030003f065fedff8c4805e
:104f38004ff40053c8f800304946304602f06aff83
:104f4800d8f80010294b1a680a441a60284a1368ce
:104f58000b441360daf800100023c8f80030641a14
:104f6800a4b222462944484603f045fec8f800404a
:104f7800204b1b68b3f5005f0dd0002f33d1b3f57c
:104f8800005f08d2c3f500521b490a60ff211b4885
:104f9800184403f047ff154c1849206802f03affff
:104fa80014490868226802442260114a13680344bd
:104fb800136000200860bde8f0870d4b00221a60de
:104fc80048f20300f7e70a4601460c48184403f084
:104fd80012fe084bc3f80080cae748f20d0070477c
:104fe80048f20d00e7e70020e5e700bf5c29002054
:104ff8006029002064290020682900200000002082
:020000040000fa
:1050080070b5adf5804d3e4b1b7823b1012b24d1f3
:105018003c4e3d4c3ce003f053fe0028fbd13b4c9a
:105028003b4a0121204603f0d5fe2378002b394b5b
:10503800a3f5002218bf1346374a136002f04afe50
:1050480000f016fc03f005ff02f01afe01242e4bb7
:105058001c7003f01ffd2a4b1c700df5804d70bdb0
:105068004ff43c224ff400510deb010003f0b2fe67
:1050780003f0fcfe80f01000c0f300100df57f5324
:105088003833187021e001f085f92378012be4d139
:1050980003f04cff0128f6d103f012fe0028fbd1e3
:1050a8004ff478324ff40061684603f093fe0df533
:1050b80000554ff43e224ff40061284603f08afe63
:1050c8009df800202b789a42cad00df500514ff474
:1050d8003c2003f08bf803f0f3fd0028fbd103f02c
:1050e80081fe03f0edfd0028fbd14ff400231b687f
:1050f8003268b3f1ff3fc6d083f308881047c2e790
:10510800ac29002004000800f52900201d2a0020f1
:0c511800fcdf0300300e08001829002006
:020000040000fa
:1051240010b582b00020374b187003f0a1f90120ac
:1051340003f09ef9344b1868e8b100f017fd334bc7
:105144001868f0b1304b1b6898421ad017e000f091
:105154000dfd204603f088fb0028f8d12c4c01e01b
:1051640000f004fd204603f07ffb0028f8d103f093
:1051740099f902b010bd254b186800283cd000f006
:10518400f5fc244b186848b11f4b1b68984205d0a6
:105194001e4b1b68834201d000f0e8fc01f03afe8c
:1051a40003f0c4fc00241c4b1c60174b1c60194bff
:1051b4001c60164b1c60194b1c700194042240f6b1
:1051c4000c010deb020001f07bf8019b23f000734e
:1051d4000193042240f60c010deb020001f01cfdca
:1051e4000f4b1c700f4b1c700f4b1c700f4b1c7023
:1051f4000f4b1c700f4cace7064b18680028c7d146
:10520400cce700bf0a2a00204c29002050290020a6
:10521400582700204829002054290020092a00206a
:105224000d2a00200c2a00200e2a0020102a00201b
:085234000f2a002024270020ae
:020000040000fa
:10523c0030b583b004460d463d4b1b7883421cbff2
:10524c003b4b18704ff6ff7399421bd1384b1b78b0
:10525c00019304224ff498710deb020001f0d8fc7d
:10526c0014f0100f22d0a5f11a039bb2182b30d8d2
:10527c00304a22fa03f313f0010f2ad02e4b0122ed
:10528c001a7016e0019104224ff49a710deb020092
:10529c0001f0befc264b1b78019304224ff498714d
:1052ac000deb020001f0b4fc002dd9d1224b0022f1
:1052bc001a7021490b7843f010020a7004f00f04a5
:1052cc00013c072c13d8dfe804f00f222e26121213
:1052dc00122a1a4b1b78012bd0d01b2d164b0cbf4e
:1052ec0002220d221a70e4e7154b002119701449a3
:1052fc000b7843f010030b7043ea02230093042253
:10530c004ff49c71684601f083fc03b030bd0c4b2c
:10531c000d211970ebe70a4b01211970e7e7084bd7
:10532c000f211970e3e7064b0e211970dfe700bf60
:10533c00052a002001000801072a0020022a00206b
:04534c00082a00200b
:020000040000fa
:1053500038b5364b1b7813b902f0e8fc38bd02f0c3
:1053600015fc10f4806f1dd0314b1b782bb1314be5
:105370001b7813b1304b00221a80304b1b8d13b1b8
:10538000013b2e4a13852d4b1a8d2d4b1a852d4b23
:1053900001221a702c4b00221a802c4b1b7863b30d
:1053a00001f0fefe254b5b88012b38d0284b1b7883
:1053b0002bb1234b5b88012b34d0222b32d002f04f
:1053c000e5fb10f4806fc7d01c4a538d01339bb2ac
:1053d00053851b4a53851f4d1f4c042229882046a4
:1053e00003f018fc29881d4b1b881944043904223a
:1053f00089b2204603f00efcaee7164d164c04228f
:105400002988204603f006fc2988144b1b88194480
:105410000439042289b2204603f0fcfbc2e703f002
:1054200091f8c3e702f072f9c9e700bf012a002032
:10543000fb290020fc290020e0290020e026002094
:105440009c260020fd290020ba290020ff290020e9
:10545000fe290020d429002044290020da29002038
:020000040000fa
:105460002de9f04f83b0009001913f4b1c8884b32d
:105470004ff000099a464ff0010bc84618e01d4650
:10548000b4693146e8b201f027f9c0f30f1014f8ff
:10549000104044441ffa84f86b1c9bb2bd42eed10d
:1054a00009f10109baf800201ffa89f39a420fd9cd
:1054b0001ffa89f30aeb4303588803f0cffa064634
:1054c00000283dd083691f88002fe9d05d46d7e7cb
:1054d00044460734c4f3cf08244b1888002840d032
:1054e0004ff0000a5546dff884b018e01c46d6f8a5
:1054f00018903146e0b201f0eff8c0f30f1019f840
:1055000010301d44adb2631c9bb2bc42eed10af117
:10551000010abbf800201ffa8af39a420ed91ffa3b
:105520008af30beb4303588803f098fa0646a8b1b8
:1055300083691f88002fead00124d8e7002003e008
:105540004ff0000845462520eb1ddb10009a138024
:10555000019ba3f8008003b0bde8f08f0025242054
:10556000f2e70546f0e700bf70290020742900200b
:020000040000fa
:1055700008b5354b00221a80344b1b78002b3dd0e8
:10558000334b1b781bb1334a138801331380324be2
:105590001b883bb3314a128893421dd2304b1b8883
:1055a000002b41d02f4b1b8d2f4a12899a4219d3c1
:1055b00003332c4a138515e00023284a13802b4a15
:1055c00013850fe002f0a2f8294b1b88012b15d19f
:1055d000204b00221a8011e0214b1b888bb1013235
:1055e0001e4b1a8002f0aeff194b1b7833b1204bd3
:1055f0001b881bb1174a12889a42e3d002f096fb2f
:1056000008bd1c4b1b88002be9d002f0bffa10f438
:10561000006fd1d1114b1b880f4a12889a42e1d3f7
:1056200001330e4a1380dde7124a1288002ad9d0ce
:10563000002bd7d10d4b1b8d0b4a12899a42e4d314
:1056400003330a4a1385e0e7c4290020fc2900201f
:10565000fe290020c0290020e2290020e0290020a6
:10566000da290020e0260020842800209c26002043
:08567000c2290020d829002006
:020000040000fa
:10567800534d206f757470757420706172616d651b
:105688007465720053796e6368726f6e697a6174bb
:10569800696f6e2054797065004379636c65205496
:1056a800696d65000053796e6368726f6e697a611f
:1056b80074696f6e20547970657320737570706f9c
:1056c80072746564004d696e696d756d2043796308
:1056d8006c652054696d650043616c6320616e647c
:1056e80020436f70792054696d6500004765742008
:1056f8004379636c652054696d650044656c617914
:105708002054696d650053796e6330204379636c6a
:10571800652054696d6500534d2d4576656e74207e
:105728004d6973736564004379636c652054696dd2
:105738006520546f6f20536d616c6c005368696607
:10574800742054696d6520546f6f2053686f7274ac
:105758000000000000000000000000000000000041
:1057680000000053796e63204572726f7200ff006b
:020000040000fa
:10577800534d20696e70757420706172616d657427
:1057880065720053796e6368726f6e697a617469c5
:105798006f6e2054797065004379636c6520546995
:1057a8006d65000053796e6368726f6e697a617413
:1057b800696f6e20547970657320737570706f729d
:1057c800746564004d696e696d756d204379636c0d
:1057d800652054696d650043616c6320616e6420c7
:1057e800436f70792054696d6500004765742043e4
:1057f80079636c652054696d650044656c61792036
:1058080054696d650053796e6330204379636c6524
:105818002054696d6500534d2d4576656e74204d95
:105828006973736564004379636c652054696d65b9
:1058380020546f6f20536d616c6c005368696674f7
:105848002054696d6520546f6f2053686f7274001f
:105858000000000000000000000000000000000040
:10586800000053796e63204572726f7200ff00006a
:020000040000fa
:10587800f0b583b000242e4b1c602e4b1c602e4bc1
:105888001c602e4b1c602e4b1c602e4b1c602e4b3c
:105898001c602e4b1c602e4b1c602e4b1c60fff7af
:1058a800fdf900f0d1fa2c4b01221a702b4b1c7019
:1058b8002b4b1c602b4b1c602b4b1c6000940194e1
:1058c8004ff47a7404264ff411651f4604e09a4297
:1058d80088bf3b60013c16d032462946684603f033
:1058e80095f93246294601a803f090f9009b019ae0
:1058f800934288bf02f1ff32d31a01933a68002a13
:10590800e5d13b60e6e70023019304224ff4a06150
:105918000deb020000f0d2fc019b03f48003002b86
:1059280014bf08220422114b1a80002003b0f0bdd6
:10593800f0280020fc280020f4280020f828002067
:105948000429002008290020002900200c29002013
:105958001029002014290020ad290020f429002056
:105968001c2900202029002028290020b2290020f5
:020000040000fa
:1059780030b583b0002301930422354b19880deb11
:10598800020000f09bfc019ca3b20193314b1b78f1
:10599800012b0ad0304b1a78304b1b7813431dd09b
:1059a8002f4b01221a7003b030bd0a20fef766fda6
:1059b80005460028eed00021c0f802100423038019
:1059c800838823f4706383800123c38007230381c2
:1059d80001f054fb284600f0c7f8dbe7204b002213
:1059e8001a70204b1d882846fef748fd1e4b18608c
:1059f800d8b1a21d92b2aa4228bf2a46144b1988d0
:105a080000f05cfc00230093042240f60401684681
:105a180000f054fc009b0093009b13f4006f08d126
:105a2800114b186801f044fdbde70d4b01221a70b7
:105a3800b9e70e4800230360054b1988094b1b88fa
:105a480019440439042289b200f038fce8e700bfa1
:105a5800e42900200b2a00200d2a00200e2a00200d
:105a68000c2a0020e829002054290020442900207d
:020000040000fa
:105a780038b505460c4603f0a3fa08b30246611e82
:105a8800c9b201eb85005388dbb243ea00239bb21d
:105a98005380022d15d0032d39d000211171517179
:105aa8009171d171002111706ff05f01517023f075
:105ab800ff032a4909780b435380104601f0bafcca
:105ac80038bd0329eed8dfe801f002020c110021ed
:105ad8001171102151714ff0ff3191711f21d17156
:105ae800e0e71f4909889180d180dbe71c490988d4
:105af80039b100210a201071517101209071d171c2
:105b0800d0e70021117151719171d171cae7032950
:105b1800c8d8dfe801f002020c1100211171102130
:105b280051714ff0ff3191711f21d171bae70d49c1
:105b380009889180d180b5e70a49098839b10021df
:105b48000e201071517101209071d171aae70021c6
:105b5800117151719171d171a4e700bf052a00201c
:085b6800da290020d8290020f1
:020000040000fa
:105b70002de9f84300286ad050f8043ca0f108044d
:105b800023f00106a719a259934200d0ffde7a68dc
:105b900023681340da070fd4204602f033fd0028b3
:105ba00057d1384602f0f8fd0028f0d07b6823f08a
:105bb00001031e441f44eae746f0010363603046d8
:105bc0003b6002f021fc054602f078ff23687a680a
:105bd0001340db07e0d5dff88ce0dee90089c5f192
:105be000200ca5f1200228fa05f009fa0cfc29fa8c
:105bf00002f240ea0c001043012100ea01020023f6
:105c00001343c5f120007346a5f1200212d121faf9
:105c100000f001fa02f2a94042ea00021ebfdef8db
:105c200000000143cef8001022b1def804100a4350
:105c3000cef80420681c03ebc003a3f108026660e1
:105c40003e60a2605a68e2605c60e3689c60bde808
:105c5000f883236823f00103e41a636823f0010347
:085c60001e449ee70020002015
:020000040000fa
:105c68002de9f04184b00f4616460023adf80e30fa
:105c780002938df8073002238df80c30030a8df853
:105c88000d308df80e0003f007f82f4c6368db68c1
:105c980098470028fad12c4b5b681c68032302aa9a
:105ca800194603a8a04702f0c5ff274c6368db68c4
:105cb80098470028fad1254b9df809201a709df8bd
:105cc8000a205a70224b9d7c1f4c4ff00108013d61
:105cd800edb2ff2d0dd063689b6841460df10700ba
:105ce800984702f0a7ff6368db6898470028fad155
:105cf800ede7154b5b685b6831463846984702f01c
:105d080099ff114c6368db6898470028fad1012e87
:105d180015d00f4bdd7c0c4c0126013dedb2ff2d5b
:105d28000dd063689b6831460df10700984702f073
:105d380081ff6368db6898470028fad1ede702f035
:105d4800a1ff04b0bde8f08124280020b429002078
:045d5800b42700204c
:020000040000fa
:105d5c0038b5059c602955d000293cd0258905f41f
:105d6c007f45258100284fd1e088c0f30b0040f41b
:105d7c004050e080402926d104990139032910d8dc
:105d8c000a23237000236370049bdbb2c3f104036a
:105d9c0042f0030242ea83022a4342f0400222818b
:105dac0044e004998b4228bf049b0a339bb22380a6
:105dbc00049ba381049bc3f30f43e38142f0410294
:105dcc002a43228132e00a2323700023637045f0ba
:105ddc00600222812ae0b8b9e388c3f30b0343f4d1
:105dec004053e3800a23237000236370238943f01c
:105dfc00200323811ae0e388c3f30b0343f44053dd
:105e0c00e38013e00028f6d00a232370002363708c
:105e1c00e388c3f30b0343f40053e380238943f07b
:105e2c0080032381054b53f82030e3600221204688
:105e3c0001f022f908b1024b1c6038bd207600003d
:045e4c002c290020dd
:020000040000fa
:105e500010b582b02a4a2024148000235380536056
:105e600044f21f00908127491161536193831362ab
:105e70001385538582f84030234a14805380536041
:105e8000908111615361938313621385538582f866
:105e900040301e4a137002f011fc20bb00231c4a44
:105ea00013701c4a13701c4a13801c4a13701c4a3e
:105eb00013601c4a13601c4a13601c4a1360019350
:105ec000042208210deb020000f0fcf9019b13f005
:105ed000080f0bd0164b00221a70164b4ff47a6243
:105ee0001a6002b010bd02f069fdd7e7104b012225
:105ef0001a7004224ff411610f4800f0e3f9ece747
:105f0000e0260020a08601009c260020112a002007
:105f10001b2a0020182a0020f22900201c2a002019
:105f20009829002094290020842900208c29002011
:0c5f3000f7290020dc280020e0280020d9
:020000040000fa
:105f3c002de9f04184b01e465469e9b10f469389ae
:105f4c00c3f30323072b17d0092b24d0002e5dd0cd
:105f5c00304b6c460fcb07c4237039460df109004a
:105f6c0002f0daf96b4607cb30607160b2601b78d7
:105f7c0033734ff00c080ae0204602f059ff1ffa69
:105f8c0080f826b142462146304602f032fe4046a9
:105f9c0004b0bde8f0811ffa81f8204602f048fffa
:105fac0001302518235c0233dbb2012bced9b8f1ba
:105fbc00010f16d0284602f03bff013005440224a5
:105fcc002b780233dbb2012bc0d9a04509d00134a8
