:020000040000fa
:10000000f0ff0320d1650000a3710000c37500005c
:100010000b7d00005b7e00005381000000000000ab
:100020000000000000000000000000007f670000ea
:100030004f790000000000007f6700007f6700002c
:100040007f6700007f6700007f6700007f67000018
:100050007f6700007f6700007f6700007f67000008
:100060007f6700007f6700007f6700007f670000f8
:1000700095810000b58100007f6700007f67000068
:100080007f6700007f6700007f670000d581000068
:100090007f6700007f6700007f6700007f670000c8
:1000a0007f6700007f6700007f6700007f670000b8
:1000b0007f6700007f6700007f6700007f670000a8
:1000c0007f6700007f6700007f6700007f67000098
:1000d0007f6700007f6700007f6700007f67000088
:1000e0007f6700007f670000000000000000000044
:1000f000000000007f6700007f6700007f6700004e
:100100007f6700007f6700007f6700007f67000057
:100110007f6700007f6700007f6700007f67000047
:100120007f6700007f6700007f6700007f67000037
:100130007f6700007f6700007f6700007f67000027
:100140007f6700007f6700007f6700007f67000017
:100150007f6700007f6700000000000000000000d3
:10016000000000000000000000000000000000008f
:10017000000000000000000000000000000000007f
:100180007f6700007f6700007f6700007f670000d7
:100190007f6700007f6700007f6700007f670000c7
:1001a0007f6700007f6700007f6700007f670000b7
:1001b0007f6700007f6700007f6700007f670000a7
:1001c0007f6700007f6700007f6700007f67000097
:1001d0007f6700007f6700007f6700007f67000087
:1001e0007f6700007f6700007f670000b57e00002a
:1001f0007f6700007f6700007f6700007f67000067
:100200007f67000000000000000000007f67000022
:100210007f6700007f6700007f6700007f67000046
:100220007f6700007f6700007f6700007f67000036
:100230007f6700007f6700007f6700007f67000026
:100240007f6700007f6700007f6700007f67000016
:100250007f6700007f6700007f6700007f67000006
:020000040000fa
:10026000f8b500bff8bc08bc9e467047b5760000e4
:10027000f8b500bff8bc08bc9e46704791760000f8
:020000040000fa
:10028000542800201c00000000000000182a002054
:1002900002000000000000003328002001000000e0
:1002a00000000000dc2800200c000000000000001e
:1002b000c425002080000000000000000c28002061
:1002c0002700000001000000000000010000010004
:1002d0000002000001000004000000000000000017
:1002e000000000000000000000030000010000000a
:1002f00004250020c0000000000000008628002027
:100300000200000000000000f428002008000000a7
:1003100000000000fc280020040000000000000095
:100320003e290020020000000000000040290020bb
:100330000400000000000000442900200400000028
:10034000000000000029002008000000000000005c
:10035000ec23002018010000010000000000000054
:10036000000000000116210001090000ac86000019
:100370000c7f000030290020000000000000000079
:10038000000000000000000000000000001a210032
:1003900001090000b8860000387f000020290020f5
:1003a000000000000000000000000000000000004d
:1003b00000000000121c060001080000d0860000aa
:1003c00030830000d429002000000000000000005d
:1003d000000000000000000000000000131c0600e8
:1003e00001080000dc8600004c830000d8290020b2
:1003f00000000000000000000000000000000000fd
:100400000000000000602a0001090000e8860000ea
:100410003c850000182900200000000000000000ba
:1004200000000000000000000000000010702a0022
:1004300001090000f48600005085000028290020f2
:1004400000000000000000000000000000000000ac
:1004500000000000ffff000000000000000000009e
:10046000000000000000000000000000000000008c
:10047000000000000c220020e0010000010000004c
:10048000000000000000000000100700000700004e
:1004900070870000948600005029002000000000b2
:1004a000000000000000000000000000000000004c
:1004b0000110050000070000788700000886000092
:1004c0003e290020000000000000000000000000a5
:1004d00000000000000000000810090000070000f4
:1004e00080870000a0860000702800200000000027
:1004f00000000000000000000000000000000000fc
:10050000091009000007000088870000ec84000043
:10051000482900200000000000000000000000004a
:1005200000000000000000000a10090000070000a1
:1005300090870000008500004c290020000000008a
:1005400000000000000000000000000000000000ab
:10055000181023000409000014820000c87900006c
:1005600088280020000000000000000000000000bb
:100570000000000000000000f1102a000209000045
:100580006485000010780000e828002000000000ca
:10059000000000000000000000000000000000005b
:1005a000f8101b0000070000988700001485000069
:1005b00000290020c57500000000000000000000b8
:1005c0000000000000000000001c050004080000fe
:1005d000c4860000288500003829002000000000a3
:1005e000000000000000000000000000000000000b
:1005f000321c290020090000dc5d0000dc4c0000fa
:100600006027002000000000000000000000000043
:100610000000000000000000331c29002009000039
:10062000dc5d0000dc4d00001c2700200000000005
:1006300000000000000000000000000000000000ba
:10064000ffff0000000000000000000000000000ac
:10065000000000000000000000000000000000009a
:1006600070280020160000000100000053414d4595
:10067000353320457468657243415420536c61766c
:10068000650000004829002004000000010000006f
:10069000312e30004c290020040000000100000031
:1006a000322e3000882800201400000001000000d5
:1006b00004000000d80400e0559200000100000092
:1006c00001000000382900200600000001000000a1
:1006d000040002010403000050290020040000006f
:1006e0000100000089130000162a0020020000000b
:1006f00000000000942600204400000000000000dc
:10070000d82600204400000000000000d928002066
:100710000100000000000000112a0020010000007c
:1007200000000000582a0020010000000000000026
:100730005429002004000000000000005829002077
:1007400004000000000000005c29002004000000fc
:1007500000000000602900200400000000000000ec
:100760006429002004000000000000006829002027
:1007700004000000000000006c29002004000000bc
:1007800000000000702900200400000000000000ac
:1007900074290020040000000000000078290020d7
:1007a00004000000000000007c290020040000007c
:1007b00000000000da280020020000000000000015
:1007c000122a002002000000000000008029002002
:1007d0000400000000000000842900200400000044
:1007e0000000000088290020040000000000000034
:1007f0008c29002004000000000000009029002047
:100800000400000000000000942900200400000003
:10081000000000001a2a0020020000000000000072
:100820001c2a00200200000000000000982900207f
:1008300004000000000000009c29002004000000cb
:1008400000000000a02900200400000000000000bb
:100850001e2a00200200000000000000202a0020c4
:100860000200000000000000592a002001000000e2
:1008700000000000222a002002000000000000000a
:10088000242a00200200000000000000262a002088
:100890000200000000000000a42900200400000065
:1008a00000000000282a00200200000000000000d4
:1008b0002a2a002002000000000000002c2a00204c
:1008c00002000000000000002e2a002002000000ac
:1008d00000000000082900200800000000000000bf
:1008e0005a2a002001000000000000005b2a0020be
:1008f00001000000000000005c2a00200100000050
:10090000000000005d2a002001000000000000003f
:100910005e2a002001000000000000005f2a002085
:100920000100000000000000602a0020010000001b
:1009300000000000612a002001000000000000000b
:10094000622a00200100000000000000632a00204d
:100950000100000000000000642a002001000000e7
:1009600000000000652a00200100000000000000d7
:10097000662a00200100000000000000672a002015
:100980000100000000000000302a002002000000ea
:1009900000000000322a00200200000000000000d9
:1009a000682a00200100000000000000342a002016
:1009b0000200000000000000362a002002000000b3
:1009c00000000000382a00200200000000000000a3
:1009d0003a2a00200200000000000000692a0020de
:1009e00001000000000000003c2a0020020000007e
:1009f000000000003e2a002002000000000000006d
:100a0000402a00200200000000000000422a0020ce
:100a10000200000000000000442a00200200000044
:100a200000000000462a0020020000000000000034
:100a3000a829002004000000000000006a2a00200d
:100a400001000000000000006b2a002001000000ef
:100a50000000000010290020080000000000000035
:100a60009c2800201000000000000000ac2800209e
:100a700010000000000000006c2a002001000000af
:100a8000000000006d2a00200100000000000000ae
:100a90006e2a002001000000000000006f2a0020e4
:100aa0000100000000000000702a0020010000008a
:100ab00000000000ac29002004000000000000003d
:100ac000b02900200400000000000000b42900202c
:100ad0000400000000000000b8290020040000000d
:100ae00000000000a42700203400000000000000e7
:100af000d82700203400000000000000482a002011
:100b000002000000000000004a2a0020020000004d
:100b1000000000004c2a002002000000000000003d
:100b20004e2a00200200000000000000712a002070
:100b30000100000000000000722a002001000000f7
:100b400000000000732a00200100000000000000e7
:100b5000742a00200100000000000000142a002078
:100b600002000000000000001c27002044000000dc
:100b7000000000006027002044000000000000008a
:100b8000cc2800200d0000000100000053756249d0
:100b90006e6465782030303000000000e8280020c6
:100ba0000c00000001000000020000000100000035
:100bb00004000000000000200020000000000000f1
:100bc000342800202000000000000000752a0020ca
:100bd0000100000000000000762a00200100000053
:100be00000000000bc2900200400000000000000fc
:100bf000c02900200400000000000000c4290020db
:100c00000400000000000000c829002004000000cb
:100c100000000000cc2900200400000000000000bb
:100c20001829002008000000010000000100000059
:100c30000000000020290020080000000100000042
:100c400001000000200100602829002008000000a9
:100c50000100000001000000000000003029002019
:100c600008000000010000000100000020011070d9
:100c7000d029002004000000010000000100000055
:100c8000d42900200400000001000000010001162a
:100c9000d829002004000000010000000100001a13
:100ca000bc2800201000000000000000772a00206f
:100cb0000100000000000000782a00200100000070
:100cc00000000000792a0020010000000000000060
:100cd0007a2a002001000000000000007b2a00208a
:100ce0000100000000000000502a00200200000067
:100cf00000000000522a0020020000000000000056
:100d0000dc2900200400000000000000e029002091
:100d10000400000000000000542a0020020000002f
:100d2000000000007c2a00200100000000000000fc
:100d30007d2a00200100000000000000e4290020be
:100d40000400000000000000e8290020040000006a
:100d500000000000ec29002004000000000000005a
:100d6000f02900200400000000000000f429002009
:100d70000400000000000000f8290020040000002a
:100d800000000000562a00200200000000000000c1
:100d9000fc29002004000000000000007e2a002042
:100da00001000000000000007f2a00200100000078
:100db00000000000102a00200100000000000000d8
:100dc000802a00200100000000000000002a00200e
:100dd0000400000000000000442600205000000035
:100de00000000000002000200c02000000000000b5
:100df000042a00200400000000000000082a00204f
:100e000004000000000000000c2a00200400000084
:100e1000000000000000000000000000222222224a
:020000040000fa
:100e2000800e00cc8813ff00000040c00000de00f0
:100e3000d80400e05592000001000000000000000e
:100e40000000000000000000001080008010800002
:100e500000108000801080000c00000000000000e6
:100e60000000000000000000000000000000000082
:100e70000000000000000000000000000000000072
:100e80000000000000000000000000000000000062
:100e90000000000000000000000000000f00010042
:100ea0000a004000080a5353435f4465766963654e
:100eb0001553414d4535332045746865724341549f
:100ec00020536c6176650853796e6368726f6e0ba0
:100ed000534d2d53796e6368726f6e1b496e70753a
:100ee00074732070726f6365737320646174612022
:100ef0006d617070696e6707436f756e7465721c03
:100f00004f7574707574732070726f63657373209e
:100f100064617461206d617070696e6707547269f5
:100f2000676765721e0010000100020200230100c5
:100f3000000000040000010011000000000000009b
:100f4000000000000000000028000200010203ff72
:100f50002900100000108000260001018010800090
:100f600022000102001104006400010300140400c7
:100f70002000010432000800001a010300050000ef
:100f8000006001060720000033000800011601027e
:100f90000007000010700108072000003c000c0052
:100fa0000000000000000000000000000000000041
:100fb0000000030400000000ffffffffffffffff32
:100fc000ffffffffffffffffffffffffffffffff31
:100fd000ffffffffffffffffffffffffffffffff21
:100fe000ffffffffffffffffffffffffffffffff11
:100ff000ffffffffffffffffffffffffffffffff01
:020000040000fa
:101620002de9f04f89b0b0f80890944b1e78002e49
:1016300040f0ae835ffa89f808f0e0040546202cfc
:1016400019d009d9402c16d0602c00f0b3810027a6
:10165000bb464ff0030a06e0002c00f0ab810027e8
:10166000bb464ff0030abaf1ff0f40f0ab813046a2
:1016700009b0bde8f08fb5f800a06f893b0203eb1d
:1016800019239bb20393184606f004fe0490002829
:1016900000f086833a0a0592037b9a4204d9002718
:1016a000bb464ff0110a8de108f010030693024685
:1016b0000599039804f0fafe8346402c48d0202c6c
:1016c00000f09d80074600230793069b002b40f007
:1016d000c380bbf1000f08d1694b039a1a80694b94
:1016e000059a1a70684b049a1a60402c00f03181f8
:1016f000069b0193079b0093049b3a460599039828
:1017000001f0c0f98246ff2840f05c8101235f4a66
:1017100013705f4a069911705e4a059911705e4a0e
:10172000039911805d4a17605d4a07991160049a18
:10173000116a5c4a1160514a13705b4b1d602b8922
:1017400023f0ff0309f0f00943ea09032b818ee738
:10175000baf10a0f40f01e83431e032b44d805f153
:101760000c0307930023ab81eb8133460746069aaf
:10177000002a72d1002bacd001234c4a13704c4a82
:1017800013704c4b069a1a703d4b039a1a803d4bce
:10179000059a1a703c4b049a1a60402c0cbf5a46aa
:1017a0003a46454b1a60454b186808b103f012fde4
:1017b000414b1868013020f0010002f017fc3f4b4c
:1017c0001860002852d0402c00f08280aaf10a074d
:1017d0003a4605f1100106f02efe394b00221a7030
:1017e000b246384b1f603ee7374b1f88103fb84268
:1017f00000f2e38205f1100307933346b7e718f0d0
:10180000020f0bd0baf10a0f40f0c682c8f381076d
:10181000c7f1040705f10c03079356e7eb89af897d
:1018200007eb0347294b1b8807f110029a420dd999
:10183000063b9a4540f0b28205f110030793aaf1e6
:101840000a03bb422cbf0023012390e707f10a03e0
:101850009a45f1d008260ae73346059a012a02d9ab
:101860004ff0050aaee00122069283e7069b002bab
:1018700014bf4ff0050a4ff0040aa3e0772a0020b6
:10188000542a00207d2a0020f42900207e2a0020ee
:101890007b2a00207f2a0020562a0020fc290020d5
:1018a000f8290020e8290020ec290020792a0020ce
:1018b0007a2a0020782a0020e0290020f029002040
:1018c0007c2a0020dc2900204e2a00204c2a0020ff
:1018d000069b01930090049b5a460599039801f0da
:1018e00065fb824650b3ff287ff47bafa44b0422f4
:1018f0001a70a44b069a1a70a34b059a1a70a34b40
:10190000039a1a80a24bc3f800b0a24b1a68a24bec
:101910001a60049bda69a14b1a60a14b01221a706c
:10192000a04b1d602b8923f0ff0309f0f00943ea67
:1019300009032b819c4b60221a7098e63a46954b1e
:10194000196805f1100006f076fd974b60221a70b9
:1019500047e7069b0193079b0093049b5a46059912
:10196000039801f023fb8246ff282bd1844b0322ee
:101970001a70844b069a1a70834b059a1a70834b1f
:10198000039a1a80824bc3f800b0834b079a1a60ff
:10199000049bda69814b1a60814b01221a70814bda
:1019a0001d602b8923f0ff0309f0f00943ea0903c6
:1019b0002b815ce67c4b1b78a3420ed00027bb46f4
:1019c0004ff0030a0195cdf800b0bbb208f0100249
:1019d0002146504603f07afc49e6002c40f0428153
:1019e000724b1a7809f010039a4200f02381704b71
:1019f0001b8808f010026d490a70664a11680029b8
:101a000000f02d81093b9bb26a4a10686a4a12684d
:101a1000121a19f0010f18d09a4200f2cb812b88cc
:101a2000033b9a4200f2c6816fea690707f0070795
:101a3000ba4205d0072a40f2bd819a4240f0ba81ed
:101a40005e4b00271f70174608e05c4f4ff0010cfb
:101a500087f800c01f469a4240f2ac8110f0010f97
:101a60006ed1430868894fea192242ea002221f820
:101a7000132007f1010c4fea5c0cbcf1010f1bd9dc
:101a800001200346dff80c91dff828e105eb430b5a
:101a9000def8002000eb5201d9f80000bbf808a0e6
:101aa000bbf80a20120242ea1a2220f81120013360
:101ab0009bb218466345e9d3404b93f80090b9f1c7
:101ac000000f1fd13e4b1b780193324b1b680093d4
:101ad0003c4b1b68384a12683b4909783b480088f0
:101ae00000f0d0ff8246ff2872d0dff8a890d9f826
:101af000000003f06ffb0023c9f80030baf1000fbb
:101b000040f09a800a232b7000236b70eb88c3f39c
:101b10000b0343f44053eb80244b1b78002b14bf82
:101b2000302320232b81254b1b78012b7ad00023d7
:101b3000204a13601c4a1370a2461f469b4641e789
:101b4000430811f8132021f813201249194802689c
:101b50005208d1f800c02b8923f0ff033cf812e0b3
:101b600043ea0e032cf81230036823f0010302331a
:101b700008687a1e05f10a01184406f05cfc9be730
:101b80007e2a00207b2a00207f2a0020562a00205f
:101b9000fc290020f0290020f8290020e829002055
:101ba000772a0020ec2900207c2a00207a2a0020b5
:101bb0004c2a0020dc290020e0290020792a00207e
:101bc000782a0020f42900207d2a0020542a0020b1
:101bd0007c4b02221a707c4b1a787c4b1a707c4b1f
:101be0001a787c4b1a707c4b1a887c4b1a807c4b81
:101bf0001a687c4b1a607c4b1a687c4b1a607c4bd1
:101c00001b681a6a7b4b1a607b4b01221a707b4b54
:101c10001d6000237a4a13707a4a13707a4a13605f
:101c20004e4624e5784a13683b441360a2460027d9
:101c3000bb46c7e64ff0010a0023714a1370714a90
:101c40001370694b186820b103f0c4fa664b002288
:101c50001a6000236c4a13601f469b4603e54ff051
:101c6000030ae9e72f7a07f01007684b1b78bb429d
:101c700000f09b80664b1b88093b9bb2634a177040
:101c80009a46614a1168564a12680b44934286bfcd
:101c9000a2eb010ab3464ff0010b594b83f800b099
:101ca0005ffa89f9a5f8089011f0010245d14908b9
:101cb0004d4b186830f8113049ea0329a5f808900f
:101cc0005fea5a0e13d000230a4400eb420cbcf822
:101cd000029030f81220120a05eb430c42ea092266
:101ce000acf80a2001339bb21a469e45ecd8eb882b
:101cf000c3f30b0343f44053eb802b8903f47f437e
:101d0000bbf1000f2ed01f432f81baf1060f2dd843
:101d10000a232b7000236b70caf1070347ea4307bd
:101d20002f81374b1b78012b24d1374a136853443a
:101d30001360b2460027bb4644e62b4b1a6849089d
:101d400032f8113023f0ff0343ea0909a5f808909f
:101d500002eb41010af1ff32023105f10a0006f0ff
:101d60006afbc4e747f001071f43cde70af103030d
:101d70002b80d6e71c4f386803f02cfa00233b6019
:101d8000214a13601f4a1370b2461f469b4619e64c
:101d900009266ce408266ae4082668e4082666e456
:101da0000027bb464ff0080a0ce60027bb464ff061
:101db000010a07e64ff00e0a3ee7012300220792d0
:101dc000d5e400bf7e2a0020782a00207b2a00204c
:101dd0007d2a00207f2a0020542a0020562a002035
:101de000e0290020fc290020f0290020f82900200b
:101df000f4290020e8290020772a0020ec2900207f
:101e0000792a00207c2a0020dc2900207a2a002060
:041e10004e2a002036
:020000040000fa
:101e1400f0b585b00023029301938c4a94898c4acf
:101e240095898c4a13808c4a1370022006f0b6fa06
:101e340002688a4b1a80436803f00203002b0cbf2c
:101e440003260126032006f0a9fa0368844a1380b6
:101e5400426802f00202002a0cbf032201229bb254
:101e64008049b1f800c00cfb02327f4909888a42dc
:101e740004dd7e4800880844834277db7c48008880
:101e8400824204dd7b4a1288024493426edb734a29
:101e94001788794a128806fb0272914204da734e5b
:101ea400368831448f4267db904204da71490988ed
:101eb4000844874260db934202da63449f425bdb5f
:101ec40004224ff4186103a803f0b2fcbdf80c30ef
:101ed400039304224ff41a6102a803f0a9fc04221c
:101ee40040f6a4110deb020003f0a2fc019e574b37
:101ef4005b88574a5188039a12f4106f00f0f681f8
:101f040012f4007f00f09d812c400ad014f0040fdd
:101f140000f0998114f0080f03d112f4806f40f09f
:101f24009481029840b1494d2d69a842c0f08f8137
:101f3400524da84200f28d8102f4c065b5f5c06f20
:101f440021d000204e4c2478002c40f031824a4ba2
:101f54001b88002b00f06b82002840f0b781414bb6
:101f64001988002900f03382022363e2022103204e
:101f740003f0b2f81e2004e00221084603f0acf896
:101f84001d2005b0f0bd002e00f0ac818642c0f0eb
:101f9400ab8114f0100f00f05e810120d2e7022b18
:101fa40000f06381022900f06281032b40f0ac81d0
:101fb40034e2314b1b8833b12a4b1988002940f095
:101fc40082810123a0e1274a1188003118bf012131
:101fd4009ae1032122e241ea030292b2002a40f08c
:101fe4000482284b1b78002b40f0dc811346911ea1
:101ff40089b2012950d915494b80154b5a800023c9
:10200400214a1380214a1380214a138001285fd179
:10201400029bf1189e42c0f0c080b1fbf3f082b283
:1020240003fb1013002b40f04181511c174b198006
:10203400184b1a804fe0074a4ff4806414809a1eac
:1020440092b2012a40f23a810a46d0e76027002082
:102054001c270020402a0020602a0020382a002063
:10206400362a00203c2a00204a2a00204e2a00203a
:10207400482a00204c2a00203e2a0020000050c399
:10208400742a0020642a0020242a0020462a0020e2
:10209400442a0020262a0020a04901240c70a049cb
:1020a400098811b99f4900240c809f494b809f499e
:1020b4004a8000219e4c21809e4c21809e4c218090
:1020c4009e4c21800128a3d0022b76d0032a02d073
:1020d400974b01221a800023994a1380009304220b
:1020e4004ff48461684603f0a3fb009c8c4b1b886f
:1020f40013b1a3b2002b64d1924b00221a80924bed
:102104001b78002b40f0b780904b1b783bb1844b7d
:102114001b8823b1834a138843f48063138000230c
:102124008b4a13808b4a13808b4a13808b4a13800b
:102134008b4a13708b4a13708b4a13807b4a138526
:10214400538582f84030784a1385538582f84030ad
:10215400039b13f4007f14d00299002900f08d80b2
:10216400824a914255d87a4a0120108013f4806f34
:1021740007d0019b994240f28480754b1a88774bb3
:102184001a80674b1b88002b53d1794b1b88002b7b
:1021940053d104f029fe0020f3e6674a01201080a1
:1021a400b1fbf3f082b2624c228003fb1013002bcc
:1021b40091d001325e4b1a808de75f4b012119806b
:1021c40084e70023009304224ff48061684603f0ff
:1021d4002ffb009b9ab2002a00f0d8800232a3b2ef
:1021e40046f2a71402fb0343db08624aa2fb032363
:1021f400c3f30f23534a13805f4a00211180002b3d
:102204003ff47daf504b1b78002b7ff47daf1f2034
:10221400b7e64a095948a0fb0202d209520092b219
:102224005748a0fb0202d208494802809ee70123d6
:1022340035e0022005f04efda7e7032005f04afd36
:10224400a7e730209de630209be6302099e6362033
:1022540097e6362095e6302093e6302091e630204c
:102264008fe630208de630208be6302089e6302062
:1022740087e6292085e61f2083e613f4806f80d04b
:10228400019b0b44394a9342d1d95b093b4aa2fbd7
:102294000323db095b003a4aa2fb0323db082c4a35
:1022a400128803eb52032d4a13806ae7224b1a80eb
:1022b4007fe71a4a012414700a46f3e6174a0124f8
:1022c40014700a46f1e6222101231de0284b1988e7
:1022d400002900f0a38012f4806f7ff47aae02210b
:1022e400032399e000202de600202be6254a1078f0
:1022f40000283ff45eae9a1e92b2012aadd98a1e1e
:1023040092b2012aabd900201f4a1278002a7ff426
:1023140062ae002b66d1292033e600bf5f2a00207d
:102324003e2a0020402a0020602700201c2700208d
:10233400262a0020242a0020462a0020442a00209d
:10234400142a0020202a0020672a0020642a002062
:102354002a2a0020282a00202c2a00202e2a0020a5
:102364005e2a0020662a0020322a00201fa10700ce
:102374003c2a002089b5f8141e2a0020c55a7c0a7c
:10238400cdcccccc742a00205b2a002000232d4a1b
:1023940013802d4a1380b2e62c4b4ff480611980d0
:1023a400134624e62a4b19880029f5d10b4624e06c
:1023b40012f4806f30d1032b3ff453af03293ff461
:1023c40052af12f4007f3ff4eaad022b9cd1029b82
:1023d400204a53625360204a5362536002231f4ac7
:1023e400127812b900293ff444af1d4a0124147035
:1023f400174a1288002a7ff41eae1a4a12881ab1ac
:10240400124a4ff4006414809a1e92b2012a7ff695
:1024140050af0a46ebe50221032bd6d1029b0d4aad
:10242400536253600c4a536253600323d7e70d4948
:10243400098821b112f4806fedd00321c5e70b4662
:1024440062e700bf202a00201e2a0020402a002024
:102454003e2a0020602700201c2700205b2a002041
:08246400642a00203c2a00203c
:020000040000fa
:10246c002de9f0419b4b4ff6ff721a809a4b0122db
:10247c001a7010f0100723d0984a137823f0100329
:10248c00137001270e4600f00f05944b1c7805ebda
:10249c00041404f0ff04442c00f0ba8000f2ad8068
:1024ac00222c00f0a4801ad9242c40f09d808c4959
:1024bc008c4802f001fb8046002840f0b380a7e076
:1024cc00864b1b7813f0100f04d000f00f02012a7a
:1024dc0040f0ad8203f00f03804a1370d2e7122c48
:1024ec0000f08580804b00221a80a4f11103772b19
:1024fc0000f25e82dfe813f0c5011601b700280276
:10250c005c025c025c0228025c025c025c025c0203
:10251c005c025c025c025c02af01c80128023a0159
:10252c005c025c025c0228025c025c025c025c02e3
:10253c005c025c025c025c02000128025c02280264
:10254c005c025c025c0228025c025c025c025c02c3
:10255c005c025c025c025c02a3018e012802c801d1
:10256c005c025c025c025c015c025c025c025c0270
:10257c005c025c025c025c025c025c025c025c025f
:10258c005c025c025c025c025c025c025c025c024f
:10259c005c025c025c025c025c025c025c025c023f
:1025ac005c025c025c025c025c025c025c025c022f
:1025bc005c025c025c025c025c025c025c025c021f
:1025cc005c025c025c025c025c025c025c025c020f
:1025dc005c025c025c025c029801830128027901b6
:1025ec005c025c025c02c801422c7ff47baf0220cf
:1025fc0001f000fc1ffa80f810e0822cf7d004d90f
:10260c00842c05d0882c03d06ce7482c7ff46aaf5f
:10261c00364b187801f0eefb1ffa80f8b8f1000f7a
:10262c003ff460af2d4b1b78042b00f05181082b2d
:10263c0000f04a81022b00f04f81b8f1ff0f00f03f
:10264c006081264b187800f00f039d4200f09e81ac
:10265c00b8f1000f40f0d681002e40f09d811f4b49
:10266c001d70b046dbe1224b01221a70022001f0f2
:10267c00c1fb28b11e4b00221a704ff01508bbe1ac
:10268c00002005f031fa03f0c3fc804678b1b8f1b4
:10269c00ff0f00f0db81104b1b78bbb102f06ef822
:1026ac00032005f0d8ff124b00221a70c9e70a4b21
:1026bc0000221a7006f078f880460028e7d10d4bfe
:1026cc0001221a70032005f0c6ffbae706f030f8b5
:1026dc00e4e700bf222a00205c2a0020682a0020a0
:1026ec003e2a00203c2a0020342a0020692a00209f
:1026fc005d2a00206d2a0020af4b1b783bb94ff0b0
:10270c00000806f02af8ad4b00221a70ace000204d
:10271c00a94b187005f0e8f902f030f806f008f84b
:10272c008046eee705f01cfba54b1b78002b00f058
:10273c003a8103f06dfc804648b1b8f1ff0f00f010
:10274c007881a04b1b7873b102f018f879e79d4b98
:10275c0000221a7006f028f880460028edd19a4b1a
:10276c0001221a706de705f0e3ffede7fff74cfb74
:10277c00804648b1b8f1ff0f00f06281914b1b7895
:10278c009bb102f0e3ff5ce78e4b00221a708f487e
:10279c0006f00cf880460028ecd18c4b188805f01c
:1027ac00bff98b4b01221a704be706f001f8e8e7f2
:1027bc0004f090fe804648b1b8f1ff0f00f0408164
:1027cc00804b1b7873b105f0dbfe3ae77d4b0022a2
:1027dc001a7005f0efff80460028edd17d4b0122e9
:1027ec001a702ee705f0e8ffede705f0e5ff05f0c0
:1027fc00c7fe4ff00008734b83f8008021e705f00b
:10280c00dbff804605f0bcfe6e4b00221a70b8f15f
:10281c00000f29d105f0ccff02f098ff4ff0000813
:10282c00684b83f800800ce705f0c6ff804605f086
:10283c00a7fe644b00221a70b8f1000f14d105f0fa
:10284c00b7ff804602f082ff5e4b00221a70b8f18f
:10285c00000f40f0ab8001f091ff05f069ff80465e
:10286c00564b00221a702124b8f1ff0f7ff4e9ae09
:10287c00594b01221a70594b1c80594bc8221a8093
:10288c004fe04e4b00221a7077b9564b1b7813f061
:10289c000c0f00f0af80544b1b884bb9534b1b886b
:1028ac0063b94ff0fe08a7e0204605f087ffece780
:1028bc00022005f00bfa4ff0fe089de0032005f016
:1028cc0005fa4ff0fe0897e005f076ff05f058fe8c
:1028dc0005f06eff02f03affb8f1160f03d0414b32
:1028ec0002221a70a9e601f049ff05f021ff002031
:1028fc0005f09ef9012005f09bf93a4b01221a7064
:10290c009fe6354b01221a70344b1c80242c16d0b8
:10291c0013d8123ce4b29442afd8314b4ff4fa6264
:10292c001a802f48b0f90030314981fb0321da17a6
:10293c00c2eba1029b1a038079e0482c9dd1284b55
:10294c0042f228321a80ece74ff0110879e6214b5d
:10295c001b7853b9244b1b8863b9244b1b886bb968
:10296c00b8f1000f52d1deb979e605f025ff05f07c
:10297c0007feefe7022005f05bf9f1e7032005f015
:10298c0057f9ede7174b04221a7043e00021124b64
:10299c00197001f07fff4ae0284310f0080fd6d1e0
:1029ac0045f010055be64ff051084ae641245be721
:1029bc004ff0120820e000bf5d2a0020742a00208e
:1029cc00592a00205c2a00206d2a0020402a002071
:1029dc00612a0020622a0020632a0020342a002069
:1029ec00222a0020682a00203e2a00203c2a0020af
:1029fc00676666664ff0fe081b4b187800f00f03f5
:102a0c00ab42c3d0284310f0080fa0d1164b1b7853
:102a1c00082bb7d0144a137843f010031370134be0
:102a2c0000221a704146104b187801f033ffbde8b4
:102a3c00f0810e4b01221a700d4b12221a806ce79a
:102a4c000a4b01221a700a4b1c8078e7032005f010
:102a5c0002fe084b00221a70044b01221a70044b20
:102a6c0013221a8059e700bf682a0020632a00202d
:082a7c00342a00205d2a00202d
:020000040000fa
:102a84002de9f04f8bb004900c4616461d46ddf838
:102a940050809df854b01ffa81fa9b89c3f3032236
:102aa4000692d9b20591072a00f04182ab6993f8e6
:102ab4000090b9f1000f40f05982a0f5e053103bab
:102ac4009bb21f2b40f25082a0f5b0539bb2b3f5da
:102ad400007fc0f05682a0f5d0539bb2b3f5007fbf
:102ae400c0f052824ff23003984208bf89463de25b
:102af40074b3d146049aa2f5e053103b9bb21f2b4a
:102b040012d9a2f5b0539bb2b3f5007f0cd3a2f552
:102b1400d0539bb2b3f5007f06d34ff230039a42f1
:102b240002d00023089305e0ab691b78003318bf7b
:102b3400012308932f6a77b1cdf800b0434632469b
:102b440021460498b847039003980bb0bde8f08f72
:102b5400d1460894eee7002e00f0aa81ca4500f29f
:102b6400aa8154460723039300230793049ba3f5e8
:102b7400e053103b9bb2099337e1102a44d0202a3a
:102b840040f060811ee0022b18d81bb2002b40f0ed
:102b9400b280bbf1000f00f097817b8813f00f0f18
:102ba40005d0184410f00f0f08bf08f10208c3f352
:102bb400031308eb43080123079311e1032b23d0ec
:102bc400042b1cd110f00f0f40f08a81089b5bb1dd
:102bd4003288b8f800309a4240f085817288b8f89b
:102be40002309a4240f08281b8f800303380b8f85d
:102bf4000230738008f1040801230793f0e01823de
:102c04000393a1e7072bddd210f00f0f40f0628190
:102c1400b8f80070089b1bb13388bb4240f05d815b
:102c2400099b1f2b00f29380a7f5b0539bb2b3f519
:102c3400007fc0f09780a7f5d0539bb2b3f5007f17
:102c4400c0f09080002f00f08d80122303937be767
:102c54000b2b00f2368110f00f0f40f050817a8870
:102c64000732d2104146304605f0e3fb7b881b094e
:102c740008eb430801230793b2e02d2b3bd026d861
:102c84001e2b38d01bd8152b01d01b2b14d110f0c0
:102c94000f0f40f02e81b8f800303380b8f80230be
:102ca4007380b8f80430b380b8f80630f38008f1c4
:102cb40008080123079393e01823039344e71f2b89
:102cc400a2d0202b3ff47eaf182303933ce7372b8d
:102cd40009d8302b0fd22e2b96d02f2b3ff472af66
:102ce4001823039330e7a3f518739bb2032bb2d9cf
:102cf4001823039328e77a88a54b33f8122000f0b1
:102d04000f0c02fa0cf1338823ea01031bb2bbf166
:102d1400000f10d09bb2b8f8002011400b43338051
:102d24007b88184410f00f0f40f0b28008f10208bd
:102d34000123079354e0b8f8001031ea020e40f082
:102d4400c6800a4002fa0cf213439bb2e7e7049be5
:102d5400a3f5e153123b9bb2012b03d8012c07d0fe
:102d6400082c14d0378008f102080123079337e0b8
:102d74003388bb4207d03946049801f0b7fa039070
:102d840000287ff4e1ae834b01221a70eae7824afd
:102d940000235361814911615360814a5361116178
:102da400536017f0020fddd07b4a5385138582f8f8
:102db40040307b4a5385138582f84030d2e7002c9b
:102dc40061d07b8813f00f0f05d0184410f00f0f5b
:102dd40008bf08f102081b0908eb430818230393f2
:102de400631c9bb24c4556d01c46e6b2314628467d
:102df40005f09cf907462946304602f023ffba88bd
:102e0400684b1b7803ea920313f00e0fd7d0ae6918
:102e1400002c7ad0c0f30f1306eb4306a24506d06c
:102e2400bbf1000fdcd0a245dad8002c70d03b886f
:102e3400b3f5e06f06d37a88082a3ff69eae02f116
:102e44002f039bb2112b3ff422af3ff616af052b95
:102e54003ff451af7ff697ae082b7ff6d3ae092b24
:102e64007ff4f6ae10f00f0f46d17a880732d210f5
:102e74004146304605f0ddfa7b881b0908eb430820
:102e840001230793ace708f1020818230393a7e78b
:102e940001230793a4e7079b002b039b18bf002380
:102ea400039351e6112303934ee61a2303934be64f
:102eb4000023039348e60723039345e61323039370
:102ec40042e6182303933fe6182303933ce61223b8
:102ed400039339e60523039336e61c23039333e671
:102ee4000523039330e61c2303932de61c2303934d
:102ef4002ae60523039327e60523039324e6052303
:102f0400039321e6052303931ee6baf1000f87d14c
:102f1400069b072b8bd0b8f80030dab205999142a2
:102f2400ccd3338008f102080123079358e7bbf19f
:102f3400000fe7d14ff00009ca45b3d8214628460f
:102f440005f0f4f88288174b1b7803ea920313f018
:102f54000e0f7ff4cdad12f0380fa6d1002a0cbfae
:102f6400052307230393efe5ddf81490bbf1000f6d
:102f7400e2d0002c7ff4bead0eb198f80090089416
:102f8400d8e5ddf81490f1e7ddf81490eee700bf22
:102f9400b4820000742a002060270020a08601006b
:082fa4001c270020682a002010
:020000040000fa
:102fac002de9f04f89b08046049114460293129d8e
:102fbc009df84ca01ffa81f919469b89c3f3032293
:102fcc000792dbb20693072a00f06d81b0f5805fa3
:102fdc00c0f063818b6993f800b0baf1000f10d088
:102fec00cdf818b0029bde6986b1cdf800a02b4657
:102ffc00224604994046b0470390039809b0bde8b7
:10300c00f08fcdf818b051e1cb46ebe7b8f5805f07
:10301c0004d2049b83b903934c4605e0cb4508d3fb
:10302c004c460023039304930027cdf814a0c2460a
:10303c00cee100230393e0e7049e3146029c204638
:10304c0005f070f842880732d21006f18041013940
:10305c00a36953f8211011f0010f22d094b221f082
:10306c0001026608012c0dd9002113881b0a2b8044
:10307c0032f8020f43ea002325f8023b01318bb2f0
:10308c00b342f2d314f0010f00f0ec802b8803f460
:10309c007f432b80128843ea12232b800023039357
:1030ac00abe70b882b804b886b80043a0431281dce
:1030bc0005f0bbf9002303939fe7079b072b00f058
:1030cc002781069b25f8023b7de1bcf1100f34d023
:1030dc00bcf1200f40f02f811de0022b17d81bb242
:1030ec00002b40f08580059b002b00f0c18073887d
:1030fc0013f00f0f04d0984418f00f0f08bf0235cf
:10310c00c3f3031305eb4305012304935be1032b8a
:10311c0013d0042b0cd118f00f0f40f0af8032f805
:10312c0010302b804b886b800435012304934ae1cb
:10313c001823039361e7072bedd218f00f0f40f023
:10314c009a8032f8103025f8023b012304933ae1bf
:10315c000b2b00f28a8018f00f0f40f095807288cc
:10316c000732d210284605f060f973881a0905eb6e
:10317c00420513f00f0f62d02b782b8001230493a0
:10318c0021e12d2b34d020d81e2b31d016d8152b65
:10319c0001d01b2b0fd118f00f0f72d132f8103059
:1031ac002b804b886b808b88ab80cb88eb80083571
:1031bc000123049307e1182303931ee71f2bbcd0b4
:1031cc00202ba8d01823039317e7372b08d8302bc4
:1031dc000ed22e2bb1d02f2b9dd0182303930ce79e
:1031ec00a3f518739bb2032bb5d91823039304e7eb
:1031fc0008f00f0c7388854931f8133003fa0cf37f
:10320c009bb232f81000bcf1000f00d12f802a883d
:10321c00059959b1034013432b807388984418f0d7
:10322c000f0f09d1023501230493cce0034043fa7c
:10323c000cf313439bb2efe701230493c3e0012388
:10324c000493c0e001230493bde0049b002b039b7b
:10325c0018bf00230393d0e611230393cde6052377
:10326c000393cae600230393c7e618230393c4e62b
:10327c0018230393c1e605230393bee605230393aa
:10328c00bbe605230393b8e605230393b5e60523b4
:10329c000393b2e605230393afe6baf1000f05d012
:1032ac0005230393a9e6baf1000ff3d1069b4b4516
:1032bc00d2d30499029804f035ff8388002bced02a
:1032cc00534a127802ea430212f00e0f7ff49caebe
:1032dc0003f00703002b0cbf06231a2303938ce681
:1032ec00e1b2029804f01eff06468288484b1b7818
:1032fc0003ea420313f00e0f43d0b846a14504d0a5
:10330c00059b002b5fd0a1455dd8002c3ff4d5aeba
:10331c00029b9a69c8f30f1002eb40013388b3f596
:10332c00e06f08d3b6f802c0bcf1080f3ff6cdae83
:10333c000cf12f039bb2112b3ff42daf3ff621afb5
:10334c00052b3ff455af7ff6c8ae082b7ff6f3aed6
:10335c00092b7ff4fdae18f00f0f98d1728807324d
:10336c00d210284605f061f873881a0905eb42055e
:10337c0013f00f0f3ff466af2b782b8001230493cf
:10338c0021e0b8462f80738813f00f0f05d09844b6
:10339c0018f00f0f04bf6f800235738813f0f00f15
:1033ac0009d03b4625f8027f0133dbb27288c2f3a9
:1033bc0003129342f6dbb38803f00703002b0cbf18
:1033cc0006231a2303930134a4b2a345fff43dafa3
:1033dc00002c85d0baf5805f82d3e6b202993046d4
:1033ec0002f02cfc80463146029804f09bfe064607
:1033fc008288074b1b7803ea420313f00e0f7ff40d
:10340c007daf18f00f0fbed1bce700bfb482000037
:04341c00682a0020fa
:020000040000fa
:1034200038b50388052b40f25b81991f89b20446a9
:10343000c388013b052b00f2e880dfe803f0032d91
:103440004662acbba94b1b8813b148f2040363e08e
:103450000c306289238943ea0243024604f040fead
:103460000346a34a0021116047f69572904205d8a1
:10347000a04a01211160a04a1060b0e047f6fa723c
:10348000904200f2f18000229a490a609a490a604b
:10349000964a01211180bee0944b1b8813b148f27b
:1034a000040339e04289038943ea02420c3004f004
:1034b000abff034628b98f4b00221a6047f6fd7315
:1034c000d9e08c4a0021116085e0884b1b8823f0ed
:1034d00004039bb2022b02d048f204031ce0428991
:1034e000038943ea0243834a12689a4202d048f2af
:1034f000050311e00c3004f0a3fa03460028ddd0e8
:1035000069e07a4b1a88012a30d047f6fe7148f2fa
:103510000403042a08bf0b4613f4004f00f0c380d5
:1035200000220521a171e2712381a272e2720623b9
:103530002370627004f10c01a38913f0ff0f00f0f7
:10354000d18013f47f4f00f0cf8002235a0831f866
:10355000122012f0ff0f00f0b28012f47f4f00f043
:10356000aa800233dbb2202bf0d1aae0624d00f139
:103570000c01286804f07efe03462a685c490a6054
:1035800047f69571884242d802442a6059490a6830
:1035900001320a6023e0554b1b8813b948f204033b
:1035a000bae74089238943ea004005f035f847f639
:1035b000ff73b1e74d4b1b88012b04d0042b02d0c5
:1035c00048f20403a8e704f10c02494b196820896a
:1035d00005f096f8034647f69572934217d8454a88
:1035e00012680321a1710021e1712281c2f30f420f
:1035f00062819a1d2280414a12880c3a93423b4bc9
:103600000cbf012204221a8011e048f2040347f69d
:10361000fa72934228d800220621a171e271a3f523
:10362000ff43163b2381a272e27221706270344b19
:103630001d78002d49d0a388c3f30b03a380314a22
:10364000127812f0070f02d12e4a012111702d4974
:103650000a7843ea0233a38001320a70204602f05e
:1036600025fa0023184638bda3f5ff427c3a92b2f2
:10367000012a3ff651af1f490a68501c086000211b
:103680000420a071e1712281c2f30f4262810622ff
:103690002270617047f6fd729342144b0cbf0222f8
:1036a00000221a80c3e70025104b1d80204601f040
:1036b00091fd2b46d6e70133dbb21f2b01d8073330
:1036c00023800a4b00221a80b1e74021204602f0f5
:1036d000c7ff03460028c5d00b4b1c602b46c1e733
:1036e0000623bfe70023eae70123e8e71a2a0020c0
:1036f0009c290020a0290020982900204e2a002083
:0c3700005d2a0020722a0020942900207d
:020000040000fa
:10370c00f0b585b0044600238df80f30058905f01f
:10371c007f05052d0fd00388072b40f23c81032d2c
:10372c000dd0052d0bd0012d40f010818389052b78
:10373c0010d9022122e10388092b40f22a81a389a6
:10374c0098b2adf80c30b0f5805f77d205238df8c8
:10375c000f30fee0924d00686168a26807c5a2892f
:10376c002a8013f0ff030ed100258e4b1d8004f12f
:10377c000c06e8b203f0e4fc26f8020f0135052d27
:10378c00f7d1122022e0013bddb2864b19880029cb
:10379c0035d0854b1a880c3a92b204f10c0383484d
:1037ac000088adf80c0001397e4801800df10f0145
:1037bc00009103a9284602f02dfd7c4bbdf80c208e
:1037cc001a80794b1b88063b181a80b220809df812
:1037dc000f30002b40f0bd80238923f07f0242f094
:1037ec00020222816f4a12886281002a00f0d58081
:1037fc0023f0ff0343f0820323818221bee028469d
:10380c0003f09efc4ff48053adf80c30664b1988d6
:10381c00a1f10e0292b204f10e034000904209ddb8
:10382c000c398eb2811a701e014491fbf6f15d4881
:10383c000180bbe75b4900200880b7e704f024fd5a
:10384c00064600287ed0032d0bd0e789ffb204f08a
:10385c00a9ff4388dbb29f4232d911238df80f3078
:10386c0077e004f09fff0368c4f80e300023324663
:10387c001946bdf80c0001f013fe4b4b1b88053ba1
:10388c000c3080b283420fdc0c229df80f30002be1
:10389c005fd1a372e3722280238923f07f03013569
:1038ac001d432581022169e004f1120332460021f7
:1038bc00bdf80c0001f0f4fd00f10c0292b2e4e74b
:1038cc003946304604f02efc036823618388a382ba
:1038dc00e389dbb2e381304604f064ff4388c3f331
:1038ec000323083b9bb2012b0fd877b9304a1668db
:1038fc0050689168c4f81660c4f81a00c4f81e1019
:10390c00127b84f822201c22bfe700233246394662
:10391c00bdf80c0001f0c4fd234b1a88053a00f1e8
:10392c0010039bb29a4201dc1022aee704f116039d
:10393c0032463946bdf80c0001f0b2fd00f1100220
:10394c0092b2a2e708238df80f3002e003238df822
:10395c000f309df80f1000220a2323706270238908
:10396c0023f07f0343f007032381a272e272114b11
:10397c0053f82130e3600b4b1a800221204602f0f1
:10398c0069fe034610b10c4b1c600023184605b0b1
:10399c00f0bd0623fae70623f8e70221eee700bfa5
:1039ac00bc280020502a00204e2a0020522a002039
:0c39bc00cc280020006d000090290020a5
:020000040000fa
:1039c80038b5804b1b78002b68d07f4bb3f900309b
:1039d800002b6bd17d4b1b88c3f30714242b32d0eb
:1039e80011d8123b9bb2012b00f2e680784b1b7872
:1039f80033b300f0c5fe774b1b78002b00f0de8058
:103a0800754b1d8815e0482b12d1744b1b78002b81
:103a180029d0734b1b78002b30d0724b1b78002bae
:103a28003dd1714b1b88002b0cbf1a251b2526e0a6
:103a38000025002c32d0634b00221a7055b327e0c2
:103a480004f078fed5e7624b1b784bb101f080fe9d
:103a5800604b1b78002b00f0b3805f4b1d88e8e7b4
:103a680004f0a8fef2e7604b1d88d5b95f4b012230
:103a78001a70544b00221a7008240be02d25544b61
:103a88001b7883b104f07efd44b14e4b00221a70be
:103a980044f010042946204600f0fefe38bd1a25e1
:103aa800ede71b25ebe704f089feebe7474b1b88a6
:103ab800242b46d01bd8123b9bb2012beed8444b8b
:103ac8001b78002bead0424b00221a7004f06efedd
:103ad800054600282ed1464b01221a703b4b1c7814
:103ae80014f00f04dad0374b00221a70d2e7482bb3
:103af800d4d1374b1b78002bd0d0384b1b78002bf8
:103b080040d03c4bb3f90030002bc7dd3a4ab2f93c
:103b180000209a42c2db0023364a1380364a1380bb
:103b28002b4a137004f048fe28bb304b01221a7050
:103b3800082415e0ff28b1d004f0fcfd00f020feb9
:103b4800ace7234b1b78002ba8d0214b00221a701e
:103b58002a4804f02dfe38b9294b01221a70042492
:103b68000025184b1d7095e7ff2897d004f022fe1a
:103b780001f0eefd92e7ff2890d004f01ffe04f05c
:103b880001fd8be7184b1b881bb1164b1b78002bcc
:103b980084d00f4b00221a7004f00efe20b9134b8c
:103ba80001221a700824dbe7ff283ff477af04f0fe
:103bb80005fe04f0e7fc71e700253ae7012563e715
:103bc800012561e7632a0020222a0020342a0020e8
:103bd8005c2a0020652a0020422a00205f2a002053
:103be8005e2a0020602a00203e2a0020622a002047
:103bf8006d2a0020322a0020302a0020402a002086
:043c0800612a00200d
:020000040000fa
:103c0c00f0b585b00023039304224ff4a06103a800
:103c1c0001f00afe039c002c01db05b0f0bd04f0a2
:103c2c00e064042240f204510deb020001f0fcfdb3
:103c3c000198039b23f0e0430393b4f1807f28d0d9
:103c4c0018d9b4f1007f42d0b4f1806f40f0bf803e
:103c5c00614b1b88082b5ad0604b1b68002b00f063
:103c6c00a0809847002800f09780039b43f00053f6
:103c7c00039302e0002c40f0aa80594b00221a80da
:103c8c00039b029304224ff4a06102a802f018fadd
:103c9c00c3e7544a12683ab190470028edd0039b11
:103cac0043f000530393e8e7b0f5006f0bd84e4a8e
:103cbc00146844b1484b1a884ff4a16104eb4000de
:103ccc0002f0fef9d9e743f000530393d5e7474ad6
:103cdc00126852b1904718b1039b43f00053039301
:103cec00434b4ff47a721a80c7e7b0f5006f0ad8cd
:103cfc003d4a14683cb102224ff4a16104eb400030
:103d0c0001f092fdece743f000530393e8e7354de7
:103d1c00354e314f2ce0039b43f000530393ace73b
:103d2c003368002b33d03a884ff4a16103eb400089
:103d3c0002f0c6f9039b23f0f04303930293042291
:103d4c004ff4a06102a802f0bbf904224ff4a06169
:103d5c0003a801f069fd039c04f0e064042240f226
:103d6c0004510deb020001f05ffdb4f1806f84d1c2
:103d7c000198b0f5006fced82b68002bd0d09847a7
:103d8c000028d7d0039b43f00053039375e7039ba4
:103d9c0043f00053039370e7039b23f000630393fa
:103dac006be703f055f868b90f4b186850b1042253
:103dbc004ff4a161103002f083f9039b23f00063f0
:103dcc0003935ae7039b43f00063039355e743f0d7
:103ddc000053039351e700bf162a002058290020f6
:103dec00da280020542900207c290020602900209a
:043dfc00122a002067
:020000040000fa
:103e0000704b1a8841f6fe739a4240f2d78070b523
:103e10000446002004f0c4fa436813f4803f03d042
:103e200003f00c02042a01d0162070bd13f0020f1b
:103e3000fad00268130c223b9bb2de2bf4d8a2f519
:103e400080539bb2b3f5805feed2012004f0a8fa54
:103e5000436813f4803fe7d013f00c0fe4d113f064
:103e6000020fe1d003681a0c223a92b2de2adbd8a4
:103e7000a3f580539bb2b3f5805fd5d2032c14d841
:103e8000032c44d0504b1b78a34240f299804f4ef4
:103e90004d4d204604f084fa436833600134e4b2a7
:103ea0002b78a342f5d80020bfe7494b01221a70b6
:103eb000032004f075fa0268130c406810f4803f88
:103ec0003ad0002b3ed043490988994201d00321c2
:103ed00039e0013b9bb2432b3ad810f00c0f39d19b
:103ee00092b23d4b1978022905d03c4b1b88934276
:103ef00007d0022127e0a2f5805293b2b3f5805f8c
:103f000021d210f0020f02d0314b00221a70022091
:103f100004f046fa0268130c406810f4803f42d067
:103f2000002b47d02e490988994215d00321022041
:103f300001f0d4f81d2078e7264a12881343e6d012
:103f4000032100e00421032001f0c8f81e206ce7e3
:103f50000321f8e70421f6e7013b9bb2432b2bd862
:103f600000f00c03042b01d00421e0e792b21a4bbd
:103f70001978022905d01b4b1b88934207d00221d8
:103f8000d5e7a2f5805293b2b3f5805fcfd2c0f3ec
:103f90008012154b1a7010f0020f3ff473af0c4be8
:103fa00000221a706ee70e4a128813433ff46aaf7c
:103fb0000321bce70421bae70321b8e714207047c6
:103fc000002032e73a2a0020692a0020a429002094
:103fd0005b2a00203c2a0020682a0020362a002084
:0c3fe0003e2a0020382a0020672a00201a
:020000040000fa
:103fec002de9f04f87b0039003a803f06bfc002879
:103ffc0003da002007b0bde8f08f039b1b095d1ea0
:10400c00202d0fd9023b5e4ab3f5007f35bf02eb82
:10401c00d30302ebd31313f8045c13f8045c34bf22
:10402c00013511350123a5f12001c5f1200203fa58
:10403c0001f923fa02f203fa05f8d8f1000849ea6b
:10404c00020969eb4909cde90089dff84081dff805
:10405c0030914746d8e90023009902ea010a0199f8
:10406c0003ea010b5aea0b0342d1039b05a8103358
:10407c00059304f0cff918b9424b0c221a60b9e73a
:10408c00d8f80852a84206d0059b103b0593012393
:10409c0000f110058360059bea18012143f0010330
:1040ac00b5f1080442f8083c42f8041cc7f8082291
:1040bc0045f8043c9dd0204603f09afe88b155f893
:1040cc00083c55f8041c23f00103e31a5a6822f04b
:1040dc0001020a445a6055f8041c21f00101625097
:1040ec001c462046039903f09bfe04f1080081e76f
:1040fc005446254bbaf1000f34d1cbf1000000ea45
:10410c000b00434309ebd36393f83c6020363046f5
:10411c0004f0eaf8731c57f8334007ebc303083b71
:10412c009c4297d0272e26dd0235ae4201dc3f2e75
:10413c0021d16268039922f00102551a284603f036
:10414c0027fd864217d1e068a6686318d8609e6088
:10415c0083609868c36041f0010060505d60a550b9
:10416c006060bee7caf100002040434309ebd36313
:10417c0093f83c60cbe73146204602f0b5ffb0e740
:10418c0040700000082a002029e66b070020002060
:020000040000fa
:10419c0030b583b04ff48033019302f033fd4b4bb9
:1041ac001b78002b3cd102f0e9fe044610f0200fe6
:1041bc003ed114f0010f4ed0454b1b78002b3ad05a
:1041cc0014f0100f5fd1424b1b78002b5bd13f4b8f
:1041dc001b781bb3019b13f4803f57d014f4007f62
:1041ec005cd1019b13f4003f63d03a4b1b7883b92d
:1041fc0002f094fe374b1b78002b5fd0019b43f0f1
:10420c0000730193042240f60c010deb020001f047
:10421c0057ff02f0b3fe10f4807f53d103b030bdd2
:10422c00042240f60c010deb020001f0fdfabae796
:10423c00fff7e6fcbde70025009504224ff49071d2
:10424c00684601f0f1fa24f01104a4b229469df855
:10425c000000fef705f914f0100fb4d01c4b1b78be
:10426c008bb91d4b187810f0100fb0d120f0100343
:10427c00012bacd024f01004a4b2002100f00f00ec
:10428c00fef7eef89fe7fff799fba0e7124b1878c3
:10429c00002100f00f00fef7e3f89fe70f48002322
:1042ac00036004220e4b198801f00aff01f0f4fda3
:1042bc0097e7084b1b78002babd099e7019b23f0b9
:1042cc0000739ee700f084fea8e700bf6d2a002073
:1042dc00632a00206c2a0020682a0020a8290020cc
:0442ec004a2a00203a
:020000040000fa
:1042f000222913d8dfe801f07f144b651212121245
:10430000121212121212121212121212121212128d
:1043100012121212121212121212390012207047c7
:1043200041f63243984213d041f63343984266d166
:10433000394b9b8913f0020f63d0384b1b88002b3d
:1043400061d1374b1b88002b0cbf12200020704717
:10435000324b1b88002b50d0324b9b8903f0020359
:10436000002b0cbf12200020704741f633439842c7
:1043700001d012207047284b9b8913f0020f44d0c4
:10438000264b1b88002b0cbf12200020704741f6e3
:10439000324398420cd041f63343984237d11e4bfa
:1043a0009b8903f00403002b0cbf122000207047f0
:1043b0001c4b9b8903f00403002b0cbf1220002030
:1043c000704741f6324398420cd041f6334398424d
:1043d0001fd1114b9b8903f00803002b0cbf122047
:1043e000002070470f4b9b8903f00803002b0cbf84
:1043f00012200020704700207047122070471220c2
:104400007047122070471220704712207047122008
:1044100070471220704700bf1c2700203e2a002052
:084420003c2a00206027002067
:020000040000fa
:1044280030b583b000230193042211460deb02003e
:1044380001f0fcf9019b2a4c1a0a22701b0c9b0202
:1044480003f6ff73274a138003f08cfc23784bb1e3
:104458000024234de0b203f0edfb01342a78e3b2e7
:104468009a42f7d801f086fb00241f4b1c701f4ba3
:104478001c701f4b1c701f4b1c701f4b1c701f4b5c
:104488001c701f4b1c701f4b1c801f4b1c801f4b2c
:104498001c801f4b1c801f4b1c801f4b1c801f4bfc
:1044a8001c701f4b1c701f4b1c801f4b1c801f4b0c
:1044b8001c801f4b1c8001201e4b1870214600f0e9
:1044c800ebf91d4b1c801d4b1c701d4b1c7003f021
:1044d800cbfb04f04df8204603f008fb03b030bdd9
:1044e800692a00203a2a00205d2a00205c2a002040
:1044f800632a0020602a0020622a0020612a002006
:10450800672a0020202a00201e2a0020282a0020ae
:104518002a2a00202c2a00202e2a00205f2a002088
:10452800652a0020422a0020402a00203e2a002036
:104538003c2a0020682a0020342a00206a2a002009
:04454800642a0020c1
:020000040000fa
:10454c0000297ad02de9f0470c46404b1e68b6f591
:10455c00002f75d23e4b1b680b44b3f5002f5cd873
:10456c00174605463b4b1b6801eb0308b8f5005f8b
:10457c0059d9c3f50052dff8e0a0caf80020dff8e3
:10458c00dc90014609eb030003f04fffdff8c48019
:10459c004ff40053c8f800304946304602f0e8ffab
:1045ac00d8f80010294b1a680a441a60284a136874
:1045bc000b441360daf800100023c8f80030641aba
:1045cc00a4b222462944484603f02fffc8f8004005
:1045dc00204b1b68b3f5005f0dd0002f33d1b3f522
:1045ec00005f08d2c3f500521b490a60ff211b482b
:1045fc00184404f013f8154c1849206802f0b8ff61
:10460c0014490868226802442260114a1368034462
:10461c00136000200860bde8f0870d4b00221a6083
:10462c0048f20300f7e70a4601460c48184403f029
:10463c00fcfe084bc3f80080cae748f20d00704737
:10464c0048f20d00e7e70020e5e700bfc029002095
:10465c00c4290020c8290020cc29002000000020fb
:020000040000fa
:10466c0070b5adf5804d3e4b1b7823b1012b24d199
:10467c003c4e3d4c3ce003f015ff0028fbd13b4c7d
:10468c003b4a0121204603f0a9ff2378002b394b2c
:10469c00a3f5002218bf1346374a136003f032f813
:1046ac0000f016fc03f0d1ff02f072fe01242e4b39
:1046bc001c7003f009fe2a4b1c700df5804d70bd6b
:1046cc004ff43c224ff400510deb010003f086ff38
:1046dc0003f0c2ff80f01000c0f300100df57f5303
:1046ec003833187021e001f00bf92378012be4d159
:1046fc0004f006f80128f6d103f0d4fe0028fbd113
:10470c004ff478324ff40061684603f067ff0df503
:10471c0000554ff43e224ff40061284603f05eff33
:10472c009df800202b789a42cad00df500514ff419
:10473c003c2003f0e7f803f0b5fe0028fbd103f0b2
:10474c0055ff03f0affe0028fbd14ff400231b688c
:10475c003268b3f1ff3fc6d083f308881047c2e735
:10476c00102a002004000800582a0020802a00206b
:0c477c00fcdf0300200e08007c29002058
:020000040000fa
:1047880010b582b00020374b187003f053fa01209f
:1047980003f050fa344b1868e8b100f017fd334bba
:1047a8001868f0b1304b1b6898421ad017e000f037
:1047b8000dfd204603f0a4fc0028f8d12c4c01e0a4
:1047c80000f004fd204603f09bfc0028f8d103f01c
:1047d8004bfa02b010bd254b186800283cd000f0f9
:1047e800f5fc244b186848b11f4b1b68984205d04c
:1047f8001e4b1b68834201d000f0e8fc01f060fd0d
:1048080003f0aefd00241c4b1c60174b1c60194bb9
:104818001c60164b1c60194b1c700194042240f656
:104828000c010deb020001f001f8019b23f000736d
:104838000193042240f60c010deb020001f042fc4a
:104848000f4b1c700f4b1c700f4b1c700f4b1c70c8
:104858000f4b1c700f4cace7064b18680028c7d1eb
:10486800cce700bf6d2a0020b0290020b429002021
:10487800d8270020ac290020b82900206c2a002065
:10488800702a00206f2a0020712a0020732a002035
:08489800722a0020a427002071
:020000040000fa
:1048a00030b583b004460d463d4b1b7883421cbf98
:1048b0003b4b18704ff6ff7399421bd1384b1b7856
:1048c000019304224ff498710deb020001f0fefbfe
:1048d00014f0100f22d0a5f11a039bb2182b30d878
:1048e000304a22fa03f313f0010f2ad02e4b012293
:1048f0001a7016e0019104224ff49a710deb020038
:1049000001f0e4fb264b1b78019304224ff49871cd
:104910000deb020001f0dafb002dd9d1224b002271
:104920001a7021490b7843f010020a7004f00f044a
:10493000013c072c13d8dfe804f00f222e261212b8
:10494000122a1a4b1b78012bd0d01b2d164b0cbff3
:1049500002220d221a70e4e7154b00211970144948
:104960000b7843f010030b7043ea022300930422f8
:104970004ff49c71684601f0a9fb03b030bd0c4bad
:104980000d211970ebe70a4b01211970e7e7084b7d
:104990000f211970e3e7064b0e211970dfe700bf06
:1049a000682a0020010008016a2a0020652a0020e8
:0449b0006b2a00204e
:020000040000fa
:1049b40038b5364b1b7813b902f040fd38bd02f010
:1049c400effb10f4806f1dd0314b1b782bb1314bb2
:1049d4001b7813b1304b00221a80304b1b8d13b15e
:1049e400013b2e4a13852d4b1a8d2d4b1a852d4bc9
:1049f40001221a702c4b00221a802c4b1b7863b3b3
:104a040001f0bcfe254b5b88012b38d0284b1b786a
:104a14002bb1234b5b88012b34d0222b32d002f0f4
:104a2400bffb10f4806fc7d01c4a538d01339bb277
:104a340053851b4a53851f4d1f4c04222988204649
:104a440003f002fd29881d4b1b88194404390422f4
:104a540089b2204603f0f8fcaee7164d164c04224a
:104a64002988204603f0f0fc2988144b1b8819443c
:104a74000439042289b2204603f0e6fcc2e703f0bd
:104a84005bf9c3e702f0b0f9c9e700bf642a00206c
:104a94005e2a00205f2a0020442a0020602700208c
:104aa4001c270020602a00201e2a0020622a0020e1
:104ab400612a0020382a0020a82900203e2a00204c
:020000040000fa
:104ac4002de9f04f83b0009001913f4b1c8884b3d3
:104ad4004ff000099a464ff0010bc84618e01d46f6
:104ae400b4693146e8b201f0adf8c0f30f1014f820
:104af400104044441ffa84f86b1c9bb2bd42eed1b3
:104b040009f10109baf800201ffa89f39a420fd972
:104b14001ffa89f30aeb4303588803f0b9fb0646ee
:104b240000283dd083691f88002fe9d05d46d7e770
:104b340044460734c4f3cf08244b1888002840d0d7
:104b44004ff0000a5546dff884b018e01c46d6f84a
:104b540018903146e0b201f075f8c0f30f1019f85f
:104b640010301d44adb2631c9bb2bc42eed10af1bd
:104b7400010abbf800201ffa8af39a420ed91ffae1
:104b84008af30beb4303588803f082fb0646a8b173
:104b940083691f88002fead00124d8e7002003e0ae
:104ba4004ff0000845462520eb1ddb10009a1380ca
:104bb400019ba3f8008003b0bde8f08f00252420fa
:104bc400f2e70546f0e700bfd4290020d8290020e9
:020000040000fa
:104bd40008b5354b00221a80344b1b78002b3dd08e
:104be400334b1b781bb1334a138801331380324b88
:104bf4001b883bb3314a128893421dd2304b1b8829
:104c0400002b41d02f4b1b8d2f4a12899a4219d366
:104c140003332c4a138515e00023284a13802b4aba
:104c240013850fe002f0e0f8294b1b88012b15d106
:104c3400204b00221a8011e0214b1b888bb10132da
:104c44001e4b1a8003f078f8194b1b7833b1204bb4
:104c54001b881bb1174a12889a42e3d002f0eefb7c
:104c640008bd1c4b1b88002be9d002f099fa10f404
:104c7400006fd1d1114b1b880f4a12889a42e1d39d
:104c840001330e4a1380dde7124a1288002ad9d074
:104c9400002bd7d10d4b1b8d0b4a12899a42e4d3ba
:104ca40003330a4a1385e0e7282a00205f2a0020fc
:104cb400612a0020242a0020462a0020442a0020b9
:104cc4003e2a002060270020e82800201c2700201e
:084cd400262a00203c2a0020e2
:020000040000fa
:104cdc00534d206f757470757420706172616d65c1
:104cec007465720053796e6368726f6e697a617461
:104cfc00696f6e2054797065004379636c6520543c
:104d0c00696d65000053796e6368726f6e697a61c4
:104d1c0074696f6e20547970657320737570706f41
:104d2c0072746564004d696e696d756d20437963ad
:104d3c006c652054696d650043616c6320616e6421
:104d4c0020436f70792054696d65000047657420ad
:104d5c004379636c652054696d650044656c6179b9
:104d6c002054696d650053796e6330204379636c10
:104d7c00652054696d6500534d2d4576656e742024
:104d8c004d6973736564004379636c652054696d78
:104d9c006520546f6f20536d616c6c0053686966ad
:104dac00742054696d6520546f6f2053686f727452
:104dbc0000000000000000000000000000000000e7
:104dcc0000000053796e63204572726f7200ff0011
:020000040000fa
:104ddc00534d20696e70757420706172616d6574cd
:104dec0065720053796e6368726f6e697a6174696b
:104dfc006f6e2054797065004379636c652054693b
:104e0c006d65000053796e6368726f6e697a6174b8
:104e1c00696f6e20547970657320737570706f7242
:104e2c00746564004d696e696d756d204379636cb2
:104e3c00652054696d650043616c6320616e64206c
:104e4c00436f70792054696d650000476574204389
:104e5c0079636c652054696d650044656c617920db
:104e6c0054696d650053796e6330204379636c65ca
:104e7c002054696d6500534d2d4576656e74204d3b
:104e8c006973736564004379636c652054696d655f
:104e9c0020546f6f20536d616c6c0053686966749d
:104eac002054696d6520546f6f2053686f727400c5
:104ebc0000000000000000000000000000000000e6
:104ecc00000053796e63204572726f7200ff000010
:020000040000fa
:104edc00f0b583b000242e4b1c602e4b1c602e4b67
:104eec001c602e4b1c602e4b1c602e4b1c602e4be2
:104efc001c602e4b1c602e4b1c602e4b1c60fff755
:104f0c008dfa00f057fa2c4b01221a702b4b1c70a7
:104f1c002b4b1c602b4b1c602b4b1c600094019486
:104f2c004ff47a7404264ff411651f4604e09a423c
:104f3c0088bf3b60013c16d032462946684603f0d8
:104f4c007ffa3246294601a803f07afa009b019aaf
:104f5c00934288bf02f1ff32d31a01933a68002ab8
:104f6c00e5d13b60e6e70023019304224ff4a061f6
:104f7c000deb020000f058fc019b03f48003002ba6
:104f8c0014bf08220422114b1a80002003b0f0bd7c
:104f9c005429002060290020582900205c29002079
:104fac00682900206c290020642900207029002029
:104fbc007429002078290020d9280020112a0020eb
:104fcc0080290020842900208c290020162a00200a
:020000040000fa
:104fdc0030b583b0002301930422354b19880debb7
:104fec00020000f021fc019ca3b20193314b1b7811
:104ffc00012b0ad0304b1a78304b1b7813431dd041
:10500c002f4b01221a7003b030bd0a20fef7e8ffc7
:10501c0005460028eed00021c0f8021004230380be
:10502c00838823f4706383800123c3800723038167
:10503c0001f010fb284600f0c7f8dbe7204b0022fc
:10504c001a70204b1d882846fef7caff1e4b1860ad
:10505c00d8b1a21d92b2aa4228bf2a46144b198875
:10506c0000f0e2fb00230093042240f604016846a2
:10507c0000f0dafb009b0093009b13f4006f08d147
:10508c00114b186801f082fdbde70d4b01221a701f
:10509c00b9e70e4800230360054b1988094b1b88a0
:1050ac0019440439042289b200f0befbe8e700bfc2
:1050bc00482a00206e2a0020702a0020712a002025
:1050cc006f2a00204c2a0020b8290020a829002093
:020000040000fa
:1050dc0038b505460c4603f05dfb08b30246611e6d
:1050ec00c9b201eb85005388dbb243ea00239bb2c3
:1050fc005380022d15d0032d39d00021117151711f
:10510c009171d171002111706ff05f01517023f01a
:10511c00ff032a4909780b435380104601f0f8fc31
:10512c0038bd0329eed8dfe801f002020c11002192
:10513c001171102151714ff0ff3191711f21d171fb
:10514c00e0e71f4909889180d180dbe71c49098879
:10515c0039b100210a201071517101209071d17167
:10516c00d0e70021117151719171d171cae70329f6
:10517c00c8d8dfe801f002020c11002111711021d6
:10518c0051714ff0ff3191711f21d171bae70d4967
:10519c0009889180d180b5e70a49098839b1002185
:1051ac000e201071517101209071d171aae700216c
:1051bc00117151719171d171a4e700bf682a00205f
:0851cc003e2a00203c2a0020cd
:020000040000fa
:1051d4002de9f84300286ad050f8043ca0f10804f3
:1051e40023f00106a719a259934200d0ffde7a6882
:1051f40023681340da070fd4204602f0fdfd00288f
:1052040057d1384602f0d8fe0028f0d07b6823f04e
:1052140001031e441f44eae746f00103636030467d
:105224003b6002f0b9fc054603f062f823687a6833
:105234001340db07e0d5dff88ce0dee90089c5f137
:10524400200ca5f1200228fa05f009fa0cfc29fa31
:1052540002f240ea0c001043012100ea010200239b
:105264001343c5f120007346a5f1200212d121fa9f
:1052740000f001fa02f2a94042ea00021ebfdef881
:1052840000000143cef8001022b1def804100a43f6
:10529400cef80420681c03ebc003a3f10802666087
:1052a4003e60a2605a68e2605c60e3689c60bde8ae
:1052b400f883236823f00103e41a636823f00103ed
:0852c4001e449ee700200020bb
:020000040000fa
:1052cc0038b5059c602955d000293cd0258905f4ba
:1052dc007f45258100284fd1e088c0f30b0040f4b6
:1052ec004050e080402926d104990139032910d877
:1052fc000a23237000236370049bdbb2c3f1040305
:10530c0042f0030242ea83022a4342f04002228125
:10531c0044e004998b4228bf049b0a339bb2238040
:10532c00049ba381049bc3f30f43e38142f041022e
:10533c002a43228132e00a2323700023637045f054
:10534c00600222812ae0b8b9e388c3f30b0343f46b
:10535c004053e3800a23237000236370238943f0b6
:10536c00200323811ae0e388c3f30b0343f4405377
:10537c00e38013e00028f6d00a2323700023637027
:10538c00e388c3f30b0343f40053e380238943f016
:10539c0080032381054b53f82030e3600221204623
:1053ac0001f058f908b1024b1c6038bd006d0000cb
:0453bc009029002014
:020000040000fa
:1053c00010b582b02a4a20241480002353805360f1
:1053d00044f21f0090812749116153619383136246
:1053e0001385538582f84030234a148053805360dc
:1053f000908111615361938313621385538582f801
:1054000040301e4a137002f06bfd20bb00231c4a83
:1054100013701c4a13701c4a13801c4a13701c4ad8
:1054200013601c4a13601c4a13601c4a13600193ea
:10543000042208210deb020000f0fcf9019b13f09f
:10544000080f0bd0164b00221a70164b4ff47a62dd
:105450001a6002b010bd02f0cdfed7e7104b01225a
:105460001a7004224ff411610f4800f0e3f9ece7e1
:1054700060270020a08601001c270020742a00203d
:105480007e2a00207b2a0020562a00207f2a002026
:10549000fc290020f8290020e8290020f02900201c
:0c54a0005a2a0020402900204429002046
:020000040000fa
:1054ac002de9f04184b01e465469e9b10f46938949
:1054bc00c3f30323072b17d0092b24d0002e5dd068
:1054cc00304b6c460fcb07c4237039460df10900e5
:1054dc0002f0ecfa6b4607cb30607160b2601b785f
:1054ec0033734ff00c080ae0204603f09ff81ffac4
:1054fc0080f826b142462146304602f096ff4046df
:10550c0004b0bde8f0811ffa81f8204603f08ef854
:10551c0001302518235c0233dbb2012bced9b8f154
:10552c00010f16d0284603f081f8013005440224ff
:10553c002b780233dbb2012bc0d9a04509d0013442
:10554c00a4b2284603f072f801300544a045efd20e
:10555c00b4e7284603f06af81ffa80f846b1b8f1b0
:10556c00000fadd042462946304602f05effc6e73a
:10557c00b8f1000f08bf4ff00c08c0e74ff00c0853
:08558c00bde700bfcc280020a0
:020000040000fa
:10559400314b00221a7403f50063304a9a621a46aa
:1055a400536813f0100ffbd12d4b4222c3f8842013
:1055b4001a46d2f8843013f0400ffad0294b002257
:1055c4009a6377225a631a46d36b13f0040ffbd104
:1055d400244b022283f830201a46d36b13f0020fb7
:1055e400fbd1204a136c03f00303032bfad11e4ba7
:1055f40001225a711a46d37813f0010ffbd0184bcd
:105604001a4a1a621a46536813f0040ffbd1144b5a
:10561400174a5a621a46536813f0080ffbd1104b0d
:105624004122c3f890201a46d2f8903013f0400f6c
:10563400fad00b4b4122c3f8a4201a46d2f8a43066
:1056440013f0400ffad0084b6ff07f421a614cf20e
:10565400ff725a61704700bf001400400601300019
:10566400001c004000100040000800400701010039
:045674000701020028
:020000040000fa
:105678002d4b1b78002b56d02de9f04782b01746ea
:105688000e468146294b1d682b89dbb203f0e00ae0
:1056980003f01004baf1400f0fd04ff00008224b6e
:1056a80000221a7001950096434622465146484604
:1056b800fff708fe02b0bde8f0871d4bb3f8008085
:1056c800a8f110081ffa88f888450bd34b1e032b46
:1056d80020d805f10c009042e1d00a46394602f084
:1056e800a6fedce70123134a1370134a1370134b09
:1056f8001c70134b1960134b60221a70124b1f60f9
:105708004246394605f1100002f091fe0f4bc3f8ee
:105718000080c4e705f110009042c0d00a4639461f
:1057280002f085febbe77047772a0020ec290020ad
:105738004e2a0020792a00207a2a0020782a002080
:10574800e02900207c2a0020f0290020dc29002004
:020000040000fa
:1057580008b5214b1b88002b35d1204b1b88002b0b
:1057680035d14ff2f33002f0c1f900231c4a13700f
:105778001c4a13701c4a13701c4a13701c4a13707d
:105788001c4a13801c4a13801c4a13801c4a13802d
:105798001c4a13801c4a13801c4a13801c4a13801d
:1057a8001c4a1385538582f840301b4a138553855c
:1057b80082f84030194a1380194a1370194a137035
:1057c800194a137008bd022002f034fac5e7032015
:1057d80002f030fac5e700bf3e2a00203c2a00202c
:1057e800602a0020642a00205f2a00205e2a002008
:1057f800662a0020462a0020442a00202a2a00205f
:10580800282a00202c2a00202e2a0020262a0020c0
:10581800242a0020602700201c270020322a00208c
:0c582800672a0020612a0020742a00205a
:020000040000fa
:10583400002a68d02de9f04383b005460e4617468a
:105844004ff0c0094ff004084ae0032c04d8012c9f
:105854008cbf022401241ae08df80460330a8df809
:1058640005308df806408df8079002f072ff42462d
:1058740001a94ff4417002f069f8424601a94ff4be
:10588400407000f05bfe02f068ff19e001248df81f
:105894000460330a8df805308df806408df80790c2
:1058a40002f057ff424601a94ff4417002f04ef84e
:1058b400424601a94ff4407000f040fe02f04dff53
:1058c40001aa002312f8011b05f8011b0133dbb206
:1058d400a342f7d3a4b22644b6b23c1ba7b27fb10d
:1058e40016f0010fd2d13c46042f28bf0424e4b2a1
:1058f40016f0020fa9d0012c8cbf02240124c6e7a4
:0859040003b0bde8f083704719
:020000040000fa
:10590c0008b5294b1b78002b4cd0284b1b78002b4f
:10591c0035d0274b1a78274b1b78134333d102f021
:10592c0014ff02f005fa244b1b7813bb02f011ff95
:10593c0029e001f023fb10f4806f0cd01c4b0122ea
:10594c001a701e4b00221a801d4b1b78002be6d0c0
:10595c0000f010ffe3e71b4b1b88002bdfd110f48a
:10596c00006fdcd0124b01221a70144b00221a80eb
:10597c00d5e701f035fad9e701f09efa08e00d4bb6
:10598c001b78002bd5d0104b1b68b3f57a6ff3d274
:10599c00fef7fefb00f0eafb01f074ff0b4b1b68fb
:1059ac0003b1984708bd00bfd9280020642a002005
:1059bc00602a00205f2a0020612a00201e2a002075
:1059cc00622a00203e2a002040290020782900204d
:020000040000fa
:1059dc00274b1b78002b4ad0264b1b78002b46d02c
:1059ec00254b1b8813b3254a128893421bd8244b92
:1059fc0000221a70234b1b788bb97047204b002266
:105a0c001a70f7e71f4b01221a701f4bb3f90030c5
:105a1c00002b2cdd1d4a1388013313807047194b62
:105a2c0000221a7070470132144b1a80144b012259
:105a3c001a70174b1b8833b1164a12889342ddd962
:105a4c000132144b1a80144b1a8d144b1b899a4239
:105a5c00d8d30c4b1b7853b10a4b00221a700a4b4b
:105a6c00b3f90030934202dd084b1a80704770473f
:105a7c005f2a0020612a00202a2a0020282a0020e0
:105a8c005e2a0020662a0020322a0020302a0020bc
:105a9c002e2a00202c2a002060270020e828002035
:020000040000fa
:105aac00f0b583b02a4b1b7803f00f03012b4ad0bf
:105abc00284b1b78002b48d0274b1c781cb1072493
:105acc00204603b0f0bd05460788ba1d92b2234ba1
:105adc00198800f0f5fa00230193042240f60c011a
:105aec000deb0200fff7a0fe019b0193019b13f449
:105afc00006f12d11a4b1e88b21fd21b92b2194bd7
:105b0c0000211960032a14d9144b19883144043923
:105b1c00042289b2134800f0d3fa134b1b6813b15b
:105b2c00124b00221a60104b1d600b4b01221a7095
:105b3c00c6e7c2f10402b91d891005eb81011846b4
:105b4c0002f073fce0e7f024bae7f024b8e700bffa
:105b5c00682a00206d2a0020702a00204a2a002082
:105b6c004e2a0020a8290020ac290020b8290020aa
:020000040000fa
:105b7c0010b582b0204b22221a80204b4ff4807239
:105b8c001a804ff480531e4a13801e4a13801e4bfa
:105b9c0000241c805c800a229a801c4b1c805c8038
:105bac009a801b4b1c601b4b1c601b4b1c601b4bc3
:105bbc001c601b4b1c700194042240f60c010deb75
:105bcc000200fff731fe019b23f0007301930422c6
:105bdc0040f60c010deb020000f072fa114b1c7038
:105bec00114b1c70114b1c70114b1c70114b1c7009
:105bfc00114b1c7002b010bd4c2a00204e2a002004
:105c0c00482a00204a2a0020a4270020d827002058
:105c1c00b8290020b0290020ac290020b42900208c
:105c2c006c2a00206d2a0020702a00206f2a002088
:0c5c3c00712a0020732a0020722a002028
:020000040000fa
:105c4800f0b48f89c7f30327002856d1f0bc7047fa
:105c5800062b43d004d8032b40d0042b04d112e0e8
:105c6800082b10d90b2b39d0624522d263881844ef
:105c780080b21ee0b3f5187f30d0f5d3a3f26225c9
:105c8800adb2012df0d800f11f054ff6e0702840a5
:105c980062450ed2a3f262239bb2012b9abf63889e
:105ca800c018203080b204e06388184480b21030f5
:105cb80080b2013292b206366245c7d8082f0c6905
:105cc8000cbf0634a41923881f2b07d0c0d92f2b4b
:105cd800d9d0cfd8202bd6d02e2bc5d100f10f0587
:105ce8004ff6f07028406245e3d20b2bdcd0b3f5b9
:105cf800187fdcd1d8e70020a8e78446072ffad020
:0c5d08001ffa8cfc062610200122d7e7b1
:020000040000fa
:105d1400002a60d02de9f04383b005460e461746ad
:105d24004ff0c0094ff0040842e0032c04d8012cc2
:105d34008cbf0224012416e08df80460330a8df828
:105d440005308df806408df80790424601a94ff4be
:105d5400417001f0fbfd424601a94ff4407000f090
:105d6400edfb15e001248df80460330a8df805304d
:105d74008df806408df80790424601a94ff4417012
:105d840001f0e4fd424601a94ff4407000f0d6fb57
:105d940001aa002312f8011b05f8011b0133dbb231
:105da400a342f7d3a4b22644b6b23c1ba7b27fb138
:105db40016f0010fd6d13c46042f28bf0424e4b2c8
:105dc40016f0020fb1d0012c8cbf02240124cae7c3
:085dd40003b0bde8f083704745
:020000040000fa
:105ddc00050008000700060010000f000700200057
:105dec00070000002000000006001000070007005c
:105dfc002000070007002000070000002000000022
:105e0c00060010003f0007002000070007002000dc
:105e1c003f000600100007000600100007000000fd
:105e2c001000000000001000000000002000000026
:105e3c0000002000000000002000000000002000f6
:105e4c000000000000000000000000000000000046
:105e5c000000000000000000000000000000000036
:105e6c000000000000000000000000000000000026
:105e7c000000000000000000000000000000000016
:105e8c000000000000000000000000000000000006
:085e9c0001000100070000bf36
:020000040000fa
:105ea40008b52a4b00221a70294b186810b1294be7
:105eb4001b68c3b1284b1a68254b1a60254b186818
:105ec400a0b1fff7f1fd234b00221a60234b1b788e
:105ed40043b113f0010f11d113f0020f1cd113f0d1
:105ee400400f29d108bdfff773f9e3e71c4802f01e
:105ef40009f90028ead0fff7d7fde7e7194b18683e
:105f040002f0a0fb02f04afb0028ebd0134a1378fe
:105f140023f001031370e5e723f002030f4a137023
:105f2400104b186801f06efb0028dbd00b4a137885
:105f340043f002031370d5e723f04003074a1370bc
:105f4400084b186802f01cfacce700bf702a002046
:105f5400b0290020b4290020ac290020712a002097
:085f6400d8270020b829002015
:020000040000fa
:105f6c0008b5214b1b783bb1204bb3f90030002b0b
:105f7c0002dd013b1d4a138001f0b6f9fff728fd45
:105f8c001b4b1a8872b11b490b8801339bb20b80d7
:105f9c009a4207d80023164a13800b80164b1b68b5
