:020000040000fa
:10000000f0ff032085700000f784000047860000a1
:100010008f8d00001f8e0000338f00000000000055
:10002000000000000000000000000000e781000068
:10003000bf88000000000000e7810000e7810000a9
:10004000e7810000e7810000e7810000e781000010
:10005000e7810000e7810000e7810000e781000000
:10006000e7810000e7810000e7810000e7810000f0
:10007000e1890000018a0000e7810000e7810000bb
:10008000e7810000e7810000e7810000218a00008d
:10009000e7810000e7810000e7810000e7810000c0
:1000a000e7810000e7810000e7810000e7810000b0
:1000b000e7810000e7810000e7810000e7810000a0
:1000c000e7810000e7810000e7810000e781000090
:1000d000e7810000e7810000e7810000e781000080
:1000e000e7810000e7810000000000000000000040
:1000f00000000000e7810000e7810000e7810000c8
:10010000e7810000e7810000e7810000e78100004f
:10011000e7810000e7810000e7810000e78100003f
:10012000e7810000e7810000e7810000e78100002f
:10013000e7810000e7810000e7810000e78100001f
:10014000e7810000e7810000e7810000e78100000f
:10015000e7810000e78100000000000000000000cf
:10016000000000000000000000000000000000008f
:10017000000000000000000000000000000000007f
:10018000e7810000e7810000e7810000e7810000cf
:10019000e7810000e7810000e7810000e7810000bf
:1001a000e7810000e7810000e7810000e7810000af
:1001b000e7810000e7810000e7810000e78100009f
:1001c000e7810000e7810000e7810000e78100008f
:1001d000e7810000e7810000e7810000e78100007f
:1001e000e7810000e7810000e781000051870000ff
:1001f000e7810000e7810000e7810000e78100005f
:10020000e78100000000000000000000e78100001e
:10021000e7810000e7810000e7810000e78100003e
:10022000e7810000e7810000e7810000e78100002e
:10023000e7810000e7810000e7810000e78100001e
:10024000e7810000e7810000e7810000e78100000e
:10025000e7810000e781000035460000e7810000eb
:020000040000fa
:10026000f8b500bff8bc08bc9e4670478d7f000003
:10027000f8b500bff8bc08bc9e467047697f000017
:020000040000fa
:10028000fc2700201c000000000000002e28002099
:100290000200000000000000db2700200100000039
:1002a000000000008c270020280000000000000053
:1002b000e82800200400000000000000e6280020dc
:1002c0000200000000000000ec28002004000000f4
:1002d00000000000f02800200400000000000000e2
:1002e000a02800200800000000000000ec230020ef
:1002f00018010000010000000000000000000000e4
:100300000116210001090000688e000074860000bb
:10031000d0280020000000000000000000000000c5
:100320000000000000000000001a21000109000088
:10033000748e0000a0860000c0280020000000008d
:1003400000000000000000000000000000000000ad
:10035000121c0600010800008c8e0000bc8a000000
:1003600080290020000000000000000000000000c4
:100370000000000000000000131c0600010800003f
:10038000988e0000d88a0000842900200000000018
:10039000000000000000000000000000000000005d
:1003a00000602a0001090000a48e00003c8c0000bf
:1003b000b82800200000000000000000000000003d
:1003c000000000000000000010702a000109000079
:1003d000b08e0000508c0000c828002000000000f3
:1003e000000000000000000000000000000000000d
:1003f000ffff0000000000000000000000000000ff
:1004000000000000000000000000000000000000ec
:100410000c220020e00100000100000000000000ac
:10042000000000000010070000070000348f0000eb
:10043000508e0000fc28002000000000000000009a
:100440000000000000000000000000000110050096
:10045000000700003c8f0000d08d0000e62800203f
:10046000000000000000000000000000000000008c
:10047000000000000810090000070000448f000081
:100480005c8e000018280020000000000000000022
:10049000000000000000000000000000091009003a
:1004a000000700004c8f0000ec8b0000f4280020b7
:1004b000000000000000000000000000000000003c
:1004c000000000000a10090000070000548f00001f
:1004d000008c0000f8280020000000000000000050
:1004e00000000000000000000000000018102300c1
:1004f0000409000000890000e88100003028002085
:1005000000000000000000000000000000000000eb
:1005100000000000f1102a0002090000648c0000b5
:100520002880000094280020000000000000000047
:10053000000000000000000000000000f8101b0098
:10054000000700005c8f0000148c0000a028002031
:10055000597e0000000000000000000000000000c4
:1005600000000000001c050004080000808e000050
:10057000288c0000e028002000000000000000009f
:10058000000000000000000000000000321c2900f4
:1005900020090000a467000078560000e026002033
:1005a000000000000000000000000000000000004b
:1005b00000000000331c290020090000a46700008f
:1005c000785700009c26002000000000000000007a
:1005d000000000000000000000000000ffff00001d
:1005e000000000000000000000000000000000000b
:1005f000000000000000000000000000182800209b
:10060000160000000100000053414d4535332045e0
:100610007468657243415420536c61766500000034
:10062000f42800200400000001000000312e3000fa
:10063000f82800200400000001000000322e3000e5
:100640003028002014000000010000000400000019
:10065000d80400e0559200000100000001000000f5
:10066000e028002006000000010000000400020154
:1006700004030000fc28002004000000010000002a
:1006800089130000c22900200200000000000000c1
:10069000142600204400000000000000582600201e
:1006a000440000000000000091280020010000002c
:1006b00000000000bd290020010000000000000033
:1006c000042a002001000000000000000029002092
:1006d00004000000000000000429002004000000c5
:1006e00000000000082900200400000000000000b5
:1006f0000c29002004000000000000001029002048
:100700000400000000000000142900200400000084
:100710000000000018290020040000000000000074
:100720001c290020040000000000000020290020f7
:100730000400000000000000242900200400000044
:100740000000000028290020040000000000000034
:10075000922800200200000000000000be290020b6
:1007600002000000000000002c290020040000000e
:1007700000000000302900200400000000000000fc
:100780003429002004000000000000003829002067
:1007900004000000000000003c29002004000000cc
:1007a00000000000402900200400000000000000bc
:1007b000c62900200200000000000000c829002017
:1007c0000200000000000000442900200400000096
:1007d0000000000048290020040000000000000084
:1007e0004c2900200400000000000000ca2900205d
:1007f0000200000000000000cc29002002000000e0
:1008000000000000052a0020010000000000000098
:10081000ce2900200200000000000000d0290020a6
:100820000200000000000000d229002002000000a9
:10083000000000005029002004000000000000001b
:10084000d42900200200000000000000d62900206a
:100850000200000000000000d82900200200000073
:1008600000000000da290020020000000000000063
:10087000a82800200800000000000000062a002030
:100880000100000000000000072a00200100000015
:1008900000000000082a0020010000000000000005
:1008a000092a002001000000000000000a2a0020a0
:1008b00001000000000000000b2a002001000000e1
:1008c000000000000c2a00200100000000000000d1
:1008d0000d2a002001000000000000000e2a002068
:1008e00001000000000000000f2a002001000000ad
:1008f00000000000102a002001000000000000009d
:10090000112a00200100000000000000122a00202f
:100910000100000000000000132a00200100000078
:1009200000000000dc2900200200000000000000a0
:10093000de2900200200000000000000142a002030
:100940000100000000000000e0290020020000007b
:1009500000000000e229002002000000000000006a
:10096000e42900200200000000000000e629002029
:100970000200000000000000152a00200100000015
:1009800000000000e8290020020000000000000034
:10099000ea2900200200000000000000ec290020ed
:1009a0000200000000000000ee290020020000000c
:1009b00000000000f02900200200000000000000fc
:1009c000f22900200200000000000000542900204d
:1009d0000400000000000000162a002001000000b2
:1009e00000000000172a00200100000000000000a5
:1009f000b02800200800000000000000442800206b
:100a0000100000000000000054280020100000002a
:100a100000000000182a0020010000000000000073
:100a2000192a002001000000000000001a2a0020fe
:100a300001000000000000001b2a0020010000004f
:100a4000000000001c2a002001000000000000003f
:100a50005829002004000000000000005c2900204c
:100a600004000000000000006029002004000000d5
:100a700000000000642900200400000000000000c5
:100a80002427002034000000000000005827002028
:100a90003400000000000000f429002002000000e3
:100aa00000000000f6290020020000000000000005
:100ab000f82900200200000000000000fa290020b0
:100ac00002000000000000001d2a002001000000bc
:100ad000000000001e2a00200100000000000000ad
:100ae0001f2a00200100000000000000202a002032
:100af0000100000000000000c429002002000000e6
:100b0000000000009c2600204400000000000000bf
:100b1000e02600204400000000000000842800209f
:100b20000d00000001000000537562496e64657895
:100b30002030303000000000942800200c0000001d
:100b4000010000000200000001000000040000009d
:100b5000000000200020000000000000dc27002032
:100b60002000000000000000212a002001000000f9
:100b700000000000222a0020010000000000000008
:100b80006829002004000000000000006c290020fb
:100b90000400000000000000702900200400000094
:100ba0000000000074290020040000000000000084
:100bb000782900200400000000000000b828002070
:100bc000080000000100000001000000000000001b
:100bd000c028002008000000010000000100000003
:100be00020010060c828002008000000010000006b
:100bf0000100000000000000d028002008000000d4
:100c00000100000001000000200110707c2900207c
:100c10000400000001000000010000008029002005
:100c200004000000010000000100011684290020da
:100c300004000000010000000100001a64280020e8
:100c40001000000000000000232a00200100000026
:100c500000000000242a0020010000000000000025
:100c6000252a00200100000000000000262a0020a4
:100c70000100000000000000272a00200100000001
:100c800000000000fc29002002000000000000001d
:100c9000fe2900200200000000000000882900203a
:100ca00004000000000000008c2900200400000067
:100cb00000000000002a00200200000000000000e8
:100cc000282a00200100000000000000292a00203e
:100cd0000100000000000000902900200400000036
:100ce0000000000094290020040000000000000023
:100cf0009829002004000000000000009c2900202a
:100d00000400000000000000a029002004000000f2
:100d100000000000a42900200400000000000000e2
:100d2000022a00200200000000000000a829002084
:100d300004000000000000002a2a0020010000003a
:100d4000000000002b2a002001000000000000002d
:100d500004250020c000000000000000c029002081
:100d600002000000000000002c2a0020010000000a
:100d700000000000742800201000000000000000a7
:100d8000b42700202700000001000000000000013f
:100d9000000001000002000001000004000000004b
:100da0000000000000000000000000000003000040
:100db00001000000d828002008000000000000000a
:100dc000bc29002001000000000000002d2a0020a6
:100dd0000100000000000000ac2900200400000019
:100de00000000000c42500205000000000000000aa
:100df000002000200c02000000000000b0290020ac
:100e00000400000000000000b429002004000000dd
:100e100000000000b82900200400000000000000cd
:100e200000000000000000002222222222222222b2
:020000040000fa
:100e3000800e00cc8813ff00000040c00000de00e0
:100e4000d80400e0559200000100000000000000fe
:100e500000000000000000000010800080108000f2
:100e600000108000801080000c00000000000000d6
:100e70000000000000000000000000000000000072
:100e80000000000000000000000000000000000062
:100e90000000000000000000000000000000000052
:100ea0000000000000000000000000000f00010032
:100eb0000a004000080a5353435f4465766963653e
:100ec0001553414d4535332045746865724341548f
:100ed00020536c6176650853796e6368726f6e0b90
:100ee000534d2d53796e6368726f6e1b496e70752a
:100ef00074732070726f6365737320646174612012
:100f00006d617070696e6707436f756e7465721cf2
:100f10004f7574707574732070726f63657373208e
:100f200064617461206d617070696e6707547269e5
:100f3000676765721e0010000100020200230100b5
:100f4000000000040000010011000000000000008b
:100f5000000000000000000028000200010203ff62
:100f60002900100000108000260001018010800080
:100f700022000102001104006400010300140400b7
:100f80002000010432000800001a010300050000df
:100f9000006001060720000033000800011601026e
:100fa0000007000010700108072000003c000c0042
:100fb0000000000000000000000000000000000031
:100fc0000000030400000000ffffffffffffffff22
:100fd000ffffffffffffffffffffffffffffffff21
:100fe000ffffffffffffffffffffffffffffffff11
:100ff000ffffffffffffffffffffffffffffffff01
:10100000fffffffffffffffffffffffffffffffff0
:020000040000fa
:101630002de9f04f89b0b0f80890944b1e78002e39
:1016400040f0ae835ffa89f808f0e0040546202cec
:1016500019d009d9402c16d0602c00f0b381002796
:10166000bb464ff0030a06e0002c00f0ab810027d8
:10167000bb464ff0030abaf1ff0f40f0ab81304692
:1016800009b0bde8f08fb5f800a06f893b0203eb0d
:1016900019239bb20393184607f072f904900028af
:1016a00000f086833a0a0592037b9a4204d9002708
:1016b000bb464ff0110a8de108f010030693024675
:1016c0000599039805f04bfc8346402c48d0202c0c
:1016d00000f09d80074600230793069b002b40f0f7
:1016e000c380bbf1000f08d1694b039a1a80694b84
:1016f000059a1a70684b049a1a60402c00f03181e8
:10170000069b0193079b0093049b3a460599039817
:1017100001f0c0f98246ff2840f05c8101235f4a56
:1017200013705f4a069911705e4a059911705e4afe
:10173000039911805d4a17605d4a07991160049a08
:10174000116a5c4a1160514a13705b4b1d602b8912
:1017500023f0ff0309f0f00943ea09032b818ee728
:10176000baf10a0f40f01e83431e032b44d805f143
:101770000c0307930023ab81eb8133460746069a9f
:10178000002a72d1002bacd001234c4a13704c4a72
:1017900013704c4b069a1a703d4b039a1a803d4bbe
:1017a000059a1a703c4b049a1a60402c0cbf5a469a
:1017b0003a46454b1a60454b186808b104f0d8f911
:1017c000414b1868013020f0010002f05bfe3f4bf6
:1017d0001860002852d0402c00f08280aaf10a073d
:1017e0003a4605f1100107f0ecf9394b00221a7066
:1017f000b246384b1f603ee7374b1f88103fb84258
:1018000000f2e38205f1100307933346b7e718f0bf
:10181000020f0bd0baf10a0f40f0c682c8f381075d
:10182000c7f1040705f10c03079356e7eb89af896d
:1018300007eb0347294b1b8807f110029a420dd989
:10184000063b9a4540f0b28205f110030793aaf1d6
:101850000a03bb422cbf0023012390e707f10a03d0
:101860009a45f1d008260ae73346059a012a02d99b
:101870004ff0050aaee00122069283e7069b002b9b
:1018800014bf4ff0050a4ff0040aa3e0232a0020fa
:10189000002a0020292a0020a02900202a2a00202e
:1018a000272a00202b2a0020022a0020a829002015
:1018b000a42900209429002098290020252a00200e
:1018c000262a0020242a00208c2900209c29002080
:1018d000282a002088290020fa290020f829002041
:1018e000069b01930090049b5a460599039801f0ca
:1018f00065fb824650b3ff287ff47bafa44b0422e4
:101900001a70a44b069a1a70a34b059a1a70a34b2f
:10191000039a1a80a24bc3f800b0a24b1a68a24bdc
:101920001a60049bda69a14b1a60a14b01221a705c
:10193000a04b1d602b8923f0ff0309f0f00943ea57
:1019400009032b819c4b60221a7098e63a46954b0e
:10195000196805f1100007f034f9974b60221a70ee
:1019600047e7069b0193079b0093049b5a46059902
:10197000039801f023fb8246ff282bd1844b0322de
:101980001a70844b069a1a70834b059a1a70834b0f
:10199000039a1a80824bc3f800b0834b079a1a60ef
:1019a000049bda69814b1a60814b01221a70814bca
:1019b0001d602b8923f0ff0309f0f00943ea0903b6
:1019c0002b815ce67c4b1b78a3420ed00027bb46e4
:1019d0004ff0030a0195cdf800b0bbb208f0100239
:1019e0002146504604f040f949e6002c40f042817f
:1019f000724b1a7809f010039a4200f02381704b61
:101a00001b8808f010026d490a70664a11680029a7
:101a100000f02d81093b9bb26a4a10686a4a12683d
:101a2000121a19f0010f18d09a4200f2cb812b88bc
:101a3000033b9a4200f2c6816fea690707f0070785
:101a4000ba4205d0072a40f2bd819a4240f0ba81dd
:101a50005e4b00271f70174608e05c4f4ff0010ceb
:101a600087f800c01f469a4240f2ac8110f0010f87
:101a70006ed1430868894fea192242ea002221f810
:101a8000132007f1010c4fea5c0cbcf1010f1bd9cc
:101a900001200346dff80c91dff828e105eb430b4a
:101aa000def8002000eb5201d9f80000bbf808a0d6
:101ab000bbf80a20120242ea1a2220f81120013350
:101ac0009bb218466345e9d3404b93f80090b9f1b7
:101ad000000f1fd13e4b1b780193324b1b680093c4
:101ae0003c4b1b68384a12683b4909783b480088e0
:101af00000f0d0ff8246ff2872d0dff8a890d9f816
:101b0000000004f035f80023c9f80030baf1000fe6
:101b100040f09a800a232b7000236b70eb88c3f38c
:101b20000b0343f44053eb80244b1b78002b14bf72
:101b3000302320232b81254b1b78012b7ad00023c7
:101b4000204a13601c4a1370a2461f469b4641e779
:101b5000430811f8132021f813201249194802688c
:101b60005208d1f800c02b8923f0ff033cf812e0a3
:101b700043ea0e032cf81230036823f0010302330a
:101b800008687a1e05f10a01184407f01af89be765
:101b90002a2a0020272a00202b2a0020022a00209f
:101ba000a82900209c290020a42900209429002095
:101bb000232a002098290020282a0020262a0020f5
:101bc000f8290020882900208c290020252a0020bf
:101bd000242a0020a0290020292a0020002a0020f1
:101be0007c4b02221a707c4b1a787c4b1a707c4b0f
:101bf0001a787c4b1a707c4b1a887c4b1a807c4b71
:101c00001a687c4b1a607c4b1a687c4b1a607c4bc0
:101c10001b681a6a7b4b1a607b4b01221a707b4b44
:101c20001d6000237a4a13707a4a13707a4a13604f
:101c30004e4624e5784a13683b441360a2460027c9
:101c4000bb46c7e64ff0010a0023714a1370714a80
:101c50001370694b186820b103f08aff664b0022ad
:101c60001a6000236c4a13601f469b4603e54ff041
:101c7000030ae9e72f7a07f01007684b1b78bb428d
:101c800000f09b80664b1b88093b9bb2634a177030
:101c90009a46614a1168564a12680b44934286bfbd
:101ca000a2eb010ab3464ff0010b594b83f800b089
:101cb0005ffa89f9a5f8089011f0010245d14908a9
:101cc0004d4b186830f8113049ea0329a5f80890ff
:101cd0005fea5a0e13d000230a4400eb420cbcf812
:101ce000029030f81220120a05eb430c42ea092256
:101cf000acf80a2001339bb21a469e45ecd8eb881b
:101d0000c3f30b0343f44053eb802b8903f47f436d
:101d1000bbf1000f2ed01f432f81baf1060f2dd833
:101d20000a232b7000236b70caf1070347ea4307ad
:101d30002f81374b1b78012b24d1374a136853442a
:101d40001360b2460027bb4644e62b4b1a6849088d
:101d500032f8113023f0ff0343ea0909a5f808908f
:101d600002eb41010af1ff32023105f10a0006f0ef
:101d700028ffc4e747f001071f43cde70af103033b
:101d80002b80d6e71c4f386803f0f2fe00233b603f
:101d9000214a13601f4a1370b2461f469b4619e63c
:101da00009266ce408266ae4082668e4082666e446
:101db0000027bb464ff0080a0ce60027bb464ff051
:101dc000010a07e64ff00e0a3ee7012300220792c0
:101dd000d5e400bf2a2a0020242a0020272a002038
:101de000292a00202b2a0020002a0020022a002075
:101df0008c290020a82900209c290020a42900204b
:101e0000a029002094290020232a002098290020be
:101e1000252a0020282a002088290020262a0020a0
:041e2000fa2900207b
:020000040000fa
:101e2400f0b585b00023029301938c4a94898c4abf
:101e340095898c4a13808c4a1370022006f074fe34
:101e440002688a4b1a80436803f00203002b0cbf1c
:101e540003260126032006f067fe0368844a1380e4
:101e6400426802f00202002a0cbf032201229bb244
:101e74008049b1f800c00cfb02327f4909888a42cc
:101e840004dd7e4800880844834277db7c48008870
:101e9400824204dd7b4a1288024493426edb734a19
:101ea4001788794a128806fb0272914204da734e4b
:101eb400368831448f4267db904204da71490988dd
:101ec4000844874260db934202da63449f425bdb4f
:101ed40004224ff4186103a804f0f2f9bdf80c30a1
:101ee400039304224ff41a6102a804f0e9f90422ce
:101ef40040f6a4110deb020004f0e2f9019e574be9
:101f04005b88574a5188039a12f4106f00f0f681e7
:101f140012f4007f00f09d812c400ad014f0040fcd
:101f240000f0998114f0080f03d112f4806f40f08f
:101f34009481029840b1494d2d69a842c0f08f8127
:101f4400524da84200f28d8102f4c065b5f5c06f10
:101f540021d000204e4c2478002c40f031824a4b92
:101f64001b88002b00f06b82002840f0b781414ba6
:101f74001988002900f03382022363e2022103203e
:101f840003f078fd1e2004e00221084603f072fdf0
:101f94001d2005b0f0bd002e00f0ac818642c0f0db
:101fa400ab8114f0100f00f05e810120d2e7022b08
:101fb40000f06381022900f06281032b40f0ac81c0
:101fc40034e2314b1b8833b12a4b1988002940f085
:101fd40082810123a0e1274a1188003118bf012121
:101fe4009ae1032122e241ea030292b2002a40f07c
:101ff4000482284b1b78002b40f0dc811346911e91
:1020040089b2012950d915494b80154b5a800023b8
:10201400214a1380214a1380214a138001285fd169
:10202400029bf1189e42c0f0c080b1fbf3f082b273
:1020340003fb1013002b40f04181511c174b1980f6
:10204400184b1a804fe0074a4ff4806414809a1e9c
:1020540092b2012a40f23a810a46d0e7e0260020f3
:102064009c260020ec2900200c2a0020e4290020d2
:10207400e2290020e8290020f6290020fa2900207e
:10208400f4290020f8290020ea290020000050c388
:10209400202a0020102a0020d0290020f229002024
:1020a400f0290020d2290020a04901240c70a04965
:1020b400098811b99f4900240c809f494b809f498e
:1020c4004a8000219e4c21809e4c21809e4c218080
:1020d4009e4c21800128a3d0022b76d0032a02d063
:1020e400974b01221a800023994a138000930422fb
:1020f4004ff48461684604f0e3f8009c8c4b1b8821
:1021040013b1a3b2002b64d1924b00221a80924bdc
:102114001b78002b40f0b780904b1b783bb1844b6d
:102124001b8823b1834a138843f4806313800023fc
:102134008b4a13808b4a13808b4a13808b4a1380fb
:102144008b4a13708b4a13708b4a13807b4a138516
:10215400538582f84030784a1385538582f840309d
:10216400039b13f4007f14d00299002900f08d80a2
:10217400824a914255d87a4a0120108013f4806f24
:1021840007d0019b994240f28480754b1a88774ba3
:102194001a80674b1b88002b53d1794b1b88002b6b
:1021a40053d105f0b1fa0020f3e6674a012010800c
:1021b400b1fbf3f082b2624c228003fb1013002bbc
:1021c40091d001325e4b1a808de75f4b012119805b
:1021d40084e70023009304224ff48061684604f0ee
:1021e4006ff8009b9ab2002a00f0d8800232a3b2a2
:1021f40046f2a71402fb0343db08624aa2fb032353
:10220400c3f30f23534a13805f4a00211180002b2c
:102214003ff47daf504b1b78002b7ff47daf1f2024
:10222400b7e64a095948a0fb0202d209520092b209
:102234005748a0fb0202d208494802809ee70123c6
:1022440035e0022006f03cf9a7e7032006f038f950
:10225400a7e730209de630209be6302099e6362023
:1022640097e6362095e6302093e6302091e630203c
:102274008fe630208de630208be6302089e6302052
:1022840087e6292085e61f2083e613f4806f80d03b
:10229400019b0b44394a9342d1d95b093b4aa2fbc7
:1022a4000323db095b003a4aa2fb0323db082c4a25
:1022b400128803eb52032d4a13806ae7224b1a80db
:1022c4007fe71a4a012414700a46f3e6174a0124e8
:1022d40014700a46f1e6222101231de0284b1988d7
:1022e400002900f0a38012f4806f7ff47aae0221fb
:1022f400032399e000202de600202be6254a1078e0
:1023040000283ff45eae9a1e92b2012aadd98a1e0d
:1023140092b2012aabd900201f4a1278002a7ff416
:1023240062ae002b66d1292033e600bf0b2a0020c1
:10233400ea290020ec290020e02600209c26002029
:10234400d2290020d0290020f2290020f0290020e1
:10235400c4290020cc290020132a0020102a0020a0
:10236400d6290020d4290020d8290020da290020e9
:102374000a2a0020122a0020de2900201fa10700bb
:10238400e829002089b5f814ca290020c55a7c0a16
:10239400cdcccccc202a0020072a002000232d4ab3
:1023a40013802d4a1380b2e62c4b4ff480611980c0
:1023b400134624e62a4b19880029f5d10b4624e05c
:1023c40012f4806f30d1032b3ff453af03293ff451
:1023d40052af12f4007f3ff4eaad022b9cd1029b72
:1023e400204a53625360204a5362536002231f4ab7
:1023f400127812b900293ff444af1d4a0124147025
:10240400174a1288002a7ff41eae1a4a12881ab19b
:10241400124a4ff4006414809a1e92b2012a7ff685
:1024240050af0a46ebe50221032bd6d1029b0d4a9d
:10243400536253600c4a536253600323d7e70d4938
:10244400098821b112f4806fedd00321c5e70b4652
:1024540062e700bfcc290020ca290020ec29002013
:10246400ea290020e02600209c260020072a0020dc
:08247400102a0020e8290020d5
:020000040000fa
:10247c002de9f0419b4b4ff6ff721a809a4b0122cb
:10248c001a7010f0100723d0984a137823f0100319
:10249c00137001270e4600f00f05944b1c7805ebca
:1024ac00041404f0ff04442c00f0ba8000f2ad8058
:1024bc00222c00f0a4801ad9242c40f09d808c4949
:1024cc008c4802f0c7ff8046002840f0b380a7e09c
:1024dc00864b1b7813f0100f04d000f00f02012a6a
:1024ec0040f0ad8203f00f03804a1370d2e7122c38
:1024fc0000f08580804b00221a80a4f11103772b09
:10250c0000f25e82dfe813f0c5011601b700280265
:10251c005c025c025c0228025c025c025c025c02f3
:10252c005c025c025c025c02af01c80128023a0149
:10253c005c025c025c0228025c025c025c025c02d3
:10254c005c025c025c025c02000128025c02280254
:10255c005c025c025c0228025c025c025c025c02b3
:10256c005c025c025c025c02a3018e012802c801c1
:10257c005c025c025c025c015c025c025c025c0260
:10258c005c025c025c025c025c025c025c025c024f
:10259c005c025c025c025c025c025c025c025c023f
:1025ac005c025c025c025c025c025c025c025c022f
:1025bc005c025c025c025c025c025c025c025c021f
:1025cc005c025c025c025c025c025c025c025c020f
:1025dc005c025c025c025c025c025c025c025c02ff
:1025ec005c025c025c025c029801830128027901a6
:1025fc005c025c025c02c801422c7ff47baf0220bf
:10260c0001f044fe1ffa80f810e0822cf7d004d9b8
:10261c00842c05d0882c03d06ce7482c7ff46aaf4f
:10262c00364b187801f032fe1ffa80f8b8f1000f23
:10263c003ff460af2d4b1b78042b00f05181082b1d
:10264c0000f04a81022b00f04f81b8f1ff0f00f02f
:10265c006081264b187800f00f039d4200f09e819c
:10266c00b8f1000f40f0d681002e40f09d811f4b39
:10267c001d70b046dbe1224b01221a70022001f0e2
:10268c0005fe28b11e4b00221a704ff01508bbe155
:10269c00002005f039fe04f063fa804678b1b8f1f9
:1026ac00ff0f00f0db81104b1b78bbb102f034fd47
:1026bc00032004f098fc124b00221a70c9e70a4b55
:1026cc0000221a7006f066fc80460028e7d10d4bfc
:1026dc0001221a70032004f086fcbae706f01efcf7
:1026ec00e4e700bfce290020082a0020142a00208d
:1026fc00ea290020e8290020e0290020152a0020e2
:10270c00092a0020192a0020af4b1b783bb94ff047
:10271c00000805f008faad4b00221a70ace000205e
:10272c00a94b187005f0f0fd02f0f6fc06f0f6fb74
:10273c008046eee705f0f2fea54b1b78002b00f06f
:10274c003a8104f00dfa804648b1b8f1ff0f00f061
:10275c007881a04b1b7873b102f0defc79e79d4bbe
:10276c0000221a7006f016fc80460028edd19a4b18
:10277c0001221a706de706f0d1fbede7fff74cfb79
:10278c00804648b1b8f1ff0f00f06281914b1b7885
:10279c009bb103f023fd5ce78e4b00221a708f482f
:1027ac0006f0fafb80460028ecd18c4b188805f01b
:1027bc00c7fd8b4b01221a704be706f0effbe8e7e5
:1027cc0005f0aafa804648b1b8f1ff0f00f040813d
:1027dc00804b1b7873b106f053fa3ae77d4b00221d
:1027ec001a7006f0ddfb80460028edd17d4b0122ee
:1027fc001a702ee706f0d6fbede706f0d3fb06f0d9
:10280c003ffa4ff00008734b83f8008021e706f085
:10281c00c9fb804606f034fa6e4b00221a70b8f1f0
:10282c00000f29d106f0bafb03f0d8fc4ff00008da
:10283c00684b83f800800ce706f0b4fb804606f08a
:10284c001ffa644b00221a70b8f1000f14d106f075
:10285c00a5fb804603f0c2fc5e4b00221a70b8f157
:10286c00000f40f0ab8002f057fc06f057fb80469f
:10287c00564b00221a702124b8f1ff0f7ff4e9aef9
:10288c00594b01221a70594b1c80594bc8221a8083
:10289c004fe04e4b00221a7077b9564b1b7813f051
:1028ac000c0f00f0af80544b1b884bb9534b1b885b
:1028bc0063b94ff0fe08a7e0204605f0c6faece736
:1028cc00022005f0f9fd4ff0fe089de0032005f015
:1028dc00f3fd4ff0fe0897e006f064fb06f0d0f92c
:1028ec0006f05cfb03f07afcb8f1160f03d0414bf9
:1028fc0002221a70a9e602f00ffc06f00ffb002072
:10290c0005f072fd012005f06ffd3a4b01221a70a3
:10291c009fe6354b01221a70344b1c80242c16d0a8
:10292c0013d8123ce4b29442afd8314b4ff4fa6254
:10293c001a802f48b0f90030314981fb0321da1796
:10294c00c2eba1029b1a038079e0482c9dd1284b45
:10295c0042f228321a80ece74ff0110879e6214b4d
:10296c001b7853b9244b1b8863b9244b1b886bb958
:10297c00b8f1000f52d1deb979e606f013fb06f080
:10298c007ff9efe7022005f02ffdf1e7032005f0ba
:10299c002bfdede7174b04221a7043e00021124b7c
:1029ac00197002f045fc4ae0284310f0080fd6d10c
:1029bc0045f010055be64ff051084ae641245be711
:1029cc004ff0120820e000bf092a0020202a002026
:1029dc00052a0020082a0020192a0020ec290020b2
:1029ec000d2a00200e2a00200f2a0020e0290020aa
:1029fc00ce290020142a0020ea290020e8290020f2
:102a0c00676666664ff0fe081b4b187800f00f03e4
:102a1c00ab42c3d0284310f0080fa0d1164b1b7843
:102a2c00082bb7d0144a137843f010031370134bd0
:102a3c0000221a704146104b187802f0f9fbbde8e1
:102a4c00f0810e4b01221a700d4b12221a806ce78a
:102a5c000a4b01221a700a4b1c8078e7032004f001
:102a6c00c2fa084b00221a70044b01221a70044b54
:102a7c0013221a8059e700bf142a00200f2a0020c5
:082a8c00e0290020092a0020c6
:020000040000fa
:102a94002de9f04f8bb004900c4616461d46ddf828
:102aa40050809df854b01ffa81fa9b89c3f3032226
:102ab4000692d9b20591072a00f04182ab6993f8d6
:102ac4000090b9f1000f40f05982a0f5e053103b9b
:102ad4009bb21f2b40f25082a0f5b0539bb2b3f5ca
:102ae400007fc0f05682a0f5d0539bb2b3f5007faf
:102af400c0f052824ff23003984208bf89463de24b
:102b040074b3d146049aa2f5e053103b9bb21f2b39
:102b140012d9a2f5b0539bb2b3f5007f0cd3a2f542
:102b2400d0539bb2b3f5007f06d34ff230039a42e1
:102b340002d00023089305e0ab691b78003318bf6b
:102b4400012308932f6a77b1cdf800b0434632468b
:102b540021460498b847039003980bb0bde8f08f62
:102b6400d1460894eee7002e00f0aa81ca4500f28f
:102b7400aa8154460723039300230793049ba3f5d8
:102b8400e053103b9bb2099337e1102a44d0202a2a
:102b940040f060811ee0022b18d81bb2002b40f0dd
:102ba400b280bbf1000f00f097817b8813f00f0f08
:102bb40005d0184410f00f0f08bf08f10208c3f342
:102bc400031308eb43080123079311e1032b23d0dc
:102bd400042b1cd110f00f0f40f08a81089b5bb1cd
:102be4003288b8f800309a4240f085817288b8f88b
:102bf40002309a4240f08281b8f800303380b8f84d
:102c04000230738008f1040801230793f0e01823cd
:102c14000393a1e7072bddd210f00f0f40f0628180
:102c2400b8f80070089b1bb13388bb4240f05d814b
:102c3400099b1f2b00f29380a7f5b0539bb2b3f509
:102c4400007fc0f09780a7f5d0539bb2b3f5007f07
:102c5400c0f09080002f00f08d80122303937be757
:102c64000b2b00f2368110f00f0f40f050817a8860
:102c74000732d2104146304605f0a1ff7b881b097c
:102c840008eb430801230793b2e02d2b3bd026d851
:102c94001e2b38d01bd8152b01d01b2b14d110f0b0
:102ca4000f0f40f02e81b8f800303380b8f80230ae
:102cb4007380b8f80430b380b8f80630f38008f1b4
:102cc40008080123079393e01823039344e71f2b79
:102cd400a2d0202b3ff47eaf182303933ce7372b7d
:102ce40009d8302b0fd22e2b96d02f2b3ff472af56
:102cf4001823039330e7a3f518739bb2032bb2d9bf
:102d04001823039328e77a88a54b33f8122000f0a0
:102d14000f0c02fa0cf1338823ea01031bb2bbf156
:102d2400000f10d09bb2b8f8002011400b43338041
:102d34007b88184410f00f0f40f0b28008f10208ad
:102d44000123079354e0b8f8001031ea020e40f072
:102d5400c6800a4002fa0cf213439bb2e7e7049bd5
:102d6400a3f5e153123b9bb2012b03d8012c07d0ee
:102d7400082c14d0378008f102080123079337e0a8
:102d84003388bb4207d03946049801f059fe0390ba
:102d940000287ff4e1ae834b01221a70eae7824aed
:102da40000235361814911615360814a5361116168
:102db400536017f0020fddd07b4a5385138582f8e8
:102dc40040307b4a5385138582f84030d2e7002c8b
:102dd40061d07b8813f00f0f05d0184410f00f0f4b
:102de40008bf08f102081b0908eb430818230393e2
:102df400631c9bb24c4556d01c46e6b2314628466d
:102e040005f04afd07462946304603f063fcba88bc
:102e1400684b1b7803ea920313f00e0fd7d0ae6908
:102e2400002c7ad0c0f30f1306eb4306a24506d05c
:102e3400bbf1000fdcd0a245dad8002c70d03b885f
:102e4400b3f5e06f06d37a88082a3ff69eae02f106
:102e54002f039bb2112b3ff422af3ff616af052b85
:102e64003ff451af7ff697ae082b7ff6d3ae092b14
:102e74007ff4f6ae10f00f0f46d17a880732d210e5
:102e84004146304605f09bfe7b881b0908eb43084e
:102e940001230793ace708f1020818230393a7e77b
:102ea40001230793a4e7079b002b039b18bf002370
:102eb400039351e6112303934ee61a2303934be63f
:102ec4000023039348e60723039345e61323039360
:102ed40042e6182303933fe6182303933ce61223a8
:102ee400039339e60523039336e61c23039333e661
:102ef4000523039330e61c2303932de61c2303933d
:102f04002ae60523039327e60523039324e60523f2
:102f1400039321e6052303931ee6baf1000f87d13c
:102f2400069b072b8bd0b8f80030dab20599914292
:102f3400ccd3338008f102080123079358e7bbf18f
:102f4400000fe7d14ff00009ca45b3d821462846ff
:102f540005f0a2fc8288174b1b7803ea920313f056
:102f64000e0f7ff4cdad12f0380fa6d1002a0cbf9e
:102f7400052307230393efe5ddf81490bbf1000f5d
:102f8400e2d0002c7ff4bead0eb198f80090089406
:102f9400d8e5ddf81490f1e7ddf81490eee700bf12
:102fa400a0890000202a0020e0260020a08601003d
:082fb4009c260020142a0020d5
:020000040000fa
:102fbc002de9f04f89b08046049114460293129d7e
:102fcc009df84ca01ffa81f919469b89c3f3032283
:102fdc000792dbb20693072a00f06d81b0f5805f93
:102fec00c0f063818b6993f800b0baf1000f10d078
:102ffc00cdf818b0029bde6986b1cdf800a02b4647
:10300c00224604994046b0470390039809b0bde8a6
:10301c00f08fcdf818b051e1cb46ebe7b8f5805ff7
:10302c0004d2049b83b903934c4605e0cb4508d3eb
:10303c004c460023039304930027cdf814a0c246fa
:10304c00cee100230393e0e7049e3146029c204628
:10305c0005f01efc42880732d21006f1804101397e
:10306c00a36953f8211011f0010f22d094b221f072
:10307c0001026608012c0dd9002113881b0a2b8034
:10308c0032f8020f43ea002325f8023b01318bb2e0
:10309c00b342f2d314f0010f00f0ec802b8803f450
:1030ac007f432b80128843ea12232b800023039347
:1030bc00abe70b882b804b886b80043a0431281dbe
:1030cc0005f079fd002303939fe7079b072b00f086
:1030dc002781069b25f8023b7de1bcf1100f34d013
:1030ec00bcf1200f40f02f811de0022b17d81bb232
:1030fc00002b40f08580059b002b00f0c18073886d
:10310c0013f00f0f04d0984418f00f0f08bf0235be
:10311c00c3f3031305eb4305012304935be1032b7a
:10312c0013d0042b0cd118f00f0f40f0af8032f8f5
:10313c0010302b804b886b800435012304934ae1bb
:10314c001823039361e7072bedd218f00f0f40f013
:10315c009a8032f8103025f8023b012304933ae1af
:10316c000b2b00f28a8018f00f0f40f095807288bc
:10317c000732d210284605f01efd73881a0905eb9c
:10318c00420513f00f0f62d02b782b800123049390
:10319c0021e12d2b34d020d81e2b31d016d8152b55
:1031ac0001d01b2b0fd118f00f0f72d132f8103049
:1031bc002b804b886b808b88ab80cb88eb80083561
:1031cc000123049307e1182303931ee71f2bbcd0a4
:1031dc00202ba8d01823039317e7372b08d8302bb4
:1031ec000ed22e2bb1d02f2b9dd0182303930ce78e
:1031fc00a3f518739bb2032bb5d91823039304e7db
:10320c0008f00f0c7388854931f8133003fa0cf36e
:10321c009bb232f81000bcf1000f00d12f802a882d
:10322c00059959b1034013432b807388984418f0c7
:10323c000f0f09d1023501230493cce0034043fa6c
:10324c000cf313439bb2efe701230493c3e0012378
:10325c000493c0e001230493bde0049b002b039b6b
:10326c0018bf00230393d0e611230393cde6052367
:10327c000393cae600230393c7e618230393c4e61b
:10328c0018230393c1e605230393bee6052303939a
:10329c00bbe605230393b8e605230393b5e60523a4
:1032ac000393b2e605230393afe6baf1000f05d002
:1032bc0005230393a9e6baf1000ff3d1069b4b4506
:1032cc00d2d30499029805f0e3fa8388002bced070
:1032dc00534a127802ea430212f00e0f7ff49caeae
:1032ec0003f00703002b0cbf06231a2303938ce671
:1032fc00e1b2029805f0ccfa06468288484b1b785e
:10330c0003ea420313f00e0f43d0b846a14504d094
:10331c00059b002b5fd0a1455dd8002c3ff4d5aeaa
:10332c00029b9a69c8f30f1002eb40013388b3f586
:10333c00e06f08d3b6f802c0bcf1080f3ff6cdae73
:10334c000cf12f039bb2112b3ff42daf3ff621afa5
:10335c00052b3ff455af7ff6c8ae082b7ff6f3aec6
:10336c00092b7ff4fdae18f00f0f98d1728807323d
:10337c00d210284605f01ffc73881a0905eb42058c
:10338c0013f00f0f3ff466af2b782b8001230493bf
:10339c0021e0b8462f80738813f00f0f05d09844a6
:1033ac0018f00f0f04bf6f800235738813f0f00f05
:1033bc0009d03b4625f8027f0133dbb27288c2f399
:1033cc0003129342f6dbb38803f00703002b0cbf08
:1033dc0006231a2303930134a4b2a345fff43daf93
:1033ec00002c85d0baf5805f82d3e6b202993046c4
:1033fc0003f06cf980463146029805f049fa06460e
:10340c008288074b1b7803ea420313f00e0f7ff4fc
:10341c007daf18f00f0fbed1bce700bfa089000034
:04342c00142a00203e
:020000040000fa
:1034300038b50388052b40f25b81991f89b2044699
:10344000c388013b052b00f2e880dfe803f0032d81
:103450004662acbba94b1b8813b148f2040363e07e
:103460000c306289238943ea0243024605f0dcf905
:103470000346a34a0021116047f69572904205d891
:10348000a04a01211160a04a1060b0e047f6fa722c
:10349000904200f2f18000229a490a609a490a603b
:1034a000964a01211180bee0944b1b8813b148f26b
:1034b000040339e04289038943ea02420c3005f0f3
:1034c00051fb034628b98f4b00221a6047f6fd7363
:1034d000d9e08c4a0021116085e0884b1b8823f0dd
:1034e00004039bb2022b02d048f204031ce0428981
:1034f000038943ea0243834a12689a4202d048f29f
:10350000050311e00c3004f0abfe03460028ddd0cb
:1035100069e07a4b1a88012a30d047f6fe7148f2ea
:103520000403042a08bf0b4613f4004f00f0c380c5
:1035300000220521a171e2712381a272e2720623a9
:103540002370627004f10c01a38913f0ff0f00f0e7
:10355000d18013f47f4f00f0cf8002235a0831f856
:10356000122012f0ff0f00f0b28012f47f4f00f033
:10357000aa800233dbb2202bf0d1aae0624d00f129
:103580000c01286805f0ecf903462a685c490a60da
:1035900047f69571884242d802442a6059490a6820
:1035a00001320a6023e0554b1b8813b948f204032b
:1035b000bae74089238943ea004005f011fc47f649
:1035c000ff73b1e74d4b1b88012b04d0042b02d0b5
:1035d00048f20403a8e704f10c02494b196820895a
:1035e00005f06cfc034647f69572934217d8454a9e
:1035f00012680321a1710021e1712281c2f30f42ff
:1036000062819a1d2280414a12880c3a93423b4bb8
:103610000cbf012204221a8011e048f2040347f68d
:10362000fa72934228d800220621a171e271a3f513
:10363000ff43163b2381a272e27221706270344b09
:103640001d78002d49d0a388c3f30b03a380314a12
:10365000127812f0070f02d12e4a012111702d4964
:103660000a7843ea0233a38001320a70204602f04e
:1036700065ff0023184638bda3f5ff427c3a92b29d
:10368000012a3ff651af1f490a68501c086000210b
:103690000420a071e1712281c2f30f4262810622ef
:1036a0002270617047f6fd729342144b0cbf0222e8
:1036b00000221a80c3e70025104b1d80204602f02f
:1036c00057fa2b46d6e70133dbb21f2b01d807335d
:1036d00023800a4b00221a80b1e74021204603f0e4
:1036e00089fc03460028c5d00b4b1c602b46c1e764
:1036f0000623bfe70023eae70123e8e7c629002005
:10370000482900204c29002044290020fa290020c3
:0c371000092a00201e2a00204029002069
:020000040000fa
:10371c00f0b585b0044600238df80f30058905f00f
:10372c007f05052d0fd00388072b40f23c81032d1c
:10373c000dd0052d0bd0012d40f010818389052b68
:10374c0010d9022122e10388092b40f22a81a38996
:10375c0098b2adf80c30b0f5805f77d205238df8b8
:10376c000f30fee0924d00686168a26807c5a2891f
:10377c002a8013f0ff030ed100258e4b1d8004f11f
:10378c000c06e8b204f0a4f926f8020f0135052d59
:10379c00f7d1122022e0013bddb2864b19880029bb
:1037ac0035d0854b1a880c3a92b204f10c0383483d
:1037bc000088adf80c0001397e4801800df10f0135
:1037cc00009103a9284603f0cdfa7c4bbdf80c20e0
:1037dc001a80794b1b88063b181a80b220809df802
:1037ec000f30002b40f0bd80238923f07f0242f084
:1037fc00020222816f4a12886281002a00f0d58071
:10380c0023f0ff0343f0820323818221bee028468c
:10381c0004f05ef94ff48053adf80c30664b198808
:10382c00a1f10e0292b204f10e034000904209dda8
:10383c000c398eb2811a701e014491fbf6f15d4871
:10384c000180bbe75b4900200880b7e705f092f8e0
:10385c00064600287ed0032d0bd0e789ffb205f079
:10386c0097fb4388dbb29f4232d911238df80f307e
:10387c0077e005f08dfb0368c4f80e300023324668
:10388c001946bdf80c0002f053fb4b4b1b88053b53
:10389c000c3080b283420fdc0c229df80f30002bd1
:1038ac005fd1a372e3722280238923f07f03013559
:1038bc001d432581022169e004f1120332460021e7
:1038cc00bdf80c0002f034fb00f10c0292b2e4e7fc
:1038dc003946304604f0dcff036823618388a382f9
:1038ec00e389dbb2e381304605f052fb4388c3f336
:1038fc000323083b9bb2012b0fd877b9304a1668cb
:10390c0050689168c4f81660c4f81a00c4f81e1008
:10391c00127b84f822201c22bfe700233246394652
:10392c00bdf80c0002f004fb234b1a88053a00f199
:10393c0010039bb29a4201dc1022aee704f116038d
:10394c0032463946bdf80c0002f0f2fa00f11002d2
:10395c0092b2a2e708238df80f3002e003238df812
:10396c000f309df80f1000220a23237062702389f8
:10397c0023f07f0343f007032381a272e272114b01
:10398c0053f82130e3600b4b1a800221204603f0e0
:10399c002bfb034610b10c4b1c600023184605b0e2
:1039ac00f0bd0623fae70623f8e70221eee700bf95
:1039bc0064280020fc290020fa290020fe29002080
:0c39cc0084280020207600003c29002008
:020000040000fa
:1039d8002de9f04f85b0814690460023029301936c
:1039e8008df803308df8023001f0030502f003076b
:1039f8002f4417f0030f04d03b1d03f00c03df1b0b
:103a0800ffb208eb05043c44a4b27f2c06d963003e
:103a180003f4fe43e4b21c4344f08004adf80c10f8
:103a2800adf80e80042203a94ff4427002f092f917
:103a38004ff000430393042203a94ff4437002f0ac
:103a480089f905f083f90b238df8083000238df8e8
:103a5800093004238df80a30794e7368db6898477b
:103a68000028fad1764b5b681e68032301aa194621
:103a780002a8b04705f038f9714e7368db689847bb
:103a88000028fad16f4b9df805201a709df8062082
:103a98005a708df803406a4b5b685b6801210df131
:103aa8000300984705f020f9654e7368db6898476e
:103ab8000028fad1b8f17f0f11d9240a8df80340f4
:103ac8005f4b5b685b6801210df10300984705f0c7
:103ad8000bf95b4c6368db6898470028fad15a4bae
:103ae800de78574c4ff0010a0ce063689b6851463a
:103af8000df10200984705f0f7f86368db6898470e
:103b08000028fad1013ef6b2ff2eeed14c4cdff878
:103b180038b100e035466e1ef6b225b363689b687f
:103b280001210df10200984705f0def86368db68b3
:103b380098470028fad1002eecd09bf804504ff09b
:103b4800010a013dedb2ff2de4d063689b68514640
:103b58000df10200984705f0c7f86368db689847dd
:103b68000028fad1ede7364cdff8dca000e0b046db
:103b780008f1ff36b6b2b8f1000f31d0b6fa86f3c5
:103b88005b095b428df8033063681d6801230df102
:103b9800020219460df10300a84705f0a5f863686d
:103ba800db6898470028fad19df8023009f8013bf4
:103bb800002edcd09af804504ff00108013dedb218
:103bc800ff2dd4d063689b6841460df102009847e9
:103bd80005f08af86368db6898470028fad1ede7b2
:103be800174c194e00e02f467d1eedb21fb36368d7
:103bf8009b6801210df10200984705f075f863688c
:103c0800db6898470028fad1002decd037794ff0bf
:103c18000108013fffb2ff2fe5d063689b6841466a
:103c28000df10200984705f05ff86368db68984774
:103c38000028fad1ede705f07ff805b0bde8f08f70
:0c3c480074280020c0290020b4270020b0
:020000040000fa
:103c540038b5804b1b78002b68d07f4bb3f900300c
:103c6400002b6bd17d4b1b88c3f30714242b32d05c
:103c740011d8123b9bb2012b00f2e680784b1b78e3
:103c840033b301f04dfa774b1b78002b00f0de8044
:103c9400754b1d8815e0482b12d1744b1b78002bf3
:103ca40029d0734b1b78002b30d0724b1b78002b20
:103cb4003dd1714b1b88002b0cbf1a251b2526e018
:103cc4000025002c32d0634b00221a7055b327e034
:103cd40005f028f9d5e7624b1b784bb102f082fa64
:103ce400604b1b78002b00f0b3805f4b1d88e8e726
:103cf40005f058f9f2e7604b1d88d5b95f4b0122f6
:103d04001a70544b00221a7008240be02d25544bd2
:103d14001b7883b104f0b8ff44b14e4b00221a70f3
:103d240044f010042946204601f086fa38bd1a25cd
:103d3400ede71b25ebe705f039f9ebe7474b1b886b
:103d4400242b46d01bd8123b9bb2012beed8444bfc
:103d54001b78002bead0424b00221a7005f01ef9a2
:103d6400054600282ed1464b01221a703b4b1c7885
:103d740014f00f04dad0374b00221a70d2e7482b24
:103d8400d4d1374b1b78002bd0d0384b1b78002b69
:103d940040d03c4bb3f90030002bc7dd3a4ab2f9ae
:103da40000209a42c2db0023364a1380364a13802d
:103db4002b4a137005f0f8f828bb304b01221a7017
:103dc400082415e0ff28b1d005f0acf801f0a8f9fb
:103dd400ace7234b1b78002ba8d0214b00221a7090
:103de4002a4805f0ddf838b9294b01221a70042459
:103df4000025184b1d7095e7ff2897d005f0d2f8e1
:103e040002f0f0f992e7ff2890d005f0cff804f023
:103e14003bff8be7184b1b881bb1164b1b78002b01
:103e240084d00f4b00221a7005f0bef820b9134b52
:103e340001221a700824dbe7ff283ff477af05f06e
:103e4400b5f804f021ff71e700253ae7012563e79f
:103e5400012561e70f2a0020ce290020e029002057
:103e6400082a0020112a0020ee2900200b2a002015
:103e74000a2a00200c2a0020ea2900200e2a002009
:103e8400192a0020de290020dc290020ec2900204a
:043e94000d2a0020d3
:020000040000fa
:103e98002de9f04f85b081460d46904600230293e8
:103ea80001938df803308df80230adf80c10adf8a1
:103eb8000e20042203a94ff4447001f04bff4ff089
:103ec80000430393042203a94ff4457001f042ff15
:103ed80005f0030505eb080717f003071cbfc7f13a
:103ee8000407ffb204f032ff02238df808300023e4
:103ef8008df8093020238df80a30654c6368db683b
:103f080098470028fad1624b5b681c68032301aa12
:103f1800194602a8a04704f0e7fe5d4c6368db6819
:103f280098470028fad15b4b9df805201a709df838
:103f380006205a70584b9e7c554c4ff0010a013ea2
:103f4800f6b2ff2e0dd063689b6851460df1020052
:103f5800984704f0c9fe6368db6898470028fad1df
:103f6800ede74b4cdff830b100e035466e1ef6b297
:103f780025b363685b6801210df10300984704f0dd
:103f8800b3fe6368db6898470028fad1002eecd0ae
:103f98009bf813504ff0010a013dedb2ff2de4d01c
:103fa80063689b6851460df10200984704f09cfe37
:103fb8006368db6898470028fad1ede709f1ff3913
:103fc800334cdff8d4a000e0b04608f1ff36b6b2b3
:103fd800b8f1000f28d019f8013f8df80330636855
:103fe8005b6801210df10300984704f07dfe6368ca
:103ff800db6898470028fad1002ee5d09af81350cc
:104008004ff00108013dedb2ff2dddd063689b68dc
:1040180041460df10200984704f066fe6368db68cc
:1040280098470028fad1ede7194c1b4e00e02f46bf
:104038007d1eedb237b300238df8033063685b68eb
:1040480001210df10300984704f04efe6368db6818
:1040580098470028fad1002de9d0f77c4ff00108e5
:10406800013fffb2ff2fe2d063689b6841460df124
:104078000200984704f038fe6368db689847002818
:10408800fad1ede704f058fe05b0bde8f08f00bfa7
:0c40980074280020c0290020b42700205c
:020000040000fa
:1040a400f0b585b00023039304224ff4a06103a864
:1040b40002f006f9039c002c01db05b0f0bd04f00e
:1040c400e064042240f204510deb020002f0f8f81f
:1040d4000198039b23f0e0430393b4f1807f28d03d
:1040e40018d9b4f1007f42d0b4f1806f40f0bf80a2
:1040f400614b1b88082b5ad0604b1b68002b00f0c7
:10410400a0809847002800f09780039b43f0005359
:10411400039302e0002c40f0aa80594b00221a803d
:10412400039b029304224ff4a06102a802f074fde1
:10413400c3e7544a12683ab190470028edd0039b74
:1041440043f000530393e8e7b0f5006f0bd84e4af1
:10415400146844b1484b1a884ff4a16104eb400041
:1041640002f05afdd9e743f000530393d5e7474ad9
:10417400126852b1904718b1039b43f00053039364
:10418400434b4ff47a721a80c7e7b0f5006f0ad830
:104194003d4a14683cb102224ff4a16104eb400093
:1041a40002f08ef8ece743f000530393e8e7354d53
:1041b400354e314f2ce0039b43f000530393ace79f
:1041c4003368002b33d03a884ff4a16103eb4000ed
:1041d40002f022fd039b23f0f04303930293042295
:1041e4004ff4a06102a802f017fd04224ff4a0616d
:1041f40003a802f065f8039c04f0e064042240f292
:1042040004510deb020002f05bf8b4f1806f84d12d
:104214000198b0f5006fced82b68002bd0d098470a
:104224000028d7d0039b43f00053039375e7039b07
:1042340043f00053039370e7039b23f0006303935d
:104244006be703f0cffa68b90f4b186850b104223a
:104254004ff4a161103002f0dffc039b23f00063f4
:1042640003935ae7039b43f00063039355e743f03a
:104274000053039351e700bfc22900200429002002
:104284009228002000290020282900200c29002041
:04429400be2900201f
:020000040000fa
:10429800704b1a8841f6fe739a4240f2d78070b587
:1042a8000446002004f03efc436813f4803f03d02a
:1042b80003f00c02042a01d0162070bd13f0020f7f
:1042c800fad00268130c223b9bb2de2bf4d8a2f57d
:1042d80080539bb2b3f5805feed2012004f022fc3c
:1042e800436813f4803fe7d013f00c0fe4d113f0c8
:1042f800020fe1d003681a0c223a92b2de2adbd808
:10430800a3f580539bb2b3f5805fd5d2032c14d8a4
:10431800032c44d0504b1b78a34240f299804f4e57
:104328004d4d204604f0fefb436833600134e4b28f
:104338002b78a342f5d80020bfe7494b01221a7019
:10434800032004f0effb0268130c406810f4803f70
:104358003ad0002b3ed043490988994201d0032125
:1043680039e0013b9bb2432b3ad810f00c0f39d1fe
:1043780092b23d4b1978022905d03c4b1b889342d9
:1043880007d0022127e0a2f5805293b2b3f5805fef
:1043980021d210f0020f02d0314b00221a700220f5
:1043a80004f0c0fb0268130c406810f4803f42d050
:1043b800002b47d02e490988994215d003210220a5
:1043c80001f056fb1d2078e7264a12881343e6d0f1
:1043d800032100e00421032001f04afb1e206ce7c2
:1043e8000321f8e70421f6e7013b9bb2432b2bd8c6
:1043f80000f00c03042b01d00421e0e792b21a4b21
:104408001978022905d01b4b1b88934207d002213b
:10441800d5e7a2f5805293b2b3f5805fcfd2c0f34f
:104428008012154b1a7010f0020f3ff473af0c4b4b
:1044380000221a706ee70e4a128813433ff46aafdf
:104448000321bce70421bae70321b8e71420704729
:10445800002032e7e6290020152a002050290020f4
:10446800072a0020e8290020142a0020e229002039
:0c447800ea290020e4290020132a00207b
:020000040000fa
:104484002de9f04f87b0039003a803f06bfe0028da
:1044940003da002007b0bde8f08f039b1b095d1e03
:1044a400202d0fd9023b5e4ab3f5007f35bf02ebe6
:1044b400d30302ebd31313f8045c13f8045c34bf86
:1044c400013511350123a5f12001c5f1200203fabc
:1044d40001f923fa02f203fa05f8d8f1000849eacf
:1044e400020969eb4909cde90089dff84081dff869
:1044f40030914746d8e90023009902ea010a01995c
:1045040003ea010b5aea0b0342d1039b05a81033bb
:10451400059304f049fb18b9424b0c221a60b9e721
:10452400d8f80852a84206d0059b103b05930123f6
:1045340000f110058360059bea18012143f0010393
:10454400b5f1080442f8083c42f8041cc7f80822f4
:1045540045f8043c9dd0204604f044f888b155f851
:10456400083c55f8041c23f00103e31a5a6822f0ae
:1045740001020a445a6055f8041c21f001016250fa
:104584001c462046039904f045f804f1080081e72d
:104594005446254bbaf1000f34d1cbf1000000eaa8
:1045a4000b00434309ebd36393f83c602036304659
:1045b40004f064fa731c57f8334007ebc303083b59
:1045c4009c4297d0272e26dd0235ae4201dc3f2ed9
:1045d40021d16268039922f00102551a284603f09a
:1045e400ebfe864217d1e068a6686318d8609e6027
:1045f40083609868c36041f0010060505d60a5501d
:104604006060bee7caf100002040434309ebd36376
:1046140093f83c60cbe73146204603f031fab0e72b
:10462400287a0000b429002029e66b070020002026
:020000040000fa
:1046340010b5564a536803f47063d26912f0010f3f
:1046440031d0524ad06852494a69c9688a422ad24a
:104654006bb94f4b5968541c5c6188544b4bdb69f4
:1046640013f0020f3fd0494b02225a6125e0484b18
:104674005968541c5c6121f81200444bdb6913f047
:10468400020f30d0414b02225a61414a9369926829
:10469400934245d23e4a1168581c906131f8132068
:1046a4003a4b1a6115e0394ad26912f0020f1ad056
:1046b400364a02215161002be7d1354a9369926849
:1046c400934221d2324a1168581c9061ca5c2f4b24
:1046d4001a612f4b9a699b689a422cd02c4b5a69c9
:1046e400db689a422cd02b4b1b7863b1274bdb69d8
:1046f40013f0040f04d0264b5a69db689a4225d084
:10470400224b04229a6110bd214b1b69002b30d02f
:104714001e4bff221a611e4a1369013b1361d8e73d
:104724001b4b1b692bb3194bff221a61184a1369df
:10473400013b1361cde7164b1b69002bced11de065
:10474400124b01225a6102229a61cce7104b0022db
:104754001a770e49072048610e490a701b6a002b1c
:10476400d1d00b4a506a98470a4b1b78002bc7d10b
:10477400c9e7074b9a699b689a42afd1054b01225e
:104784001a70024b044a1a60ade700bf00340042bd
:0c4794008c270020db2700200200000121
:020000040000fa
:1047a00030b583b04ff48033019302f0c1fe4b4b20
:1047b0001b78002b3cd103f0dbf8044610f0200fef
:1047c0003ed114f0010f4ed0454b1b78002b3ad050
:1047d00014f0100f5fd1424b1b78002b5bd13f4b85
:1047e0001b781bb3019b13f4803f57d014f4007f58
:1047f0005cd1019b13f4003f63d03a4b1b7883b923
:1048000003f058f8374b1b78002b5fd0019b43f027
:1048100000730193042240f60c010deb020002f03c
:10482000fdf903f0a5f810f4807f53d103b030bd3b
:10483000042240f60c010deb020001f043fdbae743
:10484000fff730fcbde70025009504224ff490717e
:10485000684601f037fd24f01104a4b229469df802
:104860000000fdf70bfe14f0100fb4d01c4b1b78aa
:104870008bb91d4b187810f0100fb0d120f0100339
:10488000012bacd024f01004a4b2002100f00f00e2
:10489000fdf7f4fd9fe7fff7ddf9a0e7124b18786d
:1048a000002100f00f00fdf7e9fd9fe70f4800230e
:1048b000036004220e4b198802f0b0f901f0d6ff14
:1048c00097e7084b1b78002babd099e7019b23f0af
:1048d00000739ee701f050f8a8e700bf192a0020f6
:1048e0000f2a0020182a0020142a00205429002012
:0448f000f629002085
:020000040000fa
:1048f4002de9f04186b00e468df807200023adf86f
:10490400163004938df80f308df80e300b238df88c
:104914001430030a8df815308df8160004f018fad7
:10492400444c6368db6898470028fad1414b5b68c4
:104934001c68032304aa194605a8a04704f0d6f965
:104944003c4c6368db6898470028fad13a4b9df8e1
:1049540011201a709df812205a70364b5b685b6800
:1049640001210df10700984704f0c0f9314c636848
:10497400db6898470028fad1304bdd782d4c0127ad
:10498400013dedb2ff2d0dd063689b6839460df1f2
:104994000e00984704f0aaf96368db68984700287a
:1049a400fad1ede7234c254f1be03d794ff0010888
:1049b400013dedb2ff2d0dd063689b6841460df1ba
:1049c4000e00984704f092f96368db689847002862
:1049d400fad1ede79df80730013bdbb28df80730e3
:1049e4001bb39df80730012b4ff0ff3318bf002392
:1049f4008df80f3063681d6801230df10e0219460e
:104a04000df10f00a84704f071f96368db6898475b
:104a14000028fad19df80e3006f8013b9df80730c6
:104a2400012bc2d100238df8073004f087f906b0ba
:104a3400bde8f08174280020c0290020b42700209c
:020000040000fa
:104a4400222913d8dfe801f07f144b6512121212e9
:104a54001212121212121212121212121212121232
:104a6400121212121212121212123900122070476c
:104a740041f63243984213d041f63343984266d10b
:104a8400394b9b8913f0020f63d0384b1b88002be2
:104a940061d1374b1b88002b0cbf122000207047bc
:104aa400324b1b88002b50d0324b9b8903f00203fe
:104ab400002b0cbf12200020704741f6334398426c
:104ac40001d012207047284b9b8913f0020f44d069
:104ad400264b1b88002b0cbf12200020704741f688
:104ae400324398420cd041f63343984237d11e4b9f
:104af4009b8903f00403002b0cbf12200020704795
:104b04001c4b9b8903f00403002b0cbf12200020d4
:104b1400704741f6324398420cd041f633439842f1
:104b24001fd1114b9b8903f00803002b0cbf1220eb
:104b3400002070470f4b9b8903f00803002b0cbf28
:104b44001220002070470020704712207047122066
:104b540070471220704712207047122070471220ad
:104b640070471220704700bf9c260020ea290020cd
:084b7400e8290020e0260020e2
:020000040000fa
:104b7c0030b40c46002930d000282ed04449097f8f
:104b8c0000297bd1424908604a6000254d618d6146
:104b9c000d613f498c60002a72d03d4ad3600121df
:104bac0011773c4ad268a34282bf1a1b38490a616a
:104bbc001a463849496811f4706f38d1002c2ad044
:104bcc000178344a116132498a6901328a61002bb9
:104bdc0048dd01202f4b98614ae0002b47d0002a7a
:104bec0048d02b49097f002946d1294908604a60e1
:104bfc0000254d618d610d610028cad12c468d6058
:104c0c00002acad122490022ca6001240c7721490a
:104c1c00c9681446cde71e4a1269002ad7d01d4a2e
:104c2c00ff2111611a490a69013a0a61cfe7640848
:104c3c0017498c600d696d080d615208ca603cb152
:104c4c000188144a116112498a6901328a61bee7ee
:104c5c00002dbcd00f4aff2111610d490a69013aa0
:104c6c000a61b4e70b4b02229a61012000e000209c
:104c7c0030bc70470020fbe70020f9e70020f7e785
:104c8c0003490022ca6001250d770249c96890e7e3
:084c9c008c27002000340042c7
:020000040000fa
:104ca40030b583b000230193042211460deb0200ba
:104cb40001f006fb019b2a4c1a0a22701b0c9b0272
:104cc40003f6ff73274a138003f02cfc23784bb1bf
:104cd4000024234de0b203f08bfb01342a78e3b2c5
:104ce4009a42f7d801f090fc00241f4b1c701f4b14
:104cf4001c701f4b1c701f4b1c701f4b1c701f4bd8
:104d04001c701f4b1c701f4b1c801f4b1c801f4ba7
:104d14001c801f4b1c801f4b1c801f4b1c801f4b77
:104d24001c701f4b1c701f4b1c801f4b1c801f4b87
:104d34001c801f4b1c8001201e4b1870214600f064
:104d44007bfa1d4b1c801d4b1c701d4b1c7003f00b
:104d540069fb03f08fff204603f0dafa03b030bd9d
:104d6400152a0020e6290020092a0020082a00200c
:104d74000f2a00200c2a00200e2a00200d2a0020d1
:104d8400132a0020cc290020ca290020d42900207d
:104d9400d6290020d8290020da2900200b2a002057
:104da400112a0020ee290020ec290020ea29002005
:104db400e8290020142a0020e0290020162a0020d7
:044dc400102a002091
:020000040000fa
:104dc80000297ad02de9f0470c46404b1e68b6f50d
:104dd800002f75d23e4b1b680b44b3f5002f5cd8ef
:104de800174605463b4b1b6801eb0308b8f5005f07
:104df80059d9c3f50052dff8e0a0caf80020dff85f
:104e0800dc90014609eb030003f0d7fedff8c4800d
:104e18004ff40053c8f800304946304602f0f4ff1a
:104e2800d8f80010294b1a680a441a60284a1368ef
:104e38000b441360daf800100023c8f80030641a35
:104e4800a4b222462944484603f0b7fec8f80040f9
:104e5800204b1b68b3f5005f0dd0002f33d1b3f59d
:104e6800005f08d2c3f500521b490a60ff211b48a6
:104e7800184403f0b9ff154c1849206802f0c4ff24
:104e880014490868226802442260114a13680344de
:104e9800136000200860bde8f0870d4b00221a60ff
:104ea80048f20300f7e70a4601460c48184403f0a5
:104eb80084fe084bc3f80080cae748f20d0070472b
:104ec80048f20d00e7e70020e5e700bf6c29002065
:104ed8007029002074290020782900200000002073
:020000040000fa
:104ee8002de9f04385b00f4616460023adf80e3085
:104ef80002938df807308df8063003238df80c30b7
:104f0800030a8df80d308df80e0003f01fff394ca1
:104f18006368db6898470028fad1364b5b681c68e1
:104f2800032302aa194603a8a04703f0ddfe314c6b
:104f38006368db6898470028fad12f4b9df8092051
:104f48001a709df80a205a702c4b1d78294c4ff086
:104f58000108013dedb2ff2d0dd063689b68414605
:104f68000df10600984703f0bffe6368db689847b9
:104f78000028fad1ede7013f1e4cdff8808017e0ea
:104f880098f801504ff00109013dedb2ff2d0dd009
:104f980063689b6849460df10600984703f0a4fe34
:104fa8006368db6898470028fad1ede7013ef6b25e
:104fb800012e4ff0ff3318bf00238df807306368c8
:104fc8001d6801230df1060219460df10700a847d7
:104fd80003f08afe6368db6898470028fad19df8d9
:104fe800063007f8013f012ecad103f0a5fe05b02f
:104ff800bde8f08374280020c0290020b4270020d1
:020000040000fa
:1050080070b5adf5804d3e4b1b7823b1012b24d1f3
:105018003c4e3d4c3ce003f0dbfd0028fbd13b4c13
:105028003b4a0121204603f0b7fe2378002b394b79
:10503800a3f5002218bf1346374a136002f096fe04
:1050480000f016fc03f054ff02f0c4fd01242e4bbf
:105058001c7003f0b1fc2a4b1c700df5804d70bd1f
:105068004ff43c224ff400510deb010003f094fe85
:1050780003f0d2fe80f01000c0f300100df57f534e
:105088003833187021e001f085f92378012be4d139
:1050980003f016ff0128f6d103f09afd0028fbd192
:1050a8004ff478324ff40061684603f075fe0df551
:1050b80000554ff43e224ff40061284603f06cfe81
:1050c8009df800202b789a42cad00df500514ff474
:1050d8003c2003f065f803f07bfd0028fbd103f0ca
:1050e80063fe03f075fd0028fbd14ff400231b6815
:1050f8003268b3f1ff3fc6d083f308881047c2e790
:10510800bc29002004000800042a00202d2a0020c1
:0c511800fcdf0300300e080028290020f6
:020000040000fa
:1051240010b582b00020374b187003f061f90120ec
:1051340003f05ef9344b1868e8b100f017fd334b07
:105144001868f0b1304b1b6898421ad017e000f091
:105154000dfd204603f07afb0028f8d12c4c01e029
:1051640000f004fd204603f071fb0028f8d103f0a1
:1051740059f902b010bd254b186800283cd000f046
:10518400f5fc244b186848b11f4b1b68984205d0a6
:105194001e4b1b68834201d000f0e8fc01f03afe8c
:1051a40003f0a6fc00241c4b1c60174b1c60194b1d
:1051b4001c60164b1c60194b1c700194042240f6b1
:1051c4000c010deb020001f07bf8019b23f000734e
:1051d4000193042240f60c010deb020001f01cfdca
:1051e4000f4b1c700f4b1c700f4b1c700f4b1c7023
:1051f4000f4b1c700f4cace7064b18680028c7d146
:10520400cce700bf192a00205c2900206029002077
:10521400582700205829002064290020182a00203b
:105224001c2a00201b2a00201d2a00201f2a0020df
:085234001e2a0020242700209f
:020000040000fa
:10523c0030b583b004460d463d4b1b7883421cbff2
:10524c003b4b18704ff6ff7399421bd1384b1b78b0
:10525c00019304224ff498710deb020001f0d8fc7d
:10526c0014f0100f22d0a5f11a039bb2182b30d8d2
:10527c00304a22fa03f313f0010f2ad02e4b0122ed
:10528c001a7016e0019104224ff49a710deb020092
:10529c0001f0befc264b1b78019304224ff498714d
:1052ac000deb020001f0b4fc002dd9d1224b0022f1
:1052bc001a7021490b7843f010020a7004f00f04a5
:1052cc00013c072c13d8dfe804f00f222e26121213
:1052dc00122a1a4b1b78012bd0d01b2d164b0cbf4e
:1052ec0002220d221a70e4e7154b002119701449a3
:1052fc000b7843f010030b7043ea02230093042253
:10530c004ff49c71684601f083fc03b030bd0c4b2c
:10531c000d211970ebe70a4b01211970e7e7084bd7
:10532c000f211970e3e7064b0e211970dfe700bf60
:10533c00142a002001000801162a0020112a00203e
:04534c00172a0020fc
:020000040000fa
:1053500038b5364b1b7813b902f094fc38bd02f017
:1053600067fc10f4806f1dd0314b1b782bb1314b93
:105370001b7813b1304b00221a80304b1b8d13b1b8
:10538000013b2e4a13852d4b1a8d2d4b1a852d4b23
:1053900001221a702c4b00221a802c4b1b7863b30d
:1053a00001f0b8fe254b5b88012b38d0284b1b78c9
:1053b0002bb1234b5b88012b34d0222b32d002f04f
:1053c00037fc10f4806fc7d01c4a538d01339bb259
:1053d00053851b4a53851f4d1f4c042229882046a4
:1053e00003f072fc29881d4b1b88194404390422e0
:1053f00089b2204603f068fcaee7164d164c042235
:105400002988204603f060fc2988144b1b88194426
:105410000439042289b2204603f056fcc2e703f0a7
:105420006bf8c3e702f072f9c9e700bf102a002049
:105430000a2a00200b2a0020f0290020e026002064
:105440009c2600200c2a0020ca2900200e2a0020b9
:105450000d2a0020e429002054290020ea290020f8
:020000040000fa
:105460002de9f04f83b0009001913f4b1c8884b32d
:105470004ff000099a464ff0010bc84618e01d4650
:10548000b4693146e8b201f027f9c0f30f1014f8ff
:10549000104044441ffa84f86b1c9bb2bd42eed10d
:1054a00009f10109baf800201ffa89f39a420fd9cd
:1054b0001ffa89f30aeb4303588803f061fa0646a2
:1054c00000283dd083691f88002fe9d05d46d7e7cb
:1054d00044460734c4f3cf08244b1888002840d032
:1054e0004ff0000a5546dff884b018e01c46d6f8a5
:1054f00018903146e0b201f0eff8c0f30f1019f840
:1055000010301d44adb2631c9bb2bc42eed10af117
:10551000010abbf800201ffa8af39a420ed91ffa3b
:105520008af30beb4303588803f02afa0646a8b126
:1055300083691f88002fead00124d8e7002003e008
:105540004ff0000845462520eb1ddb10009a138024
:10555000019ba3f8008003b0bde8f08f0025242054
:10556000f2e70546f0e700bf8029002084290020eb
:020000040000fa
:1055700008b5354b00221a80344b1b78002b3dd0e8
:10558000334b1b781bb1334a138801331380324be2
:105590001b883bb3314a128893421dd2304b1b8883
:1055a000002b41d02f4b1b8d2f4a12899a4219d3c1
:1055b00003332c4a138515e00023284a13802b4a15
:1055c00013850fe002f0a2f8294b1b88012b15d19f
:1055d000204b00221a8011e0214b1b888bb1013235
:1055e0001e4b1a8002f088ff194b1b7833b1204bf9
:1055f0001b881bb1174a12889a42e3d002f042fb83
:1056000008bd1c4b1b88002be9d002f011fb10f4e5
:10561000006fd1d1114b1b880f4a12889a42e1d3f7
:1056200001330e4a1380dde7124a1288002ad9d0ce
:10563000002bd7d10d4b1b8d0b4a12899a42e4d314
:1056400003330a4a1385e0e7d42900200b2a0020ff
:105650000d2a0020d0290020f2290020f029002066
:10566000ea290020e0260020942800209c26002023
:08567000d2290020e8290020e6
:020000040000fa
:10567800534d206f757470757420706172616d651b
:105688007465720053796e6368726f6e697a6174bb
:10569800696f6e2054797065004379636c65205496
:1056a800696d65000053796e6368726f6e697a611f
:1056b80074696f6e20547970657320737570706f9c
:1056c80072746564004d696e696d756d2043796308
:1056d8006c652054696d650043616c6320616e647c
:1056e80020436f70792054696d6500004765742008
:1056f8004379636c652054696d650044656c617914
:105708002054696d650053796e6330204379636c6a
:10571800652054696d6500534d2d4576656e74207e
:105728004d6973736564004379636c652054696dd2
:105738006520546f6f20536d616c6c005368696607
:10574800742054696d6520546f6f2053686f7274ac
:105758000000000000000000000000000000000041
:1057680000000053796e63204572726f7200ff006b
:020000040000fa
:10577800534d20696e70757420706172616d657427
:1057880065720053796e6368726f6e697a617469c5
:105798006f6e2054797065004379636c6520546995
:1057a8006d65000053796e6368726f6e697a617413
:1057b800696f6e20547970657320737570706f729d
:1057c800746564004d696e696d756d204379636c0d
:1057d800652054696d650043616c6320616e6420c7
:1057e800436f70792054696d6500004765742043e4
:1057f80079636c652054696d650044656c61792036
:1058080054696d650053796e6330204379636c6524
:105818002054696d6500534d2d4576656e74204d95
:105828006973736564004379636c652054696d65b9
:1058380020546f6f20536d616c6c005368696674f7
:105848002054696d6520546f6f2053686f7274001f
:105858000000000000000000000000000000000040
:10586800000053796e63204572726f7200ff00006a
:020000040000fa
:10587800f0b583b000242e4b1c602e4b1c602e4bc1
:105888001c602e4b1c602e4b1c602e4b1c602e4b3c
:105898001c602e4b1c602e4b1c602e4b1c60fff7af
:1058a800fdf900f0d1fa2c4b01221a702b4b1c7019
:1058b8002b4b1c602b4b1c602b4b1c6000940194e1
:1058c8004ff47a7404264ff411651f4604e09a4297
:1058d80088bf3b60013c16d032462946684603f033
:1058e800eff93246294601a803f0eaf9009b019a2c
:1058f800934288bf02f1ff32d31a01933a68002a13
:10590800e5d13b60e6e70023019304224ff4a06150
:105918000deb020000f0d2fc019b03f48003002b86
:1059280014bf08220422114b1a80002003b0f0bdd6
:10593800002900200c290020042900200829002023
:105948001429002018290020102900201c290020d3
:10595800202900202429002091280020bd2900208a
:105968002c2900203029002038290020c2290020b5
:020000040000fa
:1059780030b583b0002301930422354b19880deb11
:10598800020000f09bfc019ca3b20193314b1b78f1
:10599800012b0ad0304b1a78304b1b7813431dd09b
:1059a8002f4b01221a7003b030bd0a20fef766fda6
:1059b80005460028eed00021c0f802100423038019
:1059c800838823f4706383800123c38007230381c2
:1059d80001f00cfb284600f0c7f8dbe7204b00225b
:1059e8001a70204b1d882846fef748fd1e4b18608c
:1059f800d8b1a21d92b2aa4228bf2a46144b1988d0
:105a080000f05cfc00230093042240f60401684681
:105a180000f054fc009b0093009b13f4006f08d126
:105a2800114b186801f044fdbde70d4b01221a70b7
:105a3800b9e70e4800230360054b1988094b1b88fa
:105a480019440439042289b200f038fce8e700bfa1
:105a5800f42900201a2a00201c2a00201d2a0020d0
:105a68001b2a0020f829002064290020542900203e
:020000040000fa
:105a780038b505460c4603f071fa08b30246611eb4
:105a8800c9b201eb85005388dbb243ea00239bb21d
:105a98005380022d15d0032d39d000211171517179
:105aa8009171d171002111706ff05f01517023f075
:105ab800ff032a4909780b435380104601f0bafcca
:105ac80038bd0329eed8dfe801f002020c110021ed
:105ad8001171102151714ff0ff3191711f21d17156
:105ae800e0e71f4909889180d180dbe71c490988d4
:105af80039b100210a201071517101209071d171c2
:105b0800d0e70021117151719171d171cae7032950
:105b1800c8d8dfe801f002020c1100211171102130
:105b280051714ff0ff3191711f21d171bae70d49c1
:105b380009889180d180b5e70a49098839b10021df
:105b48000e201071517101209071d171aae70021c6
:105b5800117151719171d171a4e700bf142a00200d
:085b6800ea290020e8290020d1
:020000040000fa
:105b70002de9f84300286ad050f8043ca0f108044d
:105b800023f00106a719a259934200d0ffde7a68dc
:105b900023681340da070fd4204602f025fd0028c1
:105ba00057d1384602f0eafd0028f0d07b6823f098
:105bb00001031e441f44eae746f0010363603046d8
:105bc0003b6002f0fbfb054602f05aff23687a684f
:105bd0001340db07e0d5dff88ce0dee90089c5f192
:105be000200ca5f1200228fa05f009fa0cfc29fa8c
:105bf00002f240ea0c001043012100ea01020023f6
:105c00001343c5f120007346a5f1200212d121faf9
:105c100000f001fa02f2a94042ea00021ebfdef8db
:105c200000000143cef8001022b1def804100a4350
:105c3000cef80420681c03ebc003a3f108026660e1
:105c40003e60a2605a68e2605c60e3689c60bde808
:105c5000f883236823f00103e41a636823f0010347
:085c60001e449ee70020002015
:020000040000fa
:105c680038b5059c602955d000293cd0258905f414
:105c78007f45258100284fd1e088c0f30b0040f410
:105c88004050e080402926d104990139032910d8d1
:105c98000a23237000236370049bdbb2c3f104035f
:105ca80042f0030242ea83022a4342f04002228180
:105cb80044e004998b4228bf049b0a339bb223809b
:105cc800049ba381049bc3f30f43e38142f0410289
:105cd8002a43228132e00a2323700023637045f0af
:105ce800600222812ae0b8b9e388c3f30b0343f4c6
:105cf8004053e3800a23237000236370238943f011
:105d0800200323811ae0e388c3f30b0343f44053d1
:105d1800e38013e00028f6d00a2323700023637081
:105d2800e388c3f30b0343f40053e380238943f070
:105d380080032381054b53f82030e360022120467d
:105d480001f054f908b1024b1c6038bd2076000000
:045d58003c290020c2
:020000040000fa
:105d5c002de9f04184b00f4616460023adf80e3005
:105d6c0002938df8073002238df80c30030a8df85e
:105d7c000d308df80e0002f0e7ff2f4c6368db68e6
:105d8c0098470028fad12c4b5b681c68032302aaa5
:105d9c00194603a8a04702f0a5ff274c6368db68ef
:105dac0098470028fad1254b9df809201a709df8c8
:105dbc000a205a70224b9d7c1f4c4ff00108013d6c
:105dcc00edb2ff2d0dd063689b6841460df10700c5
:105ddc00984702f087ff6368db6898470028fad180
:105dec00ede7154b5b685b6831463846984702f027
:105dfc0079ff114c6368db6898470028fad1012eb3
:105e0c0015d00f4bdd7c0c4c0126013dedb2ff2d66
:105e1c000dd063689b6831460df10700984702f07e
:105e2c0061ff6368db6898470028fad1ede702f060
:105e3c0081ff04b0bde8f08174280020c029002047
:045e4c00b427002057
:020000040000fa
:105e500010b582b02a4a2024148000235380536056
:105e600044f21f00908127491161536193831362ab
:105e70001385538582f84030234a14805380536041
:105e8000908111615361938313621385538582f866
:105e900040301e4a137002f0d7fb20bb00231c4a7f
:105ea00013701c4a13701c4a13801c4a13701c4a3e
:105eb00013601c4a13601c4a13601c4a1360019350
:105ec000042208210deb020000f0fcf9019b13f005
:105ed000080f0bd0164b00221a70164b4ff47a6243
:105ee0001a6002b010bd02f0fbfcd7e7104b012294
:105ef0001a7004224ff411610f4800f0e3f9ece747
:105f0000e0260020a08601009c260020202a0020f8
:105f10002a2a0020272a0020022a00202b2a0020db
:105f2000a8290020a4290020942900209c290020d1
:0c5f3000062a0020ec280020f0280020a9
:020000040000fa
:105f3c002de9f04184b01e465469e9b10f469389ae
:105f4c00c3f30323072b17d0092b24d0002e5dd0cd
:105f5c00304b6c460fcb07c4237039460df109004a
:105f6c0002f0b4f96b4607cb30607160b2601b78fd
:105f7c0033734ff00c080ae0204602f03bff1ffa87
:105f8c0080f826b142462146304602f014fe4046c7
:105f9c0004b0bde8f0811ffa81f8204602f02aff18
:105fac0001302518235c0233dbb2012bced9b8f1ba
:105fbc00010f16d0284602f01dff013005440224c3
:105fcc002b780233dbb2012bc0d9a04509d00134a8
:105fdc00a4b2284602f00eff01300544a045efd2d2
:105fec00b4e7284602f006ff1ffa80f846b1b8f174
:105ffc00000fadd042462946304602f0dcfdc6e724
:10600c00b8f1000f08bf4ff00c08c0e74ff00c08b8
:08601c00bde700bf842800204d
:020000040000fa
:10602400314b00221a7403f50063304a9a621a460f
:10603400536813f0100ffbd12d4b4222c3f8842078
:106044001a46d2f8843013f0400ffad0294b0022bc
:106054009a6377225a631a46d36b13f0040ffbd169
:10606400244b022283f830201a46d36b13f0020f1c
:10607400fbd1204a136c03f00303032bfad11e4b0c
:1060840001225a711a46d37813f0010ffbd0184b32
:106094001a4a1a621a46536813f0040ffbd1144bc0
:1060a400174a5a621a46536813f0080ffbd1104b73
:1060b4004122c3f890201a46d2f8903013f0400fd2
:1060c400fad00b4b4122c3f8a4201a46d2f8a430cc
:1060d40013f0400ffad0084b6ff07f421a614cf274
:1060e400ff725a61704700bf00140040060130007f
:1060f400001c00400010004000080040070101009f
:04610400070102008d
:020000040000fa
:106108002d4b1b78002b56d02de9f04782b017464f
:106118000e468146294b1d682b89dbb203f0e00a45
:1061280003f01004baf1400f0fd04ff00008224bd3
:1061380000221a7001950096434622465146484669
:10614800fff78efd02b0bde8f0871d4bb3f8008065
:10615800a8f110081ffa88f888450bd34b1e032bab
:1061680020d805f10c009042e1d00a46394602f0e9
:1061780024fddce70123134a1370134a1370134bf1
:106188001c70134b1960134b60221a70124b1f605e
:106198004246394605f1100002f00ffd0f4bc3f8d7
:1061a8000080c4e705f110009042c0d00a46394685
:1061b80002f003fdbbe77047232a0020982900203e
:1061c800fa290020252a0020262a0020242a002037
:1061d8008c290020282a00209c29002088290020ba
:020000040000fa
:1061e80008b5214b1b88002b35d1204b1b88002b71
:1061f80035d14ff2f33002f089f800231c4a1370ae
:106208001c4a13701c4a13701c4a13701c4a1370e2
:106218001c4a13801c4a13801c4a13801c4a138092
:106228001c4a13801c4a13801c4a13801c4a138082
:106238001c4a1385538582f840301b4a13855385c1
:1062480082f84030194a1380194a1370194a13709a
:10625800194a137008bd022002f0c8f8c5e70320e8
:1062680002f0c4f8c5e700bfea290020e8290020a9
:106278000c2a0020102a00200b2a00200a2a0020bd
:10628800122a0020f2290020f0290020d629002017
:10629800d4290020d8290020da290020d22900207a
:1062a800d0290020e02600209c260020de2900209e
:0c62b800132a00200d2a0020202a0020bc
:020000040000fa
:1062c400002a68d02de9f04383b005460e461746f0
:1062d4004ff0c0094ff004084ae0032c04d8012c05
:1062e4008cbf022401241ae08df80460330a8df86f
:1062f40005308df806408df8079002f045fe4246c1
:1063040001a94ff44170fff727fd424601a94ff45c
:106314004070fef7edfa02f03bfe19e001248df81f
:106324000460330a8df805308df806408df8079027
:1063340002f02afe424601a94ff44170fff70cfd1a
:10634400424601a94ff44070fef7d2fa02f020fe53
:1063540001aa002312f8011b05f8011b0133dbb26b
:10636400a342f7d3a4b22644b6b23c1ba7b27fb172
:1063740016f0010fd2d13c46042f28bf0424e4b206
:1063840016f0020fa9d0012c8cbf02240124c6e709
:0863940003b0bde8f08370477f
:020000040000fa
:10639c0008b5294b1b78002b4cd0284b1b78002bb5
:1063ac0035d0274b1a78274b1b78134333d102f087
:1063bc00e7fd02f09bf8244b1b7813bb02f0e4fdc5
:1063cc0029e001f0cffa10f4806f0cd01c4b0122a5
:1063dc001a701e4b00221a801d4b1b78002be6d026
:1063ec0000f092fee3e71b4b1b88002bdfd110f46f
:1063fc00006fdcd0124b01221a70144b00221a8051
:10640c00d5e701f07df9d9e701f01cfa08e00d4b56
:10641c001b78002bd5d0104b1b68b3f57a6ff3d2d9
:10642c00fef7b8f900f04afc01f038fe0b4b1b6884
:10643c0003b1984708bd00bf91280020102a002006
:10644c000c2a00200b2a00200d2a0020ca2900202b
:10645c000e2a0020ea290020ec2800202429002004
:020000040000fa
:10646c00274b1b78002b4ad0264b1b78002b46d091
:10647c00254b1b8813b3254a128893421bd8244bf7
:10648c0000221a70234b1b788bb97047204b0022cb
:10649c001a70f7e71f4b01221a701f4bb3f900302b
:1064ac00002b2cdd1d4a1388013313807047194bc8
:1064bc0000221a7070470132144b1a80144b0122bf
:1064cc001a70174b1b8833b1164a12889342ddd9c8
:1064dc000132144b1a80144b1a8d144b1b899a429f
:1064ec00d8d30c4b1b7853b10a4b00221a700a4bb1
:1064fc00b3f90030934202dd084b1a8070477047a5
:10650c000b2a00200d2a0020d6290020d429002097
:10651c000a2a0020122a0020de290020dc29002073
:10652c00da290020d8290020e02600209428002019
:020000040000fa
:10653c00f0b583b02a4b1b7803f00f03012b4ad024
:10654c00284b1b78002b48d0274b1c781cb10724f8
:10655c00204603b0f0bd05460788ba1d92b2234b06
:10656c00198800f055fb00230193042240f60c011e
:10657c000deb0200fff7a0fe019b0193019b13f4ae
:10658c00006f12d11a4b1e88b21fd21b92b2194b3c
:10659c0000211960032a14d9144b19883144043989
:1065ac00042289b2134800f033fb134b1b6813b160
:1065bc00124b00221a60104b1d600b4b01221a70fb
:1065cc00c6e7c2f10402b91d891005eb810118461a
:1065dc0002f0f1fae0e7f024bae7f024b8e700bfe4
:1065ec00142a0020192a00201c2a0020f629002039
:1065fc00fa29002054290020582900206429002061
:020000040000fa
:10660c0010b582b0204b22221a80204b4ff480729e
:10661c001a804ff480531e4a13801e4a13801e4b5f
:10662c0000241c805c800a229a801c4b1c805c809d
:10663c009a801b4b1c601b4b1c601b4b1c601b4b28
:10664c001c601b4b1c700194042240f60c010debda
:10665c000200fff731fe019b23f00073019304222b
:10666c0040f60c010deb020000f0d2fa114b1c703d
:10667c00114b1c70114b1c70114b1c70114b1c706e
:10668c00114b1c7002b010bdf8290020fa29002013
:10669c00f4290020f6290020242700205827002068
:1066ac00642900205c290020582900206029002042
:1066bc00182a0020192a00201c2a00201b2a00203e
:0c66cc001d2a00201f2a00201e2a00208a
:020000040000fa
:1066d800f0b48f89c7f30327002856d1f0bc704760
:1066e800062b43d004d8032b40d0042b04d112e04e
:1066f800082b10d90b2b39d0624522d26388184455
:1067080080b21ee0b3f5187f30d0f5d3a3f262252e
:10671800adb2012df0d800f11f054ff6e07028400a
:1067280062450ed2a3f262239bb2012b9abf638803
:10673800c018203080b204e06388184480b210305a
:1067480080b2013292b206366245c7d8082f0c696a
:106758000cbf0634a41923881f2b07d0c0d92f2bb0
:10676800d9d0cfd8202bd6d02e2bc5d100f10f05ec
:106778004ff6f07028406245e3d20b2bdcd0b3f51e
:10678800187fdcd1d8e70020a8e78446072ffad085
:0c6798001ffa8cfc062610200122d7e717
:020000040000fa
:1067a400050008000700060010000f000700200085
:1067b400070000002000000006001000070007008a
:1067c4002000070007002000070000002000000050
:1067d400060010003f00070020000700070020000b
:1067e4003f0006001000070006001000070000002c
:1067f4001000000000001000000000002000000055
:106804000000200000000000200000000000200024
:106814000000000000000000000000000000000074
:106824000000000000000000000000000000000064
:106834000000000000000000000000000000000054
:106844000000000000000000000000000000000044
:106854000000000000000000000000000000000034
:0868640001000100070000bf64
:020000040000fa
:10686c0008b52a4b00221a70294b186810b1294b15
:10687c001b68c3b1284b1a68254b1a60254b186846
:10688c00a0b1fff755fe234b00221a60234b1b7857
:10689c0043b113f0010f11d113f0020f1cd113f0ff
:1068ac00400f29d108bdfff75df9e3e71c4801f063
:1068bc00c9ff0028ead0fff73bfee7e7194b186841
:1068cc0002f0a0fa02f0e6f90028ebd0134a137894
:1068dc0023f001031370e5e723f002030f4a137052
:1068ec00104b186801f0d4fa0028dbd00b4a13784f
:1068fc0043f002031370d5e723f04003074a1370eb
:10690c00084b186802f0fef8cce700bf1c2a0020e8
:10691c005c29002060290020582900201d2a002015
:08692c00582700206429002017
:020000040000fa
:10693400002a60d02de9f04383b005460e46174681
:106944004ff0c0094ff0040842e0032c04d8012c96
:106954008cbf0224012416e08df80460330a8df8fc
:1069640005308df806408df80790424601a94ff492
:106974004170fff7f1f9424601a94ff44070fdf769
:10698400b7ff15e001248df80460330a8df8053053
:106994008df806408df80790424601a94ff44170e6
:1069a400fff7daf9424601a94ff44070fdf7a0ff62
:1069b40001aa002312f8011b05f8011b0133dbb205
:1069c400a342f7d3a4b22644b6b23c1ba7b27fb10c
:1069d40016f0010fd6d13c46042f28bf0424e4b29c
:1069e40016f0020fb1d0012c8cbf02240124cae797
:0869f40003b0bde8f083704719
:020000040000fa
:1069fc0070b582b00023009304252b4c2a466946bf
:106a0c006420fef76bfa009ba342f7d1002300939e
:106a1c00042269465c20fff79bf9932604254ff46a
:106a2c00017401962a46214601a800f0f1f80023d2
:106a3c0001932a46214601a8fff73efc019b932bac
:106a4c00efd10023019304224ff4a8710deb020047
:106a5c00fff732fc019b13f0040f02d0134b012201
:106a6c001a700024019404224ff401710deb020002
:106a7c0000f0cef840f20113009304226946542032
:106a8c00fff766f901230093042269465c20fff7a7
:106a9c005ff9042269465820fef720fa01f0caff7c
:106aac00204602b070bd00bf214365872c2a002010
:020000040000fa
:106abc0008b5214b1b783bb1204bb3f90030002bb0
:106acc0002dd013b1d4a138001f02ef8fff7c8fcd4
:106adc001b4b1a8872b11b490b8801339bb20b807c
:106aec009a4207d80023164a13800b80164b1b685a
:106afc0003b19847154b1b7843b1002314490a681e
:106b0c0014480021994208bf90420fd3104a1368d1
:106b1c00516811481b184ff0000040eb0101136045
:106b2c0051600e4a13680133136008bd0b4b4ff4d0
:106b3c007a621a60f5e700bf0f2a0020ce290020e8
:106b4c00be2900209228002008290020062a0020b7
:106b5c00a028002040fbe1ff40420f00ec28002061
:020000040000fa
:106b6c0038b5002001f0dcff224c03681b0c23809d
:106b7c00214d03682b80012001f0d2ff03681b0c10
:106b8c0099b21e4a118002681d4802802d8892b26b
:106b9c0020882844904202dd13449d4228db0c39a6
:106bac00184b1980002001f087fc012001f084fcb7
:106bbc00104b1888fdf760fc134b186040b1002493
:106bcc00124b1c70fef7ceff0f4b1c60204638bddd
:106bdc000e4b01221a700a20fdf74efc002814bf40
:106bec0000240224fef7beff074b00221a60ede7db
:106bfc001624ebe7f8290020f4290020fa290020bc
:106c0c00f6290020c8290020642900201a2a002017
:020000040000fa
:106c1c00002a51d02de9f04782b005460e461746a2
:106c2c004ff0010a4ff000094ff0040831e0032c3b
:106c3c0005d8012c8cbf0224012400e0544601aa83
:106c4c004b4615f8011b02f8011b0133dbb29c42c9
:106c5c00f7d802f095f9424601a94ff44070fff7be
:106c6c0077f88df80460330a8df805308df80640fe
:106c7c0080238df80730424601a94ff44170fff78d
:106c8c0067f802f081f9a4b22644b6b23c1ba7b255
:106c9c007fb116f0010fd1d13c46042f28bf04243c
:106cac00e4b216f0020fc2d0012c8cbf02240124d6
:0a6cbc00c5e702b0bde8f08770479d
:020000040000fa
:026cc600704715
:020000040000fa
:106cc80010b582b0204b1c68002c33d01f4b1b78aa
:106cd80000931f4b1b681f4a12681f4909781f48f9
:106ce8000088a0470446ff2824d01d4b1b78013b91
:106cf800032b10d8dfe803f00a022020194b18688c
:106d080020b1fef731ff174b00221a60002211460e
:106d18002046fff7f5f90023114a13700f4a138034
:106d28000d4a13700b4a1360094a1360074a13701f
:106d3800054a136002b010bd054b1a68054b196867
:106d4800fff7def9e7e700bf94290020272a002093
:106d5800a4290020a82900202b2a0020022a00208c
:086d68002a2a00209c290020ca
:020000040000fa
:106d70002de9f04f83b08246019116469b460b8861
:106d8000b3f5805f0bd0234b1c6894b1012e3ed924
:106d90004ff0200808fa0af81ffa88f823e002f0fa
:106da00051f804460028f1d10c9b13b11b230c9a17
:106db0001370304600244ff6ff7321e00135ebb22b
:106dc00099450bd3e9b2204601f068fd838818eaa3
:106dd000030ff3d02bf8027b023eb6b26468002c9e
:106de000e7d0012e0ad92789b7f5805ff6d3baf12b
:106df000000fefd094f80c900025e3e7304623898c
:106e0000019a1380034b1c6003b0bde8f08f30463d
:086e1000f5e700bf9029002006
:020000040000fa
:106e180008b51a4b1b78012b1ed00023184a137093
:106e2800184a1370184a1380184a1370184a1360c6
:106e3800184a1360184a1360104a1370174b1868e1
:106e480020b1fef791fe154b00221a600023144a68
:106e58001360144a137008bd134b18680028dcd05f
:106e6800124b1b689842d8d0114b1b689842d4d05b
:106e7800fef77afe0c4b00221a60cee7232a002088
:106e88002a2a0020272a0020022a00202b2a002054
:106e9800a8290020a4290020942900209c2900204a
:106ea80088290020282a0020982900205c29002011
:046eb800602900202d
:020000040000fa
:106ebc00002a4dd02de9f04782b005460e46174604
:106ecc004ff0010a4ff000094ff004082de0032c9d
:106edc0005d8012c8cbf0224012400e0544601aae1
:106eec004b4615f8011b02f8011b0133dbb29c4227
:106efc00f7d8424601a94ff44070fef729ff8df8f0
:106f0c000460330a8df805308df8064080238df827
:106f1c000730424601a94ff44170fef719ffa4b2a5
:106f2c002644b6b23c1ba7b27fb116f0010fd5d1e7
:106f3c003c46042f28bf0424e4b216f0020fc6d03e
:106f4c00012c8cbf02240124c9e702b0bde8f087f4
:026f5c0070477c
:020000040000fa
:106f5e0030b49489c4f30320e4b213b307283ad0b3
:106f6e00082813d0002064b115690123002003eb1b
:106f7e00430205eb4202528810440133dbb29c42bd
:106f8e00f5d20730c00849bb023027e013691b89d0
:106f9e009269107800fb03f00730c008f1b9023097
:106fae001ce007280dd0c1b108280fd08c4217d392
:106fbe00136901eb410103eb410148880730c01012
:106fce000ce0136958880730c01007e01369188960
:106fde000730c01002e0002000e0012030bc7047f6
:046fee000020fbe79d
:020000040000fa
:026ff2007047e6
:020000040000fa
:106ff40038b51f4b1b7803f00f03012b36d0838861
:10700400c3f30b0383801b4a127812f0070f02d1db
:10701400184a012414700d460446164a127843eaad
:1070240002338380fff788fa48b9124a1378013390
:10703400137069b2002911db0023184638bd0e49cc
:10704400204601f0dafb034618b165f07f0149b22e
:1070540005e0084a137801331370eae70023074a6e
:1070640001f07f01107801431170e6e7f023e4e7b3
:10707400142a00201e2a0020582700201d2a002040
:020000040000fa
:1070840008b51b4b98471b4b9847eff3108172b61a
:10709400194ad2f8883043f47003c2f88830bff339
:1070a4004f8fbff36f8f01b962b6144c2023636016
:1070b40000f0fef8124b23f07f030f4a9360114b4c
:1070c4009847a36823f00103a3602346da6812f00b
:1070d400010ffbd1094b5a6842f004025a600122a5
:1070e4009a60094b9847094b984701f045fefee723
:1070f400bd8f0000bd8f000000ed00e00060004186
:1071040000000000cd790000bd8f0000bd8f00009d
:020000040000fa
:1071140038b51a4b9b8b1a4a928b134313f0010f09
:107124002ad0002001f07cf80546164b1860164b57
:1071340001221a70154b00221a6000f0c9fd144c8c
:10714400144b1a88144b1988204601f0bbfd2046c5
:1071540001f0c4fe094b9b8b094a928b134313f035
:10716400010f08d0284601f05bf8044b5b698342a9
:107174003cbf024b586138bd0025e0e7e026002003
:107184009c26002030290020bd290020342900201d
:0c71940058260020ea290020e4290020f1
:020000040000fa
:1071a00030b583b0054600240194009401f0d2fd6f
:1071b00003238df804308df8054064238df80630e4
:1071c000184c6368db6898470028fad1154b5b6858
:1071d0001c6803236a46194601a8a04701f088fdf0
:1071e000104c6368db6898470028fad10e4b9df875
:1071f00001201a709df802205a700a4b5b689b6848
:1072000004216846984701f073fd064c6368db680b
:1072100098470028fad1009b2b6001f091fd03b044
:0c72200030bd00bf74280020c0290020f1
:020000040000fa
:10722c001f2932d870b588b00c461e460a46014656
:10723c00684601f0c0fc002208ab234403f8202c64
:10724c00164b186820b3acb19df80020144b1b787a
:10725c009a4220d16b461249621e13fa82f2934273
:10726c0008d013f8015f11f8014fa542f7d048f28e
:10727c00010008e0b04238bf86b2324609490c988a
:10728c0001f099fc304608b070bd48f2030070471d
:10729c0048f20100f7e748f20100f4e778290020f2
:0872ac00dc2700200000002097
:020000040000fa
:1072b4001e4b1f4a9342f0b438bf002103d203f897
:1072c400011b9342fbd11b4ad2e9000150ea01039e
:1072d4004ff0000610d09468034602f10c076cb915
:1072e40021b1014403f8016b9942fbd13a46d2e93a
:1072f400000150ea0103eed1f0bc704759b101f12d
:107304000c030c38801a1a443b461c1813f8015b12
:1073140025709342f9d111f0030318bf012303eb45
:10732400910107eb81073a46e1e700bf0000002026
:087334000000002080020000af
:020000040000fa
:10733c001d4a137843f001031370536813f0010fc7
:10734c00fbd11949194bcb6100220a6283230b61d3
:10735c00174b1a7201221a75102283f8202083f819
:10736c002c2083f8382083f8442083f85020072001
:10737c0083f85c0083f8682083f8742083f88020fd
:10738c0083f88c2083f8982083f8a42083f8b0200d
:10739c0083f8bc200b7843f002030b700a46536849
:1073ac0013f0020ffbd17047002800402200002090
:0473bc000425002084
:020000040000fa
:1073c000002833d010b404461b4b1a684ab1138905
:1073d00001898b420ad88b422cd053688bb9134653
:1073e00016e0186000206060206006e00020206049
:1073f000114b1a68626014601c605df8044b7047a2
:1074000013461a89914213d007d35a68002af7d13c
:107410005c60236000206060efe71a6822606360b0
:107420001a6802b154601c600020e6e70120704732
:0c7430000120e2e70120e0e7e82800204e
:020000040000fa
:10743c0070b50546184b1c780cbb184b1b7803f029
:10744c000f03012b1bd01020fdf716f80346144a2e
:10745c001060f8b1134a92e8030083e8030003f1cb
:10746c0008022868696803c201211846fff7bcfdb1
:10747c00064668b9284601f04dfa344608e028461d
:10748c0001f058fa084a137843f0010313700024f2
:10749c00204670bd0224fbe71c2a0020142a002081
:0c74ac00642900206c8f00001d2a0020c5
:020000040000fa
:1074b80010b583880288b2f5807f0ed804461b0b6e
:1074c80003d0174a12789a4227d0154a13701549e3
:1074d800204601f090f980b910bd00210422027005
:1074e800417023f47063838001238371c171082381
:1074f80003724172fff77afdeee700210422227041
:107508006170a28822f47062a2800122a271e171e6
:1075180020812046fff76afddee7fef725fbdbe763
:087528001f2a00202427002087
:020000040000fa
:10753000f8b5194d002604270de027706670a28863
:1075400022f47062a2800122a271e671208131468c
:107550002046fff74ffd284601f07af9044690b126
:1075600000f09cfe0028f6d0e7e70c4b1b7873b9bf
:1075700001f096fb58b901f007f8fff75fff06e04e
:10758000fef7faf907e0064b1b78002bedd1054b0f
:107590001b78002bf4d1f8bd242700201c2a0020e2
:0875a000192a00201b2a00201b
:020000040000fa
:1075a80010b5adf6080d0023adf80638b0f5006f3c
:1075b80010d8184b196869b104464ff4006201a845
:1075c80001f0fbfa02224ff4a16103a8fef776fe50
:1075d800042c03d000200df6080d10bd022240f245
:1075e80002510df60600fef769fe022240f2025132
:1075f8000df60600fff70efb01f0c4fc0e2101a8f2
:1076080000f0bcfe014601a800f042f801f0befc03
:08761800e0e700bf2829002073
:020000040000fa
:10762000000000000000030500000405010004053f
:107630000500040500000106010001060200010624
:10764000000002064100040642000406430004064e
:107650004700040600000606100007061200070691
:10766000130007061100090630000906310009065b
:10767000320009063300090636000906000000083a
:107680002000000821000008220000082300000854
:087690000300010604000106dd
:020000040000fa
:10769800f0b5adf5005d81b005460c4601f0bcfbc8
:1076a80000f0100000280cbf4ff43e264ff4783647
:1076b80001f08efa0028fbd132464ff4006168468b
:1076c80001f06afb4ff400622946684601f075fa3a
:1076d8008df80e40304601f0dff906f500673446b4
:1076e8006d46ad1b2146281900f05afc01f070face
:1076f8000028fbd104f50074bc42f3d10df5005d00
:0477080001b0f0bd1f
:020000040000fa
:10770c0038b500f08ffa154b9b8b154a928b1343af
:10771c0013f0010f20d0002000f07efd0546114c27
:10772c00204601f0d1fb104b1a88104b19882046cb
:10773c0001f0cefa094b9b8b094a928b134313f041
:10774c00010f08d0284600f067fd054b5b698342aa
:10775c003cbf034b586138bd0025e0e7e026002014
:10776c009c26002014260020e8290020e229002075
:020000040000fa
:10777c00f0b583b0054601238df8073001f0e4fa2b
:10778c00154c6368db6898470028fad1124b5b688c
:10779c005b6801210df10700984701f0a3fa0e4c2c
:1077ac006368db6898470028fad105f127070a4c73
:1077bc00012663685b6831462846984701f092fac7
:1077cc006368db6898470028fad10135bd42f0d1d7
:0c77dc0001f0b0fa03b0f0bd74280020ea
:020000040000fa
:1077e80000b583b00023adf80630042240f20451fe
:1077f8006846fef763fd009bb3f5006f1dd8114a7c
:107808001068d0b108224ff4a16100eb4300fff7e4
:1078180001fa022240f202510df10600fff7faf9cf
:10782800022240f202510df10600fef747fd042244
:1078380040f204516846fef741fd002003b05df8b0
:0878480004fb00bf2829002009
:020000040000fa
:1078500010b582b0134b1b78e3b1134c236801932e
:1078600004224ff411610deb0200fef72bfd01998c
:10787000626821600d480068814204d20b1c42f10d
:10788000010223606260094b1960094b00221a60f3
:1078900002b010bd08224ff411610348fef712fd3b
:1078a000f3e700bf062a0020a0280020f0280020cf
:0478b000ec280020a0
:020000040000fa
:1078b40010b5124b1c685cb1114b1b7813b1114b02
:1078c4001b6863b12046fef737fe0c4b00221a609a
:1078d4000d4a1378b3fa83f35b09137010bd0120ca
:1078e40000f086fd094b1a68064b1a60012000f06f
:1078f400e7fd034b00221a70e4e700bf5c29002077
:107904001c2a002060290020182a00205829002061
:020000040000fa
:10791400144ad36823f4e0631b041b0c43f0bf63d5
:1079240043f40033d360bff35f8f62b60e4be022a3
:1079340083f80c234ff48051196083f80d234ff41e
:107944000051196083f813234ff40021196083f860
:107954006b234ff40062da60402283f886231a61b5
:0c796400704700bf00ed00e000e100e013
:020000040000fa
:1079700010b582b020238df8043002238df8053035
:1079800004248df80640c0238df8073001f0fefa7c
:1079900022460deb04014ff44170fef7dff9224659
:1079a0000deb04014ff44070fcf7a4ff01f0f2fa74
:1079b000044b1b781bb1044b188802b010bdbdf8f6
:0c79c0000400fae72c2a0020c029002057
:020000040000fa
:1079cc000e4a38b5002313600d4a0e4c13600e4a54
:1079dc000e4d13600e4a13600e4a13600e4a53622a
:1079ec0013610123936001f0e4fa01f0e2faac4276
:1079fc0000d338bd54f8043b9847f8e7b029002071
:107a0c00d02500206c020000cc2500207002000064
:0c7a1c00c4250020c8250020d42500202f
:020000040000fa
:107a280020212223242425252626272728282828fc
:107a3800292929292a2a2a2a2b2b2b2b2c2c2c2c96
:107a48002c2c2c2c2d2d2d2d2d2d2d2d2e2e2e2e5e
:107a58002e2e2e2e2f2f2f2f2f2f2f2f00011702d4
:107a68001d1813031e1b190b1408040d1f161c12d6
:0c7a78001a0a070c1511090610050f0e64
:020000040000fa
:107a840070b5d0e90245a54217d10122a1f1200326
:107a9400c1f1200622fa06f602fa03f333438a40c0
:107aa400db43d6431ab10b490a6832400a605a1cb8
:107ab4001fbf084a51680b4053604368ac6043f0f1
:107ac400010223f00103e5604260c25842f0010262
:087ad400c25070bd002000202b
:020000040000fa
:107adc002de9f04781462026864001f0adf9f0b142
:107aec00b6b204460027ba460ee06b1ca84509d076
:107afc001d46e9b2204600f0cbfe83881e42f4d02e
:107b0c000137bfb264685cb12389b3f5805ff9d3e8
:107b1c00b9f1000ff4d094f80c805546e9e7002732
:067b2c003846bde8f087b9
:020000040000fa
:027b320070479a
:020000040000fa
:107b340008b50f4b1a883ab10e4b1b8801339bb220
:107b44009a4202d90b4a138008bd0a4b00221a80bc
:107b5400094b1b88002bf7d0084b1b781bb9084b2b
:107b640000221a70f0e71b210420faf785fcebe7ea
:107b7400cc290020ca290020ea2900200e2a00204e
:047b84000c2a0020a7
:020000040000fa
:107b88001f291ad870b516460c4601460c4d2246d8
:107b9800284601f012f800232b550a4a13600a4ab6
:107ba80013600a4a13600a4b9e4202d048f203004f
:107bb80070bd00f09dfd0020fae748f20300704711
:107bc800dc27002074290020702900207829002053
:047bd80044332211ff
:020000040000fa
:107bdc000023094a1370094a1370094a09491160b4
:107bec00094a0a4911600a4a0a4911600a4a0b49b2
:107bfc0011600b4a13607047222a0020212a0020b2
:107c0c00142900202d72000020290020c94d0000ed
:107c1c00182900205d8400001c290020897b0000ad
:047c2c007829002093
:020000040000fa
:107c300000b583b020238df8043002238df8053081
:107c40008df80630c0238df8073004220deb0201b9
:107c50004ff44170fef782f804220deb02014ff45d
:107c60004070fcf747fe054b1b7823b1044b188886
:107c700003b05df804fbbdf80400f9e72c2a0020ee
:047c8000c0290020f7
:020000040000fa
:107c8400104b5b8d43b90f4b1b8d0f4a12899342e6
:107c940094bf0023012300e001230a4a82f8403004
:107ca4000a4b5b8d43b9094b1b8d074a12899342da
:107cb40094bf0023012300e00123044a82f84030ea
:107cc400704700bfe0260020942800209c26002056
:020000040000fa
:107cd40008b50f4b1b783bb90e4b186828b9002028
:107ce40000f09efa0b4b186008bd00f099fa094b9e
:107cf4001860094b5b680bb1984201d2064b58607f
:107d0400064b5b680bb19842e9d2044b5860e6e736
:107d14000b2a00202c290020e02600209c2600208d
:020000040000fa
:107d24000c4b1b789bb90c4b1b782bb10b4bc8220b
:107d34001a800b4b00221a800a4a0023138582f80a
:107d44004030094a138582f84030ff207047074bc2
:107d540018887047112a00200b2a0020de290020f1
:107d6400dc290020e02600209c260020ee290020ab
:020000040000fa
:107d740010b582b00e4b5b681b6900210d48984713
:107d84000d4c04e000f0ccf8019ba34207d001a8fd
:107d9400fff704fa019bb3f1ff3ff5d1f2e700f0de
:107da40075fb0648fff7e8fcfef726fe02b010bd9f
:107db40074280020058f000021436587b427002024
:020000040000fa
:107dc400104b012283f8482083f84920772183f857
:107dd40034100d49c3f880104ff40061c3f89010bb
:107de40083f8ca20002183f8cb1083f8d02083f8cd
:107df400d12083f8d720022283f8df20072283f8da
:0c7e0400b520704700800041000800809d
:020000040000fa
:107e1000f8b505460f4600f5002400f0ddfe002809
:107e2000fbd1204600f03cfe00f0d6fe0028fbd13e
:107e300007f500563c46ed1b05f500256119204667
:107e400000f0b2f800f0c8fe0028fbd104f5007481
:067e5000a642f3d1f8bdcb
:020000040000fa
:027e5600704773
:020000040000fa
:107e580070b59df8105041f2f804a0420fd185b9d1
:107e680089b9082a11d81e4615460c46fff7ecfcbe
:107e78002a460749304600f0a0fe204600e00b20c5
:107e880070bd0520fce71120fae70f20f8e700bfd6
:047e9800a0280020fe
:020000040000fa
:107e9c0038b50e4b186830b10021fff7a5f800205b
:107eac000a4b186038bd4ff48070fcf7e5fa0546b4
:107ebc0048b1074b04460fcb07c423802846fbf779
:107ecc0027fc0020eee70720ece700bf3c29002050
:047edc0064280020f6
:020000040000fa
:107ee0000c4b5b687bb10c490a681a440a600b4969
:107ef00009688a420cd10a494a6813444b60064b10
:107f000000221a6070470023054a5360024a13603a
:107f1000704700bfc8280020682900207c29002065
:047f2000b82800205d
:020000040000fa
:107f240010b582b0ff238df8073000f011ff0c4c20
:107f34006368db6898470028fad1094b5b685b6883
:107f440001210df10700984700f0d0fe044c63684e
:107f5400db6898470028fad100f0f0fe02b010bdab
:047f6400742800205d
:020000040000fa
:107f680010b5054c237833b9044b13b10448aff36b
:107f780000800123237010bdfc27002000000000b2
:107f88000000000008b5034b1bb103490348aff3d9
:107f9800008008bd0000000000280020000000004c
:020000040000fa
:107fa80010b40d4b00221a80031f00f5fe74081a46
:107fb8000430c21853f8041f1160a342f9d1074bcb
:107fc8001b8803f030031bb9044b4af203529a8012
:107fd80001205df8044b70472e2800200040004126
:020000040000fa
:107fe8000e4b1b68b3b11a89824204d05b688bb10f
:107ff8001a898242fad119685a6801b14a6002b1f5
:1080080011600021196059600449086819890389b9
:10801800994200d07047014b1a607047e828002049
:020000040000fa
:108028004572726f722053657474696e6773004c81
:108038006f63616c204572726f7220526561637460
:10804800696f6e0053796e63204572726f722043b8
:108058006f756e746572204c696d697400ff00005d
:020000040000fa
:1080680008b50a4b00221a80094b1b781bb1094b33
:108078005b88032b03d0084b00221a8008bd074bee
:108088001b88002bf7d1fff73dfbf4e7d829002028
:108098000d2a00209c260020d0290020d22900206b
:020000040000fa
:1080a80008b50b4b1b7843b10a4b1b782bb10a4b15
:1080b8001b781bb1094b1b782bb108bd2c21042060
:1080c800faf7d8f9f9e71a210420faf7d3f9f4e70f
:1080d8000b2a00200e2a00200a2a0020122a00203b
:020000040000fa
:1080e80002290dd0042913d0012901d0012070479d
:1080f80010f0070ffbd020f00700083080b270475f
:1081080010f0030ff3d020f00300043080b2704762
:1081180010f0010febd020f00100023080b2704760
:020000040000fa
:108128000d4b01221a601a46136913f0010ffbd197
:10813800094b18221a6003221a734ef66022da617c
:1081480033229a72054a0021116001225a721a4696
:108158001369002bfcd1704700380040d828002054
:020000040000fa
:108168000c4a036810b5546a0b4a591e121b8a42fe
:108178000ad22bb1094b0c221a604ff0ff3010bd08
:10818800102202600020fae7173323f00f03036080
:10819800f8e700bfd4250020efffff7fb4290020b7
:020000040000fa
:1081a800f8b505460f4600f013fd0028fbd1284618
:1081b80000f072fc00f00cfd0028fbd107f500561a
:1081c8003c46ed1b61192046fff7eafe00f000fd72
:0e81d8000028fbd104f50074a642f3d1f8bdd7
:020000040000fa
:0281e600fee7b2
:020000040000fa
:1081e8004964656e746974790056656e646f7220af
:1081f80049440050726f6475637420636f6465004e
:108208005265766973696f6e0053657269616c2097
:0c8218006e756d62657200ff000000bf13
:020000040000fa
:1082240010b582b004460023019304224ff4116177
:108234000deb020000f046fd019820b1a04238bfca
:1082440000f1ff30001b2cb1034b1b68834234bf89
:0c825400c01a002002b010bd3829002024
:020000040000fa
:1082600038b50c4b1d880c3da94214bf00220122d9
:10827000094b1b6853b10c469847034620b947f693
:10828000fc72ac4218bf1346184638bd4ff4004389
:0c829000fae700bff82900202029002098
:020000040000fa
:10829c0008b50d4b1b78012b08d08388c3f303233f
:1082ac00032b0bd0042b06d0022008bd8388c3f30c
:1082bc000323042b05d1fbf7b5f8f6e700f000fa21
:0c82cc00f3e70220f1e700bf092a0020c0
:020000040000fa
:1082d8000c4ba3fb01235b0902781a440270642249
:1082e80002fb1313dbb2084aa2fb0312d20841783f
:1082f8001144417002eb8202a3eb420330338370d6
:0c830800704700bf1f85eb51cdcccccce2
:020000040000fa
:1083140010b582b004460023019304224ff4017186
:108324000deb0200fdf7ccff01982040019000f016
:108334002bfe04224ff401710deb0200fef76cfcde
:0883440000f026fe02b010bd9e
:020000040000fa
:10834c0010b582b004460023019304224ff401714e
:10835c000deb0200fdf7b0ff01982043019000f0f7
:10836c000ffe04224ff401710deb0200fef750fcde
:08837c0000f00afe02b010bd82
:020000040000fa
:1083840030b404460144ff2008258c4212d014f86e
:10839400013b4340dbb22a4613f0800f4fea43030c
:1083a40018bf83f00703dbb2013a184612f0ff024c
:0883b400f2d1eae730bc70478a
:020000040000fa
:1083bc0000090138202813d9b0f5007f05d2094bec
:1083cc0003ebd00010f8040c7047b0f5e05f06d852
:1083dc00044b03ebd01010f8040c103070473f2006
:0883ec00704700bf287a000071
:020000040000fa
:1083f40030b583b04ff080730193c00000f60404dd
:10840400042221460deb0200fef706fc04252a4651
:10841400214601a8fdf754ff019b13f0807ff6d09d
:0484240003b030bdb4
:020000040000fa
:1084280008b5094a00231380538093800221d18024
:108438009360064a138053809380d18093600448e8
:1084480000f06afa08bd00bf542800204428002024
:04845800b028002028
:020000040000fa
:10845c0058b50a4b1b6883420dd316461b1a9cb2a7
:10846c008c4228bf0c46224605490144304600f098
:10847c00a2fb204658bd0024fbe700bf7829002052
:04848c0000000020cc
:020000040000fa
:1084900038b501210620fff727fe094cc0082070df
:1084a00000256570a57001210a20fff71dfec00898
:1084b000e07025716571a574e574257538bd00bf40
:0484c000b4270020bd
:020000040000fa
:1084c40030b583b000230193c00000f604040422f5
:1084d40021460deb0200fef79ffb04252a462146a8
:1084e40001a8fdf7edfe019b13f0807ff6d103b0e8
:0284f40030bd99
:020000040000fa
:0284f600fee79f
:020000040000fa
:1084f80008b5084b9b8b084a928b134313f0010f66
:1085080002d0064b1b8813b1fff7e6fc08bdfff746
:10851800ddfbf9e7e02600209c260020ea29002060
:020000040000fa
:1085280000b583b00023019304224ff4a0610deb42
:108538000200fdf7c3fe019b13f0c05f0cbf0122d0
:108548000022024b1a7003b05df804fb052a0020d4
:020000040000fa
:108558000a4a138852889a420ed0084a991c52f83f
:10856800210001339bb21380d2889a4200d0704711
:10857800024b00221a8070470020f8e744280020a8
:020000040000fa
:108588000a4a138852889a420ed0084a991c52f80f
:10859800210001339bb21380d2889a4200d07047e1
:1085a800024b00221a8070470020f8e75428002068
:020000040000fa
:1085b80008b500f0e9fbfff701fcfdf72ffd00f01f
:1085c80057f9fef77cfbfef7b5fefff7a9fd034957
:1085d800002000f0c5fbfff799f908bd748f000073
:020000040000fa
:1085e80070b505462c68e30701d500200fe020464a
:1085f800fff7e0fe064600f03ffa2868a042f1d1f6
:1086080020f00100281a3146fff738fa012070bd22
:020000040000fa
:10861800426822f00102531a102b30b40dd94418c5
:1086280041f0010543f00103455063608350456004
:0e86380004f1080030bcfdf797ba30bc704763
:020000040000fa
:02864600fee74d
:020000040000fa
:1086480008b5074b00221a60064800f0bff8034639
:1086580008b1184608bd044800f0b8f80346f8e722
:0c866800e82800200c220020ec23002059
:020000040000fa
:108674004f7574707574732070726f6365737320b3
:1086840064617461206d617070696e670053756216
:0c869400496e6465782030303100ff0032
:020000040000fa
:1086a000496e707574732070726f636573732064a4
:1086b000617461206d617070696e67005375624905
:0c86c0006e6465782030303100ff00004f
:020000040000fa
:1086cc0008b5c3881b0b013b072b05d8dfe803f06b
:1086dc000c060c0c0c0c0c09052006e0f8f7a2ff9c
:0c86ec0003e0fbf715f800e0042008bdd7
:020000040000fa
:1086f800064b1b784bb9054b01221a700023044a1c
:108708001360044a1360044a13607047222a002049
:0c871800742900206c290020702900202a
:020000040000fa
:1087240030b400eb4004084b03eb84031b7a834210
:1087340001d030bc7047044b4400251843f8251081
:0c87440003eb85035a60f4e704250020d5
:020000040000fa
:1087500008b5084b5b7a63b1064a937a332191726c
:1087600003f0ff002bb1044b1b6813b1024a5168a0
:0c877000984708bd00380040d8280020c1
:020000040000fa
:10877c0070b505466c68e30701d500200de0204676
:10878c00fff716fe064600f075f96b68a342f1d1af
:0c879c0028463146fff770f9012070bd3f
:020000040000fa
:1087a800074a136843b10749184488428cbf4ff001
:1087b800ff33106018467047034b1360f3e700bfa0
:0c87c800b829002030320020302a0020a8
:020000040000fa
:1087d40038b502894ff6ff739a420cd004461d4601
:1087e4002046fef7ebfd024618b928342389ab4234
:0a87f400f6d1104638bd0022fbe765
:020000040000fa
:1087fe0010b44a88531c9bb28c889c4208bf00233d
:10880e000c889c4207d0023241f822004b80002097
:0a881e005df8044b70470720fae7ed
:020000040000fa
:1088280030b583b0064c25683db11c460092054b17
:108838001b882246a84703b030bd4ff40040fae732
:0888480014290020c8290020ba
:020000040000fa
:1088500002460388418899420cd0991c50f82100a7
:1088600001339bb213809188994200d07047002356
:08887000138070470020f9e7b6
:020000040000fa
:10887800074b01221a6000225a604ff4e0629a60a6
:1088880002221a601a46136a13f0020ffbd07047cf
:048898000034004266
:020000040000fa
:10889c008389c3f30323082b05d001eb4101006945
:1088ac0000eb4100704709b9006970470069063058
:0288bc00704703
:020000040000fa
:0288be00fee7d3
:020000040000fa
:1088c000054b1b7f33b9054bd86980f00200c0f31c
:1088d00040007047012070478c2700200034004280
:020000040000fa
:1088e00010b5064b1c682cb120896468fff77cfb2f
:1088f000002cf9d1014b00221a6010bde82800209d
:020000040000fa
:1089000005000800070007002000070007002000fe
:10891000070007002000070007002000070000bf35
:020000040000fa
:1089200006494a88531c9bb2c988994208bf002354
:108930000249023241f822004b807047442800204f
:020000040000fa
:1089400006494a88531c9bb2c988994208bf002334
:108950000249023241f822004b807047542800201f
:020000040000fa
:1089600008b5054b1b6823b10a4604490988984796
:1089700008bd4ff40040fbe718290020c82900205b
:020000040000fa
:1089800010b5044600f05efa034638b10289a242ef
:1089900004d05b6813b11a89a242fad1184610bdff
:020000040000fa
:1089a00000000100030007000f001f003f007f00d0
:1089b000ff00ff01ff03ff07ff0fff1fff3fff7fc8
:020000040000fa
:1089c000034b044a1a60044b044a1a60704700bf04
:1089d00004290020e97700000c290020a975000077
:020000040000fa
:1089e00008b5054b01225a61044b1b6813b1034ab9
:1089f0005068984708bd00bf0028004004250020ab
:020000040000fa
:108a000008b5054b02225a61044bdb6813b1034ad7
:108a10001069984708bd00bf0028004004250020c9
:020000040000fa
:108a200008b5054b80225a61044b5b6d13b1034ab4
:108a3000906d984708bd00bf002800400425002025
:020000040000fa
:108a400008b5002204491046fff76cfe00220349d6
:108a50000120fff767fe08bd7d8f0000858f0000b5
:020000040000fa
:108a600010b5054ce3681b68002104489847e3688b
:108a70005b68984710bd00bf74280020058d00007a
:020000040000fa
:108a8000064b013053f830203ab9c100a1f1080279
:108a90001a44194443f830204a60704700200020ef
:020000040000fa
:108aa000044b00221a80044b58614af201529a800a
:0c8ab000012070472e28002000400041eb
:020000040000fa
:108abc0053796e634d616e6167657220322061730c
:0c8acc007369676e6d656e7400ff00003a
:020000040000fa
:108ad80053796e634d616e616765722033206173ef
:0c8ae8007369676e6d656e7400ff00001e
:020000040000fa
:108af4000023034a1380034a1360034a1360704738
:0c8b0400c62900204c2900204029002038
:020000040000fa
:108b100008b5054b186828b10021fef76bfa024b27
:0c8b200000221a6008bd00bf40290020a0
:020000040000fa
:108b2c0010b500f58071044c0822c9002046fdf7f1
:0c8b3c00c3fb204610bd00bfa82800208d
:020000040000fa
:108b4800044b1b78dbb2012b00d07047024b01228b
:0c8b58001a70fae7222a0020212a0020cf
:020000040000fa
:108b640008b5044b1b680bb1984708bd4ff400408f
:088b7400fbe700bf1c290020f3
:020000040000fa
:108b7c00044a136843f002031360136913f0020fe5
:088b8c00fbd1704700380040e6
:020000040000fa
:108b9400044a136823f002031360136913f0020fed
:088ba400fbd1704700380040ce
:020000040000fa
:108bac000068002808b501da002008bdfff7f6fdc3
:068bbc00431cfad1f8e7aa
:020000040000fa
:108bc20010b5431e0a44914200d110bd11f8014b69
:068bd20003f8014ff7e774
:020000040000fa
:108bd800034b588a80f0010000f00100704700bf85
:048be8000040004108
:020000040000fa
:108bec0048617264776172652076657273696f6e25
:048bfc00000000bfb6
:020000040000fa
:108c0000536f6674776172652076657273696f6ef3
:048c1000000000bfa1
:020000040000fa
:108c140054696d657374616d70204f626a65637425
:048c240000ff00004d
:020000040000fa
:108c280053796e63206d616e616765722074797027
:048c3800650000bf14
:020000040000fa
:108c3c00496e7075747300436f756e74657200ffc6
:048c4c00000000bf65
:020000040000fa
:108c50004f7574707574730054726967676572003c
:048c6000ff0000bf52
:020000040000fa
:108c6400050008000700070020003f000600100070
:048c74003f0000bffe
:020000040000fa
:108c78000023024a1360024a138070473c290020ef
:048c8800fc290020a3
:020000040000fa
:108c8c000023024a1370024a137070470c2a00200a
:048c9c000e2a00207c
:020000040000fa
:108ca000034b18885b88984214bf0020012070474e
:048cb0005428002024
:020000040000fa
:108cb4007d4b00002d8e0000c18d0000c188000096
:048cc400398e0000e5
:020000040000fa
:108cc80008b5b1f5805f02d3faf782fe08bdfdf75b
:048cd8002dfefbe78b
:020000040000fa
:108cdc0008b5b1f5805f02d3fbf7d8f808bdfef7f5
:048cec00e7f8fbe7c3
:020000040000fa
:108cf000034a137a002bfcd0014b00221a727047f2
:048d000074280020b3
:020000040000fa
:108d040008b5802383f31188fdf7d6fe002383f38f
:048d1400118808bdfd
:020000040000fa
:108d180008b5802383f31188fcf716fb002383f33f
:048d2800118808bde9
:020000040000fa
:108d2c0008b5002202490720fff7f6fc08bd00bf7a
:048d3c00198d00008d
:020000040000fa
:108d400008b54ff40061024800f034f908bd00bfd7
:048d500080800041de
:020000040000fa
:108d540008b54ff40061024800f02cf908bd00bfcb
:048d640080800041ca
:020000040000fa
:108d6800034b01221a720a685a604a68da6070472f
:048d7800742800203b
:020000040000fa
:108d7c0008b50020fff71afc00f0caf8fcf73ef922
:028d8c00fce702
:020000040000fa
:028d8e00fee7fe
:020000040000fa
:108d9000024b40f204521a80704700bf004000416d
:020000040000fa
:108da00008b513460a461946fff70bff012008bd18
:020000040000fa
:108db000024b4af217529a80704700bf00400041b0
:020000040000fa
:108dc00008b50b46024600210846fbf7d7fe08bd52
:020000040000fa
:108dd0004572726f72207265676973746572000004
:020000040000fa
:108de00008b5024b1b6803b1984708bd1029002045
:020000040000fa
:108df00002440346934200d1704703f8011bf9e790
:020000040000fa
:108e000003461a46013311780029fad1101a704727
:020000040000fa
:0e8e100008b5fff7b9fb08b1fef710fb08bd6f
:020000040000fa
:028e1e00fee76d
:020000040000fa
:0c8e2000014b588a704700bf0040004121
:020000040000fa
:0c8e2c0008b500231a46fbf7a3fe08bda2
:020000040000fa
:0c8e3800014b1862596270478c27002023
:020000040000fa
:0c8e4400014b1868704700bfe8280020b0
:020000040000fa
:0c8e5000446576696365207479706500e4
:020000040000fa
:0c8e5c00446576696365206e616d6500f9
:020000040000fa
:0c8e6800050008000700070020000700bc
:020000040000fa
:0c8e7400050008000700070020000700b0
:020000040000fa
:0c8e8000050008000700050008000700be
:020000040000fa
:0c8e8c00050008000700060010000700a9
:020000040000fa
:0c8e98000500080007000600100007009d
:020000040000fa
:0c8ea40005000800070007002000870000
:020000040000fa
:0c8eb000050008000700070020007f00fc
:020000040000fa
:0c8ebc0008b508461146fff74dfd08bd43
:020000040000fa
:0c8ec800014b1878704700bf212a0020e1
:020000040000fa
:0c8ed400014b5b6803607047b828002069
:020000040000fa
:0c8ee0000268014b5a607047c82800204f
:020000040000fa
:0c8eec00118f00007d8b0000958b0000b2
:020000040000fa
:0c8ef80008b5fff7b1fdfff715ff08bd3e
:020000040000fa
:0c8f0400014b01221a72704774280020f3
:020000040000fa
:0c8f1000014b186059607047d828002001
:020000040000fa
:0c8f1c00014b00221a707047bc29002095
:020000040000fa
:0a8f280008b5fff70dfe002008bd9c
:020000040000fa
:028f3200fee758
:020000040000fa
:088f340007002000070000bf48
:020000040000fa
:088f3c0005000800070000bf5a
:020000040000fa
:088f44000900a800070000bfae
:020000040000fa
:088f4c0009001800070000bf36
:020000040000fa
:088f540009001800070000bf2e
:020000040000fa
:088f5c001b004000bf0000bf34
:020000040000fa
:088f640008b5fff7f7fa08bd9c
:020000040000fa
:088f6c000a00000000030010e0
:020000040000fa
:088f7400b48c0000ec8e00003b
:020000040000fa
:088f7c0008b5fcf7f7fa08bd87
:020000040000fa
:088f840008b5fff76ff808bd06
:020000040000fa
:088f8c00802383f31188704774
:020000040000fa
:088f9400002383f311887047ec
:020000040000fa
:048f9c000a307047e0
:020000040000fa
:048fa00000207047f6
:020000040000fa
:048fa40000207047f2
:020000040000fa
:048fa80000207047ee
:020000040000fa
:048fac0000207047ea
:020000040000fa
:048fb00000207047e6
:020000040000fa
:048fb4008161704720
:020000040000fa
:048fb800416170475c
:020000040000fa
:028fbc007047fc
:020000040000fa
:028fbe007047fa
:00000001FF
