:020000040000fa
:10000000f0ff022025590000ff6e00006f72000013
:10001000c3740000bf7500003976000000000000c6
:10002000000000000000000000000000036b000062
:100030001374000000000000036b0000036b00005d
:10004000036b0000036b0000036b0000036b0000f8
:10005000036b0000036b0000036b0000036b0000e8
:10006000036b0000036b0000036b0000036b0000d8
:10007000e16f000001700000036b0000036b0000e3
:10008000036b0000036b0000036b00002170000095
:10009000036b0000036b0000036b0000036b0000a8
:1000a000036b0000036b0000036b0000036b000098
:1000b000036b0000036b0000036b0000036b000088
:1000c000036b0000036b0000036b0000036b000078
:1000d000036b0000036b0000036b0000036b000068
:1000e000036b0000036b0000000000000000000034
:1000f00000000000036b0000036b0000036b0000b6
:10010000036b0000036b0000036b0000036b000037
:10011000036b0000036b0000036b0000036b000027
:10012000036b0000036b0000036b0000036b000017
:10013000036b0000036b0000036b0000036b000007
:10014000036b0000036b0000036b0000036b0000f7
:10015000036b0000036b00000000000000000000c3
:10016000000000000000000000000000000000008f
:10017000000000000000000000000000000000007f
:10018000036b0000036b0000036b0000036b0000b7
:1001900000000000036b0000036b0000036b000015
:1001a000036b0000036b0000036b0000036b000097
:1001b000036b0000036b0000036b0000036b000087
:1001c000036b0000036b0000036b0000036b000077
:1001d000036b0000036b0000036b0000036b000067
:1001e000036b0000036b0000036b0000716d0000e7
:1001f000036b0000036b0000036b0000036b000047
:10020000036b00000000000000000000036b000012
:10021000036b0000036b0000036b0000036b000026
:10022000036b0000036b0000036b0000036b000016
:10023000036b0000036b0000036b0000036b000006
:10024000036b0000036b0000036b0000036b0000f6
:10025000036b0000036b000085360000036b000099
:020000040000fa
:10026000f8b500bff8bc08bc9e467047dd670000cb
:10027000f8b500bff8bc08bc9e467047b9670000df
:020000040000fa
:100280002de9f0414ff6ff72b44b1a800122b44bb6
:100290001a7010f0100736d0b24a137823f010030a
:1002a000137001270e4600f00f05ae4b1c7805ebce
:1002b000041404f0ff04442c0fd000f2f082222c2e
:1002c00000f0e78240f2e481242c40f0df82a6496e
:1002d000a64803f07dfe804648b9a54b187802f089
:1002e000bdff1ffa80f8b8f1000f00f03b839d4b73
:1002f0001b78042b00f05a81082b00f05381022b4d
:1003000040f05e8156e1974b1b7813f0100f05d03b
:1003100000f00f02012a01d0bde8f08103f00f03c5
:10032000904a1370bee70122924b1a70022002f02d
:1003300095ff28b100228f4b1a704ff0150842e14b
:10034000002006f08bfb05f053f8804678b1b8f139
:10035000ff0f00f00484824b1b78bbb103f01afc42
:10036000032005f0d6fc0022824b1a702be10022fc
:100370007b4b1a7007f052f980460028e7d1012222
:100380007d4b1a70032005f0c4fc1ce107f012f944
:10039000e4e7784b1b7843b94ff0000805f03dfdca
:1003a0000022764b1a703123aee00020714b18709a
:1003b00006f054fb03f0eefb07f0fcf88046ede797
:1003c00006f008fc6e4b1b78002b00f0c58305f08f
:1003d0000ff8804648b1b8f1ff0f00f0cd83604bb5
:1003e0001b7873b103f0d6fbede000225c4b1a7072
:1003f00007f014f980460028edd101225e4b1a70f7
:10040000e1e007f0d7f8ede701f03afb804648b1ac
:10041000b8f1ff0f00f05182514b1b789bb104f0f3
:10042000effbd0e000224e4b1a70564807f0f8f868
:1004300080460028ecd1534b188806f02bfb012294
:10044000514b1a70bfe007f0edf8e8e706f076f8d8
:10045000804648b1b8f1ff0f00f03682404b1b7860
:1004600073b106f055ffaee000223d4b1a7007f065
:10047000dbf880460028edd10122444b1a70a2e03f
:1004800007f0d4f8ede707f0d1f806f041ff4ff0a0
:100490000008334b83f8008095e007f0c7f88046ea
:1004a00006f036ff00222e4b1a70b8f1000f40f014
:1004b000168207f0b7f804f0a3fb4ff00008284bb2
:1004c00083f800807fe007f0b1f8804606f020ff57
:1004d0000022234b1a70b8f1000f40f0028207f09f
:1004e000a1f8804604f08cfb00221d4b1a70b8f175
:1004f000000f40f0f88103f04dfb07f05bf88046f9
:1005000000221e4b1a702123b8f1ff0f5bd101218d
:100510001f4a11701f4a1380c822104b1a8084e0b2
:100520000022164b1a7077b90e4b1b7813f00c0f84
:1005300000f0cf810c4b1b884bb90c4b1b885bbb6d
:100540004ff0fe083fe0204605f04fffece70220a9
:1005500006f0f2fa4ff0fe0835e000bf5601002029
:100560001e0100201f010020200100204e0100205c
:10057000660100205801002002020020b002002085
:100580003928002036010020600100205a01002097
:100590004c0100201a010020032006f0cdfa4ff094
:1005a000fe0810e007f042f806f0b2fe07f03af855
:1005b00004f026fbb8f1160f16d00222cb4b1a70ae
:1005c000b8f1ff0f21d0c94b187800f00f03ab42f0
:1005d00057d0b8f1000f40f09381002e40f0bb815e
:1005e000c24b1d70b046ace103f0d4fa06f0e2ff56
:1005f000002006f06bfa012006f068fa0122bb4bde
:100600001a70e0e74ff01108dae70122b84b1a70d0
:10061000b84b1c80242c18d014d8123c94423ff6be
:100620007baf4ff4fa62b44b1a80b348b0f9003094
:10063000b24981fb0321da17c2eba1029b1a0380a6
:10064000bde8f081482c7ff467af42f22832aa4b14
:100650001a80eae74ff01108b5e706f0e7ff06f069
:1006600057fe56e1022006f031fa5ce1032006f065
:100670002dfa58e104229d4b1a705de1002eafd097
:100680006de100219a4b197004f00affbde8f0817a
:10069000122c00f0fe800022964b1a80a4f1110368
:1006a000772b00f2138101a252f823f021050000fc
:1006b000c10300002703000005060000cd0800006c
:1006c000cd080000cd08000005060000cd080000a0
:1006d000cd080000cd080000cd080000cd080000c6
:1006e000cd080000cd080000cd080000f704000090
:1006f000270500000506000009040000cd080000e1
:10070000cd080000cd08000005060000cd0800005f
:10071000cd080000cd080000cd080000cd08000085
:10072000cd080000cd080000cd08000093030000b4
:1007300005060000cd08000005060000cd080000f9
:10074000cd080000cd08000005060000cd0800001f
:10075000cd080000cd080000cd080000cd08000045
:10076000cd080000cd080000cd080000df04000027
:10077000b30400000506000027050000cd080000b6
:10078000cd080000cd0800004d040000cd08000099
:10079000cd080000cd080000cd080000cd08000005
:1007a000cd080000cd080000cd080000cd080000f5
:1007b000cd080000cd080000cd080000cd080000e5
:1007c000cd080000cd080000cd080000cd080000d5
:1007d000cd080000cd080000cd080000cd080000c5
:1007e000cd080000cd080000cd080000cd080000b5
:1007f000cd080000cd080000cd080000cd080000a5
:10080000cd080000cd080000cd080000cd08000094
:10081000cd080000cd080000cd080000cd08000084
:10082000cd080000cd080000cd080000cd08000074
:10083000cd080000cd080000cd080000cd08000064
:10084000cd080000cd080000cd080000cd08000054
:10085000cd080000cd080000cd080000cd08000044
:10086000cd080000cd080000cd080000c70400003e
:100870009b0400000506000087040000cd0800006e
:10088000cd080000cd08000027050000422c7ff4b1
:1008900002af022002f0e2fc1ffa80f823e5822c6e
:1008a000f7d006d9842c3ff418ad882c3ff415ad51
:1008b000f1e6482c3ff411adede6242201210c4b6a
:1008c00019700c4b1a80c0e64822f7e74ff0120867
:1008d00079e64ff0fe0876e64ff0120873e68223c1
:1008e00012e6812310e641230ee600bf1f0100201f
:1008f0004c0100201a010020560100206766666640
:10090000284310f0080f12d09f4b1b78002b7ff468
:10091000a4ae9e4b1b88002b7ff4a4ae9c4b1b887f
:10092000002b7ff4a3aeb8f1000f3ff4a7ae994bb4
:100930001b78082b3ff49eae964a137843f01003c1
:1009400013700022944b1a704146924b187804f0b1
:10095000a7fdbde8f081284310f0080fd4d145f081
:1009600010053de600228d4b1a80a4f11103772b70
:10097000b2d801a252f823f021050000c103000003
:100980002703000055060000d9080000d908000020
:10099000d908000055060000d9080000d908000059
:1009a000d9080000d9080000d9080000d9080000c3
:1009b000d9080000d9080000f7040000270500004e
:1009c0005506000009040000d9080000d9080000fd
:1009d000d908000055060000d9080000d908000019
:1009e000d9080000d9080000d9080000d908000083
:1009f000d9080000d9080000930300005506000044
:100a0000d908000055060000d9080000d9080000e8
:100a1000d908000055060000d9080000d9080000d8
:100a2000d9080000d9080000d9080000d908000042
:100a3000d9080000d9080000df040000b30400005a
:100a40005506000027050000d9080000d90800005d
:100a5000d90800004d040000d9080000d9080000a2
:100a6000d9080000d9080000d9080000d908000002
:100a7000d9080000d9080000d9080000d9080000f2
:100a8000d9080000d9080000d9080000d9080000e2
:100a9000d9080000d9080000d9080000d9080000d2
:100aa000d9080000d9080000d9080000d9080000c2
:100ab000d9080000d9080000d9080000d9080000b2
:100ac000d9080000d9080000d9080000d9080000a2
:100ad000d9080000d9080000d9080000d908000092
:100ae000d9080000d9080000d9080000d908000082
:100af000d9080000d9080000d9080000d908000072
:100b0000d9080000d9080000d9080000d908000061
:100b1000d9080000d9080000d9080000d908000051
:100b2000d9080000d9080000d9080000d908000041
:100b3000d9080000d9080000c70400009b04000089
:100b40005506000087040000d9080000d9080000fd
:100b5000d9080000270500004ff0510833e50320b5
:100b600005f0d7f800220e4b1a7001220a4b1a70ba
:100b700013220a4b1a8054e50122074b1a701222e5
:100b8000064b1a804de500bf5a01002020010020cd
:100b90004e0100201f0100204c0100201a010020fe
:040ba00058010020d8
:020000040000fa
:100ba4002de9f04f89b0a54b1c7824b109242046c7
:100bb40009b0bde8f08f0546b0f808805ffa88f701
:100bc40007f0e006202e27d01ad9402e24d0602e1c
:100bd40018d19b4b1b78b34200f0d1814ff0000930
:100be400cdf808904ff0030a0195029b00931ffa79
:100bf40089f307f010023146504603f065fcd6e74e
:100c0400002ee6d04ff00009cdf808904ff0030a0b
:100c1400baf1ff0fcbd0e7e7b5f800a0b5f80ab0fa
:100c24004fea182303eb0b239bb203934fea1b2bce
:100c3400184606f0b3f90490002800f0a283037b61
:100c44009b4506d94ff00009cdf808904ff0110ae2
:100c5400cae707f01003059302465946039804f0c7
:100c6400f5fe0290402e0fd0202e2bd00694ddf8f6
:100c7400089000230793059b002b56d0bbf1010f6e
:100c840051d94ff0050aafe7baf10a0f01d0082491
:100c94008de7431e032b08d805f10c0307930023ab
:100ca400ab81eb8106948146e5e7664b1b88a3f193
:100cb4001009029b4b4500f2448305f1100307938e
:100cc4000694d8e717f0020f0dd0baf10a0f01d03d
:100cd40008246ce7c7f38103c3f1040905f10c038d
:100ce40007930694c7e7ea89ab8903eb0249564b9d
:100cf4001b8809f110029a4204d9063b9a4507d091
:100d0400082454e709f10a039a4501d008244ee760
:100d140005f110030793aaf10a03994594bf002330
:100d240001230693a7e701230593069b002b42d1d9
:100d3400029b4bb9454bbdf80c201a80444b83f8f9
:100d440000b0444b049a1a60402e00f0e380059be7
:100d54000193079b0093049b4a465946039801f06c
:100d6400bff98246ff287ff43faf01233a4a13704c
:100d74003a4a9df814101170394a82f800b0394a81
:100d8400bdf80c101180384ac2f80090374a079910
:100d94001160049a116a364a1160284a1370354b5f
:100da4001d602b8923f0ff0308f0f00843ea0803d1
:100db4002b81069cfbe601232f4a13702f4a1370e4
:100dc4002f4b9df814201a70204bbdf80c201a806c
:100dd4001f4b83f800b01f4b049a1a60402e294b16
:100de40006bf029a1a60c3f80090274b186808b12e
:100df40006f046fb234b1868013020f0010006f092
:100e040037fb214b186080b1402e41d0aaf10a096a
:100e14004a4605f1100106f01dfa0022084b1a702b
:100e2400a2461a4bc3f80090f2e6059b002b14bfb0
:100e34004ff0050a4ff0040ad6e600bf3c28002014
:100e4400f32200200c0200201e02002008230020b0
:100e5400202300201c230020f0220020f122002067
:100e6400242300202223002000230020dc22002051
:100e7400ec220020fc220020e5220020f2220020a7
:100e8400e4220020e822002004230020e0220020a5
:100e9400059b01930090049b029a5946039801f024
:100ea400a7fb824658b3ff28bbd10422b84b1a7063
:100eb400b84b9df814201a70b74b83f800b0b74ba9
:100ec400bdf80c201a80b64b029a1a60b54b1a680a
:100ed400b54b1a60049bda69b44b1a600122b44b17
:100ee4001a70b44b1d602b8923f0ff0308f0f0083f
:100ef40043ea08032b816022af4b1a7057e64a4637
:100f0400a84b196805f1100006f0a4f96022aa4b59
:100f14001a7086e7059b0193079b0093049b029a32
:100f24005946039801f064fb8246ff287ff45caec7
:100f34000322974b1a70974b9df814201a70964b06
:100f440083f800b0954bbdf80c201a80944b029a9c
:100f54001a60954b079a1a60049bda69934b1a60de
:100f64000122934b1a70934b1d602b8923f0ff03ce
:100f740008f0f00843ea08032b81069c17e6002ecc
:100f840040f03d818d4b1a7808f010039a4200f02e
:100f9400f2818b4b1b88093b9bb207f010028749f7
:100fa4000a70804a1068002800f0e881854a1168b8
:100fb400854a1268521a18f0010f1ad09a4200f2a8
:100fc400c5812b88033b9a4200f2c0816fea680e08
:100fd4000ef0070e724505d0072a40f2b7819a42f7
:100fe40040f0b4814ff0000e784b83f800e0914656
:100ff40009e04ff0010cdff8d4e18ef800c0994607
:101004009a4240f2a38111f0010f4ed149086a8936
:101014004fea182343ea022320f8113009f10100b2
:10102400400801281ad901218846dff898c1dff861
:1010340074e105eb4102dcf8003008eb5308b2f828
:1010440008a053891b0243ea1a23def8002022f881
:101054001830013189b288468142ead35b4b93f858
:101064000080b8f1000f41d00a232b7000236b706d
:10107400eb88c3f30b0343f44053eb804f4b1b78d3
:10108400002b00f0ad8030232b7200236b724f4b8a
:101094001b78012b00f0a98000234a4a1360464aba
:1010a4001370b246994602939ee5490810f8113030
:1010b40020f811303b49434802685208d1f800e057
:1010c4002b8923f0ff033ef812c043ea0c032ef8e9
:1010d4001230036823f001030233086809f1ff3278
:1010e40005f10a01184406f0b5f8b7e7384bd3f810
:1010f40000c0354a12683749097837480088dff854
:10110400dce09ef800e0cdf804e0dff898e0def8db
:1011140000300093634600f0e3ff8246ff2829d1a4
:1011240002221b4b1a702d4b1a781a4b1a70294b3a
:101134001a78194b1a70284b1a88184b1a80224bac
:101144001a68174b1a60174b1a68174b1a60204b12
:101154001b681a6a154b1a600122154b1a70154b3d
:101164001d600023194a1370134a1370154a136043
:1011740044461ce5dff82c80d8f8000006f080f91e
:101184000023c8f80030baf1000f3ff46dafdfe080
:10119400f0220020f122002024230020222300201a
:1011a4000023002004230020dc220020ec22002065
:1011b4003c280020fc220020f3220020f222002000
:1011c4001e020020e0220020e8220020e522002068
:1011d4001c2300202023002008230020e4220020d8
:1011e40020232b7200236b7251e76d4a13684b4422
:1011f4001360b2464ff00009cdf80890f4e42a7a5f
:1012040002f01002674b1b78934200f0c180664bda
:101214001b88093b9bb263490a709946604a12686d
:101224006249096813448b4286bfa1eb020900217d
:1012340001215f4b19705ffa88f8a5f8088012f055
:10124400010354d14fea520e5a4a106830f81e2056
:1012540048ea0228a5f808805fea590c13d0002157
:101264001a46724400eb4203b3f8028030f812309d
:101274001b0a05eb410243ea08235381013189b279
:101284000a468c45edd8eb88c3f30b0343f4405373
:10129400eb802b8903f47f432b81454a1278002a83
:1012a4003ad0404a127813432b81b9f1060f3ad849
:1012b4000a232b7000236b70c9f107032a8942eac1
:1012c40043032b813a4b1b78012b30d0dff8e480a9
:1012d400d8f8000006f0d4f80023c8f80030304aeb
:1012e4001360354a1370a246994602937ce4314b4d
:1012f4001968520831f8123023f0ff0343ea080852
:10130400a5f8088001eb420109f1ff32023105f131
:101314000a0005f09fffb6e7224a127842f0010264
:1013240013432b81c1e709f103032b80cae71c4a4d
:1013340013684b441360a2464ff00009cdf808909f
:1013440052e4012306930023079394e44ff00e0a1a
:101354000023174a1370184a1370164b186820b1eb
:1013640006f08ef80022134b1a6000230c4a136017
:10137400994602934ce44ff0010ae9e74ff0030a5f
:10138400e6e74ff00009cdf808904ff0080a2be487
:101394004ff00009cdf808904ff0010a24e400bf93
:1013a400e0220020f22200200c020020e82200208b
:0c13b400e522002004230020f32200208a
:020000040000fa
:1013c0004c2700201c00000000000000000000204e
:1013d00006000000000000007e2700200200000040
:1013e00000000000b1270020010000000000000004
:1013f000080000202800000000000000f82700205e
:101400000400000000000000ee27002002000000a1
:1014100000000000c02700200800000000000000bd
:10142000d425002018010000010000000000000089
:101430000000000001162100010900000c750000e9
:10144000c06c0000e0270020000000000000000049
:10145000000000000000000000000000001a210051
:101460000109000018750000ec6c0000d027002076
:10147000000000000000000000000000000000006c
:1014800000000000121c060001080000307500007a
:10149000187100001c28002000000000000000005f
:1014a000000000000000000000000000131c060007
:1014b000010800003c750000347100002028002065
:1014c000000000000000000000000000000000001c
:1014d0000000000000602a000109000048750000bb
:1014e000c0720000c82700200000000000000000bb
:1014f00000000000000000000000000010702a0042
:101500000109000054750000d4720000d8270020a3
:1015100000000000000000000000000000000000cb
:1015200000000000ffff00000000000000000000bd
:1015300000000000000000000000000000000000ab
:1015400000000000f4230020e00100000100000082
:10155000000000000000000000100700000700006d
:10156000c0750000f4740000002800200000000096
:10157000000000000000000000000000000000006b
:101580000110050000070000c87500005474000039
:10159000ee27002000000000000000000000000016
:1015a0000000000000000000081009000007000013
:1015b000d0750000007500006827002000000000c2
:1015c000000000000000000000000000000000001b
:1015d0000910090000070000d875000070720000b3
:1015e000fc270020000000000000000000000000b8
:1015f00000000000000000000a10090000070000c1
:10160000e075000084720000e82700200000000060
:1016100000000000000000000000000000000000ca
:101620001810230004090000206f0000f868000073
:1016300080270020000000000000000000000000e3
:101640000000000000000000f1102a000209000064
:10165000e872000038680000b42700200000000095
:10166000000000000000000000000000000000007a
:10167000f8101b0000070000e875000098720000d9
:10168000c0270020216600000000000000000000cc
:101690000000000000000000001c0500040800001d
:1016a00024750000ac720000f0270020000000004c
:1016b000000000000000000000000000000000002a
:1016c000321c290020090000e8500000d84000002a
:1016d0006c0200200000000000000000000000007c
:1016e0000000000000000000331c29002009000059
:1016f000e8500000d841000028020020000000004f
:1017000000000000000000000000000000000000d9
:10171000ffff0000000000000000000000000000cb
:1017200000000000000000000000000000000000b9
:1017300068270020160000000100000053414d44be
:10174000353120457468657243415420536c61768d
:1017500065000000fc2700200400000001000000dc
:10176000312e3000e82700200600000001000000b4
:10177000332e302e3000000080270020140000009f
:101780000100000004000000d80400005292000094
:101790000100000001000000f0270020060000000a
:1017a00001000000040002010403000000280020e2
:1017b0000400000001000000891300003000002038
:1017c0000800000000000000f627002002000000d2
:1017d00000000000b227002002000000000000000e
:1017e00036280020010000000000000034280020fe
:1017f0000200000000000000372800200100000067
:101800000000000038280020010000000000000057
:1018100038000020c400000000000000fc00002090
:10182000040000000000000000010020160000007d
:101830000000000039280020010000000000000026
:10184000042800200400000000000000180100200f
:1018500052000000000000006c0100202800000081
:10186000000000009401002094000000000000002f
:10187000a42700200d0000000100000053756249fc
:101880006e6465782030303000000000b4270020fe
:101890000c00000001000000020000000100000038
:1018a00004000000280200208e000000000000005c
:1018b0003a28002001000000000000003b28002022
:1018c00001000000000000000828002004000000c3
:1018d000000000000c2800200400000000000000b0
:1018e0001028002004000000000000001428002040
:1018f0000400000000000000c827002008000000cd
:10190000010000000100000000000000d0270020be
:10191000080000000100000001000000200100603c
:10192000d82700200800000001000000010000008e
:1019300000000000e0270020080000000100000077
:101940000100000020011070182800200400000091
:1019500001000000e80300001c2800200400000033
:1019600001000000010001162028002004000000f2
:10197000010000000100001ab80200202020000031
:10198000000000003c2800200100000000000000d2
:10199000d82200204d000000000000002823002075
:1019a000c000000000000000e82300200800000044
:1019b000000000003d2800200100000000000000a1
:1019c00094270020100000000000000024280020c0
:1019d000040000000000000028280020040000008f
:1019e000000000002c28002004000000010000007e
:1019f000ec260020ec260020600000000100000022
:101a000000000000000000000000000000000000d6
:101a100000000000000000000000000000000000c6
:101a200000000000000000000000000000000000b6
:101a300000000000000000000000000000000000a6
:101a40000000000000000000000000000000000096
:101a50000000000000000000000000000000000086
:101a6000f0230020040000000000000030280020c7
:101a70000400000000000000000000000000000062
:020000040000fa
:101a8000f0b585b00023029301939a4a94899a4a4b
:101a900095899a4a13809a4a1370022005f074fbc4
:101aa0000268984b1a80436803f00203002b0cbfb6
:101ab00003260126032005f067fb0368924a138082
:101ac000426802f00202002a0cbf032201229bb2ec
:101ad0008e49088800fb02328d4909888a420bdd55
:101ae0008c4f3f880f44bb4206da0221032002f0ec
:101af00071fc1e2005b0f0bd874f3f88ba4204dd5f
:101b0000864a12883a449342efdb7e4ab2f800e0fc
:101b1000834a128806fb02e6b1420ada7d4a12883d
:101b200011448e4505da0221084602f053fc1d20bf
:101b3000e0e7b74204da794a12881744be45f2db7f
:101b4000b34202da03449e45eddb04224ff41861f0
:101b500003a803f04bfebdf80c30039304224ff4ae
:101b60001a6102a803f042fe042240f6a4110deb14
:101b7000020003f03bfe019e5e4b59885e4b5a8883
:101b8000039b13f4106f00f0748113f4007f01d1f4
:101b90003020afe72c400bd014f0040f00f0598137
:101ba00014f0080f04d113f4806f01d03020a1e7a6
:101bb000029850b14f4d2d69854201d9362099e7e1
:101bc000584da84201d9362094e703f4c065b5f515
:101bd000c06f10d05448007800bb514a11880029ca
:101be00052d14a4a1488002c00f0b88113f4806f57
:101bf0005dd102224be1002eecd08642c0f037814d
:101c000014f0100f01d1302074e70120464c2478e5
:101c1000002ce2d013f4806f04d038e113f4806f0d
:101c20000ad10020032900f01a81032a00f019814b
:101c300013f4007f04d03be013f4007f30d1002088
:101c4000022900f01081022a00f00f81032900f020
:101c500021810c460ee0324b1c8834b12b4b1a8884
:101c6000002a40f03281012404e0284b1a88003217
:101c700018bf01222d4b1b78002b40f07581002ce2
:101c800040f01481292035e7002840f013811f4ad5
:101c900012887ab113f4806f04d10222114607e052
:101ca0000020f4e003220221f1e00322f2e003220b
:101cb000022908d1029b0f494b624b600e494b62cf
:101cc0004b600224eee00c46d4e70120184a108055
:101cd000b1fbf3f082b2174c228003fb1013002bf0
:101ce00000f0c8810132134b1a80c3e10121104b6f
:101cf0001980bae16c020020280200203601002081
:101d0000540100202c010020680100204e01002019
:101d1000160200200c020020040200201e020020f7
:101d200020010020000050c3b00200201801002054
:101d3000500100204a01002004a8002340f8103d73
:101d400004224ff4806103f051fd009b9ab2cab1a6
:101d50000232a3b246f2a71102fb0313db08904a3a
:101d6000a2fb03231b0a8f4a138000228e4b1a808a
:101d70008c4b1b88002b00f093818c4b1b782bb96c
:101d80001f20b7e60022874b1a80eee7884b1b78ae
:101d90003bb1884b1b8823b1874a138843f4806387
:101da00013800023854a1380854a1380854a138057
:101db000854a1380854a1370854a1370854a1380bb
:101dc000854a1385538582f84030844a13855385ac
:101dd00082f84030039a12f4007f18d0029900294b
:101de00000f0a3804b097e48a0fb0303db09042b12
:101df00017d80120714b188012f4806f07d0019b17
:101e0000994240f297806d4b1a886f4b1a80694b4c
:101e10001b88b3b9734b1b88bbb904f0fbf80020d7
:101e200068e65b009bb27048a0fb0303db086348d5
:101e30000380e1e75b000a22b3fbf2f3624a1380fe
:101e400084e0022004f078fee4e7032004f074fe4e
:101e5000e3e730204ee630204ce630204ae63020e2
:101e600048e6302046e6302044e6302042e60020b6
:101e7000cce65e4b187800283ff4edae8b1e9bb28b
:101e8000012be8d9931e9bb2012be6d90020032930
:101e90007ff40eaf029b51494b624b604e494b623f
:101ea0004b600324524b1b78002b60d1002a5ed17b
:101eb00029201fe64b4a1288002aebd013f4806fca
:101ec0007ff4f3ae02220321e1e722220124d1e6ce
:101ed000374b1b78002b40f0978000233f494b8005
:101ee0003d494b8043490b8043490b8043490b805c
:101ef00043490b80012840f0b880029bf1189e42b4
:101f0000fff4e3aeb1fbf3f082b203fb10134bb965
:101f1000511c3a4b1980374b1a80abe00121394be9
:101f200019708ce0354b1a80dce612f4806f3ff4b8
:101f30006eaf019b0b445b09294aa2fb0323db091b
:101f4000042b3ff677af01221f4b1a801e4a1b4b12
:101f50001988138803eb5103138058e7244b1b782f
:101f60000bb92920c6e522460cb9002ab0d00121c0
:101f70000f4b19700f4b1b88002b4ad04ff4806118
:101f80000d4b1980a31e9bb2012b4ed801211d4b76
:101f9000197057e04ff48061074b1980144644e0f4
:101fa00089b5f8145e0100201c01002062010020a8
:101fb0006101002020010020360100202e010020b8
:101fc000240100205c0100203401002038010020a1
:101fd0005501002032010020280200206c02002060
:101fe000c55a7c0a4e010020cdccccccb0020020da
:101ff000180100204a010020280100205001002083
:102000006401002059010020294b1c88002cc1d1fb
:102010002246284b1b881bb14ff40061264b1980c8
:10202000a31e9bb2012b7ff679af931e9bb2012baf
:1020300008d80121214b19701d4b1b8813b90021b1
:102040001d4b19801e4b5c801e4b5a8000231e497d
:102050000b801e490b801e490b801e490b800128f6
:102060003ff44baf022c3ff441ae032a02d00122d1
:10207000154b1a800023184a138004a840f8103d1d
:1020800004224ff4846103f0b1fb009c084b1b88d1
:102090001bb1a3b2002b7ff44fae00220f4b1a806e
:1020a0000f4b1b78002b3ff471ae1f2022e500bfc1
:1020b000200100204e01002036010020590100209f
:1020c0006c020020280200204a0100202801002084
:1020d0005001002064010020b40200205e010020b5
:0420e0006201002079
:020000040000fa
:1020e4002de9f04f8bb004900c4616461d46ddf8e2
:1020f40050809df854b01ffa81fa9b89c3f30322e0
:102104000692dbb20593072a00f03e821946ab69ba
:1021140093f80090b9f1000f40f04182a0f5e0532c
:10212400103b9bb21f2b40f23882a0f5b0539bb2f8
:10213400b3f5007fc0f04082a0f5d0539bb2b3f555
:10214400007fc0f03c824ff23003984208bf8946ba
:1021540025e2f4b90eb198f80090079439e02146cd
:10216400284604f0b9fe8288b24b1b7803f00e03b4
:1021740013eaa2030bd112f0380f02d01a230393ef
:1021840016e2002a0cbf05230723039310e25cb375
:10219400d1460499a1f5e053103b9bb21f2b12d9f1
:1021a400a1f5b0539bb2b3f5007f0cd3a1f5d05386
:1021b4009bb2b3f5007f06d34ff23003994202d0ad
:1021c4000023079305e0ab691b78003318bf012394
:1021d40007932f6a5fb1cdf800b0434632462146db
:1021e4000498b8470390e3e1d1460794f1e7002e41
:1021f40000f0a081ca4500f2a0815446072303934e
:1022040000230893049ba3f5e053103b9bb209936e
:1022140031e1102a40d0202a40f05c8110f00f0fe9
:1022240040f0a081079b5bb13288b8f800309a4235
:1022340040f09b817288b8f802309a4240f098814d
:10224400b8f800303380b8f80230738008f104081d
:10225400012308930be1022b17d8002b40f0918047
:10226400bbf1000f00f06f817b8813f00f0f05d0d6
:10227400184410f00f0f08bf08f10208c3f303134a
:1022840008eb430801230893f1e0032b04d0042b4b
:10229400c4d073e0072bc1d210f00f0f40f0598166
:1022a400b8f80070079b1bb13388bb4240f05481df
:1022b400099b1f2b0ed8a7f5b0539bb2b3f5007f33
:1022c40008d3a7f5d0539bb2b3f5007f02d3002ff8
:1022d40040f04581049ba3f5e153123b9bb2012bd3
:1022e4007bd9378008f1020801230893bfe00b2b48
:1022f4002bd943e02d2b44d021d81e2b41d018d804
:10230400152b01d01b2b39d110f00f0f40f0338166
:10231400b8f800303380b8f802307380b8f804306d
:10232400b380b8f80630f38008f108080123089355
:102334009de01f2bb0d0202b3ff470af1ee0372b55
:1023440015d9a3f51873032b18d810f00f0f40f00c
:1023540018817a880732d2104146304604f07aff59
:102364007b881b0908eb4308012308937fe0302b8b
:1023740007d22e2b90d02f2b3ff450af182303936a
:1023840016e17a882c4b33f8122000f00f0e02fa73
:102394000ef1338823ea01031bb2bbf1000f10d006
:1023a400b8f8002011400b439bb233807b8818445b
:1023b40010f00f0f40f0b48008f1020801230893d5
:1023c40055e0b8f8001031ea020c40f0bf800a4032
:1023d40002fa0ef213439bb2e7e7012c1bd0082c40
:1023e4007ff47faf154a002353611549116153608f
:1023f400144a53611161536017f0020f3ff471af37
:102404000e4a5385138582f840300e4a538513854e
:1024140082f8403065e73388bb4207d039460498d8
:1024240001f08afa0390002840f0c2800122064b92
:102434001a7056e71f010020c06f00006c020020d4
:10244400a086010028020020b0020020002c62d0e7
:102454007b8813f00f0f05d0184410f00f0f08bf3e
:1024640008f102081b0908eb4308182303930134fd
:10247400a4b24c4557d8e6b23146284604f02cfda8
:1024840007462946304602f0f9fc584b1b7803f006
:102494000e03ba8813eaa203d8d0ae69002c00f068
:1024a4009180c0f30f1306eb4306a24507d0bbf19e
:1024b400000fdcd0a245dad8002c00f087803b88de
:1024c400b3f5e06f06d37a88082a3ff6a2ae02f18c
:1024d4002f039bb2112b3ff417af3ff60baf052b25
:1024e4003ff44faf7ff6b7ae082b7ff6d3ae092b80
:1024f4007ff4fdae10f00f0f40d17a880732d2106e
:102504004146304604f0a6fe7b881b0908eb4308cd
:1025140001230893abe708f1020818230393a6e705
:1025240001230893a3e7089b002b039b18bf0023f8
:1025340003933de0002303933ae00723039337e03a
:102544001323039334e01823039331e012230393fa
:102554002ee0052303932be01c23039328e012238e
:10256400039325e00523039322e01c2303931fe038
:102574001c2303931ce00523039319e00523039311
:1025840016e00523039313e0bbf1000f02d00523eb
:1025940003930de04ff0000905e0ddf81490bbf162
:1025a400000f7ff4d6adca457ff6d9ad112303934e
:1025b40003980bb0bde8f08fddf81490efe7ddf879
:1025c4001490ece7baf1000f7ff471af069b072b70
:1025d4003ff475afb8f80030dab205999142afd341
:1025e400338008f102080123089340e71f0100200b
:020000040000fa
:1025f4002de9f04f89b00590049115469946129c37
:102604009df84ca01ffa81fb9f89c7f30328ffb2f2
:10261400b8f1070f00f0bc81b0f5805fc0f0bf8156
:10262400d9f818301f78baf1000f1fd1bb4505d96e
:1026340011230293029809b0bde8f08f049948462b
:1026440004f04afc838813b905230293f2e79a4afb
:10265400127802f00e0212ea430214d103f00703c7
:10266400002b0cbf06231a230293e3e70697d9f83d
:102674001c605eb1cdf800a023462a460499059853
:10268400b0470290d6e706975f46f0e7059bb3f59f
:10269400805f04d2049b93b902935e4605e05f45d4
:1026a4000ad35e46002302930493cdf81c80cdf830
:1026b4000c90ddf814901ee100230293bae7049e07
:1026c4003146484604f008fc43880733db109db2ca
:1026d40006f1804b0bf1ff3bd9f8182052f82b1070
:1026e40011f0010f25d021f0010632466b0811d0fc
:1026f400013b9bb201335f00e01931460b881b0a92
:10270400238031f8022f43ea022324f8023ba0423b
:10271400f4d1f21915f0010f00f02581238803f498
:102724007f432380128843ea1223238000230293e9
:1027340080e70a8822804a8862809bb21a1f04318b
:10274400201d04f087fd0023029373e7079b072bea
:1027540000f04581bdf8183024f8023bc7e0bef113
:10276400100f31d0bef1200f40f04c8118f00f0f44
:1027740040f0028132f8103023804b8863800434a7
:1027840001230493b3e0022b15d8002b6ed1baf1c8
:10279400000f00f0eb806b8813f00f0f04d0984407
:1027a40018f00f0f08bf0234c3f3031304eb430400
:1027b400012304939be0032b06d0042bd6d01823cb
:1027c400029337e7072bd1d218f00f0f40f0d180d6
:1027d40032f8103024f8023b0123049387e00b2bda
:1027e400edd818f00f0f40f0cd806a880732d21070
:1027f400204604f02ffd6b881a0904eb420413f001
:102804000f0f00f0a38023782380012304936ee04c
:102814002d2b2bd01cd81e2b28d014d8152b01d02f
:102824001b2bccd118f00f0f40f0a98032f81030d8
:1028340023804b8863808b88a380cb88e380083413
:102844000123049353e01f2bbed0202b8ed0b6e778
:10285400372b04d9a3f51873032bc2d9afe7302b58
:1028640004d22e2bb0d02f2b80d0a8e708f00f0e67
:102874006b88124931f8133003fa0ef39bb232f825
:102884001020bef1000f01d1002020802088baf171
:10289400000f0bd01340034323806b88984418f037
:1028a4000f0f50d102340123049320e0134043fa64
:1028b4000ef303432380f0e71f010020c06f0000e4
:1028c4006b8813f0f00f0ad00023194624f8021f76
:1028d4000133dbb26a88c2f303129342f6dbab889e
:1028e40003f00703002b0cbf06231a2302930136bf
:1028f400b6b2b74230d3002e58d0b9f5805f55d365
:10290400f5b20399284602f0b9fa8046294603989d
:1029140004f0e2fa0546504b1b7803f00e0382885c
:1029240013ea420351d118f00f0f00f092806b8824
:1029340013f00f0fc4d0984418f00f0fc0d1002328
:1029440063800234bce701230493d0e7012304939a
:10295400cde701230493cae7049b002b029b18bf15
:102964000023029366e60023029363e6182302938e
:1029740060e6052302935de6052302935ae60523e8
:10298400029357e60523029354e60523029351e686
:10299400baf1000f3ff44aae052302934ae6baf1b6
:1029a400000f3ff443ae0523029343e6f1b20398cc
:1029b40004f092fa0546284b1b7803f00e03828834
:1029c40013ea420343d04ff00008b34504d0baf1f0
:1029d400000f8cd0b3458ad8002e3ff4b7ae039bca
:1029e4009a69c8f30f1002eb40012b88b3f5e06f2e
:1029f40008d3b5f802e0bef1080f3ff6b0ae0ef111
:102a04002f039bb2112b3ff40daf3ff601af052b03
:102a14003ff42caf7ff6b7ae082b7ff6d3ae092b6d
:102a24007ff4ddae18f00f0fafd16a880732d210f1
:102a3400204604f00ffc6b881a0904eb420413f0df
:102a44000f0f86d023782380012304934fe74ff0a0
:0c2a54000008002323806ae71f01002017
:020000040000fa
:102a600038b50188052902d80623184638bd044622
:102a7000063989b2c388013b052b00f20e81dfe8dd
:102a800003f00339506eb8c7a84b1b8813b148f246
:102a900004036fe00c306289238943ea0243024653
:102aa00004f0bcf903460021a14a116047f6957273
:102ab000904205d801219f4a11609f4a1060bce0f6
:102ac00047f6fa72904200f2f080002299490a60bb
:102ad00099490a600121954a118000220621a171bd
:102ae000e271a3f5ff43163b2381a272e2722170cb
:102af0006270b6e08d4b1b8813b148f2040339e0d5
:102b00004289038943ea02420c3004f081fb031e30
:102b100047f6fd72002808bf13460021854a116060
:102b200087e0824b1b8823f004039bb2022b02d068
:102b300048f204031ee04289038943ea02437d4ac6
:102b40001268934202d048f2050313e00c3003f000
:102b50000fff034600286cd147f6fd73ace0734bc2
:102b60001a88012a30d047f6fe7348f20401042a7d
:102b700018bf0b4613f4004f00f0b580002205216a
:102b8000a171e2712381a272e27206232370627046
:102b900004f10c01a38913f0ff0f00f0c28013f4bd
:102ba0007f4f00f0c08002235a0831f8122012f043
:102bb000ff0f00f0a48012f47f4f00f09c800233de
:102bc000dbb2202bf0d19ce05b4d00f10c012868ba
:102bd00004f0d6f903462a6855490a6047f695710c
:102be00088425dd802442a6052490a6801320a606c
:102bf00023e04e4b1b8813b948f20403bae740891f
:102c0000238943ea004004f02dfc47f6ff73b1e747
:102c1000464b1b88012b04d0042b02d048f204033e
:102c2000a8e704f10c02424b1968208904f098fcd3
:102c3000034647f69572934232d83e4a1268032102
:102c4000a1710021e1712281120c62819a1d228002
:102c50003a4a12880c3a93420cbf01220422334ba9
:102c60001a80374b1d78002d4fd0a388c3f30b0378
:102c7000a380344a127812f0070f02d10121314aa1
:102c8000117030490a7843ea0233a38001320a7096
:102c9000204602f0c3f90023e7e648f20403c8e740
:102ca00047f6fa7293427ff618afa3f5ff427c3adb
:102cb00092b2012a3ff65eaf1e490a68501c0860b6
:102cc00000210420a071e1712281120c6281062290
:102cd0002270617047f6fd7293420cbf02220022ff
:102ce000124b1a80bde70025104b1d80204604f0d2
:102cf000c9fb2b46b9e60133dbb21f2b01d80733e2
:102d000023800022094b1a80abe74021204602f0c5
:102d1000e9fe034600283ff4a8ae0b4b1c602b468f
:102d2000a3e60023ebe70123e9e700bf040100204d
:102d30001001002008010020000100200c020020ea
:0c2d400058010020940100200c0100202c
:020000040000fa
:102d4c00f0b585b0044600238df80f30058905f0e9
:102d5c007f05052d06d00388072b09d806231846b6
:102d6c0005b0f0bd0388092b00f2a4800623f6e71a
:102d7c00032d00f09f80052d00f09c80012d21d0ab
:102d8c0003238df80f309df80f1000220a232370b7
:102d9c006270238923f07f0343f007032381a2721f
:102dac00e272914b53f82130e360904b1a80022170
:102dbc00204602f091fe03460028d0d08c4b1c60bc
:102dcc000023cce78389052b01d90221f0e7894d3b
:102ddc0000686168a26807c5a2892a8013f0ff0306
:102dec000ed10025814b1d8004f10c06e8b203f0d6
:102dfc00c9fa26f8020f0135052df7d1122322e06e
:102e0c00013bddb2794b1988002934d07a4b1a88f2
:102e1c000c3a92b204f10c0378480088adf80c001f
:102e2c000139724801800df10f01009103a9284668
:102e3c0002f030fcbdf80c20704b1a806e4b1b88d6
:102e4c00063b1b1a9bb223809df80f30002b9ad1a6
:102e5c00238923f07f0242f002022281634a128806
:102e6c006281002a00f0bd8023f0ff0343f082034f
:102e7c00238182219ce7284603f084fa4ff4805387
:102e8c00adf80c305c4b1988a1f10e0292b204f132
:102e9c000e034000904209dd0c398eb2811a701e6f
:102eac00014491fbf6f151480180bce700204f49e9
:102ebc000880b8e7a38998b2adf80c30b0f5805f04
:102ecc0003d205238df80f305de704f063f8074655
:102edc00002800f08280032d0bd0e689f6b204f0b6
:102eec0095fb4388dbb29e4234d911218df80f102b
:102efc004be704f08bfb0368c4f80e3000233a4612
:102f0c001946bdf80c0001f0b5fc00f10c0292b2b0
:102f1c00394b1b88063b9a4210dd0c229df80f3072
:102f2c00002b7ff430afa372e3722280238923f04d
:102f3c007f0301351d432581022139e704f112037a
:102f4c003a460021bdf80c0001f094fc00f10c0293
:102f5c0092b2e3e73146384603f0baff03682361c7
:102f6c008388a382e389dbb2e381384604f04efb0d
:102f7c004388c3f30323083b9bb2012b10d90023d6
:102f8c003a463146bdf80c0001f074fc00f1100219
:102f9c0092b2194b1b88063b9a4212dd1022bde7f8
:102fac00002eecd1164a166850689168c4f8166069
:102fbc00c4f81a00c4f81e10127b84f822201c22bc
:102fcc00ace704f116033a463146bdf80c0001f0ab
:102fdc0051fc00f1100292b2a0e708238df80f30db
:102fec00d1e60221e4e600bf7c610000f82200205b
:102ffc00fc0000200c2300200c020020d822002012
:04300c00a4270020d5
:020000040000fa
:1030100038b5824b1b78002b5fd0814bb3f9003061
:10302000002b4ed17f4b1b88c3f30714242b2bd0ce
:1030300010d8123b012b00f2ca807b4b1b7803b3e4
:1030400000f0a8fd794b1b78002b00f0e280784b54
:103050001d88bde0482b40f0ba80764b1b781bb32f
:10306000754b1b78002b00f0bd80744b1b78002b38
:1030700040f0cb80724b1b88002b0cbf1a251b2500
:10308000b1e004f097fadbe7674b1b784bb101f036
:10309000b7fd664b1b78002b00f0bd80644b1d888c
:1030a00096e004f0bffaf2e7654b1d88002d40f072
:1030b000ae800122634b1a7008248be004f0b6fa4c
:1030c00096e0584b1b88242b47d007d8123b012b86
:1030d00000f28580544b1b7823bb38bd482b7ed132
:1030e000514b1b78002bf8d0524b1b78002b55d03e
:1030f000554bb3f90030002befdd544ab2f90020f4
:103100009a42eadb0023504a1380504a1380464a11
:10311000137004f089fa002839d10122494b1a7042
:10312000082429e00022404b1a7004f077fa054683
:1031300060b90122464b1a703a4b1c7814f00f0408
:1031400003d00022354b1a705ae038bdff28c4d096
:1031500004f030fa00f01efd38bd334b1b78002b15
:10316000bbd00022304b1a703a4804f059fa38b9f3
:103170000122394b1a7004240025284b1d703fe0b2
:10318000ff28aad004f04efa01f03afd38bdff281e
:10319000a3d004f04bfa04f0bbf838bd284b1b88d1
:1031a0001bb1264b1b78002b97d000221e4b1a70a8
:1031b00004f03afa20b90122224b1a700824dbe706
:1031c000ff288ad004f032fa04f0a2f838bd0025b6
:1031d000002c82d00022114b1a708db10ee0002518
:1031e0002c46f5e72d25104b1b78002b3ff466afde
:1031f00004f08ef88cb10022084b1a7044f01004d1
:103200002946204602f04cf938bd1a25ebe71b256c
:10321000e9e70125eee70125ece738bd4c01002088
:10322000560100201a0100201e0100202601002066
:103230002201002059010020380100205401002003
:10324000200100205a010020320100202a01002024
:0c32500002020020360100206001002076
:020000040000fa
:10325c00854b1a8841f6fe739a4201d814207047a8
:10326c0070b50446002003f089ff436813f4803fd7
:10327c0000f0f18003f00c02042a01d0162070bd7e
:10328c0013f0020f00f0e9800268130c223b9bb292
:10329c00de2b00f2e480a2f580539bb2b3f5805f85
:1032ac0080f0df80012003f069ff436813f4803f56
:1032bc0000f0cf8013f00c0f40f0c38013f0020f1e
:1032cc0000f0c1800268130c223b9bb2de2b00f293
:1032dc00bc80a2f580539bb2b3f5805f80f0b780c1
:1032ec00032c14d8022c51d8604b1b78a34240f20b
:1032fc0094805f4e5d4d204603f040ff4368336081
:10330c000134e4b22b78a342f5d8002070bd012221
:10331c00584b1a70032003f031ff03681a0c4068f5
:10332c0010f4803f2ad0002a79d0534909888a4268
:10333c0005d00321032001f047f81e2070bd0029a1
:10334c006fd0442a6fd810f00c0f6ed19bb24b4a41
:10335c001178022905d04a4a12889a4207d00221d4
:10336c00e8e7a3f580539bb2b3f5805fe2d210f08f
:10337c00020fb7d000223f4b1a70b3e7002a56d188
:10338c003d4b1b88002badd00321d3e7022003f06b
:10339c00f5fe03681a0c406810f4803f35d0002a03
:1033ac0047d0384909888a4205d00321022001f010
:1033bc000bf81d2070bd00293dd0442a3dd800f0eb
:1033cc000c02042a01d00421f0e79bb22b4a11789d
:1033dc00022914d1a3f580539bb2b3f5805fe5d2db
:1033ec0010f0400f14bf01220022274b1a7010f06e
:1033fc00020f3ff479af00221e4b1a7074e7234a78
:10340c0012889a42ecd00221d0e7c2b91d4b1b881e
:10341c00002b3ff469af0321c8e7002070bd0421e5
:10342c0088e7032186e7032184e7042182e703214f
:10343c0080e70421bae70321b8e70321b6e70321ab
:10344c00b4e7162070bd162070bd162070bd162076
:10345c0070bd162070bd162070bd162070bd1620d4
:10346c0070bd162070bd00bf520100206601002007
:10347c0004280020180100204e0100201f0100200c
:10348c006801002020010020620100202c01002096
:020000040000fa
:10349c0010b56e4b1978c9b96d4a138801339bb2bc
:1034ac001380322b05d0642b03d0962b01d0c82b64
:1034bc0012d1684a127802f00f02013a072a4dd84d
:1034cc00dfe802f0113b473f4c4c4c430122624b6e
:1034dc001a700022614b1a70604b19785e4b187889
:1034ec0003f0d8fd10bd00205d4a1070c82b39d0f8
:1034fc005c4b1b7813f0200feed013f01f0202d0a0
:10350c0051000139c9b2584a12789a4276d013f058
:10351c00800f14bf00220122504b1a700122534b12
:10352c001a80504b1a78504b1a70494b1b88c82b79
:10353c00d2d10022464b1a80cee74020484a107068
:10354c00d4e74120464a1070d0e70120444a10705d
:10355c00cce76023424a13700a460de00020404a33
:10356c001070c3e73e4b1b7813f01f021dbf5200b7
:10357c0002f1ff32d2b20a463d480078984217d089
:10358c0013f0800f14bf00220122334b1a7001225a
:10359c00384b1a80324b1a78354b1a70314b1b78da
:1035ac0013f0200fa9d12a4a1288c82aa5d093e774
:1035bc0010f0400f1dd0284c2378b3fa83f35b092d
:1035cc002370002ae6d02b4c238801339bb2238036
:1035dc0094b2a342ded910f0800f14bf0124002452
:1035ec001d48047005329342d4db0022214b1a8013
:1035fc00d0e700f00100184b1870cbe713f0400f28
:10360c001fd016480278b2fa82f2520902700029d1
:10361c0087d016480288013292b2028088b2824268
:10362c007ff67faf13f0800f14bf012000200b4bef
:10363c00187005318a42fff674af00220b4b1a80ca
:10364c006fe703f00103054a13706ae75a01002083
:10365c00342800201f010020ec000020a0000020d6
:10366c00300100206701002037280020f6270020b9
:08367c0038280020b2270020cd
:020000040000fa
:1036840010b5564a536803f47063d26912f0010fff
:1036940031d0524ad06852494a69c9688a422ad20a
:1036a4006bb94f4b5968541c5c6188544b4bdb69b4
:1036b40013f0020f3fd00222484b5a6125e0484bd9
:1036c4005968541c5c6121f81200444bdb6913f007
:1036d400020f30d00222414b5a61414a93699268e9
:1036e400934246d23e4a1168581c906131f8132027
:1036f4003a4b1a6115e0394ad26912f0020f1ad016
:103704000221364a5161002be7d1354a9369926808
:10371400934222d2324a1168581c9061ca5c2f4be2
:103724001a612f4b9a699b689a422ed02c4b5a6986
:10373400db689a4234d02b4b1b78002b47d0274ba5
:10374400db6913f0040f04d0254b5a69db689a42f5
:103754002cd00422214b9a6110bd214b1b69002bf4
:1037640036d0ff221d4b1a611d4a1369013b1361b8
:10377400d7e71b4b1b69002b2ad0ff22174b1a617a
:10378400174a1369013b1361cbe7154b1b69002be7
:10379400ccd10122134b1a70134a104b1a60cae79a
:1037a4000e4b01225a6102229a61c4e70c4b00229b
:1037b4001a770720094948610a490a701b6a33b11c
:1037c400074a506a9847074b1b78002bc1d110bd9c
:1037d400034b9a699b689a42a8d1dae70034004205
:0c37e40008000020b127002002000001b6
:020000040000fa
:1037f00030b583b04ff48033019302f083fc494b22
:103800001b78002b39d103f031fb044610f0010f77
:103810004cd0454b1b78002b37d010f0100f5dd1ea
:10382000414b1b78002b59d13e4b1b781bb3019b9e
:1038300013f4803f55d014f4007f5ad1019b13f448
:10384000003f61d0394b1b7883b902f043fd374b01
:103850001b78002b5dd0019b43f000730193042281
:1038600040f60c010deb020002f00efa03f0fefa36
:1038700010f4807f52d103b030bd042240f60c0119
:103880000deb020001f0b2ffbde7002502a840f8f1
:10389000085d04224ff4907101f0a8ff24f0110498
:1038a000a4b229469df80000fcf7eafc14f0100fc2
:1038b000b6d01d4b1b788bb91d4b187810f0100f2c
:1038c000b2d120f01003012baed024f01004a4b22a
:1038d000002100f00f00fcf7d3fca1e7fff798fbf5
:1038e000a2e7134b1878002100f00f00fcf7c8fc8a
:1038f000a1e710480023036004220f4b198802f04f
:10390000c3f901f055fc99e7084b1b78002badd0ab
:103910009be7019b23f000730193a0e700f0dcfc20
:10392000a9e700bf020200204c0100202002002075
:0c3930001f0100203c01002016020020b6
:020000040000fa
:10393c00222913d8dfe801f086144e6a12121212f3
:10394c00121212121212121212121212121212124b
:10395c00121212121212121212123c001220704782
:10396c0041f63243984205d041f6334398420ed08b
:10397c0012207047374b1b88002b65d0364b9b8928
:10398c0003f00203002bd4bf122000207047334bee
:10399c009b8913f0020f59d02e4b1b880bb11220b0
:1039ac0070472f4b1b88002b0cbf12200020704738
:1039bc0041f63343984201d012207047274b9b8924
:1039cc0013f0020f44d0234b1b88002b0cbf12208a
:1039dc000020704741f63243984205d041f63343fc
:1039ec0098420ad0122070471b4b9b8903f00403aa
:1039fc00002bd4bf122000207047184b9b8903f07a
:103a0c000403002bd4bf12200020704741f6324330
:103a1c00984205d041f6334398420ad012207047a1
:103a2c000d4b9b8903f00803002bd4bf1220002000
:103a3c0070470a4b9b8903f00803002bd4bf12205c
:103a4c0000207047002070471220704712207047ea
:103a5c0012207047200100206c0200202802002058
:043a6c004e010020e7
:020000040000fa
:103a700030b583b002a8002340f8043d042211466b
:103a800001f0b4fe019b2a4c1a0a22701b0c9b0207
:103a900003f6ff73274a138003f09cf823784bb199
:103aa0000024234d204603f011f80134e4b22b78b2
:103ab000a342f7d801f04cfa00241f4b1c701f4b97
:103ac0001c701f4b1c701f4b1c701f4b1c701f4b1e
:103ad0001c701f4b1c701f4b1c801f4b1c801f4bee
:103ae0001c801f4b1c801f4b1c801f4b1c801f4bbe
:103af0001c701f4b1c701f4b1c801f4b1c801f4bce
:103b00001c801f4b1c8001201e4b1870214601f0a9
:103b1000c7fc1d4b1c801d4b1c701d4b1c7003f003
:103b200025f803f0ebfb204602f098ff03b030bd10
:103b30006601002052010020580100201e010020d3
:103b40004c010020540100205a0100206001002097
:103b5000620100205e0100201c01002024010020e1
:103b60002e0100205c0100203401002059010020ba
:103b70002601002022010020360100202001002023
:103b80004e0100201f0100201a01002067010020c3
:043b900061010020af
:020000040000fa
:103b940030b583b00020364b187002f095ff012039
:103ba40002f092ff334b1868002853d003f068fcee
:103bb400314b186828b12f4b1b68984201d003f091
:103bc4005ffc2e4b186848b12a4b1b68984205d0fd
:103bd400294b1b68834201d003f052fc01f0b2fd73
:103be40003f0b4fa0024264b1c60224b1c60234bc8
:103bf4001c60214b1c60234b1c7002ad45f8044d26
:103c0400042240f60c01284601f0eefd019b23f04e
:103c140000730193042240f60c01284602f032f8a6
:103c2400194b1c70194b1c70194b1c70194b1c70d0
:103c3400194b1c70194c204603f002f910b103f023
:103c44001ffcf8e7164c204603f0faf858b103f0cd
:103c540017fcf8e7084b18680028b0d1074b186820
:103c64000028b5d1bae702f07fff03b030bd00bf32
:103c7400020200202402002008020020100200207a
:103c8400180200202002002001020020140200205b
:103c94001d0200201c02002094010020cc01002001
:043ca4009801002063
:020000040000fa
:103ca80030b40c46002933d0002831d03e49097f72
:103cb800002977d13c4908604a6000254d618d6133
:103cc8000d6139498c60002a37d0374ad360364aab
:103cd800012111773549c968d1689268914202d9a2
:103ce8008c1a314d2c61314c646814f4706f34d1e6
:103cf800002a26d001782d4a11612b498a690132a0
:103d08008a61002b43dd0120284b986130bc704745
:103d1800002b41d0002a41d02349097f00293fd1f7
:103d2800214908604a6000254d618d610d610028b8
:103d3800c7d100211c4a9160c7e700211a4ad16007
:103d4800c5e7194a1269002adbd0ff21174a116119
:103d580015490a69013a0a61d3e75208124ca26070
:103d680025696d0825614908e16032b101880f4a6b
:103d78001161a2690132a261c3e7002dc1d0ff2100
:103d88000a4a116108490a69013a0a61b9e7022237
:103d9800064b9a610120b9e70020b7e70020b5e794
:103da8000020b3e70020b1e70800002000340042fb
:020000040000fa
:103db80038b5364b1b7813b902f014fb38bd03f045
:103dc8003bf910f4806f1dd0314b1b782bb1314b70
:103dd8001b7813b10022304b1a80304b1b8d13b166
:103de800013b2e4a13852d4b1a8d2d4b1a85012226
:103df8002c4b1a7000222c4b1a802c4b1b7863b367
:103e080001f0d8fd254b5b88012b38d0284b1b7857
:103e18002bb1234b5b88012b34d0222b32d003f0fb
:103e28000bf910f4806fc7d01c4a538d01339bb235
:103e380053851b4a53851f4d1f4c04222988204651
:103e480003f0c8f929881d4b1b881944043904223a
:103e580089b2204603f0bef9aee7164d164c04228f
:103e68002988204603f0b6f92988144b1b88194481
:103e78000439042289b2204603f0acf9c2e702f003
:103e88003dfec3e702f0c2f8c9e700bf61010020a8
:103e98003801002059010020640100206c02002034
:103ea80028020020540100201c0100205a01002093
:103eb800600100202c0100203c010020200100208e
:020000040000fa
:103ec80008b50022344b1a80344b1b78002b3dd0a8
:103ed800334b1b781bb1334a138801331380324ba1
:103ee8001b883bb3314a128893421dd2304b1b8842
:103ef800002b2ed02f4b1b8d2f4a12899a4219d393
:103f080003332c4a138515e00023284a13802b4ad3
:103f180013850fe002f07af8294b1b88012b15d185
:103f28000022204b1a8011e0214b1b880bb3013271
:103f38001e4b1a8002f0e2fd194b1b7833b1204b5f
:103f48001b881bb1174a12889a42e3d002f04afa3a
:103f580008bd1c4a1288002aecd0002bead1174b66
:103f68001b8d154a12899a4207d30333134a1385c6
:103f780003e0144b1b88002bd9d003f05df810f434
:103f8800006fc1d1094b1b88074a12889a42d1d3c6
:103f98000133064a1380cde724010020590100208f
:103fa8006001002028010020500100206401002049
:103fb800200100206c020020b427002028020020e5
:083fc8004a0100204e01002017
:020000040000fa
:103fd0002de9f04f83b0009001913d4b1d88002ddd
:103fe00068d04ff000094d469a464ff0010b07e0ac
:103ff00009f101091ffa89f9baf800304b4559d97e
:104000000aeb4903588802f0cbff0646002840d04f
:1040100083691f88002febd00137bfb25c46d6f80a
:1040200018803146e0b200f02bffc0f30e1018f8f4
:1040300010302b449db20134a4b2bc42efd1d7e77b
:104040000af1010a1ffa8afabbf8003053451ed95b
:104050000beb4a03588802f0a3ff064638b3836986
:104060001f88002fecd00137bfb20124d6f818907a
:104070003146e0b200f004ffc0f30e1019f8103022
:104080001d44adb20134a4b2bc42efd1d8e7002048
:1040900003e04ff0000845462520eb1ddb10009a99
:1040a0001380019ba3f8008003b0bde8f08f0025ca
:1040b0002420f2e7ec1dc4f3cf08064b188828b182
:1040c0004ff0000a5546dff80cb0c1e70546e4e7bb
:0840d0001c280020202800201c
:020000040000fa
:1040d800534d206f757470757420706172616d65d1
:1040e8007465720053796e6368726f6e697a617471
:1040f800696f6e2054797065004379636c6520544c
:10410800696d65000053796e6368726f6e697a61d4
:1041180074696f6e20547970657320737570706f51
:1041280072746564004d696e696d756d20437963bd
:104138006c652054696d650043616c6320616e6431
:1041480020436f70792054696d65000047657420bd
:104158004379636c652054696d650044656c6179c9
:104168002054696d650053796e6330204379636c20
:10417800652054696d6500534d2d4576656e742034
:104188004d6973736564004379636c652054696d88
:104198006520546f6f20536d616c6c0053686966bd
:1041a800742054696d6520546f6f2053686f727462
:1041b80000000000000000000000000000000000f7
:1041c80000000053796e63204572726f7200ff0021
:020000040000fa
:1041d800534d20696e70757420706172616d6574dd
:1041e80065720053796e6368726f6e697a6174697b
:1041f8006f6e2054797065004379636c652054694b
:104208006d65000053796e6368726f6e697a6174c8
:10421800696f6e20547970657320737570706f7252
:10422800746564004d696e696d756d204379636cc2
:10423800652054696d650043616c6320616e64207c
:10424800436f70792054696d650000476574204399
:1042580079636c652054696d650044656c617920eb
:1042680054696d650053796e6330204379636c65da
:104278002054696d6500534d2d4576656e74204d4b
:104288006973736564004379636c652054696d656f
:1042980020546f6f20536d616c6c005368696674ad
:1042a8002054696d6520546f6f2053686f727400d5
:1042b80000000000000000000000000000000000f6
:1042c800000053796e63204572726f7200ff000020
:020000040000fa
:1042d80030b583b002a8002340f8043d0422334bd4
:1042e800198801f07ffa019ca3b20193304b1b7827
:1042f800012b0ad02f4b1b7813b92f4b1b78cbb14e
:1043080001222e4b1a7003b030bd0a2003f0aef81c
:1043180005460028eed00021016004230380a9800f
:104328000123c3800723038101f0d8fb284603f04b
:10433800a5f8dfe70022214b1a70214b18880634b4
:10434800a2b2824228bf0246144603f08ff81d4be2
:104358001860c0b12246154b198801f043fa02a82b
:10436800002340f8083d042240f6040101f03afa1f
:10437800009b0093009b13f4006f08d1114b186841
:1043880001f080febfe701220c4b1a70bbe70e4814
:1043980000230360054b1988094b1b88194404390d
:1043a800042289b201f01efae8e700bf04020020e7
:1043b80000020020010200201d020020140200203b
:0c43c8001e020020180200203c01002012
:020000040000fa
:1043d40038b505460c4603f009f908b30246611ed8
:1043e400c9b201eb85005388dbb243ea00239bb2d8
:1043f4005380022d15d0032d39d000211171517134
:104404009171d171002111706ff05f01517023f02f
:10441400ff032a4909780b435380104601f0bafd83
:1044240038bd0329eed8dfe801f002020c110021a7
:104434001171102151714ff0ff3191711f21d17110
:10444400e0e71f4909889180d180dbe71c4909888e
:1044540039b100210a201071517101209071d1717c
:10446400d0e70021117151719171d171cae703290b
:10447400c8d8dfe801f002020c11002111711021eb
:1044840051714ff0ff3191711f21d171bae70d497c
:1044940009889180d180b5e70a49098839b100219a
:1044a4000e201071517101209071d171aae7002181
:1044b400117151719171d171a4e700bf1f010020e6
:0844c400200100204e01002040
:020000040000fa
:1044cc0038b5059c602954d000293bd0258905f4ca
:1044dc007f45258100284ed1e088c0f30b0040f4c5
:1044ec004050e080402925d104990139032910d886
:1044fc000a232370002363709df81030c3f104036a
:10450c0042f0030242ea830245f04005154325813f
:10451c0043e00499994298bf049b0a332380bdf869
:10452c001030a381049b1b0ce38142f04102154324
:10453c00258132e00a2323700023637045f0600567
:10454c0025812ae0b8b9e388c3f30b0343f4405345
:10455c00e3800a23237000236370238943f0200334
:10456c0023811ae0e388c3f30b0343f44053e38045
:10457c0013e00028f6d00a23237000236370e3882d
:10458c00c3f30b0343f40053e380238943f080030c
:10459c002381064b53f82030e3600221204601f0c2
:1045ac009bfa10b1024b1c6038bd38bd7c61000019
:0445bc00fc000020df
:020000040000fa
:1045c00010b582b02a4a20241480002353805360ff
:1045d00044f21f0090812749116153619383136254
:1045e0001385538582f84030234a148053805360ea
:1045f000908111615361938313621385538582f80f
:1046000040301e4a137002f045fb20bb00231c4ab9
:1046100013701c4a13701c4a13801c4a13701c4ae6
:1046200013601c4a13601c4a13601c4a136002a8e2
:1046300040f8043d0422082101f0d8f8019b13f052
:10464000080f0bd00022164b1a704ff47a62154bec
:104650001a6002b010bd02f053fcd7e70122104be4
:104660001a7004224ff411610f4801f0bff8ece713
:104670006c020020a086010028020020b002002069
:10468000f0220020f12200202223002024230020f9
:1046900000230020dc220020ec2200200423002044
:0c46a00048010020340000203000002001
:020000040000fa
:1046ac002de9f04184b007460e4600238df80f30fb
:1046bc008df80e3002930193b0f5405f34bf154670
:1046cc00042502f083fe2f4c6368db6898470028b2
:1046dc00fad17b118df80830fb0043f006038df8fe
:1046ec0009303b0a23f01f0343f00c038df80a300a
:1046fc00244b5b681c68032301aa194602a8a04737
:10470c0002f01efe1f4c6368db6898470028fad144
:10471c001d4b9df804201a709df805205a7004a8b2
:10472c00ff2300f8013d174b5b685b68012198473c
:10473c0002f006fe134c6368db6898470028fad138
:10474c004ff0ff080f4c012d08bf8df80e806368e9
:10475c001f6801230df10f0219460df10e00b84729
:10476c0002f0eefd6368db6898470028fad19df8eb
:10477c000f3006f8013b013de5d102f01dfe04b0ff
:0c478c00bde8f08194270020040000200c
:020000040000fa
:10479800002966d02de9f0470e4633490f68b7f572
:1047a800802f47d215460446304b186806eb0008a0
:1047b800b8f5005f41d9c0f50052dff8b8a0caf8d3
:1047c8000020dff8ac902146484402f041fddff8b4
:1047d8009c804ff40053c8f800304946384601f031
:1047e800c5ff214a1368d8f800100b441360daf8a3
:1047f80000100023c8f80030761ab6b232462144b9
:10480800484602f025fdc8f80060184b1b68b3f550
:10481800005f03d075b9b3f5005f18d3124c144983
:10482800206801f0a3ff114a236811680b44236034
:10483800002313600020bde8f087324621460c4b68
:10484800184402f005fd094bc3f80080dde7c3f505
:10485800005208490a60ff210548184402f016fe74
:10486800dce70020704700bf0c280020102800203b
:08487800b80200201428002002
:020000040000fa
:104880002de9f04184b01e465469e9b10f46938981
:10489000c3f30323072b17d0092b24d0002e5ad0a3
:1048a0002e4b6c460fcb07c4237039460df109001f
:1048b00002f09af86b4607cb30607160b2601b78eb
:1048c00033734ff00c080ae0204602f0ebfd1ffaac
:1048d00080f826b142462146304602f0bdfc4046f3
:1048e00004b0bde8f0811ffa81f8204602f0dafd3d
:1048f00001302518b8f1000fd0d0235c0233dbb2b1
:10490000012bcbd9b8f1010f10d001240134a4b28e
:10491000284602f0c7fd01300544a045bed32b78e0
:104920000233dbb2012bb9d9a045efd1284602f002
:10493000b9fd1ffa80f846b1b8f1000fb0d0424679
:104940002946304602f088fcc9e7b8f1000f08bfdd
:104950004ff00c08c3e74ff00c08c0e7a427002075
:020000040000fa
:104960002d4b1b78002b56d02de9f04782b017460f
:104970000d468146294b1e683389dbb203f0e00afd
:1049800003f01004baf1400f0fd04ff000080022de
:10499000214b1a70019600954346224651464846df
:1049a000fff794fd02b0bde8f0871d4bb3f800801f
:1049b000a8f110081ffa88f888450bd34b1e032b6b
:1049c00020d806f10c008242e1d00a46394602f0b6
:1049d00043fcdce70123134a1370134a1370134b93
:1049e0001c70134b19606022124b1a70124b1f601f
:1049f0004246394606f1100002f02efc0f4bc3f878
:104a00000080c4e706f110008242c0d00a46394651
:104a100002f022fcbbe770473c280020fc2200206b
:104a20000c020020e5220020f2220020e4220020d7
:104a3000e8220020f322002004230020e0220020ae
:020000040000fa
:104a40000022314b1a74314a03f500639a621a4608
:104a5000536813f0100ffbd142222d4bc3f8842072
:104a60001a46d2f8843013f0400ffad0294b0022b6
:104a70009a6377225a631a46d36b13f0040ffbd163
:104a80000222244b83f830201a46d36b13f0020f16
:104a9000fbd1204a136c03f00303032bfad101224c
:104aa0001d4b5a711a46d37813f0010ffbd01b4ae5
:104ab000174b1a621a46536813f0040ffbd1174aba
:104ac000134b5a621a46536813f0080ffbd1412268
:104ad0000f4bc3f890201a46d2f8903013f0400fd5
:104ae000fad041220a4bc3f8a4201a46d2f8a430c7
:104af00013f0400ffad0084b6ff07f421a6144f276
:104b0000ff725a61704700bf001400400601300078
:104b1000001c004000100040000800400701010098
:020000040000fa
:104b2000f0b583b002ac002344f8083d0426324db2
:104b30003246214643f26400fff7b8fd009bab42ca
:104b4000f6d102a9002341f8083d042243f25c009b
:104b500000f0fcfc932704264ff4017502ac44f8e6
:104b6000047d32462946204601f08ef80023019349
:104b700032462946204600f039fe019b932bedd1a9
:104b800002a8002340f8043d04224ff4a87100f06d
:104b90002dfe019b13f0040f02d00122174b1a7057
:104ba000002502a840f8045d04224ff4017101f0d1
:104bb0006bf802ac40f2011344f8083d0422214690
:104bc00043f2540000f0c2fc01230093042221466a
:104bd00043f25c0000f0bafc0422214643f2580084
:104be000fff764fd02f03cfa02f04afa02f0e0fb43
:104bf000284603b0f0bd00bf214365873d28002053
:020000040000fa
:104c000008b5214b1b88002b35d1204b1b88002b6e
:104c100035d14ff2f33001f021ff00231c4a13700d
:104c20001c4a13701c4a13701c4a13701c4a1370e0
:104c30001c4a13801c4a13801c4a13801c4a138090
:104c40001c4a13801c4a13801c4a13801c4a138080
:104c50001c4a1385538582f840301b4a13855385bf
:104c600082f84030194a1380194a1370194a137098
:104c7000194a137008bd022001f028ffc5e7032080
:104c800001f024ffc5e700bf200100204e010020f5
:104c9000540100206101002059010020380100204a
:104ca0005501002050010020640100202e01002049
:104cb000240100205c010020340100204a01002072
:104cc000280100206c020020280200203201002070
:0c4cd0006201002060010020b002002002
:020000040000fa
:104cdc0008b52a4b1b78002b4fd0294b1b78002b87
:104cec0037d0284b1b78002b37d1274b1b78002b48
:104cfc0033d102f083fc01f0fffe244b1b7813bb75
:104d0c0002f080fc29e002f0abf810f4806f0cd0bc
:104d1c0001221c4b1a7000221d4b1a801d4b1b7854
:104d2c00002be6d000f044fee3e71b4b1b88002b66
:104d3c00dfd110f4006fdcd00122124b1a7000226c
:104d4c00134b1a80d5e701f05ff9d9e701f086fa29
:104d5c0008e00d4b1b78002bd5d0104b1b68b3f51e
:104d6c007a6ff3d2fef73efd00f040fc01f09efda1
:104d7c000b4b1b680bb1984708bd08bd36280020ab
:104d8c006101002054010020590100206001002025
:104d9c001c0100205a0100202001002034000020ba
:044dac009c00002047
:020000040000fa
:104db000274b1b78002b4ad0264b1b78002b46d064
:104dc000254b1b8813b3254a128893421bd8002217
:104dd000234b1a70234b1b78002b38d00022214b19
:104de0001a70704700221e4b1a70f3e701221d4b08
:104df0001a701d4bb3f90030002b28dd1b4a1388b5
:104e00000133138070470132144b1a800122144b76
:104e10001a70174b1b8833b1164a12889342e1d996
:104e20000132144b1a80144b1a8d144b1b899a4271
:104e3000dcd30c4b1b7853b100220a4b1a700a4b7f
:104e4000b3f90030934202dd084b1a807047704777
:104e500059010020600100202e01002024010020c3
:104e60003801002055010020320100202a010020d5
:104e7000340100205c0100206c020020b4270020d7
:020000040000fa
:104e8000f0b5b1f80ce0cef3032e00280cbf0025de
:104e90001025bef1070f58d087b2002f56d0062636
:104ea000012223e0062b0ed009d8032b0bd0042bb4
:104eb00036d0974215d960880544adb211e0082b71
:104ec0002ed90b2bf5d105f10f004ff6f0750540eb
:104ed000974206d90b2b34d0b3f5187f31d010355b
:104ee000adb2013292b20636ba422fd8bef1080fe7
:104ef0000c690cbf0634a41923881f2be3d0d1d929
:104f00002f2b0dd004d8202b0ad02e2bd1d1dae7ad
:104f1000b3f5187fd7d0ccd3a3f262200128c8d82c
:104f200005f11f004ff6e07505409742d9d9a3f26d
:104f300062239bb2012b9abf60882d182035adb239
:104f4000cfe760880544adb2c9e700252846f0bd2b
:020000040000fa
:104f500030b583b02222204b1a804ff480721f4b51
:104f60001a804ff480531e4a13801e4a13801e4b32
:104f700000241c805c800a229a801c4b1c805c8070
:104f80009a801b4b1c601b4b1c601b4b1c601b4bfb
:104f90001c601b4b1c7002ad45f8044d042240f60a
:104fa0000c01284600f022fc019b23f000730193c2
:104fb000042240f60c01284600f066fe114b1c70de
:104fc000114b1c70114b1c70114b1c70114b1c7041
:104fd000114b1c7003b030bd1e0200200c020020db
:104fe0000402002016020020cc01002098010020bd
:104ff00018020020240200201002002008020020d5
:1050000020020020020200200102002014020020e1
:0c5010001d0200201c0200209401002062
:020000040000fa
:10501c00f0b583b0294b1b7803f00f03012b49d05b
:10502c00274b1b780bb9f02445e0264b1c780cb1b0
:10503c00072440e005460788ba1d92b2224b198816
:10504c0000f01cfe02a8002340f8043d042240f6a8
:10505c000c0100f0c5fb019b0193019b13f4006f45
:10506c0012d11a4b1e88b31fdb1b9bb20021184aae
:10507c001160032b14d9144b1988314404390422c0
:10508c0089b2134800f0fafd124b1b6813b10022d1
:10509c00114b1a600f4b1d6001220a4b1a700ae06b
:1050ac00c3f10402b91d21f003012944084802f0a0
:1050bc00cdf8e0e7f024204603b0f0bd1f0100203e
:1050cc000202002001020020160200200c02002027
:0c50dc003c0100201002002018020020ff
:020000040000fa
:1050e800050008000700060010000f000700200058
:1050f800070000002000000006001000070007005d
:105108002000070007002000070000002000000022
:10511800060010003f0007002000070007002000dd
:105128003f000600100007000600100007000000fe
:105138001000000000001000000000002000000027
:1051480000002000000000002000000000002000f7
:105158000000000000000000000000000000000047
:105168000000000000000000000000000000000037
:105178000000000000000000000000000000000027
:105188000000000000000000000000000000000017
:105198000000000000000000000000000000000007
:0851a80001000100070000bf37
:020000040000fa
:1051b00008b50022294b1a70294b186810b1294be9
:1051c0001b68c3b1284b1a68254b1a60254b186819
:1051d000a0b1fff723ff0022224b1a60234b1b785c
:1051e00043b113f0010f11d113f0020f1cd113f0d2
:1051f000400f29d108bd02f045f9e3e71c4801f052
:1052000021fe0028ead0fff709ffe7e7194b1868ed
:1052100002f050f902f086f80028ebd0134a137818
:1052200023f00103137008bd23f002030f4a13702b
:10523000104b186801f016fa0028dbd00b4a1378df
:1052400043f00203137008bd23f04003074a1370b4
:10525000084b186801f08affcce700bf010200206c
:105260002402002008020020100200201d0200205d
:08527000980100201802002043
:020000040000fa
:10527800f0b583b00024224b1c60224b1c60224beb
:105288001c60224b1c60224b1c60224b1c60fef7ea
:10529800ebfbfff791f901221f4b1a701f4b1c7093
:1052a8001f4b1c601f4b1c601f4b1c60009401941b
:1052b8004ff47a7404264ff411651f4605e0019aed
:1052c800934288bf3a60013c17d032462946684667
:1052d80001f080ff3246294601a801f07bff009ac1
:1052e800019b9a4288bf03f1ff339b1a01933b68e5
:1052f800002be4d1019b3b60e5e7002003b0f0bd43
:10530800f40000209800002094000020f8000020fd
:10531800f00000209c0000203628002038000020e3
:0c5328003c000020a400002044000020f5
:020000040000fa
:1053340070b5cd1c25f0030508350c2d38bf0c25a0
:10534400002d064601dba94203d90c23336000205b
:1053540070bd02f070f9234a1468214691b9224cb9
:1053640023681bb9304601f0a9fe20602946304667
:1053740001f0a4fe431c26d10c233360304602f016
:105384005bf9e4e70b685b1b1ad40b2b0fd90b609a
:10539400cd50cc18304602f04ff904f10b00231d18
:1053a40020f00700c31a1bd05a42e25070bd8c4251
:1053b4000dbf63684b686360136018bf0c46e9e770
:1053c4000c464968cae7c41c24f00304a04205d073
:1053d400211a304601f072fe0130cdd02560d9e7a4
:0c53e40070bd00bf2428002028280020f5
:020000040000fa
:1053f00070b5002001f0c8fe224d03681b0c2b8005
:10540000214e03683380012001f0befe03681b0caf
:105410009cb21e4a148002681d490a80308892b2ec
:1054200029880144914205dd1344984202da16248a
:10543000204670bd0c3c174b1c80002001f07cfb0b
:10544000012001f079fb0f4b188802f013f8124b82
:10545000186038b10024114b1c7002f013f80e4b89
:105460001c60e5e701220d4b1a700a2002f002f8d9
:10547000002814bf0024022402f004f80022064b86
:105480001a60d5e71e020020040200200c02002052
:105490001602002014010020180200200002002043
:020000040000fa
:1054a00070b582b005460c46244b1b7883421cbf66
:1054b000224b18704ff6ff7399421bd002ae46f88c
:1054c000041d04224ff49a71304600f0ddfb1b4ba3
:1054d0001b78019304224ff49871304600f0d4fbfe
:1054e00094b90022164b1a7002b070bd4122144bc1
:1054f0001a70f9e7114b1b7802a840f8043d04220a
:105500004ff4987100f0c0fb15f0100fe9d0a4f132
:105510001a039bb2182b05d80a4a22fa03f313f098
:10552000010fe3d1084b1b78012bdfd01b2c0cbfe4
:1055300042224022024b1a70d6e700bf1f01002012
:0c55400067010020010008012601002086
:020000040000fa
:10554c00f0b583b007460e46002301930093b0f5e7
:10555c00405f34bf1546042501f038ff214c6368c9
:10556c00db6898470028fad17b118df80430fb00da
:10557c0043f006038df805303b0a23f01f0343f07c
:10558c0010038df80630174b5b681c6803236a46c2
:10559c00194601a8a04701f0d3fe124c6368db68e2
:1055ac0098470028fad1104b9df800201a709df8ee
:1055bc0001205a700b4c012716f8013b8df8043072
:1055cc0063685b68394601a8984701f0b9fe6368c7
:1055dc00db6898470028fad1013dedd101f0ecfed3
:0c55ec0003b0f0bd942700200400002054
:020000040000fa
:1055f80030b583b0204b1c68002c33d01f4b1b6880
:105608001f4a12681f4909781f4800881f4d2d78c6
:105618000095a0470446ff2824d01d4b1b78013b6a
:10562800032b10d8dfe803f00a022020194b186872
:1056380020b101f023ff0022164b1a600022114608
:105648002046fff789f90023114a13700e4a138088
:105658000c4a13700a4a1360084a13600b4a137005
:10566800054a136003b030bd044b1a68044b19682f
:10567800fff772f9e7e700bfec220020dc220020e8
:10568800002300202423002022230020f1220020d0
:08569800f02200200423002091
:020000040000fa
:1056a0002de9f04f83b08246019190469b4620261b
:1056b0008640b6b20b88b3f5805f07d0214b1d68da
:1056c00075b1b8f1010f29d8404633e001f00cff65
:1056d00005460028f5d10c9b13b11b230c9a1370bf
:1056e0004ff6ff73019a13804046002525e00134f0
:1056f000e3b29f420cd3e1b2284601f0effb83886e
:105700001e42f4d02bf8029ba8f102081ffa88f879
:105710006d68002de4d0b8f1010f0ad9b5f80890f2
:10572000b9f5805ff4d3baf1000febd02f7b0024e2
:10573000e1e740462b89019a1380024b1d6003b0bc
:08574000bde8f08ff422002007
:020000040000fa
:1057480008b51a4b1b78012b1ed00023184a13707a
:10575800184a1370184a1380184a1370184a1360ad
:10576800184a1360184a1360104a1370174b1868c8
:1057780020b101f083fe0022144b1a600023144a62
:105788001360144a137008bd134b18680028dcd046
:10579800124b1b689842d8d0114b1b689842d4d042
:1057a80001f06cfe00220c4b1a60cee73c2800206a
:1057b800f0220020f12200202223002024230020b0
:1057c80000230020dc220020ec22002004230020fb
:1057d800e0220020f3220020fc22002024020020e6
:0457e8000802002093
:020000040000fa
:1057ec00002a4ad02de9f04383b00d4617460646f1
:1057fc004ff004084ff001092ce0032c04d8012cc5
:10580c008cbf022401240be001f0f8fe424601a9f2
:10581c002846fef745ff01f0f5feacb109e04c4619
:10582c0001f0ecfe424601a92846fef739ff01f0d3
:10583c00e9fe01a9324611f8013b02f8013b931b2a
:10584c00dbb2a342f7d31646a4b22544adb23c1b3f
:10585c00a7b27fb115f0010fe1d13c46042f28bf50
:10586c000424e4b215f0020fc7d0012c8cbf022423
:0c587c000124d5e703b0bde8f0837047bd
:020000040000fa
:1058880038b50546002945d051f8043c0c1f002bbb
:10589800b8bfe41801f0cdfe1f4a1368104633b9ab
:1058a800636014602846bde8384001f0c3bea342d7
:1058b8000cd921686218934204bf1a685b68636058
:1058c80004bf521822600460ece713465a680ab114
:1058d800a242fad919685818a0420bd1206801448d
:1058e800581882421960ddd1106852685a60014424
:1058f8001960d7e702d90c232b60d3e72068211859
:105908008a4204bf11685268626004bf09182160a6
:0c5918005c60c7e738bd00bf24280020f9
:020000040000fa
:1059240008b51d4b03b198471c4b03b19847eff3df
:10593400108172b61a4ad2f8883043f47003c2f860
:105944008830bff34f8fbff36f8f01b962b6154c28
:105954002023636000f0a0fa114a134b23f07f0365
:105964009360124b9847a36823f00103a360234676
:10597400da6812f0010ffbd10a4b5a6842f00402b4
:105984005a6001229a600a4b03b19847094b03b14c
:10599400984701f033fdfee700000000000000001e
:1059a40000ed00e00060004100000000d965000047
:0859b4000000000000000000eb
:020000040000fa
:1059bc0038b51c4b9b8b13f0010f04d11a4b9b8bee
:1059cc0013f0010f2cd0002000f0aeff0546174b52
:1059dc0018600122164b1a700022164b1a6000f048
:1059ec007ffd154c154b1a88154b1988204601f074
:1059fc00effb204601f0c0fd0a4b9b8b13f0010f0f
:105a0c0004d1094b9b8b13f0010f08d0284600f0f2
:105a1c008bff044b5b69984284bf024b586138bdc5
:105a2c000025dee76c02002028020020a4000020e4
:105a3c00380000204c0000205000002020010020e5
:045a4c002c01002009
:020000040000fa
:105a500030b49489c4f30320e4b213b307283ad0d6
:105a6000082813d0002064b115690123002003eb3e
:105a7000430205eb4202528810440133dbb29c42e0
:105a8000f5d20730c00849bb023027e013691b89f3
:105a90009269107800fb03f00730c008f1b90230ba
:105aa0001ce007280dd0c1b108280fd08c4217d3b5
:105ab000136901eb410103eb410148880730c01035
:105ac0000ce0136958880730c01007e01369188983
:105ad0000730c01002e0002000e0012030bc704719
:045ae0000020fbe7c0
:020000040000fa
:105ae40038b51e4b1b7803f00f03012b33d005464a
:105af4000c468388c3f30b038380194a127812f08f
:105b0400070f02d10121164a1170154a127843ea8f
:105b14000233ab802846fff77ffa034668b9104981
:105b24000a7801320a7064b2002c15da0d4a04f0c6
:105b34007f0411780c4314700ee00b49284601f0e1
:105b440056f9034610b144f08004ece704490a789e
:105b540001320a70e7e7f023184638bd1f01002020
:0c5b6400940100201d0200209801002088
:020000040000fa
:105b700070b588b01d464b1c202b03dd48f2030096
:105b800008b070bd0c460a460146684601f064fb49
:105b9000002208ab234403f8202c154b1e6816b9cd
:105ba00048f20100ece7acb19df80020114b1b78e6
:105bb0009a4219d16a460f4b013c13fa84f4a3426e
:105bc00008d012f8010f13f8011f8842f7d048f2ed
:105bd0000100d5e7ae4238bfb5b22a4606490c9857
:105be00001f03afb2846cbe748f20100c8e700bfc6
:0c5bf00014280020b8220020b802002079
:020000040000fa
:105bfc00002a42d02de9f04383b00d4617460646e5
:105c0c004ff004084ff0010924e0032c04d8012cb8
:105c1c008cbf0224012407e0424601a92846fef766
:105c2c003ffd8cb105e04c46424601a92846fef7e3
:105c3c0037fd01a9324611f8013b02f8013b931bd9
:105c4c00dbb2a342f7d31646a4b22544adb23c1b3b
:105c5c00a7b27fb115f0010fe5d13c46042f28bf48
:105c6c000424e4b215f0020fcfd0012c8cbf022417
:0c5c7c000124d9e703b0bde8f0837047b5
:020000040000fa
:105c8800002a41d02de9f04383b00d461746064659
:105c98004ff001094ff0040823e0032c04d8012c2d
:105ca8008cbf0224012402e064b100e04c4601a943
:105cb800324612f8013b01f8013b931bdbb2a342c9
:105cc800f7d3164601f09cfc424601a92846fff787
:105cd80039fc01f099fca4b22544adb23c1ba7b233
:105ce8007fb115f0010fe1d13c46042f28bf0424f1
:105cf800e4b215f0020fd0d0012c8cbf022401248d
:0a5d0800d5e703b0bde8f083704753
:020000040000fa
:025d12007047d8
:020000040000fa
:105d14001d4a137843f001031370536813f0010f05
:105d2400fbd11949194bcb6100220a6283230b6111
:105d3400174b1a7201221a75102283f8202083f857
:105d44002c2083f8382083f8442083f8502007203f
:105d540083f85c0083f8682083f8742083f880203b
:105d640083f88c2083f8982083f8a42083f8b0204b
:105d740083f8bc200b7843f002030b700a46536887
:105d840013f0020ffbd170470028004022000020ce
:045d940028230020a0
:020000040000fa
:105d9800002a3dd02de9f04383b00d46174606464c
:105da8004ff001094ff004081fe0032c04d8012c20
:105db8008cbf0224012402e064b100e04c4601a932
:105dc800324612f8013b01f8013b931bdbb2a342b8
:105dd800f7d31646424601a92846fff7b3fba4b2fb
:105de8002544adb23c1ba7b27fb115f0010fe5d138
:105df8003c46042f28bf0424e4b215f0020fd4d087
:105e0800012c8cbf02240124d9e703b0bde8f0833c
:025e18007047d1
:020000040000fa
:025e1a007047cf
:020000040000fa
:105e1c0038b5184b1b783bb1174bb3f90030002b3e
:105e2c0002dd013b144a138000f006fbfdf730fb4a
:105e3c00fef7b8ff114b1b7873b1114bd3e900235c
:105e4c00002310480021994208bf904204d24ff41d
:105e5c007a620d4b1a6008e00949d1e900230b4c1a
:105e6c00002512196b41c1e90023074a136801335d
:105e7c00136038bd4c010020560100204801002061
:105e8c00c027002040fbe1ff3400002040420f00ff
:020000040000fa
:105e9c001c4b1d4a934230b438bf002103d203f887
:105eac00011b9342fbd1194800250168c1b9426816
:105ebc0032b383680c30d3b10139034613f8014b6c
:105ecc0001f8014f1c1a9442f8d312f0030318bfc7
:105edc00012303eb920200eb820001680029e6d05b
:105eec00846842680b460c303cb9002addd01a4459
:105efc0003f8015b9a42fbd1d7e7002adcd1e4e737
:105f0c0030bc704700000020f4230020c0130000b8
:020000040000fa
:105f1c00002833d010b404461b4b1a684ab11389bd
:105f2c0001898b420ad88b422cd053688bb913460b
:105f3c0016e0186000206060206006e00020206001
:105f4c00114b1a68626014601c605df8044b70475a
:105f5c0013461a89914213d007d35a68002af7d1f5
:105f6c005c60236000206060efe71a682260636069
:105f7c001a6802b154601c600020e6e701207047eb
:0c5f8c000120e2e70120e0e7f8270020f8
:020000040000fa
:105f980070b50546184b1c780cbb184b1b7803f0e2
:105fa8000f03012b1bd0102001f060fa0346144a9e
:105fb8001060f8b1134a92e8030083e8030003f184
:105fc80008022868696803c201211846fff786fda0
:105fd800064668b9284600f0afff344608e0284670
:105fe80000f0baff084a137843f001031370002445
:105ff800204670bd0224fbe7010200201f0100209b
:0c60080018020020f87500001d020020a6
:020000040000fa
:1060140038b501f013f8174b9b8b13f0010f04d123
:10602400154b9b8b13f0010f22d0002000f080fc55
:106034000546124c204601f09dfa114b1a88114b6b
:106044001988204601f0d5f80a4b9b8b13f0010ff9
:1060540004d1094b9b8b13f0010f08d0284600f0a4
:1060640067fc054b5b69984284bf034b586138bd9c
:106074000025dee76c02002028020020a800002092
:086084004e010020680100201c
:020000040000fa
:10608c0010b5044682880188b1f5807f0dd8130bba
:10609c001bb1174a12789a4227d0154a137015492a
:1060ac00204600f0a0fe80b910bd0021042303702f
:1060bc00417022f47062828001238371c1710823c4
:1060cc0003724172fff708fd10bd002104222270fb
:1060dc006170a28822f47062a2800122a271e17127
:1060ec0020812046fff7f8fc10bd01f0c5f9dbe775
:0860fc001c020020cc01002071
:020000040000fa
:10610400f8b5194d00260427284600f099fe0446e8
:1061140000b300f049fc0028f6d027706670a3880d
:1061240023f47063a3800123a371e67120813146b7
:106134002046fff7d5fce7e70c4b1b7873b901f059
:10614400eff858b900f074fdfff724ff06e0fef7fe
:10615400c1f8f8bd064b1b78002bedd1054b1b781d
:10616400002bf4d1f8bd00bfcc01002001020020b7
:086174000202002014020020c9
:020000040000fa
:10617c0000000000000003050000040501000405f8
:10618c0005000405000001060100010602000106dd
:10619c000000020641000406420004064300040607
:1061ac00470004060000060610000706120007064a
:1061bc001300070611000906300009063100090614
:1061cc0032000906330009063600090600000008f3
:1061dc00200000082100000822000008230000080d
:0861ec00030001060400010696
:020000040000fa
:1061f40070b51a4b1b7813b1012b0cd070bd00f095
:10620400ddfffff737f800f045f90123144a137056
:10621400124a137070bd4ff480254ff00416104cd1
:1062240004e0fef759fd2378012b16d101f09cf907
:106234000128f6d101f0f4f80028fbd101f0f8f8b8
:1062440001f0eef80028fbd12b68b3f1ff3fe8d052
:1062540083f3088833681847e3e770bd0000002023
:0462640040000020d6
:020000040000fa
:1062680010b582b0154b1b7803b3154c236802a8f0
:1062780040f8043d04224ff41161fff7b3fa019985
:10628800d4e9002300220a43c4e900230d4800682a
:10629800814204d2003243f10103c4e90023094bcf
:1062a80019600022084b1a6002b010bd08224ff492
:1062b80011610348fff796faf3e700bf4801002091
:0c62c800c027002030000020340000201f
:020000040000fa
:1062d40010b5124b1c685cb1114b1b7813b1114bf8
:1062e4001b6863b12046fef797fe00220b4b1a6031
:1062f4000d4a1378b3fa83f35b09137010bd0120c0
:1063040000f0e2fb094b1a68064b1a60012000f00a
:1063140011fc0022024b1a70e4e700bf24020020a3
:1063240001020020080200202002002010020020a8
:020000040000fa
:10633400144ad36823f4e0631b041b0c43f0bf63cb
:1063440043f40133d360bff35f8f62b60e4be02298
:1063540083f80c234ff48051196083f80d234ff414
:106364000051196083f813234ff40021196083f856
:106374006b234ff40062da60402283f886231a61ab
:0c638400704700bf00ed00e000e100e009
:020000040000fa
:106390002de9f84381462026864001f0a5f8f8b1a2
:1063a000b6b205464ff0000810e00134a3b2bb427c
:1063b0000ad8e1b2284600f091fd83881e42f4d04d
:1063c00008f101081ffa88f86d685db12b89b3f5f3
:1063d000805ff9d3b9f1000ff2d02f7b0024e8e7fa
:0a63e0004ff000084046bde8f883c6
:020000040000fa
:0263ea007047fa
:020000040000fa
:1063ec00124b5b8d2bb9114b1a8d114b1b899a4299
:1063fc0011d901220d4b83f840200e4b5b8d7bb9dc
:10640c000c4b1a8d0a4b1b899a4209d80022094b56
:10641c0083f8402070470022044b83f84020ece7bf
:10642c000122044b83f84020704700bf6c0200200f
:08643c00b42700202802002013
:020000040000fa
:1064440008b50f4b1a888ab10e4b1b8801339bb2d7
:106454009a420cd800220b4b1a800b4b1b882bb191
:106464000a4b1b7833b90022094b1a7008bd054a40
:10647400138008bd1b210420f9f700ff08bd00bfed
:106484005e0100201c010020200100205a01002090
:04649400540100208f
:020000040000fa
:106498000023094a1370094a13700949094a11600f
:1064a80009490a4a11600a490a4a11600a490b4a0d
:1064b80011600b4a136070473b2800203a280020df
:1064c800715b0000f400002099470000f0000020f4
:1064d800a16b0000980000208d650000f8000020e6
:0464e8001428002054
:020000040000fa
:1064ec0008b50f4b1b783bb90e4b186828b9002028
:1064fc0000f01afa0b4b186008bd00f015fa094ba6
:10650c001860094b5b680bb1984201d2064b58607e
:10651c00064b5b680bb19842e9d2044b5860e6e736
:10652c00590100203c0000206c02002028020020b1
:020000040000fa
:10653c000c4b1b789bb90c4b1b782bb1c8220b4b0b
:10654c001a8000220a4b1a800a4a0023138582f80b
:10655c004030094a138582f84030ff207047074bc2
:10656c0018887047260100205901002032010020b4
:10657c002a0100206c0200202802002022010020a9
:020000040000fa
:10658c001f2902d948f20300704770b515460c4616
:10659c0001460a4e2246304600f058fe0023a35511
:1065ac00074a1360074a1360074b9d4202d048f21a
:1065bc00030070bd00f07afc002070bdb8220020f2
:0c65cc0010280020142800204433221165
:020000040000fa
:1065d80070b50d4e0d4ca41ba4100025a54209d181
:1065e8000b4e0c4cf9f738fea41ba4100025a5424d
:1065f80005d170bd56f8253098470135eee756f8b5
:10660800253098470135f2e76c0200006c02000063
:086618006c020000700200009a
:020000040000fa
:1066200070b59df8105041f2f804a04201d00b2043
:1066300070bd0db1052070bd09b1112070bd082ad3
:1066400001d90f2070bd1e4615460c46fff70cfe03
:106650002a460349304600f0fffd204670bd00bfca
:04666000c02700202f
:020000040000fa
:1066640038b50e4b186830b10021fff739fa002015
:106674000a4b186038bd4ff4807000f0f9fe0546ef
:1066840048b1074b04460fcb07c423802846fcf7c8
:106694005bfb002038bd072038bd00bffc00002094
:0466a4000c230020a3
:020000040000fa
:1066a8000c4b5b687bb10c490a681a440a600b49b9
:1066b80009688a420cd10a494a6813444b6000228f
:1066c800054b1a6070470023054a5360024a13605d
:1066d800704700bfd827002008280020182800206d
:0466e800c82700209f
:020000040000fa
:1066ec000e4b012283f8482083f84920772183f848
:1066fc0034100b49c3f8801083f8ca20022183f8a8
:10670c00cb1083f8d02083f8d12083f8d72083f8de
:10671c00df10072283f8b520704700bf00800041ce
:04672c0000080080e1
:020000040000fa
:1067300001220e4b1a601a46136913f0010ffbd1a8
:106740000a4b4ff488721a6003221a734ef66022c5
:106750009a8333229a720021054a116001225a72eb
:106760001a461369002bfcd1704700bf0038004067
:04677000e8230020fa
:020000040000fa
:1067740070b506460d4600f5802400f051fe002851
:10678400fbd1204600f0aafc00f04afe0028fbd111
:1067940006f584262146284600f042f900f040fe22
:1067a4000028fbd105f5007504f50074a642f1d16b
:0267b40070bdb6
:020000040000fa
:0267b60070472a
:020000040000fa
:1067b80010b5054c227832b9044b13b10448aff335
:1067c80000800123237010bd4c270020000000002a
:1067d8000000000008b5034b1bb103490348aff3a1
:1067e800008008bd000000005027002000000000c5
:020000040000fa
:1067f8000e4b1b68b3b11a89824204d05b688bb117
:106808001a898242fad119685a6801b14a6002b1fc
:1068180011600021196059600449086819890389c1
:10682800994200d07047014b1a607047f827002042
:020000040000fa
:106838004572726f722053657474696e6773004c89
:106848006f63616c204572726f7220526561637468
:10685800696f6e0053796e63204572726f722043c0
:106868006f756e746572204c696d697400ff000065
:020000040000fa
:1068780008b50022094b1a80094b1b781bb1094b3c
:106888005b88032b03d00022074b1a8008bd074bf7
:106898001b88002bf7d1fff7b9fbf4e75c01002058
:1068a8006001002028020020280100204a01002061
:020000040000fa
:1068b80008b50b4b1b7843b10a4b1b782bb10a4b1d
:1068c8001b781bb1094b1b782bb108bd2c21042068
:1068d800f9f7d2fc08bd1a210420f9f7cdfcf4e73a
:1068e800590100205a0100203801002055010020dc
:020000040000fa
:1068f8004964656e746974790056656e646f7220b8
:1069080049440050726f6475637420636f64650056
:106918005265766973696f6e0053657269616c20a0
:0c6928006e756d62657200ff000000bf1c
:020000040000fa
:1069340010b582b0044602a8002340f8043d0422a6
:106944004ff4116100f048fc019820b1a04238bf17
:1069540000f1ff30001b2cb1034b1b6898428cbf25
:0c696400c01a002002b010bd440000204a
:020000040000fa
:1069700038b50c4b1b6883b10c460b4a15880c3d8f
:10698000a94214bf002201229847034638b947f6ae
:10699000fc72ac4218bf134601e04ff400431846a6
:0c69a00038bd00bff00000201e020020e7
:020000040000fa
:1069ac0008b50d4b1b78012b08d08388c3f3032348
:1069bc00032b0ad0042b0bd0022008bd8388c3f311
:1069cc000323042b04d0022008bd00f09ff908bd5e
:0c69dc00fcf740f808bd00bf5801002087
:020000040000fa
:1069e8000c4ba3fb01235b0902781a440270642252
:1069f80002fb1311c9b2084ba3fb0123db08427841
:106a08001a44427003eb8303a1eb430130318170d8
:0c6a1800704700bf1f85eb51cdcccccceb
:020000040000fa
:106a240000220b4b1a8004380b1f01f5fe7150f83d
:106a3400042f43f8042f8b42f9d1064b1b8803f033
:106a440030031bb94af20352024b9a80012070476b
:086a54007e27002000400041f4
:020000040000fa
:106a5c0030b583b0054602ac002344f8043d042253
:106a6c004ff401712046fef7bbfe019828400190bf
:106a7c0000f0c4fd04224ff401712046fff7fef82c
:086a8c0000f0c0fd03b030bdb5
:020000040000fa
:106a940030b583b0054602ac002344f8043d04221b
:106aa4004ff401712046fef79ffe019828430190a0
:106ab40000f0a8fd04224ff401712046fff7e2f82c
:086ac40000f0a4fd03b030bd99
:020000040000fa
:106acc0030b583b002ab4ff0807243f8042dc00098
:106adc0000f60404042221461846fff7cff80425db
:106aec002a46214601a8fef77bfe019b13f0807f0e
:066afc00f6d003b030bd2e
:020000040000fa
:026b0200fee7ac
:020000040000fa
:106b040008b5094b9b8b13f0010f04d1074b9b8bea
:106b140013f0010f02d0064b1b8813b1fff7c2fd1f
:106b240008bdfff7e1fcf9e76c0200202802002011
:046b3400200100201c
:020000040000fa
:106b380030b583b002ab002243f8042dc00000f644
:106b48000404042221461846fff79af804252a4629
:106b5800214601a8fef746fe019b13f0807ff6d17f
:046b680003b030bd89
:020000040000fa
:106b6c0008b5094a00231380538093800221d180f9
:106b7c009360064a138053809380d18093600448bd
:106b8c0000f0d8f908bd00bf6c0100208401002082
:046b9c007c01002058
:020000040000fa
:106ba00058b50a4b1b6883420dd316461b1a9cb27c
:106bb0008c4228bf0c46224605490144304600f06d
:106bc0004bfb204658bd0024fbe700bf14280020e3
:046bd000b8020020e7
:020000040000fa
:106bd40000b583b002a8002340f8043d04224ff41a
:106be400a061fef701fe019b13f0c05f14bf0022f9
:106bf4000122024b1a7003b05df804fb392800200f
:020000040000fa
:106c04000a4a138852889a420ed0084a991c52f8ac
:106c1400210001339bb21380d2889a4200d070477e
:106c24000022024b1a8070470020f8e784010020fc
:020000040000fa
:106c34000a4a138852889a420ed0084a991c52f87c
:106c4400210001339bb21380d2889a4200d070474e
:106c54000022024b1a8070470020f8e76c010020e4
:020000040000fa
:106c640008b500f0d5fbfff73ffdfdf7e7fe00f0a8
:106c74000ff9fff79efdfff74bf8fff757fd0349a8
:106c8400002000f0b1fbfff753fb08bd00760000c5
:020000040000fa
:106c940008b50022064b1a60064800f093f8034634
:106ca40008b1184608bd044800f08cf80346f8e71c
:0c6cb400f8270020f4230020d425002045
:020000040000fa
:106cc0004f7574707574732070726f636573732081
:106cd00064617461206d617070696e6700537562e4
:0c6ce000496e6465782030303100ff0000
:020000040000fa
:106cec00496e707574732070726f63657373206472
:106cfc00617461206d617070696e670053756249d3
:0c6d0c006e6465782030303100ff00001c
:020000040000fa
:106d180008b5c3881b0b013b072b05d8dfe803f038
:106d28000c060c0c0c0c0c09052008bdf9f736fff5
:0c6d380008bdfcf707f808bd042008bdea
:020000040000fa
:106d440030b400eb4004084b03eb84031b7a83420a
:106d540001d030bc7047044b4400251843f825107b
:0c6d640003eb85035a60f4e728230020ad
:020000040000fa
:106d700008b5084b5b7a63b1064a937a3321917266
:106d800003f0ff002bb1044b1b6813b1024a51689a
:0c6d9000984708bd00380040e8230020b0
:020000040000fa
:106d9c00074a136843b10749184488429abf1060e8
:106dac0018464ff0ff307047034b1360f3e700bffa
:0c6dbc0030280020402a00204028002041
:020000040000fa
:106dc80038b502894ff6ff739a420cd004461d4627
:106dd8002046fff79ff8024618b928342389ab42aa
:0a6de800f6d1104638bd0022fbe78b
:020000040000fa
:106df20010b44a88531c9bb28c889c4208bf002363
:106e02000c889c4207d0023241f822004b800020bd
:0a6e12005df8044b70470720fae713
:020000040000fa
:106e1c0030b583b0064c25683db11c46054b1b882c
:106e2c0000922246a84703b030bd4ff40040fae769
:086e3c00f40000201401002005
:020000040000fa
:106e440002460388418899420cd0991c50f82100cd
:106e540001339bb213809188994200d0704700237c
:086e6400138070470020f9e7dc
:020000040000fa
:106e6c0000b583b000f0cafb04220deb02014ff415
:106e7c000870fdf715fc00f0c5fb024b188803b039
:086e8c005df804fb0400002086
:020000040000fa
:106e9400074b01221a6000225a604ff4e0629a60a4
:106ea40002221a601a46136a13f0020ffbd07047cd
:046eb4000034004264
:020000040000fa
:106eb800054b1b783bb90122034b1a700023034a88
:106ec8001360034a136070473b28002010280020f5
:046ed8000c28002062
:020000040000fa
:106edc008389c3f30323082b05d001eb410100691f
:106eec0000eb4100704709b9006970470069063032
:026efc007047dd
:020000040000fa
:026efe00fee7ad
:020000040000fa
:106f000010b5064b1c682cb120896468fff774fc2f
:106f1000002cf9d10022014b1a6010bdf827002087
:020000040000fa
:106f200005000800070007002000070007002000f8
:106f3000070007002000070007002000070000bf2f
:020000040000fa
:106f400006494a88531c9bb2c988994208bf00234e
:106f50000249023241f822004b8070478401002030
:020000040000fa
:106f600006494a88531c9bb2c988994208bf00232e
:106f70000249023241f822004b8070476c01002028
:020000040000fa
:106f800008b5054b1b6823b10a4604490988984790
:106f900008bd4ff4004008bd9800002014010020f7
:020000040000fa
:106fa00010b5044600f0a0fa034638b10289a242a7
:106fb00004d05b6813b11a89a242fad1184610bdf9
:020000040000fa
:106fc00000000100030007000f001f003f007f00ca
:106fd000ff00ff01ff03ff07ff0fff1fff3fff7fc2
:020000040000fa
:106fe00008b50122044b5a61044b1b6813b1034ad4
:106ff0005068984708bd00bf0028004028230020a3
:020000040000fa
:1070000008b50222044b5a61044bdb6813b1034af2
:107010001069984708bd00bf0028004028230020c1
:020000040000fa
:1070200008b58022044b5a61044b5b6d13b1034acf
:10703000906d984708bd00bf00280040282300201d
:020000040000fa
:1070400000b583b004220deb02014ff40870fdf788
:107050002dfb024b188803b05df804fb04000020f0
:020000040000fa
:1070600008b5002204491046fff76cfe00220349d0
:107070000120fff767fe08bd9d73000089730000c3
:020000040000fa
:1070800010b5054ce3681b68002104489847e36885
:107090005b68984710bd00bf942700206173000013
:020000040000fa
:1070a00008b529b14ff00041044800f0c3fa08bd0b
:1070b0004ff00041014800f0bbfa08bd808000415c
:020000040000fa
:1070c00038b5064c0023054608462360fff766fee8
:1070d000431c02d1236803b12b6038bdf02300208c
:020000040000fa
:1070e0000022044b1a80044b58614af201529a80e4
:0c70f000012070477e2700200040004176
:020000040000fa
:1070fc00044b187f28b9044bd86980f00200c0f308
:0c710c00400070470800002000340042e2
:020000040000fa
:1071180053796e634d616e616765722032206173c9
:0c7128007369676e6d656e7400ff0000f7
:020000040000fa
:1071340053796e634d616e616765722033206173ac
:0c7144007369676e6d656e7400ff0000db
:020000040000fa
:107150000023034a1380034a1360034a13607047f5
:0c71600004010020080100200c010020a8
:020000040000fa
:10716c0008b5054b186828b10021fef7b5fc0022c4
:0c717c00014b1a6008bd00bf0c01002090
:020000040000fa
:1071880010b5c100044c082201f500612046fef745
:0c71980029fb204610bd00bf4001002074
:020000040000fa
:1071a400044b1b78dbb2012b00d070470122024b49
:0c71b4001a70fae73b2800203a2800205f
:020000040000fa
:1071c00008b5044b5b681b69002103489847fdf72d
:0c71d000a7fc08bd94270020a975000052
:020000040000fa
:1071dc0008b50b46b1f5805f02d2fef709fd08bd7c
:0a71ec0001461846fdf75cfa08bde5
:020000040000fa
:1071f60008b50b46b1f5805f02d2fef7cafd08bda1
:0a72060001461846fef79ff908bd87
:020000040000fa
:1072100008b5044b1b680bb1984708bd4ff40040fc
:0872200008bd00bff8000020ca
:020000040000fa
:10722800044a136843f002031360136913f0020f52
:08723800fbd170470038004053
:020000040000fa
:10724000044a136823f002031360136913f0020f5a
:08725000fbd17047003800403b
:020000040000fa
:1072580010b5431e0a44914200d110bd11f8014bec
:0672680003f8014ff7e7f7
:020000040000fa
:02726e00fee739
:020000040000fa
:1072700048617264776172652076657273696f6eba
:04728000000000bf4b
:020000040000fa
:10728400536f6674776172652076657273696f6e89
:04729400000000bf37
:020000040000fa
:1072980054696d657374616d70204f626a656374bb
:0472a80000ff0000e3
:020000040000fa
:1072ac0053796e63206d616e6167657220747970bd
:0472bc00650000bfaa
:020000040000fa
:1072c000496e7075747300436f756e74657200ff5c
:0472d000000000bffb
:020000040000fa
:1072d4004f757470757473005472696767657200d2
:0472e400ff0000bfe8
:020000040000fa
:1072e800050008000700070020003f000600100006
:0472f8003f0000bf94
:020000040000fa
:1072fc000023024a1360024a13807047fc000020ee
:04730c00f822002043
:020000040000fa
:107310000023024a1370024a137070475401002080
:047320005a010020ee
:020000040000fa
:10732400034b18885b88984214bf002001207047e3
:047334006c010020c8
:020000040000fa
:10733800a93c0000d174000045740000fd700000f5
:04734800dd740000f0
:020000040000fa
:10734c00034a137a002bfcd00022014b1a727047af
:04735c009427002052
:020000040000fa
:1073600008b5802383f31188fef758fd002383f3cb
:04737000118808bdbb
:020000040000fa
:1073740008b5802383f31188fcf71cfd002383f3f5
:04738400118808bda7
:020000040000fa
:1073880008b5802383f31188fff772fa002383f38b
:04739800118808bd93
:020000040000fa
:10739c0008b5802383f31188fcf790fd002383f359
:0473ac00118808bd7f
:020000040000fa
:1073b00008b5002202490720fff7c4fc08bd00bf42
:0473c00075730000e1
:020000040000fa
:1073c40008b54ff40061024800f030f908bd00bf71
:0473d4008080004174
:020000040000fa
:1073d80008b54ff40061024800f028f908bd00bf65
:0473e8008080004160
:020000040000fa
:1073ec00034b01221a720a685a604a68da607047c5
:0473fc0094270020b2
:020000040000fa
:1074000008b50020fff72efc00f05cf8fef7f2fe56
:02741000fce797
:020000040000fa
:02741200fee793
:020000040000fa
:1074140040f20452014b1a80704700bf0040004103
:020000040000fa
:10742400024b588ac04300f00100704700400041fd
:020000040000fa
:107434004af21752014b9a80704700bf0040004146
:020000040000fa
:1074440008b50b46024600210846fcf72bfc08bd94
:020000040000fa
:107454004572726f72207265676973746572000099
:020000040000fa
:1074640008b5024b1b6803b1984708bd940000207f
:020000040000fa
:10747400024b01461868fdf75bbf00bf2c280020b3
:020000040000fa
:10748400024b01461868fef7fdb900bf2c28002006
:020000040000fa
:1074940002440346934200d1704703f8011bf9e705
:020000040000fa
:1074a400034613f8012b002afbd1181a0138704740
:020000040000fa
:0e74b40008b5fff7bdfb08b1fef76cfd08bd83
:020000040000fa
:0274c200fee7e3
:020000040000fa
:0c74c4000022014b1a70704700000020ed
:020000040000fa
:0c74d00008b500231a46fcf7e7fb08bdd6
:020000040000fa
:0c74dc00014b1862596270470800002044
:020000040000fa
:0c74e800014b1868704700bff827002017
:020000040000fa
:0c74f4004465766963652074797065005a
:020000040000fa
:0c750000446576696365206e616d65006e
:020000040000fa
:0c750c0005000800070007002000070031
:020000040000fa
:0c75180005000800070007002000070025
:020000040000fa
:0c75240005000800070005000800070033
:020000040000fa
:0c7530000500080007000600100007001e
:020000040000fa
:0c753c0005000800070006001000070012
:020000040000fa
:0c75480005000800070007002000870075
:020000040000fa
:0c755400050008000700070020007f0071
:020000040000fa
:0c75600008b508461146fff70bfd08bdfa
:020000040000fa
:0c756c00014b1878704700bf3a2800203f
:020000040000fa
:0c757800014b5b6803607047c8270020cf
:020000040000fa
:0c7584000268014b5a607047d8270020b5
:020000040000fa
:0c7590009d75000029720000417200008f
:020000040000fa
:0c759c00014b186059607047e823002084
:020000040000fa
:0c75a8000122014b1a727047942700204a
:020000040000fa
:0a75b40008b5fff7f5fd002008bd43
:020000040000fa
:0275be00fee7e6
:020000040000fa
:0875c00007002000070000bfd6
:020000040000fa
:0875c80005000800070000bfe8
:020000040000fa
:0875d0000900a800070000bf3c
:020000040000fa
:0875d80009001800070000bfc4
:020000040000fa
:0875e00009002800070000bfac
:020000040000fa
:0875e8001b004000bf0000bfc2
:020000040000fa
:0875f00008b5fff707fb08bd19
:020000040000fa
:0875f8000a000000000300106e
:020000040000fa
:087600003873000090750000d2
:020000040000fa
:08760800802383f31188704711
:020000040000fa
:08761000002383f31188704789
:020000040000fa
:047618000a3070477d
:020000040000fa
:04761c000020704793
:020000040000fa
:04762000002070478f
:020000040000fa
:04762400002070478b
:020000040000fa
:047628000020704787
:020000040000fa
:04762c000020704783
:020000040000fa
:0476300081617047bd
:020000040000fa
:0476340041617047f9
:020000040000fa
:02763800fee76b
:020000040000fa
:02763a00704797
:020000040000fa
:02763c00704795
:00000001FF
