:020000040000fa
:10000000f0ff02207d5e00003f790000ef790000e4
:10001000657b0000677b0000697b0000000000003a
:1000200000000000000000000000000073770000e6
:10003000eb7a000000000000737700007377000087
:100040007377000073770000737700007377000008
:1000500073770000737700007377000073770000f8
:1000600073770000737700007377000073770000e8
:100070003975000059750000737700007377000030
:1000800073770000737700007377000079750000c4
:1000900073770000737700007377000073770000b8
:1000a00073770000737700007377000073770000a8
:1000b0007377000073770000737700007377000098
:1000c0007377000073770000737700007377000088
:1000d0007377000073770000737700007377000078
:1000e000737700007377000000000000000000003c
:1000f0000000000073770000737700007377000042
:100100007377000073770000737700007377000047
:100110007377000073770000737700007377000037
:100120007377000073770000737700007377000027
:100130007377000073770000737700007377000017
:100140007377000073770000737700007377000007
:1001500073770000737700000000000000000000cb
:10016000000000000000000000000000000000008f
:10017000000000000000000000000000000000007f
:1001800073770000737700007377000073770000c7
:1001900000000000737700007377000073770000a1
:1001a00073770000737700007377000073770000a7
:1001b0007377000073770000737700007377000097
:1001c0007377000073770000737700007377000087
:1001d0007377000073770000737700007377000077
:1001e000737700007377000073770000f1720000ee
:1001f0007377000073770000737700007377000057
:10020000737700000000000000000000737700001a
:100210007377000073770000737700007377000036
:100220007377000073770000737700007377000026
:100230007377000073770000737700007377000016
:100240007377000073770000737700007377000006
:10025000737700007377000049380000737700005f
:020000040000fa
:10026000f8b500bff8bc08bc9e4670475d6d000045
:10027000f8b500bff8bc08bc9e467047396d000059
:020000040000fa
:100280002de9f0414ff6ff72b44b1a800122b44bb6
:100290001a7010f0100736d0b24a137823f010030a
:1002a000137001270e4600f00f05ae4b1c7805ebce
:1002b000041404f0ff04442c0fd000f2f082222c2e
:1002c00000f0e78240f2e481242c40f0df82a6496e
:1002d000a64804f001f8804648b9a54b187802f00a
:1002e000bdff1ffa80f8b8f1000f00f03b839d4b73
:1002f0001b78042b00f05a81082b00f05381022b4d
:1003000040f05e8156e1974b1b7813f0100f05d03b
:1003100000f00f02012a01d0bde8f08103f00f03c5
:10032000904a1370bee70122924b1a70022002f02d
:1003300095ff28b100228f4b1a704ff0150842e14b
:10034000002006f04bfe05f0fbfa804678b1b8f1cc
:10035000ff0f00f00484824b1b78bbb103f09efdbd
:10036000032006f0d8fa0022824b1a702be10022fb
:100370007b4b1a7007f0e8fb80460028e7d101228a
:100380007d4b1a70032006f0c6fa1ce107f0a8fbab
:10039000e4e7784b1b7843b94ff0000806f0cbfc3c
:1003a0000022764b1a703123aee00020714b18709a
:1003b00006f014fe03f072fd07f092fb8046ede7b5
:1003c00006f0c8fe6e4b1b78002b00f0c58305f0cd
:1003d000b7fa804648b1b8f1ff0f00f0cd83604b0b
:1003e0001b7873b103f05afdede000225c4b1a70ec
:1003f00007f0aafb80460028edd101225e4b1a705f
:10040000e1e007f06dfbede701f03afb804648b113
:10041000b8f1ff0f00f05182514b1b789bb104f0f3
:1004200001fdd0e000224e4b1a70564807f08efbbb
:1004300080460028ecd1534b188806f0ebfd0122d2
:10044000514b1a70bfe007f083fbe8e706f036fb7c
:10045000804648b1b8f1ff0f00f03682404b1b7860
:1004600073b107f0d7f9aee000223d4b1a7007f0e8
:1004700071fb80460028edd10122444b1a70a2e0a6
:1004800007f06afbede707f067fb07f0c3f94ff0f1
:100490000008334b83f8008095e007f05dfb804651
:1004a00007f0b8f900222e4b1a70b8f1000f40f097
:1004b000168207f04dfb04f0b5fc4ff00008284b06
:1004c00083f800807fe007f047fb804607f0a2f941
:1004d0000022234b1a70b8f1000f40f0028207f09f
:1004e00037fb804604f09efc00221d4b1a70b8f1c9
:1004f000000f40f0f88103f0d1fc07f0f1fa8046dc
:1005000000221e4b1a702123b8f1ff0f5bd101218d
:100510001f4a11701f4a1380c822104b1a8084e0b2
:100520000022164b1a7077b90e4b1b7813f00c0f84
:1005300000f0cf810c4b1b884bb90c4b1b885bbb6d
:100540004ff0fe083fe0204606f09bfdece702205e
:1005500006f0b2fd4ff0fe0835e000bf5601002066
:100560001e0100201f010020200100204e0100205c
:10057000660100205801002002020020b002002085
:100580003928002036010020600100205a01002097
:100590004c0100201a010020032006f08dfd4ff0d1
:1005a000fe0810e007f0d8fa07f034f907f0d0faa7
:1005b00004f038fcb8f1160f16d00222cb4b1a709b
:1005c000b8f1ff0f21d0c94b187800f00f03ab42f0
:1005d00057d0b8f1000f40f09381002e40f0bb815e
:1005e000c24b1d70b046ace103f058fc07f078fa3e
:1005f000002006f02bfd012006f028fd0122bb4b58
:100600001a70e0e74ff01108dae70122b84b1a70d0
:10061000b84b1c80242c18d014d8123c94423ff6be
:100620007baf4ff4fa62b44b1a80b348b0f9003094
:10063000b24981fb0321da17c2eba1029b1a0380a6
:10064000bde8f081482c7ff467af42f22832aa4b14
:100650001a80eae74ff01108b5e707f07dfa07f0d6
:10066000d9f856e1022006f0f1fc5ce1032006f027
:10067000edfc58e104229d4b1a705de1002eafd0d5
:100680006de100219a4b197005f0b2f9bde8f081d7
:10069000122c00f0fe800022964b1a80a4f1110368
:1006a000772b00f2138101a252f823f021050000fc
:1006b000c10300002703000005060000cd0800006c
:1006c000cd080000cd08000005060000cd080000a0
:1006d000cd080000cd080000cd080000cd080000c6
:1006e000cd080000cd080000cd080000f704000090
:1006f000270500000506000009040000cd080000e1
:10070000cd080000cd08000005060000cd0800005f
:10071000cd080000cd080000cd080000cd08000085
:10072000cd080000cd080000cd08000093030000b4
:1007300005060000cd08000005060000cd080000f9
:10074000cd080000cd08000005060000cd0800001f
:10075000cd080000cd080000cd080000cd08000045
:10076000cd080000cd080000cd080000df04000027
:10077000b30400000506000027050000cd080000b6
:10078000cd080000cd0800004d040000cd08000099
:10079000cd080000cd080000cd080000cd08000005
:1007a000cd080000cd080000cd080000cd080000f5
:1007b000cd080000cd080000cd080000cd080000e5
:1007c000cd080000cd080000cd080000cd080000d5
:1007d000cd080000cd080000cd080000cd080000c5
:1007e000cd080000cd080000cd080000cd080000b5
:1007f000cd080000cd080000cd080000cd080000a5
:10080000cd080000cd080000cd080000cd08000094
:10081000cd080000cd080000cd080000cd08000084
:10082000cd080000cd080000cd080000cd08000074
:10083000cd080000cd080000cd080000cd08000064
:10084000cd080000cd080000cd080000cd08000054
:10085000cd080000cd080000cd080000cd08000044
:10086000cd080000cd080000cd080000c70400003e
:100870009b0400000506000087040000cd0800006e
:10088000cd080000cd08000027050000422c7ff4b1
:1008900002af022002f0e2fc1ffa80f823e5822c6e
:1008a000f7d006d9842c3ff418ad882c3ff415ad51
:1008b000f1e6482c3ff411adede6242201210c4b6a
:1008c00019700c4b1a80c0e64822f7e74ff0120867
:1008d00079e64ff0fe0876e64ff0120873e68223c1
:1008e00012e6812310e641230ee600bf1f0100201f
:1008f0004c0100201a010020560100206766666640
:10090000284310f0080f12d09f4b1b78002b7ff468
:10091000a4ae9e4b1b88002b7ff4a4ae9c4b1b887f
:10092000002b7ff4a3aeb8f1000f3ff4a7ae994bb4
:100930001b78082b3ff49eae964a137843f01003c1
:1009400013700022944b1a704146924b187805f0b0
:100950004ff8bde8f081284310f0080fd4d145f0de
:1009600010053de600228d4b1a80a4f11103772b70
:10097000b2d801a252f823f021050000c103000003
:100980002703000055060000d9080000d908000020
:10099000d908000055060000d9080000d908000059
:1009a000d9080000d9080000d9080000d9080000c3
:1009b000d9080000d9080000f7040000270500004e
:1009c0005506000009040000d9080000d9080000fd
:1009d000d908000055060000d9080000d908000019
:1009e000d9080000d9080000d9080000d908000083
:1009f000d9080000d9080000930300005506000044
:100a0000d908000055060000d9080000d9080000e8
:100a1000d908000055060000d9080000d9080000d8
:100a2000d9080000d9080000d9080000d908000042
:100a3000d9080000d9080000df040000b30400005a
:100a40005506000027050000d9080000d90800005d
:100a5000d90800004d040000d9080000d9080000a2
:100a6000d9080000d9080000d9080000d908000002
:100a7000d9080000d9080000d9080000d9080000f2
:100a8000d9080000d9080000d9080000d9080000e2
:100a9000d9080000d9080000d9080000d9080000d2
:100aa000d9080000d9080000d9080000d9080000c2
:100ab000d9080000d9080000d9080000d9080000b2
:100ac000d9080000d9080000d9080000d9080000a2
:100ad000d9080000d9080000d9080000d908000092
:100ae000d9080000d9080000d9080000d908000082
:100af000d9080000d9080000d9080000d908000072
:100b0000d9080000d9080000d9080000d908000061
:100b1000d9080000d9080000d9080000d908000051
:100b2000d9080000d9080000d9080000d908000041
:100b3000d9080000d9080000c70400009b04000089
:100b40005506000087040000d9080000d9080000fd
:100b5000d9080000270500004ff0510833e50320b5
:100b600005f0d9fe00220e4b1a7001220a4b1a70b2
:100b700013220a4b1a8054e50122074b1a701222e5
:100b8000064b1a804de500bf5a01002020010020cd
:100b90004e0100201f0100204c0100201a010020fe
:040ba00058010020d8
:020000040000fa
:100ba4002de9f04f89b0a54b1c7824b109242046c7
:100bb40009b0bde8f08f0546b0f808805ffa88f701
:100bc40007f0e006202e27d01ad9402e24d0602e1c
:100bd40018d19b4b1b78b34200f0d1814ff0000930
:100be400cdf808904ff0030a0195029b00931ffa79
:100bf40089f307f010023146504603f0e9fdd6e7c9
:100c0400002ee6d04ff00009cdf808904ff0030a0b
:100c1400baf1ff0fcbd0e7e7b5f800a0b5f80ab0fa
:100c24004fea182303eb0b239bb203934fea1b2bce
:100c3400184606f05ffc0490002800f0a283037bb2
:100c44009b4506d94ff00009cdf808904ff0110ae2
:100c5400cae707f01003059302465946039805f0c6
:100c6400a1f90290402e0fd0202e2bd00694ddf84f
:100c7400089000230793059b002b56d0bbf1010f6e
:100c840051d94ff0050aafe7baf10a0f01d0082491
:100c94008de7431e032b08d805f10c0307930023ab
:100ca400ab81eb8106948146e5e7664b1b88a3f193
:100cb4001009029b4b4500f2448305f1100307938e
:100cc4000694d8e717f0020f0dd0baf10a0f01d03d
:100cd40008246ce7c7f38103c3f1040905f10c038d
:100ce40007930694c7e7ea89ab8903eb0249564b9d
:100cf4001b8809f110029a4204d9063b9a4507d091
:100d0400082454e709f10a039a4501d008244ee760
:100d140005f110030793aaf10a03994594bf002330
:100d240001230693a7e701230593069b002b42d1d9
:100d3400029b4bb9454bbdf80c201a80444b83f8f9
:100d440000b0444b049a1a60402e00f0e380059be7
:100d54000193079b0093049b4a465946039801f06c
:100d6400bff98246ff287ff43faf01233a4a13704c
:100d74003a4a9df814101170394a82f800b0394a81
:100d8400bdf80c101180384ac2f80090374a079910
:100d94001160049a116a364a1160284a1370354b5f
:100da4001d602b8923f0ff0308f0f00843ea0803d1
:100db4002b81069cfbe601232f4a13702f4a1370e4
:100dc4002f4b9df814201a70204bbdf80c201a806c
:100dd4001f4b83f800b01f4b049a1a60402e294b16
:100de40006bf029a1a60c3f80090274b186808b12e
:100df40006f0dcfd234b1868013020f0010006f0fa
:100e0400cdfd214b186080b1402e41d0aaf10a09d2
:100e14004a4605f1100106f09ffc0022084b1a70a7
:100e2400a2461a4bc3f80090f2e6059b002b14bfb0
:100e34004ff0050a4ff0040ad6e600bf3c28002014
:100e4400f32200200c0200201e02002008230020b0
:100e5400202300201c230020f0220020f122002067
:100e6400242300202223002000230020dc22002051
:100e7400ec220020fc220020e5220020f2220020a7
:100e8400e4220020e822002004230020e0220020a5
:100e9400059b01930090049b029a5946039801f024
:100ea400a7fb824658b3ff28bbd10422b84b1a7063
:100eb400b84b9df814201a70b74b83f800b0b74ba9
:100ec400bdf80c201a80b64b029a1a60b54b1a680a
:100ed400b54b1a60049bda69b44b1a600122b44b17
:100ee4001a70b44b1d602b8923f0ff0308f0f0083f
:100ef40043ea08032b816022af4b1a7057e64a4637
:100f0400a84b196805f1100006f026fc6022aa4bd4
:100f14001a7086e7059b0193079b0093049b029a32
:100f24005946039801f064fb8246ff287ff45caec7
:100f34000322974b1a70974b9df814201a70964b06
:100f440083f800b0954bbdf80c201a80944b029a9c
:100f54001a60954b079a1a60049bda69934b1a60de
:100f64000122934b1a70934b1d602b8923f0ff03ce
:100f740008f0f00843ea08032b81069c17e6002ecc
:100f840040f03d818d4b1a7808f010039a4200f02e
:100f9400f2818b4b1b88093b9bb207f010028749f7
:100fa4000a70804a1068002800f0e881854a1168b8
:100fb400854a1268521a18f0010f1ad09a4200f2a8
:100fc400c5812b88033b9a4200f2c0816fea680e08
:100fd4000ef0070e724505d0072a40f2b7819a42f7
:100fe40040f0b4814ff0000e784b83f800e0914656
:100ff40009e04ff0010cdff8d4e18ef800c0994607
:101004009a4240f2a38111f0010f4ed149086a8936
:101014004fea182343ea022320f8113009f10100b2
:10102400400801281ad901218846dff898c1dff861
:1010340074e105eb4102dcf8003008eb5308b2f828
:1010440008a053891b0243ea1a23def8002022f881
:101054001830013189b288468142ead35b4b93f858
:101064000080b8f1000f41d00a232b7000236b706d
:10107400eb88c3f30b0343f44053eb804f4b1b78d3
:10108400002b00f0ad8030232b7200236b724f4b8a
:101094001b78012b00f0a98000234a4a1360464aba
:1010a4001370b246994602939ee5490810f8113030
:1010b40020f811303b49434802685208d1f800e057
:1010c4002b8923f0ff033ef812c043ea0c032ef8e9
:1010d4001230036823f001030233086809f1ff3278
:1010e40005f10a01184406f037fbb7e7384bd3f88b
:1010f40000c0354a12683749097837480088dff854
:10110400dce09ef800e0cdf804e0dff898e0def8db
:1011140000300093634600f0e3ff8246ff2829d1a4
:1011240002221b4b1a702d4b1a781a4b1a70294b3a
:101134001a78194b1a70284b1a88184b1a80224bac
:101144001a68174b1a60174b1a68174b1a60204b12
:101154001b681a6a154b1a600122154b1a70154b3d
:101164001d600023194a1370134a1370154a136043
:1011740044461ce5dff82c80d8f8000006f016fc85
:101184000023c8f80030baf1000f3ff46dafdfe080
:10119400f0220020f122002024230020222300201a
:1011a4000023002004230020dc220020ec22002065
:1011b4003c280020fc220020f3220020f222002000
:1011c4001e020020e0220020e8220020e522002068
:1011d4001c2300202023002008230020e4220020d8
:1011e40020232b7200236b7251e76d4a13684b4422
:1011f4001360b2464ff00009cdf80890f4e42a7a5f
:1012040002f01002674b1b78934200f0c180664bda
:101214001b88093b9bb263490a709946604a12686d
:101224006249096813448b4286bfa1eb020900217d
:1012340001215f4b19705ffa88f8a5f8088012f055
:10124400010354d14fea520e5a4a106830f81e2056
:1012540048ea0228a5f808805fea590c13d0002157
:101264001a46724400eb4203b3f8028030f812309d
:101274001b0a05eb410243ea08235381013189b279
:101284000a468c45edd8eb88c3f30b0343f4405373
:10129400eb802b8903f47f432b81454a1278002a83
:1012a4003ad0404a127813432b81b9f1060f3ad849
:1012b4000a232b7000236b70c9f107032a8942eac1
:1012c40043032b813a4b1b78012b30d0dff8e480a9
:1012d400d8f8000006f06afb0023c8f80030304a52
:1012e4001360354a1370a246994602937ce4314b4d
:1012f4001968520831f8123023f0ff0343ea080852
:10130400a5f8088001eb420109f1ff32023105f131
:101314000a0006f021fab6e7224a127842f00102e6
:1013240013432b81c1e709f103032b80cae71c4a4d
:1013340013684b441360a2464ff00009cdf808909f
:1013440052e4012306930023079394e44ff00e0a1a
:101354000023174a1370184a1370164b186820b1eb
:1013640006f024fb0022134b1a6000230c4a13607e
:10137400994602934ce44ff0010ae9e74ff0030a5f
:10138400e6e74ff00009cdf808904ff0080a2be487
:101394004ff00009cdf808904ff0010a24e400bf93
:1013a400e0220020f22200200c020020e82200208b
:0c13b400e522002004230020f32200208a
:020000040000fa
:1013c0004c2700201c00000000000000000000204e
:1013d00006000000000000007e2700200200000040
:1013e00000000000b1270020010000000000000004
:1013f000080000202800000000000000f82700205e
:101400000400000000000000ee27002002000000a1
:1014100000000000c02700200800000000000000bd
:10142000d425002018010000010000000000000089
:10143000000000000116210001090000387a0000b8
:1014400040720000e02700200000000000000000c3
:10145000000000000000000000000000001a210051
:1014600001090000447a00006c720000d0270020bf
:10147000000000000000000000000000000000006c
:1014800000000000121c0600010800005c7a000049
:10149000507600001c280020000000000000000022
:1014a000000000000000000000000000131c060007
:1014b00001080000687a00006c76000020280020f7
:1014c000000000000000000000000000000000001c
:1014d0000000000000602a0001090000747a00008a
:1014e000c4770000c82700200000000000000000b2
:1014f00000000000000000000000000010702a0042
:1015000001090000807a0000d8770000d827002069
:1015100000000000000000000000000000000000cb
:1015200000000000ffff00000000000000000000bd
:1015300000000000000000000000000000000000ab
:1015400000000000f4230020e00100000100000082
:10155000000000000000000000100700000700006d
:10156000ec7a0000207a0000002800200000000033
:10157000000000000000000000000000000000006b
:101580000110050000070000f47a000080790000d7
:10159000ee27002000000000000000000000000016
:1015a0000000000000000000081009000007000013
:1015b000fc7a00002c7a0000682700200000000060
:1015c000000000000000000000000000000000001b
:1015d0000910090000070000047b00007477000078
:1015e000fc270020000000000000000000000000b8
:1015f00000000000000000000a10090000070000c1
:101600000c7b000088770000e82700200000000025
:1016100000000000000000000000000000000000ca
:10162000181023000409000078740000786e000090
:1016300080270020000000000000000000000000e3
:101640000000000000000000f1102a000209000064
:10165000ec770000b86d0000b42700200000000007
:10166000000000000000000000000000000000007a
:10167000f8101b0000070000147b00009c7700009e
:10168000c0270020a16b0000000000000000000047
:101690000000000000000000001c0500040800001d
:1016a000507a0000b0770000f02700200000000012
:1016b000000000000000000000000000000000002a
:1016c000321c29002009000084550000e04300007e
:1016d0006c0200200000000000000000000000007c
:1016e0000000000000000000331c29002009000059
:1016f00084550000e04400002802002000000000a3
:1017000000000000000000000000000000000000d9
:10171000ffff0000000000000000000000000000cb
:1017200000000000000000000000000000000000b9
:1017300068270020160000000100000053414d44be
:10174000353120457468657243415420536c61768d
:1017500065000000fc2700200400000001000000dc
:10176000312e3000e82700200600000001000000b4
:10177000332e302e3000000080270020140000009f
:101780000100000004000000d80400005292000094
:101790000100000001000000f0270020060000000a
:1017a00001000000040002010403000000280020e2
:1017b0000400000001000000891300003000002038
:1017c0000800000000000000f627002002000000d2
:1017d00000000000b227002002000000000000000e
:1017e00036280020010000000000000034280020fe
:1017f0000200000000000000372800200100000067
:101800000000000038280020010000000000000057
:1018100038000020c400000000000000fc00002090
:10182000040000000000000000010020160000007d
:101830000000000039280020010000000000000026
:10184000042800200400000000000000180100200f
:1018500052000000000000006c0100202800000081
:10186000000000009401002094000000000000002f
:10187000a42700200d0000000100000053756249fc
:101880006e6465782030303000000000b4270020fe
:101890000c00000001000000020000000100000038
:1018a00004000000280200208e000000000000005c
:1018b0003a28002001000000000000003b28002022
:1018c00001000000000000000828002004000000c3
:1018d000000000000c2800200400000000000000b0
:1018e0001028002004000000000000001428002040
:1018f0000400000000000000c827002008000000cd
:10190000010000000100000000000000d0270020be
:10191000080000000100000001000000200100603c
:10192000d82700200800000001000000010000008e
:1019300000000000e0270020080000000100000077
:101940000100000020011070182800200400000091
:1019500001000000e80300001c2800200400000033
:1019600001000000010001162028002004000000f2
:10197000010000000100001ab80200202020000031
:10198000000000003c2800200100000000000000d2
:10199000d82200204d000000000000002823002075
:1019a000c000000000000000e82300200800000044
:1019b000000000003d2800200100000000000000a1
:1019c00094270020100000000000000024280020c0
:1019d000040000000000000028280020040000008f
:1019e000000000002c28002004000000010000007e
:1019f000ec260020ec260020600000000100000022
:101a000000000000000000000000000000000000d6
:101a100000000000000000000000000000000000c6
:101a200000000000000000000000000000000000b6
:101a300000000000000000000000000000000000a6
:101a40000000000000000000000000000000000096
:101a50000000000000000000000000000000000086
:101a6000f0230020040000000000000030280020c7
:101a70000400000000000000000000000000000062
:020000040000fa
:101a8000f0b585b00023029301939a4a94899a4a4b
:101a900095899a4a13809a4a1370022005f010fe25
:101aa0000268984b1a80436803f00203002b0cbfb6
:101ab00003260126032005f003fe0368924a1380e3
:101ac000426802f00202002a0cbf032201229bb2ec
:101ad0008e49088800fb02328d4909888a420bdd55
:101ae0008c4f3f880f44bb4206da0221032002f0ec
:101af000f5fd1e2005b0f0bd874f3f88ba4204ddda
:101b0000864a12883a449342efdb7e4ab2f800e0fc
:101b1000834a128806fb02e6b1420ada7d4a12883d
:101b200011448e4505da0221084602f0d7fd1d203a
:101b3000e0e7b74204da794a12881744be45f2db7f
:101b4000b34202da03449e45eddb04224ff41861f0
:101b500003a803f0d5f9bdf80c30039304224ff429
:101b60001a6102a803f0ccf9042240f6a4110deb8f
:101b7000020003f0c5f9019e5e4b59885e4b5a88fe
:101b8000039b13f4106f00f0748113f4007f01d1f4
:101b90003020afe72c400bd014f0040f00f0598137
:101ba00014f0080f04d113f4806f01d03020a1e7a6
:101bb000029850b14f4d2d69854201d9362099e7e1
:101bc000584da84201d9362094e703f4c065b5f515
:101bd000c06f10d05448007800bb514a11880029ca
:101be00052d14a4a1488002c00f0b88113f4806f57
:101bf0005dd102224be1002eecd08642c0f037814d
:101c000014f0100f01d1302074e70120464c2478e5
:101c1000002ce2d013f4806f04d038e113f4806f0d
:101c20000ad10020032900f01a81032a00f019814b
:101c300013f4007f04d03be013f4007f30d1002088
:101c4000022900f01081022a00f00f81032900f020
:101c500021810c460ee0324b1c8834b12b4b1a8884
:101c6000002a40f03281012404e0284b1a88003217
:101c700018bf01222d4b1b78002b40f07581002ce2
:101c800040f01481292035e7002840f013811f4ad5
:101c900012887ab113f4806f04d10222114607e052
:101ca0000020f4e003220221f1e00322f2e003220b
:101cb000022908d1029b0f494b624b600e494b62cf
:101cc0004b600224eee00c46d4e70120184a108055
:101cd000b1fbf3f082b2174c228003fb1013002bf0
:101ce00000f0c8810132134b1a80c3e10121104b6f
:101cf0001980bae16c020020280200203601002081
:101d0000540100202c010020680100204e01002019
:101d1000160200200c020020040200201e020020f7
:101d200020010020000050c3b00200201801002054
:101d3000500100204a01002004a8002340f8103d73
:101d400004224ff4806103f0dbf8009b9ab2cab121
:101d50000232a3b246f2a71102fb0313db08904a3a
:101d6000a2fb03231b0a8f4a138000228e4b1a808a
:101d70008c4b1b88002b00f093818c4b1b782bb96c
:101d80001f20b7e60022874b1a80eee7884b1b78ae
:101d90003bb1884b1b8823b1874a138843f4806387
:101da00013800023854a1380854a1380854a138057
:101db000854a1380854a1370854a1370854a1380bb
:101dc000854a1385538582f84030844a13855385ac
:101dd00082f84030039a12f4007f18d0029900294b
:101de00000f0a3804b097e48a0fb0303db09042b12
:101df00017d80120714b188012f4806f07d0019b17
:101e0000994240f297806d4b1a886f4b1a80694b4c
:101e10001b88b3b9734b1b88bbb904f063fb00206c
:101e200068e65b009bb27048a0fb0303db086348d5
:101e30000380e1e75b000a22b3fbf2f3624a1380fe
:101e400084e0022005f038f9e4e7032005f034f9d6
:101e5000e3e730204ee630204ce630204ae63020e2
:101e600048e6302046e6302044e6302042e60020b6
:101e7000cce65e4b187800283ff4edae8b1e9bb28b
:101e8000012be8d9931e9bb2012be6d90020032930
:101e90007ff40eaf029b51494b624b604e494b623f
:101ea0004b600324524b1b78002b60d1002a5ed17b
:101eb00029201fe64b4a1288002aebd013f4806fca
:101ec0007ff4f3ae02220321e1e722220124d1e6ce
:101ed000374b1b78002b40f0978000233f494b8005
:101ee0003d494b8043490b8043490b8043490b805c
:101ef00043490b80012840f0b880029bf1189e42b4
:101f0000fff4e3aeb1fbf3f082b203fb10134bb965
:101f1000511c3a4b1980374b1a80abe00121394be9
:101f200019708ce0354b1a80dce612f4806f3ff4b8
:101f30006eaf019b0b445b09294aa2fb0323db091b
:101f4000042b3ff677af01221f4b1a801e4a1b4b12
:101f50001988138803eb5103138058e7244b1b782f
:101f60000bb92920c6e522460cb9002ab0d00121c0
:101f70000f4b19700f4b1b88002b4ad04ff4806118
:101f80000d4b1980a31e9bb2012b4ed801211d4b76
:101f9000197057e04ff48061074b1980144644e0f4
:101fa00089b5f8145e0100201c01002062010020a8
:101fb0006101002020010020360100202e010020b8
:101fc000240100205c0100203401002038010020a1
:101fd0005501002032010020280200206c02002060
:101fe000c55a7c0a4e010020cdccccccb0020020da
:101ff000180100204a010020280100205001002083
:102000006401002059010020294b1c88002cc1d1fb
:102010002246284b1b881bb14ff40061264b1980c8
:10202000a31e9bb2012b7ff679af931e9bb2012baf
:1020300008d80121214b19701d4b1b8813b90021b1
:102040001d4b19801e4b5c801e4b5a8000231e497d
:102050000b801e490b801e490b801e490b800128f6
:102060003ff44baf022c3ff441ae032a02d00122d1
:10207000154b1a800023184a138004a840f8103d1d
:1020800004224ff4846102f03bff009c084b1b8844
:102090001bb1a3b2002b7ff44fae00220f4b1a806e
:1020a0000f4b1b78002b3ff471ae1f2022e500bfc1
:1020b000200100204e01002036010020590100209f
:1020c0006c020020280200204a0100202801002084
:1020d0005001002064010020b40200205e010020b5
:0420e0006201002079
:020000040000fa
:1020e4002de9f04f8bb004900c4616461d46ddf8e2
:1020f40050809df854b01ffa81fa9b89c3f30322e0
:102104000692dbb20593072a00f03e821946ab69ba
:1021140093f80090b9f1000f40f04182a0f5e0532c
:10212400103b9bb21f2b40f23882a0f5b0539bb2f8
:10213400b3f5007fc0f04082a0f5d0539bb2b3f555
:10214400007fc0f03c824ff23003984208bf8946ba
:1021540025e2f4b90eb198f80090079439e02146cd
:10216400284605f065f98288b24b1b7803f00e030c
:1021740013eaa2030bd112f0380f02d01a230393ef
:1021840016e2002a0cbf05230723039310e25cb375
:10219400d1460499a1f5e053103b9bb21f2b12d9f1
:1021a400a1f5b0539bb2b3f5007f0cd3a1f5d05386
:1021b4009bb2b3f5007f06d34ff23003994202d0ad
:1021c4000023079305e0ab691b78003318bf012394
:1021d40007932f6a5fb1cdf800b0434632462146db
:1021e4000498b8470390e3e1d1460794f1e7002e41
:1021f40000f0a081ca4500f2a0815446072303934e
:1022040000230893049ba3f5e053103b9bb209936e
:1022140031e1102a40d0202a40f05c8110f00f0fe9
:1022240040f0a081079b5bb13288b8f800309a4235
:1022340040f09b817288b8f802309a4240f098814d
:10224400b8f800303380b8f80230738008f104081d
:10225400012308930be1022b17d8002b40f0918047
:10226400bbf1000f00f06f817b8813f00f0f05d0d6
:10227400184410f00f0f08bf08f10208c3f303134a
:1022840008eb430801230893f1e0032b04d0042b4b
:10229400c4d073e0072bc1d210f00f0f40f0598166
:1022a400b8f80070079b1bb13388bb4240f05481df
:1022b400099b1f2b0ed8a7f5b0539bb2b3f5007f33
:1022c40008d3a7f5d0539bb2b3f5007f02d3002ff8
:1022d40040f04581049ba3f5e153123b9bb2012bd3
:1022e4007bd9378008f1020801230893bfe00b2b48
:1022f4002bd943e02d2b44d021d81e2b41d018d804
:10230400152b01d01b2b39d110f00f0f40f0338166
:10231400b8f800303380b8f802307380b8f804306d
:10232400b380b8f80630f38008f108080123089355
:102334009de01f2bb0d0202b3ff470af1ee0372b55
:1023440015d9a3f51873032b18d810f00f0f40f00c
:1023540018817a880732d2104146304605f0fcf9dc
:102364007b881b0908eb4308012308937fe0302b8b
:1023740007d22e2b90d02f2b3ff450af182303936a
:1023840016e17a882c4b33f8122000f00f0e02fa73
:102394000ef1338823ea01031bb2bbf1000f10d006
:1023a400b8f8002011400b439bb233807b8818445b
:1023b40010f00f0f40f0b48008f1020801230893d5
:1023c40055e0b8f8001031ea020c40f0bf800a4032
:1023d40002fa0ef213439bb2e7e7012c1bd0082c40
:1023e4007ff47faf154a002353611549116153608f
:1023f400144a53611161536017f0020f3ff471af37
:102404000e4a5385138582f840300e4a538513854e
:1024140082f8403065e73388bb4207d039460498d8
:1024240001f00efc0390002840f0c2800122064b0c
:102434001a7056e71f010020187500006c02002076
:10244400a086010028020020b0020020002c62d0e7
:102454007b8813f00f0f05d0184410f00f0f08bf3e
:1024640008f102081b0908eb4308182303930134fd
:10247400a4b24c4557d8e6b23146284604f0d8fffa
:1024840007462946304602f079fe584b1b7803f084
:102494000e03ba8813eaa203d8d0ae69002c00f068
:1024a4009180c0f30f1306eb4306a24507d0bbf19e
:1024b400000fdcd0a245dad8002c00f087803b88de
:1024c400b3f5e06f06d37a88082a3ff6a2ae02f18c
:1024d4002f039bb2112b3ff417af3ff60baf052b25
:1024e4003ff44faf7ff6b7ae082b7ff6d3ae092b80
:1024f4007ff4fdae10f00f0f40d17a880732d2106e
:102504004146304605f028f97b881b0908eb43084f
:1025140001230893abe708f1020818230393a6e705
:1025240001230893a3e7089b002b039b18bf0023f8
:1025340003933de0002303933ae00723039337e03a
:102544001323039334e01823039331e012230393fa
:102554002ee0052303932be01c23039328e012238e
:10256400039325e00523039322e01c2303931fe038
:102574001c2303931ce00523039319e00523039311
:1025840016e00523039313e0bbf1000f02d00523eb
:1025940003930de04ff0000905e0ddf81490bbf162
:1025a400000f7ff4d6adca457ff6d9ad112303934e
:1025b40003980bb0bde8f08fddf81490efe7ddf879
:1025c4001490ece7baf1000f7ff471af069b072b70
:1025d4003ff475afb8f80030dab205999142afd341
:1025e400338008f102080123089340e71f0100200b
:020000040000fa
:1025f4002de9f04f89b00590049115469946129c37
:102604009df84ca01ffa81fb9f89c7f30328ffb2f2
:10261400b8f1070f00f0bc81b0f5805fc0f0bf8156
:10262400d9f818301f78baf1000f1fd1bb4505d96e
:1026340011230293029809b0bde8f08f049948462b
:1026440004f0f6fe838813b905230293f2e79a4a4d
:10265400127802f00e0212ea430214d103f00703c7
:10266400002b0cbf06231a230293e3e70697d9f83d
:102674001c605eb1cdf800a023462a460499059853
:10268400b0470290d6e706975f46f0e7059bb3f59f
:10269400805f04d2049b93b902935e4605e05f45d4
:1026a4000ad35e46002302930493cdf81c80cdf830
:1026b4000c90ddf814901ee100230293bae7049e07
:1026c4003146484604f0b4fe43880733db109db21c
:1026d40006f1804b0bf1ff3bd9f8182052f82b1070
:1026e40011f0010f25d021f0010632466b0811d0fc
:1026f400013b9bb201335f00e01931460b881b0a92
:10270400238031f8022f43ea022324f8023ba0423b
:10271400f4d1f21915f0010f00f02581238803f498
:102724007f432380128843ea1223238000230293e9
:1027340080e70a8822804a8862809bb21a1f04318b
:10274400201d05f009f80023029373e7079b072b6c
:1027540000f04581bdf8183024f8023bc7e0bef113
:10276400100f31d0bef1200f40f04c8118f00f0f44
:1027740040f0028132f8103023804b8863800434a7
:1027840001230493b3e0022b15d8002b6ed1baf1c8
:10279400000f00f0eb806b8813f00f0f04d0984407
:1027a40018f00f0f08bf0234c3f3031304eb430400
:1027b400012304939be0032b06d0042bd6d01823cb
:1027c400029337e7072bd1d218f00f0f40f0d180d6
:1027d40032f8103024f8023b0123049387e00b2bda
:1027e400edd818f00f0f40f0cd806a880732d21070
:1027f400204604f0b1ff6b881a0904eb420413f07d
:102804000f0f00f0a38023782380012304936ee04c
:102814002d2b2bd01cd81e2b28d014d8152b01d02f
:102824001b2bccd118f00f0f40f0a98032f81030d8
:1028340023804b8863808b88a380cb88e380083413
:102844000123049353e01f2bbed0202b8ed0b6e778
:10285400372b04d9a3f51873032bc2d9afe7302b58
:1028640004d22e2bb0d02f2b80d0a8e708f00f0e67
:102874006b88124931f8133003fa0ef39bb232f825
:102884001020bef1000f01d1002020802088baf171
:10289400000f0bd01340034323806b88984418f037
:1028a4000f0f50d102340123049320e0134043fa64
:1028b4000ef303432380f0e71f0100201875000086
:1028c4006b8813f0f00f0ad00023194624f8021f76
:1028d4000133dbb26a88c2f303129342f6dbab889e
:1028e40003f00703002b0cbf06231a2302930136bf
:1028f400b6b2b74230d3002e58d0b9f5805f55d365
:10290400f5b20399284602f039fc8046294603981b
:1029140004f08efd0546504b1b7803f00e038288ad
:1029240013ea420351d118f00f0f00f092806b8824
:1029340013f00f0fc4d0984418f00f0fc0d1002328
:1029440063800234bce701230493d0e7012304939a
:10295400cde701230493cae7049b002b029b18bf15
:102964000023029366e60023029363e6182302938e
:1029740060e6052302935de6052302935ae60523e8
:10298400029357e60523029354e60523029351e686
:10299400baf1000f3ff44aae052302934ae6baf1b6
:1029a400000f3ff443ae0523029343e6f1b20398cc
:1029b40004f03efd0546284b1b7803f00e03828885
:1029c40013ea420343d04ff00008b34504d0baf1f0
:1029d400000f8cd0b3458ad8002e3ff4b7ae039bca
:1029e4009a69c8f30f1002eb40012b88b3f5e06f2e
:1029f40008d3b5f802e0bef1080f3ff6b0ae0ef111
:102a04002f039bb2112b3ff40daf3ff601af052b03
:102a14003ff42caf7ff6b7ae082b7ff6d3ae092b6d
:102a24007ff4ddae18f00f0fafd16a880732d210f1
:102a3400204604f091fe6b881a0904eb420413f05b
:102a44000f0f86d023782380012304934fe74ff0a0
:0c2a54000008002323806ae71f01002017
:020000040000fa
:102a600038b50188052902d80623184638bd044622
:102a7000063989b2c388013b052b00f20e81dfe8dd
:102a800003f00339506eb8c7a84b1b8813b148f246
:102a900004036fe00c306289238943ea0243024653
:102aa00004f07cfc03460021a14a116047f69572b0
:102ab000904205d801219f4a11609f4a1060bce0f6
:102ac00047f6fa72904200f2f080002299490a60bb
:102ad00099490a600121954a118000220621a171bd
:102ae000e271a3f5ff43163b2381a272e2722170cb
:102af0006270b6e08d4b1b8813b148f2040339e0d5
:102b00004289038943ea02420c3004f003fe031eab
:102b100047f6fd72002808bf13460021854a116060
:102b200087e0824b1b8823f004039bb2022b02d068
:102b300048f204031ee04289038943ea02437d4ac6
:102b40001268934202d048f2050313e00c3004f0ff
:102b5000cff9034600286cd147f6fd73ace0734b08
:102b60001a88012a30d047f6fe7348f20401042a7d
:102b700018bf0b4613f4004f00f0b580002205216a
:102b8000a171e2712381a272e27206232370627046
:102b900004f10c01a38913f0ff0f00f0c28013f4bd
:102ba0007f4f00f0c08002235a0831f8122012f043
:102bb000ff0f00f0a48012f47f4f00f09c800233de
:102bc000dbb2202bf0d19ce05b4d00f10c012868ba
:102bd00004f082fc03462a6855490a6047f695715d
:102be00088425dd802442a6052490a6801320a606c
:102bf00023e04e4b1b8813b948f20403bae740891f
:102c0000238943ea004004f0c3fe47f6ff73b1e7af
:102c1000464b1b88012b04d0042b02d048f204033e
:102c2000a8e704f10c02424b1968208904f02eff3a
:102c3000034647f69572934232d83e4a1268032102
:102c4000a1710021e1712281120c62819a1d228002
:102c50003a4a12880c3a93420cbf01220422334ba9
:102c60001a80374b1d78002d4fd0a388c3f30b0378
:102c7000a380344a127812f0070f02d10121314aa1
:102c8000117030490a7843ea0233a38001320a7096
:102c9000204602f0abfb0023e7e648f20403c8e756
:102ca00047f6fa7293427ff618afa3f5ff427c3adb
:102cb00092b2012a3ff65eaf1e490a68501c0860b6
:102cc00000210420a071e1712281120c6281062290
:102cd0002270617047f6fd7293420cbf02220022ff
:102ce000124b1a80bde70025104b1d80204604f0d2
:102cf0005ffe2b46b9e60133dbb21f2b01d8073349
:102d000023800022094b1a80abe74021204603f0c4
:102d100095f9034600283ff4a8ae0b4b1c602b46e8
:102d2000a3e60023ebe70123e9e700bf040100204d
:102d30001001002008010020000100200c020020ea
:0c2d400058010020940100200c0100202c
:020000040000fa
:102d4c00f0b585b0044600238df80f30058905f0e9
:102d5c007f05052d06d00388072b09d806231846b6
:102d6c0005b0f0bd0388092b00f2a4800623f6e71a
:102d7c00032d00f09f80052d00f09c80012d21d0ab
:102d8c0003238df80f309df80f1000220a232370b7
:102d9c006270238923f07f0343f007032381a2721f
:102dac00e272914b53f82130e360904b1a80022170
:102dbc00204603f03df903460028d0d08c4b1c6014
:102dcc000023cce78389052b01d90221f0e7894d3b
:102ddc0000686168a26807c5a2892a8013f0ff0306
:102dec000ed10025814b1d8004f10c06e8b203f0d6
:102dfc005ffd26f8020f0135052df7d1122322e0d5
:102e0c00013bddb2794b1988002934d07a4b1a88f2
:102e1c000c3a92b204f10c0378480088adf80c001f
:102e2c000139724801800df10f01009103a9284668
:102e3c0002f0d8febdf80c20704b1a806e4b1b882c
:102e4c00063b1b1a9bb223809df80f30002b9ad1a6
:102e5c00238923f07f0242f002022281634a128806
:102e6c006281002a00f0bd8023f0ff0343f082034f
:102e7c00238182219ce7284603f01afd4ff48053ee
:102e8c00adf80c305c4b1988a1f10e0292b204f132
:102e9c000e034000904209dd0c398eb2811a701e6f
:102eac00014491fbf6f151480180bce700204f49e9
:102ebc000880b8e7a38998b2adf80c30b0f5805f04
:102ecc0003d205238df80f305de704f00ffb0746a6
:102edc00002800f08280032d0bd0e689f6b204f0b6
:102eec002bfe4388dbb29e4234d911218df80f1092
:102efc004be704f021fe0368c4f80e3000233a4679
:102f0c001946bdf80c0001f037fe00f10c0292b22c
:102f1c00394b1b88063b9a4210dd0c229df80f3072
:102f2c00002b7ff430afa372e3722280238923f04d
:102f3c007f0301351d432581022139e704f112037a
:102f4c003a460021bdf80c0001f016fe00f10c020f
:102f5c0092b2e3e73146384604f066fa036823611f
:102f6c008388a382e389dbb2e381384604f0e4fd75
:102f7c004388c3f30323083b9bb2012b10d90023d6
:102f8c003a463146bdf80c0001f0f6fd00f1100296
:102f9c0092b2194b1b88063b9a4212dd1022bde7f8
:102fac00002eecd1164a166850689168c4f8166069
:102fbc00c4f81a00c4f81e10127b84f822201c22bc
:102fcc00ace704f116033a463146bdf80c0001f0ab
:102fdc00d3fd00f1100292b2a0e708238df80f3058
:102fec00d1e60221e4e600bf4c660000f822002086
:102ffc00fc0000200c2300200c020020d822002012
:04300c00a4270020d5
:020000040000fa
:1030100038b5824b1b78002b5fd0814bb3f9003061
:10302000002b4ed17f4b1b88c3f30714242b2bd0ce
:1030300010d8123b012b00f2ca807b4b1b7803b3e4
:1030400000f02cff794b1b78002b00f0e280784bce
:103050001d88bde0482b40f0ba80764b1b781bb32f
:10306000754b1b78002b00f0bd80744b1b78002b38
:1030700040f0cb80724b1b88002b0cbf1a251b2500
:10308000b1e004f02dfddbe7674b1b784bb101f09d
:10309000c9fe664b1b78002b00f0bd80644b1d8879
:1030a00096e004f055fdf2e7654b1d88002d40f0d9
:1030b000ae800122634b1a7008248be004f04cfdb3
:1030c00096e0584b1b88242b47d007d8123b012b86
:1030d00000f28580544b1b7823bb38bd482b7ed132
:1030e000514b1b78002bf8d0524b1b78002b55d03e
:1030f000554bb3f90030002befdd544ab2f90020f4
:103100009a42eadb0023504a1380504a1380464a11
:10311000137004f01ffd002839d10122494b1a70a9
:10312000082429e00022404b1a7004f00dfd0546ea
:1031300060b90122464b1a703a4b1c7814f00f0408
:1031400003d00022354b1a705ae038bdff28c4d096
:1031500004f0c6fc00f0a2fe38bd334b1b78002bf8
:10316000bbd00022304b1a703a4804f0effc38b95b
:103170000122394b1a7004240025284b1d703fe0b2
:10318000ff28aad004f0e4fc01f04cfe38bdff2873
:10319000a3d004f0e1fc04f03dfb38bd284b1b88b4
:1031a0001bb1264b1b78002b97d000221e4b1a70a8
:1031b00004f0d0fc20b90122224b1a700824dbe76e
:1031c000ff288ad004f0c8fc04f024fb38bd002599
:1031d000002c82d00022114b1a708db10ee0002518
:1031e0002c46f5e72d25104b1b78002b3ff466afde
:1031f00004f010fb8cb10022084b1a7044f010044c
:103200002946204602f0f4fb38bd1a25ebe71b25c2
:10321000e9e70125eee70125ece738bd4c01002088
:10322000560100201a0100201e0100202601002066
:103230002201002059010020380100205401002003
:10324000200100205a010020320100202a01002024
:0c32500002020020360100206001002076
:020000040000fa
:10325c00854b1a8841f6fe739a4201d814207047a8
:10326c0070b50446002004f025fa436813f4803f3f
:10327c0000f0f18003f00c02042a01d0162070bd7e
:10328c0013f0020f00f0e9800268130c223b9bb292
:10329c00de2b00f2e480a2f580539bb2b3f5805f85
:1032ac0080f0df80012004f005fa436813f4803fbe
:1032bc0000f0cf8013f00c0f40f0c38013f0020f1e
:1032cc0000f0c1800268130c223b9bb2de2b00f293
:1032dc00bc80a2f580539bb2b3f5805f80f0b780c1
:1032ec00032c14d8022c51d8604b1b78a34240f20b
:1032fc0094805f4e5d4d204604f0dcf943683360ea
:10330c000134e4b22b78a342f5d8002070bd012221
:10331c00584b1a70032004f0cdf903681a0c40685e
:10332c0010f4803f2ad0002a79d0534909888a4268
:10333c0005d00321032001f0cbf91e2070bd00291c
:10334c006fd0442a6fd810f00c0f6ed19bb24b4a41
:10335c001178022905d04a4a12889a4207d00221d4
:10336c00e8e7a3f580539bb2b3f5805fe2d210f08f
:10337c00020fb7d000223f4b1a70b3e7002a56d188
:10338c003d4b1b88002badd00321d3e7022004f06a
:10339c0091f903681a0c406810f4803f35d0002a6c
:1033ac0047d0384909888a4205d00321022001f010
:1033bc008ff91d2070bd00293dd0442a3dd800f066
:1033cc000c02042a01d00421f0e79bb22b4a11789d
:1033dc00022914d1a3f580539bb2b3f5805fe5d2db
:1033ec0010f0400f14bf01220022274b1a7010f06e
:1033fc00020f3ff479af00221e4b1a7074e7234a78
:10340c0012889a42ecd00221d0e7c2b91d4b1b881e
:10341c00002b3ff469af0321c8e7002070bd0421e5
:10342c0088e7032186e7032184e7042182e703214f
:10343c0080e70421bae70321b8e70321b6e70321ab
:10344c00b4e7162070bd162070bd162070bd162076
:10345c0070bd162070bd162070bd162070bd1620d4
:10346c0070bd162070bd00bf520100206601002007
:10347c0004280020180100204e0100201f0100200c
:10348c006801002020010020620100202c01002096
:020000040000fa
:10349c0010b56e4b1978c9b96d4a138801339bb2bc
:1034ac001380322b05d0642b03d0962b01d0c82b64
:1034bc0012d1684a127802f00f02013a072a4dd84d
:1034cc00dfe802f0113b473f4c4c4c430122624b6e
:1034dc001a700022614b1a70604b19785e4b187889
:1034ec0004f074f810bd00205d4a1070c82b39d060
:1034fc005c4b1b7813f0200feed013f01f0202d0a0
:10350c0051000139c9b2584a12789a4276d013f058
:10351c00800f14bf00220122504b1a700122534b12
:10352c001a80504b1a78504b1a70494b1b88c82b79
:10353c00d2d10022464b1a80cee74020484a107068
:10354c00d4e74120464a1070d0e70120444a10705d
:10355c00cce76023424a13700a460de00020404a33
:10356c001070c3e73e4b1b7813f01f021dbf5200b7
:10357c0002f1ff32d2b20a463d480078984217d089
:10358c0013f0800f14bf00220122334b1a7001225a
:10359c00384b1a80324b1a78354b1a70314b1b78da
:1035ac0013f0200fa9d12a4a1288c82aa5d093e774
:1035bc0010f0400f1dd0284c2378b3fa83f35b092d
:1035cc002370002ae6d02b4c238801339bb2238036
:1035dc0094b2a342ded910f0800f14bf0124002452
:1035ec001d48047005329342d4db0022214b1a8013
:1035fc00d0e700f00100184b1870cbe713f0400f28
:10360c001fd016480278b2fa82f2520902700029d1
:10361c0087d016480288013292b2028088b2824268
:10362c007ff67faf13f0800f14bf012000200b4bef
:10363c00187005318a42fff674af00220b4b1a80ca
:10364c006fe703f00103054a13706ae75a01002083
:10365c00342800201f010020ec000020a0000020d6
:10366c00300100206701002037280020f6270020b9
:08367c0038280020b2270020cd
:020000040000fa
:103684002de9f04784b08246914600238df80b3033
:103694000193009301f0030702f003063e4416f081
:1036a400030f04d0331d03f00c039e1bf6b209eb89
:1036b40007043444a4b27f2c06d9e3b243f0800358
:1036c400640004f4fe441c43adf80c10adf80e90f5
:1036d400042203a94ff4427002f080fd4ff000432e
:1036e4000393042203a94ff4437002f077fd04f01e
:1036f40007f90b238df8043000238df805300423db
:103704008df806304d4d6b68db6898470028fad178
:103714004a4b5b681d6803236a46194601a8a847fb
:1037240004f0a8f8454d6b68db6898470028fad187
:10373400434b9df801201a709df802205a7004a88a
:1037440000f8064d3d4b5b685b680121984704f027
:1037540091f83a4d6b68db6898470028fad1b9f1c3
:103764007f0f13d8354b5b685b6801210df10b00ab
:10377400984704f07ff8314c6368db689847002869
:10378400fad100252d4c4ff001081fe0240a04a8ab
:1037940000f8064d294b5b685b680121984704f0eb
:1037a40069f8264c6368db6898470028fad1d9e7a2
:1037b40063689b6841460df10b00984704f05af882
:1037c4006368db6898470028fad10135bd42efd120
:1037d40009f1ff339bb2b9f1000f16d00af1ff359e
:1037e4009a44164c012763689b6839466846984793
:1037f40004f040f86368db6898470028fad19df824
:10380400003005f8013faa45edd100250b4c0127f6
:103814000de063689b6839460df10b00984704f08e
:1038240029f86368db6898470028fad10135b54266
:10383400efd104f05bf804b0bde8f08794270020d2
:04384400040000205c
:020000040000fa
:1038480010b5564a536803f47063d26912f0010f39
:1038580031d0524ad06852494a69c9688a422ad244
:103868006bb94f4b5968541c5c6188544b4bdb69ee
:1038780013f0020f3fd00222484b5a6125e0484b13
:103888005968541c5c6121f81200444bdb6913f041
:10389800020f30d00222414b5a61414a9369926823
:1038a800934246d23e4a1168581c906131f8132061
:1038b8003a4b1a6115e0394ad26912f0020f1ad050
:1038c8000221364a5161002be7d1354a9369926843
:1038d800934222d2324a1168581c9061ca5c2f4b1d
:1038e8001a612f4b9a699b689a422ed02c4b5a69c1
:1038f800db689a4234d02b4b1b78002b47d0274be0
:10390800db6913f0040f04d0254b5a69db689a422f
:103918002cd00422214b9a6110bd214b1b69002b2e
:1039280036d0ff221d4b1a611d4a1369013b1361f2
:10393800d7e71b4b1b69002b2ad0ff22174b1a61b4
:10394800174a1369013b1361cbe7154b1b69002b21
:10395800ccd10122134b1a70134a104b1a60cae7d4
:103968000e4b01225a6102229a61c4e70c4b0022d5
:103978001a770720094948610a490a701b6a33b156
:10398800074a506a9847074b1b78002bc1d110bdd6
:10399800034b9a699b689a42a8d1dae7003400423f
:0c39a80008000020b127002002000001f0
:020000040000fa
:1039b40030b583b04ff48033019302f009fe494bd4
:1039c4001b78002b39d102f049ff044610f0010f97
:1039d4004cd0454b1b78002b37d010f0100f5dd125
:1039e400414b1b78002b59d13e4b1b781bb3019bd9
:1039f40013f4803f55d014f4007f5ad1019b13f483
:103a0400003f61d0394b1b7883b902f0c9fe374bb4
:103a14001b78002b5dd0019b43f0007301930422bb
:103a240040f60c010deb020002f036f802f016ff2e
:103a340010f4807f52d103b030bd042240f60c0153
:103a44000deb020001f05afabde7002502a840f888
:103a5400085d04224ff4907101f050fa24f011042f
:103a6400a4b229469df80000fcf708fc14f0100fde
:103a7400b6d01d4b1b788bb91d4b187810f0100f66
:103a8400b2d120f01003012baed024f01004a4b264
:103a9400002100f00f00fcf7f1fba1e7fff7b6faf5
:103aa400a2e7134b1878002100f00f00fcf7e6fba7
:103ab400a1e710480023036004220f4b198801f08a
:103ac400ebff01f0c1fd99e7084b1b78002badd04b
:103ad4009be7019b23f000730193a0e700f07efdb8
:103ae400a9e700bf020200204c01002020020020b0
:0c3af4001f0100203c01002016020020f1
:020000040000fa
:103b00002de9f04784b082460f46914600238df898
:103b10000b3001930093adf80c10adf80e20042289
:103b200003a94ff4447002f05bfb4ff00043039392
:103b3000042203a94ff4457002f052fb07f003077b
:103b400007eb090616f003061cbfc6f10406f6b221
:103b500003f0d8fe02238df8043000238df80530e1
:103b600020238df80630354c6368db6898470028c1
:103b7000fad1324b5b681c6803236a46194601a8d8
:103b8000a04703f079fe2d4c6368db689847002856
:103b9000fad12b4b9df801201a709df802205a7023
:103ba0000025264c4ff001080de063685b68414634
:103bb0000df10b00984703f05ffe6368db689847e0
:103bc0000028fad10135bd42efd109f1ff339bb294
:103bd000b9f1000f16d00af1ff359a44174c0127ae
:103be00015f8013f8df8043063685b68394601a819
:103bf000984703f041fe6368db6898470028fad1d4
:103c00005545edd100250d4c012710e09df80b30f6
:103c10008df8043063685b68394601a8984703f063
:103c20002bfe6368db6898470028fad10135b5425e
:103c3000ecd103f05dfe04b0bde8f08794270020ce
:043c4000040000205c
:020000040000fa
:103c4400222913d8dfe801f086144e6a12121212e8
:103c54001212121212121212121212121212121240
:103c6400121212121212121212123c001220704777
:103c740041f63243984205d041f6334398420ed080
:103c840012207047374b1b88002b65d0364b9b891d
:103c940003f00203002bd4bf122000207047334be3
:103ca4009b8913f0020f59d02e4b1b880bb11220a5
:103cb40070472f4b1b88002b0cbf1220002070472d
:103cc40041f63343984201d012207047274b9b8919
:103cd40013f0020f44d0234b1b88002b0cbf12207f
:103ce4000020704741f63243984205d041f63343f1
:103cf40098420ad0122070471b4b9b8903f004039f
:103d0400002bd4bf122000207047184b9b8903f06e
:103d14000403002bd4bf12200020704741f6324325
:103d2400984205d041f6334398420ad01220704796
:103d34000d4b9b8903f00803002bd4bf12200020f5
:103d440070470a4b9b8903f00803002bd4bf122051
:103d540000207047002070471220704712207047df
:103d640012207047200100206c020020280200204d
:043d74004e010020dc
:020000040000fa
:103d780030b583b002a8002340f8043d0422114660
:103d880001f0baf8019b2a4c1a0a22701b0c9b02fc
:103d980003f6ff73274a138003f0d8f923784bb151
:103da8000024234d204603f04df90134e4b22b786a
:103db800a342f7d801f0b0fa00241f4b1c701f4b28
:103dc8001c701f4b1c701f4b1c701f4b1c701f4b13
:103dd8001c701f4b1c701f4b1c801f4b1c801f4be3
:103de8001c801f4b1c801f4b1c801f4b1c801f4bb3
:103df8001c701f4b1c701f4b1c801f4b1c801f4bc3
:103e08001c801f4b1c8001201e4b1870214601f09e
:103e1800ebfd1d4b1c801d4b1c701d4b1c7003f0d3
:103e280061f903f0e9fc204603f0d4f803b030bd93
:103e38006601002052010020580100201e010020c8
:103e48004c010020540100205a010020600100208c
:103e5800620100205e0100201c01002024010020d6
:103e68002e0100205c0100203401002059010020af
:103e78002601002022010020360100202001002018
:103e88004e0100201f0100201a01002067010020b8
:043e980061010020a4
:020000040000fa
:103e9c0030b583b00020364b187003f0d1f80120f8
:103eac0003f0cef8334b1868002853d003f07afd9a
:103ebc00314b186828b12f4b1b68984201d003f086
:103ecc0071fd2e4b186848b12a4b1b68984205d0df
:103edc00294b1b68834201d003f064fd01f0d6fe30
:103eec0003f0ccfb0024264b1c60224b1c60234ba4
:103efc001c60214b1c60234b1c7002ad45f8044d1b
:103f0c00042240f60c01284600f0f4ff019b23f03c
:103f1c0000730193042240f60c01284601f0b8fd11
:103f2c00194b1c70194b1c70194b1c70194b1c70c5
:103f3c00194b1c70194c204603f03efa10b103f0db
:103f4c0031fdf8e7164c204603f036fa58b103f071
:103f5c0029fdf8e7084b18680028b0d1074b186802
:103f6c000028b5d1bae703f0bbf803b030bd00bff1
:103f7c00020200202402002008020020100200206f
:103f8c001802002020020020010200201402002050
:103f9c001d0200201c02002094010020cc010020f6
:043fac009801002058
:020000040000fa
:103fb00030b40c46002933d0002831d03e49097f67
:103fc000002977d13c4908604a6000254d618d6128
:103fd0000d6139498c60002a37d0374ad360364aa0
:103fe000012111773549c968d1689268914202d997
:103ff0008c1a314d2c61314c646814f4706f34d1db
:10400000002a26d001782d4a11612b498a69013294
:104010008a61002b43dd0120284b986130bc70473a
:10402000002b41d0002a41d02349097f00293fd1ec
:10403000214908604a6000254d618d610d610028ad
:10404000c7d100211c4a9160c7e700211a4ad160fc
:10405000c5e7194a1269002adbd0ff21174a11610e
:1040600015490a69013a0a61d3e75208124ca26065
:1040700025696d0825614908e16032b101880f4a60
:104080001161a2690132a261c3e7002dc1d0ff21f5
:104090000a4a116108490a69013a0a61b9e702222c
:1040a000064b9a610120b9e70020b7e70020b5e789
:1040b0000020b3e70020b1e70800002000340042f0
:020000040000fa
:1040c00038b5364b1b7813b902f026fc38bd02f028
:1040d000a3fc10f4806f1dd0314b1b782bb1314bfa
:1040e0001b7813b10022304b1a80304b1b8d13b15b
:1040f000013b2e4a13852d4b1a8d2d4b1a8501221b
:104100002c4b1a7000222c4b1a802c4b1b7863b35b
:1041100001f000ff254b5b88012b38d0284b1b7822
:104120002bb1234b5b88012b34d0222b32d002f0f1
:1041300073fc10f4806fc7d01c4a538d01339bb2bf
:1041400053851b4a53851f4d1f4c04222988204646
:1041500003f07efb29881d4b1b8819440439042277
:1041600089b2204603f074fbaee7164d164c0422cc
:104170002988204603f06cfb2988144b1b881944be
:104180000439042289b2204603f062fbc2e702f040
:1041900079ffc3e702f0a6f9c9e700bf610100207b
:1041a0003801002059010020640100206c02002029
:1041b00028020020540100201c0100205a01002088
:1041c000600100202c0100203c0100202001002083
:020000040000fa
:1041d00008b50022344b1a80344b1b78002b3dd09d
:1041e000334b1b781bb1334a138801331380324b96
:1041f0001b883bb3314a128893421dd2304b1b8837
:10420000002b2ed02f4b1b8d2f4a12899a4219d387
:1042100003332c4a138515e00023284a13802b4ac8
:1042200013850fe002f05ef9294b1b88012b15d195
:104230000022204b1a8011e0214b1b880bb3013266
:104240001e4b1a8002f01eff194b1b7833b1204b16
:104250001b881bb1174a12889a42e3d002f05cfb1c
:1042600008bd1c4a1288002aecd0002bead1174b5b
:104270001b8d154a12899a4207d30333134a1385bb
:1042800003e0144b1b88002bd9d002f0c5fb10f4bf
:10429000006fc1d1094b1b88074a12889a42d1d3bb
:1042a0000133064a1380cde7240100205901002084
:1042b000600100202801002050010020640100203e
:1042c000200100206c020020b427002028020020da
:0842d0004a0100204e0100200c
:020000040000fa
:1042d8002de9f04f83b0009001913d4b1d88002dd2
:1042e80068d04ff000094d469a464ff0010b07e0a1
:1042f80009f101091ffa89f9baf800304b4559d973
:104308000aeb4903588803f0f3f80646002840d022
:1043180083691f88002febd00137bfb25c46d6f8ff
:1043280018803146e0b200f027ffc0f30e1018f8ed
:1043380010302b449db20134a4b2bc42efd1d7e770
:104348000af1010a1ffa8afabbf8003053451ed950
:104358000beb4a03588803f0cbf8064638b3836959
:104368001f88002fecd00137bfb20124d6f818906f
:104378003146e0b200f000ffc0f30e1019f810301b
:104388001d44adb20134a4b2bc42efd1d8e700203d
:1043980003e04ff0000845462520eb1ddb10009a8e
:1043a8001380019ba3f8008003b0bde8f08f0025bf
:1043b8002420f2e7ec1dc4f3cf08064b188828b177
:1043c8004ff0000a5546dff80cb0c1e70546e4e7b0
:0843d8001c2800202028002011
:020000040000fa
:1043e000534d206f757470757420706172616d65c6
:1043f0007465720053796e6368726f6e697a617466
:10440000696f6e2054797065004379636c65205440
:10441000696d65000053796e6368726f6e697a61c9
:1044200074696f6e20547970657320737570706f46
:1044300072746564004d696e696d756d20437963b2
:104440006c652054696d650043616c6320616e6426
:1044500020436f70792054696d65000047657420b2
:104460004379636c652054696d650044656c6179be
:104470002054696d650053796e6330204379636c15
:10448000652054696d6500534d2d4576656e742029
:104490004d6973736564004379636c652054696d7d
:1044a0006520546f6f20536d616c6c0053686966b2
:1044b000742054696d6520546f6f2053686f727457
:1044c00000000000000000000000000000000000ec
:1044d00000000053796e63204572726f7200ff0016
:020000040000fa
:1044e000534d20696e70757420706172616d6574d2
:1044f00065720053796e6368726f6e697a61746970
:104500006f6e2054797065004379636c652054693f
:104510006d65000053796e6368726f6e697a6174bd
:10452000696f6e20547970657320737570706f7247
:10453000746564004d696e696d756d204379636cb7
:10454000652054696d650043616c6320616e642071
:10455000436f70792054696d65000047657420438e
:1045600079636c652054696d650044656c617920e0
:1045700054696d650053796e6330204379636c65cf
:104580002054696d6500534d2d4576656e74204d40
:104590006973736564004379636c652054696d6564
:1045a00020546f6f20536d616c6c005368696674a2
:1045b0002054696d6520546f6f2053686f727400ca
:1045c00000000000000000000000000000000000eb
:1045d000000053796e63204572726f7200ff000015
:020000040000fa
:1045e00030b583b002a8002340f8043d0422334bc9
:1045f000198800f085fc019ca3b20193304b1b7815
:10460000012b0ad02f4b1b7813b92f4b1b78cbb142
:1046100001222e4b1a7003b030bd0a2003f0c0f9fe
:1046200005460028eed00021016004230380a98004
:104630000123c3800723038101f000fd284603f016
:10464000b7f9dfe70022214b1a70214b1888063496
:10465000a2b2824228bf0246144603f0a1f91d4bc4
:104660001860c0b12246154b198800f049fc02a819
:10467000002340f8083d042240f6040100f040fc0d
:10468000009b0093009b13f4006f08d1114b186836
:1046900001f064ffbfe701220c4b1a70bbe70e4824
:1046a00000230360054b1988094b1b881944043902
:1046b000042289b200f024fce8e700bf04020020d5
:1046c00000020020010200201d0200201402002030
:0c46d0001e020020180200203c01002007
:020000040000fa
:1046dc0038b505460c4603f01bfa08b30246611eba
:1046ec00c9b201eb85005388dbb243ea00239bb2cd
:1046fc005380022d15d0032d39d000211171517129
:10470c009171d171002111706ff05f01517023f024
:10471c00ff032a4909780b435380104601f09efe93
:10472c0038bd0329eed8dfe801f002020c1100219c
:10473c001171102151714ff0ff3191711f21d17105
:10474c00e0e71f4909889180d180dbe71c49098883
:10475c0039b100210a201071517101209071d17171
:10476c00d0e70021117151719171d171cae7032900
:10477c00c8d8dfe801f002020c11002111711021e0
:10478c0051714ff0ff3191711f21d171bae70d4971
:10479c0009889180d180b5e70a49098839b100218f
:1047ac000e201071517101209071d171aae7002176
:1047bc00117151719171d171a4e700bf1f010020db
:0847cc00200100204e01002035
:020000040000fa
:1047d40038b5059c602954d000293bd0258905f4bf
:1047e4007f45258100284ed1e088c0f30b0040f4ba
:1047f4004050e080402925d104990139032910d87b
:104804000a232370002363709df81030c3f104035e
:1048140042f0030242ea830245f040051543258134
:1048240043e00499994298bf049b0a332380bdf85e
:104834001030a381049b1b0ce38142f04102154319
:10484400258132e00a2323700023637045f060055c
:1048540025812ae0b8b9e388c3f30b0343f440533a
:10486400e3800a23237000236370238943f0200329
:1048740023811ae0e388c3f30b0343f44053e3803a
:1048840013e00028f6d00a23237000236370e38822
:10489400c3f30b0343f40053e380238943f0800301
:1048a4002381064b53f82030e3600221204601f0b7
:1048b400c3fb10b1024b1c6038bd38bd4c66000010
:0448c400fc000020d4
:020000040000fa
:1048c80010b582b02a4a20241480002353805360f4
:1048d80044f21f0090812749116153619383136249
:1048e8001385538582f84030234a148053805360df
:1048f800908111615361938313621385538582f804
:1049080040301e4a137002f081fc20bb00231c4a71
:1049180013701c4a13701c4a13801c4a13701c4adb
:1049280013601c4a13601c4a13601c4a136002a8d7
:1049380040f8043d0422082100f0defa019b13f040
:10494800080f0bd00022164b1a704ff47a62154be1
:104958001a6002b010bd02f07bfdd7e70122104bb0
:104968001a7004224ff411610f4800f0c5faece701
:104978006c020020a086010028020020b00200205e
:10498800f0220020f12200202223002024230020ee
:1049980000230020dc220020ec2200200423002039
:0c49a800480100203400002030000020f6
:020000040000fa
:1049b400002966d02de9f0470e4633490f68b7f554
:1049c400802f47d215460446304b186806eb000882
:1049d400b8f5005f41d9c0f50052dff8b8a0caf8b5
:1049e4000020dff8ac902146484402f0b5fedff821
:1049f4009c804ff40053c8f800304946384602f012
:104a040077f9214a1368d8f800100b441360daf8d8
:104a140000100023c8f80030761ab6b2324621449a
:104a2400484602f099fec8f80060184b1b68b3f5bd
:104a3400005f03d075b9b3f5005f18d3124c144965
:104a4400206802f055f9114a236811680b44236069
:104a5400002313600020bde8f087324621460c4b4a
:104a6400184402f079fe094bc3f80080dde7c3f572
:104a7400005208490a60ff210548184402f09effcd
:104a8400dce70020704700bf0c280020102800201d
:084a9400b802002014280020e4
:020000040000fa
:104a9c0070b586b00d468df8072000238df81730c1
:104aac00049303930b238df81030030a8df8113007
:104abc008df8120002f020ff2d4c6368db689847dc
:104acc000028fad12a4b5b681c68032303aa1946f9
:104adc0004a8a04702f0cafe254c6368db6898471f
:104aec000028fad1234b9df80d201a709df80e204a
:104afc005a701f4b5b685b6801210df107009847ea
:104b0c0002f0b4fe1a4c6368db6898470028fad1af
:104b1c00174b5b685b6801210df11700984702f099
:104b2c00a5fe134c6368db6898470028fad1104c3b
:104b3c0063681e68012303aa19460df11700b047dc
:104b4c0002f094fe6368db6898470028fad19df860
:104b5c000c3005f8013b9df80730013bdbb28df8ba
:104b6c000730002be4d102f0bdfe06b070bd00bfd3
:084b7c00942700200400002032
:020000040000fa
:104b84002de9f04184b01e465469e9b10f4693897a
:104b9400c3f30323072b17d0092b24d0002e5ad09c
:104ba4002e4b6c460fcb07c4237039460df1090018
:104bb40002f0d8f96b4607cb30607160b2601b78a5
:104bc40033734ff00c080ae0204602f0fffe1ffa90
:104bd40080f826b142462146304602f0bdfd4046eb
:104be40004b0bde8f0811ffa81f8204602f0eefe21
:104bf40001302518b8f1000fd0d0235c0233dbb2aa
:104c0400012bcbd9b8f1010f10d001240134a4b287
:104c1400284602f0dbfe01300544a045bed32b78c4
:104c24000233dbb2012bb9d9a045efd1284602f0fb
:104c3400cdfe1ffa80f846b1b8f1000fb0d042465d
:104c44002946304602f088fdc9e7b8f1000f08bfd5
:104c54004ff00c08c3e74ff00c08c0e7a42700206e
:020000040000fa
:104c64002d4b1b78002b56d02de9f04782b0174608
:104c74000d468146294b1e683389dbb203f0e00af6
:104c840003f01004baf1400f0fd04ff000080022d7
:104c9400214b1a70019600954346224651464846d8
:104ca400fff796fd02b0bde8f0871d4bb3f8008016
:104cb400a8f110081ffa88f888450bd34b1e032b64
:104cc40020d806f10c008242e1d00a46394602f0af
:104cd40043fddce70123134a1370134a1370134b8b
:104ce4001c70134b19606022124b1a70124b1f6018
:104cf4004246394606f1100002f02efd0f4bc3f870
:104d04000080c4e706f110008242c0d00a4639464a
:104d140002f022fdbbe770473c280020fc22002063
:104d24000c020020e5220020f2220020e4220020d0
:104d3400e8220020f322002004230020e0220020a7
:020000040000fa
:104d44000022314b1a74314a03f500639a621a4601
:104d5400536813f0100ffbd142222d4bc3f884206b
:104d64001a46d2f8843013f0400ffad0294b0022af
:104d74009a6377225a631a46d36b13f0040ffbd15c
:104d84000222244b83f830201a46d36b13f0020f0f
:104d9400fbd1204a136c03f00303032bfad1012245
:104da4001d4b5a711a46d37813f0010ffbd01b4ade
:104db400174b1a621a46536813f0040ffbd1174ab3
:104dc400134b5a621a46536813f0080ffbd1412261
:104dd4000f4bc3f890201a46d2f8903013f0400fce
:104de400fad041220a4bc3f8a4201a46d2f8a430c0
:104df40013f0400ffad0084b6ff07f421a6144f26f
:104e0400ff725a61704700bf001400400601300071
:104e1400001c004000100040000800400701010091
:020000040000fa
:104e240008b5214b1b88002b35d1204b1b88002b48
:104e340035d14ff2f33002f0cff800231c4a13703f
:104e44001c4a13701c4a13701c4a13701c4a1370ba
:104e54001c4a13801c4a13801c4a13801c4a13806a
:104e64001c4a13801c4a13801c4a13801c4a13805a
:104e74001c4a1385538582f840301b4a1385538599
:104e840082f84030194a1380194a1370194a137072
:104e9400194a137008bd022002f0d6f8c5e70320b2
:104ea40002f0d2f8c5e700bf200100204e01002027
:104eb4005401002061010020590100203801002024
:104ec4005501002050010020640100202e01002023
:104ed400240100205c010020340100204a0100204c
:104ee400280100206c02002028020020320100204a
:0c4ef4006201002060010020b0020020dc
:020000040000fa
:104f0000002a6ad02de9f04383b00d4617460646c5
:104f10004ff0c0094ff004084ce0032c04d8012cda
:104f20008cbf022401241be08df804502b0a8df85d
:104f300005308df806408df8079002f0fbfd4246e3
:104f400001a94ff4417001f04bf9424601a94ff419
:104f50004070fff7a3fd02f0f1fd2cb319e001242e
:104f60008df804502b0a8df805308df806408df829
:104f7000079002f0dffd424601a94ff4417001f0b5
:104f80002ff9424601a94ff44070fff787fd02f068
:104f9000d5fd01a9324611f8013b02f8013b931bf4
:104fa000dbb2a342f7d31646a4b22544adb23c1bf4
:104fb000a7b27fb115f0010fd1d13c46042f28bf15
:104fc0000424e4b215f0020fa7d0012c8cbf0224f8
:0c4fd0000124c5e703b0bde8f083704782
:020000040000fa
:104fdc0008b52a4b1b78002b4fd0294b1b78002b84
:104fec0037d0284b1b78002b37d1274b1b78002b45
:104ffc0033d102f099fd02f03ff8244b1b7813bb20
:10500c0002f096fd29e001f025fc10f4806f0cd025
:10501c0001221c4b1a7000221d4b1a801d4b1b7851
:10502c00002be6d000f070ffe3e71b4b1b88002b36
:10503c00dfd110f4006fdcd00122124b1a70002269
:10504c00134b1a80d5e701f047fad9e701f06efb54
:10505c0008e00d4b1b78002bd5d0104b1b68b3f51b
:10506c007a6ff3d2fef7a0fc00f068fd01f0defed3
:10507c000b4b1b680bb1984708bd08bd36280020a8
:10508c006101002054010020590100206001002022
:10509c001c0100205a0100202001002034000020b7
:0450ac009c00002044
:020000040000fa
:1050b000274b1b78002b4ad0264b1b78002b46d061
:1050c000254b1b8813b3254a128893421bd8002214
:1050d000234b1a70234b1b78002b38d00022214b16
:1050e0001a70704700221e4b1a70f3e701221d4b05
:1050f0001a701d4bb3f90030002b28dd1b4a1388b2
:105100000133138070470132144b1a800122144b73
:105110001a70174b1b8833b1164a12889342e1d993
:105120000132144b1a80144b1a8d144b1b899a426e
:10513000dcd30c4b1b7853b100220a4b1a700a4b7c
:10514000b3f90030934202dd084b1a807047704774
:1051500059010020600100202e01002024010020c0
:105160003801002055010020320100202a010020d2
:10517000340100205c0100206c020020b4270020d4
:020000040000fa
:10518000f0b5b1f80ce0cef3032e00280cbf0025db
:105190001025bef1070f58d087b2002f56d0062633
:1051a000012223e0062b0ed009d8032b0bd0042bb1
:1051b00036d0974215d960880544adb211e0082b6e
:1051c0002ed90b2bf5d105f10f004ff6f0750540e8
:1051d000974206d90b2b34d0b3f5187f31d0103558
:1051e000adb2013292b20636ba422fd8bef1080fe4
:1051f0000c690cbf0634a41923881f2be3d0d1d926
:105200002f2b0dd004d8202b0ad02e2bd1d1dae7aa
:10521000b3f5187fd7d0ccd3a3f262200128c8d829
:1052200005f11f004ff6e07505409742d9d9a3f26a
:1052300062239bb2012b9abf60882d182035adb236
:10524000cfe760880544adb2c9e700252846f0bd28
:020000040000fa
:10525000f0b583b002ac002344f8083d2e4d204643
:1052600000f078ff009bab42f9d102a9002341f87e
:10527000083d04225c2000f0b3ff932704264ff47e
:10528000017502ac44f8047d32462946204600f000
:1052900005fc00230193324629462046fff730fee5
:1052a000019b932bedd102a8002340f8043d04227a
:1052b0004ff4a871fff724fe019b13f0040f02d0f6
:1052c0000122164b1a70002502a840f8045d042242
:1052d0004ff4017100f0e2fb02ac40f2011344f81c
:1052e000083d04222146542000f07aff0123009358
:1052f000042221465c2000f073ff0422214658203e
:1053000000f0c4fa02f048f902f056f902f0e6faa9
:10531000284603b0f0bd00bf214365873d2800202b
:020000040000fa
:1053200030b583b02222204b1a804ff480721f4b7d
:105330001a804ff480531e4a13801e4a13801e4b5e
:1053400000241c805c800a229a801c4b1c805c809c
:105350009a801b4b1c601b4b1c601b4b1c601b4b27
:105360001c601b4b1c7002ad45f8044d042240f636
:105370000c012846fff7c4fd019b23f00073019345
:10538000042240f60c01284600f088fb114b1c70eb
:10539000114b1c70114b1c70114b1c70114b1c706d
:1053a000114b1c7003b030bd1e0200200c02002007
:1053b0000402002016020020cc01002098010020e9
:1053c0001802002024020020100200200802002001
:1053d000200200200202002001020020140200200e
:0c53e0001d0200201c020020940100208f
:020000040000fa
:1053ec00f0b583b0294b1b7803f00f03012b49d088
:1053fc00274b1b780bb9f02445e0264b1c780cb1dd
:10540c00072440e005460788ba1d92b2224b198842
:10541c0000f03efb02a8002340f8043d042240f6b5
:10542c000c01fff767fd019b0193019b13f4006fc7
:10543c0012d11a4b1e88b31fdb1b9bb20021184ada
:10544c001160032b14d9144b1988314404390422ec
:10545c0089b2134800f01cfb124b1b6813b10022dd
:10546c00114b1a600f4b1d6001220a4b1a700ae097
:10547c00c3f10402b91d21f003012944084802f0cc
:10548c0067f9e0e7f024204603b0f0bd1f010020cf
:10549c000202002001020020160200200c02002053
:0c54ac003c01002010020020180200202b
:020000040000fa
:1054b800002a62d02de9f04383b00d461746064610
:1054c8004ff0c0094ff0040844e0032c04d8012c25
:1054d8008cbf0224012417e08df804502b0a8df8a4
:1054e80005308df806408df80790424601a94ff423
:1054f800417000f071fe424601a94ff44070fff779
:10550800c9fa0cb315e001248df804502b0a8df864
:1055180005308df806408df80790424601a94ff4f2
:10552800417000f059fe424601a94ff44070fff760
:10553800b1fa01a9324611f8013b02f8013b931b6d
:10554800dbb2a342f7d31646a4b22544adb23c1b46
:10555800a7b27fb115f0010fd5d13c46042f28bf63
:105568000424e4b215f0020fafd0012c8cbf022442
:0c5578000124c9e703b0bde8f0837047d0
:020000040000fa
:10558400050008000700060010000f0007002000b7
:1055940007000000200000000600100007000700bc
:1055a4002000070007002000070000002000000082
:1055b400060010003f00070020000700070020003d
:1055c4003f0006001000070006001000070000005e
:1055d4001000000000001000000000002000000087
:1055e4000000200000000000200000000000200057
:1055f40000000000000000000000000000000000a7
:105604000000000000000000000000000000000096
:105614000000000000000000000000000000000086
:105624000000000000000000000000000000000076
:105634000000000000000000000000000000000066
:0856440001000100070000bf96
:020000040000fa
:10564c0008b50022294b1a70294b186810b1294b48
:10565c001b68c3b1284b1a68254b1a60254b186878
:10566c00a0b1fff7bdfe0022224b1a60234b1b7822
:10567c0043b113f0010f11d113f0020f1cd113f031
:10568c00400f29d108bd02f08df9e3e71c4801f069
:10569c0093fe0028ead0fff7a3fee7e7194b186842
:1056ac0002f098f902f0baf80028ebd0134a1378fc
:1056bc0023f00103137008bd23f002030f4a13708b
:1056cc00104b186801f088fa0028dbd00b4a1378cd
:1056dc0043f00203137008bd23f04003074a137014
:1056ec00084b186801f0d8ffcce700bf010200207e
:1056fc002402002008020020100200201d020020bd
:08570c009801002018020020a2
:020000040000fa
:10571400f0b583b00024224b1c60224b1c60224b4a
:105724001c60224b1c60224b1c60224b1c60fef749
:1057340021fbfff7c7f801221f4b1a701f4b1c7087
:105744001f4b1c601f4b1c601f4b1c60009401947a
:105754004ff47a7404264ff411651f4605e0019a4c
:10576400934288bf3a60013c17d0324629466846c6
:1057740002f06cf83246294601a802f067f8009a54
:10578400019b9a4288bf03f1ff339b1a01933b6844
:10579400002be4d1019b3b60e5e7002003b0f0bda2
:1057a400f40000209800002094000020f80000205d
:1057b400f00000209c000020362800203800002043
:0c57c4003c000020a40000204400002055
:020000040000fa
:1057d00070b5cd1c25f0030508350c2d38bf0c2500
:1057e000002d064601dba94203d90c2333600020bb
:1057f00070bd02f0baf9234a1468214691b9224ccf
:1058000023681bb9304601f0f7fe20602946304678
:1058100001f0f2fe431c26d10c233360304602f027
:10582000a5f9e4e70b685b1b1ad40b2b0fd90b60af
:10583000cd50cc18304602f099f904f10b00231d2d
:1058400020f00700c31a1bd05a42e25070bd8c42b0
:105850000dbf63684b686360136018bf0c46e9e7cf
:105860000c464968cae7c41c24f00304a04205d0d2
:10587000211a304601f0c0fe0130cdd02560d9e7b5
:0c58800070bd00bf242800202828002054
:020000040000fa
:10588c002de9f04184b00e46154600230393029394
:10589c008df8073003238df80c30030a8df80d308a
:1058ac008df80e0002f028f8204c6368db689847ee
:1058bc000028fad11d4b5b681c68032302aa194609
:1058cc0003a8a04701f0d2ff184c6368db68984727
:1058dc000028fad1164b9df809201a709df80a2061
:1058ec005a70013e4ff0ff08104c012d08bf8df887
:1058fc00078063681f68012302aa19460df107008f
:10590c00b84701f0b3ff6368db6898470028fad109
:10591c009df8083006f8013f013d15f0ff05e4d174
:10592c0001f0e0ff04b0bde8f08100bf9427002037
:04593c000400002043
:020000040000fa
:1059400070b5002001f0bcfe224d03681b0c2b80bb
:10595000214e03683380012001f0b2fe03681b0c66
:105960009cb21e4a148002681d490a80308892b297
:1059700029880144914205dd1344984202da162435
