:020000040000fa
:10000000f0ff0220b95200002b6300008f6900004e
:100010002b6e000073720000f372000000000000fd
:100020000000000000000000000000005f5f000012
:100030000f6b0000000000005f5f00005f5f0000ca
:100040005f5f00005f5f00005f5f00005f5f0000b8
:100050005f5f00005f5f00005f5f00005f5f0000a8
:100060005f5f00005f5f00005f5f00005f5f000098
:100070006d6e00008d6e00005f5f00005f5f00002e
:100080005f5f00005f5f00005f5f0000ad6e00001b
:100090005f5f00005f5f00005f5f00005f5f000068
:1000a0005f5f00005f5f00005f5f00005f5f000058
:1000b0005f5f00005f5f00005f5f00005f5f000048
:1000c0005f5f00005f5f00005f5f00005f5f000038
:1000d0005f5f00005f5f00005f5f00005f5f000028
:1000e0005f5f00005f5f0000000000000000000094
:1000f000000000005f5f00005f5f00005f5f0000c6
:100100005f5f00005f5f00005f5f00005f5f0000f7
:100110005f5f00005f5f00005f5f00005f5f0000e7
:100120005f5f00005f5f00005f5f00005f5f0000d7
:100130005f5f00005f5f00005f5f00005f5f0000c7
:100140005f5f00005f5f00005f5f00005f5f0000b7
:100150005f5f00005f5f0000000000000000000023
:10016000000000000000000000000000000000008f
:10017000000000000000000000000000000000007f
:100180005f5f00005f5f00005f5f00005f5f000077
:10019000000000005f5f00005f5f00005f5f000025
:1001a0005f5f00005f5f00005f5f00005f5f000057
:1001b0005f5f00005f5f00005f5f00005f5f000047
:1001c0005f5f00005f5f00005f5f00005f5f000037
:1001d0005f5f00005f5f00005f5f00005f5f000027
:1001e0005f5f00005f5f00005f5f0000696b000001
:1001f0005f5f00005f5f00005f5f00005f5f000007
:100200005f5f000000000000000000005f5f000072
:100210005f5f00005f5f00005f5f00005f5f0000e6
:100220005f5f00005f5f00005f5f00005f5f0000d6
:100230005f5f00005f5f00005f5f00005f5f0000c6
:100240005f5f00005f5f00005f5f00005f5f0000b6
:100250005f5f00005f5f00005f5f00005f5f0000a6
:020000040000fa
:10026000f8b500bff8bc08bc9e4670471d6400008e
:10027000f8b500bff8bc08bc9e467047f9630000a3
:020000040000fa
:100280002de9f04f89b0b0f80890944b1e78002efd
:1002900040f0ae835ffa89f808f0e0040546202cb0
:1002a00019d009d9402c16d0602c00f0b38100275a
:1002b000bb464ff0030a06e0002c00f0ab8100279c
:1002c000bb464ff0030abaf1ff0f40f0ab81304656
:1002d00009b0bde8f08fb5f800a06f893b0203ebd1
:1002e00019239bb20393184606f040fe04900028a1
:1002f00000f086833a0a0592037b9a4204d90027cc
:10030000bb464ff0110a8de108f010030693024638
:100310000599039804f03eff8346402c48d0202cda
:1003200000f09d80074600230793069b002b40f0ba
:10033000c380bbf1000f08d1694b039a1a80694b47
:10034000059a1a70684b049a1a60402c00f03181ab
:10035000069b0193079b0093049b3a4605990398db
:1003600001f0e8fc8246ff2840f05c8101235f4aef
:1003700013705f4a069911705e4a059911705e4ac2
:10038000039911805d4a17605d4a07991160049acc
:10039000116a5c4a1160514a13705b4b1d602b89d6
:1003a00023f0ff0309f0f00943ea09032b818ee7ec
:1003b000baf10a0f40f01e83431e032b44d805f107
:1003c0000c0307930023ab81eb8133460746069a63
:1003d000002a72d1002bacd001234c4a13704c4a36
:1003e00013704c4b069a1a703d4b039a1a803d4b82
:1003f000059a1a703c4b049a1a60402c0cbf5a465e
:100400003a46454b1a60454b186808b103f02cfe7c
:10041000414b1868013020f0010002f045fe3f4bcf
:100420001860002852d0402c00f08280aaf10a0700
:100430003a4605f1100106f068fe394b00221a70a9
:10044000b246384b1f603ee7374b1f88103fb8421b
:1004500000f2e38205f1100307933346b7e718f083
:10046000020f0bd0baf10a0f40f0c682c8f3810721
:10047000c7f1040705f10c03079356e7eb89af8931
:1004800007eb0347294b1b8807f110029a420dd94d
:10049000063b9a4540f0b28205f110030793aaf19a
:1004a0000a03bb422cbf0023012390e707f10a0394
:1004b0009a45f1d008260ae73346059a012a02d95f
:1004c0004ff0050aaee00122069283e7069b002b5f
:1004d00014bf4ff0050a4ff0040aa3e0a42a00203d
:1004e000d8220020f0220020ec220020c022002090
:1004f000c1220020f4220020f2220020d02200207d
:10050000ac220020bc220020cc220020b5220020fa
:10051000c2220020b4220020b8220020d4220020d1
:10052000c3220020b0220020dc010020ee010020c8
:10053000069b01930090049b5a460599039801f08d
:100540008dfe824650b3ff287ff47bafa44b04227c
:100550001a70a44b069a1a70a34b059a1a70a34bf3
:10056000039a1a80a24bc3f800b0a24b1a68a24ba0
:100570001a60049bda69a14b1a60a14b01221a7020
:10058000a04b1d602b8923f0ff0309f0f00943ea1b
:1005900009032b819c4b60221a7098e63a46954bd2
:1005a000196805f1100006f0b0fd974b60221a7033
:1005b00047e7069b0193079b0093049b5a460599c6
:1005c000039801f04bfe8246ff282bd1844b032277
:1005d0001a70844b069a1a70834b059a1a70834bd3
:1005e000039a1a80824bc3f800b0834b079a1a60b3
:1005f000049bda69814b1a60814b01221a70814b8e
:100600001d602b8923f0ff0309f0f00943ea090379
:100610002b815ce67c4b1b78a3420ed00027bb46a7
:100620004ff0030a0195cdf800b0bbb208f01002fc
:100630002146504603f094fd49e6002c40f04281eb
:10064000724b1a7809f010039a4200f02381704b24
:100650001b8808f010026d490a70664a116800296b
:1006600000f02d81093b9bb26a4a10686a4a126801
:10067000121a19f0010f18d09a4200f2cb812b8880
:10068000033b9a4200f2c6816fea690707f0070749
:10069000ba4205d0072a40f2bd819a4240f0ba81a1
:1006a0005e4b00271f70174608e05c4f4ff0010caf
:1006b00087f800c01f469a4240f2ac8110f0010f4b
:1006c0006ed1430868894fea192242ea002221f8d4
:1006d000132007f1010c4fea5c0cbcf1010f1bd990
:1006e00001200346dff82c91dff808e105eb430b0e
:1006f000d9f8002000eb5201def80000bbf808a09a
:10070000bbf80a20120242ea1a2220f81120013313
:100710009bb218466345e9d3404b93f80090b9f17a
:10072000000f1fd13e4b1b780193324b1b68009387
:100730003c4b1b68384a12683b4909783b480088a3
:1007400001f0f8fa8246ff2872d0dff8a890d9f8b5
:10075000000003f089fc0023c9f80030baf1000f53
:1007600040f09a800a232b7000236b70eb88c3f350
:100770000b0343f44053eb80244b1b78002b14bf36
:10078000302320232b81254b1b78012b7ad000238b
:10079000204a13601c4a1370a2461f469b4641e73d
:1007a000430811f8132021f8132012491948026850
:1007b0005208d1f800c02b8923f0ff033cf812e067
:1007c00043ea0e032cf81230036823f001030233ce
:1007d00008687a1e05f10a01184406f096fc9be7aa
:1007e000c0220020c1220020f4220020f22200209a
:1007f000d0220020d4220020ac220020bc220020e5
:10080000a42a0020cc220020c3220020c2220020e3
:10081000ee010020b0220020b8220020b5220020e6
:10082000b4220020ec220020f0220020d822002058
:100830007c4b02221a707c4b1a787c4b1a707c4bd2
:100840001a787c4b1a707c4b1a887c4b1a807c4b34
:100850001a687c4b1a607c4b1a687c4b1a607c4b84
:100860001b681a6a7b4b1a607b4b01221a707b4b08
:100870001d6000237a4a13707a4a13707a4a136013
:100880004e4624e5784a13683b441360a24600278d
:10089000bb46c7e64ff0010a0023714a1370714a44
:1008a0001370694b186820b103f0defb664b002221
:1008b0001a6000236c4a13601f469b4603e54ff005
:1008c000030ae9e72f7a07f01007684b1b78bb4251
:1008d00000f09b80664b1b88093b9bb2634a1770f4
:1008e0009a46614a1168564a12680b44934286bf81
:1008f000a2eb010ab3464ff0010b594b83f800b04d
:100900005ffa89f9a5f8089011f0010245d149086c
:100910004d4b186830f8113049ea0329a5f80890c2
:100920005fea5a0e13d000230a4400eb420cbcf8d5
:10093000029030f81220120a05eb430c42ea092219
:10094000acf80a2001339bb21a469e45ecd8eb88de
:10095000c3f30b0343f44053eb802b8903f47f4331
:10096000bbf1000f2ed01f432f81baf1060f2dd8f7
:100970000a232b7000236b70caf1070347ea430771
:100980002f81374b1b78012b24d1374a13685344ee
:100990001360b2460027bb4644e62b4b1a68490851
:1009a00032f8113023f0ff0343ea0909a5f8089053
:1009b00002eb41010af1ff32023105f10a0006f0b3
:1009c000a4fbc4e747f001071f43cde70af1030387
:1009d0002b80d6e71c4f386803f046fb00233b60b2
:1009e000214a13601f4a1370b2461f469b4619e600
:1009f00009266ce408266ae4082668e4082666e40a
:100a00000027bb464ff0080a0ce60027bb464ff014
:100a1000010a07e64ff00e0a3ee701230022079283
:100a2000d5e400bfc0220020b4220020c122002053
:100a3000f0220020f4220020d8220020f222002000
:100a4000b8220020d0220020d4220020ac22002096
:100a5000ec220020bc220020a42a0020cc2200206e
:100a6000b5220020c3220020b0220020c222002094
:040a7000dc01002085
:020000040000fa
:100a7400f0b585b00023029301938c4a94898c4a83
:100a840095898c4a13808c4a1370022006f0f0fa80
:100a940002688a4b1a80436803f00203002b0cbfe0
:100aa40003260126032006f0e3fa0368844a138030
:100ab400426802f00202002a0cbf032201229bb208
:100ac4008049b1f800c00cfb02327f4909888a4290
:100ad40004dd7e4800880844834277db7c48008834
:100ae400824204dd7b4a1288024493426edb734add
:100af4001788794a128806fb0272914204da734e0f
:100b0400368831448f4267db904204da71490988a0
:100b14000844874260db934202da63449f425bdb12
:100b240004224ff4186103a804f09cfabdf80c30b9
:100b3400039304224ff41a6102a804f093fa0422e6
:100b440040f6a4110deb020004f08cfa019e574b01
:100b54005b88574a5188039a12f4106f00f0f681ab
:100b640012f4007f00f09d812c400ad014f0040f91
:100b740000f0998114f0080f03d112f4806f40f053
:100b84009481029840b1494d2d69a842c0f08f81eb
:100b9400524da84200f28d8102f4c065b5f5c06fd4
:100ba40021d000204e4c2478002c40f031824a4b56
:100bb4001b88002b00f06b82002840f0b781414b6a
:100bc4001988002900f03382022363e20221032002
:100bd40003f0ccf91e2004e00221084603f0c6f914
:100be4001d2005b0f0bd002e00f0ac818642c0f09f
:100bf400ab8114f0100f00f05e810120d2e7022bcc
:100c040000f06381022900f06281032b40f0ac8183
:100c140034e2314b1b8833b12a4b1988002940f048
:100c240082810123a0e1274a1188003118bf0121e4
:100c34009ae1032122e241ea030292b2002a40f03f
:100c44000482284b1b78002b40f0dc811346911e54
:100c540089b2012950d915494b80154b5a8000237c
:100c6400214a1380214a1380214a138001285fd12d
:100c7400029bf1189e42c0f0c080b1fbf3f082b237
:100c840003fb1013002b40f04181511c174b1980ba
:100c9400184b1a804fe0074a4ff4806414809a1e60
:100ca40092b2012a40f23a810a46d0e73c0200207f
:100cb400f80100200601002024010020fc0000208f
:100cc400380100201e010020e6010020dc01002084
:100cd400d4010020ee010020f0000020000050c3e9
:100ce4008002002031010020f800002020010020b3
:100cf400340100201a010020a04901240c70a049ed
:100d0400098811b99f4900240c809f494b809f4951
:100d14004a8000219e4c21809e4c21809e4c218043
:100d24009e4c21800128a3d0022b76d0032a02d026
:100d3400974b01221a800023994a138000930422be
:100d44004ff48461684604f08df9009c8c4b1b8839
:100d540013b1a3b2002b64d1924b00221a80924ba0
:100d64001b78002b40f0b780904b1b783bb1844b31
:100d74001b8823b1834a138843f4806313800023c0
:100d84008b4a13808b4a13808b4a13808b4a1380bf
:100d94008b4a13708b4a13708b4a13807b4a1385da
:100da400538582f84030784a1385538582f8403061
:100db400039b13f4007f14d00299002900f08d8066
:100dc400824a914255d87a4a0120108013f4806fe8
:100dd40007d0019b994240f28480754b1a88774b67
:100de4001a80674b1b88002b53d1794b1b88002b2f
:100df40053d104f0f9fe0020f3e6674a0120108085
:100e0400b1fbf3f082b2624c228003fb1013002b7f
:100e140091d001325e4b1a808de75f4b012119801e
:100e240084e70023009304224ff48061684604f0b1
:100e340019f9009b9ab2002a00f0d8800232a3b2ba
:100e440046f2a71402fb0343db08624aa2fb032316
:100e5400c3f30f23534a13805f4a00211180002bf0
:100e64003ff47daf504b1b78002b7ff47daf1f20e8
:100e7400b7e64a095948a0fb0202d209520092b2cd
:100e84005748a0fb0202d208494802809ee701238a
:100e940035e0022005f060fda7e7032005f05cfdc6
:100ea400a7e730209de630209be6302099e63620e7
:100eb40097e6362095e6302093e6302091e6302000
:100ec4008fe630208de630208be6302089e6302016
:100ed40087e6292085e61f2083e613f4806f80d0ff
:100ee400019b0b44394a9342d1d95b093b4aa2fb8b
:100ef4000323db095b003a4aa2fb0323db082c4ae9
:100f0400128803eb52032d4a13806ae7224b1a809e
:100f14007fe71a4a012414700a46f3e6174a0124ab
:100f240014700a46f1e6222101231de0284b19889a
:100f3400002900f0a38012f4806f7ff47aae0221be
:100f4400032399e000202de600202be6254a1078a3
:100f540000283ff45eae9a1e92b2012aadd98a1ed1
:100f640092b2012aabd900201f4a1278002a7ff4da
:100f740062ae002b66d1292033e600bf2901002090
:100f8400f0000020060100203c020020f8010020af
:100f94001a010020f8000020200100203401002064
:100fa400840200202e0100203201002031010020a3
:100fb400fe000020f40000202c0100200401002089
:100fc4000801002025010020020100201fa10700c4
:100fd4001e01002089b5f814ec000020c55a7c0ad3
:100fe400cdcccccc80020020e800002000232d4a88
:100ff40013802d4a1380b2e62c4b4ff48061198084
:10100400134624e62a4b19880029f5d10b4624e01f
:1010140012f4806f30d1032b3ff453af03293ff414
:1010240052af12f4007f3ff4eaad022b9cd1029b35
:10103400204a53625360204a5362536002231f4a7a
:10104400127812b900293ff444af1d4a01241470e8
:10105400174a1288002a7ff41eae1a4a12881ab15f
:10106400124a4ff4006414809a1e92b2012a7ff649
:1010740050af0a46ebe50221032bd6d1029b0d4a61
:10108400536253600c4a536253600323d7e70d49fc
:10109400098821b112f4806fedd00321c5e70b4616
:1010a40062e700bf2e010020ec00002006010020b2
:1010b400f00000203c020020f8010020e80000209d
:0810c400310100201e01002093
:020000040000fa
:1010cc00bc2900201c00000000000000142a002095
:1010dc000c00000000000000c4280020800000006c
:1010ec0000000000942900202700000001000000ef
:1010fc0000000001000001000002000001000004db
:10110c0000000000000000000000000000000000d3
:10111c00000300000100000004280020c0000000b3
:10112c0000000000ee29002002000000000000007a
:10113c002c2a00200800000000000000fc220020e7
:10114c000400000000000000662a002002000000dd
:10115c0000000000382a00200800000000000000f9
:10116c00ec26002018010000010000000000000027
:10117c00000000000116210001090000307300007e
:10118c00c06b0000582a0020000000000000000086
:10119c00000000000000000000000000001a210008
:1011ac00010900003c730000ec6b0000482a002091
:1011bc000000000000000000000000000000000023
:1011cc0000000000121c060001080000547300000f
:1011dc00047000008c2a00200000000000000000b9
:1011ec00000000000000000000000000131c0600be
:1011fc00010800006073000020700000902a00209d
:10120c0000000000000000000000000000000000d2
:10121c000000000000602a00010900006c7300004f
:10122c00e8710000402a00200000000000000000cf
:10123c0000000000000000000000000010702a00f8
:10124c000109000078730000fc710000502a002096
:10125c000000000000000000000000000000000082
:10126c0000000000ffff0000000000000000000074
:10127c000000000000000000000000000000000062
:10128c00000000000c250020e0010000010000001f
:10129c000000000000000000001007000007000024
:1012ac00f4730000187300006c2a0020000000008a
:1012bc000000000000000000000000000000000022
:1012cc000110050000070000fc730000a472000070
:1012dc00662a002000000000000000000000000052
:1012ec0000000000000000000810090000070000ca
:1012fc000474000024730000d829002000000000b2
:10130c0000000000000000000000000000000000d1
:10131c0009100900000700000c740000987100000f
:10132c00342a002000000000000000000000000033
:10133c0000000000000000000a1009000007000077
:10134c0014740000ac710000682a0020000000003a
:10135c000000000000000000000000000000000081
:10136c001810230004090000ec6e0000b4660000a5
:10137c00f029002000000000000000000000000028
:10138c000000000000000000f1102a00020900001b
:10139c001072000078650000202a00200000000078
:1013ac000000000000000000000000000000000031
:1013bc00f8101b00000700001c740000c071000036
:1013cc00382a00202d6300000000000000000000ff
:1013dc000000000000000000001c050004080000d4
:1013ec0048730000d4710000602a00200000000047
:1013fc0000000000000000000000000000000000e1
:10140c00321c290020090000d04a0000703c00006a
:10141c003c02002000000000000000000000000062
:10142c000000000000000000331c2900200900000f
:10143c00d04a0000703d0000f801002000000000c0
:10144c000000000000000000000000000000000090
:10145c00ffff000000000000000000000000000082
:10146c000000000000000000000000000000000070
:10147c00d8290020160000000100000053414d4403
:10148c00353120457468657243415420536c617644
:10149c0065000000342a0020040000000100000058
:1014ac00312e3000682a00200400000001000000ea
:1014bc00322e3000f0290020140000000100000042
:1014cc0004000000d804000053920000010000004a
:1014dc0001000000602a002006000000010000004e
:1014ec0004000201040300006c2a00200400000028
:1014fc00010000008913000000000020080000001b
:10150c0000000000bb2900200100000000000000ca
:10151c0008000020c400000000000000cc000020e7
:10152c000400000000000000d000002016000000a5
:10153c0000000000112a0020010000000000000043
:10154c00702a00200400000000000000e8000020c9
:10155c0052000000000000003c01002028000000a8
:10156c000000000064010020940000000000000056
:10157c00042a00200d000000010000005375624990
:10158c006e6465782030303000000000202a002086
:10159c000c0000000100000002000000010000002f
:1015ac0004000000f80100208e0000000000000084
:1015bc00122a00200100000000000000132a002065
:1015cc000100000000000000742a0020040000004c
:1015dc0000000000782a0020040000000000000039
:1015ec007c2a00200400000000000000802a00205b
:1015fc000400000000000000842a00200400000009
:10160c0000000000402a002008000000010000003b
:10161c000100000000000000482a00200800000023
:10162c00010000000100000020010060502a002091
:10163c000800000001000000010000000000000094
:10164c00582a0020080000000100000001000000e2
:10165c0020011070882a0020040000000100000006
:10166c00010000008c2a0020040000000100000092
:10167c0001000116902a0020040000000100000067
:10168c000100001a88020020202000000000000049
:10169c00a42a00200100000000000000a822002065
:1016ac004d00000000000000f822002001000000a6
:1016bc0000000000942a002004000000000000003c
:1016cc0044290020500000000000000000230020ee
:1016dc000c02000000000000982a0020040000000a
:1016ec00000000009c2a0020040000000000000004
:1016fc00a02a0020040000000000000000000000f0
:10170c000000000022222222222222222222222235
:020000040000fa
:10171c002de9f0419b4b4ff6ff721a809a4b012238
:10172c001a7010f0100723d0984a137823f0100386
:10173c00137001270e4600f00f05944b1c7805eb37
:10174c00041404f0ff04442c00f0ba8000f2ad80c5
:10175c00222c00f0a4801ad9242c40f09d808c49b6
:10176c008c4802f073f98046002840f0b380a7e063
:10177c00864b1b7813f0100f04d000f00f02012ad7
:10178c0040f0ad8203f00f03804a1370d2e7122ca5
:10179c0000f08580804b00221a80a4f11103772b76
:1017ac0000f25e82dfe813f0c5011601b7002802d3
:1017bc005c025c025c0228025c025c025c025c0261
:1017cc005c025c025c025c02af01c80128023a01b7
:1017dc005c025c025c0228025c025c025c025c0241
:1017ec005c025c025c025c02000128025c022802c2
:1017fc005c025c025c0228025c025c025c025c0221
:10180c005c025c025c025c02a3018e012802c8012e
:10181c005c025c025c025c015c025c025c025c02cd
:10182c005c025c025c025c025c025c025c025c02bc
:10183c005c025c025c025c025c025c025c025c02ac
:10184c005c025c025c025c025c025c025c025c029c
:10185c005c025c025c025c025c025c025c025c028c
:10186c005c025c025c025c025c025c025c025c027c
:10187c005c025c025c025c025c025c025c025c026c
:10188c005c025c025c025c02980183012802790113
:10189c005c025c025c02c801422c7ff47baf02202c
:1018ac0001f006fb1ffa80f810e0822cf7d004d967
:1018bc00842c05d0882c03d06ce7482c7ff46aafbd
:1018cc00364b187801f0f4fa1ffa80f8b8f1000fd3
:1018dc003ff460af2d4b1b78042b00f05181082b8b
:1018ec0000f04a81022b00f04f81b8f1ff0f00f09d
:1018fc006081264b187800f00f039d4200f09e810a
:10190c00b8f1000f40f0d681002e40f09d811f4ba6
:10191c001d70b046dbe1224b01221a70022001f04f
:10192c00c7fa28b11e4b00221a704ff01508bbe104
:10193c00002004f06bff03f0e9f9804678b1b8f1b0
:10194c00ff0f00f0db81104b1b78bbb101f0e0fe08
:10195c00032005f075fd124b00221a70c9e70a4be3
:10196c0000221a7005f062fd80460028e7d10d4b6d
:10197c0001221a70032005f063fdbae705f01afd89
:10198c00e4e700bf26010020ee000020ef0000205d
:10199c00f00000201e010020ea000020360100208b
:1019ac0028010020d2010020af4b1b783bb94ff02f
:1019bc00000805f046fdad4b00221a70ace000208b
:1019cc00a94b187004f022ff01f0a2fe05f0f2fc06
:1019dc008046eee705f01ef8a54b1b78002b00f0b7
:1019ec003a8103f093f9804648b1b8f1ff0f00f04b
:1019fc007881a04b1b7873b101f08afe79e79d4b7f
:101a0c0000221a7005f012fd80460028edd19a4b89
:101a1c0001221a706de705f0cdfcede7fff724f815
:101a2c00804648b1b8f1ff0f00f06281914b1b78f2
:101a3c009bb102f0d5fd5ce78e4b00221a708f48eb
:101a4c0005f0f6fc80460028ecd18c4b188804f08d
:101a5c00f9fe8b4b01221a704be705f0ebfce8e723
:101a6c0004f0ecfb804648b1b8f1ff0f00f0408168
:101a7c00804b1b7873b105f0d9fb3ae77d4b002204
:101a8c001a7005f0d9fc80460028edd17d4b01225f
:101a9c001a702ee705f0d2fcede705f0cffc05f04f
:101aac00c5fb4ff00008734b83f8008021e705f06d
:101abc00c5fc804605f0bafb6e4b00221a70b8f1db
:101acc00000f29d105f0b6fc02f08afd4ff000089a
:101adc00684b83f800800ce705f0b0fc804605f0fd
:101aec00a5fb644b00221a70b8f1000f14d105f05d
:101afc00a1fc804602f074fd5e4b00221a70b8f116
:101b0c00000f40f0ab8001f003fe05f053fc804663
:101b1c00564b00221a702124b8f1ff0f7ff4e9ae66
:101b2c00594b01221a70594b1c80594bc8221a80f0
:101b3c004fe04e4b00221a7077b9564b1b7813f0be
:101b4c000c0f00f0af80544b1b884bb9534b1b88c8
:101b5c0063b94ff0fe08a7e0204605f073fcece7f4
:101b6c00022004f0f5fe4ff0fe089de0032004f087
:101b7c00effe4ff0fe0897e005f060fc05f056fb19
:101b8c0005f058fc02f02cfdb8f1160f03d0414bb8
:101b9c0002221a70a9e601f0bbfd05f00bfc002037
:101bac0004f088fe012004f085fe3a4b01221a70e5
:101bbc009fe6354b01221a70344b1c80242c16d016
:101bcc0013d8123ce4b29442afd8314b4ff4fa62c2
:101bdc001a802f48b0f90030314981fb0321da1704
:101bec00c2eba1029b1a038079e0482c9dd1284bb3
:101bfc0042f228321a80ece74ff0110879e6214bbb
:101c0c001b7853b9244b1b8863b9244b1b886bb9c5
:101c1c00b8f1000f52d1deb979e605f00ffc05f0f2
:101c2c0005fbefe7022004f045fef1e7032004f08a
:101c3c0041feede7174b04221a7043e00021124bd2
:101c4c00197001f0f1fd4ae0284310f0080fd6d1cd
:101c5c0045f010055be64ff051084ae641245be77e
:101c6c004ff0120820e000bf280100208002002065
:101c7c00112a0020ee000020d201002006010020d5
:101c8c00300100202a0100201c010020ea00002065
:101c9c0026010020ef000020f00000201e01002093
:101cac00676666664ff0fe081b4b187800f00f0352
:101cbc00ab42c3d0284310f0080fa0d1164b1b78b1
:101ccc00082bb7d0144a137843f010031370134b3e
:101cdc0000221a704146104b187801f0a5fdbde8a2
:101cec00f0810e4b01221a700d4b12221a806ce7f8
:101cfc000a4b01221a700a4b1c8078e7032005f06e
:101d0c009ffb084b00221a70044b01221a70044be3
:101d1c0013221a8059e700bfef0000201c0100209d
:081d2c00ea000020280100205c
:020000040000fa
:101d34002de9f04f8bb004900c4616461d46ddf895
:101d440050809df854b01ffa81fa9b89c3f3032293
:101d54000692d9b20591072a00f04182ab6993f843
:101d64000090b9f1000f40f05982a0f5e053103b08
:101d74009bb21f2b40f25082a0f5b0539bb2b3f537
:101d8400007fc0f05682a0f5d0539bb2b3f5007f1c
:101d9400c0f052824ff23003984208bf89463de2b8
:101da40074b3d146049aa2f5e053103b9bb21f2ba7
:101db40012d9a2f5b0539bb2b3f5007f0cd3a2f5b0
:101dc400d0539bb2b3f5007f06d34ff230039a424f
:101dd40002d00023089305e0ab691b78003318bfd9
:101de400012308932f6a77b1cdf800b043463246f9
:101df40021460498b847039003980bb0bde8f08fd0
:101e0400d1460894eee7002e00f0aa81ca4500f2fc
:101e1400aa8154460723039300230793049ba3f545
:101e2400e053103b9bb2099337e1102a44d0202a97
:101e340040f060811ee0022b18d81bb2002b40f04a
:101e4400b280bbf1000f00f097817b8813f00f0f75
:101e540005d0184410f00f0f08bf08f10208c3f3af
:101e6400031308eb43080123079311e1032b23d049
:101e7400042b1cd110f00f0f40f08a81089b5bb13a
:101e84003288b8f800309a4240f085817288b8f8f8
:101e940002309a4240f08281b8f800303380b8f8ba
:101ea4000230738008f1040801230793f0e018233b
:101eb4000393a1e7072bddd210f00f0f40f06281ee
:101ec400b8f80070089b1bb13388bb4240f05d81b9
:101ed400099b1f2b00f29380a7f5b0539bb2b3f577
:101ee400007fc0f09780a7f5d0539bb2b3f5007f75
:101ef400c0f09080002f00f08d80122303937be7c5
:101f04000b2b00f2368110f00f0f40f050817a88cd
:101f14000732d2104146304605f0f5f87b881b099c
:101f240008eb430801230793b2e02d2b3bd026d8be
:101f34001e2b38d01bd8152b01d01b2b14d110f01d
:101f44000f0f40f02e81b8f800303380b8f802301b
:101f54007380b8f80430b380b8f80630f38008f121
:101f640008080123079393e01823039344e71f2be6
:101f7400a2d0202b3ff47eaf182303933ce7372bea
:101f840009d8302b0fd22e2b96d02f2b3ff472afc3
:101f94001823039330e7a3f518739bb2032bb2d92c
:101fa4001823039328e77a88a54b33f8122000f00e
:101fb4000f0c02fa0cf1338823ea01031bb2bbf1c4
:101fc400000f10d09bb2b8f8002011400b433380af
:101fd4007b88184410f00f0f40f0b28008f102081b
:101fe4000123079354e0b8f8001031ea020e40f0e0
:101ff400c6800a4002fa0cf213439bb2e7e7049b43
:10200400a3f5e153123b9bb2012b03d8012c07d05b
:10201400082c14d0378008f102080123079337e015
:102024003388bb4207d03946049801f0b7f90390ce
:1020340000287ff4e1ae834b01221a70eae7824a5a
:1020440000235361814911615360814a53611161d5
:10205400536017f0020fddd07b4a5385138582f855
:1020640040307b4a5385138582f84030d2e7002cf8
:1020740061d07b8813f00f0f05d0184410f00f0fb8
:1020840008bf08f102081b0908eb4308182303934f
:10209400631c9bb24c4556d01c46e6b231462846da
:1020a40004f0b0fe07462946304602f0a9fcba887f
:1020b400684b1b7803ea920313f00e0fd7d0ae6976
:1020c400002c7ad0c0f30f1306eb4306a24506d0ca
:1020d400bbf1000fdcd0a245dad8002c70d03b88cd
:1020e400b3f5e06f06d37a88082a3ff69eae02f174
:1020f4002f039bb2112b3ff422af3ff616af052bf3
:102104003ff451af7ff697ae082b7ff6d3ae092b81
:102114007ff4f6ae10f00f0f46d17a880732d21052
:102124004146304604f0efff7b881b0908eb430867
:1021340001230793ace708f1020818230393a7e7e8
:1021440001230793a4e7079b002b039b18bf0023dd
:10215400039351e6112303934ee61a2303934be6ac
:102164000023039348e60723039345e613230393cd
:1021740042e6182303933fe6182303933ce6122315
:10218400039339e60523039336e61c23039333e6ce
:102194000523039330e61c2303932de61c230393aa
:1021a4002ae60523039327e60523039324e6052360
:1021b400039321e6052303931ee6baf1000f87d1aa
:1021c400069b072b8bd0b8f80030dab20599914200
:1021d400ccd3338008f102080123079358e7bbf1fd
:1021e400000fe7d14ff00009ca45b3d8214628466d
:1021f40004f008fe8288174b1b7803ea920313f05d
:102204000e0f7ff4cdad12f0380fa6d1002a0cbf0b
:10221400052307230393efe5ddf81490bbf1000fca
:10222400e2d0002c7ff4bead0eb198f80090089473
:10223400d8e5ddf81490f1e7ddf81490eee700bf7f
:102244008c6f0000800200203c020020a086010068
:08225400f8010020ef0000205a
:020000040000fa
:10225c002de9f04f89b08046049114460293129deb
:10226c009df84ca01ffa81f919469b89c3f30322f0
:10227c000792dbb20693072a00f06d81b0f5805f00
:10228c00c0f063818b6993f800b0baf1000f10d0e5
:10229c00cdf818b0029bde6986b1cdf800a02b46b4
:1022ac00224604994046b0470390039809b0bde814
:1022bc00f08fcdf818b051e1cb46ebe7b8f5805f65
:1022cc0004d2049b83b903934c4605e0cb4508d359
:1022dc004c460023039304930027cdf814a0c24668
:1022ec00cee100230393e0e7049e3146029c204696
:1022fc0004f084fd42880732d21006f18041013986
:10230c00a36953f8211011f0010f22d094b221f0df
:10231c0001026608012c0dd9002113881b0a2b80a1
:10232c0032f8020f43ea002325f8023b01318bb24d
:10233c00b342f2d314f0010f00f0ec802b8803f4bd
:10234c007f432b80128843ea12232b8000230393b4
:10235c00abe70b882b804b886b80043a0431281d2b
:10236c0004f0cdfe002303939fe7079b072b00f09f
:10237c002781069b25f8023b7de1bcf1100f34d080
:10238c00bcf1200f40f02f811de0022b17d81bb29f
:10239c00002b40f08580059b002b00f0c1807388da
:1023ac0013f00f0f04d0984418f00f0f08bf02352c
:1023bc00c3f3031305eb4305012304935be1032be8
:1023cc0013d0042b0cd118f00f0f40f0af8032f863
:1023dc0010302b804b886b800435012304934ae129
:1023ec001823039361e7072bedd218f00f0f40f081
:1023fc009a8032f8103025f8023b012304933ae11d
:10240c000b2b00f28a8018f00f0f40f09580728829
:10241c000732d210284604f072fe73881a0905ebb5
:10242c00420513f00f0f62d02b782b8001230493fd
:10243c0021e12d2b34d020d81e2b31d016d8152bc2
:10244c0001d01b2b0fd118f00f0f72d132f81030b6
:10245c002b804b886b808b88ab80cb88eb800835ce
:10246c000123049307e1182303931ee71f2bbcd011
:10247c00202ba8d01823039317e7372b08d8302b21
:10248c000ed22e2bb1d02f2b9dd0182303930ce7fb
:10249c00a3f518739bb2032bb5d91823039304e748
:1024ac0008f00f0c7388854931f8133003fa0cf3dc
:1024bc009bb232f81000bcf1000f00d12f802a889b
:1024cc00059959b1034013432b807388984418f035
:1024dc000f0f09d1023501230493cce0034043fada
:1024ec000cf313439bb2efe701230493c3e00123e6
:1024fc000493c0e001230493bde0049b002b039bd9
:10250c0018bf00230393d0e611230393cde60523d4
:10251c000393cae600230393c7e618230393c4e688
:10252c0018230393c1e605230393bee60523039307
:10253c00bbe605230393b8e605230393b5e6052311
:10254c000393b2e605230393afe6baf1000f05d06f
:10255c0005230393a9e6baf1000ff3d1069b4b4573
:10256c00d2d30499029804f049fc8388002bced076
:10257c00534a127802ea430212f00e0f7ff49cae1b
:10258c0003f00703002b0cbf06231a2303938ce6de
:10259c00e1b2029804f032fc06468288484b1b7864
:1025ac0003ea420313f00e0f43d0b846a14504d002
:1025bc00059b002b5fd0a1455dd8002c3ff4d5ae18
:1025cc00029b9a69c8f30f1002eb40013388b3f5f4
:1025dc00e06f08d3b6f802c0bcf1080f3ff6cdaee1
:1025ec000cf12f039bb2112b3ff42daf3ff621af13
:1025fc00052b3ff455af7ff6c8ae082b7ff6f3ae34
:10260c00092b7ff4fdae18f00f0f98d172880732aa
:10261c00d210284604f073fd73881a0905eb4205a5
:10262c0013f00f0f3ff466af2b782b80012304932c
:10263c0021e0b8462f80738813f00f0f05d0984413
:10264c0018f00f0f04bf6f800235738813f0f00f72
:10265c0009d03b4625f8027f0133dbb27288c2f306
:10266c0003129342f6dbb38803f00703002b0cbf75
:10267c0006231a2303930134a4b2a345fff43daf00
:10268c00002c85d0baf5805f82d3e6b20299304631
:10269c0002f0b2f980463146029804f0affb0646d0
:1026ac008288074b1b7803ea420313f00e0f7ff46a
:1026bc007daf18f00f0fbed1bce700bf8c6f0000d0
:0426cc00ef000020fb
:020000040000fa
:1026d00038b50388052b40f25b81991f89b2044607
:1026e000c388013b052b00f2e880dfe803f0032def
:1026f0004662acbba94b1b8813b148f2040363e0ec
:102700000c306289238943ea0243024604f042fb0b
:102710000346a34a0021116047f69572904205d8fe
:10272000a04a01211160a04a1060b0e047f6fa7299
:10273000904200f2f18000229a490a609a490a60a8
:10274000964a01211180bee0944b1b8813b148f2d8
:10275000040339e04289038943ea02420c3004f061
:10276000bdfc034628b98f4b00221a6047f6fd7363
:10277000d9e08c4a0021116085e0884b1b8823f04a
:1027800004039bb2022b02d048f204031ce04289ee
:10279000038943ea0243834a12689a4202d048f20c
:1027a000050311e00c3003f0c1ff03460028ddd023
:1027b00069e07a4b1a88012a30d047f6fe7148f258
:1027c0000403042a08bf0b4613f4004f00f0c38033
:1027d00000220521a171e2712381a272e272062317
:1027e0002370627004f10c01a38913f0ff0f00f055
:1027f000d18013f47f4f00f0cf8002235a0831f8c4
:10280000122012f0ff0f00f0b28012f47f4f00f0a0
:10281000aa800233dbb2202bf0d1aae0624d00f196
:102820000c01286804f092fb03462a685c490a60a0
:1028300047f69571884242d802442a6059490a688d
:1028400001320a6023e0554b1b8813b948f2040398
:10285000bae74089238943ea004004f02bfd47f69c
:10286000ff73b1e74d4b1b88012b04d0042b02d022
:1028700048f20403a8e704f10c02494b19682089c7
:1028800004f080fd034647f69572934217d8454af7
:1028900012680321a1710021e1712281c2f30f426c
:1028a00062819a1d2280414a12880c3a93423b4b26
:1028b0000cbf012204221a8011e048f2040347f6fb
:1028c000fa72934228d800220621a171e271a3f581
:1028d000ff43163b2381a272e27221706270344b77
:1028e0001d78002d49d0a388c3f30b03a380314a80
:1028f000127812f0070f02d12e4a012111702d49d2
:102900000a7843ea0233a38001320a70204601f0bc
:10291000abff0023184638bda3f5ff427c3a92b2c4
:10292000012a3ff651af1f490a68501c0860002178
:102930000420a071e1712281c2f30f42628106225c
:102940002270617047f6fd729342144b0cbf022255
:1029500000221a80c3e70025104b1d80204601f09d
:1029600083fb2b46d6e70133dbb21f2b01d807339d
:1029700023800a4b00221a80b1e74021204602f052
:10298000e3fc03460028c5d00b4b1c602b46c1e777
:102990000623bfe70023eae70123e8e7d40000208d
:1029a000e0000020d8000020d0000020dc01002042
:0c29b0002801002064010020dc00002051
:020000040000fa
:1029bc00f0b585b0044600238df80f30058905f07d
:1029cc007f05052d0fd00388072b40f23c81032d8a
:1029dc000dd0052d0bd0012d40f010818389052bd6
:1029ec0010d9022122e10388092b40f22a81a38904
:1029fc0098b2adf80c30b0f5805f77d205238df826
:102a0c000f30fee0924d00686168a26807c5a2898c
:102a1c002a8013f0ff030ed100258e4b1d8004f18c
:102a2c000c06e8b203f06afa26f8020f0135052d00
:102a3c00f7d1122022e0013bddb2864b1988002928
:102a4c0035d0854b1a880c3a92b204f10c038348aa
:102a5c000088adf80c0001397e4801800df10f01a2
:102a6c00009103a9284602f053fa7c4bbdf80c20c8
:102a7c001a80794b1b88063b181a80b220809df86f
:102a8c000f30002b40f0bd80238923f07f0242f0f1
:102a9c00020222816f4a12886281002a00f0d580de
:102aac0023f0ff0343f0820323818221bee02846fa
:102abc0003f024fa4ff48053adf80c30664b1988b0
:102acc00a1f10e0292b204f10e034000904209dd16
:102adc000c398eb2811a701e014491fbf6f15d48df
:102aec000180bbe75b4900200880b7e704f038faa7
:102afc00064600287ed0032d0bd0e789ffb204f0e8
:102b0c0093fc4388dbb29f4232d911238df80f30ee
:102b1c0077e004f089fc0368c4f80e3000233246d9
:102b2c001946bdf80c0001f005fc4b4b1b88053b0e
:102b3c000c3080b283420fdc0c229df80f30002b3e
:102b4c005fd1a372e3722280238923f07f030135c6
:102b5c001d432581022169e004f112033246002154
:102b6c00bdf80c0001f0e6fb00f10c0292b2e4e7b8
:102b7c003946304604f042f9036823618388a38206
:102b8c00e389dbb2e381304604f04efc4388c3f3a7
:102b9c000323083b9bb2012b0fd877b9304a166838
:102bac0050689168c4f81660c4f81a00c4f81e1076
:102bbc00127b84f822201c22bfe7002332463946c0
:102bcc00bdf80c0001f0b6fb234b1a88053a00f156
:102bdc0010039bb29a4201dc1022aee704f11603fb
:102bec0032463946bdf80c0001f0a4fb00f110028e
:102bfc0092b2a2e708238df80f3002e003238df880
:102c0c000f309df80f1000220a2323706270238965
:102c1c0023f07f0343f007032381a272e272114b6e
:102c2c0053f82130e3600b4b1a800221204602f04e
:102c3c0085fb034610b10c4b1c600023184605b0f5
:102c4c00f0bd0623fae70623f8e70221eee700bf02
:102c5c00dc220020c8220020dc010020a822002059
:0c2c6c00042a0020745b0000cc00002053
:020000040000fa
:102c780038b5804b1b78002b68d07f4bb3f90030f8
:102c8800002b6bd17d4b1b88c3f30714242b32d048
:102c980011d8123b9bb2012b00f2e680784b1b78cf
:102ca80033b300f037fd774b1b78002b00f0de8044
:102cb800754b1d8815e0482b12d1744b1b78002bdf
:102cc80029d0734b1b78002b30d0724b1b78002b0c
:102cd8003dd1714b1b88002b0cbf1a251b2526e004
:102ce8000025002c32d0634b00221a7055b327e020
:102cf80004f062fbd5e7624b1b784bb101f072fc24
:102d0800604b1b78002b00f0b3805f4b1d88e8e711
:102d180004f092fbf2e7604b1d88d5b95f4b0122a6
:102d28001a70544b00221a7008240be02d25544bbe
:102d38001b7883b104f07cfa44b14e4b00221a7020
:102d480044f010042946204600f070fd38bd1a25cd
:102d5800ede71b25ebe704f073fbebe7474b1b881c
:102d6800242b46d01bd8123b9bb2012beed8444be8
:102d78001b78002bead0424b00221a7004f058fb53
:102d8800054600282ed1464b01221a703b4b1c7871
:102d980014f00f04dad0374b00221a70d2e7482b10
:102da800d4d1374b1b78002bd0d0384b1b78002b55
:102db80040d03c4bb3f90030002bc7dd3a4ab2f99a
:102dc80000209a42c2db0023364a1380364a138019
:102dd8002b4a137004f032fb28bb304b01221a70c7
:102de800082415e0ff28b1d004f0e6fa00f092fcc0
:102df800ace7234b1b78002ba8d0214b00221a707c
:102e08002a4804f017fb38b9294b01221a70042408
:102e18000025184b1d7095e7ff2897d004f00cfb90
:102e280001f0e0fb92e7ff2890d004f009fb04f0e2
:102e3800fff98be7184b1b881bb1164b1b78002b2f
:102e480084d00f4b00221a7004f0f8fa20b9134b03
:102e580001221a700824dbe7ff283ff477af04f05b
:102e6800effa04f0e5f971e700253ae7012563e791
:102e7800012561e71c01002026010020ea0000204e
:102e8800ee000020f6000020f200002029010020ba
:102e98000801002024010020f00000202a01002061
:102ea800d201002002010020fa00002006010020c3
:042eb80030010020c5
:020000040000fa
:102ebc00704b1a8841f6fe739a4240f2d78070b577
:102ecc000446002004f0d0f8436813f4803f03d08c
:102edc0003f00c02042a01d0162070bd13f0020f6f
:102eec00fad00268130c223b9bb2de2bf4d8a2f56d
:102efc0080539bb2b3f5805feed2012004f0b4f89e
:102f0c00436813f4803fe7d013f00c0fe4d113f0b7
:102f1c00020fe1d003681a0c223a92b2de2adbd8f7
:102f2c00a3f580539bb2b3f5805fd5d2032c14d894
:102f3c00032c44d0504b1b78a34240f299804f4e47
:102f4c004d4d204604f090f8436833600134e4b2f0
:102f5c002b78a342f5d80020bfe7494b01221a7009
:102f6c00032004f081f80268130c406810f4803fd1
:102f7c003ad0002b3ed043490988994201d0032115
:102f8c0039e0013b9bb2432b3ad810f00c0f39d1ee
:102f9c0092b23d4b1978022905d03c4b1b889342c9
:102fac0007d0022127e0a2f5805293b2b3f5805fdf
:102fbc0021d210f0020f02d0314b00221a700220e5
:102fcc0004f052f80268130c406810f4803f42d0b1
:102fdc00002b47d02e490988994215d00321022095
:102fec0000f0c0ff1d2078e7264a12881343e6d074
:102ffc00032100e00421032000f0b4ff1e206ce745
:10300c000321f8e70421f6e7013b9bb2432b2bd8b5
:10301c0000f00c03042b01d00421e0e792b21a4b10
:10302c001978022905d01b4b1b88934207d002212b
:10303c00d5e7a2f5805293b2b3f5805fcfd2c0f33f
:10304c008012154b1a7010f0020f3ff473af0c4b3b
:10305c0000221a706ee70e4a128813433ff46aafcf
:10306c000321bce70421bae70321b8e71420704719
:10307c00002032e72201002036010020702a0020b7
:10308c00e80000201e010020ef0000203801002085
:0c309c00f0000020fc00002032010020a9
:020000040000fa
:1030a8002de9f04f87b0039003a803f0c1fa002878
:1030b80003da002007b0bde8f08f039b1b095d1ef3
:1030c800202d0fd9023b5e4ab3f5007f35bf02ebd6
:1030d800d30302ebd31313f8045c13f8045c34bf76
:1030e800013511350123a5f12001c5f1200203faac
:1030f80001f923fa02f203fa05f8d8f1000849eabf
:10310800020969eb4909cde90089dff84081dff858
:1031180030914746d8e90023009902ea010a01994b
:1031280003ea010b5aea0b0342d1039b05a81033ab
:10313800059303f0dbff18b9424b0c221a60b9e77c
:10314800d8f80852a84206d0059b103b05930123e6
:1031580000f110058360059bea18012143f0010383
:10316800b5f1080442f8083c42f8041cc7f80822e4
:1031780045f8043c9dd0204603f096fc88b155f8ec
:10318800083c55f8041c23f00103e31a5a6822f09e
:1031980001020a445a6055f8041c21f001016250ea
:1031a8001c462046039903f097fc04f1080081e7c8
:1031b8005446254bbaf1000f34d1cbf1000000ea98
:1031c8000b00434309ebd36393f83c602036304649
:1031d80003f0e8fe731c57f8334007ebc303083bc2
:1031e8009c4297d0272e26dd0235ae4201dc3f2ec9
:1031f80021d16268039922f00102551a284603f08a
:103208003ffb864217d1e068a6686318d8609e60c5
:1032180083609868c36041f0010060505d60a5500c
:103228006060bee7caf100002040434309ebd36366
:1032380093f83c60cbe73146204602f035feb0e714
:10324800545e00009c2a002029e66b07002300201a
:020000040000fa
:1032580030b583b04ff48033019302f04bfc484bf8
:103268001b78002b39d103f0b9fd044610f0010f8b
:103278004bd0444b1b78002b37d010f0100f5cd18b
:10328800404b1b78002b58d13d4b1b781bb3019b3f
:1032980013f4803f54d014f4007f59d1019b13f4e8
:1032a800003f60d0384b1b7883b902f071fd364b74
:1032b8001b78002b5cd0019b43f000730193042220
:1032c80040f60c010deb020002f094f903f086fdc4
:1032d80010f4807f50d103b030bd042240f60c01b9
:1032e8000deb020001f0bcfebde7002500950422ad
:1032f8004ff49071684601f0b3fe24f01104a4b2b3
:1033080029469df80000fef705fa14f0100fb7d013
:103318001c4b1b788bb91d4b187810f0100fb3d1cc
:1033280020f01003012bafd024f01004a4b2002128
:1033380000f00f00fef7eef9a2e7fff799fca3e70c
:10334800124b1878002100f00f00fef7e3f9a2e70e
:103358000f480023036004220e4b198802f04af933
:1033680001f016fc9ae7084b1b78002baed09ce7bf
:10337800019b23f00073a1e700f076fdabe700bfe7
:10338800d20100201c010020f0010020ef000020e5
:083398000c010020e6010020f9
:020000040000fa
:1033a000222913d8dfe801f07f144b6512121212a4
:1033b00012121212121212121212121212121212ed
:1033c0001212121212121212121239001220704727
:1033d00041f63243984213d041f63343984266d1c6
:1033e000394b9b8913f0020f63d0384b1b88002b9d
:1033f00061d1374b1b88002b0cbf12200020704777
:10340000324b1b88002b50d0324b9b8903f00203b8
:10341000002b0cbf12200020704741f63343984226
:1034200001d012207047284b9b8913f0020f44d023
:10343000264b1b88002b0cbf12200020704741f642
:10344000324398420cd041f63343984237d11e4b59
:103450009b8903f00403002b0cbf1220002070474f
:103460001c4b9b8903f00403002b0cbf122000208f
:10347000704741f6324398420cd041f633439842ac
:103480001fd1114b9b8903f00803002b0cbf1220a6
:10349000002070470f4b9b8903f00803002b0cbfe3
:1034a0001220002070470020704712207047122021
:1034b0007047122070471220704712207047122068
:1034c00070471220704700bff8010020f000002074
:0834d0001e0100203c02002057
:020000040000fa
:1034d80030b583b000230193042211460deb02009e
:1034e80001f0befd019b2a4c1a0a22701b0c9b029c
:1034f80003f6ff73274a138003f08efa23784bb143
:103508000024234de0b203f0d7f901342a78e3b25e
:103518009a42f7d801f00cfa00241f4b1c701f4b7d
:103528001c701f4b1c701f4b1c701f4b1c701f4bbb
:103538001c701f4b1c701f4b1c801f4b1c801f4b8b
:103548001c801f4b1c801f4b1c801f4b1c801f4b5b
:103558001c701f4b1c701f4b1c801f4b1c801f4b6b
:103568001c801f4b1c8001201e4b1870214600f048
:103578005df91d4b1c801d4b1c701d4b1c7003f00e
:10358800b5f903f04bfe204603f042f903b030bd15
:10359800360100202201002028010020ee00002032
:1035a8001c010020240100202a01002030010020f5
:1035b800320100202e010020ec000020f400002041
:1035c800fe0000202c010020040100202901002019
:1035d800f6000020f200002006010020f000002084
:1035e8001e010020ef000020ea0000203701002023
:0435f800310100207d
:020000040000fa
:1035fc0000297ad02de9f0470c46404b1e68b6f5f1
:10360c00802f75d23e4b1b680b44b3f5802f5cd8d2
:10361c00174605463b4b1b6801eb0308b8f5005fea
:10362c0059d9c3f50052dff8e0a0caf80020dff842
:10363c00dc90014609eb030003f061fddff8c48068
:10364c004ff40053c8f800304946304602f044feaf
:10365c00d8f80010294b1a680a441a60284a1368d3
:10366c000b441360daf800100023c8f80030641a19
:10367c00a4b222462944484603f041fdc8f8004054
:10368c00204b1b68b3f5005f0dd0002f33d1b3f581
:10369c00005f08d2c3f500521b490a60ff211b488a
:1036ac00184403f009fe154c1849206802f014fe6a
:1036bc0014490868226802442260114a13680344c2
:1036cc00136000200860bde8f0870d4b00221a60e3
:1036dc0048f20300f7e70a4601460c48184403f089
:1036ec000efd084bc3f80080cae748f20d00704786
:1036fc0048f20d00e7e70020e5e700bf782a00203c
:10370c007c2a0020802a0020842a002088020020a5
:020000040000fa
:10371c0010b582b00020374b187003f0cbf80120a5
:10372c0003f0c8f8344b1868e8b100f097fc334b41
:10373c001868f0b1304b1b6898421ad017e000f0b3
:10374c008dfc204603f034fb0028f8d12c4c01e012
:10375c0000f084fc204603f02bfb0028f8d103f08a
:10376c00c3f802b010bd254b186800283cd000f0ff
:10377c0075fc244b186848b11f4b1b68984205d048
:10378c001e4b1b68834201d000f068fc01f014fc56
:10379c0003f04efc00241c4b1c60174b1c60194b97
:1037ac001c60164b1c60194b1c700194042240f6d3
:1037bc000c010deb020001f051fc019b23f0007396
:1037cc000193042240f60c010deb020001f010fff6
:1037dc000f4b1c700f4b1c700f4b1c700f4b1c7045
:1037ec000f4b1c700f4cace7064b18680028c7d168
:1037fc00cce700bfd2010020f4010020d80100204a
:10380c0068010020e0010020e8010020f001002008
:10381c00d1010020e4010020ed010020ec0100208a
:08382c00640100209c01002052
:020000040000fa
:1038340030b583b004460d463d4b1b7883421cbf14
:103844003b4b18704ff6ff7399421bd1384b1b78d2
:10385400019304224ff498710deb020001f0ccfea9
:1038640014f0100f22d0a5f11a039bb2182b30d8f4
:10387400304a22fa03f313f0010f2ad02e4b01220f
:103884001a7016e0019104224ff49a710deb0200b4
:1038940001f0b2fe264b1b78019304224ff4987179
:1038a4000deb020001f0a8fe002dd9d1224b00221d
:1038b4001a7021490b7843f010020a7004f00f04c7
:1038c400013c072c13d8dfe804f00f222e26121235
:1038d400122a1a4b1b78012bd0d01b2d164b0cbf70
:1038e40002220d221a70e4e7154b002119701449c5
:1038f4000b7843f010030b7043ea02230093042275
:103904004ff49c71684601f077fe03b030bd0c4b58
:103914000d211970ebe70a4b01211970e7e7084bf9
:103924000f211970e3e7064b0e211970dfe700bf82
:10393400ef0000200100080137010020f6000020fc
:04394400000100205e
:020000040000fa
:1039480038b5364b1b7813b902f02afc38bd03f0a2
:1039580039fb10f4806f1dd0314b1b782bb1314be4
:103968001b7813b1304b00221a80304b1b8d13b1da
:10397800013b2e4a13852d4b1a8d2d4b1a852d4b45
:1039880001221a702c4b00221a802c4b1b7863b32f
:1039980001f01efd254b5b88012b38d0284b1b7886
:1039a8002bb1234b5b88012b34d0222b32d003f070
:1039b80009fb10f4806fc7d01c4a538d01339bb2aa
:1039c80053851b4a53851f4d1f4c042229882046c6
:1039d80001f026fc29881d4b1b8819440439042250
:1039e80089b2204601f01cfcaee7164d164c0422a5
:1039f8002988204601f014fc2988144b1b88194497
:103a08000439042289b2204601f00afcc2e702f018
:103a1800ebffc3e702f0e6f8c9e700bf3101002079
:103a28000801002029010020340100203c02002068
:103a3800f801002024010020ec0000202a010020c9
:103a480030010020fc0000200c010020f0000020c4
:020000040000fa
:103a58002de9f04f83b0009001913f4b1c8884b34f
:103a68004ff000099a464ff0010bc84618e01d4672
:103a7800b4693146e8b200f0c1ffc0f30f1014f882
:103a8800104044441ffa84f86b1c9bb2bd42eed12f
:103a980009f10109baf800201ffa89f39a420fd9ef
:103aa8001ffa89f30aeb4303588803f05bfa0646ca
:103ab80000283dd083691f88002fe9d05d46d7e7ed
:103ac80044460734c4f3cf08244b1888002840d054
:103ad8004ff0000a5546dff884b018e01c46d6f8c7
:103ae80018903146e0b200f089ffc0f30f1019f8c2
:103af80010301d44adb2631c9bb2bc42eed10af13a
:103b0800010abbf800201ffa8af39a420ed91ffa5d
:103b18008af30beb4303588803f024fa0646a8b14e
:103b280083691f88002fead00124d8e7002003e02a
:103b38004ff0000845462520eb1ddb10009a138046
:103b4800019ba3f8008003b0bde8f08f0025242076
:103b5800f2e70546f0e700bf8c2a0020902a0020f3
:020000040000fa
:103b680008b5354b00221a80344b1b78002b3dd00a
:103b7800334b1b781bb1334a138801331380324b04
:103b88001b883bb3314a128893421dd2304b1b88a5
:103b9800002b41d02f4b1b8d2f4a12899a4219d3e3
:103ba80003332c4a138515e00023284a13802b4a37
:103bb80013850fe002f016f8294b1b88012b15d14d
:103bc800204b00221a8011e0214b1b888bb1013257
:103bd8001e4b1a8002f008ff194b1b7833b1204b9b
:103be8001b881bb1174a12889a42e3d002f0d8fa10
:103bf80008bd1c4b1b88002be9d003f0e3f910f437
:103c0800006fd1d1114b1b880f4a12889a42e1d319
:103c180001330e4a1380dde7124a1288002ad9d0f0
:103c2800002bd7d10d4b1b8d0b4a12899a42e4d336
:103c380003330a4a1385e0e7f40000202901002035
:103c480030010020f800002020010020340100206d
:103c5800f00000203c020020202a0020f80100206b
:083c68001a0100201e010020da
:020000040000fa
:103c7000534d206f757470757420706172616d653d
:103c80007465720053796e6368726f6e697a6174dd
:103c9000696f6e2054797065004379636c652054b8
:103ca000696d65000053796e6368726f6e697a6141
:103cb00074696f6e20547970657320737570706fbe
:103cc00072746564004d696e696d756d204379632a
:103cd0006c652054696d650043616c6320616e649e
:103ce00020436f70792054696d650000476574202a
:103cf0004379636c652054696d650044656c617936
:103d00002054696d650053796e6330204379636c8c
:103d1000652054696d6500534d2d4576656e7420a0
:103d20004d6973736564004379636c652054696df4
:103d30006520546f6f20536d616c6c005368696629
:103d4000742054696d6520546f6f2053686f7274ce
:103d50000000000000000000000000000000000063
:103d600000000053796e63204572726f7200ff008d
:020000040000fa
:103d7000534d20696e70757420706172616d657449
:103d800065720053796e6368726f6e697a617469e7
:103d90006f6e2054797065004379636c65205469b7
:103da0006d65000053796e6368726f6e697a617435
:103db000696f6e20547970657320737570706f72bf
:103dc000746564004d696e696d756d204379636c2f
:103dd000652054696d650043616c6320616e6420e9
:103de000436f70792054696d650000476574204306
:103df00079636c652054696d650044656c61792058
:103e000054696d650053796e6330204379636c6546
:103e10002054696d6500534d2d4576656e74204db7
:103e20006973736564004379636c652054696d65db
:103e300020546f6f20536d616c6c00536869667419
:103e40002054696d6520546f6f2053686f72740041
:103e50000000000000000000000000000000000062
:103e6000000053796e63204572726f7200ff00008c
:020000040000fa
:103e700030b583b0002301930422354b19880deb34
:103e8000020001f0f1f8019ca3b20193314b1b78c1
:103e9000012b0ad0304b1a78304b1b7813431dd0be
:103ea0002f4b01221a7003b030bd0a20fff7fcf837
:103eb00005460028eed00021c0f80210042303803c
:103ec000838823f4706383800123c38007230381e5
:103ed00001f03afa284600f0c7f8dbe7204b002251
:103ee0001a70204b1d882846fff7def81e4b18601d
:103ef000d8b1a21d92b2aa4228bf2a46144b1988f3
:103f000001f0b2f800230093042240f60401684651
:103f100001f0aaf8009b0093009b13f4006f08d1f6
:103f2000114b186801f0aefdbde70d4b01221a7070
:103f3000b9e70e4800230360054b1988094b1b881d
:103f400019440439042289b201f08ef8e8e700bf71
:103f5000d4010020d0010020d1010020ed0100207b
:103f6000e4010020ee010020e80100200c01002007
:020000040000fa
:103f700038b505460c4603f055fa08b30246611ef3
:103f8000c9b201eb85005388dbb243ea00239bb240
:103f90005380022d15d0032d39d00021117151719c
:103fa0009171d171002111706ff05f01517023f098
:103fb000ff032a4909780b435380104601f024fd82
:103fc00038bd0329eed8dfe801f002020c11002110
:103fd0001171102151714ff0ff3191711f21d17179
:103fe000e0e71f4909889180d180dbe71c490988f7
:103ff00039b100210a201071517101209071d171e5
:10400000d0e70021117151719171d171cae7032973
:10401000c8d8dfe801f002020c1100211171102153
:1040200051714ff0ff3191711f21d171bae70d49e4
:1040300009889180d180b5e70a49098839b1002102
:104040000e201071517101209071d171aae70021e9
:10405000117151719171d171a4e700bfef0000207f
:08406000f00000201e01002009
:020000040000fa
:104068002de9f84300286ad050f8043ca0f1080470
:1040780023f00106a719a259934200d0ffde7a68ff
:1040880023681340da070fd4204602f00dfd0028fc
:1040980057d1384602f0e8fd0028f0d07b6823f0bd
:1040a80001031e441f44eae746f0010363603046fb
:1040b8003b6002f0e5fb054602f074ff23687a686e
:1040c8001340db07e0d5dff88ce0dee90089c5f1b5
:1040d800200ca5f1200228fa05f009fa0cfc29faaf
:1040e80002f240ea0c001043012100ea0102002319
:1040f8001343c5f120007346a5f1200212d121fa1d
:1041080000f001fa02f2a94042ea00021ebfdef8fe
:1041180000000143cef8001022b1def804100a4373
:10412800cef80420681c03ebc003a3f10802666004
:104138003e60a2605a68e2605c60e3689c60bde82b
:10414800f883236823f00103e41a636823f001036a
:084158001e449ee70023002035
:020000040000fa
:1041600038b5059c602955d000293cd0258905f437
:104170007f45258100284fd1e088c0f30b0040f433
:104180004050e080402926d104990139032910d8f4
:104190000a23237000236370049bdbb2c3f1040382
:1041a00042f0030242ea83022a4342f040022281a3
:1041b00044e004998b4228bf049b0a339bb22380be
:1041c000049ba381049bc3f30f43e38142f04102ac
:1041d0002a43228132e00a2323700023637045f0d2
:1041e000600222812ae0b8b9e388c3f30b0343f4e9
:1041f0004053e3800a23237000236370238943f034
:10420000200323811ae0e388c3f30b0343f44053f4
:10421000e38013e00028f6d00a23237000236370a4
:10422000e388c3f30b0343f40053e380238943f093
:1042300080032381054b53f82030e36002212046a0
:1042400001f082f808b1024b1c6038bd745b0000bd
:04425000cc0000207e
:020000040000fa
:1042540010b582b02a4a202414800023538053606e
:1042640044f21f00908127491161536193831362c3
:104274001385538582f84030234a14805380536059
:10428400908111615361938313621385538582f87e
:1042940040301e4a137002f07bfc20bb00231c4af2
:1042a40013701c4a13701c4a13801c4a13701c4a56
:1042b40013601c4a13601c4a13601c4a1360019368
:1042c400042208210deb020000f0ccfe019b13f048
:1042d400080f0bd0164b00221a70164b4ff47a625b
:1042e4001a6002b010bd02f0effdd7e7104b0122b7
:1042f4001a7004224ff411610f4800f0b3feece78a
:104304003c020020a0860100f80100208002002069
:10431400c0220020c1220020f2220020f42200202a
:10432400d0220020ac220020bc220020d422002075
:0c43340018010020040000200000002000
:020000040000fa
:104340002de9f04184b01e465469e9b10f469389c6
:10435000c3f30323072b17d0092b24d0002e5dd0e5
:10436000304b6c460fcb07c4237039460df1090062
:1043700002f018fa6b4607cb30607160b2601b78b0
:1043800033734ff00c080ae0204602f0a3ff1ffa37
:1043900080f826b142462146304602f0b6fe40463d
:1043a00004b0bde8f0811ffa81f8204602f092ffc8
:1043b00001302518235c0233dbb2012bced9b8f1d2
:1043c000010f16d0284602f085ff01300544022473
:1043d0002b780233dbb2012bc0d9a04509d00134c0
:1043e000a4b2284602f076ff01300544a045efd282
:1043f000b4e7284602f06eff1ffa80f846b1b8f124
:10440000000fadd042462946304602f07efec6e798
:10441000b8f1000f08bf4ff00c08c0e74ff00c08d0
:08442000bde700bf042a0020e3
:020000040000fa
:10442800314b00221a7403f50063304a9a621a4627
:10443800536813f0100ffbd12d4b4222c3f8842090
:104448001a46d2f8843013f0400ffad0294b0022d4
:104458009a6377225a631a46d36b13f0040ffbd181
:10446800244b022283f830201a46d36b13f0020f34
:10447800fbd1204a136c03f00303032bfad11e4b24
:1044880001225a711a46d37813f0010ffbd0184b4a
:104498001a4a1a621a46536813f0040ffbd1144bd8
:1044a800174a5a621a46536813f0080ffbd1104b8b
:1044b8004122c3f890201a46d2f8903013f0400fea
:1044c800fad00b4b4122c3f8a4201a46d2f8a430e4
:1044d80013f0400ffad0084b6ff07f421a614cf28c
:1044e800ff725a61704700bf001400400601300097
:1044f800001c0040001000400008004007010100b7
:0445080007010200a5
:020000040000fa
:10450c002d4b1b78002b56d02de9f04782b0174667
:10451c000e468146294b1d682b89dbb203f0e00a5d
:10452c0003f01004baf1400f0fd04ff00008224beb
:10453c0000221a7001950096434622465146484681
:10454c00fff708fe02b0bde8f0871d4bb3f8008002
:10455c00a8f110081ffa88f888450bd34b1e032bc3
:10456c0020d805f10c009042e1d00a46394602f001
:10457c00c6fddce70123134a1370134a1370134b67
:10458c001c70134b1960134b60221a70124b1f6076
:10459c004246394605f1100002f0b1fd0f4bc3f84d
:1045ac000080c4e705f110009042c0d00a4639469d
:1045bc0002f0a5fdbbe77047a42a0020cc22002006
:1045cc00dc010020b5220020c2220020b4220020f1
:1045dc00b8220020c3220020d4220020b0220020c8
:020000040000fa
:1045ec0008b5214b1b88002b35d1204b1b88002b89
:1045fc0035d14ff2f33002f009f900231c4a137045
:10460c001c4a13701c4a13701c4a13701c4a1370fa
:10461c001c4a13801c4a13801c4a13801c4a1380aa
:10462c001c4a13801c4a13801c4a13801c4a13809a
:10463c001c4a1385538582f840301b4a13855385d9
:10464c0082f84030194a1380194a1370194a1370b2
:10465c00194a137008bd022002f02cf9c5e703209b
:10466c0002f028f9c5e700bff00000201e01002071
:10467c002401002031010020290100200801002024
:10468c00250100202001002034010020fe00002024
:10469c00f40000202c010020040100201a0100204d
:1046ac00f80000203c020020f8010020020100204c
:0c46bc00320100203001002080020020ac
:020000040000fa
:1046c80008b5294b1b78002b4cd0284b1b78002ba6
:1046d80035d0274b1a78274b1b78134333d102f078
:1046e80078fe02f081f9244b1b7813bb02f075feab
:1046f80029e002f073fb10f4806f0cd01c4b0122f0
:104708001a701e4b00221a801d4b1b78002be6d016
:1047180000f05efee3e71b4b1b88002bdfd110f493
:10472800006fdcd0124b01221a70144b00221a8041
:10473800d5e701f057fad9e701f0f8fa08e00d4b90
:104748001b78002bd5d0104b1b68b3f57a6ff3d2ca
:10475800fef77efd00f08afb01f04aff0b4b1b6859
:1047680003b1984708bd00bfbb29002031010020d4
:10477800240100202901002030010020ec00002045
:104788002a010020f0000020040000206c00002016
:020000040000fa
:10479800274b1b78002b4ad0264b1b78002b46d082
:1047a800254b1b8813b3254a128893421bd8244be8
:1047b80000221a70234b1b788bb97047204b0022bc
:1047c8001a70f7e71f4b01221a701f4bb3f900301c
:1047d800002b2cdd1d4a1388013313807047194bb9
:1047e80000221a7070470132144b1a80144b0122b0
:1047f8001a70174b1b8833b1164a12889342ddd9b9
:104808000132144b1a80144b1a8d144b1b899a428f
:10481800d8d30c4b1b7853b10a4b00221a700a4ba1
:10482800b3f90030934202dd084b1a807047704795
:104838002901002030010020fe000020f4000020a3
:10484800080100202501002002010020fa000020b4
:10485800040100202c0100203c020020202a002016
:020000040000fa
:10486800f0b583b02a4b1b7803f00f03012b4ad015
:10487800284b1b78002b48d0274b1c781cb10724e9
:10488800204603b0f0bd05460788ba1d92b2234bf7
:10489800198800f0affe00230193042240f60c01b2
:1048a8000deb020000f0dcfb019b0193019b13f46c
:1048b800006f12d11a4b1e88b21fd21b92b2194b2d
:1048c80000211960032a14d9144b1988314404397a
:1048d800042289b2134800f08dfe134b1b6813b1f4
:1048e800124b00221a60104b1d600b4b01221a70ec
:1048f800c6e7c2f10402b91d891005eb810118460b
:1049080002f0fffbe0e7f024bae7f024b8e700bfc5
:10491800ef000020d2010020d1010020e601002094
:10492800dc0100200c010020e0010020e80100204b
:020000040000fa
:1049380010b582b0204b22221a80204b4ff480728f
:104948001a804ff480531e4a13801e4a13801e4b50
:1049580000241c805c800a229a801c4b1c805c808e
:104968009a801b4b1c601b4b1c601b4b1c601b4b19
:104978001c601b4b1c700194042240f60c010debcb
:10498800020000f06dfb019b23f0007301930422e9
:1049980040f60c010deb020000f02cfe114b1c70d0
:1049a800114b1c70114b1c70114b1c70114b1c705f
:1049b800114b1c7002b010bdee010020dc0100207c
:1049c800d4010020e60100209c010020680100209d
:1049d800e8010020f4010020e0010020d8010020b7
:1049e800f0010020d2010020d1010020e4010020c4
:0c49f800ed010020ec0100206401002013
:020000040000fa
:104a0400f0b48f89c7f30327002856d1f0bc704750
:104a1400062b43d004d8032b40d0042b04d112e03e
:104a2400082b10d90b2b39d0624522d26388184445
:104a340080b21ee0b3f5187f30d0f5d3a3f262251f
:104a4400adb2012df0d800f11f054ff6e0702840fb
:104a540062450ed2a3f262239bb2012b9abf6388f4
:104a6400c018203080b204e06388184480b210304b
:104a740080b2013292b206366245c7d8082f0c695b
:104a84000cbf0634a41923881f2b07d0c0d92f2ba1
:104a9400d9d0cfd8202bd6d02e2bc5d100f10f05dd
:104aa4004ff6f07028406245e3d20b2bdcd0b3f50f
:104ab400187fdcd1d8e70020a8e78446072ffad076
:0c4ac4001ffa8cfc062610200122d7e708
:020000040000fa
:104ad000050008000700060010000f000700200076
:104ae000070000002000000006001000070007007b
:104af0002000070007002000070000002000000041
:104b0000060010003f0007002000070007002000fb
:104b10003f0006001000070006001000070000001c
:104b20001000000000001000000000002000000045
:104b30000000200000000000200000000000200015
:104b40000000000000000000000000000000000065
:104b50000000000000000000000000000000000055
:104b60000000000000000000000000000000000045
:104b70000000000000000000000000000000000035
:104b80000000000000000000000000000000000025
:084b900001000100070000bf55
:020000040000fa
:104b980008b52a4b00221a70294b186810b1294b06
:104ba8001b68c3b1284b1a68254b1a60254b186837
:104bb800a0b1fff755fe234b00221a60234b1b7848
:104bc80043b113f0010f11d113f0020f1cd113f0f0
:104bd800400f29d108bdfff743fae3e71c4802f06c
:104be800e9f80028ead0fff73bfee7e7194b186819
:104bf80002f074fb02f026fb0028ebd0134a13786e
:104c080023f001031370e5e723f002030f4a137042
:104c1800104b186801f0a8fb0028dbd00b4a13786a
:104c280043f002031370d5e723f04003074a1370db
:104c3800084b186802f00cfacce700bfd10100203d
:104c4800f4010020d8010020e0010020ed0100203f
:084c580068010020e8010020c2
:020000040000fa
:104c6000f0b583b00024214b1c60214b1c60214b0c
:104c70001c60214b1c60214b1c60214b1c60fef70b
:104c80002bfcfff7e7fa1f4b01221a701e4b1c701a
:104c90001e4b1c601e4b1c601e4b1c60009401943c
:104ca0004ff47a7404264ff411651f4604e09a42cb
:104cb00088bf3b60013c16d032462946684600f06a
:104cc000b3fa3246294601a800f0aefa009b019ad9
:104cd000934288bf02f1ff32d31a01933a68002a47
:104ce000e5d13b60e6e7002003b0f0bdc400002042
:104cf0006800002064000020c8000020c0000020e0
:104d00006c000020bb290020080000200c000020bf
:084d10007400002014000020d3
:020000040000fa
:104d180038b5002002f0aaf9224c03681b0c238046
:104d2800214d03682b80012002f0a0f903681b0cb9
:104d380099b21e4a118002681d4802802d8892b2dd
:104d480020882844904202dd13449d4228db0c3918
:104d5800184b1980002001f0fdfd012001f0fafd3b
:104d6800104b1888fef79cf9134b186040b10024cb
:104d7800124b1c70fff774f90f4b1c60204638bdae
:104d88000e4b01221a700a20fef78af9002814bf78
:104d980000240224fff764f9074b00221a60ede7ac
:104da8001624ebe7ee010020d4010020dc010020ee
:104db800e6010020e4000020e8010020d0010020e6
:020000040000fa
:104dc80070b582b0002300930425274c2a46694613
:104dd80043f2640000f090f9009ba342f6d100234f
:104de80000930422694643f25c0000f06bff9326af
:104df80004254ff4017401962a46214601a800f0c3
:104e0800f9fb002301932a46214601a800f028f95e
:104e1800019b932befd10024019404224ff40171dc
:104e28000deb020000f0e6fb40f2011300930422b0
:104e3800694643f2540000f045ff01230093042221
:104e4800694643f25c0000f03dff0422694643f2e4
:104e5800580000f051f901f0e5ff01f0f3ff02f00e
:0c4e68006ff9204602b070bd2143658741
:020000040000fa
:104e740010b582b0204b1c68002c33d01f4b1b781c
:104e840000931f4b1b681f4a12681f4909781f486b
:104e94000088a0470446ff2824d01d4b1b78013b03
:104ea400032b10d8dfe803f00a022020194b1868fe
:104eb40020b1fff7d7f8174b00221a6000221146e1
:104ec4002046fff721fb0023114a13700f4a138079
:104ed4000d4a13700b4a1360094a1360074a137092
:104ee400054a136002b010bd054b1a68054b1968da
:104ef400fff70afbe7e700bfbc220020c122002025
:104f0400ac220020d0220020f4220020f222002033
:084f1400c0220020d42200207d
:020000040000fa
:104f1c002de9f04f83b08246019116469b460b88d3
:104f2c00b3f5805f0bd0234b1c6894b1012e3ed996
:104f3c004ff0200808fa0af81ffa88f823e002f06c
:104f4c00dff904460028f1d10c9b13b11b230c9afa
:104f5c001370304600244ff6ff7321e00135ebb29d
:104f6c0099450bd3e9b2204601f048ff838818ea33
:104f7c00030ff3d02bf8027b023eb6b26468002c10
:104f8c00e7d0012e0ad92789b7f5805ff6d3baf19d
:104f9c00000fefd094f80c900025e3e730462389fe
:104fac00019a1380034b1c6003b0bde8f08f3046b0
:084fbc00f5e700bfc42200204c
:020000040000fa
:104fc40008b51a4b1b78012b1ed00023184a137006
:104fd400184a1370184a1380184a1370184a136039
:104fe400184a1360184a1360104a1370174b186854
:104ff40020b1fff737f8154b00221a600023144a3a
:105004001360144a137008bd134b18680028dcd0d1
:10501400124b1b689842d8d0114b1b689842d4d0cd
:10502400fff720f80c4b00221a60cee7a42a0020d8
:10503400c0220020c1220020f2220020f4220020fd
:10504400d0220020ac220020bc220020d422002048
:10505400b0220020c3220020cc220020f401002032
:04506400d80100204f
:020000040000fa
:10506800002a48d02de9f04383b005460e4617467e
:105078004ff004084ff001092ae0032c04d8012c52
:105088008cbf022401240ae002f0a3f9424601a9d8
:10509800304600f031f802f0a0f909e04c4602f081
:1050a80098f9424601a9304600f026f802f095f931
:1050b80001aa002312f8011b05f8011b0133dbb21a
:1050c800a342f7d3a4b22644b6b23c1ba7b27fb121
:1050d80016f0010fe2d13c46042f28bf0424e4b2a5
:1050e80016f0020fc9d0012c8cbf02240124d6e788
:0850f80003b0bde8f08370472e
:020000040000fa
:105100002de9f04385b0044688461546b0f5405f6a
:105110002cd2012a01d940f480441b4f8022002167
:10512000384602f0cff800230193029303930b2338
:105130008df8043006238df80630144b93f8216067
:10514000134b5b68d3f80c9045ea04237219394677
:1051500001a8c84704f0030434442a4657fa84f1ee
:10516000404601f0d2ff05b0bde8f08302f0030332
:10517000012b05d0022b05d0032b08bf0135cce74e
:105180000335cae70235c8e7c42800209429002067
:04519000142a0020bd
:020000040000fa
:1051940030b49489c4f30320e4b213b307283ad09b
:1051a400082813d0002064b115690123002003eb03
:1051b400430205eb4202528810440133dbb29c42a5
:1051c400f5d20730c00849bb023027e013691b89b8
:1051d4009269107800fb03f00730c008f1b902307f
:1051e4001ce007280dd0c1b108280fd08c4217d37a
:1051f400136901eb410103eb410148880730c010fa
:105204000ce0136958880730c01007e01369188947
:105214000730c01002e0002000e0012030bc7047dd
:045224000020fbe784
:020000040000fa
:105228002de9f04383b0b1f5805f15d305460e46ee
:1052380017469ab14ff004084ff0010928e0032cf3
:1052480004d8012c8cbf022401240be0424601a99a
:105258003046fff751ff0ae000f000f903b0bde85f
:10526800f0834c46424601a93046fff745ff01aaa4
:10527800002312f8011b05f8011b0133dbb29c4225
:10528800f7d8a4b22644b6b23c1ba7b2002fe5d08b
:1052980016f0010fe5d13c46042f28bf0424e4b2e0
:1052a80016f0020fcbd0012c8cbf02240124d9e7c1
:020000040000fa
:1052b80008b51b4b98471b4b9847eff3108172b604
:1052c800194ad2f8883043f47003c2f88830bff323
:1052d8004f8fbff36f8f01b962b6144c2023636000
:1052e80000f044f9124b23f07f030f4a9360114bef
:1052f8009847a36823f00103a3602346da6812f0f5
:10530800010ffbd1094b5a6842f004025a6001228e
:105318009a60094b9847094b984701f09dfffee7b3
:10532800eb730000eb73000000ed00e0006000414b
:1053380000000000f95d0000eb730000eb73000053
:020000040000fa
:1053480038b51f4b1b7803f00f03012b36d0838829
:10535800c3f30b0383801b4a127812f0070f02d1a4
:10536800184a012414700d460446164a127843ea76
:1053780002338380fff774fa48b9124a137801336d
:10538800137069b2002911db0023184638bd0e4995
:10539800204601f0aafc034618b165f07f0149b226
:1053a80005e0084a137801331370eae70023074a37
:1053b80001f07f01107801431170e6e7f023e4e77c
:1053c800ef0000206401002068010020ed010020aa
:020000040000fa
:1053d80038b51a4b9b8b1a4a928b134313f0010f63
:1053e8002ad0002001f080f90546164b1860164bac
:1053f80001221a70154b00221a6000f0f9fe144cb5
:10540800144b1a88144b19882046fff709ff2046c9
:1054180001f0c6ff094b9b8b094a928b134313f08b
:10542800010f08d0284601f05ff9044b5b698342fd
:105438003cbf024b586138bd0025e0e73c02002024
:10544800f801002074000020080000201c00002043
:0c54580020000020f0000020fc000020dc
:020000040000fa
:10546400002a40d02de9f04383b005460e46174686
:105474004ff004084ff0010922e0032c04d8012c5a
:105484008cbf0224012406e0424601a93046fff7fe
:1054940035fe05e04c46424601a93046fff72efe94
:1054a40001aa002312f8011b05f8011b0133dbb22a
:1054b4009c42f7d8a4b22644b6b23c1ba7b27fb133
:1054c40016f0010fe6d13c46042f28bf0424e4b2b1
:1054d40016f0020fd1d0012c8cbf02240124dae78c
:0854e40003b0bde8f08370473e
:020000040000fa
:1054ec001f2932d870b588b00c461e460a460146b4
:1054fc00684601f004fe002208ab234403f8202c7c
:10550c00164b186820b3acb19df80020144b1b78d7
:10551c009a4220d16b461249621e13fa82f29342d0
:10552c0008d013f8015f11f8014fa542f7d048f2eb
:10553c00010008e0b04238bf86b2324609490c98e7
:10554c0001f0ddfd304608b070bd48f20300704735
:10555c0048f20100f7e748f20100f4e7842a002042
:08556c008822002088020020c3
:020000040000fa
:105574001e4b1f4a9342f0b438bf002103d203f8f4
:10558400011b9342fbd11b4ad2e9000150ea0103fb
:105594004ff0000610d09468034602f10c076cb972
:1055a40021b1014403f8016b9942fbd13a46d2e997
:1055b400000150ea0103eed1f0bc704759b101f18a
:1055c4000c030c38801a1a443b461c1813f8015b70
:1055d40025709342f9d111f0030318bf012303eba3
:1055e400910107eb81073a46e1e700bf0000002084
:0855f400fc220020cc10000095
:020000040000fa
:1055fc00002a3fd02de9f04383b005460e461746ee
:10560c004ff001094ff0000821e0032c05d8012cc4
:10561c008cbf0224012400e04c4601aa434615f835
:10562c00011b02f8011b0133dbb29c42f7d801f0dd
:10563c00cefe04220deb0201304600f041fb01f0de
:10564c00cafea4b22644b6b23c1ba7b27fb116f078
:10565c00010fe1d13c46042f28bf0424e4b216f01c
:10566c00020fd2d0012c8cbf02240124d5e703b049
:06567c00bde8f083704759
:020000040000fa
:105682002de9f04383b0b1f5805f0fd305460e4696
:1056920017466ab14ff001094ff0000823e0032cce
:1056a2000ad8012c8cbf0224012405e000f0eff897
:1056b20003b0bde8f0834c4601aa434615f8011b2e
:1056c20002f8011b0133dbb29c42f7d804220deb36
:1056d2000201304600f0f9faa4b22644b6b23c1bed
:1056e200a7b2002fe4d016f0010fe4d13c46042ffc
:1056f20028bf0424e4b216f0020fd0d0012c8cbfd4
:0657020002240124d8e797
:020000040000fa
:105708001d4a137843f001031370536813f0010f17
:10571800fbd11949194bcb6100220a6283230b6123
:10572800174b1a7201221a75102283f8202083f869
:105738002c2083f8382083f8442083f85020072051
:1057480083f85c0083f8682083f8742083f880204d
:1057580083f88c2083f8982083f8a42083f8b0205d
:1057680083f8bc200b7843f002030b700a46536899
:1057780013f0020ffbd170470028004022000020e0
:0457880004280020d1
:020000040000fa
:10578c00f8b50f4616461c461a46032100f00cfcd1
:10579c000546c8b144f0806006f0030e032e15d800
:1057ac00bef1000f21d1bff34f8fbff36f8f134b9f
:1057bc00134a1a601a46d36913f4806ffbd00f4a50
:1057cc00d36943f48063d3612846f8bdb10801392d
:1057dc003c46a0eb070c04eb0c0354f8042b1a60aa
:1057ec000139b1f1ff3ff6d1dae726f00306724634
:1057fc00b919304401f0b6fcd5e700bf00340042c3
:04580c000200000195
:020000040000fa
:1058100008b5184b1b783bb1174bb3f90030002b80
:1058200002dd013b144a138000f018fcfef7b4ffc0
:10583000124b1b7843b1002311490a68114800211b
:10584000994208bf90420fd30d4a136851680e4821
:105850001b184ff0000040eb0101136051600b4a30
:1058600013680133136008bd084b4ff47a621a6065
:10587000f5e700bf1c0100202601002018010020d0
:10588000382a002040fbe1ff40420f0004000020c6
:020000040000fa
:10589000002a3bd02de9f04383b005460e4617465b
:1058a0004ff001094ff000081de0032c05d8012c32
:1058b0008cbf0224012400e04c4601aa434615f89f
:1058c000011b02f8011b0133dbb29c42f7d8042212
:1058d0000deb0201304600f0f9f9a4b22644b6b24d
:1058e0003c1ba7b27fb116f0010fe5d13c46042f57
:1058f00028bf0424e4b216f0020fd6d0012c8cbfce
:0e59000002240124d9e703b0bde8f08370470c
:020000040000fa
:02590e007047e0
:020000040000fa
:10591000f8b50f4616461c461a46012100f04afb10
:105920000546c0b144f0806106f00302032e14d88e
:105930000abb144bda69bff34f8fbff36f8f124a64
:105940001a601a46d36913f4806ffbd00d4ad369ed
:1059500043f48063d3612846f8bdb00801383c4663
:10596000a1eb070c54f80c3044f8043b0138b0f1bb
:10597000ff3ff7d1dce726f003000144384401f093
:0c598000f7fbd6e70034004202000001f3
:020000040000fa
:10598c00002833d010b404461b4b1a684ab1138953
:10599c0001898b420ad88b422cd053688bb91346a1
:1059ac0016e0186000206060206006e00020206097
:1059bc00114b1a68626014601c605df8044b7047f0
:1059cc0013461a89914213d007d35a68002af7d18b
:1059dc005c60236000206060efe71a6822606360ff
:1059ec001a6802b154601c600020e6e70120704781
:0c59fc000120e2e70120e0e7fc2200208f
:020000040000fa
:105a080070b50546184b1c780cbb184b1b7803f077
:105a18000f03012b1bd01020fdf742fb0346144a4d
:105a28001060f8b1134a92e8030083e8030003f119
:105a380008022868696803c201211846fff780fc3c
:105a4800064668b9284601f05dfa344608e028465b
:105a580001f068fa084a137843f001031370002430
:105a6800204670bd0224fbe7d1010020ef00002092
:0c5a7800e80100202c740000ed0100206b
:020000040000fa
:105a840010b583880288b2f5807f0ed804461b0bbc
:105a940003d0174a12789a4227d0154a1370154931
:105aa400204601f024f980b910bd002104220270bf
:105ab400417023f47063838001238371c1710823cf
:105ac40003724172fff73efceee7002104222270cc
:105ad4006170a28822f47062a2800122a271e17135
:105ae40020812046fff72efcdee7fef7bbfadbe75a
:085af400ec0100209c010020e0
:020000040000fa
:105afc00f8b5194d002604270de027706670a288b2
:105b0c0022f47062a2800122a271e67120813146da
:105b1c002046fff713fc284601f04af9044690b1e1
:105b2c0000f01cfe0028f6d0e7e70c4b1b7873b98d
:105b3c0001f086fb58b900f09dfffff75fff06e010
:105b4c00fef790f907e0064b1b78002bedd1054bc7
:105b5c001b78002bf4d1f8bd9c010020d101002052
:085b6c00d2010020e401002039
:020000040000fa
:105b74000000000000000305000004050100040506
:105b840005000405000001060100010602000106eb
:105b94000000020641000406420004064300040615
:105ba4004700040600000606100007061200070658
:105bb4001300070611000906300009063100090622
:105bc4003200090633000906360009060000000801
:105bd400200000082100000822000008230000081b
:085be4000300010604000106a4
:020000040000fa
:105bec0038b501f0edf9154b9b8b154a928b13438d
:105bfc0013f0010f20d0002000f074fd0546114c6d
:105c0c00204601f0c5fb104b1a88104b1988204612
:105c1c00fff731fd094b9b8b094a928b134313f011
:105c2c00010f08d0284600f05dfd054b5b698342ef
:105c3c003cbf034b586138bd0025e0e73c02002017
:105c4c00f8010020780000201e01002038010020ff
:020000040000fa
:105c5c0070b5194b1b783bb1012b10d14ff480253b
:105c6c004ff00416154c14e000f000fcfef7f2ffa8
:105c7c0000f042fa0123114a13700f4a137070bde1
:105c8c0083f3088833681847fef718fd2378012b37
:105c9c00f5d101f077fb0128f6d101f059fa002873
:105cac00fbd101f0f1fa01f053fa0028fbd12b687b
:105cbc00b3f1ff3fe4d1e7e7f82200201000002009
:020000040000fa
:105ccc0010b584b0b0f5405f1bd2012a01d940f465
:105cdc004040002401940294039402238df8043074
:105cec0006238df806300e4b93f82440013c8df8ba
:105cfc000f400c4b5b681c69030201a8a04704b061
:105d0c0010bd02f00303012b05d0022b05d0032b91
:105d1c0008bf0132dde70332dbe70232d9e700bf0f
:085d2c0094290020142a002034
:020000040000fa
:105d340010b582b0134b1b78e3b1134c2368019365
:105d440004224ff411610deb0200fff78bf9019966
:105d5400626821600d480068814204d20b1c42f144
:105d6400010223606260094b1960094b00221a602a
:105d740002b010bd08224ff411610348fff772f915
:105d8400f3e700bf18010020382a0020000000209b
:045d940004000020e7
:020000040000fa
:105d980010b5124b1c685cb1114b1b7813b1114b39
:105da8001b6863b12046fef75bfd0c4b00221a60ae
:105db8000d4a1378b3fa83f35b09137010bd012001
:105dc80000f07afd094b1a68064b1a60012000f0b2
:105dd800c1fd034b00221a70e4e700bff401002064
:105de800d1010020d8010020f0010020e0010020ae
:020000040000fa
:105df8000e4a38b5002313600d4a0e4c13600e4a44
:105e08000e4d13600e4a13600e4a13600e4a536219
:105e180013610123936001f018fb01f016fbac42fb
:105e280000d338bd54f8043b9847f8e7982a002077
:105e3800502900206c0200004c290020700200004c
:0c5e480044290020482900205429002093
:020000040000fa
:105e540020212223242425252626272728282828ec
:105e6400292929292a2a2a2a2b2b2b2b2c2c2c2c86
:105e74002c2c2c2c2d2d2d2d2d2d2d2d2e2e2e2e4e
:105e84002e2e2e2e2f2f2f2f2f2f2f2f00011702c4
:105e94001d1813031e1b190b1408040d1f161c12c6
:0c5ea4001a0a070c1511090610050f0e54
:020000040000fa
:105eb00070b5d0e90245a54217d10122a1f1200316
:105ec000c1f1200622fa06f602fa03f333438a40b0
:105ed000db43d6431ab10b490a6832400a605a1ca8
:105ee0001fbf084a51680b4053604368ac6043f0e1
:105ef000010223f00103e5604260c25842f0010252
:085f0000c25070bd0023002017
:020000040000fa
:105f08002de9f04781462026864001f0fbf9f0b1e3
:105f1800b6b204460027ba460ee06b1ca84509d065
:105f28001d46e9b2204600f06bff83881e42f4d07c
:105f38000137bfb264685cb12389b3f5805ff9d3d8
:105f4800b9f1000ff4d094f80c805546e9e7002722
:065f58003846bde8f087a9
:020000040000fa
:025f5e00fee75c
:020000040000fa
:105f6000124ad36823f4e0631b041b0c43f0bf63a5
:105f700043f40033d360bff35f8f62b60c4be02273
:105f800083f80c234ff48051196083f80d234ff4ec
:105f90000051196083f813234ff40021196083f82e
:105fa0006b234ff40062da60704700bf00ed00e041
:045fb00000e100e02c
:020000040000fa
:105fb40010b4134c22634278037843ea02436363c8
:105fc40083788288134382791ab10289134343f098
:105fd4004003827a0ab143f48043090301f4405137
:105fe4001943c37a1b0403f4f813194341f0b001b5
:105ff400034b99639b6b01205df8044b704700bf12
:046004000034004222
:020000040000fa
:1060080038b50d460378114c636383781b0403f499
:10601800f81341780b4343f09003a363a36b4ff04d
:106028008061284601f0a0f8bff34f8fbff36f8f50
:10603800074b23602246d36913f4806ffbd0034ad1
:10604800d36943f48063d361012038bd0034004232
:046058000200000141
:020000040000fa
:10605c0008b50f4b1a883ab10e4b1b8801339bb213
:10606c009a4202d90b4a138008bd0a4b00221a80af
:10607c00094b1b88002bf7d0084b1b781bb9084b1e
:10608c0000221a70f0e71b210420fbf741fbebe721
:10609c002e010020ec000020f00000202a0100203e
:0460ac0024010020ab
:020000040000fa
:1060b0001f291ad870b516460c4601460c4d2246cb
:1060c000284601f022f8002363550a4a13600a4a61
:1060d00013600a4a13600a4b9e4202d048f2030042
:1060e00070bd00f0affd0020fae748f203007047f2
:1060f00088220020802a00207c2a0020842a002078
:0461000044332211f1
:020000040000fa
:106104000023094a1370094a1370094a09491160a6
:10611400094a0a4911600a4a0a4911600a4a0b49a4
:1061240011600b4a13607047132a0020122a0020c2
:10613400c4000020ed540000c0000020fd35000024
:106144006800002029690000c8000020b160000038
:04615400842a002079
:020000040000fa
:10615800124b012283f8482083f8492083f84a200b
:1061680083f84b20772183f8341083f835104ff0eb
:106178000040c3f88000c3f8900083f8ca2083f871
:10618800cb2083f8d02083f8d12083f8d7200222af
:1061980083f8df2083f8b510704700bf0080004106
:020000040000fa
:1061a800104b5b8d43b90f4b1b8d0f4a12899342dd
:1061b80094bf0023012300e001230a4a82f84030fb
:1061c8000a4b5b8d43b9094b1b8d074a12899342d1
:1061d80094bf0023012300e00123044a82f84030e1
:1061e800704700bf3c020020202a0020f801002050
:020000040000fa
:1061f80008b50f4b1b783bb90e4b186828b900201f
:1062080000f072fa0b4b186008bd00f06dfa094bec
:106218001860094b5b680bb1984201d2064b586075
:10622800064b5b680bb19842e9d2044b5860e6e72d
:10623800290100200c0000203c020020f801002069
:020000040000fa
:106248000c4b1b789bb90c4b1b782bb10b4bc82202
:106258001a800b4b00221a800a4a0023138582f801
:106268004030094a138582f84030ff207047074bb9
:1062780018887047f600002029010020020100203c
:10628800fa0000203c020020f8010020f200002063
:020000040000fa
:1062980010b503780f4c6363437843f4025343f01b
:1062a8001003a363a36b4ff0806000f05dffbff3a2
:1062b8004f8fbff36f8f084b23602246d36913f4c7
:1062c800806ffbd0034ad36943f48063d361012014
:0c62d80010bd00bf0034004202000001b5
:020000040000fa
:1062e400f8b505460f4600f5802400f035ff002878
:1062f400fbd1204600f076fe00f02eff0028fbd1f3
:1063040007f500563c46ed1b05f58025611920462e
:1063140000f0d0f800f020ff0028fbd104f5007451
:06632400a642f3d1f8bd12
:020000040000fa
:02632a00fee78c
:020000040000fa
:10632c0070b59df8105041f2f804a0420fd185b918
:10633c0089b9082a11d81e4615460c46fff7f4fcfd
:10634c002a460749304600f0dafe204600e00b20d2
:10635c0070bd0520fce71120fae70f20f8e700bf1d
:04636c00382a0020ab
:020000040000fa
:1063700038b50e4b186830b10021fef7e5ff00205c
:106380000a4b186038bd4ff48070fcf78dfe05464f
:1063900048b1074b04460fcb07c423802846fcf7bf
:1063a0000dfb0020eee70720ece700bfcc0000204b
:0463b000dc220020cb
:020000040000fa
:1063b4000c4b5b687bb10c490a681a440a600b49b0
:1063c40009688a420cd10a494a6813444b60064b57
:1063d40000221a6070470023054a5360024a136082
:1063e400704700bf502a0020742a0020882a002009
:0463f400402a00201b
:020000040000fa
:1063f80010b5054c237833b9044b13b10448aff3f7
:1064080000800123237010bdbc290020000000007b
:106418000000000008b5034b1bb103490348aff364
:10642800008008bd00000000c02900200000000016
:020000040000fa
:1064380002290dd0042913d0012901d00120704769
:1064480010f0070ffbd020f00700083080b270472b
:1064580010f0030ff3d020f00300043080b270472f
:1064680010f0010febd020f00100023080b270472d
:020000040000fa
:1064780010b582b00c4c04e000f060fc019ba34214
:1064880007d001a800f0a8f9019bb3f1ff3ff5d1af
:10649800f2e700f079fa054800f036fb00f03afc24
:1064a800fef78efc02b010bd2143658794290020b9
:020000040000fa
:1064b80010b40d4b00221a80031f00f5fe74081a51
:1064c8000430c21853f8041f1160a342f9d1074bd6
:1064d8001b8803f030031bb9044b4af203529a801d
:1064e80001205df8044b7047ee2900200040004170
:020000040000fa
:1064f8000d4b01221a601a46136913f0010ffbd1e4
:10650800094b18221a6003221a734ef66022da61c8
:1065180033229a72054a0021116001225a721a46e2
:106528001369002bfcd17047003800402c2a00204a
:020000040000fa
:106538000e4b1b68b3b11a89824204d05b688bb1d9
:106548001a898242fad119685a6801b14a6002b1bf
:106558001160002119605960044908681989038984
:10656800994200d07047014b1a607047fc22002006
:020000040000fa
:106578004572726f722053657474696e6773004c4c
:106588006f63616c204572726f722052656163742b
:10659800696f6e0053796e63204572726f72204383
:1065a8006f756e746572204c696d697400ff000028
:020000040000fa
:1065b80008b50a4b00221a80094b1b781bb1094bfe
:1065c8005b88032b03d0084b00221a8008bd074bb9
:1065d8001b88002bf7d1fff705fbf4e72c010020ff
:1065e80030010020f8010020f80000201a010020e6
:020000040000fa
:1065f80008b50b4b1b7843b10a4b1b782bb10a4be0
:106608001b781bb1094b1b782bb108bd2c2104202a
:10661800fbf780f8f9e71a210420fbf77bf8f4e789
:10662800290100202a01002008010020250100205e
:020000040000fa
:106638000c4a036810b5546a0b4a591e121b8a4249
:106648000ad22bb1094b0c221a604ff0ff3010bd53
:10665800102202600020fae7173323f00f030360cb
:10666800f8e700bf54290020efffff7f9c2a002095
:020000040000fa
:1066780083782bb10c4b1963838843f0200100e029
:1066880000210378084a536343780b4343f010030f
:106698009363d36913f4806ffbd0034ad36943f43f
:0c66a8008063d361012070470034004281
:020000040000fa
:1066b4004964656e746974790056656e646f7220fe
:1066c40049440050726f6475637420636f6465009d
:1066d4005265766973696f6e0053657269616c20e7
:0c66e4006e756d62657200ff000000bf63
:020000040000fa
:1066f00010b582b004460023019304224ff41161c7
:106700000deb0200fef790fd019820b1a04238bfca
:1067100000f1ff30001b2cb1034b1b68834234bfd8
:0c672000c01a002002b010bd14000020c0
:020000040000fa
:10672c0038b50c4b1d880c3da94214bf0022012228
:10673c00094b1b6853b10c469847034620b947f6e2
:10674c00fc72ac4218bf1346184638bd4ff40043d8
:0c675c00fae700bfee010020c0000020a2
:020000040000fa
:1067680008b50d4b1b78012b08d08388c3f303238e
:10677800032b0bd0042b06d0022008bd8388c3f35b
:106788000323042b05d1fbf79ffff6e700f040fa3f
:0c679800f3e70220f1e700bf2801002019
:020000040000fa
:1067a4000c4ba3fb01235b0902781a440270642298
:1067b40002fb1313dbb2084aa2fb0312d20841788e
:1067c4001144417002eb8202a3eb42033033837025
:0c67d400704700bf1f85eb51cdcccccc32
:020000040000fa
:1067e00010b584b000230193029303930b238df81b
:1067f000043008238df80f30054b5b68dc68054bcf
:10680000042201460deb0200a04704b010bd00bffa
:08681000142a0020046430008a
:020000040000fa
:1068180010b582b004460023019304224ff401719d
:106828000deb0200fef71cfc01982040019000f0df
:10683800d0fd04224ff401710deb0200fef7dafee1
:0868480000f0cbfd02b010bd11
:020000040000fa
:1068500010b582b004460023019304224ff4017165
:106860000deb0200fef700fc01982043019000f0c0
:10687000b4fd04224ff401710deb0200fef7befee1
:0868800000f0affd02b010bdf5
:020000040000fa
:1068880000090138202813d9b0f5007f05d2094b3b
:1068980003ebd00010f8040c7047b0f5e05f06d8a1
:1068a800044b03ebd01010f8040c103070473f2055
:0868b800704700bf545e0000b0
:020000040000fa
:1068c00030b583b04ff080730193c00000f604042c
:1068d000042221460deb0200fef790fe04252a4615
:1068e000214601a8fef7c0fb019b13f0807ff6d084
:0468f00003b030bd04
:020000040000fa
:1068f40008b5094a00231380538093800221d18074
:106904009360064a138053809380d1809360044837
:1069140000f0fafa08bd00bf3c0100205401002039
:046924004c01002002
:020000040000fa
:1069280058b50a4b1b6883420dd316461b1a9cb2f6
:106938008c4228bf0c46224605490144304600f0e7
:10694800e0fb204658bd0024fbe700bf842a002056
:046958008802002091
:020000040000fa
:10695c0030b583b000230193c00000f60404042278
:10696c0021460deb0200fef743fe04252a46214684
:10697c0001a8fef773fb019b13f0807ff6d103b0e7
:02698c0030bd1c
:020000040000fa
:02698e00fee722
:020000040000fa
:1069900008b504212620fff74ffdc0f3470010f093
:1069a000030f05d020f003000430044b83f82100ce
:1069b000024b012283f8242008bd00bf9429002047
:020000040000fa
:1069c00008b500f05ffcfff7c7fbfdf72dfd00f0f9
:1069d000cdf9fef79cfffef797fefff78dfd03490b
:1069e000002000f047fcfff7bbfa08bdec73000085
:020000040000fa
:1069f00008b5084b9b8b084a928b134313f0010f89
:106a000002d0064b1b8813b1fff7d4fc08bdfff77b
:106a1000f3fbf9e73c020020f8010020f000002021
:020000040000fa
:106a200000b583b00023019304224ff4a0610deb65
:106a30000200fef719fb019b13f0c05f0cbf01229f
:106a40000022024b1a7003b05df804fb112a0020eb
:020000040000fa
:106a50000a4a138852889a420ed0084a991c52f862
:106a6000210001339bb21380d2889a4200d0704734
:106a7000024b00221a8070470020f8e754010020e2
:020000040000fa
:106a80000a4a138852889a420ed0084a991c52f832
:106a9000210001339bb21380d2889a4200d0704704
:106aa000024b00221a8070470020f8e73c010020ca
:020000040000fa
:106ab00070b505462c68e30701d500200fe020469d
:106ac000fff7e2fe064600f071fa2868a042f1d115
:106ad00020f00100281a3146fff7eaf9012070bdc5
:020000040000fa
:106ae000426822f00102531a102b30b40dd9441819
:106af00041f0010543f00103455063608350456058
:0e6b000004f1080030bcfdf7afba30bc70479e
:020000040000fa
:026b0e00fee7a0
:020000040000fa
:106b100000b583b00023adf804308df806300123b2
:106b20008df80430044b5b689b682722014601a85e
:0c6b3000984703b05df804fb142a002015
:020000040000fa
:106b3c0030b400eb4004084b03eb84031b7a834214
:106b4c0001d030bc7047044b4400251843f8251085
:0c6b5c0003eb85035a60f4e704280020d6
:020000040000fa
:106b680008b5084b5b7a63b1064a937a3321917270
:106b780003f0ff002bb1044b1b6813b1024a5168a4
:0c6b8800984708bd003800402c2a00206f
:020000040000fa
:106b940008b5074b00221a60064800f093f8034634
:106ba40008b1184608bd044800f08cf80346f8e71d
:0c6bb400fc2200200c250020ec26002014
:020000040000fa
:106bc0004f7574707574732070726f636573732082
:106bd00064617461206d617070696e6700537562e5
:0c6be000496e6465782030303100ff0001
:020000040000fa
:106bec00496e707574732070726f63657373206473
:106bfc00617461206d617070696e670053756249d4
:0c6c0c006e6465782030303100ff00001d
:020000040000fa
:106c180008b5c3881b0b013b072b05d8dfe803f039
:106c28000c060c0c0c0c0c09052006e0f9f724fbeb
:0c6c380003e0fbf7bffe00e0042008bdf5
:020000040000fa
:106c4400064b1b784bb9054b01221a700023044aea
:106c54001360044a1360044a13607047132a002027
:0c6c6400802a0020782a00207c2a0020d2
:020000040000fa
:106c700070b505466c68e30701d500200de020469d
:106c8000fff702fe064600f091f96b68a342f1d1ce
:0c6c900028463146fff70cf9012070bdca
:020000040000fa
:106c9c00074a136843b10749184488428cbf4ff028
:106cac00ff33106018467047034b1360f3e700bfc7
:0c6cbc00a02a0020a82c0020a82a0020fc
:020000040000fa
:106cc80038b502894ff6ff739a420cd004461d4628
:106cd8002046fef757fe024618b928342389ab42ee
:0a6ce800f6d1104638bd0022fbe78c
:020000040000fa
:106cf20010b44a88531c9bb28c889c4208bf002364
:106d02000c889c4207d0023241f822004b800020be
:0a6d12005df8044b70470720fae714
:020000040000fa
:106d1c0000b583b000210091adf8041038238df834
:106d2c000030044b5b681b686846984703b05df8fd
:086d3c0004fb00bf142a002033
:020000040000fa
:106d440000b583b000210091adf80410ff238df845
:106d54000030044b5b681b686846984703b05df8d5
:086d640004fb00bf142a00200b
:020000040000fa
:106d6c00084b01221a6040f201625a604ff48072a3
:106d7c009a6002221a601a46136a13f0020ffbd0b3
:086d8c00704700bf0034004213
:020000040000fa
:106d940030b583b0064c25683db11c460092054bc6
:106da4001b882246a84703b030bd4ff40040fae7e1
:086db400c4000020e4000020ef
:020000040000fa
:106dbc0002460388418899420cd0991c50f8210056
:106dcc0001339bb213809188994200d07047002305
:086ddc00138070470020f9e765
:020000040000fa
:106de40000b583b000f0f7fa04220deb02014ff472
:106df4000870fef783f900f0f2fabdf8040003b05e
:046e04005df804fb36
:020000040000fa
:106e08008389c3f30323082b05d001eb41010069f3
:106e180000eb4100704709b9006970470069063006
:026e28007047b1
:020000040000fa
:026e2a00fee781
:020000040000fa
:106e2c0008b5002204491046fff782fe00220349f0
:106e3c000120fff77dfe08bdcb730000d37300006b
:020000040000fa
:106e4c0010b5054ca3681b68002104489847a3683b
:106e5c005b68984710bd00bf142a00202171000008
:020000040000fa
:106e6c0008b5054b01225a61044b1b6813b1034a48
:106e7c005068984708bd00bf002800400428002037
:020000040000fa
:106e8c0008b5054b02225a61044bdb6813b1034a67
:106e9c001069984708bd00bf002800400428002056
:020000040000fa
:106eac0008b5054b80225a61044b5b6d13b1034a44
:106ebc00906d984708bd00bf0028004004280020b2
:020000040000fa
:106ecc0010b5064b1c682cb120896468fff72efbab
:106edc00002cf9d1014b00221a6010bdfc220020bd
:020000040000fa
:106eec00050008000700070020000700070020002d
:106efc00070007002000070007002000070000bf64
:020000040000fa
:106f0c0006494a88531c9bb2c988994208bf002382
:106f1c000249023241f822004b8070475401002094
:020000040000fa
:106f2c0006494a88531c9bb2c988994208bf002362
:106f3c000249023241f822004b8070473c0100208c
:020000040000fa
:106f4c0008b5054b1b6823b10a46044909889847c4
:106f5c0008bd4ff40040fbe768000020e40000206f
:020000040000fa
:106f6c0010b5044600f0ccf9034638b10289a242b0
:106f7c0004d05b6813b11a89a242fad1184610bd2d
:020000040000fa
:106f8c0000000100030007000f001f003f007f00fe
:106f9c00ff00ff01ff03ff07ff0fff1fff3fff7ff6
:020000040000fa
:106fac00064b013053f830203ab9c100a1f1080268
:106fbc001a44194443f830204a60704700230020db
:020000040000fa
:106fcc0000b583b004220deb02014ff40870fef7fc
:0c6fdc0091f8bdf8040003b05df804fb60
:020000040000fa
:106fe800044b00221a80044b58614af201529a80dd
:0c6ff80001207047ee29002000400041fd
:020000040000fa
:1070040053796e634d616e616765722032206173de
:0c7014007369676e6d656e7400ff00000c
:020000040000fa
:1070200053796e634d616e616765722033206173c1
:0c7030007369676e6d656e7400ff0000f0
:020000040000fa
:10703c000023034a1380034a1360034a136070470a
:0c704c00d4000020d8000020dc00002050
:020000040000fa
:1070580008b5054b186828b10021fef771f9024bf5
:0c70680000221a6008bd00bfdc00002000
:020000040000fa
:1070740010b500f58071044c0822c9002046fdf7c4
:0c708400f1ff204610bd00bf10010020ed
:020000040000fa
:10709000044b1b78dbb2012b00d07047024b01225e
:0c70a0001a70fae7132a0020122a0020c0
:020000040000fa
:1070ac00044a136843f002031360136913f0020fd0
:0870bc00fbd1704700380040d1
:020000040000fa
:1070c400044a136823f002031360136913f0020fd8
:0870d400fbd1704700380040b9
:020000040000fa
:1070dc0008b5044b1b680bb1984708bd4ff4004032
:0870ec00fbe700bfc800002013
:020000040000fa
:1070f4000068002808b501da002008bdfff7ccfdc0
:06710400431cfad1f8e77c
:020000040000fa
:10710a0010b5431e0a44914200d110bd11f8014b3b
:06711a0003f8014ff7e746
:020000040000fa
:1071200008b5802383f31188fef772fb002383f3f5
:04713000118808bdfd
:020000040000fa
:1071340008b5802383f31188fcf704fc002383f350
:04714400118808bde9
:020000040000fa
:1071480008b5002202490720fff7f4fc08bd00bf7c
:04715800357100008d
:020000040000fa
:10715c00034b588a80f0010000f00100704700bf1b
:04716c00004000419e
:020000040000fa
:107170003ab101388a1811f8013b00f8013f9142f9
:04718000f9d170478a
:020000040000fa
:10718400796600000960000099620000115900004e
:047194008d57000013
:020000040000fa
:1071980048617264776172652076657273696f6e93
:0471a800000000bf24
:020000040000fa
:1071ac00536f6674776172652076657273696f6e62
:0471bc00000000bf10
:020000040000fa
:1071c00054696d657374616d70204f626a65637494
:0471d00000ff0000bc
:020000040000fa
:1071d40053796e63206d616e616765722074797096
:0471e400650000bf83
:020000040000fa
:1071e800496e7075747300436f756e74657200ff35
:0471f800000000bfd4
:020000040000fa
:1071fc004f757470757473005472696767657200ab
:04720c00ff0000bfc0
:020000040000fa
:10721000050008000700070020003f0006001000de
:047220003f0000bf6c
:020000040000fa
:107224000023024a1360024a13807047cc000020f6
:04723400c82200204c
:020000040000fa
:107238000023024a1370024a137070472401002089
:047248002a010020f7
:020000040000fa
:10724c00034b18885b88984214bf002001207047bc
:04725c003c010020d1
:020000040000fa
:1072600008b50020fff7acfb00f0a4f8fef7f6fc31
:02727000fce739
:020000040000fa
:02727200fee735
:020000040000fa
:10727400024b0a685a604a689a607047142a0020d0
:020000040000fa
:10728400024b40f204521a80704700bf0040004194
:020000040000fa
:10729400024b4af217529a80704700bf00400041e7
:020000040000fa
:1072a4004572726f7220726567697374657200004b
:020000040000fa
:1072b40008b5024b1b6803b1984708bd6400002061
:020000040000fa
:1072c40002440346934200d1704703f8011bf9e7d7
:020000040000fa
:1072d40003461a46013311780029fad1101a70476f
:020000040000fa
:0e72e40008b5fff7cbfb08b1fef78cfb08bd29
:020000040000fa
:0272f200fee7b5
:020000040000fa
:0c72f400014b1860596070472c2a0020e4
:020000040000fa
:0c730000f5720000ad700000c5700000c8
:020000040000fa
:0c730c00014b1868704700bffc220020f5
:020000040000fa
:0c73180044657669636520747970650037
:020000040000fa
:0c732400446576696365206e616d65004c
:020000040000fa
:0c7330000500080007000700200007000f
:020000040000fa
:0c733c0005000800070007002000070003
:020000040000fa
:0c73480005000800070005000800070011
:020000040000fa
:0c735400050008000700060010000700fc
:020000040000fa
:0c736000050008000700060010000700f0
:020000040000fa
:0c736c0005000800070007002000870053
:020000040000fa
:0c737800050008000700070020007f004f
:020000040000fa
:0c73840008b508461146fff7dffd08bd04
:020000040000fa
:0c739000014b1878704700bf122a002043
:020000040000fa
:0c739c00014b5b6803607047402a002032
:020000040000fa
:0c73a8000268014b5a607047502a002018
:020000040000fa
:0c73b400014b00221a707047f8220020e4
:020000040000fa
:0a73c00008b5fff765fe002008bdc8
:020000040000fa
:0873ca0008b5fcf7ccfb08bd7f
:020000040000fa
:0873d20008b5fff7f0f808bd53
:020000040000fa
:0873da00802383f31188704742
:020000040000fa
:0873e200002383f311887047ba
:020000040000fa
:0273ea007047ea
:020000040000fa
:0873ec00847100000073000031
:020000040000fa
:0873f40007002000070000bfa4
:020000040000fa
:0873fc0005000800070000bfb6
:020000040000fa
:087404000900a800070000bf09
:020000040000fa
:08740c0009001800070000bf91
:020000040000fa
:0874140009001800070000bf89
:020000040000fa
:08741c001b004000bf0000bf8f
:020000040000fa
:0874240008b5fff713fb08bdda
:020000040000fa
:08742c000a000000000300103b
:020000040000fa
:047434000a30704763
:020000040000fa
:047438000020704779
:020000040000fa
:04743c000020704775
:020000040000fa
:047440000020704771
:020000040000fa
:04744400002070476d
:020000040000fa
:047448000020704769
:020000040000fa
:02744c00704787
:020000040000fa
:02744e00704785
:020000040000fa
:02745000704783
:020000040000fa
:02745200704781
:00000001FF
