:020000040000fa
:10000000f8ff022059680000c3720000637a000004
:100010001f8100002f840000a18400000000000068
:100020000000000000000000000000005768000011
:100030004b7e0000000000005768000005800000b3
:1000400057680000576800005768000057680000b4
:1000500057680000576800005768000057680000a4
:100060005768000057680000576800005768000094
:100070004d7e00006d7e000057680000576800004c
:100080005768000057680000576800008d7e000028
:100090005768000057680000576800005768000064
:1000a0005768000057680000576800005768000054
:1000b0005768000057680000576800005768000044
:1000c0005768000057680000576800005768000034
:1000d0005768000057680000576800005768000024
:1000e0005768000057680000000000000000000092
:1000f00000000000576800005768000057680000c3
:1001000057680000576800005768000057680000f3
:1001100057680000576800005768000057680000e3
:1001200057680000576800005768000057680000d3
:1001300057680000576800005768000057680000c3
:1001400057680000576800005768000057680000b3
:100150005768000057680000000000000000000021
:10016000000000000000000000000000000000008f
:10017000000000000000000000000000000000007f
:100180005768000057680000576800005768000073
:100190000000000057680000576800005768000022
:1001a0005768000057680000576800005768000053
:1001b0005768000057680000576800005768000043
:1001c0005768000057680000576800005768000033
:1001d0005768000057680000576800005768000023
:1001e0005768000057680000576800005768000013
:1001f0005768000057680000576800005768000003
:100200005768000000000000000000005768000070
:1002100057680000576800005768000057680000e2
:1002200057680000576800005768000057680000d2
:1002300057680000576800005768000057680000c2
:1002400057680000576800005768000057680000b2
:1002500057680000576800003544000057680000e8
:020000040000fa
:10026000f8b500bff8bc08bc9e4670470577000093
:10027000f8b500bff8bc08bc9e467047e1760000a8
:020000040000fa
:10028000302f00201c0000000000000000000020b3
:10029000c000000000000000622f002002000000eb
:1002a00000000000852f0020010000000000000079
:1002b000c00000202800000000000000e80000202e
:1002c0000c00000000000000ec23002004000000ef
:1002d00000000000c62f0020020000000000000007
:1002e000982f00200800000000000000f02d0020e2
:1002f00018010000010000000000000000000000e4
:100300000116210001090000748300001c7c00001c
:10031000b82f0020000000000000000000000000d6
:100320000000000000000000001a21000109000088
:1003300080830000487c0000a82f002000000000ff
:1003400000000000000000000000000000000000ad
:10035000121c0600010800009883000020800000a5
:10036000e82f002000000000000000000000000056
:100370000000000000000000131c0600010800003f
:10038000a48300003c800000ec2f0020000000004f
:10039000000000000000000000000000000000005d
:1003a00000602a0001090000b08300008481000081
:1003b000a02f00200000000000000000000000004e
:1003c000000000000000000010702a000109000079
:1003d000bc83000098810000b02f002000000000c6
:1003e000000000000000000000000000000000000d
:1003f000ffff0000000000000000000000000000ff
:1004000000000000000000000000000000000000ec
:10041000102c0020e001000001000000000000009e
:1004200000000000001007000007000030840000fa
:100430005c830000cc2f00200000000000000000c2
:100440000000000000000000000000000110050096
:100450000007000038840000a0820000c62f0020a2
:10046000000000000000000000000000000000008c
:100470000000000008100900000700004084000090
:10048000688300004c2f00200000000000000000e6
:10049000000000000000000000000000091009003a
:1004a000000700004884000034810000942f0020e1
:1004b000000000000000000000000000000000003c
:1004c000000000000a10090000070000508400002e
:1004d00048810000c82f002000000000000000003c
:1004e00000000000000000000000000018102300c1
:1004f00004090000cc7e000020780000642f00205a
:1005000000000000000000000000000000000000eb
:1005100000000000f1102a0002090000ac81000078
:1005200060770000882f002000000000000000001d
:10053000000000000000000000000000f8101b0098
:1005400000070000588400005c810000982f002004
:100550009175000000000000000000000000000095
:1005600000000000001c0500040800008c8300004f
:1005700070810000c02f002000000000000000007b
:10058000000000000000000000000000321c2900f4
:10059000200900000c6000000c5100003003002016
:1005a000000000000000000000000000000000004b
:1005b00000000000331c2900200900000c6000002e
:1005c0000c520000ec0200200000000000000000bf
:1005d000000000000000000000000000ffff00001d
:1005e000000000000000000000000000000000000b
:1005f0000000000000000000000000004c2f002060
:10060000160000000100000053414d4435312045e3
:100610007468657243415420536c61766500000034
:10062000942f00200400000001000000312e300053
:10063000c82f00200400000001000000312e30000f
:10064000642f0020140000000100000004000000de
:10065000d8040000529200000100000001000000d8
:10066000c02f00200600000001000000040002016d
:1006700004030000cc2f0020040000000100000053
:1006800089130000f40000200800000000000000b2
:10069000862f002002000000000000000c30002027
:1006a00002000000000000001030002001000000e7
:1006b000000000000e3000200200000000000000da
:1006c0001130002001000000000000001230002066
:1006d0000100000000000000fc000020c400000039
:1006e00000000000c0010020040000000000000025
:1006f000c40100201600000000000000133000209c
:100700000100000000000000d02f002004000000c5
:1007100000000000dc01002052000000000000008a
:1007200030020020280000000000000058020020d5
:100730009400000000000000782f00200d00000051
:1007400001000000537562496e64657820303030d6
:1007500000000000882f00200c00000001000000b5
:10076000020000000100000004000000ec02002074
:100770008e00000000000000143000200100000086
:100780000000000015300020010000000000000003
:10079000d42f00200400000000000000d82f00200b
:1007a0000400000000000000dc2f00200400000016
:1007b00000000000e02f0020040000000000000006
:1007c000a02f002008000000010000000100000030
:1007d00000000000a82f0020080000000100000019
:1007e0000100000020010060b02f00200800000080
:1007f000010000000100000000000000b82f0020f0
:10080000080000000100000001000000200110703d
:10081000e42f00200400000001000000010000009f
:10082000e82f002004000000010000000100011674
:10083000ec2f002004000000010000000100001a5d
:100840007c0300201620000000000000163000206d
:100850000100000000000000942300204d00000073
:100860000000000017300020010000000000000020
:10087000e42300200100000000000000082f0020f9
:100880002800000000000000f02f002004000000fd
:1008900000000000f42f0020040000000000000011
:1008a000f82f0020040000000000000008280020ad
:1008b000080400000100000000000000000000002b
:1008c00008280020082800201028002010280020d8
:1008d0001828002018280020202800202028002088
:1008e0002828002028280020302800203028002038
:1008f00038280020382800204028002040280020e8
:100900004828002048280020502800205028002097
:100910005828002058280020602800206028002047
:1009200068280020682800207028002070280020f7
:1009300078280020782800208028002080280020a7
:100940008828002088280020902800209028002057
:100950009828002098280020a0280020a028002007
:10096000a8280020a8280020b0280020b0280020b7
:10097000b8280020b8280020c0280020c028002067
:10098000c8280020c8280020d0280020d028002017
:10099000d8280020d8280020e0280020e0280020c7
:1009a000e8280020e8280020f0280020f028002077
:1009b000f8280020f8280020002900200029002025
:1009c00008290020082900201029002010290020d3
:1009d0001829002018290020202900202029002083
:1009e0002829002028290020302900203029002033
:1009f00038290020382900204029002040290020e3
:100a00004829002048290020502900205029002092
:100a10005829002058290020602900206029002042
:100a200068290020682900207029002070290020f2
:100a300078290020782900208029002080290020a2
:100a40008829002088290020902900209029002052
:100a50009829002098290020a0290020a029002002
:100a6000a8290020a8290020b0290020b0290020b2
:100a7000b8290020b8290020c0290020c029002062
:100a8000c8290020c8290020d0290020d029002012
:100a9000d8290020d8290020e0290020e0290020c2
:100aa000e8290020e8290020f0290020f029002072
:100ab000f8290020f8290020002a0020002a002020
:100ac000082a0020082a0020102a0020102a0020ce
:100ad000182a0020182a0020202a0020202a00207e
:100ae000282a0020282a0020302a0020302a00202e
:100af000382a0020382a0020402a0020402a0020de
:100b0000482a0020482a0020502a0020502a00208d
:100b1000582a0020582a0020602a0020602a00203d
:100b2000682a0020682a0020702a0020702a0020ed
:100b3000782a0020782a0020802a0020802a00209d
:100b4000882a0020882a0020902a0020902a00204d
:100b5000982a0020982a0020a02a0020a02a0020fd
:100b6000a82a0020a82a0020b02a0020b02a0020ad
:100b7000b82a0020b82a0020c02a0020c02a00205d
:100b8000c82a0020c82a0020d02a0020d02a00200d
:100b9000d82a0020d82a0020e02a0020e02a0020bd
:100ba000e82a0020e82a0020f02a0020f02a00206d
:100bb000f82a0020f82a0020002b0020002b00201b
:100bc000082b0020082b0020102b0020102b0020c9
:100bd000182b0020182b0020202b0020202b002079
:100be000282b0020282b0020302b0020302b002029
:100bf000382b0020382b0020402b0020402b0020d9
:100c0000482b0020482b0020502b0020502b002088
:100c1000582b0020582b0020602b0020602b002038
:100c2000682b0020682b0020702b0020702b0020e8
:100c3000782b0020782b0020802b0020802b002098
:100c4000882b0020882b0020902b0020902b002048
:100c5000982b0020982b0020a02b0020a02b0020f8
:100c6000a82b0020a82b0020b02b0020b02b0020a8
:100c7000b82b0020b82b0020c02b0020c02b002058
:100c8000c82b0020c82b0020d02b0020d02b002008
:100c9000d82b0020d82b0020e02b0020e02b0020b8
:100ca000e82b0020e82b0020f02b0020f02b002068
:100cb000f82b0020f82b0020002c0020002c002016
:100cc000fc2f00200400000001000000ffffffffd8
:100cd00000300020040000000100000000000200bd
:100ce000043000200400000001000000f023002078
:100cf000f0230020180400000100000000000000a4
:100d0000dc26002040270020a4270020000000004f
:100d100000000000000000000000000000000000d3
:100d200000000000000000000000000000000000c3
:100d300000000000000000000000000000000000b3
:100d400000000000000000000000000000000000a3
:100d50000000000000000000000000000000000093
:100d60000000000000000000000000000000000083
:100d70000000000000000000000000000000000073
:100d80000000000000000000000000000000000063
:100d90000000000000000000000000000000000053
:100da0000000000001000000000000000e33cdab89
:100db00034126de6ecde05000b00000000000000c0
:100dc0000000000000000000000000000000000023
:100dd0000000000000000000000000000000000013
:100de0000000000000000000000000000000000003
:100df00000000000000000000000000000000000f3
:1011100000000000e82300200400000000000000a0
:101120000830002004000000000000000000000063
:101130000000000022222222222222222222222217
:020000040000fa
:101140002de9f0414ff6ff72b44b1a800122b44be7
:101150001a7010f0100736d0b24a137823f010033b
:10116000137001270e4600f00f05ae4b1c7805ebff
:10117000041404f0ff04442c0fd000f2f082222c5f
:1011800000f0e78240f2e481242c40f0df82a6499f
:10119000a64803f037ff804648b9a54b187802f0ff
:1011a00079fe1ffa80f8b8f1000f00f03b839d4be9
:1011b0001b78042b00f05a81082b00f05381022b7e
:1011c00040f05e8156e1974b1b7813f0100f05d06d
:1011d00000f00f02012a01d0bde8f08103f00f03f7
:1011e000904a1370bee70122924b1a70022002f05f
:1011f00051fe28b100228f4b1a704ff0150842e1c2
:10120000002006f0dbfb05f087f8804678b1b8f1e6
:10121000ff0f00f00484824b1b78bbb103f0d4fcb9
:10122000032007f03ef90022824b1a702be10022c6
:101230007b4b1a7007f02af980460028e7d101227b
:101240007d4b1a70032007f02cf91ce107f0e6f83b
:10125000e4e7784b1b7843b94ff0000807f022f918
:101260000022764b1a703123aee00020714b1870cb
:1012700006f0a4fb03f0a8fc07f0d0f88046ede7e9
:1012800006f058fc6e4b1b78002b00f0c58305f070
:1012900043f8804648b1b8f1ff0f00f0cd83604bb2
:1012a0001b7873b103f090fcede000225c4b1a70e8
:1012b00007f0ecf880460028edd101225e4b1a7051
:1012c000e1e007f0abf8ede700f0daff804648b167
:1012d000b8f1ff0f00f05182514b1b789bb104f025
:1012e00053fbd0e000224e4b1a70564807f0d0f85e
:1012f00080460028ecd1534b188806f07bfb012276
:10130000514b1a70bfe007f0c5f8e8e706f0acf8fb
:10131000804648b1b8f1ff0f00f03682404b1b7891
:1013200073b106f057ffaee000223d4b1a7007f094
:10133000b3f880460028edd10122444b1a70a2e098
:1013400007f0acf8ede707f0a9f806f043ff4ff01f
:101350000008334b83f8008095e007f09ff8804643
:1013600006f038ff00222e4b1a70b8f1000f40f043
:10137000168207f08ff804f007fb4ff00008284ba7
:1013800083f800807fe007f089f8804606f022ffae
:101390000022234b1a70b8f1000f40f0028207f0d0
:1013a00079f8804604f0f0fa00221d4b1a70b8f16b
:1013b000000f40f0f88103f007fc07f02ff880469b
:1013c00000221e4b1a702123b8f1ff0f5bd10121bf
:1013d0001f4a11701f4a1380c822104b1a8084e0e4
:1013e0000022164b1a7077b90e4b1b7813f00c0fb6
:1013f00000f0cf810c4b1b884bb90c4b1b885bbb9f
:101400004ff0fe083fe0204607f04df8ece70220e1
:1014100006f042fb4ff0fe0835e000bf1a02002044
:10142000e2010020e3010020e4010020120200207c
:101430002a0200201c020020c602002074030020a3
:1014400013300020fa010020240200201e02002098
:1014500010020020de010020032006f01dfb4ff0eb
:10146000fe0810e007f01af806f0b4fe07f012f8d4
:1014700004f08afab8f1160f16d00222cb4b1a707c
:10148000b8f1ff0f21d0c94b187800f00f03ab4221
:1014900057d0b8f1000f40f09381002e40f0bb818f
:1014a000c24b1d70b046ace103f08efb06f0b6fff8
:1014b000002006f0bbfa012006f0b8fa0122bb4b6f
:1014c0001a70e0e74ff01108dae70122b84b1a7002
:1014d000b84b1c80242c18d014d8123c94423ff6f0
:1014e0007baf4ff4fa62b44b1a80b348b0f90030c6
:1014f000b24981fb0321da17c2eba1029b1a0380d8
:10150000bde8f081482c7ff467af42f22832aa4b45
:101510001a80eae74ff01108b5e706f0bfff06f0c2
:1015200059fe56e1022006f081fa5ce1032006f044
:101530007dfa58e104229d4b1a705de1002eafd078
:101540006de100219a4b197004f03effbde8f08177
:10155000122c00f0fe800022964b1a80a4f1110399
:10156000772b00f2138101a252f823f0e11300005f
:1015700081120000e7110000c51400008d17000063
:101580008d1700008d170000c51400008d17000096
:101590008d1700008d1700008d1700008d170000bb
:1015a0008d1700008d1700008d170000b713000085
:1015b000e7130000c5140000c91200008d170000d9
:1015c0008d1700008d170000c51400008d17000056
:1015d0008d1700008d1700008d1700008d1700007b
:1015e0008d1700008d1700008d17000053120000aa
:1015f000c51400008d170000c51400008d170000f1
:101600008d1700008d170000c51400008d17000015
:101610008d1700008d1700008d1700008d1700003a
:101620008d1700008d1700008d1700009f1300001c
:1016300073130000c5140000e71300008d170000ad
:101640008d1700008d1700000d1300008d1700008e
:101650008d1700008d1700008d1700008d170000fa
:101660008d1700008d1700008d1700008d170000ea
:101670008d1700008d1700008d1700008d170000da
:101680008d1700008d1700008d1700008d170000ca
:101690008d1700008d1700008d1700008d170000ba
:1016a0008d1700008d1700008d1700008d170000aa
:1016b0008d1700008d1700008d1700008d1700009a
:1016c0008d1700008d1700008d1700008d1700008a
:1016d0008d1700008d1700008d1700008d1700007a
:1016e0008d1700008d1700008d1700008d1700006a
:1016f0008d1700008d1700008d1700008d1700005a
:101700008d1700008d1700008d1700008d17000049
:101710008d1700008d1700008d1700008d17000039
:101720008d1700008d1700008d1700008713000033
:101730005b130000c5140000471300008d17000064
:101740008d1700008d170000e7130000422c7ff476
:1017500002af022002f09efb1ffa80f823e5822ce4
:10176000f7d006d9842c3ff418ad882c3ff415ad82
:10177000f1e6482c3ff411adede6242201210c4b9b
:1017800019700c4b1a80c0e64822f7e74ff0120898
:1017900079e64ff0fe0876e64ff0120873e68223f2
:1017a00012e6812310e641230ee600bfe30100208c
:1017b00010020020de0100201a0200206766666623
:1017c000284310f0080f12d09f4b1b78002b7ff49a
:1017d000a4ae9e4b1b88002b7ff4a4ae9c4b1b88b1
:1017e000002b7ff4a3aeb8f1000f3ff4a7ae994be6
:1017f0001b78082b3ff49eae964a137843f01003f3
:1018000013700022944b1a704146924b187804f0e2
:10181000dbfdbde8f081284310f0080fd4d145f07e
:1018200010053de600228d4b1a80a4f11103772ba1
:10183000b2d801a252f823f0e11300008112000097
:10184000e711000015150000991700009917000016
:10185000991700001515000099170000991700004e
:1018600099170000991700009917000099170000b8
:101870009917000099170000b7130000e713000044
:1018800015150000c91200009917000099170000f3
:10189000991700001515000099170000991700000e
:1018a0009917000099170000991700009917000078
:1018b0009917000099170000531200001515000039
:1018c00099170000151500009917000099170000de
:1018d00099170000151500009917000099170000ce
:1018e0009917000099170000991700009917000038
:1018f00099170000991700009f1300007313000050
:1019000015150000e7130000991700009917000053
:10191000991700000d130000991700009917000097
:1019200099170000991700009917000099170000f7
:1019300099170000991700009917000099170000e7
:1019400099170000991700009917000099170000d7
:1019500099170000991700009917000099170000c7
:1019600099170000991700009917000099170000b7
:1019700099170000991700009917000099170000a7
:101980009917000099170000991700009917000097
:101990009917000099170000991700009917000087
:1019a0009917000099170000991700009917000077
:1019b0009917000099170000991700009917000067
:1019c0009917000099170000991700009917000057
:1019d0009917000099170000991700009917000047
:1019e0009917000099170000991700009917000037
:1019f0009917000099170000871300005b1300007f
:101a000015150000471300009917000099170000f2
:101a100099170000e71300004ff0510833e5032049
:101a200006f03ffd00220e4b1a7001220a4b1a707d
:101a300013220a4b1a8054e50122074b1a70122216
:101a4000064b1a804de500bf1e020020e401002075
:101a500012020020e301002010020020de0100201d
:041a60001c02002044
:020000040000fa
:101a64002de9f04f89b0a54b1c7824b109242046f8
:101a740009b0bde8f08f0546b0f808805ffa88f732
:101a840007f0e006202e27d01ad9402e24d0602e4d
:101a940018d19b4b1b78b34200f0d1814ff0000961
:101aa400cdf808904ff0030a0195029b00931ffaaa
:101ab40089f307f010023146504603f01ffdd6e7c4
:101ac400002ee6d04ff00009cdf808904ff0030a3d
:101ad400baf1ff0fcbd0e7e7b5f800a0b5f80ab02c
:101ae4004fea182303eb0b239bb203934fea1b2b00
:101af400184606f029fa0490002800f0a283037b1c
:101b04009b4506d94ff00009cdf808904ff0110a13
:101b1400cae707f01003059302465946039804f0f8
:101b24002fff0290402e0fd0202e2bd00694ddf8ec
:101b3400089000230793059b002b56d0bbf1010f9f
:101b440051d94ff0050aafe7baf10a0f01d00824c2
:101b54008de7431e032b08d805f10c0307930023dc
:101b6400ab81eb8106948146e5e7664b1b88a3f1c4
:101b74001009029b4b4500f2448305f110030793bf
:101b84000694d8e717f0020f0dd0baf10a0f01d06e
:101b940008246ce7c7f38103c3f1040905f10c03be
:101ba40007930694c7e7ea89ab8903eb0249564bce
:101bb4001b8809f110029a4204d9063b9a4507d0c2
:101bc400082454e709f10a039a4501d008244ee792
:101bd40005f110030793aaf10a03994594bf002362
:101be40001230693a7e701230593069b002b42d10b
:101bf400029b4bb9454bbdf80c201a80444b83f82b
:101c040000b0444b049a1a60402e00f0e380059b18
:101c14000193079b0093049b4a465946039800f09e
:101c24005ffe8246ff287ff43faf01233a4a1370d8
:101c34003a4a9df814101170394a82f800b0394ab2
:101c4400bdf80c101180384ac2f80090374a079941
:101c54001160049a116a364a1160284a1370354b90
:101c64001d602b8923f0ff0308f0f00843ea080302
:101c74002b81069cfbe601232f4a13702f4a137015
:101c84002f4b9df814201a70204bbdf80c201a809d
:101c94001f4b83f800b01f4b049a1a60402e294b47
:101ca40006bf029a1a60c3f80090274b186808b15f
:101cb40006f014fb234b1868013020f0010006f0f5
:101cc40005fb214b186080b1402e41d0aaf10a09ce
:101cd4004a4605f1100106f001fa0022084b1a7079
:101ce400a2461a4bc3f80090f2e6059b002b14bfe2
:101cf4004ff0050a4ff0040ad6e600bf1630002064
:101d0400af230020d0020020e2020020c4230020e0
:101d1400dc230020d8230020ac230020ad230020a6
:101d2400e0230020de230020bc2300209823002091
:101d3400a8230020b8230020a1230020ae230020e4
:101d4400a0230020a4230020c02300209c230020e3
:101d5400059b01930090049b029a5946039801f055
:101d640047f8824658b3ff28bbd10422b84b1a70f7
:101d7400b84b9df814201a70b74b83f800b0b74bda
:101d8400bdf80c201a80b64b029a1a60b54b1a683b
:101d9400b54b1a60049bda69b44b1a600122b44b48
:101da4001a70b44b1d602b8923f0ff0308f0f00870
:101db40043ea08032b816022af4b1a7057e64a4668
:101dc400a84b196805f1100006f088f96022aa4ba7
:101dd4001a7086e7059b0193079b0093049b029a64
:101de4005946039801f004f88246ff287ff45cae5c
:101df4000322974b1a70974b9df814201a70964b38
:101e040083f800b0954bbdf80c201a80944b029acd
:101e14001a60954b079a1a60049bda69934b1a600f
:101e24000122934b1a70934b1d602b8923f0ff03ff
:101e340008f0f00843ea08032b81069c17e6002efd
:101e440040f03d818d4b1a7808f010039a4200f05f
:101e5400f2818b4b1b88093b9bb207f01002874928
:101e64000a70804a1068002800f0e881854a1168e9
:101e7400854a1268521a18f0010f1ad09a4200f2d9
:101e8400c5812b88033b9a4200f2c0816fea680e39
:101e94000ef0070e724505d0072a40f2b7819a4228
:101ea40040f0b4814ff0000e784b83f800e0914687
:101eb40009e04ff0010cdff8d4e18ef800c0994638
:101ec4009a4240f2a38111f0010f4ed149086a8968
:101ed4004fea182343ea022320f8113009f10100e4
:101ee400400801281ad901218846dff898c1dff893
:101ef40074e105eb4102dcf8003008eb5308b2f85a
:101f040008a053891b0243ea1a23def8002022f8b2
:101f14001830013189b288468142ead35b4b93f889
:101f24000080b8f1000f41d00a232b7000236b709e
:101f3400eb88c3f30b0343f44053eb804f4b1b7804
:101f4400002b00f0ad8030232b7200236b724f4bbb
:101f54001b78012b00f0a98000234a4a1360464aeb
:101f64001370b246994602939ee5490810f8113061
:101f740020f811303b49434802685208d1f800e088
:101f84002b8923f0ff033ef812c043ea0c032ef81a
:101f94001230036823f001030233086809f1ff32a9
:101fa40005f10a01184406f099f8b7e7384bd3f85d
:101fb40000c0354a12683749097837480088dff885
:101fc400dce09ef800e0cdf804e0dff898e0def80d
:101fd40000300093634600f083fc8246ff2829d139
:101fe40002221b4b1a702d4b1a781a4b1a70294b6c
:101ff4001a78194b1a70284b1a88184b1a80224bde
:102004001a68174b1a60174b1a68174b1a60204b43
:102014001b681a6a154b1a600122154b1a70154b6e
:102024001d600023194a1370134a1370154a136074
:1020340044461ce5dff82c80d8f8000006f04ef981
:102044000023c8f80030baf1000f3ff46dafdfe0b1
:10205400ac230020ad230020e0230020de23002059
:10206400bc230020c023002098230020a8230020a4
:1020740016300020b8230020af230020ae23002018
:10208400e20200209c230020a4230020a12300209e
:10209400d8230020dc230020c4230020a023002018
:1020a40020232b7200236b7251e76d4a13684b4453
:1020b4001360b2464ff00009cdf80890f4e42a7a90
:1020c40002f01002674b1b78934200f0c180664b0c
:1020d4001b88093b9bb263490a709946604a12689f
:1020e4006249096813448b4286bfa1eb02090021af
:1020f40001215f4b19705ffa88f8a5f8088012f087
:10210400010354d14fea520e5a4a106830f81e2087
:1021140048ea0228a5f808805fea590c13d0002188
:102124001a46724400eb4203b3f8028030f81230ce
:102134001b0a05eb410243ea08235381013189b2aa
:102144000a468c45edd8eb88c3f30b0343f44053a4
:10215400eb802b8903f47f432b81454a1278002ab4
:102164003ad0404a127813432b81b9f1060f3ad87a
:102174000a232b7000236b70c9f107032a8942eaf2
:1021840043032b813a4b1b78012b30d0dff8e480da
:10219400d8f8000006f0a2f80023c8f80030304a4e
:1021a4001360354a1370a246994602937ce4314b7e
:1021b4001968520831f8123023f0ff0343ea080883
:1021c400a5f8088001eb420109f1ff32023105f163
:1021d4000a0005f083ffb6e7224a127842f00102b2
:1021e40013432b81c1e709f103032b80cae71c4a7f
:1021f40013684b441360a2464ff00009cdf80890d1
:1022040052e4012306930023079394e44ff00e0a4b
:102214000023174a1370184a1370164b186820b11c
:1022240006f05cf80022134b1a6000230c4a13607a
:10223400994602934ce44ff0010ae9e74ff0030a90
:10224400e6e74ff00009cdf808904ff0080a2be4b8
:102254004ff00009cdf808904ff0010a24e400bfc4
:102264009c230020ae230020d0020020a4230020c1
:0c227400a1230020c0230020af23002085
:020000040000fa
:10228000f0b585b00023029301939a4a94899a4a43
:1022900095899a4a13809a4a1370022005f0f8fe35
:1022a0000268984b1a80436803f00203002b0cbfae
:1022b00003260126032005f0ebfe0368924a1380f3
:1022c000426802f00202002a0cbf032201229bb2e4
:1022d0008e49088800fb02328d4909888a420bdd4d
:1022e0008c4f3f880f44bb4206da0221032003f0e3
:1022f0008bf81e2005b0f0bd874f3f88ba4204dd41
:10230000864a12883a449342efdb7e4ab2f800e0f4
:10231000834a128806fb02e6b1420ada7d4a128835
:1023200011448e4505da0221084603f06df81d20a0
:10233000e0e7b74204da794a12881744be45f2db77
:10234000b34202da03449e45eddb04224ff41861e8
:1023500003a803f0f1fbbdf80c30039304224ff403
:102360001a6102a803f0e8fb042240f6a4110deb69
:10237000020003f0e1fb019e5e4b59885e4b5a88d8
:10238000039b13f4106f00f0748113f4007f01d1ec
:102390003020afe72c400bd014f0040f00f059812f
:1023a00014f0080f04d113f4806f01d03020a1e79e
:1023b000029850b14f4d2d69854201d9362099e7d9
:1023c000584da84201d9362094e703f4c065b5f50d
:1023d000c06f10d05448007800bb514a11880029c2
:1023e00052d14a4a1488002c00f0b88113f4806f4f
:1023f0005dd102224be1002eecd08642c0f0378145
:1024000014f0100f01d1302074e70120464c2478dd
:10241000002ce2d013f4806f04d038e113f4806f05
:102420000ad10020032900f01a81032a00f0198143
:1024300013f4007f04d03be013f4007f30d1002080
:10244000022900f01081022a00f00f81032900f018
:1024500021810c460ee0324b1c8834b12b4b1a887c
:10246000002a40f03281012404e0284b1a8800320f
:1024700018bf01222d4b1b78002b40f07581002cda
:1024800040f01481292035e7002840f013811f4acd
:1024900012887ab113f4806f04d10222114607e04a
:1024a0000020f4e003220221f1e00322f2e0032203
:1024b000022908d1029b0f494b624b600e494b62c7
:1024c0004b600224eee00c46d4e70120184a10804d
:1024d000b1fbf3f082b2174c228003fb1013002be8
:1024e00000f0c8810132134b1a80c3e10121104b67
:1024f0001980bae130030020ec020020fa0100202c
:1025000018020020f00100202c02002012020020fe
:10251000da020020d0020020c8020020e2020020df
:10252000e4010020000050c374030020dc010020ff
:10253000140200200e02002004a8002340f8103de1
:1025400004224ff4806103f0f7fa009b9ab2cab1fb
:102550000232a3b246f2a71102fb0313db08904a32
:10256000a2fb03231b0a8f4a138000228e4b1a8082
:102570008c4b1b88002b00f093818c4b1b782bb964
:102580001f20b7e60022874b1a80eee7884b1b78a6
:102590003bb1884b1b8823b1874a138843f480637f
:1025a00013800023854a1380854a1380854a13804f
:1025b000854a1380854a1370854a1370854a1380b3
:1025c000854a1385538582f84030844a13855385a4
:1025d00082f84030039a12f4007f18d00299002943
:1025e00000f0a3804b097e48a0fb0303db09042b0a
:1025f00017d80120714b188012f4806f07d0019b0f
:10260000994240f297806d4b1a886f4b1a80694b44
:102610001b88b3b9734b1b88bbb904f095fc002031
:1026200068e65b009bb27048a0fb0303db086348cd
:102630000380e1e75b000a22b3fbf2f3624a1380f6
:1026400084e0022005f028fae4e7032005f024faec
:10265000e3e730204ee630204ce630204ae63020da
:1026600048e6302046e6302044e6302042e60020ae
:10267000cce65e4b187800283ff4edae8b1e9bb283
:10268000012be8d9931e9bb2012be6d90020032928
:102690007ff40eaf029b51494b624b604e494b6237
:1026a0004b600324524b1b78002b60d1002a5ed173
:1026b00029201fe64b4a1288002aebd013f4806fc2
:1026c0007ff4f3ae02220321e1e722220124d1e6c6
:1026d000374b1b78002b40f0978000233f494b80fd
:1026e0003d494b8043490b8043490b8043490b8054
:1026f00043490b80012840f0b880029bf1189e42ac
:10270000fff4e3aeb1fbf3f082b203fb10134bb95d
:10271000511c3a4b1980374b1a80abe00121394be1
:1027200019708ce0354b1a80dce612f4806f3ff4b0
:102730006eaf019b0b445b09294aa2fb0323db0913
:10274000042b3ff677af01221f4b1a801e4a1b4b0a
:102750001988138803eb5103138058e7244b1b7827
:102760000bb92920c6e522460cb9002ab0d00121b8
:102770000f4b19700f4b1b88002b4ad04ff4806110
:102780000d4b1980a31e9bb2012b4ed801211d4b6e
:10279000197057e04ff48061074b1980144644e0ec
:1027a00089b5f81422020020e00100202602002052
:1027b00025020020e4010020fa010020f20100209f
:1027c000e801002020020020f8010020fc01002088
:1027d00019020020f6010020ec0200203003002046
:1027e000c55a7c0a12020020cdcccccc7403002048
:1027f000dc0100200e020020ec0100201402002069
:10280000280200201d020020294b1c88002cc1d169
:102810002246284b1b881bb14ff40061264b1980c0
:10282000a31e9bb2012b7ff679af931e9bb2012ba7
:1028300008d80121214b19701d4b1b8813b90021a9
:102840001d4b19801e4b5c801e4b5a8000231e4975
:102850000b801e490b801e490b801e490b800128ee
:102860003ff44baf022c3ff441ae032a02d00122c9
:10287000154b1a800023184a138004a840f8103d15
:1028800004224ff4846103f057f9009c084b1b8825
:102890001bb1a3b2002b7ff44fae00220f4b1a8066
:1028a0000f4b1b78002b3ff471ae1f2022e500bfb9
:1028b000e401002012020020fa0100201d02002085
:1028c00030030020ec0200200e020020ec0100206a
:1028d0001402002028020020780300202202002099
:0428e00026020020ac
:020000040000fa
:1028e4002de9f04f8bb004900c4616461d46ddf8da
:1028f40050809df854b01ffa81fa9b89c3f30322d8
:102904000692dbb20593072a00f03e821946ab69b2
:1029140093f80090b9f1000f40f04182a0f5e05324
:10292400103b9bb21f2b40f23882a0f5b0539bb2f0
:10293400b3f5007fc0f04082a0f5d0539bb2b3f54d
:10294400007fc0f03c824ff23003984208bf8946b2
:1029540025e2f4b90eb198f80090079439e02146c5
:10296400284605f05ffa8288b24b1b7803f00e0309
:1029740013eaa2030bd112f0380f02d01a230393e7
:1029840016e2002a0cbf05230723039310e25cb36d
:10299400d1460499a1f5e053103b9bb21f2b12d9e9
:1029a400a1f5b0539bb2b3f5007f0cd3a1f5d0537e
:1029b4009bb2b3f5007f06d34ff23003994202d0a5
:1029c4000023079305e0ab691b78003318bf01238c
:1029d40007932f6a5fb1cdf800b0434632462146d3
:1029e4000498b8470390e3e1d1460794f1e7002e39
:1029f40000f0a081ca4500f2a08154460723039346
:102a040000230893049ba3f5e053103b9bb2099366
:102a140031e1102a40d0202a40f05c8110f00f0fe1
:102a240040f0a081079b5bb13288b8f800309a422d
:102a340040f09b817288b8f802309a4240f0988145
:102a4400b8f800303380b8f80230738008f1040815
:102a5400012308930be1022b17d8002b40f091803f
:102a6400bbf1000f00f06f817b8813f00f0f05d0ce
:102a7400184410f00f0f08bf08f10208c3f3031342
:102a840008eb430801230893f1e0032b04d0042b43
:102a9400c4d073e0072bc1d210f00f0f40f059815e
:102aa400b8f80070079b1bb13388bb4240f05481d7
:102ab400099b1f2b0ed8a7f5b0539bb2b3f5007f2b
:102ac40008d3a7f5d0539bb2b3f5007f02d3002ff0
:102ad40040f04581049ba3f5e153123b9bb2012bcb
:102ae4007bd9378008f1020801230893bfe00b2b40
:102af4002bd943e02d2b44d021d81e2b41d018d8fc
:102b0400152b01d01b2b39d110f00f0f40f033815e
:102b1400b8f800303380b8f802307380b8f8043065
:102b2400b380b8f80630f38008f10808012308934d
:102b34009de01f2bb0d0202b3ff470af1ee0372b4d
:102b440015d9a3f51873032b18d810f00f0f40f004
:102b540018817a880732d2104146304605f0befa11
:102b64007b881b0908eb4308012308937fe0302b83
:102b740007d22e2b90d02f2b3ff450af1823039362
:102b840016e17a882c4b33f8122000f00f0e02fa6b
:102b94000ef1338823ea01031bb2bbf1000f10d0fe
:102ba400b8f8002011400b439bb233807b88184453
:102bb40010f00f0f40f0b48008f1020801230893cd
:102bc40055e0b8f8001031ea020c40f0bf800a402a
:102bd40002fa0ef213439bb2e7e7012c1bd0082c38
:102be4007ff47faf154a0023536115491161536087
:102bf400144a53611161536017f0020f3ff471af2f
:102c04000e4a5385138582f840300e4a5385138546
:102c140082f8403065e73388bb4207d039460498d0
:102c240001f0a4fe0390002840f0c2800122064b6c
:102c34001a7056e7e30100206c7f00003003002087
:102c4400a0860100ec02002074030020002c62d056
:102c54007b8813f00f0f05d0184410f00f0f08bf36
:102c640008f102081b0908eb4308182303930134f5
:102c7400a4b24c4557d8e6b23146284605f0d2f8fe
:102c840007462946304603f025f8584b1b7803f0d5
:102c94000e03ba8813eaa203d8d0ae69002c00f060
:102ca4009180c0f30f1306eb4306a24507d0bbf196
:102cb400000fdcd0a245dad8002c00f087803b88d6
:102cc400b3f5e06f06d37a88082a3ff6a2ae02f184
:102cd4002f039bb2112b3ff417af3ff60baf052b1d
:102ce4003ff44faf7ff6b7ae082b7ff6d3ae092b78
:102cf4007ff4fdae10f00f0f40d17a880732d21066
:102d04004146304605f0eaf97b881b0908eb430885
:102d140001230893abe708f1020818230393a6e7fd
:102d240001230893a3e7089b002b039b18bf0023f0
:102d340003933de0002303933ae00723039337e032
:102d44001323039334e01823039331e012230393f2
:102d54002ee0052303932be01c23039328e0122386
:102d6400039325e00523039322e01c2303931fe030
:102d74001c2303931ce00523039319e00523039309
:102d840016e00523039313e0bbf1000f02d00523e3
:102d940003930de04ff0000905e0ddf81490bbf15a
:102da400000f7ff4d6adca457ff6d9ad1123039346
:102db40003980bb0bde8f08fddf81490efe7ddf871
:102dc4001490ece7baf1000f7ff471af069b072b68
:102dd4003ff475afb8f80030dab205999142afd339
:102de400338008f102080123089340e7e30100203f
:020000040000fa
:102df4002de9f04f89b00590049115469946129c2f
:102e04009df84ca01ffa81fb9f89c7f30328ffb2ea
:102e1400b8f1070f00f0bc81b0f5805fc0f0bf814e
:102e2400d9f818301f78baf1000f1fd1bb4505d966
:102e340011230293029809b0bde8f08f0499484623
:102e440004f0f0ff838813b905230293f2e79a4a4a
:102e5400127802f00e0212ea430214d103f00703bf
:102e6400002b0cbf06231a230293e3e70697d9f835
:102e74001c605eb1cdf800a023462a46049905984b
:102e8400b0470290d6e706975f46f0e7059bb3f597
:102e9400805f04d2049b93b902935e4605e05f45cc
:102ea4000ad35e46002302930493cdf81c80cdf828
:102eb4000c90ddf814901ee100230293bae7049eff
:102ec4003146484604f0aeff43880733db109db219
:102ed40006f1804b0bf1ff3bd9f8182052f82b1068
:102ee40011f0010f25d021f0010632466b0811d0f4
:102ef400013b9bb201335f00e01931460b881b0a8a
:102f0400238031f8022f43ea022324f8023ba04233
:102f1400f4d1f21915f0010f00f02581238803f490
:102f24007f432380128843ea1223238000230293e1
:102f340080e70a8822804a8862809bb21a1f043183
:102f4400201d05f0cbf80023029373e7079b072ba2
:102f540000f04581bdf8183024f8023bc7e0bef10b
:102f6400100f31d0bef1200f40f04c8118f00f0f3c
:102f740040f0028132f8103023804b88638004349f
:102f840001230493b3e0022b15d8002b6ed1baf1c0
:102f9400000f00f0eb806b8813f00f0f04d09844ff
:102fa40018f00f0f08bf0234c3f3031304eb4304f8
:102fb400012304939be0032b06d0042bd6d01823c3
:102fc400029337e7072bd1d218f00f0f40f0d180ce
:102fd40032f8103024f8023b0123049387e00b2bd2
:102fe400edd818f00f0f40f0cd806a880732d21068
:102ff400204605f073f86b881a0904eb420413f0b9
:103004000f0f00f0a38023782380012304936ee044
:103014002d2b2bd01cd81e2b28d014d8152b01d027
:103024001b2bccd118f00f0f40f0a98032f81030d0
:1030340023804b8863808b88a380cb88e38008340b
:103044000123049353e01f2bbed0202b8ed0b6e770
:10305400372b04d9a3f51873032bc2d9afe7302b50
:1030640004d22e2bb0d02f2b80d0a8e708f00f0e5f
:103074006b88124931f8133003fa0ef39bb232f81d
:103084001020bef1000f01d1002020802088baf169
:10309400000f0bd01340034323806b88984418f02f
:1030a4000f0f50d102340123049320e0134043fa5c
:1030b4000ef303432380f0e7e30100206c7f00005c
:1030c4006b8813f0f00f0ad00023194624f8021f6e
:1030d4000133dbb26a88c2f303129342f6dbab8896
:1030e40003f00703002b0cbf06231a2302930136b7
:1030f400b6b2b74230d3002e58d0b9f5805f55d35d
:10310400f5b20399284602f0e5fd80462946039866
:1031140004f088fe0546504b1b7803f00e038288aa
:1031240013ea420351d118f00f0f00f092806b881c
:1031340013f00f0fc4d0984418f00f0fc0d1002320
:1031440063800234bce701230493d0e70123049392
:10315400cde701230493cae7049b002b029b18bf0d
:103164000023029366e60023029363e61823029386
:1031740060e6052302935de6052302935ae60523e0
:10318400029357e60523029354e60523029351e67e
:10319400baf1000f3ff44aae052302934ae6baf1ae
:1031a400000f3ff443ae0523029343e6f1b20398c4
:1031b40004f038fe0546284b1b7803f00e03828882
:1031c40013ea420343d04ff00008b34504d0baf1e8
:1031d400000f8cd0b3458ad8002e3ff4b7ae039bc2
:1031e4009a69c8f30f1002eb40012b88b3f5e06f26
:1031f40008d3b5f802e0bef1080f3ff6b0ae0ef109
:103204002f039bb2112b3ff40daf3ff601af052bfb
:103214003ff42caf7ff6b7ae082b7ff6d3ae092b65
:103224007ff4ddae18f00f0fafd16a880732d210e9
:10323400204604f053ff6b881a0904eb420413f090
:103244000f0f86d023782380012304934fe74ff098
:0c3254000008002323806ae7e30100204b
:020000040000fa
:103260002de9f74f01f10b05162d064606d935f06d
:10327000070504d50c233360002445e110258d4259
:10328000f8d3304605f011f9b5f5fc7fa54f39d2da
:1032900005f108023a44a2f1080154688c424fea51
:1032a000d50302d1d468a24210d06368e268a16855
:1032b00023f00303ca60234491605a6842f001027c
:1032c0005a60304605f0f2f808341de10233964aa0
:1032d0003c699442114675d0606820f00300a0eb71
:1032e000050ebef10f0f48dd631945f0010565605d
:1032f0007b613b61da609a604ef001025a6044f8eb
:1033000000e0dee76b0a2ad0042b12d8ab09383371
:103310005a1c07ebc202a2f108005468844206d08e
:10332000626822f00302511b0f291cdd013b0133af
:10333000cde7142b01d85b33eae7542b02d82b0bd3
:103340006e33e5e7b3f5aa7f02d8eb0b7733dfe7ff
:1033500040f25452934204d8ab0c7c33d8e73f235d
:10336000d6e77e23d4e70029e16804dba368d960af
:103370008b60a318a1e70c46d0e7bef1000f7a617d
:103380003a6105db2044436843f00103436098e75a
:10339000b0f5007f4bd2c0084feaa00e012202fa1e
:1033a0000efe7a6801304eea02027a6007ebc00234
:1033b00057f830e0c4f808e0083ae26047f83040d7
:1033c000cef80c4001209a1000fa02f2786882428e
:1033d00000f2ac80024206d123f003035200024205
:1033e00003f10403fad007ebc308c1469c46d9f8a1
:1033f0000c404c455ad10cf1010c1cf0030f09f1a3
:103400000809f4d19c0740f085807b6823ea020319
:103410007b6078685200824200f28880002a00f0c7
:10342000858063460242ded104335200fae7420a45
:10343000042a17d88209383202f1010e07ebc20cb8
:1034400057f83ee0f44528d10120921000fa02f22c
:10345000786810437860c4f80cc0c4f808e0ccf871
:103460000840ade7142a01d85b32e5e7542a02d8b8
:10347000020b6e32e0e7b2f5aa7f02d8c20b7732b8
:10348000dae740f2545e72459abf820c7c327e22ab
:10349000d2e7def808e0f44505d0def8042022f09b
:1034a00003029042f5d3def80cc0d4e76068d4f88c
:1034b0000ce020f00300a0eb050abaf10f0f12ddbb
:1034c000a268631945f001056560c2f80ce0cef80a
:1034d00008204af001027b613b61d96099605a6023
:1034e00044f800a0ede6baf1000f11db2044436878
:1034f00043f00103436054f8083f3046c3f80ce042
:10350000cef8083004f0d2ff204603b0bde8f08fbb
:1035100074466ee758f80809804503f1ff333ff41d
:1035200071af76e70828002010280020d7f808b0ef
:10353000dbf8044024f003094d4504d8a9eb05034a
:103540000f2b00f394804f4a14684f4a0192116880
:103550002c44013116bf8f34103424f07f040beb60
:10356000090321463046009304f020fdb0f1ff3fef
:10357000804654d0009b019a834201d9bb454ed16d
:1035800042480168434521440160824613d15806f0
:1035900011d1bb684c4444f001045c603c4adaf849
:1035a000003011688b4288bf13603a4a11688b4221
:1035b00088bf136033e0106801301bbfa8eb030322
:1035c0005b18c2f80080caf8003018f007031cbf6f
:1035d000c3f1080398444444803304f07f041c1b67
:1035e0002146304604f0e2fc431c08bf4046daf8ae
:1035f0000030c7f8088008bf0024a0eb080023446f
:10360000044444f00104bb45caf80030c8f8044043
:10361000c4d0b9f10f0f10d80123c8f80430bb682b
:103620005a6822f003029542a2eb050301d80f2b42
:103630001ddc304604f03aff1ee6dbf80430a9f149
:103640000c0929f0070903f0010343ea0903cbf849
:1036500004300beb09030522b9f10f0f5a609a6091
:103660009cd90bf10801304600f028fe96e7bc68b3
:1036700045f00102254443f001036260bd606b60c8
:103680001fe600bff82f0020fc2f0020082f00208d
:08369000f02f0020f42f0020b0
:020000040000fa
:1036980038b50188052902d80623184638bd0446de
:1036a800063989b2c388013b052b00f20e81dfe899
:1036b80003f00339506eb8c7a84b1b8813b148f202
:1036c80004036fe00c306289238943ea024302460f
:1036d80004f036fb03460021a14a116047f69572b3
:1036e800904205d801219f4a11609f4a1060bce0b2
:1036f80047f6fa72904200f2f080002299490a6077
:1037080099490a600121954a118000220621a17178
:10371800e271a3f5ff43163b2381a272e272217086
:103728006270b6e08d4b1b8813b148f2040339e090
:103738004289038943ea02420c3004f0c1fc031eab
:1037480047f6fd72002808bf13460021854a11601c
:1037580087e0824b1b8823f004039bb2022b02d024
:1037680048f204031ee04289038943ea02437d4a82
:103778001268934202d048f2050313e00c3004f0bb
:1037880087f8034600286cd147f6fd73ace0734b0d
:103798001a88012a30d047f6fe7348f20401042a39
:1037a80018bf0b4613f4004f00f0b5800022052126
:1037b800a171e2712381a272e27206232370627002
:1037c80004f10c01a38913f0ff0f00f0c28013f479
:1037d8007f4f00f0c08002235a0831f8122012f0ff
:1037e800ff0f00f0a48012f47f4f00f09c8002339a
:1037f800dbb2202bf0d19ce05b4d00f10c01286876
:1038080004f090fb03462a6855490a6047f695710b
:1038180088425dd802442a6052490a6801320a6027
:1038280023e04e4b1b8813b948f20403bae74089da
:10383800238943ea004004f037fd47f6ff73b1e7f8
:10384800464b1b88012b04d0042b02d048f20403fa
:10385800a8e704f10c02424b1968208904f0b0fd76
:10386800034647f69572934232d83e4a12680321be
:10387800a1710021e1712281120c62819a1d2280be
:103888003a4a12880c3a93420cbf01220422334b65
:103898001a80374b1d78002d4fd0a388c3f30b0334
:1038a800a380344a127812f0070f02d10121314a5d
:1038b800117030490a7843ea0233a38001320a7052
:1038c800204602f039fb0023e7e648f20403c8e784
:1038d80047f6fa7293427ff618afa3f5ff427c3a97
:1038e80092b2012a3ff65eaf1e490a68501c086072
:1038f80000210420a071e1712281120c628106224c
:103908002270617047f6fd7293420cbf02220022ba
:10391800124b1a80bde70025104b1d80204604f08d
:10392800dbfc2b46b9e60133dbb21f2b01d807338a
:1039380023800022094b1a80abe74021204603f080
:10394800b1f8034600283ff4a8ae0b4b1c602b4689
:10395800a3e60023ebe70123e9e700bfc801002045
:10396800d4010020cc010020c4010020d002002096
:0c3978001c02002058020020d00100209a
:020000040000fa
:10398400f0b585b0044600238df80f30058905f0a5
:103994007f05052d06d00388072b09d80623184672
:1039a40005b0f0bd0388092b00f2a4800623f6e7d6
:1039b400032d00f09f80052d00f09c80012d21d067
:1039c40003238df80f309df80f1000220a23237073
:1039d4006270238923f07f0343f007032381a272db
:1039e400e272914b53f82130e360904b1a8002212c
:1039f400204603f059f803460028d0d08c4b1c60b5
:103a04000023cce78389052b01d90221f0e7894df6
:103a140000686168a26807c5a2892a8013f0ff03c1
:103a24000ed10025814b1d8004f10c06e8b203f091
:103a340019fc26f8020f0135052df7d1122322e0d7
:103a4400013bddb2794b1988002934d07a4b1a88ae
:103a54000c3a92b204f10c0378480088adf80c00db
:103a64000139724801800df10f01009103a9284624
:103a740002f0a6fdbdf80c20704b1a806e4b1b881b
:103a8400063b1b1a9bb223809df80f30002b9ad162
:103a9400238923f07f0242f002022281634a1288c2
:103aa4006281002a00f0bd8023f0ff0343f082030b
:103ab400238182219ce7284603f0d4fb4ff48053f2
:103ac400adf80c305c4b1988a1f10e0292b204f1ee
:103ad4000e034000904209dd0c398eb2811a701e2b
:103ae400014491fbf6f151480180bce700204f49a5
:103af4000880b8e7a38998b2adf80c30b0f5805fc0
:103b040003d205238df80f305de704f01dfa074654
:103b1400002800f08280032d0bd0e689f6b204f071
:103b2400b1fc4388dbb29e4234d911218df80f10c9
:103b34004be704f0a7fc0368c4f80e3000233a46b0
:103b44001946bdf80c0001f03dfe00f10c0292b2e2
:103b5400394b1b88063b9a4210dd0c229df80f302e
:103b6400002b7ff430afa372e3722280238923f009
:103b74007f0301351d432581022139e704f1120336
:103b84003a460021bdf80c0001f01cfe00f10c02c5
:103b940092b2e3e73146384604f044f903682361fe
:103ba4008388a382e389dbb2e381384604f06afcac
:103bb4004388c3f30323083b9bb2012b10d9002392
:103bc4003a463146bdf80c0001f0fcfd00f110024c
:103bd40092b2194b1b88063b9a4212dd1022bde7b4
:103be400002eecd1164a166850689168c4f8166025
:103bf400c4f81a00c4f81e10127b84f822201c2278
:103c0400ace704f116033a463146bdf80c0001f066
:103c1400d9fd00f1100292b2a0e708238df80f300d
:103c2400d1e60221e4e600bfb0700000b423002016
:103c3400c0010020c8230020d002002094230020cb
:043c4400782f0020b5
:020000040000fa
:103c480038b5824b1b78002b5fd0814bb3f900301d
:103c5800002b4ed17f4b1b88c3f30714242b2bd08a
:103c680010d8123b012b00f2ca807b4b1b7803b3a0
:103c780000f0a6ff794b1b78002b00f0e280784b10
:103c88001d88bde0482b40f0ba80764b1b781bb3eb
:103c9800754b1b78002b00f0bd80744b1b78002bf4
:103ca80040f0cb80724b1b88002b0cbf1a251b25bc
:103cb800b1e004f0affbdbe7674b1b784bb101f0d9
:103cc8005ffe664b1b78002b00f0bd80644b1d889f
:103cd80096e004f0dbfbf2e7654b1d88002d40f011
:103ce800ae800122634b1a7008248be004f0d2fbeb
:103cf80096e0584b1b88242b47d007d8123b012b42
:103d080000f28580544b1b7823bb38bd482b7ed1ed
:103d1800514b1b78002bf8d0524b1b78002b55d0f9
:103d2800554bb3f90030002befdd544ab2f90020af
:103d38009a42eadb0023504a1380504a1380464acd
:103d4800137004f0a5fb002839d10122494b1a70e1
:103d5800082429e00022404b1a7004f093fb054622
:103d680060b90122464b1a703a4b1c7814f00f04c4
:103d780003d00022354b1a705ae038bdff28c4d052
:103d880004f048fb00f01cff38bd334b1b78002bb8
:103d9800bbd00022304b1a703a4804f075fb38b992
:103da8000122394b1a7004240025284b1d703fe06e
:103db800ff28aad004f06afb01f0e2fd38bdff2815
:103dc800a3d004f067fb04f001fa38bd284b1b8828
:103dd8001bb1264b1b78002b97d000221e4b1a7064
:103de80004f056fb20b90122224b1a700824dbe7a5
:103df800ff288ad004f04efb04f0e8f938bd00250e
:103e0800002c82d00022114b1a708db10ee00025d3
:103e18002c46f5e72d25104b1b78002b3ff466af99
:103e280004f0d4f98cb10022084b1a7044f0100445
:103e38002946204602f0c4fa38bd1a25ebe71b25af
:103e4800e9e70125eee70125ece738bd100200207f
:103e58001a020020de010020e2010020ea01002011
:103e6800e60100201d020020fc01002018020020ad
:103e7800e40100201e020020f6010020ee010020cf
:0c3e8800c6020020fa01002024020020e5
:020000040000fa
:103e9400854b1a8841f6fe739a4201d81420704764
:103ea40070b50446002004f0f1f8436813f4803f31
:103eb40000f0f18003f00c02042a01d0162070bd3a
:103ec40013f0020f00f0e9800268130c223b9bb24e
:103ed400de2b00f2e480a2f580539bb2b3f5805f41
:103ee40080f0df80012004f0d1f8436813f4803fb0
:103ef40000f0cf8013f00c0f40f0c38013f0020fda
:103f040000f0c1800268130c223b9bb2de2b00f24e
:103f1400bc80a2f580539bb2b3f5805f80f0b7807c
:103f2400032c14d8022c51d8604b1b78a34240f2c6
:103f340094805f4e5d4d204604f0a8f843683360da
:103f44000134e4b22b78a342f5d8002070bd0122dd
:103f5400584b1a70032004f099f803681a0c40684f
:103f640010f4803f2ad0002a79d0534909888a4224
:103f740005d00321032001f045fa1e2070bd00295d
:103f84006fd0442a6fd810f00c0f6ed19bb24b4afd
:103f94001178022905d04a4a12889a4207d0022190
:103fa400e8e7a3f580539bb2b3f5805fe2d210f04b
:103fb400020fb7d000223f4b1a70b3e7002a56d144
:103fc4003d4b1b88002badd00321d3e7022004f026
:103fd4005df803681a0c406810f4803f35d0002a5d
:103fe40047d0384909888a4205d00321022001f0cc
:103ff40009fa1d2070bd00293dd0442a3dd800f0a7
:104004000c02042a01d00421f0e79bb22b4a117858
:10401400022914d1a3f580539bb2b3f5805fe5d296
:1040240010f0400f14bf01220022274b1a7010f029
:10403400020f3ff479af00221e4b1a7074e7234a33
:1040440012889a42ecd00221d0e7c2b91d4b1b88da
:10405400002b3ff469af0321c8e7002070bd0421a1
:1040640088e7032186e7032184e7042182e703210b
:1040740080e70421bae70321b8e70321b6e7032167
:10408400b4e7162070bd162070bd162070bd162032
:1040940070bd162070bd162070bd162070bd162090
:1040a40070bd162070bd00bf160200202a02002039
:1040b400d02f0020dc01002012020020e3010020a8
:1040c4002c020020e401002026020020f001002040
:020000040000fa
:1040d40010b56e4b1978c9b96d4a138801339bb278
:1040e4001380322b05d0642b03d0962b01d0c82b20
:1040f40012d1684a127802f00f02013a072a4dd809
:10410400dfe802f0113b473f4c4c4c430122624b29
:104114001a700022614b1a70604b19785e4b187844
:1041240004f0c0f910bd00205d4a1070c82b39d0ce
:104134005c4b1b7813f0200feed013f01f0202d05b
:1041440051000139c9b2584a12789a4276d013f014
:10415400800f14bf00220122504b1a700122534bce
:104164001a80504b1a78504b1a70494b1b88c82b35
:10417400d2d10022464b1a80cee74020484a107024
:10418400d4e74120464a1070d0e70120444a107019
:10419400cce76023424a13700a460de00020404aef
:1041a4001070c3e73e4b1b7813f01f021dbf520073
:1041b40002f1ff32d2b20a463d480078984217d045
:1041c40013f0800f14bf00220122334b1a70012216
:1041d400384b1a80324b1a78354b1a70314b1b7896
:1041e40013f0200fa9d12a4a1288c82aa5d093e730
:1041f40010f0400f1dd0284c2378b3fa83f35b09e9
:104204002370002ae6d02b4c238801339bb22380f1
:1042140094b2a342ded910f0800f14bf012400240d
:104224001d48047005329342d4db0022214b1a80ce
:10423400d0e700f00100184b1870cbe713f0400fe3
:104244001fd016480278b2fa82f25209027000298d
:1042540087d016480288013292b2028088b2824224
:104264007ff67faf13f0800f14bf012000200b4bab
:10427400187005318a42fff674af00220b4b1a8086
:104284006fe703f00103054a13706ae71e0200207a
:104294000e300020e3010020b00100206401002062
:1042a400f40100202b02002011300020862f002072
:0842b400123000200c30002044
:020000040000fa
:1042bc002de9f04104468846002900f0ab8004f05b
:1042cc00eef858f8042c544d22f00100a8f1080324
:1042dc001f18a9687e688f4226f0030602f00102bf
:1042ec001bd130443ab958f8082c9b1a10449968e1
:1042fc00da68ca60916040f001025a60ab60474bcb
:10430c001b68984204d3464b2046196802f07efb8a
:10431c002046bde8f04104f0c3b87e60002a39d1d4
:10432c0058f8081c5b1a0844996805f1080e714589
:10433c0032d0d3f80ce0c1f80ce0cef80810b91963
:10434c004968c9070ad43044b9683abb354eb14202
:10435c0024d16b612b610122d960996040f001017d
:10436c0059601850002ad3d1b0f5007f1ad2c0087a
:10437c00811001228a40696801300a436a6005ebaa
:10438c00c00255f830109960083ada6045f83030c0
:10439c00cb60bde70022d2e70122d0e7fe68ce60f9
:1043ac00b160dbe7420a042a13d882093832511c67
:1043bc0005ebc20655f831108e4224d10120921023
:1043cc0000fa02f2686802436a60de609960b360ca
:1043dc00dee7142a01d85b32e9e7542a02d8020b33
:1043ec006e32e4e7b2f5aa7f02d8c20b7732dee771
:1043fc0040f254518a429abf820c7c327e22d6e71c
:10440c0089688e4204d04a6822f003029042f7d3a6
:10441c00ce68dae7bde8f0810828002000300020e3
:08442c00f82f002010280020e9
:020000040000fa
:1044340010b5564a536803f47063d26912f0010f41
:1044440031d0524ad06852494a69c9688a422ad24c
:104454006bb94f4b5968541c5c6188544b4bdb69f6
:1044640013f0020f3fd00222484b5a6125e0484b1b
:104474005968541c5c6121f81200444bdb6913f049
:10448400020f30d00222414b5a61414a936992682b
:10449400934246d23e4a1168581c906131f8132069
:1044a4003a4b1a6115e0394ad26912f0020f1ad058
:1044b4000221364a5161002be7d1354a936992684b
:1044c400934222d2324a1168581c9061ca5c2f4b25
:1044d4001a612f4b9a699b689a422ed02c4b5a69c9
:1044e400db689a4234d02b4b1b78002b47d0274be8
:1044f400db6913f0040f04d0254b5a69db689a4238
:104504002cd00422214b9a6110bd214b1b69002b36
:1045140036d0ff221d4b1a611d4a1369013b1361fa
:10452400d7e71b4b1b69002b2ad0ff22174b1a61bc
:10453400174a1369013b1361cbe7154b1b69002b29
:10454400ccd10122134b1a70134a104b1a60cae7dc
:104554000e4b01225a6102229a61c4e70c4b0022dd
:104564001a770720094948610a490a701b6a33b15e
:10457400074a506a9847074b1b78002bc1d110bdde
:10458400034b9a699b689a42a8d1dae70034004247
:0c459400c0000020852f00200200000164
:020000040000fa
:1045a00030b583b04ff48033019302f045fd494ba1
:1045b0001b78002b39d103f051f8044610f0010f9d
:1045c0004cd0454b1b78002b37d010f0100f5dd12d
:1045d000414b1b78002b59d13e4b1b781bb3019be1
:1045e00013f4803f55d014f4007f5ad1019b13f48b
:1045f000003f61d0394b1b7883b902f005fe374b81
:104600001b78002b5dd0019b43f0007301930422c3
:1046100040f60c010deb020002f028f803f01ef842
:1046200010f4807f52d103b030bd042240f60c015b
:104630000deb020001f080fabde7002502a840f86a
:10464000085d04224ff4907101f076fa24f0110411
:10465000a4b229469df80000fcf772fd14f0100f7b
:10466000b6d01d4b1b788bb91d4b187810f0100f6e
:10467000b2d120f01003012baed024f01004a4b26c
:10468000002100f00f00fcf75bfda1e7fff7dcfa6b
:10469000a2e7134b1878002100f00f00fcf750fd43
:1046a000a1e710480023036004220f4b198801f092
:1046b000ddff01f00ffd99e7084b1b78002badd013
:1046c0009be7019b23f000730193a0e700f01efe1f
:1046d000a9e700bfc602002010020020e40200206b
:0c46e000e301002000020020da020020ac
:020000040000fa
:1046ec002de9f04784b080460f46914600238df8a3
:1046fc000b300193adf80c10adf80e2003a94ff45c
:10470c00447002f01ffb4ff00043039303a94ff4d6
:10471c00457002f017fb07f0030709f003063e444f
:10472c0016f0030f04d0331d03f00c039e1bf6b2de
:10473c0002238df8043000238df8053020238df8ea
:10474c0006304ff40062354bc3f8942003f046fc5e
:10475c000028fbd1032101a803f0e2fd304a1378b5
:10476c00002bfcd000222e4b1a7003f037fc0028d3
:10477c00fbd100254ff0010a294c0ee051460df1fa
:10478c000b0003f0cdfd2378002bfcd0002323700d
:10479c0003f024fc0028fbd10135af42eed109f126
:1047ac00ff339bb2b9f1000f17d008f1ff359844d5
:1047bc0001271b4c15f8013f8df80430394601a830
:1047cc0003f0aefd2378002bfcd00023237003f004
:1047dc0005fc0028fbd1a845ecd100250127104c85
:1047ec0011e09df80b308df80430394601a803f028
:1047fc0097fd2378002bfcd00023237003f0eefbf5
:10480c000028fbd10135ae42ebd14ff40062034bd3
:10481c00c3f8982004b0bde8f08700bf00800041c9
:04482c001730002021
:020000040000fa
:104830002de9f04784b080460f46914600238df85d
:104840000b3001930093adf80c10adf80e2003a9c6
:104850004ff4427002f07cfa4ff00043039303a937
:104860004ff4437002f074fa07f0030709f00306ef
:104870003e4416f0030f04d0331d03f00c039e1bbf
:10488000f6b203238df8043000238df8053004239d
:104890008df806304ff40062334bc3f8942003f0d8
:1048a000a3fb0028fbd1032101a803f03ffd2f4a01
:1048b0001378002bfcd000222c4b1a7003f094fbd1
:1048c0000028fbd100254ff0010a284c0ee051468c
:1048d0000df10b0003f0dcfc2378002bfcd000234f
:1048e000237003f081fb0028fbd10135af42eed1ec
:1048f00009f1ff339bb2b9f1000f17d008f1ff3572
:1049000098440127194c3946684603f0c1fc2378c6
:10491000002bfcd00023237003f066fb0028fbd1a2
:104920009df8003005f8013fa845ecd1002501278e
:104930000e4c0ee039460df10b0003f0a9fc237874
:10494000002bfcd00023237003f04efb0028fbd18a
:104950000135ae42eed14ff40062034bc3f898200c
:1049600004b0bde8f08700bf008000411730002090
:020000040000fa
:10497000222913d8dfe801f086144e6a12121212af
:104980001212121212121212121212121212121207
:10499000121212121212121212123c00122070473e
:1049a00041f63243984205d041f6334398420ed047
:1049b00012207047374b1b88002b65d0364b9b89e4
:1049c00003f00203002bd4bf122000207047334baa
:1049d0009b8913f0020f59d02e4b1b880bb112206c
:1049e00070472f4b1b88002b0cbf122000207047f4
:1049f00041f63343984201d012207047274b9b89e0
:104a000013f0020f44d0234b1b88002b0cbf122045
:104a10000020704741f63243984205d041f63343b7
:104a200098420ad0122070471b4b9b8903f0040365
:104a3000002bd4bf122000207047184b9b8903f035
:104a40000403002bd4bf12200020704741f63243ec
:104a5000984205d041f6334398420ad0122070475d
:104a60000d4b9b8903f00803002bd4bf12200020bc
:104a700070470a4b9b8903f00803002bd4bf122018
:104a800000207047002070471220704712207047a6
:104a900012207047e401002030030020ec020020c7
:044aa00012020020de
:020000040000fa
:104aa40030b583b002a8002340f8043d0422114627
:104ab40001f040f8019b2a4c1a0a22701b0c9b023d
:104ac40003f6ff73274a138003f032f823784bb1bf
:104ad4000024234d204602f0a7ff0134e4b22b78d2
:104ae400a342f7d801f0c4f900241f4b1c701f4bdc
:104af4001c701f4b1c701f4b1c701f4b1c701f4bda
:104b04001c701f4b1c701f4b1c801f4b1c801f4ba9
:104b14001c801f4b1c801f4b1c801f4b1c801f4b79
:104b24001c701f4b1c701f4b1c801f4b1c801f4b89
:104b34001c801f4b1c8001201e4b1870214601f065
:104b440041fc1d4b1c801d4b1c701d4b1c7002f046
:104b5400bbff03f033fb204602f02eff03b030bd51
:104b64002a020020160200201c020020e20100207c
:104b740010020020180200201e020020240200203f
:104b84002602002022020020e0010020e80100208b
:104b9400f201002020020020f80100201d02002064
:104ba400ea010020e6010020fa010020e4010020cf
:104bb40012020020e3010020de0100202b0200206d
:044bc40025020020a6
:020000040000fa
:104bc80030b583b00020364b187002f02bff01205f
:104bd80002f028ff334b1868002853d003f07cfb01
:104be800314b186828b12f4b1b68984201d003f04d
:104bf80073fb2e4b186848b12a4b1b68984205d0a6
:104c0800294b1b68834201d003f066fb01f07efd4f
:104c180003f01efa0024264b1c60224b1c60234b19
:104c28001c60214b1c60234b1c7002ad45f8044de1
:104c3800042240f60c01284600f07aff019b23f07d
:104c480000730193042240f60c01284601f00afd86
:104c5800194b1c70194b1c70194b1c70194b1c708c
:104c6800194b1c70194c204603f07ef810b103f064
:104c780033fbf8e7164c204603f076f858b103f0fa
:104c88002bfbf8e7084b18680028b0d1074b1868c9
:104c98000028b5d1bae702f015ff03b030bd00bf58
:104ca800c6020020e8020020cc020020d402002026
:104cb800dc020020e4020020c5020020d802002007
:104cc800e1020020e00200205802002090020020ab
:044cd8005c0200205a
:020000040000fa
:104cdc0030b40c46002933d0002831d03e49097f2e
:104cec00002977d13c4908604a6000254d618d61ef
:104cfc000d6139498c60002a37d0374ad360364a67
:104d0c00012111773549c968d1689268914202d95d
:104d1c008c1a314d2c61314c646814f4706f34d1a1
:104d2c00002a26d001782d4a11612b498a6901325b
:104d3c008a61002b43dd0120284b986130bc704701
:104d4c00002b41d0002a41d02349097f00293fd1b3
:104d5c00214908604a6000254d618d610d61002874
:104d6c00c7d100211c4a9160c7e700211a4ad160c3
:104d7c00c5e7194a1269002adbd0ff21174a1161d5
:104d8c0015490a69013a0a61d3e75208124ca2602c
:104d9c0025696d0825614908e16032b101880f4a27
:104dac001161a2690132a261c3e7002dc1d0ff21bc
:104dbc000a4a116108490a69013a0a61b9e70222f3
:104dcc00064b9a610120b9e70020b7e70020b5e750
:104ddc000020b3e70020b1e7c000002000340042ff
:020000040000fa
:104dec0038b5364b1b7813b902f066fa38bd02f0b1
:104dfc00a7fd10f4806f1dd0314b1b782bb1314bbc
:104e0c001b7813b10022304b1a80304b1b8d13b121
:104e1c00013b2e4a13852d4b1a8d2d4b1a850122e1
:104e2c002c4b1a7000222c4b1a802c4b1b7863b322
:104e3c0001f058fd254b5b88012b38d0284b1b7893
:104e4c002bb1234b5b88012b34d0222b32d002f0b8
:104e5c0077fd10f4806fc7d01c4a538d01339bb281
:104e6c0053851b4a53851f4d1f4c0422298820460d
:104e7c0003f03bf929881d4b1b8819440439042283
:104e8c0089b2204603f031f9aee7164d164c0422d8
:104e9c002988204603f029f92988144b1b881944ca
:104eac000439042289b2204603f01ff9c2e702f04c
:104ebc00d3fdc3e702f042f8c9e700bf250200208a
:104ecc00fc0100201d0200202802002030030020dd
:104edc00ec02002018020020e00100201e0200203d
:104eec0024020020f001002000020020e401002038
:020000040000fa
:104efc0008b50022344b1a80344b1b78002b3dd064
:104f0c00334b1b781bb1334a138801331380324b5c
:104f1c001b883bb3314a128893421dd2304b1b88fd
:104f2c00002b2ed02f4b1b8d2f4a12899a4219d34e
:104f3c0003332c4a138515e00023284a13802b4a8f
:104f4c0013850fe001f0faff294b1b88012b15d1bb
:104f5c000022204b1a8011e0214b1b880bb301322d
:104f6c001e4b1a8002f078fd194b1b7833b1204b85
:104f7c001b881bb1174a12889a42e3d002f09cf9a5
:104f8c0008bd1c4a1288002aecd0002bead1174b22
:104f9c001b8d154a12899a4207d30333134a138582
:104fac0003e0144b1b88002bd9d002f0c9fc10f481
:104fbc00006fc1d1094b1b88074a12889a42d1d382
:104fcc000133064a1380cde7e80100201d020020c2
:104fdc0024020020ec0100201402002028020020f2
:104fec00e401002030030020882f0020ec02002078
:084ffc000e0200201202002049
:020000040000fa
:105004002de9f04f83b0009001913d4b1d88002d98
:1050140068d04ff000094d469a464ff0010b07e067
:1050240009f101091ffa89f9baf800304b4559d939
:105034000aeb4903588802f087ff0646002840d04f
:1050440083691f88002febd00137bfb25c46d6f8c6
:1050540018803146e0b200f03dfec0f30e1018f89f
:1050640010302b449db20134a4b2bc42efd1d7e737
:105074000af1010a1ffa8afabbf8003053451ed917
:105084000beb4a03588802f05fff064638b3836986
:105094001f88002fecd00137bfb20124d6f8189036
:1050a4003146e0b200f016fec0f30e1019f81030cd
:1050b4001d44adb20134a4b2bc42efd1d8e7002004
:1050c40003e04ff0000845462520eb1ddb10009a55
:1050d4001380019ba3f8008003b0bde8f08f002586
:1050e4002420f2e7ec1dc4f3cf08064b188828b13e
:1050f4004ff0000a5546dff80cb0c1e70546e4e777
:08510400e82f0020ec2f002031
:020000040000fa
:10510c00534d206f757470757420706172616d658c
:10511c007465720053796e6368726f6e697a61742c
:10512c00696f6e2054797065004379636c65205407
:10513c00696d65000053796e6368726f6e697a6190
:10514c0074696f6e20547970657320737570706f0d
:10515c0072746564004d696e696d756d2043796379
:10516c006c652054696d650043616c6320616e64ed
:10517c0020436f70792054696d6500004765742079
:10518c004379636c652054696d650044656c617985
:10519c002054696d650053796e6330204379636cdc
:1051ac00652054696d6500534d2d4576656e7420f0
:1051bc004d6973736564004379636c652054696d44
:1051cc006520546f6f20536d616c6c005368696679
:1051dc00742054696d6520546f6f2053686f72741e
:1051ec0000000000000000000000000000000000b3
:1051fc0000000053796e63204572726f7200ff00dd
:020000040000fa
:10520c00534d20696e70757420706172616d657498
:10521c0065720053796e6368726f6e697a61746936
:10522c006f6e2054797065004379636c6520546906
:10523c006d65000053796e6368726f6e697a617484
:10524c00696f6e20547970657320737570706f720e
:10525c00746564004d696e696d756d204379636c7e
:10526c00652054696d650043616c6320616e642038
:10527c00436f70792054696d650000476574204355
:10528c0079636c652054696d650044656c617920a7
:10529c0054696d650053796e6330204379636c6596
:1052ac002054696d6500534d2d4576656e74204d07
:1052bc006973736564004379636c652054696d652b
:1052cc0020546f6f20536d616c6c00536869667469
:1052dc002054696d6520546f6f2053686f72740091
:1052ec0000000000000000000000000000000000b2
:1052fc00000053796e63204572726f7200ff0000dc
:020000040000fa
:10530c0030b583b002a8002340f8043d0422334b8f
:10531c00198800f00bfc019ca3b20193304b1b7855
:10532c00012b0ad02f4b1b7813b92f4b1b78cbb109
:10533c0001222e4b1a7003b030bd0a2002f0c2ffbe
:10534c0005460028eed00021016004230380a980cb
:10535c000123c3800723038101f0a2fb284602f03e
:10536c00b9ffdfe70022214b1a70214b1888063455
:10537c00a2b2824228bf0246144602f0a3ff1d4b84
:10538c001860c0b12246154b198800f0cffb02a85b
:10539c00002340f8083d042240f6040100f0c6fb4f
:1053ac00009b0093009b13f4006f08d1114b1868fd
:1053bc0001f000febfe701220c4b1a70bbe70e4850
:1053cc0000230360054b1988094b1b8819440439c9
:1053dc00042289b200f0aafbe8e700bfc802002053
:1053ec00c4020020c5020020e1020020d8020020e7
:0c53fc00e2020020dc0200200002002081
:020000040000fa
:1054080038b505460c4603f027f808b30246611e76
:10541800c9b201eb85005388dbb243ea00239bb293
:105428005380022d15d0032d39d0002111715171ef
:105438009171d171002111706ff05f01517023f0eb
:10544800ff032a4909780b435380104601f03afdbf
:1054580038bd0329eed8dfe801f002020c11002163
:105468001171102151714ff0ff3191711f21d171cc
:10547800e0e71f4909889180d180dbe71c4909884a
:1054880039b100210a201071517101209071d17138
:10549800d0e70021117151719171d171cae70329c7
:1054a800c8d8dfe801f002020c11002111711021a7
:1054b80051714ff0ff3191711f21d171bae70d4938
:1054c80009889180d180b5e70a49098839b1002156
:1054d8000e201071517101209071d171aae700213d
:1054e800117151719171d171a4e700bfe3010020de
:0854f800e40100201202002073
:020000040000fa
:1055000038b5059c602954d000293bd0258905f485
:105510007f45258100284ed1e088c0f30b0040f480
:105520004050e080402925d104990139032910d841
:105530000a232370002363709df81030c3f1040325
:1055400042f0030242ea830245f0400515432581fb
:1055500043e00499994298bf049b0a332380bdf825
:105560001030a381049b1b0ce38142f041021543e0
:10557000258132e00a2323700023637045f0600523
:1055800025812ae0b8b9e388c3f30b0343f4405301
:10559000e3800a23237000236370238943f02003f0
:1055a00023811ae0e388c3f30b0343f44053e38001
:1055b00013e00028f6d00a23237000236370e388e9
:1055c000c3f30b0343f40053e380238943f08003c8
:1055d0002381064b53f82030e3600221204601f07e
:1055e00065fa10b1024b1c6038bd38bdb0700000c8
:0455f000c0010020d6
:020000040000fa
:1055f40010b582b02a4a20241480002353805360bb
:1056040044f21f009081274911615361938313620f
:105614001385538582f84030234a148053805360a5
:10562400908111615361938313621385538582f8ca
:1056340040301e4a137002f0d9fa20bb00231c4ae2
:1056440013701c4a13701c4a13801c4a13701c4aa2
:1056540013601c4a13601c4a13601c4a136002a89e
:1056640040f8043d0422082100f064fa019b13f081
:10567400080f0bd00022164b1a704ff47a62154ba8
:105684001a6002b010bd02f00ffcd7e70122104be4
:105694001a7004224ff411610f4800f04bfaece742
:1056a40030030020a0860100ec02002074030020d7
:1056b400ac230020ad230020de230020e0230020c3
:1056c400bc23002098230020a8230020c02300200e
:0c56d4000c020020f8000020f400002070
:020000040000fa
:1056e000002966d02de9f0470e4633490f68b7f51b
:1056f000802f47d215460446304b186806eb000849
:10570000b8f5005f41d9c0f50052dff8b8a0caf87b
:105710000020dff8ac902146484402f0e1fcdff8bd
:105720009c804ff40053c8f800304946384601f0d9
:10573000b6ff214a1368d8f800100b441360daf85a
:1057400000100023c8f80030761ab6b23246214461
:10575000484602f0c5fcc8f80060184b1b68b3f55a
:10576000005f03d075b9b3f5005f18d3124c14492c
:10577000206801f094ff114a236811680b442360ec
:10578000002313600020bde8f087324621460c4b11
:10579000184402f0a5fc094bc3f80080dde7c3f50f
:1057a000005208490a60ff210548184402f0a0fd94
:1057b000dce70020704700bfd82f0020dc2f00203e
:0857c0007c030020e02f002013
:020000040000fa
:1057c8002de9f04184b01e465469e9b10f4693892a
:1057d800c3f30323072b17d0092b24d0002e5ad04c
:1057e8002e4b6c460fcb07c4237039460df10900c8
:1057f80002f08af86b4607cb30607160b2601b78a4
:1058080033734ff00c080ae0204602f075fd1ffaca
:1058180080f826b142462146304602f05dfc4046fb
:1058280004b0bde8f0811ffa81f8204602f064fd5b
:1058380001302518b8f1000fd0d0235c0233dbb259
:10584800012bcbd9b8f1010f10d001240134a4b237
:10585800284602f051fd01300544a045bed32b78ff
:105868000233dbb2012bb9d9a045efd1284602f0ab
:1058780043fd1ffa80f846b1b8f1000fb0d0424698
:105888002946304602f028fcc9e7b8f1000f08bfe6
:105898004ff00c08c3e74ff00c08c0e7782f002042
:020000040000fa
:1058a8002d4b1b78002b56d02de9f04782b01746b8
:1058b8000d468146294b1e683389dbb203f0e00aa6
:1058c80003f01004baf1400f0fd04ff00008002287
:1058d800214b1a7001960095434622465146484688
:1058e800fff70afe02b0bde8f0871d4bb3f8008051
:1058f800a8f110081ffa88f888450bd34b1e032b14
:1059080020d806f10c008242e1d00a46394602f05e
:10591800e3fbdce70123134a1370134a1370134b9c
:105928001c70134b19606022124b1a70124b1f60c7
:105938004246394606f1100002f0cefb0f4bc3f881
:105948000080c4e706f110008242c0d00a463946fa
:1059580002f0c2fbbbe7704716300020b8230020d6
:10596800d0020020a1230020ae230020a023002085
:10597800a4230020af230020c02300209c23002064
:020000040000fa
:1059880008b5214b1b88002b35d1204b1b88002bd9
:1059980035d14ff2f33002f00df800231c4a137092
:1059a8001c4a13701c4a13701c4a13701c4a13704b
:1059b8001c4a13801c4a13801c4a13801c4a1380fb
:1059c8001c4a13801c4a13801c4a13801c4a1380eb
:1059d8001c4a1385538582f840301b4a138553852a
:1059e80082f84030194a1380194a1370194a137003
:1059f800194a137008bd022002f014f8c5e7032005
:105a080002f010f8c5e700bfe401002012020020f0
:105a180018020020250200201d020020fc010020a1
:105a2800190200201402002028020020f2010020a0
:105a3800e801002020020020f80100200e020020ca
:105a4800ec01002030030020ec020020f6010020c9
:0c5a58002602002024020020740300201d
:020000040000fa
:105a640008b52a4b1b78002b4fd0294b1b78002bf1
:105a740037d0284b1b78002b37d1274b1b78002bb2
:105a840033d102f0f3fc01f0ebff244b1b7813bb82
:105a940002f0f0fc29e001f0dffd10f4806f0cd07f
:105aa40001221c4b1a7000221d4b1a801d4b1b78bf
:105ab400002be6d000f01affe3e71b4b1b88002bfa
:105ac400dfd110f4006fdcd00122124b1a700022d7
:105ad400134b1a80d5e701f035fad9e701f05cfbe6
:105ae40008e00d4b1b78002bd5d0104b1b68b3f589
:105af4007a6ff3d2fef752fd00f00efd01f06efe58
:105b04000b4b1b680bb1984708bd08bd1030002033
:105b140025020020180200201d020020240200207b
:105b2400e00100201e020020e4010020f800002013
:045b340060010020ec
:020000040000fa
:105b3800002a64d02de9f04383b00d461746064687
:105b48004ff0c0094ff4417846e0032c04d8012ceb
:105b58008cbf0224012418e08df804502b0a8df81c
:105b680005308df806408df8079002f07dfc01a9fc
:105b7800404601f0e9f801a94ff4407001f062f8dd
:105b880002f076fc14b316e001248df804502b0ab9
:105b98008df805308df806408df8079002f064fc0a
:105ba80001a9404601f0d0f801a94ff4407001f076
:105bb80049f802f05dfc01a9324611f8013b02f8f0
:105bc800013b931bdbb2a342f7d31646a4b225448c
:105bd800adb23c1ba7b27fb115f0010fd4d13c4642
:105be800042f28bf0424e4b215f0020fadd0012c15
:105bf8008cbf02240124c8e703b0bde8f0837047d6
:020000040000fa
:105c0800274b1b78002b4ad0264b1b78002b46d0fd
:105c1800254b1b8813b3254a128893421bd80022b0
:105c2800234b1a70234b1b78002b38d00022214bb2
:105c38001a70704700221e4b1a70f3e701221d4ba1
:105c48001a701d4bb3f90030002b28dd1b4a13884e
:105c58000133138070470132144b1a800122144b10
:105c68001a70174b1b8833b1164a12889342e1d930
:105c78000132144b1a80144b1a8d144b1b899a420b
:105c8800dcd30c4b1b7853b100220a4b1a700a4b19
:105c9800b3f90030934202dd084b1a807047704711
:105ca8001d02002024020020f2010020e80100204b
:105cb800fc01002019020020f6010020ee0100205e
:105cc800f80100202002002030030020882f002047
:020000040000fa
